:100000000C9464000C948C000C948C000C948C0068
:100010000C948C000C948C000C948C000C948C0030
:100020000C948C000C948C000C948C000C948C0020
:100030000C948C000C948C000C948C000C948C0010
:100040000C9485080C948C000C94B60A0C94040B48
:100050000C948C000C948C000C948C000C948C00F0
:100060000C94D6060C948C0000000000240027009D
:100070002A0000000000250028002B0000000000DE
:1000800023002600290004040404040404040202DA
:100090000202020203030303030301020408102007
:1000A0004080010204081020010204081020000012
:1000B0000007000201000003040600000000000029
:1000C00000008E007205700C11241FBECFEFD8E027
:1000D000DEBFCDBF11E0A0E0B1E0ECE3FCE102C087
:1000E00005900D92A636B107D9F712E0A6E6B1E069
:1000F00001C01D92A43FB107E1F710E0C8ECD0E0C9
:1001000004C02297FE010E94180EC23CD107C9F715
:100110000E94C60C0C941C0E0C94000086E691E024
:1001200060E00E94A10108950F931F93CF93DF9386
:100130008EE00E946B09EC018FE00E946B098C013C
:1001400086E691E061E00E94780386E691E060E057
:1001500071E00E94D20D86E691E063E040E00E94EB
:10016000410383E0C83ED80774F486E691E0BE01FF
:100170004AE050E00E94BF0D86E691E063E071E046
:100180000E94D20D07C086E691E0BE014AE050E031
:100190000E94BF0D86E691E068E040E00E944103C6
:1001A00086E691E065E071E00E94D20D86E691E07E
:1001B0006CE040E00E9441038AE00E94200A892B03
:1001C00029F486E691E06AE071E00EC08AE00E94C0
:1001D000200A019729F486E691E06CE071E004C002
:1001E00086E691E06EE071E00E94D20D86E691E035
:1001F00060E041E00E94410386E691E060E171E049
:100200000E94D20D86E691E063E041E00E94410346
:1002100086E691E0B8014AE050E00E94BF0D86E614
:1002200091E068E041E00E94410386E691E063E1ED
:1002300071E00E94D20D84E00E94200A019729F407
:1002400086E691E06AE071E004C086E691E06CE049
:1002500071E00E94D20D86E691E066E171E00E94B5
:10026000D20D86E00E94200A019729F486E691E0EB
:100270006AE071E004C086E691E06CE071E00E9403
:10028000D20D86E691E063E071E00E94D20DD0933A
:100290003201C09331011093340100933301DF9197
:1002A000CF911F910F9108950F931F9382E061E00A
:1002B0000E948D0983E061E00E948D0989E061E080
:1002C0000E948D0989E060E00E94CC0982ED92E0F5
:1002D00040E855E260E070E00E943F0B87E061E09B
:1002E0000E948D0906E611E0C80160E142E020E0CD
:1002F0000E948503C8016AE171E00E94D20DC80125
:1003000060E041E00E944103C80164E271E00E94A4
:10031000D20D68EB7BE080E090E00E94CD08C80140
:100320000E9470038AE062E00E948D0984E060E030
:100330000E948D0986E060E00E948D091F910F9157
:100340000895FC01138212828AE391E091838083F5
:10035000618F178681E084838FEF858382E08683B7
:1003600083E0878384E0808785E0818786E08287D9
:100370000895FC01818D8F3F29F0CF014A960E949C
:10038000BC04089585898F3F21F4862F642F0E9435
:100390008D090895CF93DF93EC01898D8F3F29F06C
:1003A000CE014A960E9492042AC08D898F3F19F18E
:1003B000288D413049F481E090E002C0880F991FF8
:1003C0006A95E2F7282B09C081E090E002C0880F0F
:1003D000991F6A95E2F780952823288F8F8960E01E
:1003E0000E94CC098E896D8941E0288D0E94730A94
:1003F0008F8961E002C0862F642F0E94CC09DF91B3
:10040000CF9108950F931F938C01F801668140E00E
:100410000E94CA0181E090E00E942609C801F8010B
:10042000668141E00E94CA0181E090E00E942609B5
:10043000C801F801668140E00E94CA0184E690E0AC
:100440000E9426091F910F910895CF92DF92EF929B
:10045000FF920F931F93CF93DF93F82EE92E282F4F
:10046000392FC9018C01C0E0D0E0C62EDD248F2DCC
:100470009E2DF801678141E00E94B901A6010C2E72
:1004800002C0559547950A94E2F741708F2D9E2D35
:10049000F80167810E94CA0121960F5F1F4FC83083
:1004A000D10529F78F2D9E2D0E940202DF91CF9159
:1004B0001F910F91FF90EF90DF90CF900895AF9232
:1004C000BF92CF92DF92EF92FF920F931F93CF9341
:1004D000DF937C01B62EFC01818D8F3F09F468C04B
:1004E0008AE1C82ED12CCE0CDF1CC6010E948E04DE
:1004F000782FF70140E050E0AB2DB0E001E010E0D4
:1005000087819D01042E02C0359527950A94E2F754
:1005100021703070082E02C0220F331F0A94E2F7B8
:10052000C1E0D0E0580102C0AA0CBB1C8A95E2F7DA
:10053000C50180957823722B4F5F5F4F3196443011
:100540005105F1F68E01F701068002C0000F111F60
:100550000A94E2F700950723C601602F0E94600409
:1005600081E090E00E942609CE01F701068002C0DA
:10057000880F991F0A94E2F7082BC601602F0E948A
:10058000600481E090E00E942609F701068002C025
:10059000CC0FDD1F0A94E2F75E01A0940A21C60188
:1005A000602F0E94600484E690E00E94260921C02A
:1005B0008701C0E0D0E0C62EDD24C701F8016781C5
:1005C00041E00E94B901A6010C2E02C05595479545
:1005D0000A94E2F74170C701F80167810E94CA01DD
:1005E00021960F5F1F4FC430D10539F7C7010E9414
:1005F0000202DF91CF911F910F91FF90EF90DF905A
:10060000CF90BF90AF9008951F93CF93DF93EC01ED
:10061000162F6C810E94CA016D816F3F21F0CE01BF
:1006200040E00E94CA018F8584FF05C0CE01612F82
:100630000E9425020EC0612F70E094E075956795C9
:100640009A95E1F7CE010E945F02CE01612F0E94D0
:100650005F02DF91CF911F91089541E00E94040352
:1006600081E090E0089540E00E9404030895FC01B9
:100670006089862F8460808B6C60CF010E94330379
:100680000895DF93CF93CDB7DEB728970FB6F894D0
:10069000DEBF0FBECDBF9C01FE013196AEE3B1E0DF
:1006A00088E00D9001928150E1F7F9018389841768
:1006B00010F4482F4150E42FF0E0EE0FFF1FEC0F35
:1006C000FD1F8181680F6068C9010E94330328966D
:1006D0000FB6F894DEBF0FBECDBFCF91DF91089566
:1006E00061E00E94330380ED97E00E94260908959F
:1006F000FC01462F818D8F3F19F485898F3F21F0B2
:10070000CF0167E00E94CA010895AF92BF92CF92D5
:10071000DF92EF92FF920F931F93CF93DF93EC0141
:10072000B42EA22E698D6F3F71F17AE1E72EF12C84
:10073000E80EF91EC7010E94E804C70167E041E026
:100740000E94BC04C70167E041E00E9492048E0150
:1007500054E0C52ED12CCC0EDD1ECE01F8016781F0
:1007600041E00E94B9010F5F1F4F0C151D05A9F74D
:10077000C7016C8141E00E94BC04C7016E8141E069
:100780000E94BC0405C08D898F3F11F080E8888FDE
:10079000F1E0FB1518F48F8588608F87BB8A1C8A6F
:1007A000AA2031F081E0B81619F48F8584608F8714
:1007B00080E593EC0E942609CE016C8140E00E9406
:1007C000CA01CE016E8140E00E94CA016D816F3F77
:1007D00021F0CE0140E00E94CA016F8564FD1DC07A
:1007E000CE0163E00E945F0284E991E10E94260944
:1007F000CE0163E00E945F0284E991E10E94260934
:10080000CE0163E00E945F0286E990E00E94260923
:10081000CE0162E00E945F0216C06062CE010E94BB
:10082000330384E991E10E9426096F856062CE015D
:100830000E94330386E990E00E9426096F8560627A
:10084000CE010E9433036F856062CE010E943303A4
:1008500084E0888BCE010E943703CE010E94700392
:1008600082E0898BCE0166E00E943303DF91CF9155
:100870001F910F91FF90EF90DF90CF90BF90AF90BE
:100880000895EF92FF920F931F93FC01F62EE42E32
:1008900007EC11E060816062C80170E00E943805D9
:1008A000C8016F2D0E94BA05C8016E2D0E94BA05BD
:1008B000C8010E94FD051F910F91FF90EF900895D0
:1008C000462F69E00E9441040895DF92EF92FF9263
:1008D0000F931F937C01D62E07EC11E0FC01608181
:1008E0006062C80170E00E943805C8016D2D0E9449
:1008F000BA05C8010E94FD05F70160816062C80168
:1009000070E041E050E00E940E06C8010E944B05D5
:100910001F910F91FF90EF90DF90089569E00E9482
:10092000650408950F931F93CF93DF93EC01162F67
:10093000042F6830E0F40E948E04282F013051F417
:1009400081E090E002C0880F991F1A95E2F7622FAC
:10095000682B0AC081E090E002C0880F991F1A95A9
:10096000E2F7682F60956223CE010E946004DF9158
:10097000CF911F910F9108950F931F93CF93DF9302
:10098000EC01162F042F6830F0F460E00E9465043B
:10099000282F002351F481E090E002C0880F991FB6
:1009A0001A95E2F7422F482B0AC081E090E002C07E
:1009B000880F991F1A95E2F7482F40954223CE01E0
:1009C00060E00E944104DF91CF911F910F91089543
:1009D000CF93DF93EC01683008F067E0688387EC21
:1009E00091E00E9412066881606287EC91E070E0FD
:1009F0000E94380587EC91E060E00E94BA0587EC20
:100A000091E06FEF0E94BA0587EC91E060E00E94F0
:100A1000BA0587EC91E060E00E94BA0587EC91E0AE
:100A200060E00E94BA0587EC91E060E00E94BA05A0
:100A300087EC91E060E00E94BA0587EC91E060E00D
:100A40000E94BA0587EC91E060E00E94BA0587EC4D
:100A500091E060E00E94BA0587EC91E060E00E94BE
:100A6000BA0587EC91E00E94FD05DF91CF910895D2
:100A700081E08093C6016093A3011092C40110929B
:100A8000C50108952091A20130E08091A101281BA9
:100A90003109C90108954091A1018091A20148172F
:100AA00018F02FEF3FEF0AC0E42FF0E0EF57FE4FB2
:100AB0008081282F30E04F5F4093A101C901089544
:100AC000E091A1018091A201E81718F0EFEFFFEF8C
:100AD00006C0F0E0EF57FE4F8081E82FF0E0CF0135
:100AE000089508951092CA011092C90188EE93E00A
:100AF000A0E0B0E08093CB019093CC01A093CD0116
:100B0000B093CE018AE491E09093C8018093C7012D
:100B10000895CF92DF92EF92FF920F931F93CF939E
:100B2000DF937C016B018A018091C6018823A1F0CB
:100B3000C0E0D0E00DC0D701ED91FC91D601AC0F23
:100B4000BD1F0190F081E02DC7016C9109952196A0
:100B5000C017D10780F304C0CB01642F0E94BB06ED
:100B6000C801DF91CF911F910F91FF90EF90DF901F
:100B7000CF900895DF93CF930F92CDB7DEB7FC01EE
:100B800069838091C6018823C9F08091C5018032B4
:100B900038F081E090E09383828320E030E015C05C
:100BA0008091C401E82FF0E0EC55FE4F99819083CD
:100BB0008F5F8093C4018093C50105C0CE0101966B
:100BC00061E00E94BB0621E030E0C9010F90CF91A7
:100BD000DF9108950F93062F8091A30164EA71E0DD
:100BE0004091C50121E00E9466061092C401109256
:100BF000C5011092C6010F91089561E00E94EA05B7
:100C00000895413208F040E2862F61E871E00E94C9
:100C10001D061092A1018093A201089521E00E9477
:100C2000010608951092A1011092A2011092C40130
:100C30001092C5010E9467080895382F413210F0C4
:100C400040E042C08091D3018823E1F791E0909386
:100C5000D3012093D5018FEF809340021092FB01C6
:100C600041504093FC014F5F9093D4018091D40197
:100C7000330F832B8093D4018091D601813041F4CE
:100C80001092D6018091D4018093BB0085EC01C005
:100C900085EE8093BC008091D3018130E1F3809197
:100CA000FB01841710F44091FB0120E030E00AC002
:100CB000FB01E20FF31FD901A552BE4F8C91808337
:100CC0002F5F3F4F2417A0F3842F08950F931F9396
:100CD000582F122F413210F081E04AC08091D30189
:100CE0008823E1F782E08093D3010093D5018FEF51
:100CF000809340021092FB014093FC01ABEDB1E008
:100D0000FB0102C081918D938E2F861B8417D0F337
:100D10001092D4018091D401550F852B8093D4017A
:100D20008091D601813041F41092D6018091D40196
:100D30008093BB0085EC01C085EE8093BC0011233D
:100D400021F08091D3018230E1F3809140028F3F06
:100D500011F480E00DC080914002803211F482E0F5
:100D600007C080914002803311F084E001C083E02D
:100D70001F910F910895482F613210F081E008957E
:100D80008091D301843011F082E0089560931E02B7
:100D9000ADEFB1E0842F9C01F90102C081918D93E8
:100DA0008E2F841B8617D0F380E008951F920F9238
:100DB0000FB60F9211242F933F934F935F936F932E
:100DC0007F938F939F93AF93BF93EF93FF93809104
:100DD000B90090E0887F90708036910509F4F2C0E8
:100DE00081369105CCF58832910509F47BC08932B2
:100DF0009105B4F48031910509F46FC081319105FA
:100E00003CF4009709F447C1089709F04FC165C049
:100E10008831910509F466C0809709F047C182C006
:100E20008034910509F4A4C08134910544F48033E1
:100E3000910509F482C0C89709F038C189C080358E
:100E4000910509F489C08835910509F496C0883464
:100E5000910509F02BC1AEC08839910509F413C181
:100E600089399105ECF48837910509F4ABC08937CD
:100E700091054CF48836910509F4A4C0803791059A
:100E800009F014C19FC08838910509F4FCC080396D
:100E9000910509F49DC08038910509F007C198C0FB
:100EA000803B910509F4C6C0813B91054CF4803A22
:100EB000910509F49FC0883A910509F0F7C0BAC0BE
:100EC000803C910509F4E3C0883C910509F4DFC03A
:100ED000883B910509F0EAC0C2C08091D40180939B
:100EE000BB00CFC09091FB018091FC01981768F482
:100EF0009091FB01E92FF0E0E552FE4F8081809355
:100F0000BB009F5F9093FB01BCC08091D5018823FB
:100F100009F44BC085ED8093BC008091BC0084FD3A
:100F2000FCCFC2C080E28093400285ED8093BC007C
:100F30008091BC0084FDFCCFB7C080E38093400269
:100F400085ED8093BC008091BC0084FDFCCFACC0DB
:100F500088E3809340029BC08091FB019091BB008D
:100F6000E82FF0E0E552FE4F90838F5F8093FB0106
:100F70009091FB018091FC0182C08091FB019091D6
:100F8000BB00E82FF0E0E552FE4F90838F5F809327
:100F9000FB018091D501882341F085ED8093BC0051
:100FA0008091BC0084FDFCCF7FC081E08093D6019E
:100FB00084EA6EC085ED8093BC008091BC0084FD06
:100FC000FCCF72C083E08093D30110923F0259C0DE
:100FD00080913F02803208F056C080913F0290918C
:100FE000BB00E82FF0E0E15EFD4F90838F5F8093C0
:100FF0003F0247C080913F02803230F4E0913F02CF
:10100000F0E0E15EFD4F108285ED8093BC008091A1
:10101000BC0084FDFCCF1092D30160913F02E091AF
:10102000D901F091DA018FE192E070E00995109218
:101030003F022DC084E08093D30110921D021092D4
:101040001E02E091D701F091D801099580911E020E
:10105000882329F481E080931E021092FD01909173
:101060001D02E92FF0E0E350FE4F80818093BB002A
:101070009F5F90931D0290911D0280911E02981710
:1010800010F485EC01C085E88093BC000FC085ECAE
:101090008093BC0009C01092400285ED8093BC0093
:1010A0008091BC0084FDFCCF1092D301FF91EF91A1
:1010B000BF91AF919F918F917F916F915F914F9170
:1010C0003F912F910F900FBE0F901F901895109287
:1010D000D30181E08093D5011092D60182E161E0D5
:1010E0000E94CC0983E161E00E94CC09E9EBF0E0C9
:1010F00080818E7F808380818D7F808388E4809350
:10110000B80085E48093BC0008951F920F920FB63B
:101110000F9211242F933F938F939F93AF93BF937D
:101120008091450290914602A0914702B0914802F9
:10113000309149020196A11DB11D232F2D5F2D373E
:1011400020F02D570196A11DB11D209349028093D7
:10115000450290934602A0934702B09348028091C3
:10116000410290914202A0914302B0914402019643
:10117000A11DB11D8093410290934202A0934302AE
:10118000B0934402BF91AF919F918F913F912F9166
:101190000F900FBE0F901F9018959B01AC017FB769
:1011A000F8948091410290914202A0914302B09143
:1011B000440266B5A89B05C06F3F19F00196A11DBA
:1011C000B11D7FBFBA2FA92F982F8827860F911D99
:1011D000A11DB11D62E0880F991FAA1FBB1F6A9550
:1011E000D1F7BC012DC0FFB7F894809141029091D6
:1011F0004202A0914302B0914402E6B5A89B05C00B
:10120000EF3F19F00196A11DB11DFFBFBA2FA92F05
:10121000982F88278E0F911DA11DB11DE2E0880F28
:10122000991FAA1FBB1FEA95D1F7861B970B885EF3
:101230009340C8F2215030404040504068517C4FAC
:10124000211531054105510571F60895019739F0D1
:10125000880F991F880F991F02970197F1F708953A
:10126000789484B5826084BD84B5816084BD85B581
:10127000826085BD85B5816085BDEEE6F0E0808148
:1012800081608083E1E8F0E0108280818260808369
:10129000808181608083E0E8F0E0808181608083EC
:1012A000E1EBF0E0808184608083E0EBF0E080811E
:1012B00081608083EAE7F0E08081846080838081C0
:1012C0008260808380818160808380818068808368
:1012D0001092C1000895982F8E3008F09E5097709C
:1012E000809135018295880F880F807C892B8093AF
:1012F0007C0080917A00806480937A0080917A00EB
:1013000086FDFCCF2091780040917900942F80E0F9
:1013100030E0282B392BC9010895CF93DF93482F54
:1013200050E0CA0186569F4FFC0134914A575F4FE7
:10133000FA018491882369F190E0880F991FFC01DC
:10134000E859FF4FA591B491FC01EE58FF4FC591AC
:10135000D491662351F42FB7F8948C91932F9095E4
:1013600089238C93888189230BC0623061F42FB765
:10137000F8948C91932F909589238C938881832B5B
:1013800088832FBF06C09FB7F8948C91832B8C93D2
:101390009FBFDF91CF910895482F50E0CA01825539
:1013A0009F4FFC012491CA0186569F4FFC019491E6
:1013B0004A575F4FFA013491332309F440C0222386
:1013C00051F1233071F0243028F42130A1F0223083
:1013D00011F514C02630B1F02730C1F02430D9F413
:1013E00004C0809180008F7703C0809180008F7D42
:1013F0008093800010C084B58F7702C084B58F7D44
:1014000084BD09C08091B0008F7703C08091B00087
:101410008F7D8093B000E32FF0E0EE0FFF1FEE58BA
:10142000FF4FA591B4912FB7F894662321F48C91C6
:101430009095892302C08C91892B8C932FBF08959E
:10144000682F70E0CB0182559F4FFC012491CB01A6
:1014500086569F4FFC0144916A577F4FFB01949140
:10146000992319F420E030E03CC0222351F12330CD
:1014700071F0243028F42130A1F0223011F514C08D
:101480002630B1F02730C1F02430D9F404C0809167
:1014900080008F7703C0809180008F7D80938000D3
:1014A00010C084B58F7702C084B58F7D84BD09C01C
:1014B0008091B0008F7703C08091B0008F7D8093C2
:1014C000B000892F90E0880F991F84589F4FFC012E
:1014D000A591B4918C9120E030E0842311F021E0BB
:1014E00030E0C9010895BF92CF92DF92EF92FF9250
:1014F0000F931F93CF93DF93E82EF62EB42EC7E001
:10150000D0E0022F10E087E0C82ED12CBB2059F488
:10151000B6016C1B7D0BC80102C0959587956A9535
:10152000E2F7BC0107C0B8010C2E02C075956795A3
:101530000A94E2F761708E2D0E94CC098F2D61E034
:101540000E94CC098F2D60E00E94CC0921979FEF6B
:10155000CF3FD907D9F6DF91CF911F910F91FF901F
:10156000EF90DF90CF90BF90089508951F920F9253
:101570000FB60F9211242F933F934F938F939F9306
:10158000EF93FF938091C00082FD1DC04091C60083
:1015900020918A0230918B022F5F3F4F2F73307062
:1015A00080918C0290918D022817390771F0E0919B
:1015B0008A02F0918B02E65BFD4F408330938B02F1
:1015C00020938A0202C08091C600FF91EF919F9103
:1015D0008F914F913F912F910F900FBE0F901F90C1
:1015E0001895E091DE02F091DF02E05CFF4F8191FF
:1015F000919120813181821B930B8F739070892B85
:1016000011F00E94B50A08951F920F920FB60F9223
:1016100011242F933F938F939F93EF93FF932091E8
:10162000CE023091CF028091D0029091D102281742
:10163000390731F48091C1008F7D8093C10014C0BF
:10164000E091D002F091D102E257FD4F20818091CC
:10165000D0029091D10201968F7390709093D10235
:101660008093D0022093C600FF91EF919F918F91BC
:101670003F912F910F900FBE0F901F901895AF9232
:10168000BF92DF92EF92FF920F931F93CF93DF935E
:10169000EC017A018B01DD24403081EE580780E0B7
:1016A000680780E0780711F0DD24D39491E0A92E3B
:1016B000B12CEC89FD89DD2069F0C50108A002C0CC
:1016C000880F991F0A94E2F7808360E079E08DE348
:1016D00090E005C0108260E874E88EE190E0A80117
:1016E00097010E94F40D21503040404050405695E3
:1016F00047953795279580E12030380720F0DD2089
:1017000011F0DD24D6CFE889F9893083EA89FB8995
:10171000208319A2EE89FF89408121E030E0C901D0
:101720000C8C02C0880F991F0A94E2F7482B408363
:10173000EE89FF894081C9010D8C02C0880F991F75
:101740000A94E2F7482B4083EE89FF894081C90162
:101750000E8C02C0880F991F0A94E2F7482B408331
:10176000EE89FF8980810F8C02C0220F331F0A94FB
:10177000E2F7209528232083DF91CF911F910F91CD
:10178000FF90EF90DF90BF90AF900895DC011C9622
:10179000ED91FC911D97E05CFF4F2191319180818B
:1017A0009181281B390B2F733070C9010895DC011A
:1017B0001C96ED91FC911D97E05CFF4F20813181DB
:1017C000E054F040DF01AE5BBF4F8D919C911197CB
:1017D0002817390719F42FEF3FEF07C08D919C911F
:1017E000E80FF91F8081282F30E0C9010895DC013E
:1017F0001C96ED91FC911D97E05CFF4F208131819B
:10180000E054F040DF01AE5BBF4F8D919C9111978A
:101810002817390719F42FEF3FEF10C08D919C91D5
:101820001197E80FF91F20818D919C9111970196D6
:101830008F73907011969C938E9330E0C901089538
:10184000DC0191968C919197882339F05496ED9113
:10185000FC915597808186FFF9CF91961C9208954F
:10186000CF93DF93EC01EE85FF85E05CFF4F208195
:101870003181E054F0402F5F3F4F2F733070DF0114
:10188000AE5BBF4F8D919C91119728173907D1F30B
:10189000E05CFF4F80819181E054F040E80FF91F38
:1018A0006083EE85FF85E05CFF4F31832083EE8906
:1018B000FF89208181E090E00F8C02C0880F991F82
:1018C0000A94E2F7282B208381E089A3EC89FD8923
:1018D00080818064808381E090E0DF91CF910895E2
:1018E0001092D5021092D40288EE93E0A0E0B0E00E
:1018F0008093D6029093D702A093D802B093D902D6
:101900008AE591E09093D3028093D2028AE492E038
:101910009093DF028093DE028EE892E09093E102E2
:101920008093E00285EC90E09093E3028093E202E2
:1019300084EC90E09093E5028093E40280EC90E0E8
:101940009093E7028093E60281EC90E09093E902A5
:101950008093E80282EC90E09093EB028093EA029D
:1019600086EC90E09093ED028093EC0284E080930B
:10197000EE0283E08093EF0287E08093F00285E03F
:101980008093F10281E08093F2020895CF93DF9378
:101990000E9430090E945401C1EFDAE00E949400D5
:1019A0002097E1F30E94F10AF9CFCF92DF92EF92F4
:1019B000FF920F931F93CF93DF937C016B018A01FA
:1019C000C0E0D0E00FC0D6016D916D01D701ED915F
:1019D000FC910190F081E02DC7010995C80FD91F36
:1019E000015010400115110571F7CE01DF91CF9123
:1019F0001F910F91FF90EF90DF90CF900895CF93BC
:101A0000DF93EC016115710519F420E030E00FC09F
:101A1000DB010D900020E9F71197A61BB70BE881B9
:101A2000F9810280F381E02DAD0109959C01C90186
:101A3000DF91CF9108954F925F927F928F929F9204
:101A4000AF92BF92CF92DF92EF92FF920F931F93CC
:101A5000DF93CF93CDB7DEB7A1970FB6F894DEBF73
:101A60000FBECDBF2C01742ECB01223008F42AE02A
:101A700019A231E2C32ED12CCC0EDD1E822E992468
:101A8000AA24BB24672D752FA50194010E94F40D93
:101A900079018A01C801B701A50194010E94D50D01
:101AA000472D461B0894C108D1084A3014F4405D04
:101AB00001C0495CF6014083E114F1040105110500
:101AC00021F07E2C5F2DC801DDCFC201B6010E943E
:101AD000FF0CA1960FB6F894DEBF0FBECDBFCF911D
:101AE000DF911F910F91FF90EF90DF90CF90BF900B
:101AF000AF909F908F907F905F904F900895CF927E
:101B0000DF92EF92FF920F931F93CF93DF93EC013D
:101B10006A017B012115310541F4E881F9810190C9
:101B2000F081E02D642F09951FC02A303105D1F4D2
:101B300077FF17C0E881F9810190F081E02D6DE217
:101B400009958C0144275527BA014C195D096E0986
:101B50007F09CE012AE00E941B0D9801280F391F32
:101B600004C02AE00E941B0D9C01C901DF91CF91A6
:101B70001F910F91FF90EF90DF90CF900895EF921B
:101B8000FF920F931F937B019A010027F7FC0095AA
:101B9000102FB801A7010E947F0D1F910F91FF9098
:101BA000EF9008950E94FF0C0895629FD001739FEB
:101BB000F001829FE00DF11D649FE00DF11D929FE9
:101BC000F00D839FF00D749FF00D659FF00D992728
:101BD000729FB00DE11DF91F639FB00DE11DF91F4C
:101BE000BD01CF0111240895A1E21A2EAA1BBB1B2F
:101BF000FD010DC0AA1FBB1FEE1FFF1FA217B307D9
:101C0000E407F50720F0A21BB30BE40BF50B661FEE
:101C1000771F881F991F1A9469F7609570958095B2
:101C200090959B01AC01BD01CF010895EE0FFF1F00
:0C1C30000590F491E02D0994F894FFCF8A
:101C3C00583A00200053656C3A0050004F00580091
:101C4C00593A004D3A0020453A003C204C656674E8
:101C5C00205570003E20526967687420446F776E7F
:101C6C0000FB01EF0101000000002D03D50C00006A
:101C7C0040001400540000000000BA05890542051C
:101C8C004B056005710500000000300CD50CC60B2F
:061C9C00F70BD70B200C32
:00000001FF
