:100000000C9472000C949A000C949A000C949A0030
:100010000C949A000C949A000C949A000C949A00F8
:100020000C949A000C949A000C949A000C949A00E8
:100030000C949A000C949A000C949A000C949A00D8
:100040000C94BF170C949A000C949A000C949A008C
:100050000C949A000C949A000C949A000C949A00B8
:100060000C9410160C949A0005A84CCDB2D44EB93D
:100070003836A9020C50B9918688083CA6AAAA2A4B
:10008000BE000000803F00000000240027002A007E
:1000900000000000250028002B00000000002300C5
:1000A00026002900040404040404040402020202D9
:1000B000020203030303030301020408102040802B
:1000C00001020408102001020408102000000007AB
:1000D0000002010000030406000000000000000010
:1000E0008A05AC1411241FBECFEFD8E0DEBFCDBF10
:1000F00015E0A0E0B1E0EEE7FBE302C005900D9251
:10010000AC39B107D9F716E0ACE9B5E001C01D92F2
:10011000A838B107E1F710E0C4EED0E004C02297A0
:10012000FE010E94821DC03ED107C9F70E94FD1941
:100130000C94BD1D0C940000AEE0B0E0E2EAF0E0EB
:100140000C94941D0D891E8986E08C831A83098383
:100150008FEF9FE79E838D839E01275E3F4FCE01E9
:1001600001966F89788DA9010E94C0002F81388582
:10017000020F131FF80110822E96E4E00C94B01DBC
:10018000ABE0B0E0E6ECF0E00C94861D3C012B0106
:100190005A01FC0117821682838181FD03C06FEF33
:1001A0007FEFC6C19AE0892E1E010894211C311CE4
:1001B000F3012381F20123FD859123FF81912F011A
:1001C000882309F4B2C1853239F423FD859123FFD8
:1001D00081912F01853229F490E0B3010E94B3028E
:1001E000E7CF982FFF24EE249924FFE1FF15D0F0EC
:1001F0009B3269F09C3228F4903259F0933291F49A
:100200000EC09D3249F0903369F441E024C052E0C1
:10021000F52A84E0F82A28C098E0F92A25C0E0E110
:10022000FE2A22C0F7FC29C0892F80538A3070F43F
:10023000F6FE05C0989C902C1124980E15C0E89CE1
:10024000E02C1124E80EF0E2FF2A0EC09E3229F4C1
:10025000F6FC6BC140E4F42A07C09C3619F450E860
:10026000F52A02C0983649F4F20123FD959123FF47
:1002700091912F01992309F0B8CF892F85548330AC
:1002800018F08052833038F444E050E0A40EB51EDC
:100290005FE359830FC0933631F0933779F093358C
:1002A00009F056C020C0F5018081898342E050E00A
:1002B000A40EB51E610101E010E012C0F501C0807E
:1002C000D180F6FC03C06FEF7FEF02C0692D70E0B4
:1002D00042E050E0A40EB51EC6010E94A8028C01A7
:1002E0005FE7F52214C0F501C080D180F6FC03C0A1
:1002F0006FEF7FEF02C0692D70E042E050E0A40E86
:10030000B51EC6010E949D028C0150E8F52AF3FE3D
:1003100007C01AC080E290E0B3010E94B302EA94E1
:100320008E2D90E008171907A8F30EC0F601F7FC10
:100330008591F7FE81916F0190E0B3010E94B302B5
:10034000E110EA94015010400115110579F7EAC057
:10035000943611F0993669F5F7FE08C0F501208151
:1003600031814281538184E090E00AC0F5018081AF
:1003700091819C01442737FD4095542F82E090E005
:10038000A80EB91E9FE6F92257FF09C05095409567
:10039000309521953F4F4F4F5F4FE0E8FE2ACA014D
:1003A000B901A1012AE030E00E94DF02D82ED21864
:1003B00040C0953729F41F2D1F7E2AE030E01DC074
:1003C0001F2D197F9F3661F0903720F4983509F082
:1003D000ACC00FC0903739F0983709F0A6C004C000
:1003E00028E030E00AC0106114FD146020E130E024
:1003F00004C014FD166020E132E017FF08C0F501CB
:10040000608171818281938144E050E008C0F501F0
:1004100080819181BC0180E090E042E050E0A40E38
:10042000B51EA1010E94DF02D82ED2188FE7F82E48
:10043000F122F6FE0BC05EEFF522D91438F4F4FE7B
:1004400007C0F2FC05C08FEEF82202C01D2D01C0CE
:10045000192DF4FE0DC0FE01ED0DF11D80818033DC
:1004600019F499EEF92208C01F5FF2FE05C003C01F
:100470008F2D867809F01F5F0F2DF3FC14C0F0FE5E
:100480000FC01E1510F09D2C0BC09D2C9E0C911AB8
:100490001E2D06C080E290E0B3010E94B3021F5FF0
:1004A0001E15C0F304C01E1510F4E11A01C0EE249D
:1004B00004FF0FC080E390E0B3010E94B30202FF8B
:1004C0001DC001FD03C088E790E00EC088E590E004
:1004D0000BC0802F867891F001FF02C08BE201C033
:1004E00080E2F7FC8DE290E0B3010E94B30206C007
:1004F00080E390E0B3010E94B3029A94D914C0F350
:10050000DA94F101ED0DF11D808190E0B3010E94BC
:10051000B302DD20A9F706C080E290E0B3010E949B
:10052000B302EA94EE20C1F743CEF30166817781EE
:10053000CB012B96E2E10C94A21DFC0105906150C9
:1005400070400110D8F7809590958E0F9F1F0895E9
:10055000FC016150704001900110D8F78095909592
:100560008E0F9F1F08950F931F93CF93DF938C01DE
:10057000EB018B8181FF1BC082FF0DC02E813F816B
:100580008C819D812817390764F4E881F9810193F2
:10059000F983E88306C0E885F985802F0995892BC2
:1005A00031F48E819F8101969F838E8302C00FEF6D
:1005B0001FEFC801DF91CF911F910F910895FA01AC
:1005C000AA27283051F1203181F1E8946F936E7F92
:1005D0006E5F7F4F8F4F9F4FAF4FB1E03ED0B4E083
:1005E0003CD0670F781F891F9A1FA11D680F791FC4
:1005F0008A1F911DA11D6A0F711D811D911DA11DD5
:1006000020D009F468943F912AE0269F11243019E4
:10061000305D3193DEF6CF010895462F4770405D7F
:100620004193B3E00FD0C9F7F6CF462F4F70405D2E
:100630004A3318F0495D31FD4052419302D0A9F789
:10064000EACFB4E0A6959795879577956795BA9583
:10065000C9F700976105710508959B01AC010A2E49
:1006600006945795479537952795BA95C9F7620F20
:10067000731F841F951FA01D08950895CF92DF92C8
:10068000EF92FF920F931F936C01CB01BA01F60119
:1006900026813781408551850E94C11A7B018C01DA
:1006A000F60122813381448155810E94841CA80176
:1006B00097010E94841CA80197010E94841C1F912D
:1006C0000F91FF90EF90DF90CF900895CF92DF923F
:1006D000EF92FF920F931F936C01CB01BA01F601C9
:1006E00026813781408551850E94C11A20E030E083
:1006F00040E85FE30E94551A7B018C01A801970135
:100700000E94841CA80197010E94841C20E030E014
:1007100040E85FE30E94561AF6012281338144814A
:1007200055810E94841C1F910F91FF90EF90DF90E4
:10073000CF900895AF92BF92CF92DF92EF92FF9247
:100740000F931F93CF93DF93EC017A018B016E819E
:100750007F818885998520E030E040E05FE30E945A
:10076000841C9B01AC01C801B7010E94C11A7B0126
:100770008C0120E030E040E85FE30E94BA1A882351
:10078000ACF46A817B818C819D8120E030E040E087
:100790005FE30E94841CA80197010E94841CA801A9
:1007A00097010E94841CA80197012AC0C801B701C3
:1007B00020E030E040E050E40E94551A7B018C01BB
:1007C0006A817B818C819D8120E030E040E05FE3A5
:1007D0000E94841C5B016C01C801B701A80197014C
:1007E0000E94841CA80197010E94841C20E030E034
:1007F00040E050E40E94561A9B01AC01C601B501CD
:100800000E94841CE62F2E2F372F482F592FB90115
:10081000CA01DF91CF911F910F91FF90EF90DF9070
:10082000CF90BF90AF900895FC0182E695E0918350
:10083000808380E090E0A0E0B0E082839383A48393
:10084000B5830895FC0146835783608771870895B7
:10085000FC0142835383648375830895CF92DF92B2
:10086000EF92FF920F931F936C01CB01BA01F60137
:1008700026813781408551850E94C11A7B018C01F8
:10088000F60122813381448155810E94841CA80194
:1008900097010E94841C1F910F91FF90EF90DF90B1
:1008A000CF900895AF92BF92CF92DF92EF92FF92D6
:1008B0000F931F936C01CB01BA01F601268137819A
:1008C000408551850E94C11A7B018C01F60162812D
:1008D0007381848195819058A80197010E94841C9E
:1008E0005B016C01C801B70120E030E040E050E45A
:1008F0000E94551A9B01AC01C601B5010E94841CDF
:100900001F910F91FF90EF90DF90CF90BF90AF902D
:100910000895AF92BF92CF92DF92EF92FF920F9322
:100920001F93CF93DF93EC017A018B016E817F815E
:100930008885998520E030E040E05FE30E94841CD8
:100940009B01AC01C801B7010E94C11A7B018C0157
:1009500020E030E040E85FE30E94BA1A88238CF47C
:100960006A817B818C819D8120E030E040E05FE303
:100970000E94841CA80197010E94841CA801970171
:100980002EC0C801B70120E030E040E85FE30E94DC
:10099000551A7B018C016A817B818C819D8120E0CD
:1009A00030E040E05FEB0E94841C5B016C01C801F9
:1009B000B70120E030E040E050E40E94551A9B016E
:1009C000AC01C801B7010E94841C20E030E040E87F
:1009D0005FE30E94551A9B01AC01C601B5010E945C
:1009E000841CE62F2E2F372F482F592FB901CA010B
:1009F000DF91CF911F910F91FF90EF90DF90CF90FB
:100A0000BF90AF900895AF92BF92CF92DF92EF92D6
:100A1000FF920F931F936C01CB01BA012BED3FE0C6
:100A200049E450E40E94841CF60126813781408508
:100A300051850E94C11A0E94BE1A7B018C01F601E9
:100A4000628173818481958120E030E040E05FEB3A
:100A50000E94841C5B016C01C801B70120E030E0FA
:100A600040E85FE30E94551A9B01AC01C601B50145
:100A70000E94841C1F910F91FF90EF90DF90CF9008
:100A8000BF90AF900895EF92FF920F931F93FC01D8
:100A9000E280F38004811581CB01BA012681378180
:100AA000408551850E94C11A2BED3FE049EC5FE380
:100AB0000E94841C0E94BE1A9B01AC01C801B701B0
:100AC00090580E94841CA80197010E94561A1F91F9
:100AD0000F91FF90EF9008950F931F938C01CB011E
:100AE000BA01F80126813781408551850E94C11ADB
:100AF0002BED3FE049EC5FE30E94841C0E94E71C61
:100B0000F80122813381448155810E94841C1F9108
:100B10000F9108958CE995E060E00E94E810089537
:100B200089E060E00E9414190895CF92DF92EF925D
:100B3000FF920F931F938C016B018CE9E82E85E0E7
:100B4000F82EC70160E040E00E948812C701B8019A
:100B50000E94521AC70160E041E00E948812C7015A
:100B6000B6010E94521A1F910F91FF90EF90DF90F3
:100B7000CF90089587E061E00E94141966E970E063
:100B800080E090E00E94151887E060E00E94141950
:100B9000089589E061E00E94141962E070E080E04D
:100BA00090E00E94151808950F931F9382E061E072
:100BB0000E94D51883E061E00E94D51889E061E0C9
:100BC0000E94D51889E061E00E94141987E061E075
:100BD0000E94D5180CE915E0C80160E142E020E070
:100BE0000E94BF12C80167E571E00E94521AC80155
:100BF00060E041E00E948812C80165E671E00E9451
:100C0000521A68EB7BE080E090E00E941518C80162
:100C10000E94B7128AE062E00E94D51884E060E08A
:100C20000E94D51886E060E00E94D5181F910F91B0
:100C3000089581E00E94B31808950E94190620E0EB
:100C4000C2970CF421E0822F08950E94190620E03B
:100C5000895E93400CF021E0822F089580E00E948D
:100C6000B31808950E942E0620E0C2970CF421E0EC
:100C7000822F08950E942E0620E0895E93400CF09A
:100C800021E0822F0895CF93DF93EC0180E00E9452
:100C9000B3188955924084F0BE01882777FD80956E
:100CA000982F0E94151880E00E94B3188955924031
:100CB0000CF442C022E041C080E00E94B318805989
:100CC000914084F4BE01882777FD8095982F0E947B
:100CD000151880E00E94B31820E0805991406CF50F
:100CE00021E02BC081E00E94B318895592407CF02E
:100CF000BE01882777FD8095982F0E94151881E006
:100D00000E94B31889559240BCF023E016C081E0E0
:100D10000E94B318805991407CF4BE01882777FD6A
:100D20008095982F0E94151881E00E94B318805971
:100D3000914014F424E001C020E0822FDF91CF9194
:100D400008958AE00E94681920E0892B09F421E0C7
:100D5000822F0895AF92BF92CF92DF92EF92FF92CF
:100D60000F931F937A0100D000D000D0CDB6DEB62D
:100D70000894C11CD11C21E2A22E24E0B22EEDB7B2
:100D8000FEB7B282A1822AE831E0F60133832283E2
:100D900024E630E040E050E00E94FD1C0027F7FC14
:100DA0000095102FA80197010E94431DF60135837D
:100DB00024830E949C008DB79EB706960FB6F894C8
:100DC0009EBF0FBE8DBF80E194E0B5010E949505E6
:100DD0001F910F91FF90EF90DF90CF90BF90AF9059
:100DE0000895EF92FF920F931F937B018C019A015C
:100DF000CA010197029710F480E006C023503040EA
:100E00002230310538F481E00E94B31890934C05EC
:100E100080934B0580914B0590914C05825C9140ED
:100E20008536910560F18091BB059091BC05A0913C
:100E3000BD05B091BE050097A105B105A9F00E94BE
:100E40000718E0E02091BB053091BC054091BD053D
:100E50005091BE05621B730B840B950BE616F706CB
:100E600008071907A8F013C00E9407186093BB0574
:100E70007093BC058093BD059093BE0508C0109289
:100E8000BB051092BC051092BD051092BE05E1E0B5
:100E90008E2F1F910F91FF90EF900895CF93DF93C6
:100EA000EC018AE00E946819882389F58091B705D2
:100EB0009091B805A091B905B091BA050097A10528
:100EC000B105D1F00E940718E0E02091B7053091FC
:100ED000B8054091B9055091BA05621B730B840B9C
:100EE000950B9E01442737FD4095542F2617370751
:100EF00048075907A8F013C00E9407186093B70568
:100F00007093B8058093B9059093BA0508C0109204
:100F1000B7051092B8051092B9051092BA05E1E034
:100F20008E2FDF91CF9108956F927F928F929F9233
:100F3000AF92BF92CF92DF92EF92FF920F931F93E7
:100F4000CF93DF93E62E3C0197FF04C066247724FD
:100F5000681A790A60E0181619060CF461E082E05C
:100F60000E9414196E2D70E080E090E00E945A1BE0
:100F700020E030E048EC52E40E94C11A9B01AC0131
:100F800060E070E080E89FE30E94C11A20E030E05A
:100F90004CE852E40E94841C7B018C01430195942F
:100FA000879495948794B401660F771F660F771F17
:100FB000680D791D882777FD8095982F0E945C1B0E
:100FC0009B01AC01C801B7010E94561A5B016C017C
:100FD000C0E0D0E01FC0C601B50120E030E040EA2B
:100FE00050E40E94551A5B016C0183E061E00E94AD
:100FF0001419C601B5010E942E1B7B018C01CB0187
:101000000E946E1883E060E00E941419C7010E94DC
:101010006E182196C815D905F4F2C401880F991FDE
:10102000681A790AC0E0D0E015C083E061E00E9450
:101030001419C601B5010E942E1B7B018C01CB0146
:101040000E946E1883E060E00E941419C7010E949C
:101050006E182196C615D70544F3C0E0D0E01FC036
:10106000C601B50120E030E040EA50E40E94561A83
:101070005B016C0183E061E00E941419C601B501B7
:101080000E942E1B7B018C01CB010E946E1883E015
:1010900060E00E941419C7010E946E182196C815BD
:1010A000D905F4F2DF91CF911F910F91FF90EF904E
:1010B000DF90CF90BF90AF909F908F907F906F9078
:1010C00008952F923F924F925F926F927F928F92EC
:1010D0009F92AF92BF92CF92DF92EF92FF920F93C7
:1010E0001F93DF93CF93CDB7DEB7AF970FB6F894CA
:1010F000DEBF0FBECDBF88A71B017B010027F7FC19
:101100000095102FCA01B901A80197010E94431D43
:1011100029013A014E010894811C911CC4010E94CE
:1011200014048CE695E09A838983C801B7010E9474
:101130005C1B5B016C01C401B601A5010E94220485
:101140006091290570912A0580E090E00E945A1B69
:10115000AB01BC01C4010E9428046BE0E62EF12C17
:10116000EC0EFD1EC7010E94140486E795E09C87E3
:101170008B87C701B601A5010E9422046091290551
:1011800070912A0580E090E00E945A1BAB01BC01DF
:10119000C7010E9428048E010B5E1F4FC8010E94E8
:1011A000140488E595E09E8B8D8BC801B601A501DE
:1011B0000E9422046091290570912A0580E090E048
:1011C0000E945A1BAB01BC01C8010E9428048091F7
:1011D000290590912A05B1010E941C1D6B011BA2DB
:1011E000AA24BB2421E030E040E050E02F8F38A358
:1011F00049A35AA3EDA6FEA60FA7612E782C892C31
:10120000C201AA2797FDA095BA2F89A79AA7ABA7D5
:10121000BCA795C10E9407186CA37DA38EA39FA3B2
:101220006F8D78A189A19AA1A1010E94AA060E94AE
:10123000BA05609131057091320580E090E00E941E
:10124000151880914405833009F466C0843009F490
:10125000C3C0823009F028C180914705823011F166
:101260008330E9F1813009F01FC1B801882777FD8B
:101270008095982F0E945C1BAB01BC01872D982D97
:101280000E942E047B018C01B501882777FD809593
:10129000982F0E945C1BAB01BC01872D982D0E94EA
:1012A0002E04F9C0B801882777FD8095982F0E94F9
:1012B0005C1BAB01BC01872D982D0E9452047B0161
:1012C0008C01B501882777FD8095982F0E945C1BC3
:1012D000AB01BC01872D982D0E945204DCC0B801DF
:1012E000882777FD8095982F0E945C1BAB01BC017D
:1012F000872D982D0E9489047B018C01B5018827D8
:1013000077FD8095982F0E945C1BAB01BC01872D57
:10131000982D0E948904BFC080914705823011F149
:101320008330E9F1813009F0BFC0B801882777FD2B
:101330008095982F0E945C1BAB01BC018DA59EA5DA
:101340000E9443057B018C01B501882777FD8095BC
:10135000982F0E945C1BAB01BC018DA59EA50E942D
:10136000430599C0B801882777FD8095982F0E9482
:101370005C1BAB01BC018DA59EA50E946C057B0189
:101380008C01B501882777FD8095982F0E945C1B02
:10139000AB01BC018DA59EA50E946C057CC0B80167
:1013A000882777FD8095982F0E945C1BAB01BC01BC
:1013B0008DA59EA50E9403057B018C01B5018827A0
:1013C00077FD8095982F0E945C1BAB01BC018DA519
:1013D0009EA50E9403055FC080914705823011F1F0
:1013E0008330E9F1813009F05FC0B801882777FDCB
:1013F0008095982F0E945C1BAB01BC018FA5962D98
:101400000E943E037B018C01B501882777FD809502
:10141000982F0E945C1BAB01BC018FA5962D0E94EA
:101420003E0339C0B801882777FD8095982F0E9428
:101430005C1BAB01BC018FA5962D0E9466037B014E
:101440008C01B501882777FD8095982F0E945C1B41
:10145000AB01BC018FA5962D0E9466031CC0B8018C
:10146000882777FD8095982F0E945C1BAB01BC01FB
:101470008FA5962D0E949A037B018C01B5018827C8
:1014800077FD8095982F0E945C1BAB01BC018FA556
:10149000962D0E949A039B01AC01C801B7010E94DE
:1014A000551A0E94291B6B0180913705813011F478
:1014B0000E94C90598A5923020F0D094C194D1081B
:1014C000D394C6016FE00E94940780913705813064
:1014D00011F40E9490050E94A106882311F41BA21A
:1014E00005C0ABA1AF5FABA3A33078F50E9407188E
:1014F0002CA13DA14EA15FA1621B730B840B950B28
:1015000029A53AA54BA55CA5621773078407950723
:1015100040F4261B370B480B590BCA01B9010E9436
:1015200015180894A11CB11C8F8D98A1A9A1BAA16E
:101530000196A11DB11D8F8F98A3A9A3BAA30F8DEA
:1015400018A1201631060CF065CE0E94C905AF9691
:101550000FB6F894DEBF0FBECDBFCF91DF911F91C4
:101560000F91FF90EF90DF90CF90BF90AF909F9042
:101570008F907F906F905F904F903F902F90089545
:101580000F931F9300912B0510912C056091380546
:101590007091390580913A0590913B0528EE33E032
:1015A00040E050E00E94FD1C9B01AC0180914A0587
:1015B000B8010E94610881E08093260582E394E0EF
:1015C00063E474E00E9495051F910F910895EF92D6
:1015D000FF920F931F936530710509F4B1C1663016
:1015E0007105ACF46230710509F47FC06330710598
:1015F0002CF46130710509F0DBC222C06330710543
:1016000009F4F8C06430710509F0D2C256C16830DF
:10161000710509F48FC2693071054CF466307105AB
:1016200009F4D8C16730710509F0C2C22FC2693010
:10163000710509F4AEC26A30710509F0B9C2B0C2D1
:1016400020912B0530912C05181619064CF44B30BF
:1016500051051CF481E090E010C08AE090E00DC0DC
:10166000892B19F480E090E008C04B3051051CF440
:101670008FEF9FEF02C086EF9FEF820F931F409185
:101680002F055091300520912D0530912E052817FA
:10169000390714F49A0104C0841795070CF09C01D3
:1016A00030932C0520932B0500D000D000D0EDB74F
:1016B000FEB7319600E013E0ADB7BEB712961C93AB
:1016C0000E9311978DE991E0938382833583248370
:1016D0000E949C00EDB7FEB736960FB6F894FEBF99
:1016E0000FBEEDBF8FEE92E023C2E0903805F09080
:1016F000390500913A0510913B05181619064CF46E
:101700004B3051051CF421E030E010C02AE030E0FD
:101710000DC0892B19F420E030E008C04B30510592
:101720001CF42FEF3FEF02C026EF3FEF8CE390E079
:10173000AC01249FC001259F900D349F900D112472
:101740009C01442737FD4095542F2E0D3F1D401F0F
:10175000511F80913C0590913D05E0914005F0912D
:101760004105E217F30714F4FC0104C028173907F8
:101770000CF0F901BF01882777FD8095982F6093C1
:1017800038057093390580933A0590933B05ADB7C2
:10179000BEB718970FB6F894BEBF0FBEADBF0DB75A
:1017A0001EB70F5F1F4FE2E2EE2EE3E0FE2E129611
:1017B000FC92EE9211972EEA31E0F80133832283F6
:1017C0002CE330E040E050E00E94651DD801149603
:1017D0002D933D934D935C9317970E949C00EDB71A
:1017E000FEB738960FB6F894FEBF0FBEEDBF81E18D
:1017F00093E0A4C060913105709132051816190666
:101800004CF44B3051051CF421E030E010C02AE0CC
:1018100030E00DC0892B19F420E030E008C04B30D7
:1018200051051CF42FEF3FEF02C026EF3FEF88EE8B
:1018300093E0289FA001299F500D389F500D11243F
:10184000460F571F8091330590913405209135053F
:10185000309136052417350714F49C0104C048174D
:1018600059070CF09A01209331053093320500D0CE
:1018700000D000D0EDB7FEB7319606E613E0ADB765
:10188000BEB712961C930E9311978EEB91E0938343
:101890008283C90168EE73E00E941C1D7583648316
:1018A0000E949C00EDB7FEB736960FB6F894FEBFC7
:1018B0000FBEEDBF85E593E03BC12DB73EB7285085
:1018C00030400FB6F8943EBF0FBE2DBF0DB71EB708
:1018D0000F5F1F4F74E4E72E73E0F72EADB7BEB76E
:1018E0001296FC92EE9211978EEC91E0F8019383A0
:1018F000828320912B0530912C05442737FD40959C
:10190000542F609138057091390580913A05909176
:101910003B050E94651DD80114962D933D934D9370
:101920005C9317970E949C00EDB7FEB738960FB6F0
:10193000F894FEBF0FBEEDBF83E393E0B7012DC166
:1019400020913705181619061CF481E090E007C0B5
:10195000892B19F08FEF9FEF02C080E090E0280FF5
:10196000822F90E0833091051CF081E090E004C06C
:10197000009711F482E090E0282F809337058130A2
:1019800019F0823031F403C023E531E002C02FE4C6
:1019900031E000D000D000D0EDB7FEB7319608E8B6
:1019A00013E0ADB7BEB712961C930E9311978FED4F
:1019B00091E093838283358324830E949C00EDB75A
:1019C000FEB736960FB6F894FEBF0FBEEDBF87E7A1
:1019D00093E0AEC020914405181619061CF481E06E
:1019E00090E007C0892B19F08FEF9FEF02C080E0D5
:1019F00090E0281B30E080914505482F50E0809111
:101A0000460590E08217930714F4CA0104C0241716
:101A100035070CF0C901282F80934405823069F006
:101A2000833018F4813089F405C0833049F0843064
:101A300061F409C02EE131E008C020E031E005C0CA
:101A40002AE031E002C024E131E000D000D000D033
:101A5000EDB7FEB731960AEA13E0ADB7BEB71296FE
:101A60001C930E9311978FEE91E0938382833583BD
:101A700024830E949C00EDB7FEB736960FB6F8940B
:101A8000FEBF0FBEEDBF89E993E052C0209147052C
:101A9000181619061CF481E090E007C0892B19F094
:101AA0008FEF9FEF02C080E090E0281B30E0809134
:101AB0004805482F50E08091490590E08217930730
:101AC00014F4CA0104C0241735070CF0C901282FEB
:101AD00080934705823039F0833041F0813041F402
:101AE00022E431E005C028E231E002C025E331E024
:101AF00000D000D000D0EDB7FEB731960CEC13E06B
:101B0000ADB7BEB712961C930E93119789EF91E073
:101B100093838283358324830E949C00EDB7FEB7B4
:101B200036960FB6F894FEBF0FBEEDBF8BEB93E079
:101B3000B80133C040914A05181619061CF421E07B
:101B400030E007C0892B19F02FEF3FEF02C020E0F3
:101B500030E0420F242F30E0233031051CF021E02B
:101B600030E005C02115310511F422E030E020936A
:101B70004A05213049F48CE995E00E94B71280E0D3
:101B800092E06EEE73E009C08DED93E06FEF73E0CD
:101B900004C081E192E062E272E00E94950508C013
:101BA00083E392E064E472E00E9495050E94C00A1B
:101BB0001F910F91FF90EF900895CF93DF93609165
:101BC000260580E090E070E040E050E00E94E70AE7
:101BD00040C00E943A06882329F40E9432068823D6
:101BE00009F45EC066E970E080E090E00E9415189C
:101BF00021960E943206882339F080912605282FED
:101C000030E0215030400BC00E943A06882309F48E
:101C10003FC080912605282F30E02F5F3F4F8091F5
:101C20002805482F50E080912705682F70E0621743
:101C3000730714F4BA0104C0241735070CF0B90176
:101C40006093260580E090E01FC00E941D06882357
:101C500019F4C0E0D0E01CC066E970E080E090E0DC
:101C60000E94151821960E941D06882329F0609174
:101C700026058FEF9FEF08C00E942506882341F0BC
:101C80006091260581E090E070E0AE010E94E70AD5
:101C900088EE93E00E944E07882309F09ACF05C092
:101CA0000E9425068823C1F6D0CFDF91CF910895F9
:101CB0008F929F92AF92BF92CF92DF92EF92FF925C
:101CC0000F931F93CF93DF93E62E4C0197FF04C031
:101CD00088249924881A990A60E0181619060CF4C9
:101CE00061E082E00E9414196E2D70E080E090E0C7
:101CF0000E945A1B20E030E048EC52E40E94C11AD6
:101D00009B01AC0160E070E080E89FE30E94C11A93
:101D100020E030E04CE852E40E94841C5B016C013E
:101D2000C0E0D0E015C083E061E00E941419C60154
:101D3000B5010E942E1B7B018C01CB010E946E1805
:101D400083E060E00E941419C7010E946E1821967A
:101D5000C815D90544F3DF91CF911F910F91FF90E2
:101D6000EF90DF90CF90BF90AF909F908F900895AD
:101D7000CF92DF92EF92FF920F931F93CF93DF9357
:101D800086E794E067E874E00E94950501E010E0C2
:101D900084EFC82E81E0D82EB9E1EB2EF12CA8C03B
:101DA00080E00E94B318EC0181E00E94B3188F5FBD
:101DB0009340C1F564EF71E080E090E00E94151857
:101DC00081E00E94B3188F5F934061F50F5F1F4F52
:101DD000C8018170907000FF11C086E794E069EA45
:101DE00074E00E94950568EE73E080E090E00E9448
:101DF000151886E794E067E874E012C0892B91F427
:101E000086E794E069EA74E00E94950568EE73E065
:101E100080E090E00E94151886E794E068E974E09D
:101E20000E94950582E0CC30D80744F1C80181704A
:101E3000907000FF10C086E00E946819019709F4B5
:101E400057C0CB50D240CE9DC001CF9D900DDE9D9E
:101E5000900D112445C0892B09F04AC084E00E94EE
:101E60006819019709F444C0CB50D240CE9DC001FF
:101E7000CF9D900DDE9D900D112419C021E0C43F2F
:101E8000D207B4F5C8018170907000FF17C084E0DC
:101E90000E946819019761F1C6018C1B9D0B9C0182
:101EA0002E9DC0012F9D900D3E9D900D112464EF3D
:101EB00071E00E94301D8FEF9FEF18C0892BC1F495
:101EC00086E00E946819019799F0C6018C1B9D0B52
:101ED0009C012E9DC0012F9D900D3E9D900D1124C3
:101EE00064EF71E00E94301D81E090E00E94580E86
:101EF00088EE93E00E944E07882309F051CFDF91CE
:101F0000CF911F910F91FF90EF90DF90CF900895A8
:101F100082309105A1F08330910501F1019769F5B7
:101F20008DEC92E06EED72E00E94950564EC79E034
:101F300080E090E00E9415180E94DD0D089584E570
:101F400094E065E674E00E94950564EC79E080E039
:101F500090E00E9415180E94B80E08958AEB94E054
:101F60006BEC74E00E94950564EC79E080E090E011
:101F70000E9415180E942C10089584E095E065E1F8
:101F800075E00E94950564EC79E080E090E00E94A5
:101F900015180E94CC0F08954AC082E390E00E9479
:101FA000430690E08330910531F480914D05909186
:101FB0004E05019707C0049749F480914D05909113
:101FC0004E05019690934E0580934D0520914D0549
:101FD00030914E0540914F0550915005809151052B
:101FE000909152058217930714F4CA0104C0241774
:101FF00035070CF0C90190934E0580934D05823052
:10200000910531F08330910549F0019751F403C0F7
:102010006BEA72E008C06AE972E005C06CEB72E03E
:1020200002C064E075E089E892E00E94950562E3F1
:1020300070E080E090E042E050E00E94F1068823EA
:1020400009F0ABCF80914D0590914E050E94880F0D
:1020500008950E94CC0F08954F925F926F927F92E5
:102060008F929F92AF92BF92CF92DF92FF920F9387
:102070001F93CF93DF934CED442E44E0542E35E56F
:10208000632E32E0732E2DEEA22E24E0B22E96E6C1
:10209000892E92E0992E83C08EE00E94B318EC0145
:1020A0008FE00E94B3186C018AE00E946819182F13
:1020B00084E00E946819082F86E00E946819F82EB3
:1020C000112319F480E095E007C0113019F082E087
:1020D00095E002C08EEF94E02DB73EB72850304017
:1020E0000FB6F8943EBF0FBE2DBFEDB7FEB73196C9
:1020F000ADB7BEB712965C924E9211977382628210
:10210000D583C483978386830E949C002DB73EB7F6
:10211000285F3F4F0FB6F8943EBF0FBE2DBF013072
:1021200019F420E035E007C0002319F022E035E083
:1021300002C02EEF34E041E0F41619F480E095E09F
:1021400007C0FF2019F082E095E002C08EEF94E016
:10215000ADB7BEB71A970FB6F894BEBF0FBEADBFEE
:10216000EDB7FEB731961296BC92AE92119793825C
:102170008282D582C48237832683918780870E949A
:102180009C002DB73EB7265F3F4F0FB6F8943EBF79
:102190000FBE2DBF8CED94E0B5010E94950588EE31
:1021A00093E00E944E07882309F076CF0E94CC0F5F
:1021B000DF91CF911F910F91FF90DF90CF90BF9053
:1021C000AF909F908F907F906F905F904F90089509
:1021D000FC011382128280E895E091838083618FF5
:1021E000178681E084838FEF858382E0868383E096
:1021F000878384E0808785E0818786E082870895F1
:10220000FC01818D8F3F29F0CF014A960E94F61381
:10221000089585898F3F21F4862F642F0E94D51859
:102220000895CF93DF93EC01898D8F3F29F0CE0184
:102230004A960E94CC132AC08D898F3F19F1288DB0
:10224000413049F481E090E002C0880F991F6A95FF
:10225000E2F7282B09C081E090E002C0880F991FA7
:102260006A95E2F780952823288F8F8960E00E9485
:1022700014198E896D8941E0288D0E94BB198F89C0
:1022800061E002C0862F642F0E941419DF91CF9164
:1022900008950F931F938C01F801668140E00E941E
:1022A000111181E090E00E946E18C801F80166816A
:1022B00041E00E94111181E090E00E946E18C80177
:1022C000F801668140E00E94111184E690E00E94CE
:1022D0006E181F910F910895CF92DF92EF92FF92A7
:1022E0000F931F93CF93DF93F82EE92E282F392FCA
:1022F000C9018C01C0E0D0E0C62EDD248F2D9E2DBB
:10230000F801678141E00E940011A6010C2E02C075
:10231000559547950A94E2F741708F2D9E2DF8014F
:1023200067810E94111121960F5F1F4FC830D105A0
:1023300029F78F2D9E2D0E944911DF91CF911F917A
:102340000F91FF90EF90DF90CF900895AF92BF92E2
:10235000CF92DF92EF92FF920F931F93CF93DF9371
:102360007C01B62EFC01818D8F3F09F468C08AE1A3
:10237000C82ED12CCE0CDF1CC6010E94C813782FAA
:10238000F70140E050E0AB2DB0E001E010E08781C4
:102390009D01042E02C0359527950A94E2F721701D
:1023A0003070082E02C0220F331F0A94E2F7C1E0FA
:1023B000D0E0580102C0AA0CBB1C8A95E2F7C50107
:1023C00080957823722B4F5F5F4F319644305105D3
:1023D000F1F68E01F701068002C0000F111F0A946A
:1023E000E2F700950723C601602F0E949A1381E04F
:1023F00090E00E946E18CE01F701068002C0880F9F
:10240000991F0A94E2F7082BC601602F0E949A13C5
:1024100081E090E00E946E18F701068002C0CC0FA8
:10242000DD1F0A94E2F75E01A0940A21C601602F25
:102430000E949A1384E690E00E946E1821C08701E2
:10244000C0E0D0E0C62EDD24C701F801678141E07D
:102450000E940011A6010C2E02C0559547950A94C2
:10246000E2F74170C701F80167810E9411112196BE
:102470000F5F1F4FC430D10539F7C7010E944911C2
:10248000DF91CF911F910F91FF90EF90DF90CF9050
:10249000BF90AF9008951F93CF93DF93EC01162F59
:1024A0006C810E9411116D816F3F21F0CE0140E0DF
:1024B0000E9411118F8584FF05C0CE01612F0E94FB
:1024C0006C110EC0612F70E094E0759567959A9538
:1024D000E1F7CE010E94A611CE01612F0E94A61144
:1024E000DF91CF911F91089541E00E944B1281E04E
:1024F00090E0089540E00E944B120895FC0160892D
:10250000862F8460808B6C60CF010E947A120895C0
:10251000DF93CF93CDB7DEB728970FB6F894DEBF21
:102520000FBECDBF9C01FE013196A4E8B5E088E066
:102530000D9001928150E1F7F9018389841710F41D
:10254000482F4150E42FF0E0EE0FFF1FEC0FFD1F6E
:102550008181680F6068C9010E947A1228960FB6BF
:10256000F894DEBF0FBECDBFCF91DF91089561E03B
:102570000E947A1280ED97E00E946E180895AF9243
:10258000BF92CF92DF92EF92FF920F931F93CF9360
:10259000DF93EC01B42EA22E698D6F3F71F17AE1C9
:1025A000E72EF12CE80EF91EC7010E942214C70184
:1025B00067E041E00E94F613C70167E041E00E9436
:1025C000CC138E0154E0C52ED12CCC0EDD1ECE01D5
:1025D000F801678141E00E9400110F5F1F4F0C1549
:1025E0001D05A9F7C7016C8141E00E94F613C701E0
:1025F0006E8141E00E94F61305C08D898F3F11F076
:1026000080E8888FF1E0FB1518F48F8588608F874C
:10261000BB8A1C8AAA2031F081E0B81619F48F8594
:1026200084608F8780E593EC0E946E18CE016C81E8
:1026300040E00E941111CE016E8140E00E94111114
:102640006D816F3F21F0CE0140E00E9411116F8536
:1026500064FD1DC0CE0163E00E94A61184E991E1F2
:102660000E946E18CE0163E00E94A61184E991E1F8
:102670000E946E18CE0163E00E94A61186E990E0E8
:102680000E946E18CE0162E00E94A61116C0606220
:10269000CE010E947A1284E991E10E946E186F8542
:1026A0006062CE010E947A1286E990E00E946E1864
:1026B0006F856062CE010E947A126F856062CE01E2
:1026C0000E947A1284E0888BCE010E947E12CE0195
:1026D0000E94B71282E0898BCE0166E00E947A12D6
:1026E000DF91CF911F910F91FF90EF90DF90CF90EE
:1026F000BF90AF900895EF92FF920F931F93FC014C
:10270000F62EE42E05E016E060816062C80170E0FC
:102710000E947214C8016F2D0E94F414C8016E2D1E
:102720000E94F414C8010E9437151F910F91FF9069
:10273000EF900895462F69E00E947B130895DF9281
:10274000EF92FF920F931F937C01D62E05E016E0C7
:10275000FC0160816062C80170E00E947214C801CF
:102760006D2D0E94F414C8010E943715F701608195
:102770006062C80170E041E050E00E944815C80165
:102780000E9485141F910F91FF90EF90DF900895A4
:1027900069E00E949F1308950F931F93CF93DF93D7
:1027A000EC01162F042F6830E0F40E94C813282F84
:1027B000013051F481E090E002C0880F991F1A9512
:1027C000E2F7622F682B0AC081E090E002C0880F18
:1027D000991F1A95E2F7682F60956223CE010E9437
:1027E0009A13DF91CF911F910F9108950F931F932B
:1027F000CF93DF93EC01162F042F6830F0F460E0E4
:102800000E949F13282F002351F481E090E002C022
:10281000880F991F1A95E2F7422F482B0AC081E0D2
:1028200090E002C0880F991F1A95E2F7482F409553
:102830004223CE0160E00E947B13DF91CF911F9174
:102840000F910895CF93DF93EC01683008F067E0B3
:10285000688385E096E00E944C156881606285E09F
:1028600096E070E00E94721485E096E060E00E94BD
:10287000F41485E096E06FEF0E94F41485E096E092
:1028800060E00E94F41485E096E060E00E94F41499
:1028900085E096E060E00E94F41485E096E060E058
:1028A0000E94F41485E096E060E00E94F41485E054
:1028B00096E060E00E94F41485E096E060E00E94FB
:1028C000F41485E096E060E00E94F41485E096E060
:1028D00060E00E94F41485E096E00E943715DF91D5
:1028E000CF91089581E0809304066093E1051092F2
:1028F00002061092030608952091E00530E08091D1
:10290000DF05281B3109C90108954091DF05809139
:10291000E005481718F02FEF3FEF0AC0E42FF0E072
:10292000E154FA4F8081282F30E04F5F4093DF055C
:10293000C9010895E091DF058091E005E81718F0DE
:10294000EFEFFFEF06C0F0E0E154FA4F8081E82F8F
:10295000F0E0CF010895089510920806109207063E
:1029600088EE93E0A0E0B0E08093090690930A0619
:10297000A0930B06B0930C0680E995E090930606B1
:10298000809305060895CF92DF92EF92FF920F9306
:102990001F93CF93DF937C016B018A018091040622
:1029A0008823A1F0C0E0D0E00DC0D701ED91FC91EB
:1029B000D601AC0FBD1F0190F081E02DC7016C91D5
:1029C00009952196C017D10780F304C0CB01642F6D
:1029D0000E94F515C801DF91CF911F910F91FF90D3
:1029E000EF90DF90CF900895DF93CF930F92CDB704
:1029F000DEB7FC016983809104068823C9F08091C9
:102A00000306803238F081E090E09383828320E0F7
:102A100030E015C080910206E82FF0E0EE51FA4F49
:102A2000998190838F5F809302068093030605C08F
:102A3000CE01019661E00E94F51521E030E0C90168
:102A40000F90CF91DF9108950F93062F8091E105AC
:102A500062EE75E04091030621E00E94A0151092FD
:102A6000020610920306109204060F91089561E089
:102A70000E9424150895413208F040E2862F6FEB42
:102A800075E00E9457151092DF058093E0050895C8
:102A900021E00E943B1508951092DF051092E00599
:102AA00010920206109203060E94A1170895382F73
:102AB000413210F040E042C0809111068823E1F7D6
:102AC00091E090931106209313068FEF80937E067A
:102AD00010923906415040933A064F5F9093120688
:102AE00080911206330F832B809312068091140677
:102AF000813041F410921406809112068093BB003D
:102B000085EC01C085EE8093BC0080911106813078
:102B1000E1F380913906841710F44091390620E0E2
:102B200030E00AC0FB01E20FF31FD901A75EB94FE5
:102B30008C9180832F5F3F4F2417A0F3842F08953B
:102B40000F931F93582F122F413210F081E04AC08B
:102B5000809111068823E1F782E0809311060093AB
:102B600013068FEF80937E061092390640933A0643
:102B7000A9E1B6E0FB0102C081918D938E2F861BE7
:102B80008417D0F31092120680911206550F852BF0
:102B90008093120680911406813041F4109214063D
:102BA000809112068093BB0085EC01C085EE809376
:102BB000BC00112321F0809111068230E1F3809155
:102BC0007E068F3F11F480E00DC080917E0680323A
:102BD00011F482E007C080917E06803311F084E01A
:102BE00001C083E01F910F910895482F613210F0CA
:102BF00081E0089580911106843011F082E00895FB
:102C000060935C06ABE3B6E0842F9C01F90102C03F
:102C100081918D938E2F841B8617D0F380E00895C9
:102C20001F920F920FB60F9211242F933F934F9341
:102C30005F936F937F938F939F93AF93BF93EF9324
:102C4000FF938091B90090E0887F90708036910565
:102C500009F4F2C081369105CCF58832910509F46A
:102C60007BC089329105B4F48031910509F46FC0BD
:102C7000813191053CF4009709F447C1089709F0A8
:102C80004FC165C08831910509F466C0809709F08D
:102C900047C182C08034910509F4A4C081349105F4
:102CA00044F48033910509F482C0C89709F038C113
:102CB00089C08035910509F489C08835910509F4EA
:102CC00096C08834910509F02BC1AEC088399105B2
:102CD00009F413C189399105ECF48837910509F499
:102CE000ABC0893791054CF48836910509F4A4C02E
:102CF0008037910509F014C19FC08838910509F407
:102D0000FCC08039910509F49DC08038910509F017
:102D100007C198C0803B910509F4C6C0813B91056D
:102D20004CF4803A910509F49FC0883A910509F066
:102D3000F7C0BAC0803C910509F4E3C0883C910516
:102D400009F4DFC0883B910509F0EAC0C2C0809158
:102D500012068093BB00CFC09091390680913A064D
:102D6000981768F490913906E92FF0E0E75EF94F83
:102D700080818093BB009F5F90933906BCC0809197
:102D80001306882309F44BC085ED8093BC00809125
:102D9000BC0084FDFCCFC2C080E280937E0685ED3E
:102DA0008093BC008091BC0084FDFCCFB7C080E361
:102DB00080937E0685ED8093BC008091BC0084FDED
:102DC000FCCFACC088E380937E069BC0809139061F
:102DD0009091BB00E82FF0E0E75EF94F90838F5FA2
:102DE000809339069091390680913A0682C080918D
:102DF00039069091BB00E82FF0E0E75EF94F908331
:102E00008F5F8093390680911306882341F085ED0A
:102E10008093BC008091BC0084FDFCCF7FC081E02A
:102E20008093140684EA6EC085ED8093BC00809187
:102E3000BC0084FDFCCF72C083E080931106109229
:102E40007D0659C080917D06803208F056C0809181
:102E50007D069091BB00E82FF0E0E35AF94F908394
:102E60008F5F80937D0647C080917D06803230F46D
:102E7000E0917D06F0E0E35AF94F108285ED8093F2
:102E8000BC008091BC0084FDFCCF109211066091C3
:102E90007D06E0911706F09118068DE596E070E04A
:102EA000099510927D062DC084E080931106109242
:102EB0005B0610925C06E0911506F09116060995E6
:102EC00080915C06882329F481E080935C0610924F
:102ED0003B0690915B06E92FF0E0E55CF94F8081BD
:102EE0008093BB009F5F90935B0690915B068091FF
:102EF0005C06981710F485EC01C085E88093BC004F
:102F00000FC085EC8093BC0009C010927E0685ED51
:102F10008093BC008091BC0084FDFCCF1092110610
:102F2000FF91EF91BF91AF919F918F917F916F91A1
:102F30005F914F913F912F910F900FBE0F901F9077
:102F400018951092110681E08093130610921406D2
:102F500082E161E00E94141983E161E00E9414198A
:102F6000E9EBF0E080818E7F808380818D7F80839C
:102F700088E48093B80085E48093BC0008951F9294
:102F80000F920FB60F9211242F933F938F939F931D
:102F9000AF93BF938091830690918406A09185069C
:102FA000B0918606309187060196A11DB11D232F91
:102FB0002D5F2D3720F02D570196A11DB11D2093B7
:102FC00087068093830690938406A0938506B0932A
:102FD000860680917F0690918006A0918106B0912F
:102FE00082060196A11DB11D80937F0690938006F5
:102FF000A0938106B0938206BF91AF919F918F916C
:103000003F912F910F900FBE0F901F9018958FB783
:10301000F894209183063091840640918506509162
:1030200086068FBFB901CA0108959B01AC017FB725
:10303000F89480917F0690918006A0918106B091CE
:10304000820666B5A89B05C06F3F19F00196A11DC9
:10305000B11D7FBFBA2FA92F982F8827860F911DEA
:10306000A11DB11D62E0880F991FAA1FBB1F6A95A1
:10307000D1F7BC012DC0FFB7F89480917F069091E5
:103080008006A0918106B0918206E6B5A89B05C096
:10309000EF3F19F00196A11DB11DFFBFBA2FA92F57
:1030A000982F88278E0F911DA11DB11DE2E0880F7A
:1030B000991FAA1FBB1FEA95D1F7861B970B885E45
:1030C0009340C8F2215030404040504068517C4FFE
:1030D000211531054105510571F60895019739F023
:1030E000880F991F880F991F02970197F1F708958C
:1030F000789484B5826084BD84B5816084BD85B5D3
:10310000826085BD85B5816085BDEEE6F0E0808199
:1031100081608083E1E8F0E01082808182608083BA
:10312000808181608083E0E8F0E08081816080833D
:10313000E1EBF0E0808184608083E0EBF0E080816F
:1031400081608083EAE7F0E0808184608083808111
:1031500082608083808181608083808180688083B9
:103160001092C1000895982F8E3008F09E509770ED
:10317000809153058295880F880F807C892B8093DE
:103180007C0080917A00806480937A0080917A003C
:1031900086FDFCCF2091780040917900942F80E04B
:1031A00030E0282B392BC9010895CF93DF93482FA6
:1031B00050E0CA0188549F4FFC0134914C555F4F39
:1031C000FA018491882369F190E0880F991FFC012E
:1031D000EA57FF4FA591B491FC01E057FF4FC5910D
:1031E000D491662351F42FB7F8948C91932F909536
:1031F00089238C93888189230BC0623061F42FB7B7
:10320000F8948C91932F909589238C938881832BAC
:1032100088832FBF06C09FB7F8948C91832B8C9323
:103220009FBFDF91CF910895482F50E0CA0184538A
:103230009F4FFC012491CA0188549F4FFC01949137
:103240004C555F4FFA013491332309F440C02223D7
:1032500051F1233071F0243028F42130A1F02230D4
:1032600011F514C02630B1F02730C1F02430D9F464
:1032700004C0809180008F7703C0809180008F7D93
:103280008093800010C084B58F7702C084B58F7D95
:1032900084BD09C08091B0008F7703C08091B000D9
:1032A0008F7D8093B000E32FF0E0EE0FFF1FE0571B
:1032B000FF4FA591B4912FB7F894662321F48C9118
:1032C0009095892302C08C91892B8C932FBF0895F0
:1032D000682F70E0CB0184539F4FFC012491CB01F8
:1032E00088549F4FFC0144916C557F4FFB01949192
:1032F000992319F420E030E03CC0222351F123301F
:1033000071F0243028F42130A1F0223011F514C0DE
:103310002630B1F02730C1F02430D9F404C08091B8
:1033200080008F7703C0809180008F7D8093800024
:1033300010C084B58F7702C084B58F7D84BD09C06D
:103340008091B0008F7703C08091B0008F7D809313
:10335000B000892F90E0880F991F86569F4FFC017F
:10336000A591B4918C9120E030E0842311F021E00C
:1033700030E0C9010895BF92CF92DF92EF92FF92A1
:103380000F931F93CF93DF93E82EF62EB42EC7E052
:10339000D0E0022F10E087E0C82ED12CBB2059F4DA
:1033A000B6016C1B7D0BC80102C0959587956A9587
:1033B000E2F7BC0107C0B8010C2E02C075956795F5
:1033C0000A94E2F761708E2D0E9414198F2D61E02E
:1033D0000E9414198F2D60E00E94141921979FEF0D
:1033E000CF3FD907D9F6DF91CF911F910F91FF9071
:1033F000EF90DF90CF90BF900895CF93DF930E941E
:1034000078180E94D405C0E0D0E00E9429102097CF
:10341000E1F30E940000F9CFCF92DF92EF92FF928A
:103420000F931F93CF93DF937C016B018A01C0E060
:10343000D0E00FC0D6016D916D01D701ED91FC91E7
:103440000190F081E02DC7010995C80FD91F0150E7
:1034500010400115110571F7CE01DF91CF911F9139
:103460000F91FF90EF90DF90CF900895CF93DF936F
:10347000EC016115710519F420E030E00FC0DB01AB
:103480000D900020E9F71197A61BB70BE881F98191
:103490000280F381E02DAD0109959C01C901DF9106
:1034A000CF9108950E94361A08955058BB27AA2735
:1034B0000ED0DFC19FD130F0A4D120F031F49F3F76
:1034C00011F41EF45EC10EF4E095E7FB54C1E92F40
:1034D000F2D180F3BA17620773078407950718F0D3
:1034E00071F49EF50AC20EF4E0950B2EBA2FA02DB2
:1034F0000B01B90190010C01CA01A0011124FF27A1
:10350000591B99F0593F50F4503E68F11A16F0409B
:10351000A22F232F342F4427585FF3CF469537959A
:103520002795A795F0405395C9F77EF41F16BA0B5F
:10353000620B730B840BBAF09150A1F0FF0FBB1F0D
:10354000661F771F881FC2F70EC0BA0F621F731F56
:10355000841F48F4879577956795B795F7959E3FB3
:1035600008F0B3CF9395880F08F09927EE0F979541
:1035700087950895DCD008F481E008954AD1E39559
:1035800089C10CD076C13DD140F034D130F021F466
:103590005F3F19F0F0C05111B1C1F3C08CD198F365
:1035A0009923C9F35523B1F3951B550BBB27AA27C4
:1035B00062177307840738F09F5F5F4F220F331F36
:1035C000441FAA1FA9F333D00E2E3AF0E0E830D002
:1035D00091505040E695001CCAF729D0FE2F27D005
:1035E000660F771F881FBB1F261737074807AB07D3
:1035F000B0E809F0BB0B802DBF01FF2793585F4F48
:103600002AF09E3F510568F0B6C078C15F3FECF3E9
:10361000983EDCF3869577956795B795F7959F5F0C
:10362000C9F7880F911D9695879597F90895E1E060
:10363000660F771F881FBB1F621773078407BA07BF
:1036400020F0621B730B840BBA0BEE1F88F7E0951A
:10365000089504D06894B11151C1089534D188F00F
:103660009F5790F0B92F9927B751A0F0D1F0660F6E
:10367000771F881F991F1AF0BA95C9F712C0B13089
:1036800081F03BD1B1E0089538C1672F782F8827AA
:10369000B85F39F0B93FCCF3869577956795B395C8
:1036A000D9F73EF490958095709561957F4F8F4F37
:1036B0009F4F0895E89409C097FB3EF4909580953C
:1036C000709561957F4F8F4F9F4F9923A9F0F92FE8
:1036D00096E9BB279395F695879577956795B79566
:1036E000F111F8CFFAF4BB0F11F460FF1BC06F5F4C
:1036F0007F4F8F4F9F4F16C0882311F096E911C05E
:10370000772321F09EE8872F762F05C0662371F07E
:1037100096E8862F70E060E02AF09A95660F771F92
:10372000881FDAF7880F9695879597F90895990F6E
:103730000008550FAA0BE0E8FEEF16161706E8077B
:10374000F907C0F012161306E407F50798F0621B9C
:10375000730B840B950B39F40A2661F0232B242B71
:10376000252B21F408950A2609F4A140A6958FEF90
:10377000811D811D089597F99F6780E870E060E0E2
:1037800008959FEF80EC0895DF93CF931F930F93DD
:10379000FF92EF92DF927B018C01689405C0DA2ED4
:1037A000EF01BED0FE01E894A59125913591459198
:1037B0005591AEF3EF018BDEFE019701A801DA947B
:1037C00079F7DF90EF90FF900F911F91CF91DF91EC
:1037D00008959F938F937F936F93FF93EF939B0134
:1037E000AC0192D0EF91FF91CFDF2F913F914F919C
:1037F0005F918AC000240A94161617061806090657
:10380000089500240A941216130614060506089556
:10381000B8CF59D0E8F3E894EFEFBB273FE048EC8E
:103820005FE76B3D73078407950708F1FF279F57F4
:10383000B25A6A4D7F40894CF04032F4BE55654221
:10384000704F8643FF4F0894EE1F915030F0BB0F2E
:10385000661F771F881FFF1FEBCF9EE7882332F07C
:10386000BB0F661F771F881F9A95C1F79395E09548
:10387000B4C0092E0394000C11F4882352F0BB0F3E
:1038800040F4BF2B11F460FF04C06F5F7F4F8F4F78
:103890009F4F0895EF93E0FF06C0A2EA2AED3FE0B4
:1038A00049EC5FEB14DEE5DF0F90039401FC9058C8
:1038B000E8E6F0E08ECF57FD9058440F551F59F0C1
:1038C0005F3F71F04795880F97FB991F61F09F3F0D
:1038D00079F087950895121613061406551FF2CF36
:1038E0004695F1DF08C0161617061806991FF1CF86
:1038F00086957105610508940895E894BB276627AD
:103900007727CB0197F908950BD0B3CF73DF28F059
:1039100078DF18F0952309F02ECF33CF1124EECFA6
:10392000CADFA0F3959FD1F3950F50E0551F629F1A
:10393000F001729FBB27F00DB11D639FAA27F00D08
:10394000B11DAA1F649F6627B00DA11D661F829F2F
:103950002227B00DA11D621F739FB00DA11D621F14
:10396000839FA00D611D221F749F3327A00D611D31
:10397000231F849F600D211D822F762F6A2F112413
:103980009F5750408AF0E1F088234AF0EE0FFF1F66
:10399000BB1F661F771F881F91505040A9F79E3F9D
:1039A000510570F0E8CEAACF5F3FECF3983EDCF310
:1039B000869577956795B795F795E7959F5FC1F7DA
:1039C000FE2B880F911D9695879597F908959F93E3
:1039D00020DF0F9007FCEE5F5DCF9F3F49F09150D5
:1039E00028F4869577956795B7959F5F80389F4FA8
:1039F000880F9695879597F90895629FD001739FD8
:103A0000F001829FE00DF11D649FE00DF11D929F7A
:103A1000F00D839FF00D749FF00D659FF00D9927B9
:103A2000729FB00DE11DF91F639FB00DE11DF91FDD
:103A3000BD01CF0111240895AA1BBB1B51E107C092
:103A4000AA1FBB1FA617B70710F0A61BB70B881F2E
:103A5000991F5A95A9F780959095BC01CD010895BD
:103A600097FB092E07260AD077FD04D0E5DF06D0A4
:103A700000201AF4709561957F4F0895F6F79095A0
:103A800081959F4F0895A1E21A2EAA1BBB1BFD0131
:103A90000DC0AA1FBB1FEE1FFF1FA217B307E4072D
:103AA000F50720F0A21BB30BE40BF50B661F771F85
:103AB000881F991F1A9469F7609570958095909565
:103AC0009B01AC01BD01CF01089597FB092E05268E
:103AD0000ED057FD04D0D7DF0AD0001C38F4509523
:103AE0004095309521953F4F4F4F5F4F0895F6F722
:103AF00090958095709561957F4F8F4F9F4F08955A
:103B0000EE0FFF1F0590F491E02D09942F923F9244
:103B10004F925F926F927F928F929F92AF92BF92DD
:103B2000CF92DF92EF92FF920F931F93CF93DF9389
:103B3000CDB7DEB7CA1BDB0B0FB6F894DEBF0FBEE6
:103B4000CDBF09942A88398848885F846E847D8433
:103B50008C849B84AA84B984C884DF80EE80FD8035
:103B60000C811B81AA81B981CE0FD11D0FB6F894AB
:0E3B7000DEBF0FBECDBFED010895F894FFCF6C
:103B7E00322E2051756164202000332E2053696E41
:103B8E0065202000342E2043756269632000312E9B
:103B9E00204C696E65617200322E2045617365207E
:103BAE004F75742000332E2045617365496E4F7535
:103BBE007400312E204561736520496E2020004E21
:103BCE006F200059657300202020536C6964656C6A
:103BDE0061707365002056657273696F6E20302EAA
:103BEE00342E3000202020200020202020202020D5
:103BFE002020202020202020200050726F67726528
:103C0E0073733A2025303264252520200025303468
:103C1E00642020202020202020202020200025305D
:103C2E003464206D696E7574657320202000253014
:103C3E003275207365636F6E64732020200025300B
:103C4E003464207365636F6E64732020202000251A
:103C5E00732020202020202020202020202000251E
:103C6E0073202020202020200025732020202000DB
:103C7E004D6F76656D656E74204469723A20202012
:103C8E00004D6F766520526967687420746F20202E
:103C9E00200073746172742074696D656C61707349
:103CAE00653E005374617274696E6720544C2E2EFB
:103CBE002E20200053656C20746F2063616E636547
:103CCE006C20202000583A2534642053656C3A2528
:103CDE00732020202000593A253464204D3A257354
:103CEE0020453A25732020004D6178204C656E3AB0
:103CFE002530356C642020200053656C656374207C
:103D0E004D6F64653A2020202000312E54696D6578
:103D1E006C61707365202020203E00322E436F6D43
:103D2E006D616E646572202020203E00332E446546
:103D3E0062756720202020202020203E003E3E3E3F
:103D4E002054696D656C6170736520202000486F8A
:103D5E006C642053656C20746F2065786974004E16
:103D6E00756D626572206F662053686F74733A00CA
:103D7E000000000000000000000000000000000035
:103D8E0000544C204475726174696F6E3A20202085
:103D9E0020000000000000000000000000000000F5
:103DAE0000000041766720496E74657276616C3A48
:103DBE002020200000000000000000000000000095
:103DCE0000000000004C6F6E6765737420536875B9
:103DDE00747465723A0000000000000000000000DC
:103DEE0000000000000000536C656570206274775F
:103DFE002073686F74732000000000000000000044
:103E0E00000000000000000000456173696E67202D
:103E1E0066756E6374696F6E3A00000000000000F4
:103E2E000000000000000000000000456173696E94
:103E3E00672043757276653A20202000000000004E
:103E4E00000000000000000000000000004D6F7632
:103E5E00656D656E74204469723A202020004D6FA6
:103E6E00746F72202D2D2D2D2D3E20456E64004534
:103E7E006E64202D2D2D2D2D3E204D6F746F7200F2
:103E8E0054696D656C6170736520616374697665E4
:103E9E000000000000000000000000000000000014
:103EAE00000054696D656C6170736520446F6E65BA
:103EBE00202000486F6C642053656C20746F206561
:103ECE00786974003E3E3E20436F6D6D616E646591
:103EDE007220202000486F6C642053656C20746F34
:103EEE002065786974002020436F6D6D616E6420CB
:103EFE004D6F64652020004D6F746F72203C2D2D28
:103F0E002D2D3E20456E6400456E64203C2D2D2DDA
:103F1E002D3E204D6F746F72005265766572736917
:103F2E006E6720446972203C3E003E3E3E20446552
:103F3E00627567204D6F6465202000486F6C6420A9
:103F4E0053656C20746F2065786974000000000062
:103F5E000000000000000000000000000000000053
:103F6E0000000000000000000000000000004F00F4
:103F7E00500058003E3E3E204552524F52202020C7
:103F8E00202020200052657475726E696E6720487D
:103F9E006F6D65202000010A01F08714000F2705C0
:103FAE0000E8036400307501780000003C0000005A
:103FBE008051010001010401010301000201000111
:103FCE0000030001000000003E0366039A03000098
:103FDE0000003D033D033D03000000002E0452048B
:103FEE0089040000000043056C0503050000000075
:103FFE0074120C1A0000400014005400000000005F
:0C400E00F414C3147C1485149A14AB1431
:00000001FF
