:100000000C9473000C949B000C949B000C949B002C
:100010000C949B000C949B000C949B000C949B00F4
:100020000C949B000C949B000C949B000C949B00E4
:100030000C949B000C949B000C949B000C949B00D4
:100040000C944D1D0C949B000C948C1F0C94DA1F87
:100050000C949B000C949B000C949B000C949B00B4
:100060000C949E1B0C949B0005A84CCDB2D44EB9A9
:100070003836A9020C50B9918688083CA6AAAA2A4B
:10008000BE000000803F00000000240027002A007E
:1000900000000000250028002B00000000002300C5
:1000A00026002900040404040404040402020202D9
:1000B000020203030303030301020408102040802B
:1000C00001020408102001020408102000000007AB
:1000D0000002010000030406000000000000000010
:1000E0008B053A1A462111241FBECFEFD8E0DEBFA0
:1000F000CDBF17E0A0E0B1E0E2E9FCE402C005906A
:100100000D92A637B107D9F719E0A6E7B7E001C00D
:100110001D92AD30B107E1F710E0C6EED0E004C0AB
:100120002297FE010E940C26C03ED107C9F70E940B
:100130009C210C9447260C940000AEE0B0E0E3EA6A
:10014000F0E00C941E260D891E8986E08C831A83AC
:1001500009838FEF9FE79E838D839E01275E3F4F2C
:10016000CE0101966F89788DA9010E94C1002F816F
:100170003885020F131FF80110822E96E4E00C94CC
:100180003A26ABE0B0E0E7ECF0E00C9410263C013E
:100190002B015A01FC0117821682838181FD03C065
:1001A0006FEF7FEFC6C19AE0892E1E010894211CD3
:1001B000311CF3012381F20123FD859123FF8191FD
:1001C0002F01882309F4B2C1853239F423FD8591CA
:1001D00023FF81912F01853229F490E0B3010E9421
:1001E000B402E7CF982FFF24EE249924FFE1FF15F6
:1001F000D0F09B3269F09C3228F4903259F093325F
:1002000091F40EC09D3249F0903369F441E024C06E
:1002100052E0F52A84E0F82A28C098E0F92A25C09F
:10022000E0E1FE2A22C0F7FC29C0892F80538A30E2
:1002300070F4F6FE05C0989C902C1124980E15C001
:10024000E89CE02C1124E80EF0E2FF2A0EC09E325A
:1002500029F4F6FC6BC140E4F42A07C09C3619F47B
:1002600050E8F52A02C0983649F4F20123FD959131
:1002700023FF91912F01992309F0B8CF892F85543D
:10028000833018F08052833038F444E050E0A40EFC
:10029000B51E5FE359830FC0933631F0933779F081
:1002A000933509F056C020C0F5018081898342E072
:1002B00050E0A40EB51E610101E010E012C0F5018E
:1002C000C080D180F6FC03C06FEF7FEF02C0692DC4
:1002D00070E042E050E0A40EB51EC6010E94A902E3
:1002E0008C015FE7F52214C0F501C080D180F6FCD7
:1002F00003C06FEF7FEF02C0692D70E042E050E075
:10030000A40EB51EC6010E949E028C0150E8F52A7B
:10031000F3FE07C01AC080E290E0B3010E94B4026D
:10032000EA948E2D90E008171907A8F30EC0F60185
:10033000F7FC8591F7FE81916F0190E0B3010E9477
:10034000B402E110EA94015010400115110579F74B
:10035000EAC0943611F0993669F5F7FE08C0F50148
:10036000208131814281538184E090E00AC0F5010F
:10037000808191819C01442737FD4095542F82E074
:1003800090E0A80EB91E9FE6F92257FF09C05095CC
:100390004095309521953F4F4F4F5F4FE0E8FE2A43
:1003A000CA01B901A1012AE030E00E94E002D82E82
:1003B000D21840C0953729F41F2D1F7E2AE030E067
:1003C0001DC01F2D197F9F3661F0903720F498359E
:1003D00009F0ACC00FC0903739F0983709F0A6C0CB
:1003E00004C028E030E00AC0106114FD146020E170
:1003F00030E004C014FD166020E132E017FF08C0B1
:10040000F501608171818281938144E050E008C0F0
:10041000F50180819181BC0180E090E042E050E0F4
:10042000A40EB51EA1010E94E002D82ED2188FE7BB
:10043000F82EF122F6FE0BC05EEFF522D91438F447
:10044000F4FE07C0F2FC05C08FEEF82202C01D2D9D
:1004500001C0192DF4FE0DC0FE01ED0DF11D8081CE
:10046000803319F499EEF92208C01F5FF2FE05C02F
:1004700003C08F2D867809F01F5F0F2DF3FC14C089
:10048000F0FE0FC01E1510F09D2C0BC09D2C9E0C75
:10049000911A1E2D06C080E290E0B3010E94B402C2
:1004A0001F5F1E15C0F304C01E1510F4E11A01C031
:1004B000EE2404FF0FC080E390E0B3010E94B40279
:1004C00002FF1DC001FD03C088E790E00EC088E573
:1004D00090E00BC0802F867891F001FF02C08BE284
:1004E00001C080E2F7FC8DE290E0B3010E94B4020B
:1004F00006C080E390E0B3010E94B4029A94D9143C
:10050000C0F3DA94F101ED0DF11D808190E0B301AB
:100510000E94B402DD20A9F706C080E290E0B3019A
:100520000E94B402EA94EE20C1F743CEF301668143
:100530007781CB012B96E2E10C942C26FC010590EF
:10054000615070400110D8F7809590958E0F9F1FD5
:100550000895FC016150704001900110D8F780951A
:1005600090958E0F9F1F08950F931F93CF93DF9346
:100570008C01EB018B8181FF1BC082FF0DC02E819E
:100580003F818C819D812817390764F4E881F981C6
:100590000193F983E88306C0E885F985802F0995E2
:1005A000892B31F48E819F8101969F838E8302C0B7
:1005B0000FEF1FEFC801DF91CF911F910F910895A9
:1005C000FA01AA27283051F1203181F1E8946F9384
:1005D0006E7F6E5F7F4F8F4F9F4FAF4FB1E03ED02A
:1005E000B4E03CD0670F781F891F9A1FA11D680FC8
:1005F000791F8A1F911DA11D6A0F711D811D911DFB
:10060000A11D20D009F468943F912AE0269F11246F
:100610003019305D3193DEF6CF010895462F4770D3
:10062000405D4193B3E00FD0C9F7F6CF462F4F702E
:10063000405D4A3318F0495D31FD4052419302D08C
:10064000A9F7EACFB4E0A695979587957795679532
:10065000BA95C9F700976105710508959B01AC0132
:100660000A2E06945795479537952795BA95C9F759
:10067000620F731F841F951FA01D08950895CF92C8
:10068000DF92EF92FF920F931F936C01CB01BA019F
:10069000F60126813781408551850E944B237B01DD
:1006A0008C01F60122813381448155810E940E25FF
:1006B000A80197010E940E25A80197010E940E250E
:1006C0001F910F91FF90EF90DF90CF900895CF9200
:1006D000DF92EF92FF920F931F936C01CB01BA014F
:1006E000F60126813781408551850E944B2320E009
:1006F00030E040E85FE30E94DF227B018C01A8012B
:1007000097010E940E25A80197010E940E2520E066
:1007100030E040E85FE30E94E022F601228133816D
:10072000448155810E940E251F910F91FF90EF90FB
:10073000DF90CF900895AF92BF92CF92DF92EF9269
:10074000FF920F931F93CF93DF93EC017A018B01FC
:100750006E817F818885998520E030E040E05FE30D
:100760000E940E259B01AC01C801B7010E944B23DA
:100770007B018C0120E030E040E85FE30E944423ED
:100780008823ACF46A817B818C819D8120E030E0FC
:1007900040E05FE30E940E25A80197010E940E250C
:1007A000A80197010E940E25A80197012AC0C8013F
:1007B000B70120E030E040E050E40E94DF227B01FE
:1007C0008C016A817B818C819D8120E030E040E05A
:1007D0005FE30E940E255B016C01C801B701A8010F
:1007E00097010E940E25A80197010E940E2520E086
:1007F00030E040E050E40E94E0229B01AC01C601E1
:10080000B5010E940E25E62F2E2F372F482F592F86
:10081000B901CA01DF91CF911F910F91FF90EF9025
:10082000DF90CF90BF90AF900895FC018CE297E0ED
:100830009183808380E090E0A0E0B0E082839383A6
:10084000A483B5830895FC0146835783608771872D
:100850000895FC0142835383648375830895CF9286
:10086000DF92EF92FF920F931F936C01CB01BA01BD
:10087000F60126813781408551850E944B237B01FB
:100880008C01F60122813381448155810E940E251D
:10089000A80197010E940E251F910F91FF90EF90E4
:1008A000DF90CF900895AF92BF92CF92DF92EF92F8
:1008B000FF920F931F936C01CB01BA01F6012681C1
:1008C0003781408551850E944B237B018C01F601C5
:1008D00062817381848195819058A80197010E945B
:1008E0000E255B016C01C801B70120E030E040E05B
:1008F00050E40E94DF229B01AC01C601B5010E94B9
:100900000E251F910F91FF90EF90DF90CF90BF9039
:10091000AF900895AF92BF92CF92DF92EF92FF9285
:100920000F931F93CF93DF93EC017A018B016E81BC
:100930007F818885998520E030E040E05FE30E9478
:100940000E259B01AC01C801B7010E944B237B011E
:100950008C0120E030E040E85FE30E9444238823DC
:100960008CF46A817B818C819D8120E030E040E0C5
:100970005FE30E940E25A80197010E940E25A801A1
:1009800097012EC0C801B70120E030E040E85FE3E6
:100990000E94DF227B018C016A817B818C819D8199
:1009A00020E030E040E05FEB0E940E255B016C012F
:1009B000C801B70120E030E040E050E40E94DF22AF
:1009C0009B01AC01C801B7010E940E2520E030E078
:1009D00040E85FE30E94DF229B01AC01C601B50144
:1009E0000E940E25E62F2E2F372F482F592FB901A1
:1009F000CA01DF91CF911F910F91FF90EF90DF908F
:100A0000CF90BF90AF900895AF92BF92CF92DF92F8
:100A1000EF92FF920F931F936C01CB01BA012BED64
:100A20003FE049E450E40E940E25F601268137811B
:100A3000408551850E944B230E9448237B018C01F5
:100A4000F601628173818481958120E030E040E08D
:100A50005FEB0E940E255B016C01C801B70120E02D
:100A600030E040E85FE30E94DF229B01AC01C60159
:100A7000B5010E940E251F910F91FF90EF90DF901E
:100A8000CF90BF90AF900895EF92FF920F931F9376
:100A9000FC01E280F38004811581CB01BA0126813B
:100AA0003781408551850E944B232BED3FE049EC77
:100AB0005FE30E940E250E9448239B01AC01C80100
:100AC000B70190580E940E25A80197010E94E022CC
:100AD0001F910F91FF90EF9008950F931F938C013A
:100AE000CB01BA01F80126813781408551850E94EA
:100AF0004B232BED3FE049EC5FE30E940E250E9463
:100B00007125F80122813381448155810E940E258F
:100B10001F910F91089586E797E060E00E946916A3
:100B2000089589E060E00E94A21E0895CF92DF92AE
:100B3000EF92FF920F931F938C016B0186E7E82ED3
:100B400087E0F82EC70160E040E00E940918C70165
:100B5000B8010E94C922C70160E041E00E94091863
:100B6000C701B6010E94C9221F910F91FF90EF901B
:100B7000DF90CF90089587E061E00E94A21E66E9B1
:100B800070E080E090E00E94A31D87E060E00E949A
:100B9000A21E089589E061E00E94A21E62E070E05A
:100BA00080E090E00E94A31D08950F931F9382E0C0
:100BB00061E00E94631E83E061E00E94631E89E0A1
:100BC00061E00E94631E89E061E00E94A21E0BEEBC
:100BD00018E0C80140E855E260E070E00E9415208E
:100BE000C80165E771E00E94C92287E061E00E94C8
:100BF000631E06E717E0C80160E142E020E00E94C2
:100C00004D18C80167E871E00E94C922C80160E080
:100C100041E00E940918C80165E971E00E94C922FB
:100C200068EB7BE080E090E00E94A31DC8010E9479
:100C300038186091D80689E997E070E00E9456164E
:100C40008093D9068AE062E00E94631E84E060E03F
:100C50000E94631E86E060E00E94631E1F910F9158
:100C6000089581E00E94411E08950E94310620E00F
:100C7000C2970CF421E0822F08950E94310620E0F3
:100C8000895E93400CF021E0822F089580E00E945D
:100C9000411E08950E94460620E0C2970CF421E010
:100CA000822F08950E94460620E0895E93400CF052
:100CB00021E0822F0895CF93DF93EC0180E00E9422
:100CC000411E8955924084F0BE01882777FD8095AA
:100CD000982F0E94A31D80E00E94411E89559240DA
:100CE0000CF442C022E041C080E00E94411E8059C5
:100CF000914084F4BE01882777FD8095982F0E944B
:100D0000A31D80E00E94411E20E0805991406CF5B7
:100D100021E02BC081E00E94411E895592407CF069
:100D2000BE01882777FD8095982F0E94A31D81E042
:100D30000E94411E89559240BCF023E016C081E01C
:100D40000E94411E805991407CF4BE01882777FDA6
:100D50008095982F0E94A31D81E00E94411E80591A
:100D6000914014F424E001C020E0822FDF91CF9164
:100D700008958AE00E94F61E20E0892B09F421E004
:100D8000822F0895AF92BF92CF92DF92EF92FF929F
:100D90000F931F937A0100D000D000D0CDB6DEB6FD
:100DA0000894C11CD11C2DE6A22E25E0B22EEDB771
:100DB000FEB7B282A1822AEB31E0F60133832283AF
:100DC00024E630E040E050E00E9487250027F7FC51
:100DD0000095102FA80197010E94CD25F6013583BB
:100DE00024830E949D008DB79EB706960FB6F89497
:100DF0009EBF0FBE8DBF8CE595E0B5010E949605A4
:100E00001F910F91FF90EF90DF90CF90BF90AF9028
:100E10000895EF92FF920F931F937B018C019A012B
:100E2000CA010197029710F480E006C023503040B9
:100E30002230310538F481E00E94411E909316075C
:100E4000809315078091150790911607825C914059
:100E50008536910560F18091950790919607A09154
:100E60009707B09198070097A105B105A9F00E94D6
:100E7000951DE0E0209195073091960740919707E6
:100E800050919807621B730B840B950BE616F706BF
:100E900008071907A8F013C00E94951D60939507D5
:100EA00070939607809397079093980708C01092C5
:100EB0009507109296071092970710929807E1E015
:100EC0008E2F1F910F91FF90EF900895CF93DF9396
:100ED000EC018AE00E94F61E882389F58091910733
:100EE00090919207A0919307B09194070097A10564
:100EF000B105D1F00E94951DE0E02091910730915D
:100F000092074091930750919407621B730B840BD7
:100F1000950B9E01442737FD4095542F2617370720
:100F200048075907A8F013C00E94951D60939107C8
:100F300070939207809393079093940708C0109240
:100F40009107109292071092930710929407E1E094
:100F50008E2FDF91CF910895CF92DF92EF92FF9283
:100F60000F931F93CF93DF93D090D9068D2D90E0F0
:100F70008130910519F484E691E005C08230910535
:100F800011F487E591E02DB73EB7285030400FB6F9
:100F9000F8943EBF0FBE2DBFEDB7FEB7319609E303
:100FA00016E0ADB7BEB712961C930E9311973DECA9
:100FB000E32E31E0F32EF382E2829583848383E78C
:100FC00091E0978386830E949D002DB73EB7285FEE
:100FD0003F4F0FB6F8943EBF0FBE2DBF88E296E09C
:100FE000B8010E949605C02E012F1E2DEF2C74C053
:100FF0000E943D06882329F40E943506882309F4BF
:101000006BC066E970E080E090E00E94A31D0E9442
:101010003D06882379F0D3944D2D50E0433051059F
:101020001CF041E050E005C04115510511F442E0CB
:1010300050E0D42E0E943506882379F0DA944D2DA5
:1010400050E0433051051CF041E050E005C041152F
:10105000510511F442E050E0D42E2D2D30E0213026
:10106000310519F4C4E6D1E005C02230310511F490
:10107000C7E5D1E08091D90690E02817390719F02B
:1010800081E791E002C083E791E0ADB7BEB7189762
:101090000FB6F894BEBF0FBEADBFEDB7FEB7319629
:1010A0001196CC92119712960C931283E382D583FA
:1010B000C483978386830E949D002DB73EB7285F27
:1010C0003F4F0FB6F8943EBF0FBE2DBF88E296E0AB
:1010D0006C2D702F0E94960588EE93E00E946607A3
:1010E000882309F085CF8091D906D81651F0D09287
:1010F000D9066091D80689E997E070E04D2D0E94ED
:101100005D16DF91CF911F910F91FF90EF90DF90CF
:10111000CF9008956F927F928F929F92AF92BF92DD
:10112000CF92DF92EF92FF920F931F93CF93DF93B3
:10113000E62E3C0197FF04C066247724681A790ADA
:1011400060E0181619060CF461E082E00E94A21E0D
:101150006E2D70E080E090E00E94E42320E030E01B
:1011600048EC52E40E944B239B01AC0160E070E02C
:1011700080E89FE30E944B2320E030E04CE852E4FB
:101180000E940E257B018C014301959487949594D0
:101190008794B401660F771F660F771F680D791D5E
:1011A000882777FD8095982F0E94E6239B01AC014C
:1011B000C801B7010E94E0225B016C01C0E0D0E0F1
:1011C0001FC0C601B50120E030E040EA50E40E94B3
:1011D000DF225B016C0183E061E00E94A21EC60178
:1011E000B5010E94B8237B018C01CB010E94FC1D3C
:1011F00083E060E00E94A21EC7010E94FC1D2196B0
:10120000C815D905F4F2C401880F991F681A790A24
:10121000C0E0D0E015C083E061E00E94A21EC601DC
:10122000B5010E94B8237B018C01CB010E94FC1DFB
:1012300083E060E00E94A21EC7010E94FC1D21966F
:10124000C615D70544F3C0E0D0E01FC0C601B50104
:1012500020E030E040EA50E40E94E0225B016C01B3
:1012600083E061E00E94A21EC601B5010E94B8237E
:101270007B018C01CB010E94FC1D83E060E00E9499
:10128000A21EC7010E94FC1D2196C815D905F4F2C3
:10129000DF91CF911F910F91FF90EF90DF90CF9052
:1012A000BF90AF909F908F907F906F9008952F92F6
:1012B0003F924F925F926F927F928F929F92AF92E6
:1012C000BF92CF92DF92EF92FF920F931F93DF9323
:1012D000CF93CDB7DEB7CE54D0400FB6F894DEBF73
:1012E0000FBECDBF2F968FAF2F971B01CA01B9013B
:1012F00028EE33E040E050E00E9487252E966CAF48
:101300007DAF8EAF9FAF2E978E010F5F1F4FC8012D
:101310000E941504F6E3EF2EF7E0FF2EFA82E98231
:10132000B101882777FD8095982F0E94E6234B0115
:101330005C01C801B501A4010E9423046091DD068F
:101340007091DE0680E090E00E94E423AB01BC01D6
:10135000C8010E9429048E01055F1F4FC8010E9429
:101360001504E0E44E2EE7E05E2E5C864B86C80155
:10137000B501A4010E9423046091DD067091DE0690
:1013800080E090E00E94E423AB01BC01C8010E9410
:1013900029048E010B5E1F4FC8010E94150472E2E2
:1013A000672E77E0772E7E8A6D8AC801B501A40189
:1013B0000E9423046091DD067091DE0680E090E0DB
:1013C0000E94E423AB01BC01C8010E9429048E01E4
:1013D000015E1F4FC8010E941504F8A2EF8EC801DC
:1013E000B501A4010E9423042E966CAD7DAD8EAD97
:1013F0009FAD2E970E94E4236B017C01C801B701C9
:10140000A6010E9429048E01075D1F4FC8010E949A
:1014100015045AA649A6C801B501A4010E942304D7
:10142000C801B701A6010E9429048E010D5C1F4F5F
:10143000C8010E9415047CAA6BAAC801B501A401C9
:101440000E942304C801B701A6010E9429048091CB
:10145000DD069091DE06B1010E94A625CB01A0E039
:10146000B0E02A968CAF9DAFAEAFBFAF2A97609128
:10147000F3067091F4068091F5069091F60628EE39
:1014800033E040E050E00E9487250E94A31D809138
:10149000F806823029F486E797E060E00E94401861
:1014A0009101442737FD4095542F2E966CAD7DADAC
:1014B0008EAD9FAD2E970E94CD25490122961FAE7D
:1014C0002297AA24BB2481E090E0A0E0B0E00FC303
:1014D0000E94951D26966CAF7DAF8EAF9FAF26976D
:1014E00021966CAD7DAD8EAD9FAD2197A1010E947F
:1014F000C2060E94BB056091E5067091E60680E099
:1015000090E00E94A31D80910507833009F466C016
:10151000843009F4C3C0823009F02BC180910807E0
:10152000823011F18330E9F1813009F022C1B60136
:10153000882777FD8095982F0E94E623AB01BC0198
:10154000CE0101960E942F047B018C01B5018827F2
:1015500077FD8095982F0E94E623AB01BC01CE0158
:1015600001960E942F04DDC0B601882777FD809583
:10157000982F0E94E623AB01BC01CE0101960E9488
:1015800053047B018C01B501882777FD8095982F46
:101590000E94E623AB01BC01CE0101960E945304D8
:1015A000C0C0B601882777FD8095982F0E94E6235A
:1015B000AB01BC01CE0101960E948A047B018C0123
:1015C000B501882777FD8095982F0E94E623AB010F
:1015D000BC01CE0101960E948A04A3C08091080735
:1015E000823011F18330E9F1813009F0C2C0B601D7
:1015F000882777FD8095982F0E94E623AB01BC01D8
:10160000CE010B960E9444057B018C01B501882711
:1016100077FD8095982F0E94E623AB01BC01CE0197
:101620000B960E9444057DC0B601882777FD809502
:10163000982F0E94E623AB01BC01CE010B960E94BD
:101640006D057B018C01B501882777FD8095982F6A
:101650000E94E623AB01BC01CE010B960E946D05F2
:1016600060C0B601882777FD8095982F0E94E623F9
:10167000AB01BC01CE010B960E9404057B018C01DD
:10168000B501882777FD8095982F0E94E623AB014E
:10169000BC01CE010B960E94040543C0809108074F
:1016A000823019F1833009F447C0813009F061C0FC
:1016B000B601882777FD8095982F0E94E623AB011D
:1016C000BC01CE0145960E943F037B018C01B50110
:1016D000882777FD8095982F0E94E623AB01BC01F7
:1016E000CE0145960E943F031CC0B601882777FDB6
:1016F0008095982F0E94E623AB01BC01CE01459650
:101700000E9467037B018C01B501882777FD8095D6
:10171000982F0E94E623AB01BC01CE0145960E94A2
:1017200067039B01AC01C801B7010E94DF220E9440
:10173000B3237B018C0123C0B601882777FD8095F8
:10174000982F0E94E623AB01BC01CE0145960E9472
:101750009B037B018C01B501882777FD8095982F2D
:101760000E94E623AB01BC01CE0145960E949B037B
:10177000D8CF2A96ECACFDAC0EAD1FAD2A97809168
:10178000F706813011F40E94CA052F969FAD2F975E
:10179000923040F010950095F094E094E11CF11C1B
:1017A000011D111D8BEE98E065ED71E00E94CC22C9
:1017B0008BEE98E0B801A7012AE030E00E94B52244
:1017C0008091D906823041F410950095F094E09410
:1017D000E11CF11C011D111D8BEE98E062EE71E021
:1017E0000E94CC228BEE98E0B801A7012AE030E0FD
:1017F0000E94B5228BEE98E00E94D521C7016FE0D0
:101800000E948A088091F706813011F40E949105A8
:101810000E94B906882321F422961FAE22970AC09F
:101820002296AFAD2297AF5F2296AFAF2297A3303B
:1018300008F069C10E94951D2B013C0126968CADD4
:101840009DADAEADBFAD2697481A590A6A0A7B0A0C
:1018500080910B07833009F466C0843009F4C3C05B
:10186000823009F028C180910E07823011F1833057
:10187000E9F1813009F01FC1B601882777FD809515
:10188000982F0E94E623AB01BC01CE014F960E9427
:101890002F047B018C01B501882777FD8095982F57
:1018A0000E94E623AB01BC01CE014F960E942F049B
:1018B000F9C0B601882777FD8095982F0E94E6230E
:1018C000AB01BC01CE014F960E9453047B018C01F9
:1018D000B501882777FD8095982F0E94E623AB01FC
:1018E000BC01CE014F960E945304DCC0B60188278C
:1018F00077FD8095982F0E94E623AB01BC01CE01B5
:101900004F960E948A047B018C01B501882777FDE0
:101910008095982F0E94E623AB01BC01CE014F9623
:101920000E948A04BFC080910E07823011F183307B
:10193000E9F1813009F0BFC0B601882777FD8095B5
:10194000982F0E94E623AB01BC01CE0189960E942C
:1019500044057B018C01B501882777FD8095982F80
:101960000E94E623AB01BC01CE0189960E9444058A
:1019700099C0B601882777FD8095982F0E94E623AD
:10198000AB01BC01CE0189960E946D057B018C01E3
:10199000B501882777FD8095982F0E94E623AB013B
:1019A000BC01CE0189960E946D057CC0B6018827D6
:1019B00077FD8095982F0E94E623AB01BC01CE01F4
:1019C00089960E9404057B018C01B501882777FD6B
:1019D0008095982F0E94E623AB01BC01CE01899629
:1019E0000E9404055FC080910E07823011F18330A0
:1019F000E9F1813009F05FC0B601882777FD809555
:101A0000982F0E94E623AB01BC01CE01C3960E9431
:101A10003F037B018C01B501882777FD8095982FC6
:101A20000E94E623AB01BC01CE01C3960E943F0396
:101A300039C0B601882777FD8095982F0E94E6234C
:101A4000AB01BC01CE01C3960E9467037B018C01F0
:101A5000B501882777FD8095982F0E94E623AB017A
:101A6000BC01CE01C3960E9467031CC0B601882743
:101A700077FD8095982F0E94E623AB01BC01CE0133
:101A8000C3960E949B037B018C01B501882777FDDB
:101A90008095982F0E94E623AB01BC01CE01C3962E
:101AA0000E949B039B01AC01C801B7010E94DF2289
:101AB0000E94B3234B01B401882777FD8095982FAE
:101AC000461657066806790630F4641975098609C2
:101AD00097090E94A31D0894A11CB11C21968CADEE
:101AE0009DADAEADBFAD21970196A11DB11D219653
:101AF0008CAF9DAFAEAFBFAF2197CDACDEAC2C1499
:101B00003D040CF0E5CC86E797E061E00E944018C8
:101B10000E94CA05C25BDF4F0FB6F894DEBF0FBE4E
:101B2000CDBFCF91DF911F910F91FF90EF90DF908C
:101B3000CF90BF90AF909F908F907F906F905F906D
:101B40004F903F902F9008956091DF067091E006CE
:101B50002091F9063091FA064091FB065091FC065F
:101B6000809111070E94570981E08093DA068EE781
:101B700095E06FE875E00E9496050895EF92FF9258
:101B80000F931F936730710509F4DCC2683071054B
:101B9000C4F46330710509F40BC16430710544F479
:101BA0006130710559F16230710509F0B2C47BC032
:101BB0006530710509F4A2C1663071050CF078C278
:101BC0003AC16B30710509F412C46C3071054CF4E4
:101BD0006930710509F45CC36A3071050CF0ABC360
:101BE000FBC26D30710509F485C46D3071050CF4CC
:101BF00052C46E30710509F08CC483C42091DF0695
:101C00003091E006181619064CF44B3051051CF4BF
:101C100081E090E010C08AE090E00DC0892B19F4BB
:101C200080E090E008C04B3051051CF48FEF9FEF2F
:101C300002C086EF9FEF820F931F4091E306509101
:101C4000E4062091E1063091E2062817390714F4E2
:101C50009A0104C0841795070CF09C013093E006AC
:101C60002093DF0600D000D000D0EDB7FEB731964C
:101C700004EC13E0ADB7BEB712961C930E93119708
:101C800080EF91E093838283358324830E949D00BB
:101C9000EDB7FEB736960FB6F894FEBF0FBEEDBF98
:101CA00083EB93E0F6C3E090F906F090FA0600911A
:101CB000FB061091FC06181619064CF44B30510522
:101CC0001CF421E030E010C02AE030E00DC0892B88
:101CD00019F420E030E008C04B3051051CF42FEF20
:101CE0003FEF02C026EF3FEF8CE390E0AC01249F72
:101CF000C001259F900D349F900D11249C01442715
:101D000037FD4095542F2E0D3F1D401F511F8091D0
:101D1000FD069091FE06E0910107F0910207E2179F
:101D2000F30714F4FC0104C0281739070CF0F9017B
:101D3000BF01882777FD8095982F6093F9067093EF
:101D4000FA068093FB069093FC06ADB7BEB71897D2
:101D50000FB6F894BEBF0FBEADBF0DB71EB70F5F75
:101D60001F4F26EEE22E23E0F22E1296FC92EE9208
:101D7000119721E032E0F801338322832CE330E035
:101D800040E050E00E94EF25D80114962D933D933A
:101D90004D935C9317970E949D00EDB7FEB7389660
:101DA0000FB6F894FEBF0FBEEDBF85ED93E041C0C6
:101DB0002DB73EB7285030400FB6F8943EBF0FBE47
:101DC0002DBF0DB71EB70F5F1F4FA8E0EA2EA4E08E
:101DD000FA2EADB7BEB71296FC92EE92119781E142
:101DE00092E0F801938382832091DF063091E00630
:101DF000442737FD4095542F6091F9067091FA06FB
:101E00008091FB069091FC060E94EF25D801149664
:101E10002D933D934D935C9317970E949D00EDB7D2
:101E2000FEB738960FB6F894FEBF0FBEEDBF87EF32
:101E300093E0B70163C36091E5067091E60618165A
:101E400019064CF44B3051051CF421E030E010C071
:101E50002AE030E00DC0892B19F420E030E008C002
:101E60004B3051051CF42FEF3FEF02C026EF3FEF40
:101E700088EE93E0289FA001299F500D389F500DB8
:101E80001124460F571F8091E7069091E806209194
:101E9000E9063091EA062417350714F49C0104C0C2
:101EA000481759070CF09A012093E5063093E6068F
:101EB00000D000D000D0EDB7FEB731960CE414E0AE
:101EC000ADB7BEB712961C930E93119782E292E0C3
:101ED00093838283C90168EE73E00E94A62575830F
:101EE00064830E949D00EDB7FEB736960FB6F89456
:101EF000FEBF0FBEEDBF8BE394E0CBC2E090F306D4
:101F0000F090F4060091F5061091F606FCE3EF164A
:101F1000F10401051105F8F4181619064CF44B30BC
:101F200051051CF421E030E010C02AE030E00DC083
:101F3000892B19F420E030E008C04B3051051CF427
:101F40002FEF3FEF02C026EF3FEFC901AA2797FD11
:101F5000A095BA2F27C0181619064CF44B3051051E
:101F60001CF421E030E010C02AE030E00DC0892BE5
:101F700019F420E030E008C04B3051051CF42FEF7D
:101F80003FEF02C026EF3FEF8CE390E0AC01249FCF
:101F9000C001259F900D349F900D1124AA2797FD15
:101FA000A095BA2F8E0D9F1DA01FB11F8093F30621
:101FB0009093F406A093F506B093F6062091F306ED
:101FC0003091F4064091EB065091EC068091EF06BB
:101FD0009091F0068217930714F4CA0104C02417E5
:101FE00035070CF0C9019C01442737FD4095542F5B
:101FF0002093F3063093F4064093F5065093F606CB
:102000008AE294E02C33310541055105D8F46DB7CF
:102010007EB7685070400FB6F8947EBF0FBE6DBF9C
:10202000EDB7FEB73196ADB7BEB712969C938E93BF
:10203000119782E392E093838283248335834683DE
:10204000578327C06DB77EB7685070400FB6F894BD
:102050007EBF0FBE6DBF0DB71EB70F5F1F4FADB771
:10206000BEB712969C938E93119780E492E0F8018C
:1020700093838283CA01B9012CE330E040E050E051
:102080000E94CD25D80114962D933D934D935C93DA
:1020900017970E949D00EDB7FEB738960FB6F894DB
:1020A000FEBF0FBEEDBF89E194E06AE274E026C294
:1020B0002091F706181619061CF481E090E007C07D
:1020C000892B19F08FEF9FEF02C080E090E0280F7E
:1020D000822F90E0833091051CF081E090E004C0F5
:1020E000009711F482E090E0282F8093F70681306A
:1020F00019F0823031F403C023E531E002C02FE44F
:1021000031E000D000D000D0EDB7FEB731960EE63A
:1021100014E0ADB7BEB712961C930E9311978EE4E0
:1021200092E093838283358324830E949D00EDB7E0
:10213000FEB736960FB6F894FEBF0FBEEDBF8DE525
:1021400094E0A7C12091F806181619061CF481E046
:1021500090E007C0892B19F08FEF9FEF02C080E05D
:1021600090E0280F822F90E0833091051CF081E0F1
:1021700090E004C0009711F482E090E0282F809353
:10218000F806813019F0823031F403C023E531E0E4
:1021900002C02FE431E000D000D000D0EDB7FEB790
:1021A000319600E914E0ADB7BEB712961C930E93BA
:1021B00011978EE492E093838283358324830E9477
:1021C0009D00EDB7FEB736960FB6F894FEBF0FBE72
:1021D000EDBF8FE794E05DC1209105071816190641
:1021E0001CF481E090E007C0892B19F08FEF9FEF7E
:1021F00002C080E090E0281B30E080910607482F65
:1022000050E08091070790E08217930714F4CA0109
:1022100004C0241735070CF0C901282F8093050747
:10222000823069F0833018F4813089F405C083303E
:1022300049F0843061F409C02EE131E008C020E0AB
:1022400031E005C02AE031E002C024E131E000D0F5
:1022500000D000D0EDB7FEB7319602EB14E0ADB779
:10226000BEB712961C930E9311978EE592E093835E
:102270008283358324830E949D00EDB7FEB7369696
:102280000FB6F894FEBF0FBEEDBF81EA94E001C126
:1022900020910807181619061CF481E090E007C089
:1022A000892B19F08FEF9FEF02C080E090E0281B90
:1022B00030E080910907482F50E080910A0790E0B4
:1022C0008217930714F4CA0104C0241735070CF0D1
:1022D000C901282F80930807823039F0833041F0FC
:1022E000813041F422E431E005C028E231E002C04F
:1022F00025E331E000D000D000D0EDB7FEB7319635
:1023000004ED14E0ADB7BEB712961C930E9311976F
:1023100088E692E093838283358324830E949D0024
:10232000EDB7FEB736960FB6F894FEBF0FBEEDBF01
:1023300083EC94E0AEC020910B07181619061CF42C
:1023400081E090E007C0892B19F08FEF9FEF02C06A
:1023500080E090E0281B30E080910C07482F50E08F
:1023600080910D0790E08217930714F4CA0104C00E
:10237000241735070CF0C901282F80930B078230F2
:1023800069F0833018F4813089F405C0833049F056
:10239000843061F409C02EE131E008C020E031E072
:1023A00005C02AE031E002C024E131E000D000D0D5
:1023B00000D0EDB7FEB7319606EF14E0ADB7BEB76B
:1023C00012961C930E9311978EE592E0938382836D
:1023D000358324830E949D00EDB7FEB736960FB675
:1023E000F894FEBF0FBEEDBF85EE94E052C0209181
:1023F0000E07181619061CF481E090E007C0892B1F
:1024000019F08FEF9FEF02C080E090E0281B30E0D2
:1024100080910F07482F50E08091100790E08217BD
:10242000930714F4CA0104C0241735070CF0C9013E
:10243000282F80930E07823039F0833041F08130AD
:1024400041F422E431E005C028E231E002C025E396
:1024500031E000D000D000D0EDB7FEB7319608E1F2
:1024600015E0ADB7BEB712961C930E93119788E690
:1024700092E093838283358324830E949D00EDB78D
:10248000FEB736960FB6F894FEBF0FBEEDBF87E0DD
:1024900095E0B80133C040911107181619061CF4D5
:1024A00021E030E007C0892B19F02FEF3FEF02C089
:1024B00020E030E0420F242F30E0233031051CF0C3
:1024C00021E030E005C02115310511F422E030E0B3
:1024D00020931107213049F486E797E00E943818CD
:1024E0008FE692E06AE375E009C089E295E06BE46B
:1024F00075E004C080E892E061E972E00E94960510
:1025000008C082EA92E063EB72E00E9496050E94A6
:10251000A40D1F910F91FF90EF900895CF93DF933B
:102520006091120780E090E070E040E050E00E948F
:10253000BE0D40C00E945206882329F40E944A061C
:10254000882309F45EC066E970E080E090E00E94B4
:10255000A31D21960E944A06882339F08091120714
:10256000282F30E0215030400BC00E9452068823B3
:1025700009F43FC080911207282F30E02F5F3F4FB2
:1025800080911407482F50E080911307682F70E066
:102590006217730714F4BA0104C0241735070CF04E
:1025A000B9016093120780E090E01FC00E943506D9
:1025B000882319F4C0E0D0E01CC066E970E080E038
:1025C00090E00E94A31D21960E943506882329F0E1
:1025D000609112078FEF9FEF08C00E943D0688238D
:1025E00041F06091120781E090E070E0AE010E943E
:1025F000BE0D88EE93E00E946607882309F09ACF0B
:1026000005C00E943D068823C1F6D0CFDF91CF914F
:102610000895CF93DF936091DA0680E090E070E058
:1026200040E050E00E94BE0D40C00E945206882348
:1026300029F40E944A06882309F45EC066E970E026
:1026400080E090E00E94A31D21960E944A06882304
:1026500039F08091DA06282F30E0215030400BC04D
:102660000E945206882309F43FC08091DA06282F81
:1026700030E02F5F3F4F8091DC06482F50E0809183
:10268000DB06682F70E06217730714F4BA0104C008
:10269000241735070CF0B9016093DA0680E090E06A
:1026A0001FC00E943506882319F4C0E0D0E01CC08A
:1026B00066E970E080E090E00E94A31D21960E94F0
:1026C0003506882329F06091DA068FEF9FEF08C066
:1026D0000E943D06882341F06091DA0681E090E097
:1026E00070E0AE010E94BE0D88EE93E00E94660786
:1026F000882309F09ACF05C00E943D068823C1F6C1
:10270000D0CFDF91CF9108958F929F92AF92BF92D9
:10271000CF92DF92EF92FF920F931F93CF93DF93AD
:10272000E62E4C0197FF04C088249924881A990A40
:1027300060E0181619060CF461E082E00E94A21E07
:102740006E2D70E080E090E00E94E42320E030E015
:1027500048EC52E40E944B239B01AC0160E070E026
:1027600080E89FE30E944B2320E030E04CE852E4F5
:102770000E940E255B016C01C0E0D0E015C083E033
:1027800061E00E94A21EC601B5010E94B8237B0130
:102790008C01CB010E94FC1D83E060E00E94A21E20
:1027A000C7010E94FC1D2196C815D90544F3DF918D
:1027B000CF911F910F91FF90EF90DF90CF90BF903E
:1027C000AF909F908F900895CF92DF92EF92FF92FB
:1027D0000F931F93CF93DF9382EC95E063ED75E049
:1027E0000E9496058091D906823019F402E010E02B
:1027F000ADC001E010E0AAC080E00E94411EEC01E3
:1028000081E00E94411E8F5F9340C1F564EF71E04B
:1028100080E090E00E94A31D81E00E94411E8F5F36
:10282000934061F50F5F1F4FC8018170907000FFEA
:1028300011C082EC95E065EF75E00E94960568EEA8
:1028400073E080E090E00E94A31D82EC95E063EDD0
:1028500075E012C0892B91F482EC95E065EF75E08C
:102860000E94960568EE73E080E090E00E94A31D50
:1028700082EC95E064EE75E00E94960582E0CC3033
:10288000D80744F1C8018170907000FF10C086E045
:102890000E94F61E019709F460C0CB50D240CE9D35
:1028A000C001CF9D900DDE9D900D112446C0892B57
:1028B00009F053C084E00E94F61E019709F44DC050
:1028C000CB50D240CE9DC001CF9D900DDE9D900D8E
:1028D00011241AC021E0C43FD2070CF03EC0C80149
:1028E0008170907000FF17C084E00E94F61E01976F
:1028F000A1F1C6018C1B9D0B9C012E9DC0012F9D3B
:10290000900D3E9D900D112464EF71E00E94BA2558
:102910008FEF9FEF18C0892B01F586E00E94F61E0D
:102920000197D9F0C6018C1B9D0B9C012E9DC00107
:102930002F9D900D3E9D900D112464EF71E00E943B
:10294000BA2581E090E00E94841307C0E4EFCE2E08
:10295000E1E0DE2E79E1E72EF12C88EE93E00E9493
:102960006607882309F048CFDF91CF911F910F911F
:10297000FF90EF90DF90CF9008958330910579F12B
:10298000843091053CF48130910559F0029709F0AB
:1029900053C016C08430910589F1059709F04CC0E9
:1029A0003CC081E993E062EA73E00E94960564EC22
:1029B00079E080E090E00E94A31D0E940913089531
:1029C00086EB96E067EC76E00E94960564EC79E091
:1029D00080E090E00E94A31D0E948E12089580EA7C
:1029E00095E061EB75E00E94960564EC79E080E08B
:1029F00090E00E94A31D0E94E413089586E096E0F3
:102A000067E176E00E94960564EC79E080E090E072
:102A10000E94A31D0E94AC0708958AE496E06BE52E
:102A200076E00E94960564EC79E080E090E00E94F8
:102A3000A31D0E949A15089584E996E065EA76E060
:102A40000E94960564EC79E080E090E00E94A31D6E
:102A50000E942B15089559C082E390E00E945B0606
:102A600090E08330910531F4809117079091180719
:102A7000019707C0049749F48091170790911807B0
:102A800001969093180780931707209117073091AC
:102A900018074091190750911A0780911B079091D0
:102AA0001C078217930714F4CA0104C024173507C2
:102AB0000CF0C90190931807809317078330910594
:102AC000A9F08430910534F48130910561F00297CA
:102AD000B1F406C08430910561F0059781F40CC013
:102AE0006DE473E00EC06CE373E00BC06EE573E061
:102AF00008C06FE673E005C060E873E002C064E9F7
:102B000076E08BE293E00E94960562E370E080E05D
:102B100090E042E050E00E940907882309F09CCF32
:102B200080911707909118070E94BD1408950E9484
:102B30002B1508954F925F926F927F928F929F9282
:102B4000AF92BF92CF92DF92FF920F931F93CF93DA
:102B5000DF931CE6412E16E0512EB7EF6B2EB2E04C
:102B60007B2EADE7AA2EA6E0BA2EF8E08F2EF3E07A
:102B70009F2E83C08EE00E94411EEC018FE00E94D8
:102B8000411E6C018AE00E94F61E182F84E00E940C
:102B9000F61E082F86E00E94F61EF82E112319F467
:102BA00080E996E007C0113019F082E996E002C092
:102BB0008EE896E02DB73EB7285030400FB6F89417
:102BC0003EBF0FBE2DBFEDB7FEB73196ADB7BEB756
:102BD00012965C924E92119773826282D583C4835F
:102BE000978386830E949D002DB73EB7285F3F4F95
:102BF0000FB6F8943EBF0FBE2DBF013019F420E987
:102C000036E007C0002319F022E936E002C02EE8C2
:102C100036E041E0F41619F480E996E007C0FF20A1
:102C200019F082E996E002C08EE896E0ADB7BEB733
:102C30001A970FB6F894BEBF0FBEADBFEDB7FEB783
:102C400031961296BC92AE92119793828282D5826F
:102C5000C48237832683918780870E949D002DB789
:102C60003EB7265F3F4F0FB6F8943EBF0FBE2DBF55
:102C70008CE696E0B5010E94960588EE93E00E94EE
:102C80006607882309F076CF0E942B15DF91CF913C
:102C90001F910F91FF90DF90CF90BF90AF909F90CA
:102CA0008F907F906F905F904F900895F999FECF2D
:102CB00072BD61BDF89A80B50895F999FECF1FBA2B
:102CC00072BD61BD40BD0FB6F894FA9AF99A0FBE75
:102CD0000895FC01138212828AE497E09183808335
:102CE000618F178681E084838FEF858382E08683FE
:102CF00083E0878384E0808785E0818786E0828720
:102D00000895FC01818D8F3F29F0CF014A960E94E2
:102D10008419089585898F3F21F4862F642F0E949E
:102D2000631E0895CF93DF93EC01898D8F3F29F0C7
:102D3000CE014A960E945A192AC08D898F3F19F1F7
:102D4000288D413049F481E090E002C0880F991F3E
:102D50006A95E2F7282B09C081E090E002C0880F55
:102D6000991F6A95E2F780952823288F8F8960E064
:102D70000E94A21E8E896D8941E0288D0E94491F04
:102D80008F8961E002C0862F642F0E94A21EDF910E
:102D9000CF9108950F931F938C01F801668140E055
:102DA0000E94921681E090E00E94FC1DC801F8018B
:102DB000668141E00E94921681E090E00E94FC1D35
:102DC000C801F801668140E00E94921684E690E016
:102DD0000E94FC1D1F910F910895CF92DF92EF92F8
:102DE000FF920F931F93CF93DF93F82EE92E282F96
:102DF000392FC9018C01C0E0D0E0C62EDD248F2D13
:102E00009E2DF801678141E00E948116A6010C2EDB
:102E100002C0559547950A94E2F741708F2D9E2D7B
:102E2000F80167810E94921621960F5F1F4FC830EC
:102E3000D10529F78F2D9E2D0E94CA16DF91CF91C3
:102E40001F910F91FF90EF90DF90CF900895AF9278
:102E5000BF92CF92DF92EF92FF920F931F93CF9387
:102E6000DF937C01B62EFC01818D8F3F09F468C091
:102E70008AE1C82ED12CCE0CDF1CC6010E94561947
:102E8000782FF70140E050E0AB2DB0E001E010E01A
:102E900087819D01042E02C0359527950A94E2F79B
:102EA00021703070082E02C0220F331F0A94E2F7FF
:102EB000C1E0D0E0580102C0AA0CBB1C8A95E2F721
:102EC000C50180957823722B4F5F5F4F3196443058
:102ED0005105F1F68E01F701068002C0000F111FA7
:102EE0000A94E2F700950723C601602F0E94281973
:102EF00081E090E00E94FC1DCE01F701068002C037
:102F0000880F991F0A94E2F7082BC601602F0E94D0
:102F1000281981E090E00E94FC1DF701068002C0A4
:102F2000CC0FDD1F0A94E2F75E01A0940A21C601CE
:102F3000602F0E94281984E690E00E94FC1D21C0A9
:102F40008701C0E0D0E0C62EDD24C701F80167810B
:102F500041E00E948116A6010C2E02C055954795AE
:102F60000A94E2F74170C701F80167810E94921646
:102F700021960F5F1F4FC430D10539F7C7010E945A
:102F8000CA16DF91CF911F910F91FF90EF90DF90C4
:102F9000CF90BF90AF9008951F93CF93DF93EC0134
:102FA000162F6C810E9492166D816F3F21F0CE0129
:102FB00040E00E9492168F8584FF05C0CE01612FEC
:102FC0000E94ED160EC0612F70E094E07595679534
:102FD0009A95E1F7CE010E942717CE01612F0E943A
:102FE0002717DF91CF911F91089541E00E94CC17E0
:102FF00081E090E0089540E00E94CC170895FC0124
:103000006089862F8460808B6C60CF010E94FB17E3
:103010000895DF93CF93CDB7DEB728970FB6F89416
:10302000DEBF0FBECDBF9C01FE013196AEE4B7E01E
:1030300088E00D9001928150E1F7F90183898417AE
:1030400010F4482F4150E42FF0E0EE0FFF1FEC0F7B
:10305000FD1F8181680F6068C9010E94FB172896D7
:103060000FB6F894DEBF0FBECDBFCF91DF910895AC
:1030700061E00E94FB1780ED97E00E94FC1D08951F
:10308000FC01462F818D8F3F19F485898F3F21F0F8
:10309000CF0167E00E9492160895AF92BF92CF923F
:1030A000DF92EF92FF920F931F93CF93DF93EC0188
:1030B000B42EA22E698D6F3F71F17AE1E72EF12CCB
:1030C000E80EF91EC7010E94B019C70167E041E090
:1030D0000E948419C70167E041E00E945A198E01DD
:1030E00054E0C52ED12CCC0EDD1ECE01F801678137
:1030F00041E00E9481160F5F1F4F0C151D05A9F7B7
:10310000C7016C8141E00E948419C7016E8141E0D2
:103110000E94841905C08D898F3F11F080E8888F47
:10312000F1E0FB1518F48F8588608F87BB8A1C8AB5
:10313000AA2031F081E0B81619F48F8584608F875A
:1031400080E593EC0E94FC1DCE016C8140E00E9462
:103150009216CE016E8140E00E9492166D816F3F03
:1031600021F0CE0140E00E9492166F8564FD1DC0E3
:10317000CE0163E00E94271784E991E10E94FC1DC3
:10318000CE0163E00E94271784E991E10E94FC1DB3
:10319000CE0163E00E94271786E990E00E94FC1DA3
:1031A000CE0162E00E94271716C06062CE010E9425
:1031B000FB1784E991E10E94FC1D6F856062CE01DE
:1031C0000E94FB1786E990E00E94FC1D6F856062FB
:1031D000CE010E94FB176F856062CE010E94FB1733
:1031E00084E0888BCE010E94FF17CE010E94381820
:1031F00082E0898BCE0166E00E94FB17DF91CF91C0
:103200001F910F91FF90EF90DF90CF90BF90AF9004
:103210000895EF92FF920F931F93FC01F62EE42E78
:1032200000EE17E060816062C80170E00E94001A41
:10323000C8016F2D0E94821AC8016E2D0E94821A49
:10324000C8010E94C51A1F910F91FF90EF90089539
:10325000462F69E00E9409190895DF92EF92FF92CC
:103260000F931F937C01D62E00EE17E0FC016081C6
:103270006062C80170E00E94001AC8016D2D0E94B2
:10328000821AC8010E94C51AF70160816062C801F4
:1032900070E041E050E00E94D61AC8010E94131A63
:1032A0001F910F91FF90EF90DF90089569E00E94C9
:1032B0002D1908950F931F93CF93DF93EC01162FD1
:1032C000042F6830E0F40E945619282F013051F481
:1032D00081E090E002C0880F991F1A95E2F7622FF3
:1032E000682B0AC081E090E002C0880F991F1A95F0
:1032F000E2F7682F60956223CE010E942819DF91C2
:10330000CF911F910F9108950F931F93CF93DF9348
:10331000EC01162F042F6830F0F460E00E942D19A4
:10332000282F002351F481E090E002C0880F991FFC
:103330001A95E2F7422F482B0AC081E090E002C0C4
:10334000880F991F1A95E2F7482F40954223CE0126
:1033500060E00E940919DF91CF911F910F910895AC
:10336000CF93DF93EC01683008F067E0688380EE6C
:1033700097E00E94DA1A6881606280EE97E070E060
:103380000E94001A80EE97E060E00E94821A80EEB0
:1033900097E06FEF0E94821A80EE97E060E00E9453
:1033A000821A80EE97E060E00E94821A80EE97E039
:1033B00060E00E94821A80EE97E060E00E94821A2C
:1033C00080EE97E060E00E94821A80EE97E060E075
:1033D0000E94821A80EE97E060E00E94821A80EEDE
:1033E00097E060E00E94821A80EE97E060E00E9421
:1033F000821A80EE97E00E94C51ADF91CF9108955E
:1034000081E08093DF076093BC071092DD07109284
:10341000DE0708952091BB0730E08091BA07281B92
:103420003109C90108954091BA078091BB07481737
:1034300018F02FEF3FEF0AC0E42FF0E0E656F84F08
:103440008081282F30E04F5F4093BA07C90108956B
:10345000E091BA078091BB07E81718F0EFEFFFEF94
:1034600006C0F0E0E656F84F8081E82FF0E0CF018B
:10347000089508951092E3071092E20788EE93E012
:10348000A0E0B0E08093E4079093E507A093E607FF
:10349000B093E7078AE597E09093E1078093E00710
:1034A0000895CF92DF92EF92FF920F931F93CF93E5
:1034B000DF937C016B018A018091DF078823A1F0F3
:1034C000C0E0D0E00DC0D701ED91FC91D601AC0F6A
:1034D000BD1F0190F081E02DC7016C9109952196E7
:1034E000C017D10780F304C0CB01642F0E94831B57
:1034F000C801DF91CF911F910F91FF90EF90DF9066
:10350000CF900895DF93CF930F92CDB7DEB7FC0134
:1035100069838091DF078823C9F08091DE078032BC
:1035200038F081E090E09383828320E030E015C0A2
:103530008091DD07E82FF0E0E354F84F9981908304
:103540008F5F8093DD078093DE0705C0CE01019673
:1035500061E00E94831B21E030E0C9010F90CF9110
:10356000DF9108950F93062F8091BC076DEB77E0F4
:103570004091DE0721E00E942E1B1092DD07109281
:10358000DE071092DF070F91089561E00E94B21AE2
:103590000895413208F040E2862F6AE977E00E9400
:1035A000E51A1092BA078093BB07089521E00E94A4
:1035B000C91A08951092BA071092BB071092DD073E
:1035C0001092DE070E942F1D0895382F413210F00F
:1035D00040E042C08091EC078823E1F791E09093AE
:1035E000EC072093EE078FEF809359081092140890
:1035F0004150409315084F5F9093ED078091ED0780
:10360000330F832B8093ED078091EF07813041F4D6
:103610001092EF078091ED078093BB0085EC01C00D
:1036200085EE8093BC008091EC078130E1F38091BE
:103630001408841710F44091140820E030E00AC008
:10364000FB01E20FF31FD901AC50B84F8C9180837E
:103650002F5F3F4F2417A0F3842F08950F931F93DC
:10366000582F122F413210F081E04AC08091EC07B0
:103670008823E1F782E08093EC070093EE078FEF59
:10368000809359081092140840931508A4EFB7E0EE
:10369000FB0102C081918D938E2F861B8417D0F37E
:1036A0001092ED078091ED07550F852B8093ED0764
:1036B0008091EF07813041F41092EF078091ED0780
:1036C0008093BB0085EC01C085EE8093BC00112384
:1036D00021F08091EC078230E1F3809159088F3F0F
:1036E00011F480E00DC080915908803211F482E01D
:1036F00007C080915908803311F084E001C083E055
:103700001F910F910895482F613210F081E00895C4
:103710008091EC07843011F082E0089560933708BF
:10372000A6E1B8E0842F9C01F90102C081918D933C
:103730008E2F841B8617D0F380E008951F920F927E
:103740000FB60F9211242F933F934F935F936F9374
:103750007F938F939F93AF93BF93EF93FF9380914A
:10376000B90090E0887F90708036910509F4F2C02E
:1037700081369105CCF58832910509F47BC08932F8
:103780009105B4F48031910509F46FC08131910540
:103790003CF4009709F447C1089709F04FC165C090
:1037A0008831910509F466C0809709F047C182C04D
:1037B0008034910509F4A4C08134910544F4803328
:1037C000910509F482C0C89709F038C189C08035D5
:1037D000910509F489C08835910509F496C08834AB
:1037E000910509F02BC1AEC08839910509F413C1C8
:1037F00089399105ECF48837910509F4ABC0893714
:1038000091054CF48836910509F4A4C080379105E0
:1038100009F014C19FC08838910509F4FCC08039B3
:10382000910509F49DC08038910509F007C198C041
:10383000803B910509F4C6C0813B91054CF4803A68
:10384000910509F49FC0883A910509F0F7C0BAC004
:10385000803C910509F4E3C0883C910509F4DFC080
:10386000883B910509F0EAC0C2C08091ED078093C2
:10387000BB00CFC09091140880911508981768F488
:1038800090911408E92FF0E0EC50F84F808180937C
:10389000BB009F5F90931408BCC08091EE07882303
:1038A00009F44BC085ED8093BC008091BC0084FD81
:1038B000FCCFC2C080E28093590885ED8093BC00A4
:1038C0008091BC0084FDFCCFB7C080E38093590891
:1038D00085ED8093BC008091BC0084FDFCCFACC022
:1038E00088E3809359089BC0809114089091BB0095
:1038F000E82FF0E0EC50F84F90838F5F809314082E
:10390000909114088091150882C0809114089091BC
:10391000BB00E82FF0E0EC50F84F90838F5F80936E
:1039200014088091EE07882341F085ED8093BC0058
:103930008091BC0084FDFCCF7FC081E08093EF07C5
:1039400084EA6EC085ED8093BC008091BC0084FD4C
:10395000FCCF72C083E08093EC071092580859C0E6
:1039600080915808803208F056C080915808909194
:10397000BB00E82FF0E0E85CF74F90838F5F809307
:10398000580847C080915808803230F4E0915808B8
:10399000F0E0E85CF74F108285ED8093BC008091E9
:1039A000BC0084FDFCCF1092EC0760915808E091B8
:1039B000F207F091F30788E398E070E00995109220
:1039C00058082DC084E08093EC07109236081092BE
:1039D0003708E091F007F091F107099580913708D9
:1039E000882329F481E0809337081092160890917B
:1039F0003608E92FF0E0EA5EF74F80818093BB0044
:103A00009F5F9093360890913608809137089817F9
:103A100010F485EC01C085E88093BC000FC085ECF4
:103A20008093BC0009C01092590885ED8093BC00BA
:103A30008091BC0084FDFCCF1092EC07FF91EF91C8
:103A4000BF91AF919F918F917F916F915F914F91B6
:103A50003F912F910F900FBE0F901F9018951092CD
:103A6000EC0781E08093EE071092EF0782E161E0BE
:103A70000E94A21E83E161E00E94A21EE9EBF0E039
:103A800080818E7F808380818D7F808388E4809396
:103A9000B80085E48093BC0008951F920F920FB682
:103AA0000F9211242F933F938F939F93AF93BF93C4
:103AB00080915E0890915F08A0916008B0916108C4
:103AC000309162080196A11DB11D232F2D5F2D3766
:103AD00020F02D570196A11DB11D209362088093FF
:103AE0005E0890935F08A0936008B093610880918E
:103AF0005A0890915B08A0915C08B0915D0801960E
:103B0000A11DB11D80935A0890935B08A0935C0897
:103B1000B0935D08BF91AF919F918F913F912F918D
:103B20000F900FBE0F901F9018958FB7F8942091AB
:103B30005E0830915F0840916008509161088FBF26
:103B4000B901CA0108959B01AC017FB7F894809137
:103B50005A0890915B08A0915C08B0915D0866B529
:103B6000A89B05C06F3F19F00196A11DB11D7FBF35
:103B7000BA2FA92F982F8827860F911DA11DB11D3F
:103B800062E0880F991FAA1FBB1F6A95D1F7BC017D
:103B90002DC0FFB7F89480915A0890915B08A091CE
:103BA0005C08B0915D08E6B5A89B05C0EF3F19F031
:103BB0000196A11DB11DFFBFBA2FA92F982F8827ED
:103BC0008E0F911DA11DB11DE2E0880F991FAA1F44
:103BD000BB1FEA95D1F7861B970B885E9340C8F20E
:103BE000215030404040504068517C4F21153105F4
:103BF0004105510571F60895019739F0880F991F15
:103C0000880F991F02970197F1F70895789484B56A
:103C1000826084BD84B5816084BD85B5826085BDC8
:103C200085B5816085BDEEE6F0E0808181608083AE
:103C3000E1E8F0E010828081826080838081816091
:103C40008083E0E8F0E0808181608083E1EBF0E058
:103C5000808184608083E0EBF0E0808181608083FC
:103C6000EAE7F0E0808184608083808182608083E5
:103C70008081816080838081806880831092C10010
:103C80000895982F8E3008F09E50977080911D07F0
:103C90008295880F880F807C892B80937C0080918F
:103CA0007A00806480937A0080917A0086FDFCCF50
:103CB0002091780040917900942F80E030E0282B0B
:103CC000392BC9010895CF93DF93482F50E0CA01E3
:103CD00088549F4FFC0134914C555F4FFA018491F9
:103CE000882369F190E0880F991FFC01EA57FF4F84
:103CF000A591B491FC01E057FF4FC591D491662383
:103D000051F42FB7F8948C91932F909589238C932D
:103D1000888189230BC0623061F42FB7F8948C91AD
:103D2000932F909589238C938881832B88832FBF31
:103D300006C09FB7F8948C91832B8C939FBFDF9123
:103D4000CF910895482F50E0CA0184539F4FFC0142
:103D50002491CA0188549F4FFC0194914C555F4FA8
:103D6000FA013491332309F440C0222351F1233066
:103D700071F0243028F42130A1F0223011F514C064
:103D80002630B1F02730C1F02430D9F404C080913E
:103D900080008F7703C0809180008F7D80938000AA
:103DA00010C084B58F7702C084B58F7D84BD09C0F3
:103DB0008091B0008F7703C08091B0008F7D809399
:103DC000B000E32FF0E0EE0FFF1FE057FF4FA5918B
:103DD000B4912FB7F894662321F48C9190958923A0
:103DE00002C08C91892B8C932FBF0895682F70E0AF
:103DF000CB0184539F4FFC012491CB0188549F4FEA
:103E0000FC0144916C557F4FFB019491992319F467
:103E100020E030E03CC0222351F1233071F0243007
:103E200028F42130A1F0223011F514C02630B1F071
:103E30002730C1F02430D9F404C0809180008F77FE
:103E400003C0809180008F7D8093800010C084B576
:103E50008F7702C084B58F7D84BD09C08091B0008A
:103E60008F7703C08091B0008F7D8093B000892F41
:103E700090E0880F991F86569F4FFC01A591B49141
:103E80008C9120E030E0842311F021E030E0C90182
:103E90000895BF92CF92DF92EF92FF920F931F93FC
:103EA000CF93DF93E82EF62EB42EC7E0D0E0022F9A
:103EB00010E087E0C82ED12CBB2059F4B6016C1B52
:103EC0007D0BC80102C0959587956A95E2F7BC0104
:103ED00007C0B8010C2E02C0759567950A94E2F7E9
:103EE00061708E2D0E94A21E8F2D61E00E94A21E85
:103EF0008F2D60E00E94A21E21979FEFCF3FD90730
:103F0000D9F6DF91CF911F910F91FF90EF90DF9045
:103F1000CF90BF90089508951F920F920FB60F9201
:103F200011242F933F934F938F939F93EF93FF937E
:103F30008091C00082FD1DC04091C6002091A30861
:103F40003091A4082F5F3F4F2F7330708091A508E8
:103F50009091A6082817390771F0E091A308F09115
:103F6000A408ED59F74F40833093A4082093A30889
:103F700002C08091C600FF91EF919F918F914F9168
:103F80003F912F910F900FBE0F901F901895E091C9
:103F9000F708F091F808E05CFF4F81919191208142
:103FA0003181821B930B8F739070892B11F00E94CB
:103FB0008B1F08951F920F920FB60F9211242F930B
:103FC0003F938F939F93EF93FF932091E708309156
:103FD000E8088091E9089091EA082817390731F438
:103FE0008091C1008F7D8093C10014C0E091E908E9
:103FF000F091EA08E955F74F20818091E908909106
:10400000EA0801968F7390709093EA088093E9080C
:104010002093C600FF91EF919F918F913F912F9137
:104020000F900FBE0F901F901895AF92BF92DF9226
:10403000EF92FF920F931F93CF93DF93EC017A01DE
:104040008B01DD24403081EE580780E0680780E076
:10405000780711F0DD24D39491E0A92EB12CEC89DE
:10406000FD89DD2069F0C50108A002C0880F991FF5
:104070000A94E2F7808360E079E08DE390E005C088
:10408000108260E874E88EE190E0A80197010E9438
:10409000CD252150304040405040569547953795AA
:1040A000279580E12030380720F0DD2011F0DD2455
:1040B000D6CFE889F9893083EA89FB89208319A260
:1040C000EE89FF89408121E030E0C9010C8C02C0FB
:1040D000880F991F0A94E2F7482B4083EE89FF89E5
:1040E0004081C9010D8C02C0880F991F0A94E2F724
:1040F000482B4083EE89FF894081C9010E8C02C0A4
:10410000880F991F0A94E2F7482B4083EE89FF89B4
:1041100080810F8C02C0220F331F0A94E2F7209592
:1041200028232083DF91CF911F910F91FF90EF9073
:10413000DF90BF90AF900895DC011C96ED91FC914B
:104140001D97E05CFF4F2191319180819181281B67
:10415000390B2F733070C9010895DC011C96ED9165
:10416000FC911D97E05CFF4F20813181E054F040CD
:10417000DF01AE5BBF4F8D919C91119728173907D6
:1041800019F42FEF3FEF07C08D919C91E80FF91FB5
:104190008081282F30E0C9010895DC011C96ED9143
:1041A000FC911D97E05CFF4F20813181E054F0408D
:1041B000DF01AE5BBF4F8D919C9111972817390796
:1041C00019F42FEF3FEF10C08D919C911197E80FDC
:1041D000F91F20818D919C91119701968F7390709A
:1041E00011969C938E9330E0C9010895DC0191965D
:1041F0008C919197882339F05496ED91FC915597C5
:10420000808186FFF9CF91961C920895CF93DF931A
:10421000EC01EE85FF85E05CFF4F20813181E054A9
:10422000F0402F5F3F4F2F733070DF01AE5BBF4F09
:104230008D919C91119728173907D1F3E05CFF4FBE
:1042400080819181E054F040E80FF91F6083EE8592
:10425000FF85E05CFF4F31832083EE89FF89208159
:1042600081E090E00F8C02C0880F991F0A94E2F75A
:10427000282B208381E089A3EC89FD8980818064DB
:10428000808381E090E0DF91CF9108951092EE0855
:104290001092ED0888EE93E0A0E0B0E08093EF0884
:1042A0009093F008A093F108B093F2088AE697E0A3
:1042B0009093EC088093EB0883E698E09093F808DD
:1042C0008093F70887EA98E09093FA088093F908BA
:1042D00085EC90E09093FC088093FB0884EC90E0E0
:1042E0009093FE088093FD0880EC90E09093000985
:1042F0008093FF0881EC90E090930209809301097C
:1043000082EC90E0909304098093030986EC90E09E
:10431000909306098093050984E08093070983E060
:104320008093080987E08093090985E080930A0952
:1043300081E080930B090895CF93DF930E94061EBE
:104340000E94D505C7ECDFE10E9497152097E1F3A5
:104350000E94C71FF9CFCF92DF92EF92FF920F9387
:104360001F93CF93DF937C016B018A01C0E0D0E003
:104370000FC0D6016D916D01D701ED91FC910190B7
:10438000F081E02DC7010995C80FD91F01501040D9
:104390000115110571F7CE01DF91CF911F910F919A
:1043A000FF90EF90DF90CF900895EF92FF920F93E0
:1043B0001F938C01DC01ED91FC910190F081E02DC7
:1043C0006DE009957C01D801ED91FC910190F0819F
:1043D000E02DC8016AE009959C012E0D3F1DC90121
:1043E0001F910F91FF90EF900895CF93DF93EC0111
:1043F0006115710519F420E030E00FC0DB010D906C
:104400000020E9F71197A61BB70BE881F98102801C
:10441000F381E02DAD0109959C01C901DF91CF9198
:1044200008954F925F927F928F929F92AF92BF9228
:10443000CF92DF92EF92FF920F931F93DF93CF9370
:10444000CDB7DEB7A1970FB6F894DEBF0FBECDBFD4
:104450002C01742ECB01223008F42AE019A231E29B
:10446000C32ED12CCC0EDD1E822E9924AA24BB246F
:10447000672D752FA50194010E94CD2579018A0130
:10448000C801B701A50194010E948725472D461B4D
:104490000894C108D1084A3014F4405D01C0495C59
:1044A000F6014083E114F1040105110521F07E2C91
:1044B0005F2DC801DDCFC201B6010E94F521A19692
:1044C0000FB6F894DEBF0FBECDBFCF91DF911F9125
:1044D0000F91FF90EF90DF90CF90BF90AF909F90A3
:1044E0008F907F905F904F900895CF92DF92EF92E0
:1044F000FF920F931F93CF93DF93EC016A017B012F
:104500002115310541F4E881F9810190F081E02D18
:10451000642F09951FC02A303105D1F477FF17C0E9
:10452000E881F9810190F081E02D6DE209958C011F
:1045300044275527BA014C195D096E097F09CE0140
:104540002AE00E9411229801280F391F04C02AE096
:104550000E9411229C01C901DF91CF911F910F91FF
:10456000FF90EF90DF90CF900895EF92FF920F931E
:104570001F937C010E9475228C01C7010E94D521E6
:104580009C01200F311FC9011F910F91FF90EF90E7
:1045900008950E94F5210895EF92FF920F931F93C3
:1045A0007C010E94F5218C01C7010E94D521080FD2
:1045B000191FC8011F910F91FF90EF900895505857
:1045C000BB27AA270ED0DFC19FD130F0A4D120F0A5
:1045D00031F49F3F11F41EF45EC10EF4E095E7FB49
:1045E00054C1E92FF2D180F3BA1762077307840729
:1045F000950718F071F49EF50AC20EF4E0950B2EA3
:10460000BA2FA02D0B01B90190010C01CA01A00124
:104610001124FF27591B99F0593F50F4503E68F17F
:104620001A16F040A22F232F342F4427585FF3CFC0
:10463000469537952795A795F0405395C9F77EF491
:104640001F16BA0B620B730B840BBAF09150A1F0DA
:10465000FF0FBB1F661F771F881FC2F70EC0BA0F60
:10466000621F731F841F48F4879577956795B795E8
:10467000F7959E3F08F0B3CF9395880F08F09927E0
:10468000EE0F979587950895DCD008F481E00895A2
:104690004AD1E39589C10CD076C13DD140F034D1E7
:1046A00030F021F45F3F19F0F0C05111B1C1F3C0F7
:1046B0008CD198F39923C9F35523B1F3951B550B6E
:1046C000BB27AA2762177307840738F09F5F5F4FE5
:1046D000220F331F441FAA1FA9F333D00E2E3AF026
:1046E000E0E830D091505040E695001CCAF729D040
:1046F000FE2F27D0660F771F881FBB1F261737078F
:104700004807AB07B0E809F0BB0B802DBF01FF27BE
:1047100093585F4F2AF09E3F510568F0B6C078C1AC
:104720005F3FECF3983EDCF3869577956795B795F8
:10473000F7959F5FC9F7880F911D9695879597F913
:104740000895E1E0660F771F881FBB1F621773078C
:104750008407BA0720F0621B730B840BBA0BEE1FA1
:1047600088F7E095089504D06894B11151C1089577
:1047700034D188F09F5790F0B92F9927B751A0F006
:10478000D1F0660F771F881F991F1AF0BA95C9F7E5
:1047900012C0B13081F03BD1B1E0089538C1672F2C
:1047A000782F8827B85F39F0B93FCCF38695779595
:1047B0006795B395D9F73EF490958095709561957E
:1047C0007F4F8F4F9F4F0895E89409C097FB3EF4A9
:1047D00090958095709561957F4F8F4F9F4F99234E
:1047E000A9F0F92F96E9BB279395F69587957795CC
:1047F0006795B795F111F8CFFAF4BB0F11F460FF8C
:104800001BC06F5F7F4F8F4F9F4F16C0882311F0E3
:1048100096E911C0772321F09EE8872F762F05C0F7
:10482000662371F096E8862F70E060E02AF09A9592
:10483000660F771F881FDAF7880F9695879597F987
:104840000895990F0008550FAA0BE0E8FEEF161621
:104850001706E807F907C0F012161306E407F50774
:1048600098F0621B730B840B950B39F40A2661F0E8
:10487000232B242B252B21F408950A2609F4A1408B
:10488000A6958FEF811D811D089597F99F6780E898
:1048900070E060E008959FEF80EC0895DF93CF9380
:1048A0001F930F93FF92EF92DF927B018C0168942C
:1048B00005C0DA2EEF01BED0FE01E894A591259146
:1048C000359145915591AEF3EF018BDEFE019701D5
:1048D000A801DA9479F7DF90EF90FF900F911F9184
:1048E000CF91DF9108959F938F937F936F93FF9361
:1048F000EF939B01AC0192D0EF91FF91CFDF2F910D
:104900003F914F915F918AC000240A9416161706B2
:1049100018060906089500240A94121613061406B0
:1049200005060895B8CF59D0E8F3E894EFEFBB2718
:104930003FE048EC5FE76B3D73078407950708F19C
:10494000FF279F57B25A6A4D7F40894CF04032F49E
:10495000BE556542704F8643FF4F0894EE1F91503D
:1049600030F0BB0F661F771F881FFF1FEBCF9EE73E
:10497000882332F0BB0F661F771F881F9A95C1F7F7
:104980009395E095B4C0092E0394000C11F488238C
:1049900052F0BB0F40F4BF2B11F460FF04C06F5FF7
:1049A0007F4F8F4F9F4F0895EF93E0FF06C0A2EA1D
:1049B0002AED3FE049EC5FEB14DEE5DF0F90039456
:1049C00001FC9058E8E6F0E08ECF57FD9058440F78
:1049D000551F59F05F3F71F04795880F97FB991F5E
:1049E00061F09F3F79F0879508951216130614061B
:1049F000551FF2CF4695F1DF08C0161617061806A8
:104A0000991FF1CF86957105610508940895E89482
:104A1000BB2766277727CB0197F908950BD0B3CF33
:104A200073DF28F078DF18F0952309F02ECF33CF0D
:104A30001124EECFCADFA0F3959FD1F3950F50E07C
:104A4000551F629FF001729FBB27F00DB11D639F40
:104A5000AA27F00DB11DAA1F649F6627B00DA11DE6
:104A6000661F829F2227B00DA11D621F739FB00D8C
:104A7000A11D621F839FA00D611D221F749F3327FC
:104A8000A00D611D231F849F600D211D822F762F95
:104A90006A2F11249F5750408AF0E1F088234AF092
:104AA000EE0FFF1FBB1F661F771F881F91505040DE
:104AB000A9F79E3F510570F0E8CEAACF5F3FECF317
:104AC000983EDCF3869577956795B795F795E795CA
:104AD0009F5FC1F7FE2B880F911D9695879597F9DB
:104AE00008959F9320DF0F9007FCEE5F5DCF9F3FFF
:104AF00049F0915028F4869577956795B7959F5F13
:104B000080389F4F880F9695879597F90895629FF3
:104B1000D001739FF001829FE00DF11D649FE00DB5
:104B2000F11D929FF00D839FF00D749FF00D659F16
:104B3000F00D9927729FB00DE11DF91F639FB00D15
:104B4000E11DF91FBD01CF0111240895AA1BBB1B54
:104B500051E107C0AA1FBB1FA617B70710F0A61B7D
:104B6000B70B881F991F5A95A9F780959095BC019E
:104B7000CD01089597FB092E07260AD077FD04D0B2
:104B8000E5DF06D000201AF4709561957F4F0895F7
:104B9000F6F7909581959F4F0895A1E21A2EAA1BD2
:104BA000BB1BFD010DC0AA1FBB1FEE1FFF1FA217DD
:104BB000B307E407F50720F0A21BB30BE40BF50BDA
:104BC000661F771F881F991F1A9469F76095709563
:104BD000809590959B01AC01BD01CF01089597FB95
:104BE000092E05260ED057FD04D0D7DF0AD0001CB1
:104BF00038F450954095309521953F4F4F4F5F4F7A
:104C00000895F6F790958095709561957F4F8F4F39
:104C10009F4F0895EE0FFF1F0590F491E02D09942A
:104C20002F923F924F925F926F927F928F929F92BC
:104C3000AF92BF92CF92DF92EF92FF920F931F93AA
:104C4000CF93DF93CDB7DEB7CA1BDB0B0FB6F8945B
:104C5000DEBF0FBECDBF09942A88398848885F849B
:104C60006E847D848C849B84AA84B984C884DF800C
:104C7000EE80FD800C811B81AA81B981CE0FD11DF0
:104C80000FB6F894DEBF0FBECDBFED010895F894C6
:024C9000FFCF54
:104C9200322E2051756164202000332E2053696E1C
:104CA20065202000342E2043756269632000312E76
:104CB200204C696E65617200322E20456173652059
:104CC2004F75742000332E2045617365496E4F7510
:104CD2007400312E204561736520496E2020004EFC
:104CE2006F200059657300322E2053657474696E0B
:104CF20067204200312E2053657474696E6720412B
:104D02000020002A00426567696E6E696E67205353
:104D1200657269616C2100202020536C6964656CA6
:104D220061707365002056657273696F6E20302E54
:104D3200352E30002020202000202020202020207E
:104D42002020202020202020200050726F677265D2
:104D520073733A20253032642525202000257320E4
:104D6200257320200050726520454550524F4D3A20
:104D72002000506F737420454550524F4D3A200029
:104D820025303464202020202020202020202020B4
:104D92000025303464206D696E757465732020209F
:104DA2000025303464207365636F6E6473202020A5
:104DB200200025303275207365636F6E6473202086
:104DC20020002564207365636F6E647320202000C9
:104DD2002564206D696E757465732020200025732B
:104DE2002020202020202020202020202000257389
:104DF2002020202020202000257320202020004D6C
:104E02006F76656D656E74204469723A20202000C9
:104E12004D6F766520526967687420746F20202078
:104E22000073746172742074696D656C617073656E
:104E32003E005374617274696E6720544C2E2E2E9C
:104E420020200053656C20746F2063616E63656C73
:104E52002020200025642020202020202020202027
:104E620020202020007374617274205254206D6FD0
:104E7200766520203E005374617274696E67204D1E
:104E82006F76652E2E2E00583A2534642053656CB9
:104E92003A25732020202000593A253464204D3AC7
:104EA200257320453A25732020004D6178204C65FA
:104EB2006E3A2530356C642020200053656C6563A2
:104EC20074204D6F64653A2020202000312E5469F1
:104ED2006D656C61707365202020203E00322E5279
:104EE20065616C74696D6520202020203E00332EA0
:104EF200436F6D6D616E646572202020203E003428
:104F02002E446972656374696F6E202020203E0012
:104F1200352E446562756720202020202020203E07
:104F2200003E3E3E2054696D656C617073652020C1
:104F32002000486F6C642053656C20746F20657884
:104F42006974004E756D626572206F662053686FDA
:104F520074733A000000000000000000000000002E
:104F62000000000000544C204475726174696F6E39
:104F72003A20202020000000000000000000000075
:104F82000000000000000041766720496E746572DF
:104F920076616C3A20202000000000000000000032
:104FA200000000000000000000537461727420448D
:104FB200656C61793A20202020000000000000008A
:104FC20000000000000000000000004C6F6E6765EA
:104FD200737420536875747465723A00000000009F
:104FE20000000000000000000000000000536C659B
:104FF2006570206274772073686F747320000000FC
:10500200000000000000000000000000000000425C
:1050120061636B6C69676874206F6E3F3A20200091
:10502200000000000000000000000000000000007E
:1050320000536C69646520456173652046756E6333
:105042003A00000000000000000000000000000024
:10505200000000536C6964652045617365204375E7
:1050620072763A000000000000000000000000001C
:10507200000000000054696D65204561736520469B
:10508200756E633A2000000000000000000000007E
:105092000000000000000054696D652043757276BF
:1050A200652046756E633A000000000000000000B3
:1050B2000000000000000000004D6F76656D656E17
:1050C20074204469723A202020004D6F746F722060
:1050D2002D2D2D2D2D3E20456E6400456E64202D14
:1050E2002D2D2D2D3E204D6F746F720054696D650C
:1050F2006C617073652061637469766500000000FD
:1051020000000000000000000000000000005469E0
:105112006D656C6170736520446F6E652020004878
:105122006F6C642053656C20746F2065786974001D
:105132003E3E3E20436F6D6D616E6465722020209D
:1051420000486F6C642053656C20746F2065786929
:1051520074002020436F6D6D616E64204D6F646535
:105162002020004D6F746F72203C2D2D2D2D3E207E
:10517200456E6400456E64203C2D2D2D2D3E204D44
:105182006F746F7200526576657273696E67204440
:105192006972203C3E003E3E3E2044697265637463
:1051A200696F6E20202000486F6C642053656C206C
:1051B200746F2065786974005365742045455052B8
:1051C2004F4D204469723A200000000000000000A8
:1051D200000000000000000000003E3E3E2044654A
:1051E200627567204D6F6465202000486F6C6420F3
:1051F20053656C20746F20657869740000000000AC
:10520200000000000000000000000000000000009C
:1052120000000000000000000000000000004F003D
:10522200500058003E3E3E204552524F5220202010
:10523200202020200052657475726E696E672048C6
:105242006F6D652020003E3E3E5265616C74696D53
:1052520065204D6F646500486F6C642053656C2057
:10526200746F2065786974000101010E01F087F006
:10527200000F270500E803640030750100000010EC
:105282000E00000A0000000101580200003C00006C
:105292000080510100010104010103010104010127
:1052A20003020107010002010001000500010000E4
:1052B20000003F0367039B03000000003E033E0320
:1052C2003E03000000002F0453048A040000000083
:1052D20044056D05040500000000F517AB21000030
:1052E20040001400540000000000821A511A0A1AE9
:1052F200131A281A391A000000000621AB219C203B
:06530200CD20AD20F620D5
:00000001FF
