:100000000C9472000C949A000C949A000C949A0030
:100010000C949A000C949A000C949A000C949A00F8
:100020000C949A000C949A000C949A000C949A00E8
:100030000C949A000C949A000C949A000C949A00D8
:100040000C9403230C949A000C949A000C949A003C
:100050000C949A000C949A000C949A000C949A00B8
:100060000C9454210C949A0005A84CCDB2D44EB9EE
:100070003836A9020C50B9918688083CA6AAAA2A4B
:10008000BE000000803F00000000240027002A007E
:1000900000000000250028002B00000000002300C5
:1000A00026002900040404040404040402020202D9
:1000B000020203030303030301020408102040802B
:1000C00001020408102001020408102000000007AB
:1000D0000002010000030406000000000000000010
:1000E0008A05F01F11241FBECFEFD8E0DEBFCDBFC1
:1000F00016E0A0E0B1E0E6E0F2E502C005900D9266
:10010000A038B107D9F717E0A0E8B6E001C01D920A
:10011000AD36B107E1F710E0C4EED0E004C022979D
:10012000FE010E94C628C03ED107C9F70E944125A2
:100130000C9401290C940000AEE0B0E0E2EAF0E09B
:100140000C94D8280D891E8986E08C831A83098334
:100150008FEF9FE79E838D839E01275E3F4FCE01E9
:1001600001966F89788DA9010E94C0002F81388582
:10017000020F131FF80110822E96E4E00C94F4286D
:10018000ABE0B0E0E6ECF0E00C94CA283C012B01B7
:100190005A01FC0117821682838181FD03C06FEF33
:1001A0007FEFC6C19AE0892E1E010894211C311CE4
:1001B000F3012381F20123FD859123FF81912F011A
:1001C000882309F4B2C1853239F423FD859123FFD8
:1001D00081912F01853229F490E0B3010E94B3028E
:1001E000E7CF982FFF24EE249924FFE1FF15D0F0EC
:1001F0009B3269F09C3228F4903259F0933291F49A
:100200000EC09D3249F0903369F441E024C052E0C1
:10021000F52A84E0F82A28C098E0F92A25C0E0E110
:10022000FE2A22C0F7FC29C0892F80538A3070F43F
:10023000F6FE05C0989C902C1124980E15C0E89CE1
:10024000E02C1124E80EF0E2FF2A0EC09E3229F4C1
:10025000F6FC6BC140E4F42A07C09C3619F450E860
:10026000F52A02C0983649F4F20123FD959123FF47
:1002700091912F01992309F0B8CF892F85548330AC
:1002800018F08052833038F444E050E0A40EB51EDC
:100290005FE359830FC0933631F0933779F093358C
:1002A00009F056C020C0F5018081898342E050E00A
:1002B000A40EB51E610101E010E012C0F501C0807E
:1002C000D180F6FC03C06FEF7FEF02C0692D70E0B4
:1002D00042E050E0A40EB51EC6010E94A8028C01A7
:1002E0005FE7F52214C0F501C080D180F6FC03C0A1
:1002F0006FEF7FEF02C0692D70E042E050E0A40E86
:10030000B51EC6010E949D028C0150E8F52AF3FE3D
:1003100007C01AC080E290E0B3010E94B302EA94E1
:100320008E2D90E008171907A8F30EC0F601F7FC10
:100330008591F7FE81916F0190E0B3010E94B302B5
:10034000E110EA94015010400115110579F7EAC057
:10035000943611F0993669F5F7FE08C0F501208151
:1003600031814281538184E090E00AC0F5018081AF
:1003700091819C01442737FD4095542F82E090E005
:10038000A80EB91E9FE6F92257FF09C05095409567
:10039000309521953F4F4F4F5F4FE0E8FE2ACA014D
:1003A000B901A1012AE030E00E94DF02D82ED21864
:1003B00040C0953729F41F2D1F7E2AE030E01DC074
:1003C0001F2D197F9F3661F0903720F4983509F082
:1003D000ACC00FC0903739F0983709F0A6C004C000
:1003E00028E030E00AC0106114FD146020E130E024
:1003F00004C014FD166020E132E017FF08C0F501CB
:10040000608171818281938144E050E008C0F501F0
:1004100080819181BC0180E090E042E050E0A40E38
:10042000B51EA1010E94DF02D82ED2188FE7F82E48
:10043000F122F6FE0BC05EEFF522D91438F4F4FE7B
:1004400007C0F2FC05C08FEEF82202C01D2D01C0CE
:10045000192DF4FE0DC0FE01ED0DF11D80818033DC
:1004600019F499EEF92208C01F5FF2FE05C003C01F
:100470008F2D867809F01F5F0F2DF3FC14C0F0FE5E
:100480000FC01E1510F09D2C0BC09D2C9E0C911AB8
:100490001E2D06C080E290E0B3010E94B3021F5FF0
:1004A0001E15C0F304C01E1510F4E11A01C0EE249D
:1004B00004FF0FC080E390E0B3010E94B30202FF8B
:1004C0001DC001FD03C088E790E00EC088E590E004
:1004D0000BC0802F867891F001FF02C08BE201C033
:1004E00080E2F7FC8DE290E0B3010E94B30206C007
:1004F00080E390E0B3010E94B3029A94D914C0F350
:10050000DA94F101ED0DF11D808190E0B3010E94BC
:10051000B302DD20A9F706C080E290E0B3010E949B
:10052000B302EA94EE20C1F743CEF30166817781EE
:10053000CB012B96E2E10C94E628FC01059061507A
:1005400070400110D8F7809590958E0F9F1F0895E9
:10055000FC016150704001900110D8F78095909592
:100560008E0F9F1F08950F931F93CF93DF938C01DE
:10057000EB018B8181FF1BC082FF0DC02E813F816B
:100580008C819D812817390764F4E881F9810193F2
:10059000F983E88306C0E885F985802F0995892BC2
:1005A00031F48E819F8101969F838E8302C00FEF6D
:1005B0001FEFC801DF91CF911F910F910895FA01AC
:1005C000AA27283051F1203181F1E8946F936E7F92
:1005D0006E5F7F4F8F4F9F4FAF4FB1E03ED0B4E083
:1005E0003CD0670F781F891F9A1FA11D680F791FC4
:1005F0008A1F911DA11D6A0F711D811D911DA11DD5
:1006000020D009F468943F912AE0269F11243019E4
:10061000305D3193DEF6CF010895462F4770405D7F
:100620004193B3E00FD0C9F7F6CF462F4F70405D2E
:100630004A3318F0495D31FD4052419302D0A9F789
:10064000EACFB4E0A6959795879577956795BA9583
:10065000C9F700976105710508959B01AC010A2E49
:1006600006945795479537952795BA95C9F7620F20
:10067000731F841F951FA01D08950895CF92DF92C8
:10068000EF92FF920F931F936C01CB01BA01F60119
:1006900026813781408551850E9405267B018C018A
:1006A000F60122813381448155810E94C827A80127
:1006B00097010E94C827A80197010E94C8271F918F
:1006C0000F91FF90EF90DF90CF900895CF92DF923F
:1006D000EF92FF920F931F936C01CB01BA01F601C9
:1006E00026813781408551850E94052620E030E033
:1006F00040E85FE30E9499257B018C01A8019701E6
:100700000E94C827A80197010E94C82720E030E076
:1007100040E85FE30E949A25F601228133814481FB
:1007200055810E94C8271F910F91FF90EF90DF9095
:10073000CF900895AF92BF92CF92DF92EF92FF9247
:100740000F931F93CF93DF93EC017A018B016E819E
:100750007F818885998520E030E040E05FE30E945A
:10076000C8279B01AC01C801B7010E9405267B0187
:100770008C0120E030E040E85FE30E94FE25882302
:10078000ACF46A817B818C819D8120E030E040E087
:100790005FE30E94C827A80197010E94C827A8010B
:1007A00097010E94C827A80197012AC0C801B70174
:1007B00020E030E040E050E40E9499257B018C016C
:1007C0006A817B818C819D8120E030E040E05FE3A5
:1007D0000E94C8275B016C01C801B701A8019701FD
:1007E0000E94C827A80197010E94C82720E030E096
:1007F00040E050E40E949A259B01AC01C601B5017E
:100800000E94C827E62F2E2F372F482F592FB901C6
:10081000CA01DF91CF911F910F91FF90EF90DF9070
:10082000CF90BF90AF900895FC0186E496E091834D
:10083000808380E090E0A0E0B0E082839383A48393
:10084000B5830895FC0146835783608771870895B7
:10085000FC0142835383648375830895CF92DF92B2
:10086000EF92FF920F931F936C01CB01BA01F60137
:1008700026813781408551850E9405267B018C01A8
:10088000F60122813381448155810E94C827A80145
:1008900097010E94C8271F910F91FF90EF90DF9062
:1008A000CF900895AF92BF92CF92DF92EF92FF92D6
:1008B0000F931F936C01CB01BA01F601268137819A
:1008C000408551850E9405267B018C01F6016281DD
:1008D0007381848195819058A80197010E94C8274F
:1008E0005B016C01C801B70120E030E040E050E45A
:1008F0000E9499259B01AC01C601B5010E94C82741
:100900001F910F91FF90EF90DF90CF90BF90AF902D
:100910000895AF92BF92CF92DF92EF92FF920F9322
:100920001F93CF93DF93EC017A018B016E817F815E
:100930008885998520E030E040E05FE30E94C82789
:100940009B01AC01C801B7010E9405267B018C0107
:1009500020E030E040E85FE30E94FE2588238CF42D
:100960006A817B818C819D8120E030E040E05FE303
:100970000E94C827A80197010E94C827A8019701D3
:100980002EC0C801B70120E030E040E85FE30E94DC
:1009900099257B018C016A817B818C819D8120E07E
:1009A00030E040E05FEB0E94C8275B016C01C801AA
:1009B000B70120E030E040E050E40E9499259B011F
:1009C000AC01C801B7010E94C82720E030E040E830
:1009D0005FE30E9499259B01AC01C601B5010E940D
:1009E000C827E62F2E2F372F482F592FB901CA01BC
:1009F000DF91CF911F910F91FF90EF90DF90CF90FB
:100A0000BF90AF900895AF92BF92CF92DF92EF92D6
:100A1000FF920F931F936C01CB01BA012BED3FE0C6
:100A200049E450E40E94C827F601268137814085B9
:100A300051850E9405260E9402267B018C01F60149
:100A4000628173818481958120E030E040E05FEB3A
:100A50000E94C8275B016C01C801B70120E030E0AB
:100A600040E85FE30E9499259B01AC01C601B501F6
:100A70000E94C8271F910F91FF90EF90DF90CF90B9
:100A8000BF90AF900895EF92FF920F931F93FC01D8
:100A9000E280F38004811581CB01BA012681378180
:100AA000408551850E9405262BED3FE049EC5FE330
:100AB0000E94C8270E9402269B01AC01C801B70111
:100AC00090580E94C827A80197010E949A251F915B
:100AD0000F91FF90EF9008950F931F938C01CB011E
:100AE000BA01F80126813781408551850E9405268B
:100AF0002BED3FE049EC5FE30E94C8270E942B28C2
:100B0000F80122813381448155810E94C8271F91B9
:100B10000F91089580E896E060E00E941F1C089500
:100B200089E060E00E9458240895CF92DF92EF920E
:100B3000FF920F931F938C016B0180E8E82E86E0F3
:100B4000F82EC70160E040E00E94BF1DC701B80158
:100B50000E949625C70160E041E00E94BF1DC701C9
:100B6000B6010E9496251F910F91FF90EF90DF90A4
:100B7000CF90089587E061E00E94582466E970E014
:100B800080E090E00E94592387E060E00E945824B2
:100B9000089589E061E00E94582462E070E080E0FE
:100BA00090E00E94592308950F931F9382E061E023
:100BB0000E94192483E061E00E94192489E061E029
:100BC0000E94192489E061E00E94582487E061E0D6
:100BD0000E94192400E816E0C80160E142E020E02C
:100BE0000E94031EC8016FE871E00E949625C801AB
:100BF00060E041E00E94BF1DC8016DE971E00E9404
:100C0000962568EB7BE080E090E00E945923C801C4
:100C10000E94EE1D6091D90583EA96E070E00E9483
:100C20000C1C8093DA058AE062E00E94192484E0BB
:100C300060E00E94192486E060E00E9419241F9160
:100C40000F91089581E00E94F72308950E942206E3
:100C500020E0C2970CF421E0822F08950E94220622
:100C600020E0895E93400CF021E0822F089580E01F
:100C70000E94F72308950E94370620E0C2970CF4E3
:100C800021E0822F08950E94370620E0895E93407C
:100C90000CF021E0822F0895CF93DF93EC0180E0E8
:100CA0000E94F7238955924084F0BE01882777FD82
:100CB0008095982F0E94592380E00E94F723895540
:100CC00092400CF442C022E041C080E00E94F72331
:100CD0008059914084F4BE01882777FD8095982F34
:100CE0000E94592380E00E94F72320E08059914020
:100CF0006CF521E02BC081E00E94F72389559240DA
:100D00007CF0BE01882777FD8095982F0E9459239B
:100D100081E00E94F72389559240BCF023E016C081
:100D200081E00E94F723805991407CF4BE0188271E
:100D300077FD8095982F0E94592381E00E94F72328
:100D40008059914014F424E001C020E0822FDF910B
:100D5000CF9108958AE00E94AC2420E0892B09F409
:100D600021E0822F0895AF92BF92CF92DF92EF924F
:100D7000FF920F931F937A0100D000D000D0CDB620
:100D8000DEB60894C11CD11C2AE1A22E23E0B22EAB
:100D9000EDB7FEB7B282A18222EC31E0F6013383D7
:100DA000228324E630E040E050E00E944128002702
:100DB000F7FC0095102FA80197010E948728F601E3
:100DC000358324830E949C008DB79EB706960FB68C
:100DD000F8949EBF0FBE8DBF80E994E0B5010E94DC
:100DE00095051F910F91FF90EF90DF90CF90BF90EE
:100DF000AF900895EF92FF920F931F937B018C01A8
:100E00009A01CA010197029710F480E006C02350AE
:100E100030402230310538F481E00E94F72390936E
:100E2000300680932F0680912F0690913006825CC9
:100E300091408536910560F180919F069091A006C2
:100E4000A091A106B091A2060097A105B105A9F055
:100E50000E944B23E0E020919F063091A006409134
:100E6000A1065091A206621B730B840B950BE6162C
:100E7000F70608071907A8F013C00E944B236093D8
:100E80009F067093A0068093A1069093A20608C0C7
:100E900010929F061092A0061092A1061092A20630
:100EA000E1E08E2F1F910F91FF90EF900895CF9367
:100EB000DF93EC018AE00E94AC24882389F58091BD
:100EC0009B0690919C06A0919D06B0919E0600976E
:100ED000A105B105D1F00E944B23E0E020919B06D3
:100EE00030919C0640919D0650919E06621B730BAB
:100EF000840B950B9E01442737FD4095542F2617F0
:100F0000370748075907A8F013C00E944B23609386
:100F10009B0670939C0680939D0690939E0608C046
:100F200010929B0610929C0610929D0610929E06AF
:100F3000E1E08E2FDF91CF9108954F925F926F92F3
:100F40007F928F929F92AF92BF92CF92DF92FF9249
:100F50000F931F93CF93DF936AE3462E65E0562EDF
:100F600055ED652E51E0752E4BE4A42E45E0B42ED0
:100F700036EE832E31E0932E83C08EE00E94F7235D
:100F8000EC018FE00E94F7236C018AE00E94AC2400
:100F9000182F84E00E94AC24082F86E00E94AC2425
:100FA000F82E112319F48EE595E007C0113019F0E1
:100FB00080E695E002C08CE595E02DB73EB728505D
:100FC00030400FB6F8943EBF0FBE2DBFEDB7FEB751
:100FD0003196ADB7BEB712965C924E92119773825E
:100FE0006282D583C483978386830E949C002DB739
:100FF0003EB7285F3F4F0FB6F8943EBF0FBE2DBFE0
:10100000013019F42EE535E007C0002319F020E681
:1010100035E002C02CE535E041E0F41619F48EE528
:1010200095E007C0FF2019F080E695E002C08CE54E
:1010300095E0ADB7BEB71A970FB6F894BEBF0FBE16
:10104000ADBFEDB7FEB731961296BC92AE92119736
:1010500093828282D582C482378326839187808758
:101060000E949C002DB73EB7265F3F4F0FB6F89405
:101070003EBF0FBE2DBF8AE395E0B5010E949505E6
:1010800088EE93E00E945707882309F076CFDF911E
:10109000CF911F910F91FF90DF90CF90BF90AF90B5
:1010A0009F908F907F906F905F904F900895CF9218
:1010B000DF92EF92FF920F931F93CF93DF93D09025
:1010C000DA058D2D90E08130910519F48EE791E0DD
:1010D00005C08230910511F481E791E02DB73EB74C
:1010E000285030400FB6F8943EBF0FBE2DBFEDB76D
:1010F000FEB731960AE113E0ADB7BEB712961C9366
:101100000E93119778EFE72E71E0F72EF382E282CB
:10111000958384838DE891E0978386830E949C0069
:101120002DB73EB7285F3F4F0FB6F8943EBF0FBEB6
:101130002DBF88E195E0B8010E949505C02E012FD2
:101140001E2DEF2C74C00E942E06882329F40E94C5
:101150002606882309F46BC066E970E080E090E021
:101160000E9459230E942E06882379F0D3944D2D96
:1011700050E0433051051CF041E050E005C04115FE
:10118000510511F442E050E0D42E0E942606882337
:1011900079F0DA944D2D50E0433051051CF041E0D8
:1011A00050E005C04115510511F442E050E0D42E45
:1011B0002D2D30E02130310519F4CEE7D1E005C006
:1011C0002230310511F4C1E7D1E08091DA0590E0D9
:1011D0002817390719F08BE891E002C08DE891E0FB
:1011E000ADB7BEB718970FB6F894BEBF0FBEADBF70
:1011F000EDB7FEB731961196CC92119712960C93DB
:101200001283E382D583C483978386830E949C00E4
:101210002DB73EB7285F3F4F0FB6F8943EBF0FBEC5
:101220002DBF88E195E06C2D702F0E94950588EE0A
:1012300093E00E945707882309F085CF8091DA0553
:10124000D81651F0D092DA056091D90583EA96E07C
:1012500070E04D2D0E94131CDF91CF911F910F91D3
:10126000FF90EF90DF90CF9008956F927F928F92D2
:101270009F92AF92BF92CF92DF92EF92FF920F9325
:101280001F93CF93DF93E62E3C0197FF04C06624A3
:101290007724681A790A60E0181619060CF461E0E0
:1012A00082E00E9458246E2D70E080E090E00E9461
:1012B0009E2620E030E048EC52E40E9405269B0187
:1012C000AC0160E070E080E89FE30E94052620E02A
:1012D00030E04CE852E40E94C8277B018C014301B6
:1012E0009594879495948794B401660F771F660F41
:1012F000771F680D791D882777FD8095982F0E94AC
:10130000A0269B01AC01C801B7010E949A255B0190
:101310006C01C0E0D0E01FC0C601B50120E030E0A4
:1013200040EA50E40E9499255B016C0183E061E092
:101330000E945824C601B5010E9472267B018C01CF
:10134000CB010E94B22383E060E00E945824C701D1
:101350000E94B2232196C815D905F4F2C401880F62
:10136000991F681A790AC0E0D0E015C083E061E0F7
:101370000E945824C601B5010E9472267B018C018F
:10138000CB010E94B22383E060E00E945824C70191
:101390000E94B2232196C615D70544F3C0E0D0E0E1
:1013A0001FC0C601B50120E030E040EA50E40E94D1
:1013B0009A255B016C0183E061E00E945824C6011C
:1013C000B5010E9472267B018C01CB010E94B223E1
:1013D00083E060E00E945824C7010E94B223219656
:1013E000C815D905F4F2DF91CF911F910F91FF90AD
:1013F000EF90DF90CF90BF90AF909F908F907F90B5
:101400006F9008952F923F924F925F926F927F92CA
:101410008F929F92AF92BF92CF92DF92EF92FF9204
:101420000F931F93DF93CF93CDB7DEB7C255D04054
:101430000FB6F894DEBF0FBECDBF61968FAF619738
:1014400063967FAF6EAF6397CA01B90128EE33E0B0
:1014500040E050E00E94412860966CAF7DAF8EAFB7
:101460009FAF60978E010F5F1F4FC8010E94140449
:1014700090E5E92E96E0F92EFA82E98263962EAD88
:101480003FAD6397B901882777FD8095982F0E941B
:10149000A0264B015C01C801B501A4010E942204F1
:1014A0006091DE057091DF0580E090E00E949E264D
:1014B000AB01BC01C8010E9428048E01055F1F4FCB
:1014C000C8010E9414048AE5482E86E0582E5C86E6
:1014D0004B86C801B501A4010E9422046091DE057B
:1014E0007091DF0580E090E00E949E26AB01BC0178
:1014F000C8010E9428048E010B5E1F4FC8010E9484
:101500001404BCE36B2EB6E07B2E7E8A6D8AC80184
:10151000B501A4010E9422046091DE057091DF05EF
:1015200080E090E00E949E26AB01BC01C8010E94B1
:1015300028048E01015E1F4FC8010E941404F8A206
:10154000EF8EC801B501A4010E94220460966CAD23
:101550007DAD8EAD9FAD60970E949E266B017C0194
:10156000C801B701A6010E9428048E01075D1F4F24
:10157000C8010E9414045AA649A6C801B501A401D5
:101580000E942204C801B701A6010E9428048E010E
:101590000D5C1F4FC8010E9414047CAA6BAAC801ED
:1015A000B501A4010E942204C801B701A6010E944E
:1015B00028048091DE059091DF0563966EAD7FADC6
:1015C00063970E946028CB01A0E0B0E02A968CAF20
:1015D0009DAFAEAFBFAF2A976091F4057091F5054E
:1015E0008091F6059091F70528EE33E040E050E059
:1015F0000E9441280E9459238091F905823029F4E4
:1016000080E896E060E00E94F61D6396AEADBFAD47
:1016100063979D01442737FD4095542F60966CAD2C
:101620007DAD8EAD9FAD60970E9487282C963FAF11
:101630002EAF2C9763962EAC3FAC63972EEF3FEF07
:10164000220E331E22961FAE2297AA24BB2481E0CD
:1016500090E0A0E0B0E062C463968EAC9FAC63976C
:10166000ADADBEAD8A1A9B0A0E944B2326966CAF85
:101670007DAF8EAF9FAF269721966CAD7DAD8EADC1
:101680009FAD219763964EAD5FAD63970E94B30601
:101690000E94BA056091E6057091E70580E090E050
:1016A0000E94592380910606833009F49AC0843041
:1016B00009F42BC1823009F0C6C18091090683303C
:1016C000C9F1843030F4813059F0823009F0BBC167
:1016D0001CC0843009F44BC0853009F0B4C164C02B
:1016E000B601882777FD8095982F0E94A026AB0130
:1016F000BC01CE0101960E942E047B018C01B50134
:10170000882777FD8095982F46C0B601882777FDFA
:101710008095982F0E94A026AB01BC01CE010196B6
:101720000E9452047B018C01B501882777FD8095CA
:10173000982F4EC0B601882777FD8095982F0E947C
:10174000A026AB01BC01CE0101960E9489047B0159
:101750008C01B501882777FD8095982F0E94A026DF
:10176000AB01BC01CE0101960E94890444C1B401C1
:10177000882777FD8095982F0E94A026AB01BC0199
:10178000CE0101960E942E047B018C01B1018827B5
:1017900077FD8095982F0E94A026AB01BC01CE0159
:1017A00001960E942E0427C1B401882777FD8095F9
:1017B000982F0E94A026AB01BC01CE0101960E9489
:1017C00052047B018C01B101882777FD8095982F09
:1017D0000E94A026AB01BC01CE0101960E945204DA
:1017E0000AC1809109068330C9F1843030F4813018
:1017F00059F0823009F027C11CC0843009F44BC075
:10180000853009F020C164C0B601882777FD809536
:10181000982F0E94A026AB01BC01CE010B960E941E
:1018200043057B018C01B501882777FD8095982FB2
:1018300046C0B601882777FD8095982F0E94A02684
:10184000AB01BC01CE010B960E946C057B018C01A3
:10185000B501882777FD8095982F4EC0B60188275F
:1018600077FD8095982F0E94A026AB01BC01CE0188
:101870000B960E9403057B018C01B501882777FD3B
:101880008095982F0E94A026AB01BC01CE010B963B
:101890000E940305B0C0B401882777FD8095982F7A
:1018A0000E94A026AB01BC01CE010B960E9443050D
:1018B0007B018C01B101882777FD8095982F0E94CC
:1018C000A026AB01BC01CE010B960E94430593C03C
:1018D000B401882777FD8095982F0E94A026AB0140
:1018E000BC01CE010B960E946C057B018C01B101FD
:1018F000882777FD8095982F0E94A026AB01BC0118
:10190000CE010B960E946C0576C08091090683304B
:10191000C9F1843030F4813059F0823009F093C03D
:101920001CC0843009F44BC0853009F08CC06EC0F7
:10193000B601882777FD8095982F0E94A026AB01DD
:10194000BC01CE0145960E943E037B018C01B5018E
:10195000882777FD8095982F46C0B601882777FDA8
:101960008095982F0E94A026AB01BC01CE01459620
:101970000E9466037B018C01B501882777FD809565
:10198000982F58C0B601882777FD8095982F0E9420
:10199000A026AB01BC01CE0145960E949A037B01B3
:1019A0008C01B501882777FD8095982F0E94A0268D
:1019B000AB01BC01CE0145960E949A031CC0B40144
:1019C000882777FD8095982F0E94A026AB01BC0147
:1019D000CE0145960E943E037B018C01B101882710
:1019E00077FD8095982F0E94A026AB01BC01CE0107
:1019F00045960E943E039B01AC01C801B7010E94BD
:101A000099250E946D267B018C0123C0B401882793
:101A100077FD8095982F0E94A026AB01BC01CE01D6
:101A200045960E9466037B018C01B101882777FDF2
:101A30008095982F0E94A026AB01BC01CE0145964F
:101A40000E946603D8CF2A96ECACFDAC0EAD1FAD5C
:101A50002A978091F805813011F40E94C90561969A
:101A6000BFAD6197B23040F010950095F094E094CE
:101A7000E11CF11C011D111D8091DA05823041F439
:101A800010950095F094E094E11CF11C011D111DCE
:101A9000C7016FE00E9435098091F805813011F48B
:101AA0000E9490050E94AA06882321F422961FAE68
:101AB00022970AC022962FAD22972F5F22962FAF32
:101AC0002297233008F03AC20E944B232B013C019D
:101AD00026968CAD9DADAEADBFAD2697481A590A7E
:101AE0006A0A7B0A80910C06833009F4A7C084300F
:101AF00009F445C1823009F0EEC180910F068330B0
:101B000009F449C0843030F4813059F0823009F052
:101B1000E2C124C0843009F45BC0853009F0DBC128
:101B200072C0B601882777FD8095982F0E94A02665
:101B3000AB01BC01CE014F960E942E047B018C01AB
:101B4000B501882777FD8095982F0E94A026AB01CC
:101B5000BC01CE014F960E942E045EC1B6018827BB
:101B600077FD8095982F0E94A026AB01BC01CE0185
:101B70004F960E9452047B018C01B501882777FDA6
:101B80008095982F0E94A026AB01BC01CE014F96F4
:101B90000E94520441C1B601882777FD8095982F95
:101BA0000E94A026AB01BC01CE014F960E94890481
:101BB0007B018C01B501882777FD8095982F0E94C5
:101BC000A026AB01BC01CE014F960E94890424C11E
:101BD000B401882777FD8095982F0E94A026AB013D
:101BE000BC01CE014F960E942E04B101882777FDDB
:101BF0008095982F0E94A026AB01BC01CE010196D2
:101C00000E942E0468C1B401882777FD8095982F23
:101C10000E94A026AB01BC01CE014F960E94520447
:101C2000B101882777FD8095982F0E94A026AB01EF
:101C3000BC01CE0101960E9452044DC180910F0655
:101C4000833009F449C0843030F4813059F0823057
:101C500009F041C124C0843009F45BC0853009F02B
:101C60003AC172C0B601882777FD8095982F0E94EF
:101C7000A026AB01BC01CE0189960E9443057B01E1
:101C80008C01B501882777FD8095982F0E94A026AA
:101C9000AB01BC01CE0189960E944305BDC0B601CF
:101CA000882777FD8095982F0E94A026AB01BC0164
:101CB000CE0189960E946C057B018C01B5018827B5
:101CC00077FD8095982F0E94A026AB01BC01CE0124
:101CD00089960E946C05A0C0B601882777FD809583
:101CE000982F0E94A026AB01BC01CE0189960E94CC
:101CF00003057B018C01B501882777FD8095982F1E
:101D00000E94A026AB01BC01CE0189960E9403056A
:101D100083C0B401882777FD8095982F0E94A02664
:101D2000AB01BC01CE0189960E944305B101882711
:101D300077FD8095982F0E94A026AB01BC01CE01B3
:101D400089960E944305C7C0B401882777FD809516
:101D5000982F0E94A026AB01BC01CE0189960E945B
:101D60006C05B101882777FD8095982F0E94A026E9
:101D7000AB01BC01CE0189960E946C05ACC080917C
:101D80000F06833009F455C0843030F4813059F0A7
:101D9000823009F0A0C024C0843009F467C08530C7
:101DA00009F099C07EC0B601882777FD8095982FED
:101DB0000E94A026AB01BC01CE01C3960E943E0347
:101DC0007B018C01B501882777FD8095982F0E94B3
:101DD000A026AB01BC01CE01C3960E943E031CC0ED
:101DE000B601882777FD8095982F0E94A026AB0129
:101DF000BC01CE01C3960E9466037B018C01B50134
:101E0000882777FD8095982F0E94A026AB01BC0102
:101E1000CE01C3960E9466039B01AC01C801B701C5
:101E20000E9499250E946D262C967FAF6EAF2C974D
:101E300052C0B601882777FD8095982F0E94A02672
:101E4000AB01BC01CE01C3960E949A037B018C01B9
:101E5000B501882777FD8095982F0E94A026AB01B9
:101E6000BC01CE01C3960E949A03D6CFB401882745
:101E700077FD8095982F0E94A026AB01BC01CE0172
:101E8000C3960E943E03B101882777FD8095982F65
:101E90000E94A026AB01BC01CE01C3960E943E0366
:101EA0001AC0B401882777FD8095982F0E94A0263C
:101EB000AB01BC01CE01C3960E946603B101882725
:101EC00077FD8095982F0E94A026AB01BC01CE0122
:101ED000C3960E9466032C96AEADBFAD2C97BD0194
:101EE000882777FD8095982F46165706680679064D
:101EF00030F464197509860997090E9459230894DA
:101F0000A11CB11C08942108310821968CAD9DAD0F
:101F1000AEADBFAD21970196A11DB11D21968CAF2D
:101F20009DAFAEAFBFAF2197CDACDEAC6396AEAD8B
:101F3000BFAD6397AC15BD050CF08ECB80E896E085
:101F400061E00E94F61D0E94C905CE5ADF4F0FB610
:101F5000F894DEBF0FBECDBFCF91DF911F910F91DF
:101F6000FF90EF90DF90CF90BF90AF909F908F90B9
:101F70007F906F905F904F903F902F900895609169
:101F8000E0057091E1052091FA053091FB05409143
:101F9000FC055091FD05809112060E94020A81E025
:101FA0008093DB0581EA94E069E073E00E94950587
:101FB0000895EF92FF920F931F936730710509F414
:101FC000DCC268307105C4F46330710509F40BC1DB
:101FD0006430710544F46130710559F16230710566
:101FE00009F0CEC47BC06530710509F4A2C166302A
:101FF00071050CF078C23AC16B30710509F420C448
:102000006C3071054CF46930710509F45CC36A30B9
:1020100071050CF0B9C3FBC26D30710509F4A1C4A0
:102020006D3071050CF46EC46E30710509F0A8C4F2
:102030009FC42091E0053091E105181619064CF473
:102040004B3051051CF481E090E010C08AE090E034
:102050000DC0892B19F480E090E008C04B30510589
:102060001CF48FEF9FEF02C086EF9FEF820F931F4C
:102070004091E4055091E5052091E2053091E3059A
:102080002817390714F49A0104C0841795070CF037
:102090009C013093E1052093E00500D000D000D0F2
:1020A000EDB7FEB731960AE113E0ADB7BEB71296B1
:1020B0001C930E93119780E092E093838283358383
:1020C00024830E949C00EDB7FEB736960FB6F894B5
:1020D000FEBF0FBEEDBF82EA93E012C4E090FA05A6
:1020E000F090FB050091FC051091FD0518161906EE
:1020F0004CF44B3051051CF421E030E010C02AE0D4
:1021000030E00DC0892B19F420E030E008C04B30DE
:1021100051051CF42FEF3FEF02C026EF3FEF8CE399
:1021200090E0AC01249FC001259F900D349F900D3D
:1021300011249C01442737FD4095542F2E0D3F1D3F
:10214000401F511F8091FE059091FF05E09102060E
:10215000F0910306E217F30714F4FC0104C02817FA
:1021600039070CF0F901BF01882777FD8095982F7A
:102170006093FA057093FB058093FC059093FD0531
:10218000ADB7BEB718970FB6F894BEBF0FBEADBFC0
:102190000DB71EB70F5F1F4F3AE1E32E33E0F32E6A
:1021A0001296FC92EE92119721E132E0F80133830E
:1021B00022832CE330E040E050E00E94A928D801BF
:1021C00014962D933D934D935C9317970E949C001A
:1021D000EDB7FEB738960FB6F894FEBF0FBEEDBF51
:1021E00083EB93E041C02DB73EB7285030400FB687
:1021F000F8943EBF0FBE2DBF0DB71EB70F5F1F4F28
:102200002AE1E22E23E0F22EADB7BEB71296FC9281
:10221000EE92119781E292E0F801938382832091FC
:10222000E0053091E105442737FD4095542F60913A
:10223000FA057091FB058091FC059091FD050E94C7
:10224000A928D80114962D933D934D935C9317972D
:102250000E949C00EDB7FEB738960FB6F894FEBF0B
:102260000FBEEDBF84EC93E0B7017FC36091E6053C
:102270007091E705181619064CF44B3051051CF403
:1022800021E030E010C02AE030E00DC0892B19F4C5
:1022900020E030E008C04B3051051CF42FEF3FEF39
:1022A00002C026EF3FEF88EE93E0289FA001299F10
:1022B000500D389F500D1124460F571F8091E8058F
:1022C0009091E9052091EA053091EB052417350737
:1022D00014F49C0104C0481759070CF09A0120938C
:1022E000E6053093E70500D000D000D0EDB7FEB78B
:1022F00031960AE113E0ADB7BEB712961C930E9368
:10230000119782E392E093838283C90168EE73E0C0
:102310000E946028758364830E949C00EDB7FEB71D
:1023200036960FB6F894FEBF0FBEEDBF86EE93E073
:10233000E7C2E090F405F090F5050091F6051091E4
:10234000F705FCE3EF16F10401051105F8F4181682
:1023500019064CF44B3051051CF421E030E010C05C
:102360002AE030E00DC0892B19F420E030E008C0ED
:102370004B3051051CF42FEF3FEF02C026EF3FEF2B
:10238000C901AA2797FDA095BA2F27C018161906CC
:102390004CF44B3051051CF421E030E010C02AE031
:1023A00030E00DC0892B19F420E030E008C04B303C
:1023B00051051CF42FEF3FEF02C026EF3FEF8CE3F7
:1023C00090E0AC01249FC001259F900D349F900D9B
:1023D0001124AA2797FDA095BA2F8E0D9F1DA01F2F
:1023E000B11F8093F4059093F505A093F605B09383
:1023F000F7052091F4053091F5054091EC055091D9
:10240000ED058091F0059091F1058217930714F482
:10241000CA0104C0241735070CF0C9019C014427E8
:1024200037FD4095542F2093F4053093F5054093E4
:10243000F6055093F7058AE193E02C333105410509
:102440005105D8F46DB77EB7685070400FB6F89458
:102450007EBF0FBE6DBFEDB7FEB73196ADB7BEB74D
:1024600012969C938E93119782E492E093838283D9
:10247000248335834683578327C06DB77EB7685062
:1024800070400FB6F8947EBF0FBE6DBF0DB71EB77C
:102490000F5F1F4FADB7BEB712969C938E931197E7
:1024A00080E592E0F80193838283CA01B9012CE3AD
:1024B00030E040E050E00E948728D80114962D9328
:1024C0003D934D935C9317970E949C00EDB7FEB728
:1024D00038960FB6F894FEBF0FBEEDBF85ED93E0C2
:1024E0006AE173E042C22091F805181619061CF43F
:1024F00081E090E007C0892B19F08FEF9FEF02C0B9
:1025000080E090E0280F822F90E0833091051CF04E
:1025100081E090E004C0009711F482E090E0282F61
:102520008093F805813019F0823031F403C02DE634
:1025300031E002C029E631E000D000D000D0EDB794
:10254000FEB731960AE113E0ADB7BEB712961C9301
:102550000E9311978EE592E09383828335832483D3
:102560000E949C00EDB7FEB736960FB6F894FEBFFA
:102570000FBEEDBF87EF93E0C3C12091F905181698
:1025800019061CF481E090E007C0892B19F08FEF49
:102590009FEF02C080E090E0280F822F90E0833010
:1025A00091051CF081E090E004C0009711F482E0F6
:1025B00090E0282F8093F905813019F0823031F4B2
:1025C00003C02DE631E002C029E631E000D000D0A2
:1025D00000D0EDB7FEB731960AE113E0ADB7BEB754
:1025E00012961C930E9311978EE592E0938382834B
:1025F000358324830E949C00EDB7FEB736960FB654
:10260000F894FEBF0FBEEDBF88E094E079C1209141
:102610000606181619061CF481E090E007C0892B05
:1026200019F08FEF9FEF02C080E090E0281B30E0B0
:1026300080910706482F50E08091080690E08217AD
:10264000930714F4CA0104C0241735070CF0C9011C
:10265000282F80930606823069F0833018F4813089
:1026600089F405C0833049F0843061F409C02EE15B
:1026700031E008C020E031E005C02AE031E002C0CE
:1026800024E131E000D000D000D0EDB7FEB73196A4
:102690000AE113E0ADB7BEB712961C930E931197E3
:1026A0008EE692E093838283358324830E949C008C
:1026B000EDB7FEB736960FB6F894FEBF0FBEEDBF6E
:1026C00089E194E01DC120910906181619061CF431
:1026D00081E090E007C0892B19F08FEF9FEF02C0D7
:1026E00080E090E0281B30E080910A06482F50E0FF
:1026F00080910B0690E08217930714F4CA0104C07E
:10270000241735070CF0C901282F80930906833060
:1027100091F0843028F4813041F08230A1F408C077
:10272000843061F0853079F40CC02CE531E00BC0C9
:1027300028E231E008C025E331E005C022E431E0C1
:1027400002C02FE431E000D000D000D0EDB7FEB7DA
:1027500031960AE113E0ADB7BEB712961C930E9303
:10276000119788E792E093838283358324830E94C4
:102770009C00EDB7FEB736960FB6F894FEBF0FBEBD
:10278000EDBF8AE294E0BCC020910C061816190631
:102790001CF481E090E007C0892B19F08FEF9FEFC8
:1027A00002C080E090E0281B30E080910D06482FA9
:1027B00050E080910E0690E08217930714F4CA014E
:1027C00004C0241735070CF0C901282F80930C068C
:1027D000823069F0833018F4813089F405C0833089
:1027E00049F0843061F409C02EE131E008C020E0F6
:1027F00031E005C02AE031E002C024E131E000D040
:1028000000D000D0EDB7FEB731960AE113E0ADB7C6
:10281000BEB712961C930E9311978EE692E09383A7
:102820008283358324830E949C00EDB7FEB73696E1
:102830000FB6F894FEBF0FBEEDBF8BE394E060C00F
:1028400020910F06181619061CF481E090E007C0CD
:10285000892B19F08FEF9FEF02C080E090E0281BDA
:1028600030E080911006482F50E08091110690E0F2
:102870008217930714F4CA0104C0241735070CF01B
:10288000C901282F80930F06833091F0843028F4FB
:10289000813041F08230A1F408C0843061F085308D
:1028A00079F40CC02CE531E00BC028E231E008C01F
:1028B00025E331E005C022E431E002C02FE431E03D
:1028C00000D000D000D0EDB7FEB731960AE113E09A
:1028D000ADB7BEB712961C930E93119788E792E09E
:1028E00093838283358324830E949C00EDB7FEB7D7
:1028F00036960FB6F894FEBF0FBEEDBF8CE494E0A1
:10290000B80133C040911206181619061CF421E0D4
:1029100030E007C0892B19F02FEF3FEF02C020E015
:1029200030E0420F242F30E0233031051CF021E04D
:1029300030E005C02115310511F422E030E020938C
:102940001206213049F480E896E00E94EE1D8FE7E0
:1029500092E06EE674E009C08DE594E06FE774E004
:1029600004C080E992E061EA72E00E94950508C027
:1029700082EB92E063EC72E00E9495050E94BF0F2B
:102980001F910F91FF90EF900895CF93DF93609187
:10299000DB0580E090E070E040E050E00E94D90F5D
:1029A00040C00E944306882329F40E943B068823E6
:1029B00009F45EC066E970E080E090E00E9459236F
:1029C00021960E943B06882339F08091DB05282F51
:1029D00030E0215030400BC00E944306882309F4A8
:1029E0003FC08091DB05282F30E02F5F3F4F809163
:1029F000DD05482F50E08091DC05682F70E06217FC
:102A0000730714F4BA0104C0241735070CF0B90198
:102A10006093DB0580E090E01FC00E9426068823BB
:102A200019F4C0E0D0E01CC066E970E080E090E0FE
:102A30000E94592321960E942606882329F060913E
:102A4000DB058FEF9FEF08C00E942E06882341F020
:102A50006091DB0581E090E070E0AE010E94D90F4B
:102A600088EE93E00E945707882309F09ACF05C0AB
:102A70000E942E068823C1F6D0CFDF91CF91089512
:102A80008F929F92AF92BF92CF92DF92EF92FF927E
:102A90000F931F93CF93DF93E62E4C0197FF04C053
:102AA00088249924881A990A60E0181619060CF4EB
:102AB00061E082E00E9458246E2D70E080E090E09A
:102AC0000E949E2620E030E048EC52E40E94052659
:102AD0009B01AC0160E070E080E89FE30E94052666
:102AE00020E030E04CE852E40E94C8275B016C0112
:102AF000C0E0D0E015C083E061E00E945824C60128
:102B0000B5010E9472267B018C01CB010E94B22389
:102B100083E060E00E945824C7010E94B2232196FE
:102B2000C815D90544F3DF91CF911F910F91FF9004
:102B3000EF90DF90CF90BF90AF909F908F900895CF
:102B40002F923F924F925F926F927F928F929F92BD
:102B5000AF92BF92CF92DF92EF92FF920F931F93AB
:102B6000DF93CF93CDB7DEB7A8970FB6F894DEBF4B
:102B70000FBECDBF8CA31B01E0902406FF248091E3
:102B80002506E81AF1082E010894411C511CC201C7
:102B90000E94140480E596E09A838983B101882716
:102BA00077FD8095982F0E94A0263B014C01C20121
:102BB000B401A3010E9422040027F7FC0095102F06
:102BC000C801B7010E94A0266B017C01C201B701B8
:102BD000A6010E9428045BE0A52EB12CAC0EBD1E00
:102BE000C5010E9414048AE596E09C878B87C50185
:102BF000B401A3010E942204C501B701A6010E94ED
:102C000028048E010B5E1F4FC8010E9414048CE340
:102C100096E09E8B8D8BC801B401A3010E94220413
:102C2000C801B701A6010E94280441018091DE0578
:102C30009091DF05B1010E946028CB01A0E0B0E0D7
:102C400088A399A3AAA3BBA3E09024061F8E41E00A
:102C5000C42ED12C742C452CFA2CAB2C602E012FB9
:102C6000B095A095909581959F4FAF4FBF4F8DA385
:102C70009EA3AFA3B8A71DC180912806823099F00A
:102C8000833020F4813009F0E6C007C0833009F4B6
:102C900052C0843009F0DFC096C0E09024068091D5
:102CA0002506E81AD8C080912B068330D1F08430F5
:102CB00030F4813051F0823009F0CDC00CC0843046
:102CC000F1F0853009F0C7C028C0B601882777FD2C
:102CD0008095982F19C0B601882777FD8095982F89
:102CE00021C0B601882777FD8095982F0E94A026E5
:102CF000AB01BC01872D942D0E948904A9C0B401A9
:102D0000882777FD8095982F0E94A026AB01BC01F3
:102D1000872D942D0E942E049BC0B401882777FD37
:102D20008095982F0E94A026AB01BC01872D942D81
:102D30000E9452048DC080912B068330D1F08430E4
:102D400030F4813051F0823009F085C00CC08430FD
:102D5000F1F0853009F07FC028C0B601882777FDE3
:102D60008095982F19C0B601882777FD8095982FF8
:102D700021C0B601882777FD8095982F0E94A02654
:102D8000AB01BC018F2D9A2D0E94030561C0B401D7
:102D9000882777FD8095982F0E94A026AB01BC0163
:102DA0008F2D9A2D0E94430553C0B401882777FDCB
:102DB0008095982F0E94A026AB01BC018F2D9A2DE3
:102DC0000E946C0545C080912B068330C1F0843091
:102DD00028F4813041F08230F1F50BC08430E9F005
:102DE0008530C9F528C0B601882777FD8095982FD2
:102DF00019C0B601882777FD8095982F21C0B601AC
:102E0000882777FD8095982F0E94A026AB01BC01F2
:102E1000862D902F0E949A031BC0B401882777FD4E
:102E20008095982F0E94A026AB01BC01862D902F83
:102E30000E943E030DC0B401882777FD8095982F2E
:102E40000E94A026AB01BC01862D902F0E94660334
:102E50000E947226E62E9CA1923028F428A139A166
:102E60004AA15BA104C02DA13EA14FA158A580910C
:102E7000DA05823039F450954095309521953F4FD1
:102E80004F4F5F4F609125066E0DC9010E9440159E
:102E90000E94AA06882311F41F8E05C0AF8DAF5F74
:102EA000AF8FA53050F40894C11CD11C0894810840
:102EB00091082C143D040CF0DFCE0E94C905A896A1
:102EC0000FB6F894DEBF0FBECDBFCF91DF911F913B
:102ED0000F91FF90EF90DF90CF90BF90AF909F90B9
:102EE0008F907F906F905F904F903F902F900895BC
:102EF000609116067091170680912E060E94A0150B
:102F000081E08093130688EC95E069E073E00E940D
:102F100095050895EF92FF920F931F93643071050A
:102F200009F4A4C1653071056CF46230710509F4CF
:102F300067C0633071050CF03DC16130710509F067
:102F400035C20DC06630710509F421C266307105C5
:102F50000CF4EEC16730710509F028C21FC2209140
:102F60002406181619064CF44B3051051CF481E068
:102F700090E010C08AE090E00DC0892B19F480E049
:102F800090E008C04B3051051CF48FEF9FEF02C05A
:102F900086EF9FEF280F30E080912706682F70E0C2
:102FA00080912606482F50E04217530714F4AB01D6
:102FB00004C0261737070CF0A9014093240600D05F
:102FC00000D000D0EDB7FEB731960AE113E0ADB7FF
:102FD000BEB712961C930E93119784ED92E09383E3
:102FE0008283448315820E949C00EDB7FEB736961B
:102FF0000FB6F894FEBF0FBEEDBF85E995E096C110
:10300000E0902006F0902106009122061091230600
:10301000FCE3EF16F10401051105F8F41816190682
:103020004CF44B3051051CF421E030E010C02AE094
:1030300030E00DC0892B19F420E030E008C04B309F
:1030400051051CF42FEF3FEF02C026EF3FEFC901FF
:10305000AA2797FDA095BA2F27C0181619064CF479
:103060004B3051051CF421E030E010C02AE030E084
:103070000DC0892B19F420E030E008C04B30510519
:103080001CF42FEF3FEF02C026EF3FEF8CE390E000
:10309000AC01249FC001259F900D349F900D1124F9
:1030A000AA2797FDA095BA2F8E0D9F1DA01FB11FB7
:1030B0008093200690932106A0932206B0932306C6
:1030C0002091200630912106409118065091190652
:1030D00080911C0690911D068217930714F4CA0173
:1030E00004C0241735070CF0C9019C01442737FDA3
:1030F0004095542F209320063093210640932206BA
:10310000509323068AE193E02C33310541055105A4
:10311000D8F46DB77EB7685070400FB6F8947EBF94
:103120000FBE6DBFEDB7FEB73196ADB7BEB7129605
:103130009C938E93119782E492E0938382832483FD
:1031400035834683578327C06DB77EB7685070407C
:103150000FB6F8947EBF0FBE6DBF0DB71EB70F5FE1
:103160001F4FADB7BEB712969C938E93119780E513
:1031700092E0F80193838283CA01B9012CE330E025
:1031800040E050E00E948728D80114962D933D938B
:103190004D935C9317970E949C00EDB7FEB738964D
:1031A0000FB6F894FEBF0FBEEDBF85ED93E06AE168
:1031B00073E0F1C020912806181619061CF481E06E
:1031C00090E007C0892B19F08FEF9FEF02C080E0DD
:1031D00090E0281B30E080912906482F50E0809134
:1031E0002A0690E08217930714F4CA0104C024173A
:1031F00035070CF0C901282F80932806823069F02A
:10320000833018F4813089F405C0833049F084306C
:1032100061F409C02EE131E008C020E031E005C0D2
:103220002AE031E002C024E131E000D000D000D03B
:10323000EDB7FEB731960AE113E0ADB7BEB712960F
:103240001C930E9311978EE692E0938382833583CD
:1032500024830E949C00EDB7FEB736960FB6F89413
:10326000FEBF0FBEEDBF86EA95E060C020912B0641
:10327000181619061CF481E090E007C0892B19F09C
:103280008FEF9FEF02C080E090E0281B30E080913C
:103290002C06482F50E080912D0690E0821793076E
:1032A00014F4CA0104C0241735070CF0C901282FF3
:1032B00080932B06833091F0843028F4813041F0E4
:1032C0008230A1F408C0843061F0853079F40CC0FC
:1032D0002CE531E00BC028E231E008C025E331E005
:1032E00005C022E431E002C02FE431E000D000D07C
:1032F00000D0EDB7FEB731960AE113E0ADB7BEB727
:1033000012961C930E93119788E792E09383828321
:10331000358324830E949C00EDB7FEB736960FB626
:10332000F894FEBF0FBEEDBF87EB95E0B80133C048
:1033300040912E06181619061CF421E030E007C053
:10334000892B19F02FEF3FEF02C020E030E0420F51
:10335000242F30E0233031051CF021E030E005C09F
:103360002115310511F422E030E020932E062130A2
:1033700049F480E896E00E94EE1D8FE792E06EE649
:1033800074E009C08DE594E06FE774E004C080E963
:1033900092E067EE72E00E94950508C088EF92E027
:1033A00063EC72E00E9495050E9478171F910F91BF
:1033B000FF90EF900895CF93DF936091130680E024
:1033C00090E070E040E050E00E948A1740C00E9408
:1033D0004306882329F40E943B06882309F45EC033
:1033E00066E970E080E090E00E94592321960E94F7
:1033F0003B06882339F080911306282F30E02150B6
:1034000030400BC00E944306882309F43FC08091DE
:103410001306282F30E02F5F3F4F80911506482F6D
:1034200050E080911406682F70E06217730714F45F
:10343000BA0104C0241735070CF0B90160931306D4
:1034400080E090E01FC00E942606882319F4C0E0A7
:10345000D0E01CC066E970E080E090E00E94592353
:1034600021960E942606882329F0609113068FEF8B
:103470009FEF08C00E942E06882341F0609113063A
:1034800081E090E070E0AE010E948A1788EE93E040
:103490000E945707882309F09ACF05C00E942E0684
:1034A0008823C1F6D0CFDF91CF910895CF92DF92DC
:1034B000EF92FF920F931F93CF93DF9383EC94E0EF
:1034C00064ED74E00E9495058091DA05823019F46C
:1034D00002E010E0ADC001E010E0AAC080E00E9470
:1034E000F723EC0181E00E94F7238F5F9340C1F541
:1034F00064EF71E080E090E00E94592381E00E9437
:10350000F7238F5F934061F50F5F1F4FC8018170F4
:10351000907000FF11C083EC94E066EF74E00E94AD
:10352000950568EE73E080E090E00E94592383ECFB
:1035300094E064ED74E012C0892B91F483EC94E084
:1035400066EF74E00E94950568EE73E080E090E01D
:103550000E94592383EC94E065EE74E00E94950587
:1035600082E0CC30D80744F1C8018170907000FF30
:1035700010C086E00E94AC24019709F460C0CB50D3
:10358000D240CE9DC001CF9D900DDE9D900D1124A7
:1035900046C0892B09F053C084E00E94AC240197F7
:1035A00009F44DC0CB50D240CE9DC001CF9D900DAF
:1035B000DE9D900D11241AC021E0C43FD2070CF00B
:1035C0003EC0C8018170907000FF17C084E00E9467
:1035D000AC240197A1F1C6018C1B9D0B9C012E9D73
:1035E000C0012F9D900D3E9D900D112464EF71E060
:1035F0000E9474288FEF9FEF18C0892B01F586E099
:103600000E94AC240197D9F0C6018C1B9D0B9C0134
:103610002E9DC0012F9D900D3E9D900D112464EFB5
:1036200071E00E94742881E090E00E94401507C07C
:10363000F4EFCF2EF1E0DF2EE9E1EE2EF12C88EE53
:1036400093E00E945707882309F048CFDF91CF917C
:103650001F910F91FF90EF90DF90CF9008958330EE
:10366000910579F1843091053CF48130910559F050
:10367000029709F053C016C08430910589F105976F
:1036800009F04CC03CC081E993E069E073E00E941E
:10369000950564EC79E080E090E00E9459230E9457
:1036A000C514089584E895E069E073E00E949505EB
:1036B00064EC79E080E090E00E9459230E94DB19DD
:1036C000089582EB94E069E073E00E94950564EC54
:1036D00079E080E090E00E9459230E94561A0895F4
:1036E00087E095E069E073E00E94950564EC79E07D
:1036F00080E090E00E9459230E945708089589E2D3
:1037000095E069E073E00E94950564EC79E080E063
:1037100090E00E9459230E949D07089582E695E05B
:1037200063E775E00E94950564EC79E080E090E045
:103730000E9459230E949D1B089559C082E390E086
:103740000E944C0690E08330910531F4809131065F
:1037500090913206019707C0049749F48091310691
:103760009091320601969093320680933106209113
:1037700031063091320640913306509134068091E3
:103780003506909136068217930714F4CA0104C0D7
:10379000241735070CF0C901909332068093310647
:1037A00083309105A9F08430910534F4813091057E
:1037B00061F00297B1F406C08430910561F005977D
:1037C00081F40CC06DE473E00EC06CE373E00BC0D9
:1037D0006EE573E008C06FE673E005C060E873E073
:1037E00002C062E675E08BE293E00E94950562E319
:1037F00070E080E090E042E050E00E94FA0688230A
:1038000009F09CCF80913106909132060E942F1BC7
:1038100008950E949D1B0895F999FECF72BD61BD68
:10382000F89A80B50895F999FECF1FBA72BD61BDAF
:1038300040BD0FB6F894FA9AF99A0FBE0895FC01AC
:103840001382128284E696E091838083618F1786CB
:1038500081E084838FEF858382E0868383E08783A2
:1038600084E0808785E0818786E082870895FC0177
:10387000818D8F3F29F0CF014A960E943A1F08950B
:1038800085898F3F21F4862F642F0E941924089583
:10389000CF93DF93EC01898D8F3F29F0CE014A96BB
:1038A0000E94101F2AC08D898F3F19F1288D413049
:1038B00049F481E090E002C0880F991F6A95E2F711
:1038C000282B09C081E090E002C0880F991F6A95FB
:1038D000E2F780952823288F8F8960E00E94582482
:1038E0008E896D8941E0288D0E94FF248F8961E0D7
:1038F00002C0862F642F0E945824DF91CF91089533
:103900000F931F938C01F801668140E00E94481CD0
:1039100081E090E00E94B223C801F801668141E095
:103920000E94481C81E090E00E94B223C801F80187
:10393000668140E00E94481C84E690E00E94B22329
:103940001F910F910895CF92DF92EF92FF920F9304
:103950001F93CF93DF93F82EE92E282F392FC9011B
:103960008C01C0E0D0E0C62EDD248F2D9E2DF80105
:10397000678141E00E94371CA6010C2E02C05595BC
:1039800047950A94E2F741708F2D9E2DF8016781CB
:103990000E94481C21960F5F1F4FC830D10529F7A0
:1039A0008F2D9E2D0E94801CDF91CF911F910F9132
:1039B000FF90EF90DF90CF900895AF92BF92CF929B
:1039C000DF92EF92FF920F931F93CF93DF937C01CF
:1039D000B62EFC01818D8F3F09F468C08AE1C82EA4
:1039E000D12CCE0CDF1CC6010E940C1F782FF701D2
:1039F00040E050E0AB2DB0E001E010E087819D0198
:103A0000042E02C0359527950A94E2F72170307094
:103A1000082E02C0220F331F0A94E2F7C1E0D0E063
:103A2000580102C0AA0CBB1C8A95E2F7C50180951B
:103A30007823722B4F5F5F4F319644305105F1F67A
:103A40008E01F701068002C0000F111F0A94E2F7F1
:103A500000950723C601602F0E94DE1E81E090E0E2
:103A60000E94B223CE01F701068002C0880F991F81
:103A70000A94E2F7082BC601602F0E94DE1E81E047
:103A800090E00E94B223F701068002C0CC0FDD1F38
:103A90000A94E2F75E01A0940A21C601602F0E94F9
:103AA000DE1E84E690E00E94B22321C08701C0E0C0
:103AB000D0E0C62EDD24C701F801678141E00E94F5
:103AC000371CA6010C2E02C0559547950A94E2F7C3
:103AD0004170C701F80167810E94481C21960F5F61
:103AE0001F4FC430D10539F7C7010E94801CDF91F8
:103AF000CF911F910F91FF90EF90DF90CF90BF90EB
:103B0000AF9008951F93CF93DF93EC01162F6C8134
:103B10000E94481C6D816F3F21F0CE0140E00E9461
:103B2000481C8F8584FF05C0CE01612F0E94A31C15
:103B30000EC0612F70E094E0759567959A95E1F756
:103B4000CE010E94DD1CCE01612F0E94DD1CDF91A1
:103B5000CF911F91089541E00E94821D81E090E085
:103B6000089540E00E94821D0895FC016089862F1F
:103B70008460808B6C60CF010E94B11D0895DF933B
:103B8000CF93CDB7DEB728970FB6F894DEBF0FBE40
:103B9000CDBF9C01FE013196A8E6B6E088E00D900D
:103BA00001928150E1F7F9018389841710F4482FBD
:103BB0004150E42FF0E0EE0FFF1FEC0FFD1F81815D
:103BC000680F6068C9010E94B11D28960FB6F8946D
:103BD000DEBF0FBECDBFCF91DF91089561E00E949F
:103BE000B11D80ED97E00E94B2230895FC01462F9D
:103BF000818D8F3F19F485898F3F21F0CF0167E0D8
:103C00000E94481C0895AF92BF92CF92DF92EF922C
:103C1000FF920F931F93CF93DF93EC01B42EA22E4C
:103C2000698D6F3F71F17AE1E72EF12CE80EF91EF4
:103C3000C7010E94661FC70167E041E00E943A1F6A
:103C4000C70167E041E00E94101F8E0154E0C52EBD
:103C5000D12CCC0EDD1ECE01F801678141E00E941F
:103C6000371C0F5F1F4F0C151D05A9F7C7016C818D
:103C700041E00E943A1FC7016E8141E00E943A1F55
:103C800005C08D898F3F11F080E8888FF1E0FB152A
:103C900018F48F8588608F87BB8A1C8AAA2031F030
:103CA00081E0B81619F48F8584608F8780E593ECE6
:103CB0000E94B223CE016C8140E00E94481CCE01DC
:103CC0006E8140E00E94481C6D816F3F21F0CE0163
:103CD00040E00E94481C6F8564FD1DC0CE0163E07A
:103CE0000E94DD1C84E991E10E94B223CE0163E0D1
:103CF0000E94DD1C84E991E10E94B223CE0163E0C1
:103D00000E94DD1C86E990E00E94B223CE0162E0B1
:103D10000E94DD1C16C06062CE010E94B11D84E9C4
:103D200091E10E94B2236F856062CE010E94B11DB5
:103D300086E990E00E94B2236F856062CE010E9406
:103D4000B11D6F856062CE010E94B11D84E0888B39
:103D5000CE010E94B51DCE010E94EE1D82E0898B2E
:103D6000CE0166E00E94B11DDF91CF911F910F91AE
:103D7000FF90EF90DF90CF90BF90AF900895EF92BB
:103D8000FF920F931F93FC01F62EE42E0AEE16E02D
:103D900060816062C80170E00E94B61FC8016F2D8B
:103DA0000E943820C8016E2D0E943820C8010E9450
:103DB0007B201F910F91FF90EF900895462F69E0AF
:103DC0000E94BF1E0895DF92EF92FF920F931F9300
:103DD0007C01D62E0AEE16E0FC0160816062C8010B
:103DE00070E00E94B61FC8016D2D0E943820C801E6
:103DF0000E947B20F70160816062C80170E041E0B1
:103E000050E00E948C20C8010E94C91F1F910F9191
:103E1000FF90EF90DF90089569E00E94E31E0895FF
:103E20000F931F93CF93DF93EC01162F042F68306D
:103E3000E0F40E940C1F282F013051F481E090E043
:103E400002C0880F991F1A95E2F7622F682B0AC0EB
:103E500081E090E002C0880F991F1A95E2F7682F61
:103E600060956223CE010E94DE1EDF91CF911F91EB
:103E70000F9108950F931F93CF93DF93EC01162FAB
:103E8000042F6830F0F460E00E94E31E282F002326
:103E900051F481E090E002C0880F991F1A95E2F773
:103EA000422F482B0AC081E090E002C0880F991F82
:103EB0001A95E2F7482F40954223CE0160E00E9418
:103EC000BF1EDF91CF911F910F910895CF93DF9384
:103ED000EC01683008F067E068838AEE96E00E94A3
:103EE0009020688160628AEE96E070E00E94B61FC2
:103EF0008AEE96E060E00E9438208AEE96E06FEF4E
:103F00000E9438208AEE96E060E00E9438208AEE17
:103F100096E060E00E9438208AEE96E060E00E9421
:103F200038208AEE96E060E00E9438208AEE96E023
:103F300060E00E9438208AEE96E060E00E9438201F
:103F40008AEE96E060E00E9438208AEE96E060E01B
:103F50000E9438208AEE96E060E00E9438208AEEC7
:103F600096E00E947B20DF91CF91089581E08093BD
:103F7000E9066093C6061092E7061092E8060895D7
:103F80002091C50630E08091C406281B3109C90183
:103F900008954091C4068091C506481718F02FEF88
:103FA0003FEF0AC0E42FF0E0EC55F94F8081282F55
:103FB00030E04F5F4093C406C9010895E091C40604
:103FC0008091C506E81718F0EFEFFFEF06C0F0E0AC
:103FD000EC55F94F8081E82FF0E0CF010895089566
:103FE0001092ED061092EC0688EE93E0A0E0B0E0AF
:103FF0008093EE069093EF06A093F006B093F1063F
:1040000084E796E09093EB068093EA060895CF92BA
:10401000DF92EF92FF920F931F93CF93DF937C0178
:104020006B018A018091E9068823A1F0C0E0D0E00D
:104030000DC0D701ED91FC91D601AC0FBD1F0190D1
:10404000F081E02DC7016C9109952196C017D10729
:1040500080F304C0CB01642F0E943921C801DF9195
:10406000CF911F910F91FF90EF90DF90CF90089527
:10407000DF93CF930F92CDB7DEB7FC0169838091B8
:10408000E9068823C9F08091E806803238F081E0A3
:1040900090E09383828320E030E015C08091E706B2
:1040A000E82FF0E0E953F94F998190838F5F809377
:1040B000E7068093E80605C0CE01019661E00E9404
:1040C000392121E030E0C9010F90CF91DF910895AF
:1040D0000F93062F8091C60667EC76E04091E806C4
:1040E00021E00E94E4201092E7061092E806109268
:1040F000E9060F91089561E00E9468200895413219
:1041000008F040E2862F64EA76E00E949B2010923D
:10411000C4068093C506089521E00E947F2008957B
:104120001092C4061092C5061092E7061092E80697
:104130000E94E5220895382F413210F040E042C03D
:104140008091F6068823E1F791E09093F60620939C
:10415000F8068FEF8093630710921E07415040933B
:104160001F074F5F9093F7068091F706330F832B5D
:104170008093F7068091F906813041F41092F90698
:104180008091F7068093BB0085EC01C085EE80939B
:10419000BC008091F6068130E1F380911E07841700
:1041A00010F440911E0720E030E00AC0FB01E20F4E
:1041B000F31FD901A250B94F8C9180832F5F3F4FDD
:1041C0002417A0F3842F08950F931F93582F122FB5
:1041D000413210F081E04AC08091F6068823E1F771
:1041E00082E08093F6060093F8068FEF80936307D2
:1041F00010921E0740931F07AEEFB6E0FB0102C00E
:1042000081918D938E2F861B8417D0F31092F70621
:104210008091F706550F852B8093F7068091F9065C
:10422000813041F41092F9068091F7068093BB002B
:1042300085EC01C085EE8093BC00112321F08091B4
:10424000F6068230E1F3809163078F3F11F480E03E
:104250000DC080916307803211F482E007C0809125
:104260006307803311F084E001C083E01F910F9158
:104270000895482F613210F081E008958091F6068C
:10428000843011F082E0089560934107A0E2B7E026
:10429000842F9C01F90102C081918D938E2F841B84
:1042A0008617D0F380E008951F920F920FB60F92F9
:1042B00011242F933F934F935F936F937F938F932B
:1042C0009F93AF93BF93EF93FF938091B90090E0DA
:1042D000887F90708036910509F4F2C0813691058F
:1042E000CCF58832910509F47BC089329105B4F48C
:1042F0008031910509F46FC0813191053CF400973C
:1043000009F447C1089709F04FC165C0883191058C
:1043100009F466C0809709F047C182C080349105D6
:1043200009F4A4C08134910544F48033910509F463
:1043300082C0C89709F038C189C08035910509F459
:1043400089C08835910509F496C08834910509F033
:104350002BC1AEC08839910509F413C18939910583
:10436000ECF48837910509F4ABC0893791054CF41A
:104370008836910509F4A4C08037910509F014C16D
:104380009FC08838910509F4FCC08039910509F473
:104390009DC08038910509F007C198C0803B910508
:1043A00009F4C6C0813B91054CF4803A910509F4AB
:1043B0009FC0883A910509F0F7C0BAC0803C9105CA
:1043C00009F4E3C0883C910509F4DFC0883B9105FE
:1043D00009F0EAC0C2C08091F7068093BB00CFC04D
:1043E00090911E0780911F07981768F490911E07FF
:1043F000E92FF0E0E250F94F80818093BB009F5F8E
:1044000090931E07BCC08091F806882309F44BC026
:1044100085ED8093BC008091BC0084FDFCCFC2C0C0
:1044200080E28093630785ED8093BC008091BC009F
:1044300084FDFCCFB7C080E38093630785ED809354
:10444000BC008091BC0084FDFCCFACC088E38093AD
:1044500063079BC080911E079091BB00E82FF0E09E
:10446000E250F94F90838F5F80931E0790911E0753
:1044700080911F0782C080911E079091BB00E82F9A
:10448000F0E0E250F94F90838F5F80931E07809198
:10449000F806882341F085ED8093BC008091BC0034
:1044A00084FDFCCF7FC081E08093F90684EA6EC072
:1044B00085ED8093BC008091BC0084FDFCCF72C070
:1044C00083E08093F6061092620759C080916207DC
:1044D000803208F056C0809162079091BB00E82FAF
:1044E000F0E0EE5BF84F90838F5F8093620747C0E8
:1044F00080916207803230F4E0916207F0E0EE5B79
:10450000F84F108285ED8093BC008091BC0084FD43
:10451000FCCF1092F60660916207E091FC06F091E4
:10452000FD0682E497E070E00995109262072DC0C5
:1045300084E08093F6061092400710924107E091C4
:10454000FA06F091FB06099580914107882329F42A
:1045500081E0809341071092200790914007E92F56
:10456000F0E0E05EF84F80818093BB009F5F909306
:1045700040079091400780914107981710F485EC0F
:1045800001C085E88093BC000FC085EC8093BC001F
:1045900009C01092630785ED8093BC008091BC0038
:1045A00084FDFCCF1092F606FF91EF91BF91AF9181
:1045B0009F918F917F916F915F914F913F912F913B
:1045C0000F900FBE0F901F9018951092F60681E085
:1045D0008093F8061092F90682E161E00E94582467
:1045E00083E161E00E945824E9EBF0E080818E7F56
:1045F000808380818D7F808388E48093B80085E408
:104600008093BC0008951F920F920FB60F92112451
:104610002F933F938F939F93AF93BF93809168079E
:1046200090916907A0916A07B0916B0730916C0770
:104630000196A11DB11D232F2D5F2D3720F02D5781
:104640000196A11DB11D20936C078093680790937C
:104650006907A0936A07B0936B07809164079091F4
:104660006507A0916607B09167070196A11DB11D6E
:104670008093640790936507A0936607B0936707DC
:10468000BF91AF919F918F913F912F910F900FBE4E
:104690000F901F9018958FB7F8942091680730916C
:1046A000690740916A0750916B078FBFB901CA0132
:1046B00008959B01AC017FB7F894809164079091B5
:1046C0006507A0916607B091670766B5A89B05C00E
:1046D0006F3F19F00196A11DB11D7FBFBA2FA92F01
:1046E000982F8827860F911DA11DB11D62E0880FAC
:1046F000991FAA1FBB1F6A95D1F7BC012DC0FFB738
:10470000F8948091640790916507A0916607B09135
:104710006707E6B5A89B05C0EF3F19F00196A11DFC
:10472000B11DFFBFBA2FA92F982F88278E0F911D7B
:10473000A11DB11DE2E0880F991FAA1FBB1FEA95BA
:10474000D1F7861B970B885E9340C8F2215030400A
:104750004040504068517C4F2115310541055105BD
:1047600071F60895019739F0880F991F880F991FE6
:1047700002970197F1F70895789484B5826084BD1B
:1047800084B5816084BD85B5826085BD85B5816055
:1047900085BDEEE6F0E0808181608083E1E8F0E0B5
:1047A0001082808182608083808181608083E0E8E4
:1047B000F0E0808181608083E1EBF0E080818460C3
:1047C0008083E0EBF0E0808181608083EAE7F0E0C5
:1047D0008081846080838081826080838081816029
:1047E00080838081806880831092C1000895982F13
:1047F0008E3008F09E509770809137068295880F12
:10480000880F807C892B80937C0080917A00806463
:1048100080937A0080917A0086FDFCCF2091780009
:1048200040917900942F80E030E0282B392BC9018A
:104830000895CF93DF93482F50E0CA0188549F4FCB
:10484000FC0134914C555F4FFA018491882369F142
:1048500090E0880F991FFC01EA57FF4FA591B49192
:10486000FC01E057FF4FC591D491662351F42FB757
:10487000F8948C91932F909589238C938881892328
:104880000BC0623061F42FB7F8948C91932F909500
:1048900089238C938881832B88832FBF06C09FB781
:1048A000F8948C91832B8C939FBFDF91CF910895C7
:1048B000482F50E0CA0184539F4FFC012491CA0144
:1048C00088549F4FFC0194914C555F4FFA013491ED
:1048D000332309F440C0222351F1233071F02430F6
:1048E00028F42130A1F0223011F514C02630B1F0A7
:1048F0002730C1F02430D9F404C0809180008F7734
:1049000003C0809180008F7D8093800010C084B5AB
:104910008F7702C084B58F7D84BD09C08091B000BF
:104920008F7703C08091B0008F7D8093B000E32F1C
:10493000F0E0EE0FFF1FE057FF4FA591B4912FB7A6
:10494000F894662321F48C919095892302C08C9170
:10495000892B8C932FBF0895682F70E0CB0184536F
:104960009F4FFC012491CB0188549F4FFC0144913F
:104970006C557F4FFB019491992319F420E030E0AE
:104980003CC0222351F1233071F0243028F421302F
:10499000A1F0223011F514C02630B1F02730C1F05B
:1049A0002430D9F404C0809180008F7703C08091B7
:1049B00080008F7D8093800010C084B58F7702C007
:1049C00084B58F7D84BD09C08091B0008F7703C00E
:1049D0008091B0008F7D8093B000892F90E0880F88
:1049E000991F86569F4FFC01A591B4918C9120E0B0
:1049F00030E0842311F021E030E0C9010895BF9236
:104A0000CF92DF92EF92FF920F931F93CF93DF939A
:104A1000E82EF62EB42EC7E0D0E0022F10E087E09B
:104A2000C82ED12CBB2059F4B6016C1B7D0BC801DC
:104A300002C0959587956A95E2F7BC0107C0B80159
:104A40000C2E02C0759567950A94E2F761708E2D61
:104A50000E9458248F2D61E00E9458248F2D60E021
:104A60000E94582421979FEFCF3FD907D9F6DF91B5
:104A7000CF911F910F91FF90EF90DF90CF90BF905B
:104A80000895CF93DF930E94BC230E94D405C0E019
:104A9000D0E00E94091C2097E1F30E940000F9CFAA
:104AA000CF92DF92EF92FF920F931F93CF93DF93FA
:104AB0007C016B018A01C0E0D0E00FC0D6016D918E
:104AC0006D01D701ED91FC910190F081E02DC701BE
:104AD0000995C80FD91F015010400115110571F734
:104AE000CE01DF91CF911F910F91FF90EF90DF905A
:104AF000CF900895CF93DF93EC016115710519F400
:104B000020E030E00FC0DB010D900020E9F71197A5
:104B1000A61BB70BE881F9810280F381E02DAD017E
:104B200009959C01C901DF91CF9108950E947A25D2
:104B300008955058BB27AA270ED0DFC19FD130F06F
:104B4000A4D120F031F49F3F11F41EF45EC10EF4A5
:104B5000E095E7FB54C1E92FF2D180F3BA17620761
:104B600073078407950718F071F49EF50AC20EF4D6
:104B7000E0950B2EBA2FA02D0B01B90190010C016D
:104B8000CA01A0011124FF27591B99F0593F50F485
:104B9000503E68F11A16F040A22F232F342F4427DD
:104BA000585FF3CF469537952795A795F0405395D5
:104BB000C9F77EF41F16BA0B620B730B840BBAF0A5
:104BC0009150A1F0FF0FBB1F661F771F881FC2F710
:104BD0000EC0BA0F621F731F841F48F48795779524
:104BE0006795B795F7959E3F08F0B3CF9395880FDB
:104BF00008F09927EE0F979587950895DCD008F473
:104C000081E008954AD1E39589C10CD076C13DD1A8
:104C100040F034D130F021F45F3F19F0F0C0511171
:104C2000B1C1F3C08CD198F39923C9F35523B1F3E3
:104C3000951B550BBB27AA2762177307840738F00B
:104C40009F5F5F4F220F331F441FAA1FA9F333D06A
:104C50000E2E3AF0E0E830D091505040E695001C1E
:104C6000CAF729D0FE2F27D0660F771F881FBB1FDA
:104C7000261737074807AB07B0E809F0BB0B802DB4
:104C8000BF01FF2793585F4F2AF09E3F510568F000
:104C9000B6C078C15F3FECF3983EDCF3869577951C
:104CA0006795B795F7959F5FC9F7880F911D969502
:104CB000879597F90895E1E0660F771F881FBB1F5E
:104CC000621773078407BA0720F0621B730B840B0B
:104CD000BA0BEE1F88F7E095089504D06894B111DF
:104CE00051C1089534D188F09F5790F0B92F99277A
:104CF000B751A0F0D1F0660F771F881F991F1AF0E7
:104D0000BA95C9F712C0B13081F03BD1B1E0089536
:104D100038C1672F782F8827B85F39F0B93FCCF3B7
:104D2000869577956795B395D9F73EF490958095DC
:104D3000709561957F4F8F4F9F4F0895E89409C0FC
:104D400097FB3EF490958095709561957F4F8F4FBE
:104D50009F4F9923A9F0F92F96E9BB279395F695D4
:104D6000879577956795B795F111F8CFFAF4BB0F52
:104D700011F460FF1BC06F5F7F4F8F4F9F4F16C0B6
:104D8000882311F096E911C0772321F09EE8872F40
:104D9000762F05C0662371F096E8862F70E060E0FC
:104DA0002AF09A95660F771F881FDAF7880F969575
:104DB000879597F90895990F0008550FAA0BE0E819
:104DC000FEEF16161706E807F907C0F012161306CD
:104DD000E407F50798F0621B730B840B950B39F40D
:104DE0000A2661F0232B242B252B21F408950A2673
:104DF00009F4A140A6958FEF811D811D089597F9B3
:104E00009F6780E870E060E008959FEF80EC089570
:104E1000DF93CF931F930F93FF92EF92DF927B016B
:104E20008C01689405C0DA2EEF01BED0FE01E89433
:104E3000A5912591359145915591AEF3EF018BDE0A
:104E4000FE019701A801DA9479F7DF90EF90FF90C7
:104E50000F911F91CF91DF9108959F938F937F932F
:104E60006F93FF93EF939B01AC0192D0EF91FF9171
:104E7000CFDF2F913F914F915F918AC000240A9418
:104E80001616170618060906089500240A94121625
:104E90001306140605060895B8CF59D0E8F3E89430
:104EA000EFEFBB273FE048EC5FE76B3D73078407FC
:104EB000950708F1FF279F57B25A6A4D7F40894CEA
:104EC000F04032F4BE556542704F8643FF4F089460
:104ED000EE1F915030F0BB0F661F771F881FFF1F1A
:104EE000EBCF9EE7882332F0BB0F661F771F881F2A
:104EF0009A95C1F79395E095B4C0092E0394000CE0
:104F000011F4882352F0BB0F40F4BF2B11F460FF63
:104F100004C06F5F7F4F8F4F9F4F0895EF93E0FF67
:104F200006C0A2EA2AED3FE049EC5FEB14DEE5DFC4
:104F30000F90039401FC9058E8E6F0E08ECF57FD07
:104F40009058440F551F59F05F3F71F04795880FF7
:104F500097FB991F61F09F3F79F08795089512168E
:104F600013061406551FF2CF4695F1DF08C016163A
:104F700017061806991FF1CF8695710561050894EB
:104F80000895E894BB2766277727CB0197F9089502
:104F90000BD0B3CF73DF28F078DF18F0952309F03A
:104FA0002ECF33CF1124EECFCADFA0F3959FD1F3DC
:104FB000950F50E0551F629FF001729FBB27F00DC7
:104FC000B11D639FAA27F00DB11DAA1F649F66271C
:104FD000B00DA11D661F829F2227B00DA11D621F6B
:104FE000739FB00DA11D621F839FA00D611D221F25
:104FF000749F3327A00D611D231F849F600D211D09
:10500000822F762F6A2F11249F5750408AF0E1F0AB
:1050100088234AF0EE0FFF1FBB1F661F771F881FF4
:1050200091505040A9F79E3F510570F0E8CEAACFAD
:105030005F3FECF3983EDCF3869577956795B795DF
:10504000F795E7959F5FC1F7FE2B880F911D969509
:10505000879597F908959F9320DF0F9007FCEE5FE7
:105060005DCF9F3F49F0915028F4869577956795DD
:10507000B7959F5F80389F4F880F9695879597F9D2
:105080000895629FD001739FF001829FE00DF11D92
:10509000649FE00DF11D929FF00D839FF00D749FB2
:1050A000F00D659FF00D9927729FB00DE11DF91F5E
:1050B000639FB00DE11DF91FBD01CF0111240895BB
:1050C000AA1BBB1B51E107C0AA1FBB1FA617B7072E
:1050D00010F0A61BB70B881F991F5A95A9F780954A
:1050E0009095BC01CD01089597FB092E07260AD0A3
:1050F00077FD04D0E5DF06D000201AF470956195A5
:105100007F4F0895F6F7909581959F4F0895A1E2FE
:105110001A2EAA1BBB1BFD010DC0AA1FBB1FEE1F31
:10512000FF1FA217B307E407F50720F0A21BB30B7C
:10513000E40BF50B661F771F881F991F1A9469F7F8
:1051400060957095809590959B01AC01BD01CF0154
:10515000089597FB092E05260ED057FD04D0D7DF02
:105160000AD0001C38F450954095309521953F4F5A
:105170004F4F5F4F0895F6F7909580957095619524
:105180007F4F8F4F9F4F0895EE0FFF1F0590F491B3
:10519000E02D09942F923F924F925F926F927F92EF
:1051A0008F929F92AF92BF92CF92DF92EF92FF9237
:1051B0000F931F93CF93DF93CDB7DEB7CA1BDB0BE3
:1051C0000FB6F894DEBF0FBECDBF09942A88398888
:1051D00048885F846E847D848C849B84AA84B9848F
:1051E000C884DF80EE80FD800C811B81AA81B9819B
:1051F000CE0FD11D0FB6F894DEBF0FBECDBFED01AF
:065200000895F894FFCFB1
:10520600322E2051756164202000332E2053696EA2
:1052160065202000342E2043756269632000312EFC
:10522600204C696E65617200322E204561736520DF
:105236004F75742000332E2045617365496E4F7596
:105246007400342E2052657645617365496E0035CB
:105256002E526576456173654F757400312E204573
:1052660061736520496E2020004E6F2000596573DA
:1052760000322E2053657474696E67204200312E09
:105286002053657474696E6720410020002A00204F
:105296002020536C6964656C6170736500205665E7
:1052A6007273696F6E20302E352E3000202020203C
:1052B6000020202020202020202020202020202008
:1052C600200050726F67726573733A20253032641E
:1052D6002525202000583A2534642053656C3A254C
:1052E600732020202000593A253464204D3A257336
:1052F60020453A25732020002573202573202000A1
:10530600253034642020202020202020202020202A
:105316000025303464206D696E7574657320202015
:105326000025303464207365636F6E64732020201B
:10533600200025303275207365636F6E64732020FC
:1053460020002564207365636F6E6473202020003F
:105356002564206D696E75746573202020002573A1
:1053660020202020202020202020202020002573FF
:105376002020202020202000257320202020004DE2
:105386006F76656D656E74204469723A2020200040
:105396004D6F766520526967687420746F202020EF
:1053A6000073746172742074696D656C61707365E5
:1053B6003E005374617274696E6720544C2E2E2E13
:1053C60020200053656C20746F2063616E63656CEA
:1053D600202020002530326420202020202020207C
:1053E60020202020202000737461727420525420E3
:1053F6006D6F766520203E005374617274696E6726
:10540600204D6F76652E2E2E00486F6C64205365F6
:105416006C20746F2045786974000000000000005D
:10542600000000000000000000000053656C65638A
:1054360074204D6F64653A2020202000312E546977
:105446006D656C61707365202020203E00322E52FF
:1054560065616C74696D6520202020203E00332E26
:10546600436F6D6D616E646572202020203E0034AE
:105476002E446972656374696F6E202020203E0099
:10548600352E446562756720202020202020203E8E
:10549600003E3E3E2054696D656C61707365202048
:1054A60020004E756D626572206F662053686F74BA
:1054B600733A00544C204475726174696F6E3A20D9
:1054C6002020200041766720496E74657276616CF3
:1054D6003A2020200053746172742044656C61790F
:1054E6003A20202020004C6F6E6765737420536845
:1054F60075747465723A00536C65657020627477D2
:105506002073686F747320004261636B6C6967680F
:1055160074206F6E3F3A202000536C696465204505
:105526006173652046756E633A00536C6964652045
:105536004561736520437572763A0054696D65203E
:10554600456173652046756E633A200054696D6542
:105556002043757276652046756E633A004D6F7608
:10556600656D656E74204469723A202020004D6F87
:10557600746F72202D2D2D2D2D3E20456E64004515
:105586006E64202D2D2D2D2D3E204D6F746F7200D3
:1055960054696D656C6170736520616374697665C5
:1055A6000054696D656C6170736520446F6E65208B
:1055B60020003E3E3E20436F6D6D616E6465722035
:1055C6002020002020436F6D6D616E64204D6F6456
:1055D600652020004D6F746F72203C2D2D2D2D3EC1
:1055E60020456E6400456E64203C2D2D2D2D3E20F9
:1055F6004D6F746F7200526576657273696E6720BF
:10560600446972203C3E003E3E3E2044697265631A
:1056160074696F6E202020005365742045455052F2
:105626004F4D204469723A20003E3E3E204465625A
:105636007567204D6F6465202000000000000000A3
:105646000000000000000000000000000000000054
:105656000000000000000000000000004F005000A5
:1056660058003E3E3E204552524F522020202020D8
:1056760020200052657475726E696E6720486F6DE2
:10568600652020003E3E3E5265616C74696D652062
:105696004D6F6465004D6F76656D656E7420537051
:1056A6006565643A2000525420456173652046754D
:1056B6006E633A20202000525420456173652043D2
:1056C600757276653A2020004D6F766520436F6DC2
:1056D600706C657465212020000101010E01F087C0
:1056E600F0000F270500E803640030750100000094
:1056F600100E00000A0000000101580200003C00E4
:1057060000008051010001010401010501010401AD
:10571600010502010701F40101000000100E00005E
:105726000A000000190A63010101040101050100D4
:105736000201000100050001000000003E036603AF
:105746009A03000000003D033D033D0300000000F6
:105756002E04520489040000000043056C0503056D
:1057660000000000AB1D502500004000140054004E
:105776000000000038200720C01FC91FDE1FEF1FD2
:00000001FF
