:100000000C9472000C949A000C949A000C949A0030
:100010000C949A000C949A000C949A000C949A00F8
:100020000C949A000C949A000C949A000C949A00E8
:100030000C949A000C949A000C949A000C949A00D8
:100040000C941E1D0C949A000C949A000C949A0027
:100050000C949A000C949A000C949A000C949A00B8
:100060000C946F1B0C949A0005A84CCDB2D44EB9D9
:100070003836A9020C50B9918688083CA6AAAA2A4B
:10008000BE000000803F00000000240027002A007E
:1000900000000000250028002B00000000002300C5
:1000A00026002900040404040404040402020202D9
:1000B000020203030303030301020408102040802B
:1000C00001020408102001020408102000000007AB
:1000D0000002010000030406000000000000000010
:1000E0008A050B1A11241FBECFEFD8E0DEBFCDBFAB
:1000F00017E0A0E0B1E0ECE3F6E402C005900D9259
:10010000AA33B107D9F718E0AAE3B7E001C01D92FE
:10011000A732B107E1F710E0C4EED0E004C02297A7
:10012000FE010E94E122C03ED107C9F70E945C1F78
:100130000C941C230C940000AEE0B0E0E2EAF0E086
:100140000C94F3220D891E8986E08C831A8309831F
:100150008FEF9FE79E838D839E01275E3F4FCE01E9
:1001600001966F89788DA9010E94C0002F81388582
:10017000020F131FF80110822E96E4E00C940F2357
:10018000ABE0B0E0E6ECF0E00C94E5223C012B01A2
:100190005A01FC0117821682838181FD03C06FEF33
:1001A0007FEFC6C19AE0892E1E010894211C311CE4
:1001B000F3012381F20123FD859123FF81912F011A
:1001C000882309F4B2C1853239F423FD859123FFD8
:1001D00081912F01853229F490E0B3010E94B3028E
:1001E000E7CF982FFF24EE249924FFE1FF15D0F0EC
:1001F0009B3269F09C3228F4903259F0933291F49A
:100200000EC09D3249F0903369F441E024C052E0C1
:10021000F52A84E0F82A28C098E0F92A25C0E0E110
:10022000FE2A22C0F7FC29C0892F80538A3070F43F
:10023000F6FE05C0989C902C1124980E15C0E89CE1
:10024000E02C1124E80EF0E2FF2A0EC09E3229F4C1
:10025000F6FC6BC140E4F42A07C09C3619F450E860
:10026000F52A02C0983649F4F20123FD959123FF47
:1002700091912F01992309F0B8CF892F85548330AC
:1002800018F08052833038F444E050E0A40EB51EDC
:100290005FE359830FC0933631F0933779F093358C
:1002A00009F056C020C0F5018081898342E050E00A
:1002B000A40EB51E610101E010E012C0F501C0807E
:1002C000D180F6FC03C06FEF7FEF02C0692D70E0B4
:1002D00042E050E0A40EB51EC6010E94A8028C01A7
:1002E0005FE7F52214C0F501C080D180F6FC03C0A1
:1002F0006FEF7FEF02C0692D70E042E050E0A40E86
:10030000B51EC6010E949D028C0150E8F52AF3FE3D
:1003100007C01AC080E290E0B3010E94B302EA94E1
:100320008E2D90E008171907A8F30EC0F601F7FC10
:100330008591F7FE81916F0190E0B3010E94B302B5
:10034000E110EA94015010400115110579F7EAC057
:10035000943611F0993669F5F7FE08C0F501208151
:1003600031814281538184E090E00AC0F5018081AF
:1003700091819C01442737FD4095542F82E090E005
:10038000A80EB91E9FE6F92257FF09C05095409567
:10039000309521953F4F4F4F5F4FE0E8FE2ACA014D
:1003A000B901A1012AE030E00E94DF02D82ED21864
:1003B00040C0953729F41F2D1F7E2AE030E01DC074
:1003C0001F2D197F9F3661F0903720F4983509F082
:1003D000ACC00FC0903739F0983709F0A6C004C000
:1003E00028E030E00AC0106114FD146020E130E024
:1003F00004C014FD166020E132E017FF08C0F501CB
:10040000608171818281938144E050E008C0F501F0
:1004100080819181BC0180E090E042E050E0A40E38
:10042000B51EA1010E94DF02D82ED2188FE7F82E48
:10043000F122F6FE0BC05EEFF522D91438F4F4FE7B
:1004400007C0F2FC05C08FEEF82202C01D2D01C0CE
:10045000192DF4FE0DC0FE01ED0DF11D80818033DC
:1004600019F499EEF92208C01F5FF2FE05C003C01F
:100470008F2D867809F01F5F0F2DF3FC14C0F0FE5E
:100480000FC01E1510F09D2C0BC09D2C9E0C911AB8
:100490001E2D06C080E290E0B3010E94B3021F5FF0
:1004A0001E15C0F304C01E1510F4E11A01C0EE249D
:1004B00004FF0FC080E390E0B3010E94B30202FF8B
:1004C0001DC001FD03C088E790E00EC088E590E004
:1004D0000BC0802F867891F001FF02C08BE201C033
:1004E00080E2F7FC8DE290E0B3010E94B30206C007
:1004F00080E390E0B3010E94B3029A94D914C0F350
:10050000DA94F101ED0DF11D808190E0B3010E94BC
:10051000B302DD20A9F706C080E290E0B3010E949B
:10052000B302EA94EE20C1F743CEF30166817781EE
:10053000CB012B96E2E10C940123FC010590615064
:1005400070400110D8F7809590958E0F9F1F0895E9
:10055000FC016150704001900110D8F78095909592
:100560008E0F9F1F08950F931F93CF93DF938C01DE
:10057000EB018B8181FF1BC082FF0DC02E813F816B
:100580008C819D812817390764F4E881F9810193F2
:10059000F983E88306C0E885F985802F0995892BC2
:1005A00031F48E819F8101969F838E8302C00FEF6D
:1005B0001FEFC801DF91CF911F910F910895FA01AC
:1005C000AA27283051F1203181F1E8946F936E7F92
:1005D0006E5F7F4F8F4F9F4FAF4FB1E03ED0B4E083
:1005E0003CD0670F781F891F9A1FA11D680F791FC4
:1005F0008A1F911DA11D6A0F711D811D911DA11DD5
:1006000020D009F468943F912AE0269F11243019E4
:10061000305D3193DEF6CF010895462F4770405D7F
:100620004193B3E00FD0C9F7F6CF462F4F70405D2E
:100630004A3318F0495D31FD4052419302D0A9F789
:10064000EACFB4E0A6959795879577956795BA9583
:10065000C9F700976105710508959B01AC010A2E49
:1006600006945795479537952795BA95C9F7620F20
:10067000731F841F951FA01D08950895CF92DF92C8
:10068000EF92FF920F931F936C01CB01BA01F60119
:1006900026813781408551850E9420207B018C0175
:1006A000F60122813381448155810E94E321A80112
:1006B00097010E94E321A80197010E94E3211F9165
:1006C0000F91FF90EF90DF90CF900895CF92DF923F
:1006D000EF92FF920F931F936C01CB01BA01F601C9
:1006E00026813781408551850E94202020E030E01E
:1006F00040E85FE30E94B41F7B018C01A8019701D1
:100700000E94E321A80197010E94E32120E030E04C
:1007100040E85FE30E94B51FF601228133814481E6
:1007200055810E94E3211F910F91FF90EF90DF9080
:10073000CF900895AF92BF92CF92DF92EF92FF9247
:100740000F931F93CF93DF93EC017A018B016E819E
:100750007F818885998520E030E040E05FE30E945A
:10076000E3219B01AC01C801B7010E9420207B015D
:100770008C0120E030E040E85FE30E9419208823EC
:10078000ACF46A817B818C819D8120E030E040E087
:100790005FE30E94E321A80197010E94E321A801E1
:1007A00097010E94E321A80197012AC0C801B7015F
:1007B00020E030E040E050E40E94B41F7B018C0157
:1007C0006A817B818C819D8120E030E040E05FE3A5
:1007D0000E94E3215B016C01C801B701A8019701E8
:1007E0000E94E321A80197010E94E32120E030E06C
:1007F00040E050E40E94B51F9B01AC01C601B50169
:100800000E94E321E62F2E2F372F482F592FB901B1
:10081000CA01DF91CF911F910F91FF90EF90DF9070
:10082000CF90BF90AF900895FC018FEF96E0918339
:10083000808380E090E0A0E0B0E082839383A48393
:10084000B5830895FC0146835783608771870895B7
:10085000FC0142835383648375830895CF92DF92B2
:10086000EF92FF920F931F936C01CB01BA01F60137
:1008700026813781408551850E9420207B018C0193
:10088000F60122813381448155810E94E321A80130
:1008900097010E94E3211F910F91FF90EF90DF904D
:1008A000CF900895AF92BF92CF92DF92EF92FF92D6
:1008B0000F931F936C01CB01BA01F601268137819A
:1008C000408551850E9420207B018C01F6016281C8
:1008D0007381848195819058A80197010E94E3213A
:1008E0005B016C01C801B70120E030E040E050E45A
:1008F0000E94B41F9B01AC01C601B5010E94E32117
:100900001F910F91FF90EF90DF90CF90BF90AF902D
:100910000895AF92BF92CF92DF92EF92FF920F9322
:100920001F93CF93DF93EC017A018B016E817F815E
:100930008885998520E030E040E05FE30E94E32174
:100940009B01AC01C801B7010E9420207B018C01F2
:1009500020E030E040E85FE30E94192088238CF417
:100960006A817B818C819D8120E030E040E05FE303
:100970000E94E321A80197010E94E321A8019701A9
:100980002EC0C801B70120E030E040E85FE30E94DC
:10099000B41F7B018C016A817B818C819D8120E069
:1009A00030E040E05FEB0E94E3215B016C01C80195
:1009B000B70120E030E040E050E40E94B41F9B010A
:1009C000AC01C801B7010E94E32120E030E040E81B
:1009D0005FE30E94B41F9B01AC01C601B5010E94F8
:1009E000E321E62F2E2F372F482F592FB901CA01A7
:1009F000DF91CF911F910F91FF90EF90DF90CF90FB
:100A0000BF90AF900895AF92BF92CF92DF92EF92D6
:100A1000FF920F931F936C01CB01BA012BED3FE0C6
:100A200049E450E40E94E321F601268137814085A4
:100A300051850E9420200E941D207B018C01F6011F
:100A4000628173818481958120E030E040E05FEB3A
:100A50000E94E3215B016C01C801B70120E030E096
:100A600040E85FE30E94B41F9B01AC01C601B501E1
:100A70000E94E3211F910F91FF90EF90DF90CF90A4
:100A8000BF90AF900895EF92FF920F931F93FC01D8
:100A9000E280F38004811581CB01BA012681378180
:100AA000408551850E9420202BED3FE049EC5FE31B
:100AB0000E94E3210E941D209B01AC01C801B701E7
:100AC00090580E94E321A80197010E94B51F1F9131
:100AD0000F91FF90EF9008950F931F938C01CB011E
:100AE000BA01F80126813781408551850E94202076
:100AF0002BED3FE049EC5FE30E94E3210E94462298
:100B0000F80122813381448155810E94E3211F91A4
:100B10000F9108958AE397E060E00E943A160895E5
:100B200089E060E00E94731E0895CF92DF92EF92F9
:100B3000FF920F931F938C016B018AE3E82E87E0ED
:100B4000F82EC70160E040E00E94DA17C701B80143
:100B50000E94B11FC70160E041E00E94DA17C7019F
:100B6000B6010E94B11F1F910F91FF90EF90DF908F
:100B7000CF90089587E061E00E94731E66E970E0FF
:100B800080E090E00E94741D87E060E00E94731E88
:100B9000089589E061E00E94731E62E070E080E0E9
:100BA00090E00E94741D08950F931F9382E061E00E
:100BB0000E94341E83E061E00E94341E89E061E0FF
:100BC0000E94341E89E061E00E94731E87E061E0AC
:100BD0000E94341E0AE317E0C80160E142E020E011
:100BE0000E941E18C80165E771E00E94B11FC8018C
:100BF00060E041E00E94DA17C80163E871E00E94FA
:100C0000B11F68EB7BE080E090E00E94741DC8019A
:100C10000E9409186091AB068DE597E070E00E9494
:100C200027168093AC068AE062E00E94341E84E0BE
:100C300060E00E94341E86E060E00E94341E1F9136
:100C40000F91089581E00E94121E08950E942206CD
:100C500020E0C2970CF421E0822F08950E94220622
:100C600020E0895E93400CF021E0822F089580E01F
:100C70000E94121E08950E94370620E0C2970CF4CD
:100C800021E0822F08950E94370620E0895E93407C
:100C90000CF021E0822F0895CF93DF93EC0180E0E8
:100CA0000E94121E8955924084F0BE01882777FD6C
:100CB0008095982F0E94741D80E00E94121E895515
:100CC00092400CF442C022E041C080E00E94121E1B
:100CD0008059914084F4BE01882777FD8095982F34
:100CE0000E94741D80E00E94121E20E080599140F5
:100CF0006CF521E02BC081E00E94121E89559240C4
:100D00007CF0BE01882777FD8095982F0E94741D86
:100D100081E00E94121E89559240BCF023E016C06B
:100D200081E00E94121E805991407CF4BE01882708
:100D300077FD8095982F0E94741D81E00E94121EFD
:100D40008059914014F424E001C020E0822FDF910B
:100D5000CF9108958AE00E94C71E20E0892B09F4F4
:100D600021E0822F0895AF92BF92CF92DF92EF924F
:100D7000FF920F931F937A0100D000D000D0CDB620
:100D8000DEB60894C11CD11C20E4A22E25E0B22EB0
:100D9000EDB7FEB7B282A18228EA31E0F6013383D3
:100DA000228324E630E040E050E00E945C220027ED
:100DB000F7FC0095102FA80197010E94A222F601CE
:100DC000358324830E949C008DB79EB706960FB68C
:100DD000F8949EBF0FBE8DBF8FE295E0B5010E94D3
:100DE00095051F910F91FF90EF90DF90CF90BF90EE
:100DF000AF900895EF92FF920F931F937B018C01A8
:100E00009A01CA010197029710F480E006C02350AE
:100E100030402230310538F481E00E94121E909358
:100E2000E9068093E8068091E8069091E906825CE5
:100E300091408536910560F18091590790915A074C
:100E4000A0915B07B0915C070097A105B105A9F0DF
:100E50000E94661DE0E02091590730915A074091A9
:100E60005B0750915C07621B730B840B950BE616B6
:100E7000F70608071907A8F013C00E94661D6093C3
:100E8000590770935A0780935B0790935C0708C0DB
:100E90001092590710925A0710925B0710925C0744
:100EA000E1E08E2F1F910F91FF90EF900895CF9367
:100EB000DF93EC018AE00E94C71E882389F58091A8
:100EC000550790915607A0915707B0915807009782
:100ED000A105B105D1F00E94661DE0E02091550703
:100EE000309156074091570750915807621B730B7A
:100EF000840B950B9E01442737FD4095542F2617F0
:100F0000370748075907A8F013C00E94661D609371
:100F1000550770935607809357079093580708C05A
:100F200010925507109256071092570710925807C3
:100F3000E1E08E2FDF91CF910895CF92DF92EF9273
:100F4000FF920F931F93CF93DF93D090AC068D2D1C
:100F500090E08130910519F484E691E005C082307B
:100F6000910511F487E591E02DB73EB72850304048
:100F70000FB6F8943EBF0FBE2DBFEDB7FEB731964A
:100F80000CE016E0ADB7BEB712961C930E93119706
:100F90003BEBE32E31E0F32EF382E28295838483F0
:100FA00083E791E0978386830E949C002DB73EB72C
:100FB000285F3F4F0FB6F8943EBF0FBE2DBF8BEF9B
:100FC00095E0B8010E949505C02E012F1E2DEF2C33
:100FD00074C00E942E06882329F40E9426068823C6
:100FE00009F46BC066E970E080E090E00E94741D37
:100FF0000E942E06882379F0D3944D2D50E0433083
:1010000051051CF041E050E005C04115510511F4B7
:1010100042E050E0D42E0E942606882379F0DA942C
:101020004D2D50E0433051051CF041E050E005C02B
:101030004115510511F442E050E0D42E2D2D30E041
:101040002130310519F4C4E6D1E005C02230310564
:1010500011F4C7E5D1E08091AC0690E0281739077C
:1010600019F081E791E002C083E791E0ADB7BEB728
:1010700018970FB6F894BEBF0FBEADBFEDB7FEB761
:1010800031961196CC92119712960C931283E382AB
:10109000D583C483978386830E949C002DB73EB777
:1010A000285F3F4F0FB6F8943EBF0FBE2DBF8BEFAA
:1010B00095E06C2D702F0E94950588EE93E00E94BC
:1010C0005707882309F085CF8091AC06D81651F0D8
:1010D000D092AC066091AB068DE597E070E04D2DA7
:1010E0000E942E16DF91CF911F910F91FF90EF90EC
:1010F000DF90CF9008956F927F928F929F92AF92E0
:10110000BF92CF92DF92EF92FF920F931F93CF93F4
:10111000DF93E62E3C0197FF04C066247724681A0B
:10112000790A60E0181619060CF461E082E00E946A
:10113000731E6E2D70E080E090E00E94B92020E0E8
:1011400030E048EC52E40E9420209B01AC0160E0BA
:1011500070E080E89FE30E94202020E030E04CE82F
:1011600052E40E94E3217B018C0143019594879412
:1011700095948794B401660F771F660F771F680DEB
:10118000791D882777FD8095982F0E94BB209B01B1
:10119000AC01C801B7010E94B51F5B016C01C0E042
:1011A000D0E01FC0C601B50120E030E040EA50E4C5
:1011B0000E94B41F5B016C0183E061E00E94731E1A
:1011C000C601B5010E948D207B018C01CB010E94DC
:1011D000CD1D83E060E00E94731EC7010E94CD1DFB
:1011E0002196C815D905F4F2C401880F991F681A11
:1011F000790AC0E0D0E015C083E061E00E94731E70
:10120000C601B5010E948D207B018C01CB010E949B
:10121000CD1D83E060E00E94731EC7010E94CD1DBA
:101220002196C615D70544F3C0E0D0E01FC0C60123
:10123000B50120E030E040EA50E40E94B51F5B01B8
:101240006C0183E061E00E94731EC601B5010E943B
:101250008D207B018C01CB010E94CD1D83E060E0DD
:101260000E94731EC7010E94CD1D2196C815D90585
:10127000F4F2DF91CF911F910F91FF90EF90DF90EB
:10128000CF90BF90AF909F908F907F906F90089578
:101290002F923F924F925F926F927F928F929F9286
:1012A000AF92BF92CF92DF92EF92FF920F931F9374
:1012B000DF93CF93CDB7DEB7CE54D0400FB6F894BE
:1012C000DEBF0FBECDBF2F968FAF2F971B01CA0178
:1012D000B90128EE33E040E050E00E945C222E96F7
:1012E0006CAF7DAF8EAF9FAF2E978E010F5F1F4FFC
:1012F000C8010E941404F9E0EF2EF7E0FF2EFA82F5
:10130000E982B101882777FD8095982F0E94BB2044
:101310004B015C01C801B501A4010E942204609147
:10132000B0067091B10680E090E00E94B920AB0158
:10133000BC01C8010E9428048E01055F1F4FC8012F
:101340000E941404E3E14E2EE7E05E2E5C864B869D
:10135000C801B501A4010E9422046091B0067091F9
:10136000B10680E090E00E94B920AB01BC01C80149
:101370000E9428048E010B5E1F4FC8010E941404B6
:1013800075EF672E76E0772E7E8A6D8AC801B501EB
:10139000A4010E9422046091B0067091B10680E021
:1013A00090E00E94B920AB01BC01C8010E94280452
:1013B0008E01015E1F4FC8010E941404F8A2EF8E37
:1013C000C801B501A4010E9422042E966CAD7DAD2A
:1013D0008EAD9FAD2E970E94B9206B017C01C80194
:1013E000B701A6010E9428048E01075D1F4FC801A6
:1013F0000E9414045AA649A6C801B501A4010E947E
:101400002204C801B701A6010E9428048E010D5CC8
:101410001F4FC8010E9414047CAA6BAAC801B50121
:10142000A4010E942204C801B701A6010E94280459
:101430008091B0069091B106B1010E947B22CB0150
:10144000A0E0B0E02A968CAF9DAFAEAFBFAF2A97B9
:101450006091C6067091C7068091C8069091C90632
:1014600028EE33E040E050E00E945C220E94741DB0
:101470008091CB06823029F48AE397E060E00E94F5
:1014800011189101442737FD4095542F2E966CADCD
:101490007DAD8EAD9FAD2E970E94A222490122966E
:1014A0001FAE2297AA24BB2481E090E0A0E0B0E028
:1014B000EFC20E94661D26966CAF7DAF8EAF9FAFC8
:1014C000269721966CAD7DAD8EAD9FAD2197A10184
:1014D0000E94B3060E94BA056091B8067091B906E1
:1014E00080E090E00E94741D8091D806833009F45A
:1014F00066C0843009F4C3C0823009F02BC18091EA
:10150000DB06823011F18330E9F1813009F022C12C
:10151000B601882777FD8095982F0E94BB20AB01EC
:10152000BC01CE0101960E942E047B018C01B50105
:10153000882777FD8095982F0E94BB20AB01BC01C6
:10154000CE0101960E942E04DDC0B601882777FDEA
:101550008095982F0E94BB20AB01BC01CE01019663
:101560000E9452047B018C01B501882777FD80958C
:10157000982F0E94BB20AB01BC01CE0101960E94B6
:101580005204C0C0B601882777FD8095982F0E942D
:10159000BB20AB01BC01CE0101960E9489047B01F6
:1015A0008C01B501882777FD8095982F0E94BB207C
:1015B000AB01BC01CE0101960E948904A3C08091B9
:1015C000DB06823011F18330E9F1813009F0C2C0CD
:1015D000B601882777FD8095982F0E94BB20AB012C
:1015E000BC01CE010B960E9443057B018C01B50125
:1015F000882777FD8095982F0E94BB20AB01BC0106
:10160000CE010B960E9443057DC0B601882777FD69
:101610008095982F0E94BB20AB01BC01CE010B9698
:101620000E946C057B018C01B501882777FD8095B0
:10163000982F0E94BB20AB01BC01CE010B960E94EB
:101640006C0560C0B601882777FD8095982F0E94B1
:10165000BB20AB01BC01CE010B960E9403057B01B0
:101660008C01B501882777FD8095982F0E94BB20BB
:10167000AB01BC01CE010B960E94030543C08091D3
:10168000DB06823019F1833009F447C0813009F05C
:1016900061C0B601882777FD8095982F0E94BB20F6
:1016A000AB01BC01CE0145960E943E037B018C013B
:1016B000B501882777FD8095982F0E94BB20AB014C
:1016C000BC01CE0145960E943E031CC0B60188278E
:1016D00077FD8095982F0E94BB20AB01BC01CE0105
:1016E00045960E9466037B018C01B501882777FD32
:1016F0008095982F0E94BB20AB01BC01CE0145967E
:101700000E9466039B01AC01C801B7010E94B41F8F
:101710000E9488207B018C0123C0B601882777FDB9
:101720008095982F0E94BB20AB01BC01CE0145964D
:101730000E949A037B018C01B501882777FD809573
:10174000982F0E94BB20AB01BC01CE0145960E94A0
:101750009A03D8CF2A96ECACFDAC0EAD1FAD2A97FC
:101760008091CA06813011F40E94C9052F969FAD61
:101770002F97923040F010950095F094E094E11C82
:10178000F11C011D111D8091AC06823041F41095B1
:101790000095F094E094E11CF11C011D111DC7019E
:1017A0006FE00E947B088091CA06813011F40E948C
:1017B00090050E94AA06882321F422961FAE229744
:1017C0000AC02296AFAD2297AF5F2296AFAF2297A5
:1017D000A33008F069C10E94661D2B013C012696CA
:1017E0008CAD9DADAEADBFAD2697481A590A6A0AB9
:1017F0007B0A8091DE06833009F466C0843009F4E8
:10180000C3C0823009F028C18091E106823011F115
:101810008330E9F1813009F01FC1B601882777FDD7
:101820008095982F0E94BB20AB01BC01CE014F9642
:101830000E942E047B018C01B501882777FD8095DD
:10184000982F0E94BB20AB01BC01CE014F960E9495
:101850002E04F9C0B601882777FD8095982F0E9445
:10186000BB20AB01BC01CE014F960E9452047B010C
:101870008C01B501882777FD8095982F0E94BB20A9
:10188000AB01BC01CE014F960E945204DCC0B601F0
:10189000882777FD8095982F0E94BB20AB01BC0163
:1018A000CE014F960E9489047B018C01B5018827E7
:1018B00077FD8095982F0E94BB20AB01BC01CE0123
:1018C0004F960E948904BFC08091E106823011F1D9
:1018D0008330E9F1813009F0BFC0B601882777FD78
:1018E0008095982F0E94BB20AB01BC01CE01899648
:1018F0000E9443057B018C01B501882777FD809507
:10190000982F0E94BB20AB01BC01CE0189960E949A
:10191000430599C0B601882777FD8095982F0E94CE
:10192000BB20AB01BC01CE0189960E946C057B01F6
:101930008C01B501882777FD8095982F0E94BB20E8
:10194000AB01BC01CE0189960E946C057CC0B6013A
:10195000882777FD8095982F0E94BB20AB01BC01A2
:10196000CE0189960E9403057B018C01B501882771
:1019700077FD8095982F0E94BB20AB01BC01CE0162
:1019800089960E9403055FC08091E106823011F1C3
:101990008330E9F1813009F05FC0B601882777FD17
:1019A0008095982F0E94BB20AB01BC01CE01C3964D
:1019B0000E943E037B018C01B501882777FD80954D
:1019C000982F0E94BB20AB01BC01CE01C3960E94A0
:1019D0003E0339C0B601882777FD8095982F0E9475
:1019E000BB20AB01BC01CE01C3960E9466037B0104
:1019F0008C01B501882777FD8095982F0E94BB2028
:101A0000AB01BC01CE01C3960E9466031CC0B601A7
:101A1000882777FD8095982F0E94BB20AB01BC01E1
:101A2000CE01C3960E949A037B018C01B5018827E1
:101A300077FD8095982F0E94BB20AB01BC01CE01A1
:101A4000C3960E949A039B01AC01C801B7010E9492
:101A5000B41F0E9488204B01B401882777FD809530
:101A6000982F461657066806790630F464197509EA
:101A7000860997090E94741D0894A11CB11C219627
:101A80008CAD9DADAEADBFAD21970196A11DB11D31
:101A900021968CAF9DAFAEAFBFAF2197CDACDEAC82
:101AA0002C143D040CF005CD8AE397E061E00E9420
:101AB00011180E94C905C25BDF4F0FB6F894DEBF54
:101AC0000FBECDBFCF91DF911F910F91FF90EF908F
:101AD000DF90CF90BF90AF909F908F907F906F904E
:101AE0005F904F903F902F9008956091B206709153
:101AF000B3062091CC063091CD064091CE06509190
:101B0000CF068091E4060E94480981E08093AD06EB
:101B100081E595E062E675E00E9495050895EF92F3
:101B2000FF920F931F936730710509F4DCC2683090
:101B30007105C4F46330710509F40BC1643071059B
:101B400044F46130710559F16230710509F0B2C495
:101B50007BC06530710509F4A2C1663071050CF0D7
:101B600078C23AC16B30710509F412C46C3071054A
:101B70004CF46930710509F45CC36A3071050CF0EE
:101B8000ABC3FBC26D30710509F485C46D307105BE
:101B90000CF452C46E30710509F08CC483C42091DA
:101BA000B2063091B306181619064CF44B305105A5
:101BB0001CF481E090E010C08AE090E00DC0892B19
:101BC00019F480E090E008C04B3051051CF48FEF11
:101BD0009FEF02C086EF9FEF820F931F4091B606E2
:101BE0005091B7062091B4063091B50628173907F1
:101BF00014F49A0104C0841795070CF09C013093EB
:101C0000B3062093B20600D000D000D0EDB7FEB7E7
:101C1000319607E913E0ADB7BEB712961C930E9349
:101C2000119783EC91E093838283358324830E9410
:101C30009C00EDB7FEB736960FB6F894FEBF0FBE08
:101C4000EDBF86E893E0F6C3E090CC06F090CD06B9
:101C50000091CE061091CF06181619064CF44B30A1
:101C600051051CF421E030E010C02AE030E00DC046
:101C7000892B19F420E030E008C04B3051051CF4EA
:101C80002FEF3FEF02C026EF3FEF8CE390E0AC0177
:101C9000249FC001259F900D349F900D11249C011D
:101CA000442737FD4095542F2E0D3F1D401F511FD7
:101CB0008091D0069091D106E091D406F091D5069E
:101CC000E217F30714F4FC0104C0281739070CF0DD
:101CD000F901BF01882777FD8095982F6093CC0686
:101CE0007093CD068093CE069093CF06ADB7BEB766
:101CF00018970FB6F894BEBF0FBEADBF0DB71EB795
:101D00000F5F1F4F29EBE22E23E0F22E1296FC927A
:101D1000EE92119724ED31E0F801338322832CE316
:101D200030E040E050E00E94C422D80114962D9388
:101D30003D934D935C9317970E949C00EDB7FEB7BF
:101D400038960FB6F894FEBF0FBEEDBF88EA93E059
:101D500041C02DB73EB7285030400FB6F8943EBF73
:101D60000FBE2DBF0DB71EB70F5F1F4FABEDEA2E95
:101D7000A3E0FA2EADB7BEB71296FC92EE92119781
:101D800084EE91E0F801938382832091B206309132
:101D9000B306442737FD4095542F6091CC067091CF
:101DA000CD068091CE069091CF060E94C422D80124
:101DB00014962D933D934D935C9317970E949C002E
:101DC000EDB7FEB738960FB6F894FEBF0FBEEDBF65
:101DD0008AEC93E0B70163C36091B8067091B906CD
:101DE000181619064CF44B3051051CF421E030E074
:101DF00010C02AE030E00DC0892B19F420E030E05B
:101E000008C04B3051051CF42FEF3FEF02C026EF06
:101E10003FEF88EE93E0289FA001299F500D389F47
:101E2000500D1124460F571F8091BA069091BB06A2
:101E30002091BC063091BD062417350714F49C018F
:101E400004C0481759070CF09A012093B806309344
:101E5000B90600D000D000D0EDB7FEB731960FE143
:101E600014E0ADB7BEB712961C930E93119785EF91
:101E700091E093838283C90168EE73E00E947B2224
:101E8000758364830E949C00EDB7FEB736960FB64B
:101E9000F894FEBF0FBEEDBF8EE094E0CBC2E090A1
:101EA000C606F090C7060091C8061091C906FCE36B
:101EB000EF16F10401051105F8F4181619064CF493
:101EC0004B3051051CF421E030E010C02AE030E036
:101ED0000DC0892B19F420E030E008C04B305105CB
:101EE0001CF42FEF3FEF02C026EF3FEFC901AA27F6
:101EF00097FDA095BA2F27C0181619064CF44B3041
:101F000051051CF421E030E010C02AE030E00DC0A3
:101F1000892B19F420E030E008C04B3051051CF447
:101F20002FEF3FEF02C026EF3FEF8CE390E0AC01D4
:101F3000249FC001259F900D349F900D1124AA2746
:101F400097FDA095BA2F8E0D9F1DA01FB11F8093E6
:101F5000C6069093C706A093C806B093C906209101
:101F6000C6063091C7064091BE065091BF068091CB
:101F7000C2069091C3068217930714F4CA0104C0E5
:101F8000241735070CF0C9019C01442737FD409503
:101F9000542F2093C6063093C7064093C80650932B
:101FA000C9068DEF93E02C33310541055105D8F476
:101FB0006DB77EB7685070400FB6F8947EBF0FBE05
:101FC0006DBFEDB7FEB73196ADB7BEB712969C9315
:101FD0008E93119785E092E09383828324833583E7
:101FE0004683578327C06DB77EB7685070400FB6E1
:101FF000F8947EBF0FBE6DBF0DB71EB70F5F1F4FAA
:10200000ADB7BEB712969C938E93119783E192E081
:10201000F80193838283CA01B9012CE330E040E0E8
:1020200050E00E94A222D80114962D933D934D9327
:102030005C9317970E949C00EDB7FEB738960FB6D9
:10204000F894FEBF0FBEEDBF8CEE93E06DEF73E032
:1020500026C22091CA06181619061CF481E090E0E9
:1020600007C0892B19F08FEF9FEF02C080E090E04E
:10207000280F822F90E0833091051CF081E090E0E2
:1020800004C0009711F482E090E0282F8093CA06E4
:10209000813019F0823031F403C023E531E002C011
:1020A0002FE431E000D000D000D0EDB7FEB731967C
:1020B00001E414E0ADB7BEB712961C930E931197CE
:1020C00081E292E093838283358324830E949C0083
:1020D000EDB7FEB736960FB6F894FEBF0FBEEDBF54
:1020E00080E394E0A7C12091CB06181619061CF4D2
:1020F00081E090E007C0892B19F08FEF9FEF02C0BD
:1021000080E090E0280F822F90E0833091051CF052
:1021100081E090E004C0009711F482E090E0282F65
:102120008093CB06813019F0823031F403C023E56F
:1021300031E002C02FE431E000D000D000D0EDB794
:10214000FEB7319603E614E0ADB7BEB712961C9306
:102150000E93119781E292E09383828335832483E7
:102160000E949C00EDB7FEB736960FB6F894FEBFFE
:102170000FBEEDBF82E594E05DC12091D806181630
:1021800019061CF481E090E007C0892B19F08FEF4D
:102190009FEF02C080E090E0281B30E08091D906DC
:1021A000482F50E08091DA0690E08217930714F4EC
:1021B000CA0104C0241735070CF0C901282F8093E9
:1021C000D806823069F0833018F4813089F405C074
:1021D000833049F0843061F409C02EE131E008C059
:1021E00020E031E005C02AE031E002C024E131E026
:1021F00000D000D000D0EDB7FEB7319605E814E06E
:10220000ADB7BEB712961C930E93119781E392E07F
:1022100093838283358324830E949C00EDB7FEB7AD
:1022200036960FB6F894FEBF0FBEEDBF84E794E07C
:1022300001C12091DB06181619061CF481E090E01C
:1022400007C0892B19F08FEF9FEF02C080E090E06C
:10225000281B30E08091DC06482F50E08091DD069D
:1022600090E08217930714F4CA0104C024173507BD
:102270000CF0C901282F8093DB06823039F08330BF
:1022800041F0813041F422E431E005C028E231E040
:1022900002C025E331E000D000D000D0EDB7FEB79A
:1022A000319607EA14E0ADB7BEB712961C930E93B1
:1022B00011978BE392E093838283358324830E947A
:1022C0009C00EDB7FEB736960FB6F894FEBF0FBE72
:1022D000EDBF86E994E0AEC02091DE06181619061F
:1022E0001CF481E090E007C0892B19F08FEF9FEF7D
:1022F00002C080E090E0281B30E08091DF06482F8C
:1023000050E08091E00690E08217930714F4CA0130
:1023100004C0241735070CF0C901282F8093DE066E
:10232000823069F0833018F4813089F405C083303D
:1023300049F0843061F409C02EE131E008C020E0AA
:1023400031E005C02AE031E002C024E131E000D0F4
:1023500000D000D0EDB7FEB7319609EC14E0ADB770
:10236000BEB712961C930E93119781E392E093836C
:102370008283358324830E949C00EDB7FEB7369696
:102380000FB6F894FEBF0FBEEDBF88EB94E052C0CD
:102390002091E106181619061CF481E090E007C0B0
:1023A000892B19F08FEF9FEF02C080E090E0281B8F
:1023B00030E08091E206482F50E08091E30690E003
:1023C0008217930714F4CA0104C0241735070CF0D0
:1023D000C901282F8093E106823039F0833041F023
:1023E000813041F422E431E005C028E231E002C04E
:1023F00025E331E000D000D000D0EDB7FEB7319634
:102400000BEE14E0ADB7BEB712961C930E93119766
:102410008BE392E093838283358324830E949C0024
:10242000EDB7FEB736960FB6F894FEBF0FBEEDBF00
:102430008AED94E0B80133C04091E40618161906FD
:102440001CF421E030E007C0892B19F02FEF3FEF9B
:1024500002C020E030E0420F242F30E0233031056D
:102460001CF021E030E005C02115310511F422E017
:1024700030E02093E406213049F48AE397E00E949B
:10248000091882E492E06DE075E009C08CEF94E0F9
:102490006EE175E004C083E592E064E672E00E94BC
:1024A000950508C085E792E066E872E00E94950510
:1024B0000E94750D1F910F91FF90EF900895CF939B
:1024C000DF936091E50680E090E070E040E050E04E
:1024D0000E948F0D40C00E944306882329F40E9469
:1024E0003B06882309F45EC066E970E080E090E076
:1024F0000E94741D21960E943B06882339F080912A
:10250000E506282F30E0215030400BC00E944306E2
:10251000882309F43FC08091E506282F30E02F5F23
:102520003F4F8091E706482F50E08091E606682FE4
:1025300070E06217730714F4BA0104C0241735075A
:102540000CF0B9016093E50680E090E01FC00E94A6
:102550002606882319F4C0E0D0E01CC066E970E0CC
:1025600080E090E00E94741D21960E942606882338
:1025700029F06091E5068FEF9FEF08C00E942E06BC
:10258000882341F06091E50681E090E070E0AE01C3
:102590000E948F0D88EE93E00E945707882309F070
:1025A0009ACF05C00E942E068823C1F6D0CFDF91B6
:1025B000CF910895CF93DF936091AD0680E090E0D6
:1025C00070E040E050E00E948F0D40C00E94430642
:1025D000882329F40E943B06882309F45EC066E93B
:1025E00070E080E090E00E94741D21960E943B06FE
:1025F000882339F08091AD06282F30E021503040FB
:102600000BC00E944306882309F43FC08091AD06A9
:10261000282F30E02F5F3F4F8091AF06482F50E0CA
:102620008091AE06682F70E06217730714F4BA0148
:1026300004C0241735070CF0B9016093AD0680E0A3
:1026400090E01FC00E942606882319F4C0E0D0E065
:102650001CC066E970E080E090E00E94741D219645
:102660000E942606882329F06091AD068FEF9FEF28
:1026700008C00E942E06882341F06091AD0681E0DB
:1026800090E070E0AE010E948F0D88EE93E00E9412
:102690005707882309F09ACF05C00E942E06882389
:1026A000C1F6D0CFDF91CF9108958F929F92AF92D4
:1026B000BF92CF92DF92EF92FF920F931F93CF932F
:1026C000DF93E62E4C0197FF04C088249924881AD2
:1026D000990A60E0181619060CF461E082E00E9485
:1026E000731E6E2D70E080E090E00E94B92020E023
:1026F00030E048EC52E40E9420209B01AC0160E0F5
:1027000070E080E89FE30E94202020E030E04CE869
:1027100052E40E94E3215B016C01C0E0D0E015C0EF
:1027200083E061E00E94731EC601B5010E948D2006
:102730007B018C01CB010E94CD1D83E060E00E94F3
:10274000731EC7010E94CD1D2196C815D90544F3FB
:10275000DF91CF911F910F91FF90EF90DF90CF907D
:10276000BF90AF909F908F900895CF92DF92EF929D
:10277000FF920F931F93CF93DF9385E995E066EA6D
:1027800075E00E9495058091AC06823019F402E054
:1027900010E0ADC001E010E0AAC080E00E94121E6F
:1027A000EC0181E00E94121E8F5F9340C1F564EF3F
:1027B00071E080E090E00E94741D81E00E94121E92
:1027C0008F5F934061F50F5F1F4FC801817090705C
:1027D00000FF11C085E995E068EC75E00E94950561
:1027E00068EE73E080E090E00E94741D85E995E05A
:1027F00066EA75E012C0892B91F485E995E068ECF2
:1028000075E00E94950568EE73E080E090E00E941C
:10281000741D85E995E067EB75E00E94950582E0FF
:10282000CC30D80744F1C8018170907000FF10C00F
:1028300086E00E94C71E019709F460C0CB50D240C9
:10284000CE9DC001CF9D900DDE9D900D112446C000
:10285000892B09F053C084E00E94C71E019709F438
:102860004DC0CB50D240CE9DC001CF9D900DDE9D7E
:10287000900D11241AC021E0C43FD2070CF03EC0D5
:10288000C8018170907000FF17C084E00E94C71ECD
:102890000197A1F1C6018C1B9D0B9C012E9DC001CF
:1028A0002F9D900D3E9D900D112464EF71E00E94CC
:1028B0008F228FEF9FEF18C0892B01F586E00E94D1
:1028C000C71E0197D9F0C6018C1B9D0B9C012E9D44
:1028D000C0012F9D900D3E9D900D112464EF71E07D
:1028E0000E948F2281E090E00E94551307C0E4EF20
:1028F000CE2EE1E0DE2E79E1E72EF12C88EE93E09A
:102900000E945707882309F048CFDF91CF911F918C
:102910000F91FF90EF90DF90CF9008958330910555
:1029200079F1843091053CF48130910559F002979A
:1029300009F053C016C08430910589F1059709F05C
:102940004CC03CC084E693E065E773E00E949505C7
:1029500064EC79E080E090E00E94741D0E94DA123D
:10296000089589E896E06AE976E00E94950564ECAE
:1029700079E080E090E00E94741D0E945F1208954B
:1029800083E795E064E875E00E94950564EC79E0E2
:1029900080E090E00E94741D0E94B513089589EDB7
:1029A00095E06AEE75E00E94950564EC79E080E0C0
:1029B00090E00E94741D0E949D0708958DE196E0AD
:1029C0006EE276E00E94950564EC79E080E090E0AC
:1029D0000E94741D0E946B15089587E696E068E7D3
:1029E00076E00E94950564EC79E080E090E00E943A
:1029F000741D0E94FC14089559C082E390E00E9467
:102A00004C0690E08330910531F48091EA06909174
:102A1000EB06019707C0049749F48091EA0690916C
:102A2000EB0601969093EB068093EA062091EA0666
:102A30003091EB064091EC065091ED068091EE0648
:102A40009091EF068217930714F4CA0104C024176B
:102A500035070CF0C9019093EB068093EA068330AA
:102A60009105A9F08430910534F48130910561F02D
:102A70000297B1F406C08430910561F0059781F4A6
:102A80000CC060E273E00EC06FE073E00BC061E366
:102A900073E008C062E473E005C063E573E002C060
:102AA00067E676E08EEF92E00E94950562E370E0C3
:102AB00080E090E042E050E00E94FA06882309F0AE
:102AC0009CCF8091EA069091EB060E948E140895A7
:102AD0000E94FC1408954F925F926F927F928F92A2
:102AE0009F92AF92BF92CF92DF92FF920F931F936C
:102AF000CF93DF931FE3412E16E0512EBAEC6B2EDD
:102B0000B2E07B2EA0E5AA2EA6E0BA2EFBED8F2E1A
:102B1000F2E09F2E83C08EE00E94121EEC018FE037
:102B20000E94121E6C018AE00E94C71E182F84E0CA
:102B30000E94C71E082F86E00E94C71EF82E112390
:102B400019F483E696E007C0113019F085E696E0A7
:102B500002C081E696E02DB73EB7285030400FB650
:102B6000F8943EBF0FBE2DBFEDB7FEB73196ADB79F
:102B7000BEB712965C924E92119773826282D58391
:102B8000C483978386830E949C002DB73EB7285F3D
:102B90003F4F0FB6F8943EBF0FBE2DBF013019F462
:102BA00023E636E007C0002319F025E636E002C030
:102BB00021E636E041E0F41619F483E696E007C01A
:102BC000FF2019F085E696E002C081E696E0ADB7F9
:102BD000BEB71A970FB6F894BEBF0FBEADBFEDB724
:102BE000FEB731961296BC92AE9211979382828272
:102BF000D582C48237832683918780870E949C0078
:102C00002DB73EB7265F3F4F0FB6F8943EBF0FBEBD
:102C10002DBF8FE396E0B5010E94950588EE93E005
:102C20000E945707882309F076CF0E94FC14DF9199
:102C3000CF911F910F91FF90DF90CF90BF90AF90F9
:102C40009F908F907F906F905F904F900895F9992B
:102C5000FECF72BD61BDF89A80B50895F999FECF97
:102C60001FBA72BD61BD40BD0FB6F894FA9AF99AC9
:102C70000FBE0895FC01138212828DE197E09183CB
:102C80008083618F178681E084838FEF858382E064
:102C9000868383E0878384E0808785E0818786E080
:102CA00082870895FC01818D8F3F29F0CF014A96DC
:102CB0000E945519089585898F3F21F4862F642F2E
:102CC0000E94341E0895CF93DF93EC01898D8F3FCE
:102CD00029F0CE014A960E942B192AC08D898F3F78
:102CE00019F1288D413049F481E090E002C0880F4D
:102CF000991F6A95E2F7282B09C081E090E002C095
:102D0000880F991F6A95E2F780952823288F8F896D
:102D100060E00E94731E8E896D8941E0288D0E94BB
:102D20001A1F8F8961E002C0862F642F0E94731ED4
:102D3000DF91CF9108950F931F938C01F801668165
:102D400040E00E94631681E090E00E94CD1DC80122
:102D5000F801668141E00E94631681E090E00E94E4
:102D6000CD1DC801F801668140E00E94631684E62B
:102D700090E00E94CD1D1F910F910895CF92DF9298
:102D8000EF92FF920F931F93CF93DF93F82EE92ECC
:102D9000282F392FC9018C01C0E0D0E0C62EDD24D8
:102DA0008F2D9E2DF801678141E00E945216A601E9
:102DB0000C2E02C0559547950A94E2F741708F2D6D
:102DC0009E2DF80167810E94631621960F5F1F4FA9
:102DD000C830D10529F78F2D9E2D0E949B16DF91BB
:102DE000CF911F910F91FF90EF90DF90CF900895BA
:102DF000AF92BF92CF92DF92EF92FF920F931F9309
:102E0000CF93DF937C01B62EFC01818D8F3F09F4B7
:102E100068C08AE1C82ED12CCE0CDF1CC6010E94EE
:102E20002719782FF70140E050E0AB2DB0E001E02A
:102E300010E087819D01042E02C0359527950A94E4
:102E4000E2F721703070082E02C0220F331F0A945F
:102E5000E2F7C1E0D0E0580102C0AA0CBB1C8A9581
:102E6000E2F7C50180957823722B4F5F5F4F319653
:102E700044305105F1F68E01F701068002C0000FC3
:102E8000111F0A94E2F700950723C601602F0E94E4
:102E9000F91881E090E00E94CD1DCE01F701068077
:102EA00002C0880F991F0A94E2F7082BC601602F11
:102EB0000E94F91881E090E00E94CD1DF701068084
:102EC00002C0CC0FDD1F0A94E2F75E01A0940A2134
:102ED000C601602F0E94F91884E690E00E94CD1D83
:102EE00021C08701C0E0D0E0C62EDD24C701F80173
:102EF000678141E00E945216A6010C2E02C0559532
:102F000047950A94E2F74170C701F80167810E9472
:102F1000631621960F5F1F4FC430D10539F7C701E3
:102F20000E949B16DF91CF911F910F91FF90EF9020
:102F3000DF90CF90BF90AF9008951F93CF93DF9312
:102F4000EC01162F6C810E9463166D816F3F21F09A
:102F5000CE0140E00E9463168F8584FF05C0CE013C
:102F6000612F0E94BE160EC0612F70E094E075952F
:102F700067959A95E1F7CE010E94F816CE01612F70
:102F80000E94F816DF91CF911F91089541E00E94B1
:102F90009D1781E090E0089540E00E949D170895FC
:102FA000FC016089862F8460808B6C60CF010E9459
:102FB000CC170895DF93CF93CDB7DEB728970FB620
:102FC000F894DEBF0FBECDBF9C01FE013196A1E299
:102FD000B7E088E00D9001928150E1F7F901838913
:102FE000841710F4482F4150E42FF0E0EE0FFF1F3C
:102FF000EC0FFD1F8181680F6068C9010E94CC172A
:1030000028960FB6F894DEBF0FBECDBFCF91DF91EB
:10301000089561E00E94CC1780ED97E00E94CD1DDD
:103020000895FC01462F818D8F3F19F485898F3FCC
:1030300021F0CF0167E00E9463160895AF92BF921E
:10304000CF92DF92EF92FF920F931F93CF93DF9374
:10305000EC01B42EA22E698D6F3F71F17AE1E72E5B
:10306000F12CE80EF91EC7010E948119C70167E023
:1030700041E00E945519C70167E041E00E942B1909
:103080008E0154E0C52ED12CCC0EDD1ECE01F801F0
:10309000678141E00E9452160F5F1F4F0C151D05FE
:1030A000A9F7C7016C8141E00E945519C7016E81E3
:1030B00041E00E94551905C08D898F3F11F080E8CD
:1030C000888FF1E0FB1518F48F8588608F87BB8AA5
:1030D0001C8AAA2031F081E0B81619F48F8584602B
:1030E0008F8780E593EC0E94CD1DCE016C8140E07E
:1030F0000E946316CE016E8140E00E9463166D81CE
:103100006F3F21F0CE0140E00E9463166F8564FDA1
:103110001DC0CE0163E00E94F81684E991E10E948F
:10312000CD1DCE0163E00E94F81684E991E10E9472
:10313000CD1DCE0163E00E94F81686E990E00E9462
:10314000CD1DCE0162E00E94F81616C06062CE016D
:103150000E94CC1784E991E10E94CD1D6F856062C9
:10316000CE010E94CC1786E990E00E94CD1D6F85AC
:103170006062CE010E94CC176F856062CE010E9412
:10318000CC1784E0888BCE010E94D017CE010E941C
:10319000091882E0898BCE0166E00E94CC17DF918E
:1031A000CF911F910F91FF90EF90DF90CF90BF9044
:1031B000AF900895EF92FF920F931F93FC01F62EAC
:1031C000E42E04EA17E060816062C80170E00E94AA
:1031D000D119C8016F2D0E94531AC8016E2D0E948B
:1031E000531AC8010E94961A1F910F91FF90EF90F9
:1031F0000895462F69E00E94DA180895DF92EF9251
:10320000FF920F931F937C01D62E04EA17E0FC0176
:1032100060816062C80170E00E94D119C8016D2D03
:103220000E94531AC8010E94961AF70160816062D9
:10323000C80170E041E050E00E94A71AC8010E9456
:10324000E4191F910F91FF90EF90DF90089569E0CE
:103250000E94FE1808950F931F93CF93DF93EC0104
:10326000162F042F6830E0F40E942719282F013010
:1032700051F481E090E002C0880F991F1A95E2F79F
:10328000622F682B0AC081E090E002C0880F991F6E
:103290001A95E2F7682F60956223CE010E94F91813
:1032A000DF91CF911F910F9108950F931F93CF93AB
:1032B000DF93EC01162F042F6830F0F460E00E94D9
:1032C000FE18282F002351F481E090E002C0880FFF
:1032D000991F1A95E2F7422F482B0AC081E090E02F
:1032E00002C0880F991F1A95E2F7482F4095422394
:1032F000CE0160E00E94DA18DF91CF911F910F910B
:103300000895CF93DF93EC01683008F067E068839D
:1033100084EA97E00E94AB1A6881606284EA97E0D1
:1033200070E00E94D11984EA97E060E00E94531A8D
:1033300084EA97E06FEF0E94531A84EA97E060E016
:103340000E94531A84EA97E060E00E94531A84EACC
:1033500097E060E00E94531A84EA97E060E00E94E0
:10336000531A84EA97E060E00E94531A84EA97E0D7
:1033700060E00E94531A84EA97E060E00E94531ACA
:1033800084EA97E060E00E94531A84EA97E060E0E4
:103390000E94531A84EA97E00E94961ADF91CF9117
:1033A000089581E08093A307609380071092A1079E
:1033B0001092A207089520917F0730E080917E0748
:1033C000281B3109C901089540917E0780917F072C
:1033D000481718F02FEF3FEF0AC0E42FF0E0E25A51
:1033E000F84F8081282F30E04F5F40937E07C9015E
:1033F0000895E0917E0780917F07E81718F0EFEFBE
:10340000FFEF06C0F0E0E25AF84F8081E82FF0E0CD
:10341000CF01089508951092A7071092A60788EE8D
:1034200093E0A0E0B0E08093A8079093A907A09351
:10343000AA07B093AB078DE297E09093A50780931E
:10344000A4070895CF92DF92EF92FF920F931F93FC
:10345000CF93DF937C016B018A018091A3078823BE
:10346000A1F0C0E0D0E00DC0D701ED91FC91D601F4
:10347000AC0FBD1F0190F081E02DC7016C91099543
:103480002196C017D10780F304C0CB01642F0E949E
:10349000541BC801DF91CF911F910F91FF90EF90C6
:1034A000DF90CF900895DF93CF930F92CDB7DEB723
:1034B000FC0169838091A3078823C9F08091A2074A
:1034C000803238F081E090E09383828320E030E026
:1034D00015C08091A107E82FF0E0EF57F84F9981D0
:1034E00090838F5F8093A1078093A20705C0CE01D0
:1034F000019661E00E94541B21E030E0C9010F9069
:10350000CF91DF9108950F93062F8091800761E896
:1035100077E04091A20721E00E94FF1A1092A107D4
:103520001092A2071092A3070F91089561E00E94E4
:10353000831A0895413208F040E2862F6EE577E065
:103540000E94B61A10927E0780937F07089521E0AB
:103550000E949A1A089510927E0710927F07109287
:10356000A1071092A2070E94001D0895382F413232
:1035700010F040E042C08091B0078823E1F791E06D
:103580009093B0072093B2078FEF80931D0810929D
:10359000D80741504093D9074F5F9093B10780916E
:1035A000B107330F832B8093B1078091B30781302C
:1035B00041F41092B3078091B1078093BB0085EC72
:1035C00001C085EE8093BC008091B0078130E1F3AB
:1035D0008091D807841710F44091D80720E030E09C
:1035E0000AC0FB01E20FF31FD901A854B84F8C9118
:1035F00080832F5F3F4F2417A0F3842F08950F93EC
:103600001F93582F122F413210F081E04AC0809151
:10361000B0078823E1F782E08093B0070093B207F8
:103620008FEF80931D081092D8074093D907A8EB1D
:10363000B7E0FB0102C081918D938E2F861B84170A
:10364000D0F31092B1078091B107550F852B80936D
:10365000B1078091B307813041F41092B307809194
:10366000B1078093BB0085EC01C085EE8093BC0060
:10367000112321F08091B0078230E1F380911D0881
:103680008F3F11F480E00DC080911D08803211F44D
:1036900082E007C080911D08803311F084E001C0F2
:1036A00083E01F910F910895482F613210F081E05F
:1036B00008958091B007843011F082E008956093FE
:1036C000FB07AAEDB7E0842F9C01F90102C08191AC
:1036D0008D938E2F841B8617D0F380E008951F9260
:1036E0000F920FB60F9211242F933F934F935F9336
:1036F0006F937F938F939F93AF93BF93EF93FF93BA
:103700008091B90090E0887F90708036910509F42F
:10371000F2C081369105CCF58832910509F47BC061
:1037200089329105B4F48031910509F46FC081317B
:1037300091053CF4009709F447C1089709F04FC17F
:1037400065C08831910509F466C0809709F047C1CA
:1037500082C08034910509F4A4C08134910544F4F9
:103760008033910509F482C0C89709F038C189C037
:103770008035910509F489C08835910509F496C012
:103780008834910509F02BC1AEC08839910509F440
:1037900013C189399105ECF48837910509F4ABC060
:1037A000893791054CF48836910509F4A4C0803717
:1037B000910509F014C19FC08838910509F4FCC037
:1037C0008039910509F49DC08038910509F007C141
:1037D00098C0803B910509F4C6C0813B91054CF42B
:1037E000803A910509F49FC0883A910509F0F7C025
:1037F000BAC0803C910509F4E3C0883C910509F406
:10380000DFC0883B910509F0EAC0C2C08091B107D2
:103810008093BB00CFC09091D8078091D9079817AB
:1038200068F49091D807E92FF0E0E854F84F8081D0
:103830008093BB009F5F9093D807BCC08091B20774
:10384000882309F44BC085ED8093BC008091BC00B7
:1038500084FDFCCFC2C080E280931D0885ED80937B
:10386000BC008091BC0084FDFCCFB7C080E3809396
:103870001D0885ED8093BC008091BC0084FDFCCFC9
:10388000ACC088E380931D089BC08091D8079091BD
:10389000BB00E82FF0E0E854F84F90838F5F8093EF
:1038A000D8079091D8078091D90782C08091D80716
:1038B0009091BB00E82FF0E0E854F84F90838F5FC1
:1038C0008093D8078091B207882341F085ED8093DB
:1038D000BC008091BC0084FDFCCF7FC081E0809360
:1038E000B30784EA6EC085ED8093BC008091BC0074
:1038F00084FDFCCF72C083E08093B00710921C0857
:1039000059C080911C08803208F056C080911C0874
:103910009091BB00E82FF0E0E450F84F90838F5F68
:1039200080931C0847C080911C08803230F4E091DD
:103930001C08F0E0E450F84F108285ED8093BC0045
:103940008091BC0084FDFCCF1092B00760911C08F0
:10395000E091B607F091B7078CEF97E070E009951A
:1039600010921C082DC084E08093B0071092FA07D3
:103970001092FB07E091B407F091B507099580918B
:10398000FB07882329F481E08093FB071092DA0774
:103990009091FA07E92FF0E0E652F84F808180938A
:1039A000BB009F5F9093FA079091FA078091FB0705
:1039B000981710F485EC01C085E88093BC000FC017
:1039C00085EC8093BC0009C010921D0885ED8093A2
:1039D000BC008091BC0084FDFCCF1092B007FF9129
:1039E000EF91BF91AF919F918F917F916F915F9177
:1039F0004F913F912F910F900FBE0F901F901895F0
:103A00001092B00781E08093B2071092B30782E171
:103A100061E00E94731E83E161E00E94731EE9EB86
:103A2000F0E080818E7F808380818D7F808388E439
:103A30008093B80085E48093BC0008951F920F9294
:103A40000FB60F9211242F933F938F939F93AF93B1
:103A5000BF938091220890912308A0912408B091EF
:103A60002508309126080196A11DB11D232F2D5F39
:103A70002D3720F02D570196A11DB11D209326084A
:103A80008093220890932308A0932408B0932508DC
:103A900080911E0890911F08A0912008B0912108E4
:103AA0000196A11DB11D80931E0890931F08A0933D
:103AB0002008B0932108BF91AF919F918F913F91C2
:103AC0002F910F900FBE0F901F9018958FB7F894FD
:103AD0002091220830912308409124085091250814
:103AE0008FBFB901CA0108959B01AC017FB7F8945B
:103AF00080911E0890911F08A0912008B091210884
:103B000066B5A89B05C06F3F19F00196A11DB11DB8
:103B10007FBFBA2FA92F982F8827860F911DA11D2F
:103B2000B11D62E0880F991FAA1FBB1F6A95D1F7CC
:103B3000BC012DC0FFB7F89480911E0890911F081A
:103B4000A0912008B0912108E6B5A89B05C0EF3FE1
:103B500019F00196A11DB11DFFBFBA2FA92F982FF3
:103B600088278E0F911DA11DB11DE2E0880F991FBE
:103B7000AA1FBB1FEA95D1F7861B970B885E93405F
:103B8000C8F2215030404040504068517C4F2115D0
:103B900031054105510571F60895019739F0880FF7
:103BA000991F880F991F02970197F1F7089578944C
:103BB00084B5826084BD84B5816084BD85B5826032
:103BC00085BD85B5816085BDEEE6F0E080818160D0
:103BD0008083E1E8F0E010828081826080838081D0
:103BE00081608083E0E8F0E0808181608083E1EBA8
:103BF000F0E0808184608083E0EBF0E08081816090
:103C00008083EAE7F0E08081846080838081826045
:103C1000808380818160808380818068808310922E
:103C2000C1000895982F8E3008F09E5097708091B3
:103C3000F0068295880F880F807C892B80937C000A
:103C400080917A00806480937A0080917A0086FD6A
:103C5000FCCF2091780040917900942F80E030E0F3
:103C6000282B392BC9010895CF93DF93482F50E0BB
:103C7000CA0188549F4FFC0134914C555F4FFA01A3
:103C80008491882369F190E0880F991FFC01EA571D
:103C9000FF4FA591B491FC01E057FF4FC591D4911E
:103CA000662351F42FB7F8948C91932F9095892324
:103CB0008C93888189230BC0623061F42FB7F8940C
:103CC0008C91932F909589238C938881832B888363
:103CD0002FBF06C09FB7F8948C91832B8C939FBF06
:103CE000DF91CF910895482F50E0CA0184539F4F30
:103CF000FC012491CA0188549F4FFC0194914C55BA
:103D00005F4FFA013491332309F440C0222351F16B
:103D1000233071F0243028F42130A1F0223011F545
:103D200014C02630B1F02730C1F02430D9F404C0DB
:103D3000809180008F7703C0809180008F7D809379
:103D4000800010C084B58F7702C084B58F7D84BD9C
:103D500009C08091B0008F7703C08091B0008F7D43
:103D60008093B000E32FF0E0EE0FFF1FE057FF4F0E
:103D7000A591B4912FB7F894662321F48C91909576
:103D8000892302C08C91892B8C932FBF0895682FB3
:103D900070E0CB0184539F4FFC012491CB018854E8
:103DA0009F4FFC0144916C557F4FFB0194919923E7
:103DB00019F420E030E03CC0222351F1233071F0AF
:103DC000243028F42130A1F0223011F514C026301F
:103DD000B1F02730C1F02430D9F404C080918000C4
:103DE0008F7703C0809180008F7D8093800010C00A
:103DF00084B58F7702C084B58F7D84BD09C0809162
:103E0000B0008F7703C08091B0008F7D8093B000A9
:103E1000892F90E0880F991F86569F4FFC01A5912E
:103E2000B4918C9120E030E0842311F021E030E067
:103E3000C9010895BF92CF92DF92EF92FF920F9344
:103E40001F93CF93DF93E82EF62EB42EC7E0D0E079
:103E5000022F10E087E0C82ED12CBB2059F4B60108
:103E60006C1B7D0BC80102C0959587956A95E2F79A
:103E7000BC0107C0B8010C2E02C0759567950A9465
:103E8000E2F761708E2D0E94731E8F2D61E00E94FB
:103E9000731E8F2D60E00E94731E21979FEFCF3F0E
:103EA000D907D9F6DF91CF911F910F91FF90EF9035
:103EB000DF90CF90BF900895CF93DF930E94D71DDE
:103EC0000E94D405C0E0D0E00E9468152097E1F37D
:103ED0000E940000F9CFCF92DF92EF92FF920F93F2
:103EE0001F93CF93DF937C016B018A01C0E0D0E088
:103EF0000FC0D6016D916D01D701ED91FC9101903C
:103F0000F081E02DC7010995C80FD91F015010405D
:103F10000115110571F7CE01DF91CF911F910F911E
:103F2000FF90EF90DF90CF900895CF93DF93EC0157
:103F30006115710519F420E030E00FC0DB010D9030
:103F40000020E9F71197A61BB70BE881F9810280E1
:103F5000F381E02DAD0109959C01C901DF91CF915D
:103F600008950E94951F08955058BB27AA270ED088
:103F7000DFC19FD130F0A4D120F031F49F3F11F484
:103F80001EF45EC10EF4E095E7FB54C1E92FF2D1B7
:103F900080F3BA17620773078407950718F071F466
:103FA0009EF50AC20EF4E0950B2EBA2FA02D0B0140
:103FB000B90190010C01CA01A0011124FF27591B6E
:103FC00099F0593F50F4503E68F11A16F040A22F74
:103FD000232F342F4427585FF3CF469537952795E5
:103FE000A795F0405395C9F77EF41F16BA0B620BE4
:103FF000730B840BBAF09150A1F0FF0FBB1F661F2B
:10400000771F881FC2F70EC0BA0F621F731F841F6D
:1040100048F4879577956795B795F7959E3F08F093
:10402000B3CF9395880F08F09927EE0F9795879552
:104030000895DCD008F481E008954AD1E39589C160
:104040000CD076C13DD140F034D130F021F45F3F47
:1040500019F0F0C05111B1C1F3C08CD198F399237C
:10406000C9F35523B1F3951B550BBB27AA2762173C
:104070007307840738F09F5F5F4F220F331F441F81
:10408000AA1FA9F333D00E2E3AF0E0E830D09150B9
:104090005040E695001CCAF729D0FE2F27D0660FA6
:1040A000771F881FBB1F261737074807AB07B0E8E5
:1040B00009F0BB0B802DBF01FF2793585F4F2AF0FB
:1040C0009E3F510568F0B6C078C15F3FECF3983E63
:1040D000DCF3869577956795B795F7959F5FC9F758
:1040E000880F911D9695879597F90895E1E0660FE1
:1040F000771F881FBB1F621773078407BA0720F05A
:10410000621B730B840BBA0BEE1F88F7E0950895C2
:1041100004D06894B11151C1089534D188F09F57EB
:1041200090F0B92F9927B751A0F0D1F0660F771F03
:10413000881F991F1AF0BA95C9F712C0B13081F0E3
:104140003BD1B1E0089538C1672F782F8827B85F39
:1041500039F0B93FCCF3869577956795B395D9F744
:104160003EF490958095709561957F4F8F4F9F4F4E
:104170000895E89409C097FB3EF49095809570955A
:1041800061957F4F8F4F9F4F9923A9F0F92F96E9A3
:10419000BB279395F695879577956795B795F11118
:1041A000F8CFFAF4BB0F11F460FF1BC06F5F7F4FB5
:1041B0008F4F9F4F16C0882311F096E911C07723C7
:1041C00021F09EE8872F762F05C0662371F096E8D0
:1041D000862F70E060E02AF09A95660F771F881F9F
:1041E000DAF7880F9695879597F90895990F000843
:1041F000550FAA0BE0E8FEEF16161706E807F907B9
:10420000C0F012161306E407F50798F0621B730B53
:10421000840B950B39F40A2661F0232B242B252BD4
:1042200021F408950A2609F4A140A6958FEF811D77
:10423000811D089597F99F6780E870E060E0089518
:104240009FEF80EC0895DF93CF931F930F93FF921E
:10425000EF92DF927B018C01689405C0DA2EEF01AA
:10426000BED0FE01E894A5912591359145915591D7
:10427000AEF3EF018BDEFE019701A801DA9479F726
:10428000DF90EF90FF900F911F91CF91DF910895F4
:104290009F938F937F936F93FF93EF939B01AC0159
:1042A00092D0EF91FF91CFDF2F913F914F915F918E
:1042B0008AC000240A9416161706180609060895DF
:1042C00000240A9412161306140605060895B8CFA2
:1042D00059D0E8F3E894EFEFBB273FE048EC5FE705
:1042E0006B3D73078407950708F1FF279F57B25A64
:1042F0006A4D7F40894CF04032F4BE556542704FA4
:104300008643FF4F0894EE1F915030F0BB0F661F9D
:10431000771F881FFF1FEBCF9EE7882332F0BB0F6C
:10432000661F771F881F9A95C1F79395E095B4C0D3
:10433000092E0394000C11F4882352F0BB0F40F4B3
:10434000BF2B11F460FF04C06F5F7F4F8F4F9F4FF3
:104350000895EF93E0FF06C0A2EA2AED3FE049ECA2
:104360005FEB14DEE5DF0F90039401FC9058E8E664
:10437000F0E08ECF57FD9058440F551F59F05F3F26
:1043800071F04795880F97FB991F61F09F3F79F077
:1043900087950895121613061406551FF2CF4695F9
:1043A000F1DF08C0161617061806991FF1CF86957B
:1043B0007105610508940895E894BB27662777275F
:1043C000CB0197F908950BD0B3CF73DF28F078DFD6
:1043D00018F0952309F02ECF33CF1124EECFCADF8A
:1043E000A0F3959FD1F3950F50E0551F629FF00108
:1043F000729FBB27F00DB11D639FAA27F00DB11D61
:10440000AA1F649F6627B00DA11D661F829F2227E9
:10441000B00DA11D621F739FB00DA11D621F839F70
:10442000A00D611D221F749F3327A00D611D231F46
:10443000849F600D211D822F762F6A2F11249F5794
:1044400050408AF0E1F088234AF0EE0FFF1FBB1FB7
:10445000661F771F881F91505040A9F79E3F510556
:1044600070F0E8CEAACF5F3FECF3983EDCF3869580
:1044700077956795B795F795E7959F5FC1F7FE2B01
:10448000880F911D9695879597F908959F9320DF42
:104490000F9007FCEE5F5DCF9F3F49F0915028F4ED
:1044A000869577956795B7959F5F80389F4F880F62
:1044B0009695879597F90895629FD001739FF001B3
:1044C000829FE00DF11D649FE00DF11D929FF00DA4
:1044D000839FF00D749FF00D659FF00D9927729FDB
:1044E000B00DE11DF91F639FB00DE11DF91FBD0166
:1044F000CF0111240895AA1BBB1B51E107C0AA1FBD
:10450000BB1FA617B70710F0A61BB70B881F991F74
:104510005A95A9F780959095BC01CD01089597FB18
:10452000092E07260AD077FD04D0E5DF06D000204B
:104530001AF4709561957F4F0895F6F790958195DF
:104540009F4F0895A1E21A2EAA1BBB1BFD010DC0AF
:10455000AA1FBB1FEE1FFF1FA217B307E407F50733
:1045600020F0A21BB30BE40BF50B661F771F881F0F
:10457000991F1A9469F760957095809590959B01A5
:10458000AC01BD01CF01089597FB092E05260ED081
:1045900057FD04D0D7DF0AD0001C38F45095409561
:1045A000309521953F4F4F4F5F4F0895F6F7909507
:1045B0008095709561957F4F8F4F9F4F0895EE0FB7
:1045C000FF1F0590F491E02D09942F923F924F9296
:1045D0005F926F927F928F929F92AF92BF92CF9293
:1045E000DF92EF92FF920F931F93CF93DF93CDB79C
:1045F000DEB7CA1BDB0B0FB6F894DEBF0FBECDBF14
:1046000009942A88398848885F846E847D848C84E4
:104610009B84AA84B984C884DF80EE80FD800C81ED
:104620001B81AA81B981CE0FD11D0FB6F894DEBFD0
:0C4630000FBECDBFED010895F894FFCF40
:10463C00322E2051756164202000332E2053696E78
:10464C0065202000342E2043756269632000312ED2
:10465C00204C696E65617200322E204561736520B5
:10466C004F75742000332E2045617365496E4F756C
:10467C007400312E204561736520496E2020004E58
:10468C006F200059657300322E2053657474696E67
:10469C0067204200312E2053657474696E67204187
:1046AC000020002A00202020536C6964656C617026
:1046BC007365002056657273696F6E20302E352E2F
:1046CC00300020202020002020202020202020200E
:1046DC00202020202020200050726F677265737399
:1046EC003A2025303264252520200025732025739F
:1046FC002020002530346420202020202020202061
:10470C002020200025303464206D696E757465732B
:10471C002020200025303464207365636F6E647331
:10472C00202020200025303275207365636F6E6465
:10473C0073202020002564207365636F6E647320E2
:10474C002020002564206D696E757465732020200F
:10475C000025732020202020202020202020202015
:10476C0000257320202020202020002573202020CD
:10477C0020004D6F76656D656E74204469723A2029
:10478C002020004D6F766520526967687420746F25
:10479C002020200073746172742074696D656C61E3
:1047AC007073653E005374617274696E6720544C6B
:1047BC002E2E2E20200053656C20746F2063616EAA
:1047CC0063656C20202000256420202020202020E0
:1047DC0020202020202020007374617274205254F9
:1047EC00206D6F766520203E005374617274696E83
:1047FC0067204D6F76652E2E2E00583A2534642096
:10480C0053656C3A25732020202000593A253464D6
:10481C00204D3A257320453A25732020004D6178B0
:10482C00204C656E3A2530356C6420202000536591
:10483C006C656374204D6F64653A20202020003134
:10484C002E54696D656C61707365202020203E00CC
:10485C00322E5265616C74696D6520202020203EDB
:10486C0000332E436F6D6D616E64657220202020C5
:10487C003E00342E446972656374696F6E2020208B
:10488C00203E00352E4465627567202020202020B4
:10489C0020203E003E3E3E2054696D656C61707375
:1048AC006520202000486F6C642053656C20746F69
:1048BC002065786974004E756D626572206F662094
:1048CC0053686F74733A0000000000000000000091
:1048DC000000000000000000544C2044757261740C
:1048EC00696F6E3A202020200000000000000000BC
:1048FC000000000000000000000041766720496EB7
:10490C0074657276616C3A20202000000000000073
:10491C0000000000000000000000000053746172F1
:10492C00742044656C61793A20202020000000003E
:10493C0000000000000000000000000000004C6FB0
:10494C006E6765737420536875747465723A0000F1
:10495C00000000000000000000000000000000004B
:10496C00536C656570206274772073686F74732064
:10497C00000000000000000000000000000000002B
:10498C0000004261636B6C69676874206F6E3F3A1C
:10499C0020200000000000000000000000000000CB
:1049AC0000000000536C6964652045617365204606
:1049BC00756E633A0000000000000000000000006B
:1049CC00000000000000536C69646520456173654C
:1049DC0020437572763A00000000000000000000D1
:1049EC00000000000000000054696D6520456173F3
:1049FC00652046756E633A20000000000000000040
:104A0C000000000000000000000054696D652043A8
:104A1C00757276652046756E633A000000000000E2
:104A2C000000000000000000000000004D6F7665E3
:104A3C006D656E74204469723A202020004D6F74AD
:104A4C006F72202D2D2D2D2D3E20456E6400456E50
:104A5C0064202D2D2D2D2D3E204D6F746F72005422
:104A6C00696D656C6170736520616374697665004E
:104A7C00000000000000000000000000000000002A
:104A8C000054696D656C6170736520446F6E6520B0
:104A9C002000486F6C642053656C20746F2065781F
:104AAC006974003E3E3E20436F6D6D616E646572AD
:104ABC0020202000486F6C642053656C20746F209C
:104ACC0065786974002020436F6D6D616E64204DB4
:104ADC006F64652020004D6F746F72203C2D2D2D5E
:104AEC002D3E20456E6400456E64203C2D2D2D2DF1
:104AFC003E204D6F746F7200526576657273696EED
:104B0C006720446972203C3E003E3E3E2044697260
:104B1C00656374696F6E20202000486F6C642053AD
:104B2C00656C20746F20657869740053657420453A
:104B3C004550524F4D204469723A2000000000004D
:104B4C00000000000000000000000000003E3E3E9F
:104B5C00204465627567204D6F6465202000486FA6
:104B6C006C642053656C20746F2065786974000048
:104B7C000000000000000000000000000000000029
:104B8C000000000000000000000000000000000019
:104B9C00004F00500058003E3E3E204552524F52AE
:104BAC00202020202020200052657475726E696EC2
:104BBC006720486F6D652020003E3E3E5265616C5B
:104BCC0074696D65204D6F646500486F6C6420538B
:104BDC00656C20746F2065786974000101010E0109
:104BEC00F087F0000F270500E80364003075010022
:104BFC000000100E00000A00000001015802000025
:104C0C003C0000008051010001010401010301017D
:104C1C00040101030201070100020100010005006B
:104C2C0001000000003E0366039A03000000003DF3
:104C3C00033D033D03000000002E045204890400D0
:104C4C0000000043056C05030500000000C6176B4F
:104C5C001F000040001400540000000000531A22F2
:0A4C6C001ADB19E419F9190A1A00FD
:00000001FF
