:100000000C9472000C949A000C949A000C949A0030
:100010000C949A000C949A000C949A000C949A00F8
:100020000C949A000C949A000C949A000C949A00E8
:100030000C949A000C949A000C949A000C949A00D8
:100040000C94AC180C949A000C949A000C949A009E
:100050000C949A000C949A000C949A000C949A00B8
:100060000C94FD160C949A0005A84CCDB2D44EB950
:100070003836A9020C50B9918688083CA6AAAA2A4B
:10008000BE000000803F00000000240027002A007E
:1000900000000000250028002B00000000002300C5
:1000A00026002900040404040404040402020202D9
:1000B000020203030303030301020408102040802B
:1000C00001020408102001020408102000000007AB
:1000D0000002010000030406000000000000000010
:1000E0008A05991511241FBECFEFD8E0DEBFCDBF22
:1000F00015E0A0E0B1E0E8E5FDE302C005900D9257
:10010000A63EB107D9F716E0A6EEB5E001C01D92F4
:10011000A23DB107E1F710E0C4EED0E004C02297A1
:10012000FE010E946F1EC03ED107C9F70E94EA1A65
:100130000C94AA1E0C940000AEE0B0E0E2EAF0E0FD
:100140000C94811E0D891E8986E08C831A83098395
:100150008FEF9FE79E838D839E01275E3F4FCE01E9
:1001600001966F89788DA9010E94C0002F81388582
:10017000020F131FF80110822E96E4E00C949D1ECE
:10018000ABE0B0E0E6ECF0E00C94731E3C012B0118
:100190005A01FC0117821682838181FD03C06FEF33
:1001A0007FEFC6C19AE0892E1E010894211C311CE4
:1001B000F3012381F20123FD859123FF81912F011A
:1001C000882309F4B2C1853239F423FD859123FFD8
:1001D00081912F01853229F490E0B3010E94B3028E
:1001E000E7CF982FFF24EE249924FFE1FF15D0F0EC
:1001F0009B3269F09C3228F4903259F0933291F49A
:100200000EC09D3249F0903369F441E024C052E0C1
:10021000F52A84E0F82A28C098E0F92A25C0E0E110
:10022000FE2A22C0F7FC29C0892F80538A3070F43F
:10023000F6FE05C0989C902C1124980E15C0E89CE1
:10024000E02C1124E80EF0E2FF2A0EC09E3229F4C1
:10025000F6FC6BC140E4F42A07C09C3619F450E860
:10026000F52A02C0983649F4F20123FD959123FF47
:1002700091912F01992309F0B8CF892F85548330AC
:1002800018F08052833038F444E050E0A40EB51EDC
:100290005FE359830FC0933631F0933779F093358C
:1002A00009F056C020C0F5018081898342E050E00A
:1002B000A40EB51E610101E010E012C0F501C0807E
:1002C000D180F6FC03C06FEF7FEF02C0692D70E0B4
:1002D00042E050E0A40EB51EC6010E94A8028C01A7
:1002E0005FE7F52214C0F501C080D180F6FC03C0A1
:1002F0006FEF7FEF02C0692D70E042E050E0A40E86
:10030000B51EC6010E949D028C0150E8F52AF3FE3D
:1003100007C01AC080E290E0B3010E94B302EA94E1
:100320008E2D90E008171907A8F30EC0F601F7FC10
:100330008591F7FE81916F0190E0B3010E94B302B5
:10034000E110EA94015010400115110579F7EAC057
:10035000943611F0993669F5F7FE08C0F501208151
:1003600031814281538184E090E00AC0F5018081AF
:1003700091819C01442737FD4095542F82E090E005
:10038000A80EB91E9FE6F92257FF09C05095409567
:10039000309521953F4F4F4F5F4FE0E8FE2ACA014D
:1003A000B901A1012AE030E00E94DF02D82ED21864
:1003B00040C0953729F41F2D1F7E2AE030E01DC074
:1003C0001F2D197F9F3661F0903720F4983509F082
:1003D000ACC00FC0903739F0983709F0A6C004C000
:1003E00028E030E00AC0106114FD146020E130E024
:1003F00004C014FD166020E132E017FF08C0F501CB
:10040000608171818281938144E050E008C0F501F0
:1004100080819181BC0180E090E042E050E0A40E38
:10042000B51EA1010E94DF02D82ED2188FE7F82E48
:10043000F122F6FE0BC05EEFF522D91438F4F4FE7B
:1004400007C0F2FC05C08FEEF82202C01D2D01C0CE
:10045000192DF4FE0DC0FE01ED0DF11D80818033DC
:1004600019F499EEF92208C01F5FF2FE05C003C01F
:100470008F2D867809F01F5F0F2DF3FC14C0F0FE5E
:100480000FC01E1510F09D2C0BC09D2C9E0C911AB8
:100490001E2D06C080E290E0B3010E94B3021F5FF0
:1004A0001E15C0F304C01E1510F4E11A01C0EE249D
:1004B00004FF0FC080E390E0B3010E94B30202FF8B
:1004C0001DC001FD03C088E790E00EC088E590E004
:1004D0000BC0802F867891F001FF02C08BE201C033
:1004E00080E2F7FC8DE290E0B3010E94B30206C007
:1004F00080E390E0B3010E94B3029A94D914C0F350
:10050000DA94F101ED0DF11D808190E0B3010E94BC
:10051000B302DD20A9F706C080E290E0B3010E949B
:10052000B302EA94EE20C1F743CEF30166817781EE
:10053000CB012B96E2E10C948F1EFC0105906150DB
:1005400070400110D8F7809590958E0F9F1F0895E9
:10055000FC016150704001900110D8F78095909592
:100560008E0F9F1F08950F931F93CF93DF938C01DE
:10057000EB018B8181FF1BC082FF0DC02E813F816B
:100580008C819D812817390764F4E881F9810193F2
:10059000F983E88306C0E885F985802F0995892BC2
:1005A00031F48E819F8101969F838E8302C00FEF6D
:1005B0001FEFC801DF91CF911F910F910895FA01AC
:1005C000AA27283051F1203181F1E8946F936E7F92
:1005D0006E5F7F4F8F4F9F4FAF4FB1E03ED0B4E083
:1005E0003CD0670F781F891F9A1FA11D680F791FC4
:1005F0008A1F911DA11D6A0F711D811D911DA11DD5
:1006000020D009F468943F912AE0269F11243019E4
:10061000305D3193DEF6CF010895462F4770405D7F
:100620004193B3E00FD0C9F7F6CF462F4F70405D2E
:100630004A3318F0495D31FD4052419302D0A9F789
:10064000EACFB4E0A6959795879577956795BA9583
:10065000C9F700976105710508959B01AC010A2E49
:1006600006945795479537952795BA95C9F7620F20
:10067000731F841F951FA01D08950895CF92DF92C8
:10068000EF92FF920F931F936C01CB01BA01F60119
:1006900026813781408551850E94AE1B7B018C01EC
:1006A000F60122813381448155810E94711DA80188
:1006B00097010E94711DA80197010E94711D1F9151
:1006C0000F91FF90EF90DF90CF900895CF92DF923F
:1006D000EF92FF920F931F936C01CB01BA01F601C9
:1006E00026813781408551850E94AE1B20E030E095
:1006F00040E85FE30E94421B7B018C01A801970147
:100700000E94711DA80197010E94711D20E030E038
:1007100040E85FE30E94431BF6012281338144815C
:1007200055810E94711D1F910F91FF90EF90DF90F6
:10073000CF900895AF92BF92CF92DF92EF92FF9247
:100740000F931F93CF93DF93EC017A018B016E819E
:100750007F818885998520E030E040E05FE30E945A
:10076000711D9B01AC01C801B7010E94AE1B7B014A
:100770008C0120E030E040E85FE30E94A71B882363
:10078000ACF46A817B818C819D8120E030E040E087
:100790005FE30E94711DA80197010E94711DA801CD
:1007A00097010E94711DA80197012AC0C801B701D5
:1007B00020E030E040E050E40E94421B7B018C01CD
:1007C0006A817B818C819D8120E030E040E05FE3A5
:1007D0000E94711D5B016C01C801B701A80197015E
:1007E0000E94711DA80197010E94711D20E030E058
:1007F00040E050E40E94431B9B01AC01C601B501DF
:100800000E94711DE62F2E2F372F482F592FB90127
:10081000CA01DF91CF911F910F91FF90EF90DF9070
:10082000CF90BF90AF900895FC018CEA95E0918342
:10083000808380E090E0A0E0B0E082839383A48393
:10084000B5830895FC0146835783608771870895B7
:10085000FC0142835383648375830895CF92DF92B2
:10086000EF92FF920F931F936C01CB01BA01F60137
:1008700026813781408551850E94AE1B7B018C010A
:10088000F60122813381448155810E94711DA801A6
:1008900097010E94711D1F910F91FF90EF90DF90C3
:1008A000CF900895AF92BF92CF92DF92EF92FF92D6
:1008B0000F931F936C01CB01BA01F601268137819A
:1008C000408551850E94AE1B7B018C01F60162813F
:1008D0007381848195819058A80197010E94711DB0
:1008E0005B016C01C801B70120E030E040E050E45A
:1008F0000E94421B9B01AC01C601B5010E94711D03
:100900001F910F91FF90EF90DF90CF90BF90AF902D
:100910000895AF92BF92CF92DF92EF92FF920F9322
:100920001F93CF93DF93EC017A018B016E817F815E
:100930008885998520E030E040E05FE30E94711DEA
:100940009B01AC01C801B7010E94AE1B7B018C0169
:1009500020E030E040E85FE30E94A71B88238CF48E
:100960006A817B818C819D8120E030E040E05FE303
:100970000E94711DA80197010E94711DA801970195
:100980002EC0C801B70120E030E040E85FE30E94DC
:10099000421B7B018C016A817B818C819D8120E0DF
:1009A00030E040E05FEB0E94711D5B016C01C8010B
:1009B000B70120E030E040E050E40E94421B9B0180
:1009C000AC01C801B7010E94711D20E030E040E891
:1009D0005FE30E94421B9B01AC01C601B5010E946E
:1009E000711DE62F2E2F372F482F592FB901CA011D
:1009F000DF91CF911F910F91FF90EF90DF90CF90FB
:100A0000BF90AF900895AF92BF92CF92DF92EF92D6
:100A1000FF920F931F936C01CB01BA012BED3FE0C6
:100A200049E450E40E94711DF6012681378140851A
:100A300051850E94AE1B0E94AB1B7B018C01F6010D
:100A4000628173818481958120E030E040E05FEB3A
:100A50000E94711D5B016C01C801B70120E030E00C
:100A600040E85FE30E94421B9B01AC01C601B50157
:100A70000E94711D1F910F91FF90EF90DF90CF901A
:100A8000BF90AF900895EF92FF920F931F93FC01D8
:100A9000E280F38004811581CB01BA012681378180
:100AA000408551850E94AE1B2BED3FE049EC5FE392
:100AB0000E94711D0E94AB1B9B01AC01C801B701D4
:100AC00090580E94711DA80197010E94431B1F911D
:100AD0000F91FF90EF9008950F931F938C01CB011E
:100AE000BA01F80126813781408551850E94AE1BED
:100AF0002BED3FE049EC5FE30E94711D0E94D41D85
:100B0000F80122813381448155810E94711D1F911A
:100B10000F91089586EE95E060E00E94D51108954A
:100B200089E060E00E94011A0895CF92DF92EF926F
:100B3000FF920F931F938C016B0186EEE82E85E0E8
:100B4000F82EC70160E040E00E947513C701B801AC
:100B50000E943F1BC70160E041E00E947513C7017E
:100B6000B6010E943F1B1F910F91FF90EF90DF9005
:100B7000CF90089587E061E00E94011A66E970E075
:100B800080E090E00E94021987E060E00E94011A74
:100B9000089589E061E00E94011A62E070E080E05F
:100BA00090E00E94021908950F931F9382E061E084
:100BB0000E94C21983E061E00E94C21989E061E0ED
:100BC0000E94C21989E061E00E94011A87E061E099
:100BD0000E94C21906EE15E0C80160E142E020E083
:100BE0000E94AC13C80167E571E00E943F1BC80179
:100BF00060E041E00E947513C80165E671E00E9463
:100C00003F1B68EB7BE080E090E00E940219C80186
:100C10000E94A4138AE062E00E94C21984E060E0AE
:100C20000E94C21986E060E00E94C2191F910F91D4
:100C3000089581E00E94A01908950E94190620E0FD
:100C4000C2970CF421E0822F08950E94190620E03B
:100C5000895E93400CF021E0822F089580E00E948D
:100C6000A01908950E942E0620E0C2970CF421E0FE
:100C7000822F08950E942E0620E0895E93400CF09A
:100C800021E0822F0895CF93DF93EC0180E00E9452
:100C9000A0198955924084F0BE01882777FD809580
:100CA000982F0E94021980E00E94A0198955924055
:100CB0000CF442C022E041C080E00E94A01980599B
:100CC000914084F4BE01882777FD8095982F0E947B
:100CD000021980E00E94A01920E0805991406CF533
:100CE00021E02BC081E00E94A019895592407CF040
:100CF000BE01882777FD8095982F0E94021981E018
:100D00000E94A01989559240BCF023E016C081E0F2
:100D10000E94A019805991407CF4BE01882777FD7C
:100D20008095982F0E94021981E00E94A019805995
:100D3000914014F424E001C020E0822FDF91CF9194
:100D400008958AE00E94551A20E0892B09F421E0D9
:100D5000822F0895AF92BF92CF92DF92EF92FF92CF
:100D60000F931F937A0100D000D000D0CDB6DEB62D
:100D70000894C11CD11C2FE5A22E24E0B22EEDB7A1
:100D8000FEB7B282A1822AE831E0F60133832283E2
:100D900024E630E040E050E00E94EA1D0027F7FC26
:100DA0000095102FA80197010E94301EF60135838F
:100DB00024830E949C008DB79EB706960FB6F894C8
:100DC0009EBF0FBE8DBF8EE494E0B5010E949505D5
:100DD0001F910F91FF90EF90DF90CF90BF90AF9059
:100DE0000895EF92FF920F931F937B018C019A015C
:100DF000CA010197029710F480E006C023503040EA
:100E00002230310538F481E00E94A01990939605B4
:100E1000809395058091950590919605825C91400F
:100E20008536910560F18091050690910606A091A6
:100E30000706B09108060097A105B105A9F00E9428
:100E4000F418E0E02091050630910606409107066F
:100E500050910806621B730B840B950BE616F70680
:100E600008071907A8F013C00E94F418609305063C
:100E700070930606809307069093080608C01092A8
:100E80000506109206061092070610920806E1E089
:100E90008E2F1F910F91FF90EF900895CF93DF93C6
:100EA000EC018AE00E94551A882389F58091010699
:100EB00090910206A0910306B09104060097A10547
:100EC000B105D1F00E94F418E0E0209101063091C4
:100ED00002064091030650910406621B730B840BBB
:100EE000950B9E01442737FD4095542F2617370751
:100EF00048075907A8F013C00E94F4186093010630
:100F000070930206809303069093040608C0109223
:100F10000106109202061092030610920406E1E008
:100F20008E2FDF91CF9108956F927F928F929F9233
:100F3000AF92BF92CF92DF92EF92FF920F931F93E7
:100F4000CF93DF93E62E3C0197FF04C066247724FD
:100F5000681A790A60E0181619060CF461E082E05C
:100F60000E94011A6E2D70E080E090E00E94471C04
:100F700020E030E048EC52E40E94AE1B9B01AC0143
:100F800060E070E080E89FE30E94AE1B20E030E06C
:100F90004CE852E40E94711D7B018C014301959441
:100FA000879495948794B401660F771F660F771F17
:100FB000680D791D882777FD8095982F0E94491C20
:100FC0009B01AC01C801B7010E94431B5B016C018E
:100FD000C0E0D0E01FC0C601B50120E030E040EA2B
:100FE00050E40E94421B5B016C0183E061E00E94BF
:100FF000011AC601B5010E941B1C7B018C01CB01AB
:101000000E945B1983E060E00E94011AC7010E9400
:101010005B192196C815D905F4F2C401880F991FF0
:10102000681A790AC0E0D0E015C083E061E00E9450
:10103000011AC601B5010E941B1C7B018C01CB016A
:101040000E945B1983E060E00E94011AC7010E94C0
:101050005B192196C615D70544F3C0E0D0E01FC048
:10106000C601B50120E030E040EA50E40E94431B95
:101070005B016C0183E061E00E94011AC601B501C9
:101080000E941B1C7B018C01CB010E945B1983E039
:1010900060E00E94011AC7010E945B192196C815E1
:1010A000D905F4F2DF91CF911F910F91FF90EF904E
:1010B000DF90CF90BF90AF909F908F907F906F9078
:1010C00008952F923F924F925F926F927F928F92EC
:1010D0009F92AF92BF92CF92DF92EF92FF920F93C7
:1010E0001F93DF93CF93CDB7DEB7AD970FB6F894CC
:1010F000DEBF0FBECDBF88A71B017B010027F7FC19
:101100000095102FCA01B901A80197010E94301E55
:1011100029013A014E010894811C911CC4010E94CE
:10112000140486EB95E09A838983C801B7010E9475
:10113000491C6B017C01C401B701A6010E94220475
:10114000609167057091680580E090E00E94471CFF
:10115000AB01BC01C4010E9428046BE0A62EB12C97
:10116000AC0EBD1EC5010E94140480EC95E09C8766
:101170008B87C501B701A6010E9422046091670513
:101180007091680580E090E00E94471CAB01BC01B3
:10119000C5010E9428048E010B5E1F4FC8010E94EA
:1011A000140482EA95E09E8B8D8BC801B701A601DD
:1011B0000E942204609167057091680580E090E0CC
:1011C0000E94471CAB01BC01C8010E942804809109
:1011D000670590916805B1010E94091E7B0160912D
:1011E0007D0570917E0580917F059091800528EEA8
:1011F00033E040E050E00E94EA1D0E9402191BA269
:10120000CC24DD2421E030E040E050E02F8F38A3F3
:1012100049A35AA3ADA66B2C702EA12EB82C892CF5
:10122000C201AA2797FDA095BA2F89A79AA7ABA7B5
:10123000BCA795C10E94F4186CA37DA38EA39FA3A5
:101240006F8D78A189A19AA1A1010E94AA060E948E
:10125000BA0560916F057091700580E090E00E9482
:10126000021980918E05833009F466C0843009F438
:10127000C3C0823009F028C180919105823011F1FC
:101280008330E9F1813009F01FC1B801882777FD6B
:101290008095982F0E94491CAB01BC018B2D982D85
:1012A0000E942E047B018C01B601882777FD809572
:1012B000982F0E94491CAB01BC018B2D982D0E94D8
:1012C0002E04F9C0B801882777FD8095982F0E94D9
:1012D000491CAB01BC018B2D982D0E9452047B014F
:1012E0008C01B601882777FD8095982F0E94491CB4
:1012F000AB01BC018B2D982D0E945204DCC0B801BB
:10130000882777FD8095982F0E94491CAB01BC016E
:101310008B2D982D0E9489047B018C01B6018827B2
:1013200077FD8095982F0E94491CAB01BC018B2D45
:10133000982D0E948904BFC080919105823011F1DF
:101340008330E9F1813009F0BFC0B801882777FD0B
:101350008095982F0E94491CAB01BC018DA5962D4C
:101360000E9443057B018C01B601882777FD80959B
:10137000982F0E94491CAB01BC018DA5962D0E949F
:10138000430599C0B801882777FD8095982F0E9462
:10139000491CAB01BC018DA5962D0E946C057B01FB
:1013A0008C01B601882777FD8095982F0E94491CF3
:1013B000AB01BC018DA5962D0E946C057CC0B801C7
:1013C000882777FD8095982F0E94491CAB01BC01AE
:1013D0008DA5962D0E9403057B018C01B6018827FF
:1013E00077FD8095982F0E94491CAB01BC018DA50B
:1013F000962D0E9403055FC080919105823011F106
:101400008330E9F1813009F05FC0B801882777FDAA
:101410008095982F0E94491CAB01BC01872D9A2D05
:101420000E943E037B018C01B601882777FD8095E1
:10143000982F0E94491CAB01BC01872D9A2D0E9458
:101440003E0339C0B801882777FD8095982F0E9408
:10145000491CAB01BC01872D9A2D0E9466037B01BC
:101460008C01B601882777FD8095982F0E94491C32
:10147000AB01BC01872D9A2D0E9466031CC0B801E8
:10148000882777FD8095982F0E94491CAB01BC01ED
:10149000872D9A2D0E949A037B018C01B601882723
:1014A00077FD8095982F0E94491CAB01BC01872DC8
:1014B0009A2D0E949A039B01AC01C801B7010E94BA
:1014C000421B0E94161C7B0180918105813011F422
:1014D0000E94C90598A5923020F0F094E194F1089B
:1014E000F394C7016FE00E949407809181058130D9
:1014F00011F40E9490050E94A106882311F41BA2FA
:1015000005C0ABA1AF5FABA3A33078F50E94F41880
:101510002CA13DA14EA15FA1621B730B840B950B07
:1015200029A53AA54BA55CA5621773078407950703
:1015300040F4261B370B480B590BCA01B9010E9416
:1015400002190894C11CD11C8F8D98A1A9A1BAA120
:101550000196A11DB11D8F8F98A3A9A3BAA30F8DCA
:1015600018A1201631060CF065CE0E94C905AD9673
:101570000FB6F894DEBF0FBECDBFCF91DF911F91A4
:101580000F91FF90EF90DF90CF90BF90AF909F9022
:101590008F907F906F905F904F903F902F90089525
:1015A0000F931F930091690510916A056091820560
:1015B00070918305809184059091850528EE33E034
:1015C00040E050E00E94EA1D9B01AC01809194052F
:1015D000B8010E94610881E08093640580E794E08F
:1015E00061E874E00E9495051F910F910895EF92B4
:1015F000FF920F931F936630710509F48EC2673016
:101600007105C4F46330710509F407C164307105D4
:1016100044F46130710539F16230710509F0B5C3E8
:1016200077C06430710509F43BC16530710509F07C
:10163000ACC399C16930710509F469C36A30710599
:101640004CF46730710509F4B2C26830710509F0D5
:101650009CC309C36A30710509F488C36B307105F6
:1016600009F093C38AC32091690530916A05181661
:1016700019064CF44B3051051CF481E090E010C089
:101680008AE090E00DC0892B19F480E090E008C05A
:101690004B3051051CF48FEF9FEF02C086EF9FEF98
:1016A000820F931F40916D0550916E0520916B053F
:1016B00030916C052817390714F49A0104C0841777
:1016C00095070CF09C0130936A052093690500D0C2
:1016D00000D000D0EDB7FEB731960CE113E0ADB706
:1016E000BEB712961C930E9311978DE991E09383E8
:1016F0008283358324830E949C00EDB7FEB7369623
:101700000FB6F894FEBF0FBEEDBF8BE093E0FDC2B5
:10171000E0908205F0908305009184051091850585
:10172000181619064CF44B3051051CF421E030E03A
:1017300010C02AE030E00DC0892B19F420E030E021
:1017400008C04B3051051CF42FEF3FEF02C026EFCD
:101750003FEF8CE390E0AC01249FC001259F900DEA
:10176000349F900D11249C01442737FD4095542F40
:101770002E0D3F1D401F511F8091860590918705BA
:10178000E0918A05F0918B05E217F30714F4FC0150
:1017900004C0281739070CF0F901BF01882777FD2D
:1017A0008095982F609382057093830580938405BC
:1017B00090938505ADB7BEB718970FB6F894BEBF26
:1017C0000FBEADBF0DB71EB70F5F1F4FEEE3EE2E7E
:1017D000E3E0FE2E1296FC92EE9211972EEA31E093
:1017E000F801338322832CE330E040E050E00E9494
:1017F000521ED80114962D933D934D935C931797E9
:101800000E949C00EDB7FEB738960FB6F894FEBF65
:101810000FBEEDBF8DE293E041C02DB73EB728501B
:1018200030400FB6F8943EBF0FBE2DBF0DB71EB7A8
:101830000F5F1F4F70E6E72E73E0F72EADB7BEB710
:101840001296FC92EE9211978EEB91E0F801938341
:1018500082832091690530916A05442737FD4095C0
:10186000542F609182057091830580918405909139
:1018700085050E94521ED80114962D933D934D93D9
:101880005C9317970E949C00EDB7FEB738960FB691
:10189000F894FEBF0FBEEDBF8FE493E0B7016AC2BC
:1018A00060916F0570917005181619064CF44B3055
:1018B00051051CF421E030E010C02AE030E00DC0FA
:1018C000892B19F420E030E008C04B3051051CF49E
:1018D0002FEF3FEF02C026EF3FEF88EE93E0289F07
:1018E000A001299F500D389F500D1124460F571FFE
:1018F0008091710590917205209173053091740566
:101900002417350714F49C0104C0481759070CF03C
:101910009A0120936F053093700500D000D000D05D
:10192000EDB7FEB7319604EA13E0ADB7BEB7129635
:101930001C930E9311978FEC91E093838283C901DE
:1019400068EE73E00E94091E758364830E949C0008
:10195000EDB7FEB736960FB6F894FEBF0FBEEDBFDB
:1019600083E993E0D2C1E0907D05F0907E0500917F
:101970007F0510918005FCE3EF16F10401051105C8
:10198000F8F4181619064CF44B3051051CF421E0FC
:1019900030E010C02AE030E00DC0892B19F420E0BF
:1019A00030E008C04B3051051CF42FEF3FEF02C070
:1019B00026EF3FEFC901AA2797FDA095BA2F27C0B0
:1019C000181619064CF44B3051051CF421E030E098
:1019D00010C02AE030E00DC0892B19F420E030E07F
:1019E00008C04B3051051CF42FEF3FEF02C026EF2B
:1019F0003FEF8CE390E0AC01249FC001259F900D48
:101A0000349F900D1124AA2797FDA095BA2F8E0D13
:101A10009F1DA01FB11F80937D0590937E05A0930D
:101A20007F05B093800520917D0530917E05409122
:101A30007505509176058091790590917A05821708
:101A4000930714F4CA0104C0241735070CF0C90128
:101A50009C01442737FD4095542F20937D053093FA
:101A60007E0540937F055093800582E893E02C33F8
:101A7000310541055105D8F46DB77EB76850704007
:101A80000FB6F8947EBF0FBE6DBFEDB7FEB73196AF
:101A9000ADB7BEB712969C938E9311978FED91E0E0
:101AA00093838283248335834683578327C06DB70E
:101AB0007EB7685070400FB6F8947EBF0FBE6DBF02
:101AC0000DB71EB70F5F1F4FADB7BEB712969C93F1
:101AD0008E9311978DEE91E0F80193838283CA0172
:101AE000B9012CE330E040E050E00E94301ED80104
:101AF00014962D933D934D935C9317970E949C00F1
:101B0000EDB7FEB738960FB6F894FEBF0FBEEDBF27
:101B100081E793E062E873E02DC1209181051816FA
:101B200019061CF481E090E007C0892B19F08FEFB3
:101B30009FEF02C080E090E0280F822F90E083307A
:101B400091051CF081E090E004C0009711F482E060
:101B500090E0282F80938105813019F0823031F494
:101B600003C023E531E002C02FE431E000D000D013
:101B700000D0EDB7FEB7319606EC13E0ADB7BEB7B7
:101B800012961C930E9311978BEF91E093838283AF
:101B9000358324830E949C00EDB7FEB736960FB6BE
:101BA000F894FEBF0FBEEDBF85EB93E0AEC0209171
:101BB0008E05181619061CF481E090E007C0892BE9
:101BC00019F08FEF9FEF02C080E090E0281B30E01B
:101BD00080918F05482F50E08091900590E082170A
:101BE000930714F4CA0104C0241735070CF0C90187
:101BF000282F80938E05823069F0833018F481306D
:101C000089F405C0833049F0843061F409C02EE1C5
:101C100031E008C020E031E005C02AE031E002C038
:101C200024E131E000D000D000D0EDB7FEB731960E
:101C300008EE13E0ADB7BEB712961C930E93119742
:101C40008BE092E093838283358324830E949C00FF
:101C5000EDB7FEB736960FB6F894FEBF0FBEEDBFD8
:101C600087ED93E052C020919105181619061CF4D7
:101C700081E090E007C0892B19F08FEF9FEF02C041
:101C800080E090E0281B30E080919205482F50E0E2
:101C90008091930590E08217930714F4CA0104C061
:101CA000241735070CF0C901282F80939105823045
:101CB00039F0833041F0813041F422E431E005C055
:101CC00028E231E002C025E331E000D000D000D0AE
:101CD000EDB7FEB731960AE014E0ADB7BEB7129685
:101CE0001C930E93119785E192E093838283358351
:101CF00024830E949C00EDB7FEB736960FB6F89489
:101D0000FEBF0FBEEDBF89EF93E0B80133C0409135
:101D10009405181619061CF421E030E007C0892B41
:101D200019F02FEF3FEF02C020E030E0420F242FE8
:101D300030E0233031051CF021E030E005C02115F2
:101D4000310511F422E030E020939405213049F46C
:101D500086EE95E00E94A4138CE192E06CE274E0C0
:101D600009C08BE194E06DE374E004C08DE292E081
:101D70006EE372E00E94950508C08FE492E060E691
:101D800072E00E9495050E94D00A1F910F91FF906A
:101D9000EF900895CF93DF936091640580E090E029
:101DA00070E040E050E00E94F70A40C00E943A060E
:101DB000882329F40E943206882309F45EC066E96C
:101DC00070E080E090E00E94021921960E943206A5
:101DD000882339F080916405282F30E0215030406D
:101DE0000BC00E943A06882309F43FC08091640525
:101DF000282F30E02F5F3F4F80916605482F50E03D
:101E000080916505682F70E06217730714F4BA01BA
:101E100004C0241735070CF0B9016093640580E015
:101E200090E01FC00E941D06882319F4C0E0D0E096
:101E30001CC066E970E080E090E00E9402192196E3
:101E40000E941D06882329F0609164058FEF9FEFA3
:101E500008C00E942506882341F06091640581E056
:101E600090E070E0AE010E94F70A88EE93E00E94D5
:101E70004E07882309F09ACF05C00E9425068823C3
:101E8000C1F6D0CFDF91CF9108958F929F92AF92FC
:101E9000BF92CF92DF92EF92FF920F931F93CF9357
:101EA000DF93E62E4C0197FF04C088249924881AFA
:101EB000990A60E0181619060CF461E082E00E94AD
:101EC000011A6E2D70E080E090E00E94471C20E037
:101ED00030E048EC52E40E94AE1B9B01AC0160E094
:101EE00070E080E89FE30E94AE1B20E030E04CE809
:101EF00052E40E94711D5B016C01C0E0D0E015C08E
:101F000083E061E00E94011AC601B5010E941B1C1A
:101F10007B018C01CB010E945B1983E060E00E9491
:101F2000011AC7010E945B192196C815D90544F30F
:101F3000DF91CF911F910F91FF90EF90DF90CF90A5
:101F4000BF90AF909F908F900895CF92DF92EF92C5
:101F5000FF920F931F93CF93DF9384EB94E065EC94
:101F600074E00E94950501E010E084EFC82E81E046
:101F7000D82EB9E1EB2EF12CA8C080E00E94A01968
:101F8000EC0181E00E94A0198F5F9340C1F564EFDE
:101F900071E080E090E00E94021981E00E94A019A7
:101FA0008F5F934061F50F5F1F4FC8018170907084
:101FB00000FF11C084EB94E067EE74E00E94950589
:101FC00068EE73E080E090E00E94021984EB94E0F8
:101FD00065EC74E012C0892B91F484EB94E067EE19
:101FE00074E00E94950568EE73E080E090E00E9446
:101FF000021984EB94E066ED74E00E94950582E09E
:10200000CC30D80744F1C8018170907000FF10C037
:1020100086E00E94551A019709F457C0CB50D24070
:10202000CE9DC001CF9D900DDE9D900D112445C029
:10203000892B09F04AC084E00E94551A019709F4DF
:1020400044C0CB50D240CE9DC001CF9D900DDE9DAF
:10205000900D112419C021E0C43FD207B4F5C80186
:102060008170907000FF17C084E00E94551A01979C
:1020700061F1C6018C1B9D0B9C012E9DC0012F9D03
:10208000900D3E9D900D112464EF71E00E941D1E85
:102090008FEF9FEF18C0892BC1F486E00E94551A7C
:1020A000019799F0C6018C1B9D0B9C012E9DC001D0
:1020B0002F9D900D3E9D900D112464EF71E00E94C4
:1020C0001D1E81E090E00E94450F88EE93E00E9483
:1020D0004E07882309F051CFDF91CF911F910F91C7
:1020E000FF90EF90DF90CF90089582309105A1F09E
:1020F0008330910501F1019769F589EE92E06AEF6D
:1021000072E00E94950564EC79E080E090E00E9426
:1021100002190E94CA0E089582E994E063EA74E00D
:102120000E94950564EC79E080E090E00E9402193D
:102130000E94A50F089588EF94E069E075E00E9481
:10214000950564EC79E080E090E00E9402190E941D
:102150001911089582E495E063E575E00E94950504
:1021600064EC79E080E090E00E9402190E94B910CE
:1021700008954AC082E390E00E94430690E08330D5
:10218000910531F48091970590919805019707C0CA
:10219000049749F480919705909198050196909342
:1021A0009805809397052091970530919805409167
:1021B000990550919A0580919B0590919C058217F5
:1021C000930714F4CA0104C0241735070CF0C901A1
:1021D00090939805809397058230910531F0833074
:1021E000910549F0019751F403C067EC72E008C013
:1021F00066EB72E005C068ED72E002C062E475E073
:1022000085EA92E00E94950562E370E080E090E04C
:1022100042E050E00E94F106882309F0ABCF8091A4
:102220009705909198050E94751008950E94B91025
:1022300008954F925F926F927F928F929F92AF928A
:10224000BF92CF92DF92FF920F931F93CF93DF93B2
:102250004AE1442E45E0542E31E7632E32E0732EDE
:102260002BE2A22E25E0B22E92E8892E92E0992E42
:1022700083C08EE00E94A019EC018FE00E94A0199B
:102280006C018AE00E94551A182F84E00E94551AAA
:10229000082F86E00E94551AF82E112319F48EE3B8
:1022A00095E007C0113019F080E495E002C08CE39E
:1022B00095E02DB73EB7285030400FB6F8943EBF9A
:1022C0000FBE2DBFEDB7FEB73196ADB7BEB71296B4
:1022D0005C924E92119773826282D583C4839783F6
:1022E00086830E949C002DB73EB7285F3F4F0FB6F4
:1022F000F8943EBF0FBE2DBF013019F42EE335E038
:1023000007C0002319F020E435E002C02CE335E0DB
:1023100041E0F41619F48EE395E007C0FF2019F0B0
:1023200080E495E002C08CE395E0ADB7BEB71A97A4
:102330000FB6F894BEBF0FBEADBFEDB7FEB7319676
:102340001296BC92AE92119793828282D582C482F9
:1023500037832683918780870E949C002DB73EB7E4
:10236000265F3F4F0FB6F8943EBF0FBE2DBF8AE1E8
:1023700095E0B5010E94950588EE93E00E944E0716
:10238000882309F076CF0E94B910DF91CF911F9179
:102390000F91FF90DF90CF90BF90AF909F908F9064
:1023A0007F906F905F904F900895FC01138212828E
:1023B0008AEC95E091838083618F178681E0848326
:1023C0008FEF858382E0868383E0878384E0808744
:1023D00085E0818786E082870895FC01818D8F3FAB
:1023E00029F0CF014A960E94E314089585898F3F12
:1023F00021F4862F642F0E94C2190895CF93DF9392
:10240000EC01898D8F3F29F0CE014A960E94B914C4
:102410002AC08D898F3F19F1288D413049F481E020
:1024200090E002C0880F991F6A95E2F7282B09C037
:1024300081E090E002C0880F991F6A95E2F78095CD
:102440002823288F8F8960E00E94011A8E896D8968
:1024500041E0288D0E94A81A8F8961E002C0862F72
:10246000642F0E94011ADF91CF9108950F931F935B
:102470008C01F801668140E00E94FE1181E090E04D
:102480000E945B19C801F801668141E00E94FE11BB
:1024900081E090E00E945B19C801F801668140E08C
:1024A0000E94FE1184E690E00E945B191F910F913B
:1024B0000895CF92DF92EF92FF920F931F93CF93E5
:1024C000DF93F82EE92E282F392FC9018C01C0E0A7
:1024D000D0E0C62EDD248F2D9E2DF801678141E0CE
:1024E0000E94ED11A6010C2E02C0559547950A9445
:1024F000E2F741708F2D9E2DF80167810E94FE1139
:1025000021960F5F1F4FC830D10529F78F2D9E2DC3
:102510000E943612DF91CF911F910F91FF90EF90A3
:10252000DF90CF900895AF92BF92CF92DF92EF925B
:10253000FF920F931F93CF93DF937C01B62EFC0184
:10254000818D8F3F09F468C08AE1C82ED12CCE0C52
:10255000DF1CC6010E94B514782FF70140E050E05F
:10256000AB2DB0E001E010E087819D01042E02C098
:10257000359527950A94E2F721703070082E02C035
:10258000220F331F0A94E2F7C1E0D0E0580102C0E5
:10259000AA0CBB1C8A95E2F7C50180957823722BA3
:1025A0004F5F5F4F319644305105F1F68E01F701D0
:1025B000068002C0000F111F0A94E2F7009507235E
:1025C000C601602F0E94871481E090E00E945B1991
:1025D000CE01F701068002C0880F991F0A94E2F726
:1025E000082BC601602F0E94871481E090E00E94B2
:1025F0005B19F701068002C0CC0FDD1F0A94E2F7D9
:102600005E01A0940A21C601602F0E94871484E60F
:1026100090E00E945B1921C08701C0E0D0E0C62E87
:10262000DD24C701F801678141E00E94ED11A60198
:102630000C2E02C0559547950A94E2F74170C701E8
:10264000F80167810E94FE1121960F5F1F4FC43071
:10265000D10539F7C7010E943612DF91CF911F9142
:102660000F91FF90EF90DF90CF90BF90AF900895C3
:102670001F93CF93DF93EC01162F6C810E94FE1104
:102680006D816F3F21F0CE0140E00E94FE118F85E9
:1026900084FF05C0CE01612F0E9459120EC0612F28
:1026A00070E094E0759567959A95E1F7CE010E94E8
:1026B0009312CE01612F0E949312DF91CF911F914F
:1026C000089541E00E94381381E090E0089540E0D1
:1026D0000E9438130895FC016089862F8460808BE6
:1026E0006C60CF010E9467130895DF93CF93CDB73D
:1026F000DEB728970FB6F894DEBF0FBECDBF9C01A2
:10270000FE013196AEECB5E088E00D90019281506B
:10271000E1F7F9018389841710F4482F4150E42F21
:10272000F0E0EE0FFF1FEC0FFD1F8181680F606866
:10273000C9010E94671328960FB6F894DEBF0FBE3A
:10274000CDBFCF91DF91089561E00E94671380EDC6
:1027500097E00E945B190895AF92BF92CF92DF92EB
:10276000EF92FF920F931F93CF93DF93EC01B42E60
:10277000A22E698D6F3F71F17AE1E72EF12CE80E00
:10278000F91EC7010E940F15C70167E041E00E94D2
:10279000E314C70167E041E00E94B9148E0154E0E0
:1027A000C52ED12CCC0EDD1ECE01F801678141E093
:1027B0000E94ED110F5F1F4F0C151D05A9F7C701F2
:1027C0006C8141E00E94E314C7016E8141E00E94E8
:1027D000E31405C08D898F3F11F080E8888FF1E008
:1027E000FB1518F48F8588608F87BB8A1C8AAA2006
:1027F00031F081E0B81619F48F8584608F8780E509
:1028000093EC0E945B19CE016C8140E00E94FE11A6
:10281000CE016E8140E00E94FE116D816F3F21F07C
:10282000CE0140E00E94FE116F8564FD1DC0CE0107
:1028300063E00E94931284E991E10E945B19CE014A
:1028400063E00E94931284E991E10E945B19CE013A
:1028500063E00E94931286E990E00E945B19CE012A
:1028600062E00E94931216C06062CE010E9467135C
:1028700084E991E10E945B196F856062CE010E943C
:10288000671386E990E00E945B196F856062CE0154
:102890000E9467136F856062CE010E94671384E017
:1028A000888BCE010E946B13CE010E94A41382E09C
:1028B000898BCE0166E00E946713DF91CF911F9153
:1028C0000F91FF90EF90DF90CF90BF90AF90089561
:1028D000EF92FF920F931F93FC01F62EE42E0FE46C
:1028E00016E060816062C80170E00E945F15C80157
:1028F0006F2D0E94E115C8016E2D0E94E115C801DF
:102900000E9424161F910F91FF90EF900895462F7B
:1029100069E00E9468140895DF92EF92FF920F938E
:102920001F937C01D62E0FE416E0FC0160816062EB
:10293000C80170E00E945F15C8016D2D0E94E1156D
:10294000C8010E942416F70160816062C80170E02E
:1029500041E050E00E943516C8010E9472151F9197
:102960000F91FF90EF90DF90089569E00E948C1422
:1029700008950F931F93CF93DF93EC01162F042F2D
:102980006830E0F40E94B514282F013051F481E042
:1029900090E002C0880F991F1A95E2F7622F682B0A
:1029A0000AC081E090E002C0880F991F1A95E2F7F3
:1029B000682F60956223CE010E948714DF91CF912A
:1029C0001F910F9108950F931F93CF93DF93EC0105
:1029D000162F042F6830F0F460E00E948C14282F2A
:1029E000002351F481E090E002C0880F991F1A95EE
:1029F000E2F7422F482B0AC081E090E002C0880F26
:102A0000991F1A95E2F7482F40954223CE0160E0C6
:102A10000E946814DF91CF911F910F910895CF9379
:102A2000DF93EC01683008F067E068838FE496E09C
:102A30000E943916688160628FE496E070E00E941F
:102A40005F158FE496E060E00E94E1158FE496E068
:102A50006FEF0E94E1158FE496E060E00E94E115BF
:102A60008FE496E060E00E94E1158FE496E060E07C
:102A70000E94E1158FE496E060E00E94E1158FE48A
:102A800096E060E00E94E1158FE496E060E00E942D
:102A9000E1158FE496E060E00E94E1158FE496E096
:102AA00060E00E94E1158FE496E060E00E94E1158D
:102AB0008FE496E00E942416DF91CF91089581E083
:102AC00080934E0660932B0610924C0610924D0692
:102AD000089520912A0630E080912906281B3109AB
:102AE000C90108954091290680912A06481718F0D7
:102AF0002FEF3FEF0AC0E42FF0E0E75FF94F80814E
:102B0000282F30E04F5F40932906C9010895E091D6
:102B1000290680912A06E81718F0EFEFFFEF06C0AC
:102B2000F0E0E75FF94F8081E82FF0E0CF010895F2
:102B30000895109252061092510688EE93E0A0E09C
:102B4000B0E08093530690935406A0935506B0933B
:102B500056068AED95E09093500680934F060895AF
:102B6000CF92DF92EF92FF920F931F93CF93DF9359
:102B70007C016B018A0180914E068823A1F0C0E0A0
:102B8000D0E00DC0D701ED91FC91D601AC0FBD1F77
:102B90000190F081E02DC7016C9109952196C01735
:102BA000D10780F304C0CB01642F0E94E216C80154
:102BB000DF91CF911F910F91FF90EF90DF90CF9019
:102BC0000895DF93CF930F92CDB7DEB7FC016983F1
:102BD00080914E068823C9F080914D06803238F0EE
:102BE00081E090E09383828320E030E015C0809103
:102BF0004C06E82FF0E0E45DF94F998190838F5FF8
:102C000080934C0680934D0605C0CE01019661E08D
:102C10000E94E21621E030E0C9010F90CF91DF91D0
:102C200008950F93062F80912B066CE276E0409179
:102C30004D0621E00E948D1610924C0610924D0612
:102C400010924E060F91089561E00E9411160895AA
:102C5000413208F040E2862F69E076E00E94441697
:102C60001092290680932A06089521E00E942816D2
:102C700008951092290610922A0610924C0610927E
:102C80004D060E948E180895382F413210F040E012
:102C900042C080915B068823E1F791E090935B0648
:102CA00020935D068FEF8093C806109283064150F3
:102CB000409384064F5F90935C0680915C06330FCF
:102CC000832B80935C0680915E06813041F41092E4
:102CD0005E0680915C068093BB0085EC01C085EEAA
:102CE0008093BC0080915B068130E1F38091830684
:102CF000841710F44091830620E030E00AC0FB0105
:102D0000E20FF31FD901AD59B94F8C9180832F5F2A
:102D10003F4F2417A0F3842F08950F931F93582F2C
:102D2000122F413210F081E04AC080915B06882367
:102D3000E1F782E080935B0600935D068FEF80935E
:102D4000C8061092830640938406A3E6B6E0FB0112
:102D500002C081918D938E2F861B8417D0F3109221
:102D60005C0680915C06550F852B80935C068091F4
:102D70005E06813041F410925E0680915C0680937D
:102D8000BB0085EC01C085EE8093BC00112321F0CF
:102D900080915B068230E1F38091C8068F3F11F489
:102DA00080E00DC08091C806803211F482E007C037
:102DB0008091C806803311F084E001C083E01F9148
:102DC0000F910895482F613210F081E008958091AD
:102DD0005B06843011F082E008956093A606A5E8B2
:102DE000B6E0842F9C01F90102C081918D938E2F52
:102DF000841B8617D0F380E008951F920F920FB6C0
:102E00000F9211242F933F934F935F936F937F9370
:102E10008F939F93AF93BF93EF93FF938091B900EC
:102E200090E0887F90708036910509F4F2C0813679
:102E30009105CCF58832910509F47BC08932910562
:102E4000B4F48031910509F46FC0813191053CF4EF
:102E5000009709F447C1089709F04FC165C0883150
:102E6000910509F466C0809709F047C182C080349B
:102E7000910509F4A4C08134910544F4803391058F
:102E800009F482C0C89709F038C189C0803591051E
:102E900009F489C08835910509F496C088349105F4
:102EA00009F02BC1AEC08839910509F413C18939E5
:102EB0009105ECF48837910509F4ABC08937910589
:102EC0004CF48836910509F4A4C08037910509F0C7
:102ED00014C19FC08838910509F4FCC08039910560
:102EE00009F49DC08038910509F007C198C0803B66
:102EF000910509F4C6C0813B91054CF4803A9105D7
:102F000009F49FC0883A910509F0F7C0BAC0803C27
:102F1000910509F4E3C0883C910509F4DFC0883BC2
:102F2000910509F0EAC0C2C080915C068093BB00A5
:102F3000CFC09091830680918406981768F4909191
:102F40008306E92FF0E0ED59F94F80818093BB00B3
:102F50009F5F90938306BCC080915D06882309F42F
:102F60004BC085ED8093BC008091BC0084FDFCCFFC
:102F7000C2C080E28093C80685ED8093BC0080913A
:102F8000BC0084FDFCCFB7C080E38093C80685ED0C
:102F90008093BC008091BC0084FDFCCFACC088E372
:102FA0008093C8069BC0809183069091BB00E82F58
:102FB000F0E0ED59F94F90838F5F809383069091F5
:102FC00083068091840682C0809183069091BB0025
:102FD000E82FF0E0ED59F94F90838F5F80938306DF
:102FE00080915D06882341F085ED8093BC0080913F
:102FF000BC0084FDFCCF7FC081E080935E0684EA44
:103000006EC085ED8093BC008091BC0084FDFCCF38
:1030100072C083E080935B061092C70659C080910E
:10302000C706803208F056C08091C7069091BB0059
:10303000E82FF0E0E955F94F90838F5F8093C70642
:1030400047C08091C706803230F4E091C706F0E0B7
:10305000E955F94F108285ED8093BC008091BC004A
:1030600084FDFCCF10925B066091C706E09161067B
:10307000F091620687EA96E070E009951092C70623
:103080002DC084E080935B061092A5061092A606E0
:10309000E0915F06F091600609958091A60688236D
:1030A00029F481E08093A606109285069091A506EA
:1030B000E92FF0E0EB57F94F80818093BB009F5FD1
:1030C0009093A5069091A5068091A606981710F4F6
:1030D00085EC01C085E88093BC000FC085EC80932F
:1030E000BC0009C01092C80685ED8093BC00809199
:1030F000BC0084FDFCCF10925B06FF91EF91BF9165
:10310000AF919F918F917F916F915F914F913F917F
:103110002F910F900FBE0F901F90189510925B0685
:1031200081E080935D0610925E0682E161E00E947C
:10313000011A83E161E00E94011AE9EBF0E080816D
:103140008E7F808380818D7F808388E48093B80028
:1031500085E48093BC0008951F920F920FB60F92E2
:1031600011242F933F938F939F93AF93BF9380919D
:10317000CD069091CE06A091CF06B091D0063091A9
:10318000D1060196A11DB11D232F2D5F2D3720F0F3
:103190002D570196A11DB11D2093D1068093CD0618
:1031A0009093CE06A093CF06B093D0068091C90627
:1031B0009091CA06A091CB06B091CC060196A11DB4
:1031C000B11D8093C9069093CA06A093CB06B09315
:1031D000CC06BF91AF919F918F913F912F910F900E
:1031E0000FBE0F901F9018958FB7F8942091CD06C1
:1031F0003091CE064091CF065091D0068FBFB901D5
:10320000CA0108959B01AC017FB7F8948091C9066B
:103210009091CA06A091CB06B091CC0666B5A89B4A
:1032200005C06F3F19F00196A11DB11D7FBFBA2FD8
:10323000A92F982F8827860F911DA11DB11D62E02F
:10324000880F991FAA1FBB1F6A95D1F7BC012DC01B
:10325000FFB7F8948091C9069091CA06A091CB0659
:10326000B091CC06E6B5A89B05C0EF3F19F00196DA
:10327000A11DB11DFFBFBA2FA92F982F88278E0F30
:10328000911DA11DB11DE2E0880F991FAA1FBB1F50
:10329000EA95D1F7861B970B885E9340C8F22150C0
:1032A00030404040504068517C4F21153105410568
:1032B000510571F60895019739F0880F991F880F0D
:1032C000991F02970197F1F70895789484B5826069
:1032D00084BD84B5816084BD85B5826085BD85B5BA
:1032E000816085BDEEE6F0E0808181608083E1E869
:1032F000F0E01082808182608083808181608083A1
:10330000E0E8F0E0808181608083E1EBF0E08081A3
:1033100084608083E0EBF0E0808181608083EAE775
:10332000F0E08081846080838081826080838081FE
:10333000816080838081806880831092C1000895BD
:10334000982F8E3008F09E50977080919D05829541
:10335000880F880F807C892B80937C0080917A0075
:10336000806480937A0080917A0086FDFCCF209162
:10337000780040917900942F80E030E0282B392BA1
:10338000C9010895CF93DF93482F50E0CA018854B4
:103390009F4FFC0134914C555F4FFA018491882373
:1033A00069F190E0880F991FFC01EA57FF4FA59142
:1033B000B491FC01E057FF4FC591D491662351F4BD
:1033C0002FB7F8948C91932F909589238C938881B3
:1033D00089230BC0623061F42FB7F8948C91932F3E
:1033E000909589238C938881832B88832FBF06C077
:1033F0009FB7F8948C91832B8C939FBFDF91CF91D3
:103400000895482F50E0CA0184539F4FFC01249136
:10341000CA0188549F4FFC0194914C555F4FFA01AB
:103420003491332309F440C0222351F1233071F049
:10343000243028F42130A1F0223011F514C02630B8
:10344000B1F02730C1F02430D9F404C0809180005D
:103450008F7703C0809180008F7D8093800010C0A3
:1034600084B58F7702C084B58F7D84BD09C08091FB
:10347000B0008F7703C08091B0008F7D8093B00043
:10348000E32FF0E0EE0FFF1FE057FF4FA591B4913F
:103490002FB7F894662321F48C919095892302C06C
:1034A0008C91892B8C932FBF0895682F70E0CB01EE
:1034B00084539F4FFC012491CB0188549F4FFC0102
:1034C00044916C557F4FFB019491992319F420E0AE
:1034D00030E03CC0222351F1233071F0243028F435
:1034E0002130A1F0223011F514C02630B1F0273080
:1034F000C1F02430D9F404C0809180008F7703C0DC
:10350000809180008F7D8093800010C084B58F777C
:1035100002C084B58F7D84BD09C08091B0008F77D3
:1035200003C08091B0008F7D8093B000892F90E020
:10353000880F991F86569F4FFC01A591B4918C91DD
:1035400020E030E0842311F021E030E0C90108954B
:10355000BF92CF92DF92EF92FF920F931F93CF9380
:10356000DF93E82EF62EB42EC7E0D0E0022F10E055
:1035700087E0C82ED12CBB2059F4B6016C1B7D0B03
:10358000C80102C0959587956A95E2F7BC0107C00E
:10359000B8010C2E02C0759567950A94E2F7617028
:1035A0008E2D0E94011A8F2D61E00E94011A8F2D2D
:1035B00060E00E94011A21979FEFCF3FD907D9F60B
:1035C000DF91CF911F910F91FF90EF90DF90CF90FF
:1035D000BF900895CF93DF930E9465190E94D40590
:1035E000C0E0D0E00E9416112097E1F30E94000095
:1035F000F9CFCF92DF92EF92FF920F931F93CF9369
:10360000DF937C016B018A01C0E0D0E00FC0D601DE
:103610006D916D01D701ED91FC910190F081E02D4C
:10362000C7010995C80FD91F015010400115110598
:1036300071F7CE01DF91CF911F910F91FF90EF9025
:10364000DF90CF900895CF93DF93EC016115710562
:1036500019F420E030E00FC0DB010D900020E9F705
:103660001197A61BB70BE881F9810280F381E02D49
:10367000AD0109959C01C901DF91CF9108950E9488
:10368000231B08955058BB27AA270ED0DFC19FD116
:1036900030F0A4D120F031F49F3F11F41EF45EC14C
:1036A0000EF4E095E7FB54C1E92FF2D180F3BA178D
:1036B000620773078407950718F071F49EF50AC234
:1036C0000EF4E0950B2EBA2FA02D0B01B90190013D
:1036D0000C01CA01A0011124FF27591B99F0593F81
:1036E00050F4503E68F11A16F040A22F232F342FC9
:1036F0004427585FF3CF469537952795A795F04017
:103700005395C9F77EF41F16BA0B620B730B840B2B
:10371000BAF09150A1F0FF0FBB1F661F771F881FE3
:10372000C2F70EC0BA0F621F731F841F48F487953B
:1037300077956795B795F7959E3F08F0B3CF93952A
:10374000880F08F09927EE0F979587950895DCD09C
:1037500008F481E008954AD1E39589C10CD076C17F
:103760003DD140F034D130F021F45F3F19F0F0C08A
:103770005111B1C1F3C08CD198F39923C9F35523EA
:10378000B1F3951B550BBB27AA2762177307840754
:1037900038F09F5F5F4F220F331F441FAA1FA9F30A
:1037A00033D00E2E3AF0E0E830D091505040E695FC
:1037B000001CCAF729D0FE2F27D0660F771F881F5D
:1037C000BB1F261737074807AB07B0E809F0BB0B4C
:1037D000802DBF01FF2793585F4F2AF09E3F510570
:1037E00068F0B6C078C15F3FECF3983EDCF3869595
:1037F00077956795B795F7959F5FC9F7880F911DE6
:103800009695879597F90895E1E0660F771F881FD1
:10381000BB1F621773078407BA0720F0621B730B84
:10382000840BBA0BEE1F88F7E095089504D06894D6
:10383000B11151C1089534D188F09F5790F0B92F3C
:103840009927B751A0F0D1F0660F771F881F991FF5
:103850001AF0BA95C9F712C0B13081F03BD1B1E08E
:10386000089538C1672F782F8827B85F39F0B93F9E
:10387000CCF3869577956795B395D9F73EF49095F7
:103880008095709561957F4F8F4F9F4F0895E89475
:1038900009C097FB3EF490958095709561957F4F98
:1038A0008F4F9F4F9923A9F0F92F96E9BB27939546
:1038B000F695879577956795B795F111F8CFFAF456
:1038C000BB0F11F460FF1BC06F5F7F4F8F4F9F4F87
:1038D00016C0882311F096E911C0772321F09EE8E5
:1038E000872F762F05C0662371F096E8862F70E04B
:1038F00060E02AF09A95660F771F881FDAF7880F25
:103900009695879597F90895990F0008550FAA0B7A
:10391000E0E8FEEF16161706E807F907C0F01216E2
:103920001306E407F50798F0621B730B840B950BE5
:1039300039F40A2661F0232B242B252B21F408953A
:103940000A2609F4A140A6958FEF811D811D0895D7
:1039500097F99F6780E870E060E008959FEF80EC42
:103960000895DF93CF931F930F93FF92EF92DF920F
:103970007B018C01689405C0DA2EEF01BED0FE01F8
:10398000E894A5912591359145915591AEF3EF01BC
:103990008BDEFE019701A801DA9479F7DF90EF90B2
:1039A000FF900F911F91CF91DF9108959F938F9377
:1039B0007F936F93FF93EF939B01AC0192D0EF91B4
:1039C000FF91CFDF2F913F914F915F918AC00024EB
:1039D0000A941616170618060906089500240A9474
:1039E00012161306140605060895B8CF59D0E8F349
:1039F000E894EFEFBB273FE048EC5FE76B3D7307D0
:103A00008407950708F1FF279F57B25A6A4D7F40F8
:103A1000894CF04032F4BE556542704F8643FF4FEB
:103A20000894EE1F915030F0BB0F661F771F881F60
:103A3000FF1FEBCF9EE7882332F0BB0F661F771F77
:103A4000881F9A95C1F79395E095B4C0092E039409
:103A5000000C11F4882352F0BB0F40F4BF2B11F47B
:103A600060FF04C06F5F7F4F8F4F9F4F0895EF93AC
:103A7000E0FF06C0A2EA2AED3FE049EC5FEB14DE6E
:103A8000E5DF0F90039401FC9058E8E6F0E08ECF5C
:103A900057FD9058440F551F59F05F3F71F04795FF
:103AA000880F97FB991F61F09F3F79F087950895E4
:103AB000121613061406551FF2CF4695F1DF08C003
:103AC000161617061806991FF1CF86957105610520
:103AD00008940895E894BB2766277727CB0197F9C8
:103AE00008950BD0B3CF73DF28F078DF18F095235B
:103AF00009F02ECF33CF1124EECFCADFA0F3959F6C
:103B0000D1F3950F50E0551F629FF001729FBB27C4
:103B1000F00DB11D639FAA27F00DB11DAA1F649F70
:103B20006627B00DA11D661F829F2227B00DA11D23
:103B3000621F739FB00DA11D621F839FA00D611DA9
:103B4000221F749F3327A00D611D231F849F600DCA
:103B5000211D822F762F6A2F11249F5750408AF003
:103B6000E1F088234AF0EE0FFF1FBB1F661F771F8F
:103B7000881F91505040A9F79E3F510570F0E8CE44
:103B8000AACF5F3FECF3983EDCF386957795679577
:103B9000B795F795E7959F5FC1F7FE2B880F911DAD
:103BA0009695879597F908959F9320DF0F9007FCCE
:103BB000EE5F5DCF9F3F49F0915028F48695779551
:103BC0006795B7959F5F80389F4F880F969587952B
:103BD00097F90895629FD001739FF001829FE00DD5
:103BE000F11D649FE00DF11D929FF00D839FF00D7C
:103BF000749FF00D659FF00D9927729FB00DE11D28
:103C0000F91F639FB00DE11DF91FBD01CF01112404
:103C10000895AA1BBB1B51E107C0AA1FBB1FA61713
:103C2000B70710F0A61BB70B881F991F5A95A9F765
:103C300080959095BC01CD01089597FB092E07262C
:103C40000AD077FD04D0E5DF06D000201AF4709585
:103C500061957F4F0895F6F7909581959F4F089550
:103C6000A1E21A2EAA1BBB1BFD010DC0AA1FBB1F80
:103C7000EE1FFF1FA217B307E407F50720F0A21BF2
:103C8000B30BE40BF50B661F771F881F991F1A945F
:103C900069F760957095809590959B01AC01BD0189
:103CA000CF01089597FB092E05260ED057FD04D0AD
:103CB000D7DF0AD0001C38F45095409530952195F7
:103CC0003F4F4F4F5F4F0895F6F790958095709551
:103CD00061957F4F8F4F9F4F0895EE0FFF1F059007
:103CE000F491E02D09942F923F924F925F926F9240
:103CF0007F928F929F92AF92BF92CF92DF92EF927C
:103D0000FF920F931F93CF93DF93CDB7DEB7CA1BFC
:103D1000DB0B0FB6F894DEBF0FBECDBF09942A8827
:103D2000398848885F846E847D848C849B84AA84CF
:103D3000B984C884DF80EE80FD800C811B81AA815C
:103D4000B981CE0FD11D0FB6F894DEBF0FBECDBF27
:083D5000ED010895F894FFCF86
:103D5800322E2051756164202000332E2053696E65
:103D680065202000342E2043756269632000312EBF
:103D7800204C696E65617200322E204561736520A2
:103D88004F75742000332E2045617365496E4F7559
:103D98007400312E204561736520496E2020004E45
:103DA8006F200059657300202020536C6964656C8E
:103DB80061707365002056657273696F6E20302ECE
:103DC800352E3000202020200020202020202020F8
:103DD8002020202020202020200050726F6772654C
:103DE80073733A202530326425252020002530348D
:103DF8006420202020202020202020202000253082
:103E08003464206D696E7574657320202000253038
:103E18003464207365636F6E64732020202000254E
:103E2800303275207365636F6E647320202000251F
:103E380064207365636F6E647320202000256420FE
:103E48006D696E757465732020200025732020200D
:103E58002020202020202020202000257320202022
:103E68002020202000257320202020004D6F76651B
:103E78006D656E74204469723A202020004D6F767B
:103E88006520526967687420746F2020200073745D
:103E98006172742074696D656C617073653E00535E
:103EA80074617274696E6720544C2E2E2E20200087
:103EB80053656C20746F2063616E63656C202020ED
:103EC80000583A2534642053656C3A257320202025
:103ED8002000593A253464204D3A257320453A2567
:103EE800732020004D6178204C656E3A2530356C82
:103EF800642020200053656C656374204D6F6465F1
:103F08003A2020202000312E54696D656C61707351
:103F180065202020203E00322E436F6D6D616E6457
:103F28006572202020203E00332E4465627567208C
:103F3800202020202020203E003E3E3E2054696D57
:103F4800656C6170736520202000486F6C64205395
:103F5800656C20746F2065786974004E756D6265B4
:103F680072206F662053686F74733A000000000077
:103F780000000000000000000000000000544C2079
:103F88004475726174696F6E3A2020202000000029
:103F980000000000000000000000000000000041D8
:103FA800766720496E74657276616C3A202020002D
:103FB80000000000000000000000000000000000F9
:103FC8000053746172742044656C61793A20202032
:103FD80020000000000000000000000000000000B9
:103FE8000000004C6F6E67657374205368757474B5
:103FF80065723A00000000000000000000000000A8
:104008000000000000536C656570206274772073AF
:10401800686F7473200000000000000000000000BA
:1040280000000000000000536C696465204561735E
:10403800652046756E633A0000000000000000002D
:10404800000000000000000000536C696465204512
:1040580061736520437572763A0000000000000025
:1040680000000000000000000000004D6F76656D44
:10407800656E74204469723A202020004D6F746F79
:1040880072202D2D2D2D2D3E20456E6400456E6429
:10409800202D2D2D2D2D3E204D6F746F72005469EB
:1040A8006D656C6170736520616374697665000085
:1040B80000000000000000000000000000000000F8
:1040C80054696D656C6170736520446F6E6520205E
:1040D80000486F6C642053656C20746F20657869A4
:1040E80074003E3E3E20436F6D6D616E64657220C4
:1040F800202000486F6C642053656C20746F206525
:10410800786974002020436F6D6D616E64204D6F77
:1041180064652020004D6F746F72203C2D2D2D2D6D
:104128003E20456E6400456E64203C2D2D2D2D3EAD
:10413800204D6F746F7200526576657273696E6791
:1041480020446972203C3E003E3E3E204465627534
:1041580067204D6F6465202000486F6C64205365AC
:104168006C20746F206578697400000000000000FE
:104178000000000000000000000000000000000037
:104188000000000000000000000000004F00500088
:1041980058003E3E3E204552524F522020202020BB
:1041A80020200052657475726E696E6720486F6DC5
:1041B80065202000010A01F087F0000F270500E8BC
:1041C800036400307501000000100E00000A0000B2
:1041D8000001080700003C000000805101000101B7
:1041E80004010103020002010001000300010000B4
:1041F80000003E0366039A03000000003D033D03F0
:104208003D03000000002E04520489040000000051
:1042180043056C050305000000006113F91A00004E
:1042280040001400540000000000E115B0156915A5
:06423800721587159815B0
:00000001FF
