:100000000C9473000C949B000C949B000C949B002C
:100010000C949B000C949B000C949B000C949B00F4
:100020000C949B000C949B000C949B000C949B00E4
:100030000C949B000C949B000C949B000C949B00D4
:100040000C94031C0C949B000C94421E0C94901E68
:100050000C949B000C949B000C949B000C949B00B4
:100060000C94541A0C949B0005A84CCDB2D44EB9F4
:100070003836A9020C50B9918688083CA6AAAA2A4B
:10008000BE000000803F00000000240027002A007E
:1000900000000000250028002B00000000002300C5
:1000A00026002900040404040404040402020202D9
:1000B000020203030303030301020408102040802B
:1000C00001020408102001020408102000000007AB
:1000D0000002010000030406000000000000000010
:1000E0008B05F018FC1F11241FBECFEFD8E0DEBF38
:1000F000CDBF16E0A0E0B1E0E8E2F8E402C0059070
:100100000D92A235B107D9F717E0A2E5B6E001C01C
:100110001D92A83EB107E1F710E0C6EED0E004C0A2
:100120002297FE010E94D723C03ED107C9F70E9443
:1001300052200C9412240C940000AEE0B0E0E3EAEC
:10014000F0E00C94E9230D891E8986E08C831A83E4
:1001500009838FEF9FE79E838D839E01275E3F4F2C
:10016000CE0101966F89788DA9010E94C1002F816F
:100170003885020F131FF80110822E96E4E00C94CC
:100180000524ABE0B0E0E7ECF0E00C94DB233C01AD
:100190002B015A01FC0117821682838181FD03C065
:1001A0006FEF7FEFC6C19AE0892E1E010894211CD3
:1001B000311CF3012381F20123FD859123FF8191FD
:1001C0002F01882309F4B2C1853239F423FD8591CA
:1001D00023FF81912F01853229F490E0B3010E9421
:1001E000B402E7CF982FFF24EE249924FFE1FF15F6
:1001F000D0F09B3269F09C3228F4903259F093325F
:1002000091F40EC09D3249F0903369F441E024C06E
:1002100052E0F52A84E0F82A28C098E0F92A25C09F
:10022000E0E1FE2A22C0F7FC29C0892F80538A30E2
:1002300070F4F6FE05C0989C902C1124980E15C001
:10024000E89CE02C1124E80EF0E2FF2A0EC09E325A
:1002500029F4F6FC6BC140E4F42A07C09C3619F47B
:1002600050E8F52A02C0983649F4F20123FD959131
:1002700023FF91912F01992309F0B8CF892F85543D
:10028000833018F08052833038F444E050E0A40EFC
:10029000B51E5FE359830FC0933631F0933779F081
:1002A000933509F056C020C0F5018081898342E072
:1002B00050E0A40EB51E610101E010E012C0F5018E
:1002C000C080D180F6FC03C06FEF7FEF02C0692DC4
:1002D00070E042E050E0A40EB51EC6010E94A902E3
:1002E0008C015FE7F52214C0F501C080D180F6FCD7
:1002F00003C06FEF7FEF02C0692D70E042E050E075
:10030000A40EB51EC6010E949E028C0150E8F52A7B
:10031000F3FE07C01AC080E290E0B3010E94B4026D
:10032000EA948E2D90E008171907A8F30EC0F60185
:10033000F7FC8591F7FE81916F0190E0B3010E9477
:10034000B402E110EA94015010400115110579F74B
:10035000EAC0943611F0993669F5F7FE08C0F50148
:10036000208131814281538184E090E00AC0F5010F
:10037000808191819C01442737FD4095542F82E074
:1003800090E0A80EB91E9FE6F92257FF09C05095CC
:100390004095309521953F4F4F4F5F4FE0E8FE2A43
:1003A000CA01B901A1012AE030E00E94E002D82E82
:1003B000D21840C0953729F41F2D1F7E2AE030E067
:1003C0001DC01F2D197F9F3661F0903720F498359E
:1003D00009F0ACC00FC0903739F0983709F0A6C0CB
:1003E00004C028E030E00AC0106114FD146020E170
:1003F00030E004C014FD166020E132E017FF08C0B1
:10040000F501608171818281938144E050E008C0F0
:10041000F50180819181BC0180E090E042E050E0F4
:10042000A40EB51EA1010E94E002D82ED2188FE7BB
:10043000F82EF122F6FE0BC05EEFF522D91438F447
:10044000F4FE07C0F2FC05C08FEEF82202C01D2D9D
:1004500001C0192DF4FE0DC0FE01ED0DF11D8081CE
:10046000803319F499EEF92208C01F5FF2FE05C02F
:1004700003C08F2D867809F01F5F0F2DF3FC14C089
:10048000F0FE0FC01E1510F09D2C0BC09D2C9E0C75
:10049000911A1E2D06C080E290E0B3010E94B402C2
:1004A0001F5F1E15C0F304C01E1510F4E11A01C031
:1004B000EE2404FF0FC080E390E0B3010E94B40279
:1004C00002FF1DC001FD03C088E790E00EC088E573
:1004D00090E00BC0802F867891F001FF02C08BE284
:1004E00001C080E2F7FC8DE290E0B3010E94B4020B
:1004F00006C080E390E0B3010E94B4029A94D9143C
:10050000C0F3DA94F101ED0DF11D808190E0B301AB
:100510000E94B402DD20A9F706C080E290E0B3019A
:100520000E94B402EA94EE20C1F743CEF301668143
:100530007781CB012B96E2E10C94F723FC01059027
:10054000615070400110D8F7809590958E0F9F1FD5
:100550000895FC016150704001900110D8F780951A
:1005600090958E0F9F1F08950F931F93CF93DF9346
:100570008C01EB018B8181FF1BC082FF0DC02E819E
:100580003F818C819D812817390764F4E881F981C6
:100590000193F983E88306C0E885F985802F0995E2
:1005A000892B31F48E819F8101969F838E8302C0B7
:1005B0000FEF1FEFC801DF91CF911F910F910895A9
:1005C000FA01AA27283051F1203181F1E8946F9384
:1005D0006E7F6E5F7F4F8F4F9F4FAF4FB1E03ED02A
:1005E000B4E03CD0670F781F891F9A1FA11D680FC8
:1005F000791F8A1F911DA11D6A0F711D811D911DFB
:10060000A11D20D009F468943F912AE0269F11246F
:100610003019305D3193DEF6CF010895462F4770D3
:10062000405D4193B3E00FD0C9F7F6CF462F4F702E
:10063000405D4A3318F0495D31FD4052419302D08C
:10064000A9F7EACFB4E0A695979587957795679532
:10065000BA95C9F700976105710508959B01AC0132
:100660000A2E06945795479537952795BA95C9F759
:10067000620F731F841F951FA01D08950895CF92C8
:10068000DF92EF92FF920F931F936C01CB01BA019F
:10069000F60126813781408551850E9416217B0114
:1006A0008C01F60122813381448155810E94D92237
:1006B000A80197010E94D922A80197010E94D9227E
:1006C0001F910F91FF90EF90DF90CF900895CF9200
:1006D000DF92EF92FF920F931F936C01CB01BA014F
:1006E000F60126813781408551850E94162120E040
:1006F00030E040E85FE30E94AA207B018C01A80162
:1007000097010E94D922A80197010E94D92220E0D6
:1007100030E040E85FE30E94AB20F60122813381A4
:10072000448155810E94D9221F910F91FF90EF9033
:10073000DF90CF900895AF92BF92CF92DF92EF9269
:10074000FF920F931F93CF93DF93EC017A018B01FC
:100750006E817F818885998520E030E040E05FE30D
:100760000E94D9229B01AC01C801B7010E94162149
:100770007B018C0120E030E040E85FE30E940F2124
:100780008823ACF46A817B818C819D8120E030E0FC
:1007900040E05FE30E94D922A80197010E94D9227C
:1007A000A80197010E94D922A80197012AC0C80177
:1007B000B70120E030E040E050E40E94AA207B0135
:1007C0008C016A817B818C819D8120E030E040E05A
:1007D0005FE30E94D9225B016C01C801B701A80147
:1007E00097010E94D922A80197010E94D92220E0F6
:1007F00030E040E050E40E94AB209B01AC01C60118
:10080000B5010E94D922E62F2E2F372F482F592FBE
:10081000B901CA01DF91CF911F910F91FF90EF9025
:10082000DF90CF90BF90AF900895FC0188E096E0F4
:100830009183808380E090E0A0E0B0E082839383A6
:10084000A483B5830895FC0146835783608771872D
:100850000895FC0142835383648375830895CF9286
:10086000DF92EF92FF920F931F936C01CB01BA01BD
:10087000F60126813781408551850E9416217B0132
:100880008C01F60122813381448155810E94D92255
:10089000A80197010E94D9221F910F91FF90EF901C
:1008A000DF90CF900895AF92BF92CF92DF92EF92F8
:1008B000FF920F931F936C01CB01BA01F6012681C1
:1008C0003781408551850E9416217B018C01F601FC
:1008D00062817381848195819058A80197010E945B
:1008E000D9225B016C01C801B70120E030E040E093
:1008F00050E40E94AA209B01AC01C601B5010E94F0
:10090000D9221F910F91FF90EF90DF90CF90BF9071
:10091000AF900895AF92BF92CF92DF92EF92FF9285
:100920000F931F93CF93DF93EC017A018B016E81BC
:100930007F818885998520E030E040E05FE30E9478
:10094000D9229B01AC01C801B7010E9416217B018D
:100950008C0120E030E040E85FE30E940F21882313
:100960008CF46A817B818C819D8120E030E040E0C5
:100970005FE30E94D922A80197010E94D922A80111
:1009800097012EC0C801B70120E030E040E85FE3E6
:100990000E94AA207B018C016A817B818C819D81D0
:1009A00020E030E040E05FEB0E94D9225B016C0167
:1009B000C801B70120E030E040E050E40E94AA20E6
:1009C0009B01AC01C801B7010E94D92220E030E0B0
:1009D00040E85FE30E94AA209B01AC01C601B5017B
:1009E0000E94D922E62F2E2F372F482F592FB901D9
:1009F000CA01DF91CF911F910F91FF90EF90DF908F
:100A0000CF90BF90AF900895AF92BF92CF92DF92F8
:100A1000EF92FF920F931F936C01CB01BA012BED64
:100A20003FE049E450E40E94D922F6012681378153
:100A3000408551850E9416210E9413217B018C0163
:100A4000F601628173818481958120E030E040E08D
:100A50005FEB0E94D9225B016C01C801B70120E065
:100A600030E040E85FE30E94AA209B01AC01C60190
:100A7000B5010E94D9221F910F91FF90EF90DF9056
:100A8000CF90BF90AF900895EF92FF920F931F9376
:100A9000FC01E280F38004811581CB01BA0126813B
:100AA0003781408551850E9416212BED3FE049ECAE
:100AB0005FE30E94D9220E9413219B01AC01C8016F
:100AC000B70190580E94D922A80197010E94AB203B
:100AD0001F910F91FF90EF9008950F931F938C013A
:100AE000CB01BA01F80126813781408551850E94EA
:100AF00016212BED3FE049EC5FE30E94D9220E94D2
:100B00003C23F80122813381448155810E94D922FE
:100B10001F910F91089582E596E060E00E942C15E8
:100B2000089589E060E00E94581D0895CF92DF92F9
:100B3000EF92FF920F931F938C016B0182E5E82ED9
:100B400086E0F82EC70160E040E00E94CC16C701A5
:100B5000B8010E94A720C70160E041E00E94CC16C6
:100B6000C701B6010E94A7201F910F91FF90EF903F
:100B7000DF90CF90089587E061E00E94581D66E9FC
:100B800070E080E090E00E94591C87E060E00E94E5
:100B9000581D089589E061E00E94581D62E070E0F0
:100BA00080E090E00E94591C08950F931F9382E00B
:100BB00061E00E94191D83E061E00E94191D89E037
:100BC00061E00E94191D89E061E00E94581D06EC59
:100BD00017E0C80140E855E260E070E00E94CB1EDB
:100BE000C80167E571E00E94A72087E061E00E94EC
:100BF000191D02E516E0C80160E142E020E00E9414
:100C00000317C80169E671E00E94A720C80160E0EF
:100C100041E00E94CC16C80167E771E00E94A7205E
:100C200068EB7BE080E090E00E94591CC8010E94C4
:100C3000FB168AE062E00E94191D84E060E00E94D9
:100C4000191D86E060E00E94191D1F910F91089503
:100C500081E00E94F71C08950E94280620E0C297B8
:100C60000CF421E0822F08950E94280620E0895E7E
:100C700093400CF021E0822F089580E00E94F71C41
:100C800008950E943D0620E0C2970CF421E0822FD7
:100C900008950E943D0620E0895E93400CF021E01B
:100CA000822F0895CF93DF93EC0180E00E94F71C20
:100CB0008955924084F0BE01882777FD8095982F52
:100CC0000E94591C80E00E94F71C895592400CF448
:100CD00042C022E041C080E00E94F71C8059914050
:100CE00084F4BE01882777FD8095982F0E94591CB7
:100CF00080E00E94F71C20E0805991406CF521E0D3
:100D00002BC081E00E94F71C895592407CF0BE0107
:100D1000882777FD8095982F0E94591C81E00E94BA
:100D2000F71C89559240BCF023E016C081E00E9478
:100D3000F71C805991407CF4BE01882777FD80958F
:100D4000982F0E94591C81E00E94F71C8059914005
:100D500014F424E001C020E0822FDF91CF910895A8
:100D60008AE00E94AC1D20E0892B09F421E0822F4B
:100D70000895AF92BF92CF92DF92EF92FF920F93BE
:100D80001F937A0100D000D000D0CDB6DEB6089413
:100D9000C11CD11C25EBA22E24E0B22EEDB7FEB76C
:100DA000B282A1822CE931E0F6013383228324E66A
:100DB00030E040E050E00E9452230027F7FC00950D
:100DC000102FA80197010E949823F60135832483F0
:100DD0000E949D008DB79EB706960FB6F8949EBFF1
:100DE0000FBE8DBF84EA94E0B5010E9496051F9165
:100DF0000F91FF90EF90DF90CF90BF90AF9008954C
:100E0000EF92FF920F931F937B018C019A01CA010D
:100E10000197029710F480E006C023503040223042
:100E2000310538F481E00E94F71C9093F20580931D
:100E3000F1058091F1059091F205825C9140853633
:100E4000910560F18091710690917206A0917306F0
:100E5000B09174060097A105B105A9F00E944B1C42
:100E6000E0E0209171063091720640917306509136
:100E70007406621B730B840B950BE616F7060807C6
:100E80001907A8F013C00E944B1C60937106709361
:100E90007206809373069093740608C010927106D0
:100EA000109272061092730610927406E1E08E2F73
:100EB0001F910F91FF90EF900895CF93DF93EC0176
:100EC0008AE00E94AC1D882389F580916D0690917F
:100ED0006E06A0916F06B09170060097A105B1054E
:100EE000D1F00E944B1CE0E020916D0630916E061F
:100EF00040916F0650917006621B730B840B950B2B
:100F00009E01442737FD4095542F26173707480781
:100F10005907A8F013C00E944B1C60936D06709394
:100F20006E0680936F069093700608C010926D064F
:100F300010926E0610926F0610927006E1E08E2FEE
:100F4000DF91CF9108956F927F928F929F92AF928F
:100F5000BF92CF92DF92EF92FF920F931F93CF93A6
:100F6000DF93E62E3C0197FF04C066247724681ABD
:100F7000790A60E0181619060CF461E082E00E941C
:100F8000581D6E2D70E080E090E00E94AF2120E0BF
:100F900030E048EC52E40E9416219B01AC0160E075
:100FA00070E080E89FE30E94162120E030E04CE8EA
:100FB00052E40E94D9227B018C01430195948794CD
:100FC00095948794B401660F771F660F771F680D9D
:100FD000791D882777FD8095982F0E94B1219B016C
:100FE000AC01C801B7010E94AB205B016C01C0E0FD
:100FF000D0E01FC0C601B50120E030E040EA50E477
:101000000E94AA205B016C0183E061E00E94581DF0
:10101000C601B5010E9483217B018C01CB010E9496
:10102000B21C83E060E00E94581DC7010E94B21C00
:101030002196C815D905F4F2C401880F991F681AC2
:10104000790AC0E0D0E015C083E061E00E94581D3D
:10105000C601B5010E9483217B018C01CB010E9456
:10106000B21C83E060E00E94581DC7010E94B21CC0
:101070002196C615D70544F3C0E0D0E01FC0C601D5
:10108000B50120E030E040EA50E40E94AB205B0173
:101090006C0183E061E00E94581DC601B5010E9409
:1010A00083217B018C01CB010E94B21C83E060E0B4
:1010B0000E94581DC7010E94B21C2196C815D9056F
:1010C000F4F2DF91CF911F910F91FF90EF90DF909D
:1010D000CF90BF90AF909F908F907F906F9008952A
:1010E0002F923F924F925F926F927F928F929F9238
:1010F000AF92BF92CF92DF92EF92FF920F931F9326
:10110000DF93CF93CDB7DEB7C655D0400FB6F89476
:10111000DEBF0FBECDBF2B968FAF2B972D967FAF27
:101120006EAF2D97CA01B90128EE33E040E050E0E0
:101130000E9452235B016C012D962EAD3FAD2D9781
:1011400079010027F7FC0095102FA80197010E9454
:1011500098232A963FAF2EAF2A97CE0101960E9480
:10116000150482E196E09A838983C801B7010E9441
:10117000B1213B014C01CE010196B401A3010E94B3
:1011800023046091BD057091BE0580E090E00E944F
:10119000AF21AB01BC01CE0101960E942904CE0112
:1011A0000B960E941504ACE1B6E0BC87AB87CE017C
:1011B0000B96B401A3010E9423046091BD057091B8
:1011C000BE0580E090E00E94AF21AB01BC01CE01E2
:1011D0000B960E942904F5E12F2E312C2C0E3D1E7A
:1011E000C1010E9415042EEF35E03E8B2D8BC1010D
:1011F000B401A3010E9423046091BD057091BE0556
:1012000080E090E00E94AF21AB01BC01C1010E94CF
:101210002904EFE14E2E512C4C0E5D1EC2010E949E
:10122000150482E196E098A38F8FC201B401A30157
:101230000E942304C601B5010E94AF217B018C01ED
:10124000C201B801A7010E94290479E2A72EB12C9E
:10125000AC0EBD1EC5010E941504ACE1B6E0BAA7F4
:10126000A9A7C501B401A3010E942304C501B801C7
:10127000A7010E94290463E3C62ED12CCC0EDD1EEB
:10128000C6010E9415042EEF35E03CAB2BABC60126
:10129000B401A3010E942304C601B801A7010E9462
:1012A00029048091BD059091BE052D966EAD7FAD50
:1012B0002D970E9471233B01882499246091D305C6
:1012C0007091D4058091D5059091D60528EE33E034
:1012D00040E050E00E9452230E94591C24961FAE09
:1012E000249723961FAE1EAE239781E090E0A0E0E6
:1012F000B0E021968CAF9DAFAEAFBFAF2197CE01CE
:101300000B962E968FAF2E972F969FAF2F976096A6
:101310002FAE609761963FAE6197CE0101966296BF
:101320008FAF629763969FAF63976496AFAE6497F3
:101330006596BFAE65976696CFAE66976796DFAE49
:101340006797B42CA52CB7C30E944B1C28966CAF92
:101350007DAF8EAF9FAF289721966CAD7DAD8EADE2
:101360009FAD21972D964EAD5FAD2D970E94B9068A
:101370000E94BB056091C5057091C60580E090E0B4
:101380000E94591C8091E405833009F48BC084309D
:1013900009F40DC1823009F098C18091E7058230CF
:1013A00079F1833009F455C0813009F08EC1B6015E
:1013B000882777FD8095982F0E94B121AB01BC0151
:1013C00062968FAD629763969FAD63970E942F04DC
:1013D0007B018C012396AEADBFAD2397BD0188275D
:1013E00077FD8095982F0E94B121AB01BC016296D8
:1013F0008FAD629763969FAD63970E942F045BC188
:10140000B601882777FD8095982F0E94B121AB0106
:10141000BC0162968FAD629763969FAD63970E9401
:1014200053047B018C0123962EAD3FAD2397B90168
:10143000882777FD8095982F0E94B121AB01BC01D0
:1014400062968FAD629763969FAD63970E94530437
:1014500032C1B601882777FD8095982F0E94B1216F
:10146000AB01BC0162968FAD629763969FAD6397A7
:101470000E948A047B018C012396AEADBFAD2397F9
:10148000BD01882777FD8095982F0E94B121AB017F
:10149000BC0162968FAD629763969FAD63970E9481
:1014A0008A0409C18091E705823079F1833009F41B
:1014B00055C0813009F009C1B601882777FD8095B4
:1014C000982F0E94B121AB01BC012E968FAD2E97B3
:1014D0002F969FAD2F970E9444057B018C01239688
:1014E0002EAD3FAD2397B901882777FD8095982FC2
:1014F0000E94B121AB01BC012E968FAD2E972F9685
:101500009FAD2F970E944405D6C0B601882777FD6E
:101510008095982F0E94B121AB01BC012E968FAD12
:101520002E972F969FAD2F970E946D057B018C0102
:101530002396AEADBFAD2397BD01882777FD80957B
:10154000982F0E94B121AB01BC012E968FAD2E9732
:101550002F969FAD2F970E946D05ADC0B6018827CD
:1015600077FD8095982F0E94B121AB01BC012E968A
:101570008FAD2E972F969FAD2F970E9404057B016C
:101580008C0123962EAD3FAD2397B901882777FDB7
:101590008095982F0E94B121AB01BC012E968FAD92
:1015A0002E972F969FAD2F970E94040584C080919F
:1015B000E705823079F1833009F455C0813009F0B4
:1015C00084C0B601882777FD8095982F0E94B121AD
:1015D000AB01BC0160968FAD609761969FAD61973E
:1015E0000E943F037B018C012396AEADBFAD2397D4
:1015F000BD01882777FD8095982F0E94B121AB010E
:10160000BC0160968FAD609761969FAD61970E9417
:101610003F0351C0B601882777FD8095982F0E941F
:10162000B121AB01BC0160968FAD609761969FAD13
:1016300061970E9467037B018C0123962EAD3FAD1D
:101640002397B901882777FD8095982F0E94B121B3
:10165000AB01BC0160968FAD609761969FAD6197BD
:101660000E94670328C0B601882777FD8095982FD0
:101670000E94B121AB01BC0160968FAD609761966D
:101680009FAD61970E949B037B018C012396AEADB9
:10169000BFAD2397BD01882777FD8095982F0E94C5
:1016A000B121AB01BC0160968FAD609761969FAD93
:1016B00061970E949B039B01AC01C801B7010E9486
:1016C000AA200E947E213B014C018091D7058130E8
:1016D00011F40E94CA052B96BFAD2B97B23040F093
:1016E0009094809470946094611C711C811C911C76
:1016F000C3016FE00E94A3078091D705813011F4E8
:101700000E9491050E94B006882321F424961FAE02
:1017100024970AC024962FAD24972F5F24962FAFCD
:101720002497233008F0D1C10E944B1C1B012C01CF
:1017300028968CAD9DADAEADBFAD2897281A390A5D
:101740004A0A5B0A8091EA05833009F473C0843049
:1017500009F4F5C0823009F082C18091ED05823034
:1017600039F1833009F445C0813009F078C1B60100
:10177000882777FD8095982F0E94B121AB01BC018D
:101780008B2D9A2D0E942F047B018C012396AEADE8
:10179000BFAD2397BD01882777FD8095982F0E94C4
:1017A000B121AB01BC018B2D9A2D0E942F044BC19E
:1017B000B601882777FD8095982F0E94B121AB0153
:1017C000BC018B2D9A2D0E9453047B018C01239622
:1017D0002EAD3FAD2397B901882777FD8095982FCF
:1017E0000E94B121AB01BC018B2D9A2D0E945304A4
:1017F0002AC1B601882777FD8095982F0E94B121D4
:10180000AB01BC018B2D9A2D0E948A047B018C01B7
:101810002396AEADBFAD2397BD01882777FD809598
:10182000982F0E94B121AB01BC018B2D9A2D0E94F3
:101830008A0409C18091ED05823079F1833009F481
:1018400055C0813009F00BC1B601882777FD80951E
:10185000982F0E94B121AB01BC0164968FAD6497B3
:1018600065969FAD65970E9444057B018C01239688
:101870002EAD3FAD2397B901882777FD8095982F2E
:101880000E94B121AB01BC0164968FAD649765964F
:101890009FAD65970E944405D6C0B601882777FDA5
:1018A0008095982F0E94B121AB01BC0164968FAD49
:1018B000649765969FAD65970E946D057B018C01CD
:1018C0002396AEADBFAD2397BD01882777FD8095E8
:1018D000982F0E94B121AB01BC0164968FAD649733
:1018E00065969FAD65970E946D05ADC0B6018827CE
:1018F00077FD8095982F0E94B121AB01BC016496C1
:101900008FAD649765969FAD65970E9404057B0136
:101910008C0123962EAD3FAD2397B901882777FD23
:101920008095982F0E94B121AB01BC0164968FADC8
:10193000649765969FAD65970E94040584C0809169
:10194000ED05823079F1833009F455C0813009F01A
:1019500086C0B601882777FD8095982F0E94B12117
:10196000AB01BC0166968FAD669767969FAD679792
:101970000E943F037B018C012396AEADBFAD239740
:10198000BD01882777FD8095982F0E94B121AB017A
:10199000BC0166968FAD669767969FAD67970E946C
:1019A0003F0351C0B601882777FD8095982F0E948C
:1019B000B121AB01BC0166968FAD669767969FAD6E
:1019C00067970E9467037B018C0123962EAD3FAD84
:1019D0002397B901882777FD8095982F0E94B12120
:1019E000AB01BC0166968FAD669767969FAD679712
:1019F0000E94670328C0B601882777FD8095982F3D
:101A00000E94B121AB01BC0166968FAD66976796C7
:101A10009FAD67970E949B037B018C012396AEAD1F
:101A2000BFAD2397BD01882777FD8095982F0E9431
:101A3000B121AB01BC0166968FAD669767969FADED
:101A400067970E949B039B01AC01C801B7010E94EC
:101A5000AA200E947E212A967FAF6EAF2A972A96EF
:101A60002EAD3FAD2A97B901882777FD8095982F35
:101A7000261637064806590630F462197309840998
:101A800095090E94591C23968EAD9FAD2397019610
:101A900023969FAF8EAF239721968CAD9DADAEADB3
:101AA000BFAD21970196A11DB11D21968CAF9DAFB1
:101AB000AEAFBFAF2197CDACDEAC2D96AEADBFAD16
:101AC0002D97AC15BD050CF03FCC0E94CA05CA5A33
:101AD000DF4F0FB6F894DEBF0FBECDBFCF91DF91C1
:101AE0001F910F91FF90EF90DF90CF90BF90AF903C
:101AF0009F908F907F906F905F904F903F902F902E
:101B000008956091BF057091C0052091D80530916E
:101B1000D9054091DA055091DB058091F0050E94CE
:101B2000700881E08093BA0586EC94E067ED74E07C
:101B30000E9496050895EF92FF920F931F936730CE
:101B4000710509F4DCC268307105C4F463307105B5
:101B500009F40BC16430710544F46130710559F129
:101B60006230710509F068C47BC06530710509F405
:101B7000A2C1663071050CF078C23AC16A307105B5
:101B800009F4C8C36B3071054CF46830710509F471
:101B900012C36930710509F04FC460C36C30710520
:101BA00009F43BC46C3071050CF408C46D30710548
:101BB00009F042C439C42091BF053091C005181600
:101BC00019064CF44B3051051CF481E090E010C034
:101BD0008AE090E00DC0892B19F480E090E008C005
:101BE0004B3051051CF48FEF9FEF02C086EF9FEF43
:101BF000820F931F4091C3055091C4052091C105E8
:101C00003091C2052817390714F49A0104C08417CB
:101C100095070CF09C013093C0052093BF0500D0C0
:101C200000D000D0EDB7FEB731960EE213E0ADB7AD
:101C3000BEB712961C930E9311978FEA91E093838F
:101C40008283358324830E949D00EDB7FEB73696CC
:101C50000FB6F894FEBF0FBEEDBF8DE193E0ACC3AD
:101C6000E090D805F090D9050091DA051091DB05D8
:101C7000181619064CF44B3051051CF421E030E0E5
:101C800010C02AE030E00DC0892B19F420E030E0CC
:101C900008C04B3051051CF42FEF3FEF02C026EF78
:101CA0003FEF8CE390E0AC01249FC001259F900D95
:101CB000349F900D11249C01442737FD4095542FEB
:101CC0002E0D3F1D401F511F8091DC059091DD05B9
:101CD000E091E005F091E105E217F30714F4FC014F
:101CE00004C0281739070CF0F901BF01882777FDD8
:101CF0008095982F6093D8057093D9058093DA0565
:101D00009093DB05ADB7BEB718970FB6F894BEBF7A
:101D10000FBEADBF0DB71EB70F5F1F4F20E5E22E00
:101D200023E0F22E1296FC92EE92119720EC31E015
:101D3000F801338322832CE330E040E050E00E943E
:101D4000BA23D80114962D933D934D935C93179726
:101D50000E949D00EDB7FEB738960FB6F894FEBF0F
:101D60000FBEEDBF8FE393E041C02DB73EB72850C3
:101D700030400FB6F8943EBF0FBE2DBF0DB71EB753
:101D80000F5F1F4FA2E7EA2EA3E0FA2EADB7BEB752
:101D90001296FC92EE92119780ED91E0F8019383F8
:101DA00082832091BF053091C005442737FD4095BF
:101DB000542F6091D8057091D9058091DA059091E2
:101DC000DB050E94BA23D80114962D933D934D93C1
:101DD0005C9317970E949D00EDB7FEB738960FB63B
:101DE000F894FEBF0FBEEDBF81E693E0B70119C3C3
:101DF0006091C5057091C605181619064CF44B3054
:101E000051051CF421E030E010C02AE030E00DC0A4
:101E1000892B19F420E030E008C04B3051051CF448
:101E20002FEF3FEF02C026EF3FEF88EE93E0289FB1
:101E3000A001299F500D389F500D1124460F571FA8
:101E40008091C7059091C8052091C9053091CA05B8
:101E50002417350714F49C0104C0481759070CF0E7
:101E60009A012093C5053093C60500D000D000D05C
:101E7000EDB7FEB7319606EB13E0ADB7BEB71296DD
:101E80001C930E93119781EE91E093838283C90195
:101E900068EE73E00E947123758364830E949D0045
:101EA000EDB7FEB736960FB6F894FEBF0FBEEDBF86
:101EB00085EA93E081C2E090D305F090D4050091CB
:101EC000D5051091D605FCE3EF16F10401051105C7
:101ED000F8F4181619064CF44B3051051CF421E0A7
:101EE00030E010C02AE030E00DC0892B19F420E06A
:101EF00030E008C04B3051051CF42FEF3FEF02C01B
:101F000026EF3FEFC901AA2797FDA095BA2F27C05A
:101F1000181619064CF44B3051051CF421E030E042
:101F200010C02AE030E00DC0892B19F420E030E029
:101F300008C04B3051051CF42FEF3FEF02C026EFD5
:101F40003FEF8CE390E0AC01249FC001259F900DF2
:101F5000349F900D1124AA2797FDA095BA2F8E0DBE
:101F60009F1DA01FB11F8093D3059093D405A0930C
:101F7000D505B093D6052091D3053091D405409175
:101F8000CB055091CC058091CF059091D00582175B
:101F9000930714F4CA0104C0241735070CF0C901D3
:101FA0009C01442737FD4095542F2093D30530934F
:101FB000D4054093D5055093D60584E993E02C339E
:101FC000310541055105D8F46DB77EB768507040B2
:101FD0000FB6F8947EBF0FBE6DBFEDB7FEB731965A
:101FE000ADB7BEB712969C938E93119781EF91E097
:101FF00093838283248335834683578327C06DB7B9
:102000007EB7685070400FB6F8947EBF0FBE6DBFAC
:102010000DB71EB70F5F1F4FADB7BEB712969C939B
:102020008E9311978FEF91E0F80193838283CA0119
:10203000B9012CE330E040E050E00E949823D80141
:1020400014962D933D934D935C9317970E949D009A
:10205000EDB7FEB738960FB6F894FEBF0FBEEDBFD2
:1020600083E893E064E973E0DCC12091D70518169A
:1020700019061CF481E090E007C0892B19F08FEF5E
:102080009FEF02C080E090E0280F822F90E0833025
:1020900091051CF081E090E004C0009711F482E00B
:1020A00090E0282F8093D705813019F0823031F4E9
:1020B00003C023E531E002C02FE431E000D000D0BE
:1020C00000D0EDB7FEB7319608ED13E0ADB7BEB75F
:1020D00012961C930E9311978DE092E09383828366
:1020E000358324830E949D00EDB7FEB736960FB668
:1020F000F894FEBF0FBEEDBF87EC93E05DC1209169
:10210000E405181619061CF481E090E007C0892B3D
:1021100019F08FEF9FEF02C080E090E0281B30E0C5
:102120008091E505482F50E08091E60590E0821708
:10213000930714F4CA0104C0241735070CF0C90131
:10214000282F8093E405823069F0833018F48130C1
:1021500089F405C0833049F0843061F409C02EE170
:1021600031E008C020E031E005C02AE031E002C0E3
:1021700024E131E000D000D000D0EDB7FEB73196B9
:102180000AEF13E0ADB7BEB712961C930E931197EA
:102190008DE192E093838283358324830E949D00A6
:1021A000EDB7FEB736960FB6F894FEBF0FBEEDBF83
:1021B00089EE93E001C12091E705181619061CF479
:1021C00081E090E007C0892B19F08FEF9FEF02C0EC
:1021D00080E090E0281B30E08091E805482F50E037
:1021E0008091E90590E08217930714F4CA0104C0B6
:1021F000241735070CF0C901282F8093E70582309A
:1022000039F0833041F0813041F422E431E005C0FF
:1022100028E231E002C025E331E000D000D000D058
:10222000EDB7FEB731960CE114E0ADB7BEB712962C
:102230001C930E93119787E292E0938382833583F8
:1022400024830E949D00EDB7FEB736960FB6F89432
:10225000FEBF0FBEEDBF8BE094E0AEC02091EA055B
:10226000181619061CF481E090E007C0892B19F0BC
:102270008FEF9FEF02C080E090E0281B30E080915C
:10228000EB05482F50E08091EC0590E08217930712
:1022900014F4CA0104C0241735070CF0C901282F13
:1022A0008093EA05823069F0833018F4813089F434
:1022B00005C0833049F0843061F409C02EE131E07B
:1022C00008C020E031E005C02AE031E002C024E18E
:1022D00031E000D000D000D0EDB7FEB731960EE36C
:1022E00014E0ADB7BEB712961C930E9311978DE113
:1022F00092E093838283358324830E949D00EDB70F
:10230000FEB736960FB6F894FEBF0FBEEDBF8DE256
:1023100094E052C02091ED05181619061CF481E0D6
:1023200090E007C0892B19F08FEF9FEF02C080E08B
:1023300090E0281B30E08091EE05482F50E080911E
:10234000EF0590E08217930714F4CA0104C0241724
:1023500035070CF0C901282F8093ED05823039F044
:10236000833041F0813041F422E431E005C028E2BD
:1023700031E002C025E331E000D000D000D0EDB75D
:10238000FEB7319600E614E0ADB7BEB712961C93C7
:102390000E93119787E292E093838283358324839F
:1023A0000E949D00EDB7FEB736960FB6F894FEBFBB
:1023B0000FBEEDBF8FE494E0B80133C04091F0054B
:1023C000181619061CF421E030E007C0892B19F01B
:1023D0002FEF3FEF02C020E030E0420F242F30E02B
:1023E000233031051CF021E030E005C02115310516
:1023F00011F422E030E02093F005213049F482E529
:1024000096E00E94FB168EE292E062E874E009C05A
:1024100081E794E063E974E004C08FE392E060E553
:1024200072E00E94960508C081E692E062E772E0E1
:102430000E9496050E94810D1F910F91FF90EF90D1
:102440000895CF93DF936091BA0580E090E070E04B
:1024500040E050E00E949B0D40C00E944906882346
:1024600029F40E944106882309F45EC066E970E001
:1024700080E090E00E94591C21960E94410688232A
:1024800039F08091BA05282F30E0215030400BC040
:102490000E944906882309F43FC08091BA05282F7D
:1024A00030E02F5F3F4F8091BC05482F50E0809176
:1024B000BB05682F70E06217730714F4BA0104C0FB
:1024C000241735070CF0B9016093BA0580E090E05D
:1024D0001FC00E942C06882319F4C0E0D0E01CC065
:1024E00066E970E080E090E00E94591C21960E940D
:1024F0002C06882329F06091BA058FEF9FEF08C062
:102500000E943406882341F06091BA0581E090E092
:1025100070E0AE010E949B0D88EE93E00E945D0783
:10252000882309F09ACF05C00E9434068823C1F69B
:10253000D0CFDF91CF9108958F929F92AF92BF92AB
:10254000CF92DF92EF92FF920F931F93CF93DF937F
:10255000E62E4C0197FF04C088249924881A990A12
:1025600060E0181619060CF461E082E00E94581D24
:102570006E2D70E080E090E00E94AF2120E030E01E
:1025800048EC52E40E9416219B01AC0160E070E02F
:1025900080E89FE30E94162120E030E04CE852E4FE
:1025A0000E94D9225B016C01C0E0D0E015C083E03D
:1025B00061E00E94581DC601B5010E9483217B0184
:1025C0008C01CB010E94B21C83E060E00E94581D88
:1025D000C7010E94B21C2196C815D90544F3DF91AA
:1025E000CF911F910F91FF90EF90DF90CF90BF9010
:1025F000AF909F908F900895CF92DF92EF92FF92CD
:102600000F931F93CF93DF938AE095E06BE175E022
:102610000E94960501E010E064EFC62E61E0D62E20
:1026200059E1E52EF12CA8C080E00E94F71CEC01D6
:1026300081E00E94F71C8F5F9340C1F564EF71E069
:1026400080E090E00E94591C81E00E94F71C8F5F9F
:10265000934061F50F5F1F4FC8018170907000FFBC
:1026600011C08AE095E06DE375E00E94960568EE82
:1026700073E080E090E00E94591C8AE095E06BE1F5
:1026800075E012C0892B91F48AE095E06DE375E066
:102690000E94960568EE73E080E090E00E94591C6D
:1026A0008AE095E06CE275E00E94960582E0CC300D
:1026B000D80744F1C8018170907000FF10C086E017
:1026C0000E94AC1D019709F457C0CB50D240CE9D5B
:1026D000C001CF9D900DDE9D900D112445C0892B2A
:1026E00009F04AC084E00E94AC1D019709F444C07F
:1026F000CB50D240CE9DC001CF9D900DDE9D900D60
:10270000112419C021E0C43FD207B4F5C80181707B
:10271000907000FF17C084E00E94AC1D019761F12A
:10272000C6018C1B9D0B9C012E9DC0012F9D900D01
:102730003E9D900D112464EF71E00E9485238FEF80
:102740009FEF18C0892BC1F486E00E94AC1D019751
:1027500099F0C6018C1B9D0B9C012E9DC0012F9DE5
:10276000900D3E9D900D112464EF71E00E94852331
:1027700081E090E00E949C1288EE93E00E945D0749
:10278000882309F051CFDF91CF911F910F91FF90D6
:10279000EF90DF90CF90089582309105A1F08330C3
:1027A000910501F1019769F58BEF92E06CE073E020
:1027B0000E94960564EC79E080E090E00E94591C4C
:1027C0000E942112089588EE94E069EF74E00E945F
:1027D000960564EC79E080E090E00E94591C0E942C
:1027E000FC1208958EE495E06FE575E00E94960571
:1027F00064EC79E080E090E00E94591C0E94701423
:10280000089588E995E069EA75E00E94960564EC10
:1028100079E080E090E00E94591C0E941014089515
:102820004AC082E390E00E94520690E08330910516
:1028300031F48091F3059091F405019707C0049756
:1028400049F48091F3059091F40501969093F40575
:102850008093F3052091F3053091F4054091F5053F
:102860005091F6058091F7059091F805821793072E
:1028700014F4CA0104C0241735070CF0C901909361
:10288000F4058093F3058230910531F08330910592
:1028900049F0019751F403C069ED72E008C068EC9B
:1028A00072E005C06AEE72E002C068E975E087EB8D
:1028B00092E00E94960562E370E080E090E042E0E2
:1028C00050E00E940007882309F0ABCF8091F30508
:1028D0009091F4050E94CC1308950E94101408955D
:1028E0004F925F926F927F928F929F92AF92BF9220
:1028F000CF92DF92FF920F931F93CF93DF93A0E7C6
:102900004A2EA5E05A2EF3E86F2EF2E07F2EE1E882
:10291000AE2EE5E0BE2E74E9872E72E0972E83C0BE
:102920008EE00E94F71CEC018FE00E94F71C6C0106
:102930008AE00E94AC1D182F84E00E94AC1D082F75
:1029400086E00E94AC1DF82E112319F484E995E06D
:1029500007C0113019F086E995E002C082E995E0E0
:102960002DB73EB7285030400FB6F8943EBF0FBE8B
:102970002DBFEDB7FEB73196ADB7BEB712965C92DC
:102980004E92119773826282D583C4839783868324
:102990000E949D002DB73EB7285F3F4F0FB6F894B9
:1029A0003EBF0FBE2DBF013019F424E935E007C04A
:1029B000002319F026E935E002C022E935E041E0C4
:1029C000F41619F484E995E007C0FF2019F086E9B0
:1029D00095E002C082E995E0ADB7BEB71A970FB691
:1029E000F894BEBF0FBEADBFEDB7FEB731961296DD
:1029F000BC92AE92119793828282D582C482378331
:102A00002683918780870E949D002DB73EB7265F61
:102A10003F4F0FB6F8943EBF0FBE2DBF80E795E045
:102A2000B5010E94960588EE93E00E945D07882319
:102A300009F076CF0E941014DF91CF911F910F9172
:102A4000FF90DF90CF90BF90AF909F908F907F903E
:102A50006F905F904F900895FC011382128286E27E
:102A600096E091838083618F178681E084838FEF66
:102A7000858382E0868383E0878384E0808785E0A6
:102A8000818786E082870895FC01818D8F3F29F040
:102A9000CF014A960E943A18089585898F3F21F404
:102AA000862F642F0E94191D0895CF93DF93EC01A8
:102AB000898D8F3F29F0CE014A960E9410182AC0B6
:102AC0008D898F3F19F1288D413049F481E090E0E4
:102AD00002C0880F991F6A95E2F7282B09C081E090
:102AE00090E002C0880F991F6A95E2F7809528232D
:102AF000288F8F8960E00E94581D8E896D8941E082
:102B0000288D0E94FF1D8F8961E002C0862F642FEF
:102B10000E94581DDF91CF9108950F931F938C0150
:102B2000F801668140E00E94551581E090E00E9426
:102B3000B21CC801F801668141E00E94551581E090
:102B400090E00E94B21CC801F801668140E00E943A
:102B5000551584E690E00E94B21C1F910F910895D4
:102B6000CF92DF92EF92FF920F931F93CF93DF9359
:102B7000F82EE92E282F392FC9018C01C0E0D0E0B2
:102B8000C62EDD248F2D9E2DF801678141E00E9425
:102B90004415A6010C2E02C0559547950A94E2F7FC
:102BA00041708F2D9E2DF80167810E945515219649
:102BB0000F5F1F4FC830D10529F78F2D9E2D0E9422
:102BC0008D15DF91CF911F910F91FF90EF90DF90C6
:102BD000CF900895AF92BF92CF92DF92EF92FF9283
:102BE0000F931F93CF93DF937C01B62EFC01818D51
:102BF0008F3F09F468C08AE1C82ED12CCE0CDF1CAF
:102C0000C6010E940C18782FF70140E050E0AB2D70
:102C1000B0E001E010E087819D01042E02C03595EF
:102C200027950A94E2F721703070082E02C0220F17
:102C3000331F0A94E2F7C1E0D0E0580102C0AA0CA9
:102C4000BB1C8A95E2F7C50180957823722B4F5FF4
:102C50005F4F319644305105F1F68E01F701068041
:102C600002C0000F111F0A94E2F700950723C60166
:102C7000602F0E94DE1781E090E00E94B21CCE011E
:102C8000F701068002C0880F991F0A94E2F7082B0B
:102C9000C601602F0E94DE1781E090E00E94B21C06
:102CA000F701068002C0CC0FDD1F0A94E2F75E0137
:102CB000A0940A21C601602F0E94DE1784E690E0EE
:102CC0000E94B21C21C08701C0E0D0E0C62EDD24E6
:102CD000C701F801678141E00E944415A6010C2E4E
:102CE00002C0559547950A94E2F74170C701F80173
:102CF00067810E94551521960F5F1F4FC430D10583
:102D000039F7C7010E948D15DF91CF911F910F9167
:102D1000FF90EF90DF90CF90BF90AF9008951F93FA
:102D2000CF93DF93EC01162F6C810E9455156D81B6
:102D30006F3F21F0CE0140E00E9455158F8584FF42
:102D400005C0CE01612F0E94B0150EC0612F70E04A
:102D500094E0759567959A95E1F7CE010E94EA1582
:102D6000CE01612F0E94EA15DF91CF911F91089546
:102D700041E00E948F1681E090E0089540E00E94BB
:102D80008F160895FC016089862F8460808B6C60AB
:102D9000CF010E94BE160895DF93CF93CDB7DEB763
:102DA00028970FB6F894DEBF0FBECDBF9C01FE0181
:102DB0003196AAE2B6E088E00D9001928150E1F7E9
:102DC000F9018389841710F4482F4150E42FF0E073
:102DD000EE0FFF1FEC0FFD1F8181680F6068C901B6
:102DE0000E94BE1628960FB6F894DEBF0FBECDBF68
:102DF000CF91DF91089561E00E94BE1680ED97E0CB
:102E00000E94B21C0895AF92BF92CF92DF92EF92D0
:102E1000FF920F931F93CF93DF93EC01B42EA22E5A
:102E2000698D6F3F71F17AE1E72EF12CE80EF91E02
:102E3000C7010E946618C70167E041E00E943A1886
:102E4000C70167E041E00E9410188E0154E0C52ED2
:102E5000D12CCC0EDD1ECE01F801678141E00E942D
:102E600044150F5F1F4F0C151D05A9F7C7016C8195
:102E700041E00E943A18C7016E8141E00E943A1871
:102E800005C08D898F3F11F080E8888FF1E0FB1538
:102E900018F48F8588608F87BB8A1C8AAA2031F03E
:102EA00081E0B81619F48F8584608F8780E593ECF4
:102EB0000E94B21CCE016C8140E00E945515CE01EB
:102EC0006E8140E00E9455156D816F3F21F0CE016B
:102ED00040E00E9455156F8564FD1DC0CE0163E082
:102EE0000E94EA1584E991E10E94B21CCE0163E0E0
:102EF0000E94EA1584E991E10E94B21CCE0163E0D0
:102F00000E94EA1586E990E00E94B21CCE0162E0C0
:102F10000E94EA1516C06062CE010E94BE1684E9C6
:102F200091E10E94B21C6F856062CE010E94BE16C4
:102F300086E990E00E94B21C6F856062CE010E941B
:102F4000BE166F856062CE010E94BE1684E0888B3B
:102F5000CE010E94C216CE010E94FB1682E0898B30
:102F6000CE0166E00E94BE16DF91CF911F910F91B6
:102F7000FF90EF90DF90CF90BF90AF900895EF92C9
:102F8000FF920F931F93FC01F62EE42E0BEB16E03D
:102F900060816062C80170E00E94B618C8016F2DA0
:102FA0000E943819C8016E2D0E943819C8010E946C
:102FB0007B191F910F91FF90EF900895462F69E0C4
:102FC0000E94BF170895DF92EF92FF920F931F9315
:102FD0007C01D62E0BEB16E0FC0160816062C8011B
:102FE00070E00E94B618C8016D2D0E943819C80102
:102FF0000E947B19F70160816062C80170E041E0C6
:1030000050E00E948C19C8010E94C9181F910F91AD
:10301000FF90EF90DF90089569E00E94E317089514
:103020000F931F93CF93DF93EC01162F042F68307B
:10303000E0F40E940C18282F013051F481E090E058
:1030400002C0880F991F1A95E2F7622F682B0AC0F9
:1030500081E090E002C0880F991F1A95E2F7682F6F
:1030600060956223CE010E94DE17DF91CF911F9100
:103070000F9108950F931F93CF93DF93EC01162FB9
:10308000042F6830F0F460E00E94E317282F00233B
:1030900051F481E090E002C0880F991F1A95E2F781
:1030A000422F482B0AC081E090E002C0880F991F90
:1030B0001A95E2F7482F40954223CE0160E00E9426
:1030C000BF17DF91CF911F910F910895CF93DF9399
:1030D000EC01683008F067E068838BEB96E00E94B3
:1030E0009019688160628BEB96E070E00E94B618E0
:1030F0008BEB96E060E00E9438198BEB96E06FEF67
:103100000E9438198BEB96E060E00E9438198BEB37
:1031100096E060E00E9438198BEB96E060E00E9438
:1031200038198BEB96E060E00E9438198BEB96E043
:1031300060E00E9438198BEB96E060E00E9438193D
:103140008BEB96E060E00E9438198BEB96E060E034
:103150000E9438198BEB96E060E00E9438198BEBE7
:1031600096E00E947B19DF91CF91089581E08093D2
:10317000BA06609397061092B8061092B9060895A1
:103180002091960630E080919506281B3109C901EF
:1031900008954091950680919606481718F02FEFF4
:1031A0003FEF0AC0E42FF0E0EB58F94F8081282F61
:1031B00030E04F5F40939506C9010895E091950670
:1031C00080919606E81718F0EFEFFFEF06C0F0E0E9
:1031D000EB58F94F8081E82FF0E0CF010895089572
:1031E0001092BE061092BD0688EE93E0A0E0B0E01B
:1031F0008093BF069093C006A093C106B093C20609
:1032000086E396E09093BC068093BB060895CF9228
:10321000DF92EF92FF920F931F93CF93DF937C0186
:103220006B018A018091BA068823A1F0C0E0D0E04A
:103230000DC0D701ED91FC91D601AC0FBD1F0190DF
:10324000F081E02DC7016C9109952196C017D10737
:1032500080F304C0CB01642F0E94391AC801DF91AA
:10326000CF911F910F91FF90EF90DF90CF90089535
:10327000DF93CF930F92CDB7DEB7FC0169838091C6
:10328000BA068823C9F08091B906803238F081E00F
:1032900090E09383828320E030E015C08091B806EF
:1032A000E82FF0E0E856F94F998190838F5F809383
:1032B000B8068093B90605C0CE01019661E00E9470
:1032C000391A21E030E0C9010F90CF91DF910895C4
:1032D0000F93062F8091970668E976E04091B90632
:1032E00021E00E94E4191092B8061092B9061092DB
:1032F000BA060F91089561E00E946819089541325D
:1033000008F040E2862F65E776E00E949B19109254
:10331000950680939606089521E00E947F190895EE
:1033200010929506109296061092B8061092B90661
:103330000E94E51B0895382F413210F040E042C052
:103340008091C7068823E1F791E09093C706209308
:10335000C9068FEF809334071092EF0641504093D7
:10336000F0064F5F9093C8068091C806330F832BF9
:103370008093C8068091CA06813041F41092CA0633
:103380008091C8068093BB0085EC01C085EE8093D8
:10339000BC008091C7068130E1F38091EF0684176D
:1033A00010F44091EF0620E030E00AC0FB01E20F8C
:1033B000F31FD901A153B94F8C9180832F5F3F4FE9
:1033C0002417A0F3842F08950F931F93582F122FC3
:1033D000413210F081E04AC08091C7068823E1F7AE
:1033E00082E08093C7060093C9068FEF809334076D
:1033F0001092EF064093F006AFECB6E0FB0102C07E
:1034000081918D938E2F861B8417D0F31092C8065E
:103410008091C806550F852B8093C8068091CA06F7
:10342000813041F41092CA068091C8068093BB0097
:1034300085EC01C085EE8093BC00112321F08091C2
:10344000C7068230E1F3809134078F3F11F480E0AA
:103450000DC080913407803211F482E007C0809162
:103460003407803311F084E001C083E01F910F9195
:103470000895482F613210F081E008958091C706C9
:10348000843011F082E0089560931207A1EFB6E056
:10349000842F9C01F90102C081918D938E2F841B92
:1034A0008617D0F380E008951F920F920FB60F9207
:1034B00011242F933F934F935F936F937F938F9339
:1034C0009F93AF93BF93EF93FF938091B90090E0E8
:1034D000887F90708036910509F4F2C0813691059D
:1034E000CCF58832910509F47BC089329105B4F49A
:1034F0008031910509F46FC0813191053CF400974A
:1035000009F447C1089709F04FC165C0883191059A
:1035100009F466C0809709F047C182C080349105E4
:1035200009F4A4C08134910544F48033910509F471
:1035300082C0C89709F038C189C08035910509F467
:1035400089C08835910509F496C08834910509F041
:103550002BC1AEC08839910509F413C18939910591
:10356000ECF48837910509F4ABC0893791054CF428
:103570008836910509F4A4C08037910509F014C17B
:103580009FC08838910509F4FCC08039910509F481
:103590009DC08038910509F007C198C0803B910516
:1035A00009F4C6C0813B91054CF4803A910509F4B9
:1035B0009FC0883A910509F0F7C0BAC0803C9105D8
:1035C00009F4E3C0883C910509F4DFC0883B91050C
:1035D00009F0EAC0C2C08091C8068093BB00CFC08A
:1035E0009091EF068091F006981768F49091EF069D
:1035F000E92FF0E0E153F94F80818093BB009F5F9A
:103600009093EF06BCC08091C906882309F44BC093
:1036100085ED8093BC008091BC0084FDFCCFC2C0CE
:1036200080E28093340785ED8093BC008091BC00DC
:1036300084FDFCCFB7C080E38093340785ED809391
:10364000BC008091BC0084FDFCCFACC088E38093BB
:1036500034079BC08091EF069091BB00E82FF0E00B
:10366000E153F94F90838F5F8093EF069091EF06BF
:103670008091F00682C08091EF069091BB00E82F08
:10368000F0E0E153F94F90838F5F8093EF068091D4
:10369000C906882341F085ED8093BC008091BC0071
:1036A00084FDFCCF7FC081E08093CA0684EA6EC0AF
:1036B00085ED8093BC008091BC0084FDFCCF72C07E
:1036C00083E08093C7061092330759C08091330777
:1036D000803208F056C0809133079091BB00E82FEC
:1036E000F0E0ED5EF84F90838F5F8093330747C023
:1036F00080913307803230F4E0913307F0E0ED5EE3
:10370000F84F108285ED8093BC008091BC0084FD51
:10371000FCCF1092C70660913307E091CD06F0917F
:10372000CE0683E197E070E00995109233072DC033
:1037300084E08093C7061092110710921207E0915F
:10374000CB06F091CC06099580911207882329F4C5
:1037500081E0809312071092F10690911107E92FF2
:10376000F0E0EF50F94F80818093BB009F5F909312
:1037700011079091110780911207981710F485ECAA
:1037800001C085E88093BC000FC085EC8093BC002D
:1037900009C01092340785ED8093BC008091BC0075
:1037A00084FDFCCF1092C706FF91EF91BF91AF91BE
:1037B0009F918F917F916F915F914F913F912F9149
:1037C0000F900FBE0F901F9018951092C70681E0C2
:1037D0008093C9061092CA0682E161E00E94581DDA
:1037E00083E161E00E94581DE9EBF0E080818E7F6B
:1037F000808380818D7F808388E48093B80085E416
:103800008093BC0008951F920F920FB60F9211245F
:103810002F933F938F939F93AF93BF9380913907DB
:1038200090913A07A0913B07B0913C0730913D073A
:103830000196A11DB11D232F2D5F2D3720F02D578F
:103840000196A11DB11D20933D07809339079093E8
:103850003A07A0933B07B0933C07809135079091BE
:103860003607A0913707B09138070196A11DB11D09
:103870008093350790933607A0933707B0933807A6
:10388000BF91AF919F918F913F912F910F900FBE5C
:103890000F901F9018958FB7F894209139073091A9
:1038A0003A0740913B0750913C078FBFB901CA01CD
:1038B00008959B01AC017FB7F894809135079091F2
:1038C0003607A0913707B091380766B5A89B05C0A9
:1038D0006F3F19F00196A11DB11D7FBFBA2FA92F0F
:1038E000982F8827860F911DA11DB11D62E0880FBA
:1038F000991FAA1FBB1F6A95D1F7BC012DC0FFB746
:10390000F8948091350790913607A0913707B091D0
:103910003807E6B5A89B05C0EF3F19F00196A11D39
:10392000B11DFFBFBA2FA92F982F88278E0F911D89
:10393000A11DB11DE2E0880F991FAA1FBB1FEA95C8
:10394000D1F7861B970B885E9340C8F22150304018
:103950004040504068517C4F2115310541055105CB
:1039600071F60895019739F0880F991F880F991FF4
:1039700002970197F1F70895789484B5826084BD29
:1039800084B5816084BD85B5826085BD85B5816063
:1039900085BDEEE6F0E0808181608083E1E8F0E0C3
:1039A0001082808182608083808181608083E0E8F2
:1039B000F0E0808181608083E1EBF0E080818460D1
:1039C0008083E0EBF0E0808181608083EAE7F0E0D3
:1039D0008081846080838081826080838081816037
:1039E00080838081806880831092C1000895982F21
:1039F0008E3008F09E5097708091F9058295880F5F
:103A0000880F807C892B80937C0080917A00806471
:103A100080937A0080917A0086FDFCCF2091780017
:103A200040917900942F80E030E0282B392BC90198
:103A30000895CF93DF93482F50E0CA0188549F4FD9
:103A4000FC0134914C555F4FFA018491882369F150
:103A500090E0880F991FFC01EA57FF4FA591B491A0
:103A6000FC01E057FF4FC591D491662351F42FB765
:103A7000F8948C91932F909589238C938881892336
:103A80000BC0623061F42FB7F8948C91932F90950E
:103A900089238C938881832B88832FBF06C09FB78F
:103AA000F8948C91832B8C939FBFDF91CF910895D5
:103AB000482F50E0CA0184539F4FFC012491CA0152
:103AC00088549F4FFC0194914C555F4FFA013491FB
:103AD000332309F440C0222351F1233071F0243004
:103AE00028F42130A1F0223011F514C02630B1F0B5
:103AF0002730C1F02430D9F404C0809180008F7742
:103B000003C0809180008F7D8093800010C084B5B9
:103B10008F7702C084B58F7D84BD09C08091B000CD
:103B20008F7703C08091B0008F7D8093B000E32F2A
:103B3000F0E0EE0FFF1FE057FF4FA591B4912FB7B4
:103B4000F894662321F48C919095892302C08C917E
:103B5000892B8C932FBF0895682F70E0CB0184537D
:103B60009F4FFC012491CB0188549F4FFC0144914D
:103B70006C557F4FFB019491992319F420E030E0BC
:103B80003CC0222351F1233071F0243028F421303D
:103B9000A1F0223011F514C02630B1F02730C1F069
:103BA0002430D9F404C0809180008F7703C08091C5
:103BB00080008F7D8093800010C084B58F7702C015
:103BC00084B58F7D84BD09C08091B0008F7703C01C
:103BD0008091B0008F7D8093B000892F90E0880F96
:103BE000991F86569F4FFC01A591B4918C9120E0BE
:103BF00030E0842311F021E030E0C9010895BF9244
:103C0000CF92DF92EF92FF920F931F93CF93DF93A8
:103C1000E82EF62EB42EC7E0D0E0022F10E087E0A9
:103C2000C82ED12CBB2059F4B6016C1B7D0BC801EA
:103C300002C0959587956A95E2F7BC0107C0B80167
:103C40000C2E02C0759567950A94E2F761708E2D6F
:103C50000E94581D8F2D61E00E94581D8F2D60E03D
:103C60000E94581D21979FEFCF3FD907D9F6DF91CA
:103C7000CF911F910F91FF90EF90DF90CF90BF9069
:103C8000089508951F920F920FB60F9211242F934B
:103C90003F934F938F939F93EF93FF938091C00037
:103CA00082FD1DC04091C60020917E0730917F07A4
:103CB0002F5F3F4F2F733070809180079091810765
:103CC0002817390771F0E0917E07F0917F07E25CD9
:103CD000F84F408330937F0720937E0702C0809186
:103CE000C600FF91EF919F918F914F913F912F913E
:103CF0000F900FBE0F901F901895E091D207F09192
:103D0000D307E05CFF4F8191919120813181821B2B
:103D1000930B8F739070892B11F00E94411E0895B0
:103D20001F920F920FB60F9211242F933F938F93F0
:103D30009F93EF93FF932091C2073091C307809127
:103D4000C4079091C5072817390731F48091C10045
:103D50008F7D8093C10014C0E091C407F091C50726
:103D6000EE57F84F20818091C4079091C5070196C6
:103D70008F7390709093C5078093C4072093C600FB
:103D8000FF91EF919F918F913F912F910F900FBED7
:103D90000F901F901895AF92BF92DF92EF92FF9213
:103DA0000F931F93CF93DF93EC017A018B01DD24F6
:103DB000403081EE580780E0680780E0780711F016
:103DC000DD24D39491E0A92EB12CEC89FD89DD206E
:103DD00069F0C50108A002C0880F991F0A94E2F794
:103DE000808360E079E08DE390E005C0108260E8B8
:103DF00074E88EE190E0A80197010E949823215079
:103E0000304040405040569547953795279580E182
:103E10002030380720F0DD2011F0DD24D6CFE889EE
:103E2000F9893083EA89FB89208319A2EE89FF8909
:103E3000408121E030E0C9010C8C02C0880F991F3D
:103E40000A94E2F7482B4083EE89FF894081C9013B
:103E50000D8C02C0880F991F0A94E2F7482B40830B
:103E6000EE89FF894081C9010E8C02C0880F991F1D
:103E70000A94E2F7482B4083EE89FF8980810F8CFA
:103E800002C0220F331F0A94E2F7209528232083D3
:103E9000DF91CF911F910F91FF90EF90DF90BF9036
:103EA000AF900895DC011C96ED91FC911D97E05CAC
:103EB000FF4F2191319180819181281B390B2F7304
:103EC0003070C9010895DC011C96ED91FC911D979D
:103ED000E05CFF4F20813181E054F040DF01AE5BB8
:103EE000BF4F8D919C9111972817390719F42FEF27
:103EF0003FEF07C08D919C91E80FF91F8081282F1B
:103F000030E0C9010895DC011C96ED91FC911D97EC
:103F1000E05CFF4F20813181E054F040DF01AE5B77
:103F2000BF4F8D919C9111972817390719F42FEFE6
:103F30003FEF10C08D919C911197E80FF91F2081E0
:103F40008D919C91119701968F73907011969C930F
:103F50008E9330E0C9010895DC0191968C91919780
:103F6000882339F05496ED91FC915597808186FF16
:103F7000F9CF91961C920895CF93DF93EC01EE85D3
:103F8000FF85E05CFF4F20813181E054F0402F5FDE
:103F90003F4F2F733070DF01AE5BBF4F8D919C910F
:103FA000119728173907D1F3E05CFF4F8081918189
:103FB000E054F040E80FF91F6083EE85FF85E05C78
:103FC000FF4F31832083EE89FF89208181E090E0DB
:103FD0000F8C02C0880F991F0A94E2F7282B2083C8
:103FE00081E089A3EC89FD8980818064808381E000
:103FF00090E0DF91CF9108951092C9071092C80701
:1040000088EE93E0A0E0B0E08093CA079093CB07DE
:10401000A093CC07B093CD0786E496E09093C707B2
:104020008093C6078EE397E09093D3078093D207DF
:1040300082E897E09093D5078093D40785EC90E0D1
:104040009093D7078093D60784EC90E09093D9079C
:104050008093D80780EC90E09093DB078093DA0799
:1040600081EC90E09093DD078093DC0782EC90E098
:104070009093DF078093DE0786EC90E09093E10752
:104080008093E00784E08093E20783E08093E30776
:1040900087E08093E40785E08093E50781E08093E3
:1040A000E6070895CF93DF930E94BC1C0E94D505BC
:1040B000CDE7DEE10E946D142097E1F30E947D1EA2
:1040C000F9CFCF92DF92EF92FF920F931F93CF938E
:1040D000DF937C016B018A01C0E0D0E00FC0D60104
:1040E0006D916D01D701ED91FC910190F081E02D72
:1040F000C7010995C80FD91F0150104001151105BE
:1041000071F7CE01DF91CF911F910F91FF90EF904A
:10411000DF90CF900895CF93DF93EC016115710587
:1041200019F420E030E00FC0DB010D900020E9F72A
:104130001197A61BB70BE881F9810280F381E02D6E
:10414000AD0109959C01C901DF91CF9108950E94AD
:104150008B2008955058BB27AA270ED0DFC19FD1CE
:1041600030F0A4D120F031F49F3F11F41EF45EC171
:104170000EF4E095E7FB54C1E92FF2D180F3BA17B2
:10418000620773078407950718F071F49EF50AC259
:104190000EF4E0950B2EBA2FA02D0B01B901900162
:1041A0000C01CA01A0011124FF27591B99F0593FA6
:1041B00050F4503E68F11A16F040A22F232F342FEE
:1041C0004427585FF3CF469537952795A795F0403C
:1041D0005395C9F77EF41F16BA0B620B730B840B51
:1041E000BAF09150A1F0FF0FBB1F661F771F881F09
:1041F000C2F70EC0BA0F621F731F841F48F4879561
:1042000077956795B795F7959E3F08F0B3CF93954F
:10421000880F08F09927EE0F979587950895DCD0C1
:1042200008F481E008954AD1E39589C10CD076C1A4
:104230003DD140F034D130F021F45F3F19F0F0C0AF
:104240005111B1C1F3C08CD198F39923C9F355230F
:10425000B1F3951B550BBB27AA2762177307840779
:1042600038F09F5F5F4F220F331F441FAA1FA9F32F
:1042700033D00E2E3AF0E0E830D091505040E69521
:10428000001CCAF729D0FE2F27D0660F771F881F82
:10429000BB1F261737074807AB07B0E809F0BB0B71
:1042A000802DBF01FF2793585F4F2AF09E3F510595
:1042B00068F0B6C078C15F3FECF3983EDCF38695BA
:1042C00077956795B795F7959F5FC9F7880F911D0B
:1042D0009695879597F90895E1E0660F771F881FF7
:1042E000BB1F621773078407BA0720F0621B730BAA
:1042F000840BBA0BEE1F88F7E095089504D06894FC
:10430000B11151C1089534D188F09F5790F0B92F61
:104310009927B751A0F0D1F0660F771F881F991F1A
:104320001AF0BA95C9F712C0B13081F03BD1B1E0B3
:10433000089538C1672F782F8827B85F39F0B93FC3
:10434000CCF3869577956795B395D9F73EF490951C
:104350008095709561957F4F8F4F9F4F0895E8949A
:1043600009C097FB3EF490958095709561957F4FBD
:104370008F4F9F4F9923A9F0F92F96E9BB2793956B
:10438000F695879577956795B795F111F8CFFAF47B
:10439000BB0F11F460FF1BC06F5F7F4F8F4F9F4FAC
:1043A00016C0882311F096E911C0772321F09EE80A
:1043B000872F762F05C0662371F096E8862F70E070
:1043C00060E02AF09A95660F771F881FDAF7880F4A
:1043D0009695879597F90895990F0008550FAA0BA0
:1043E000E0E8FEEF16161706E807F907C0F0121608
:1043F0001306E407F50798F0621B730B840B950B0B
:1044000039F40A2661F0232B242B252B21F408955F
:104410000A2609F4A140A6958FEF811D811D0895FC
:1044200097F99F6780E870E060E008959FEF80EC67
:104430000895DF93CF931F930F93FF92EF92DF9234
:104440007B018C01689405C0DA2EEF01BED0FE011D
:10445000E894A5912591359145915591AEF3EF01E1
:104460008BDEFE019701A801DA9479F7DF90EF90D7
:10447000FF900F911F91CF91DF9108959F938F939C
:104480007F936F93FF93EF939B01AC0192D0EF91D9
:10449000FF91CFDF2F913F914F915F918AC0002410
:1044A0000A941616170618060906089500240A9499
:1044B00012161306140605060895B8CF59D0E8F36E
:1044C000E894EFEFBB273FE048EC5FE76B3D7307F5
:1044D0008407950708F1FF279F57B25A6A4D7F401E
:1044E000894CF04032F4BE556542704F8643FF4F11
:1044F0000894EE1F915030F0BB0F661F771F881F86
:10450000FF1FEBCF9EE7882332F0BB0F661F771F9C
:10451000881F9A95C1F79395E095B4C0092E03942E
:10452000000C11F4882352F0BB0F40F4BF2B11F4A0
:1045300060FF04C06F5F7F4F8F4F9F4F0895EF93D1
:10454000E0FF06C0A2EA2AED3FE049EC5FEB14DE93
:10455000E5DF0F90039401FC9058E8E6F0E08ECF81
:1045600057FD9058440F551F59F05F3F71F0479524
:10457000880F97FB991F61F09F3F79F08795089509
:10458000121613061406551FF2CF4695F1DF08C028
:10459000161617061806991FF1CF86957105610545
:1045A00008940895E894BB2766277727CB0197F9ED
:1045B00008950BD0B3CF73DF28F078DF18F0952380
:1045C00009F02ECF33CF1124EECFCADFA0F3959F91
:1045D000D1F3950F50E0551F629FF001729FBB27EA
:1045E000F00DB11D639FAA27F00DB11DAA1F649F96
:1045F0006627B00DA11D661F829F2227B00DA11D49
:10460000621F739FB00DA11D621F839FA00D611DCE
:10461000221F749F3327A00D611D231F849F600DEF
:10462000211D822F762F6A2F11249F5750408AF028
:10463000E1F088234AF0EE0FFF1FBB1F661F771FB4
:10464000881F91505040A9F79E3F510570F0E8CE69
:10465000AACF5F3FECF3983EDCF38695779567959C
:10466000B795F795E7959F5FC1F7FE2B880F911DD2
:104670009695879597F908959F9320DF0F9007FCF3
:10468000EE5F5DCF9F3F49F0915028F48695779576
:104690006795B7959F5F80389F4F880F9695879550
:1046A00097F90895629FD001739FF001829FE00DFA
:1046B000F11D649FE00DF11D929FF00D839FF00DA1
:1046C000749FF00D659FF00D9927729FB00DE11D4D
:1046D000F91F639FB00DE11DF91FBD01CF0111242A
:1046E0000895AA1BBB1B51E107C0AA1FBB1FA61739
:1046F000B70710F0A61BB70B881F991F5A95A9F78B
:1047000080959095BC01CD01089597FB092E072651
:104710000AD077FD04D0E5DF06D000201AF47095AA
:1047200061957F4F0895F6F7909581959F4F089575
:10473000A1E21A2EAA1BBB1BFD010DC0AA1FBB1FA5
:10474000EE1FFF1FA217B307E407F50720F0A21B17
:10475000B30BE40BF50B661F771F881F991F1A9484
:1047600069F760957095809590959B01AC01BD01AE
:10477000CF01089597FB092E05260ED057FD04D0D2
:10478000D7DF0AD0001C38F450954095309521951C
:104790003F4F4F4F5F4F0895F6F790958095709576
:1047A00061957F4F8F4F9F4F0895EE0FFF1F05902C
:1047B000F491E02D09942F923F924F925F926F9265
:1047C0007F928F929F92AF92BF92CF92DF92EF92A1
:1047D000FF920F931F93CF93DF93CDB7DEB7CA1B22
:1047E000DB0B0FB6F894DEBF0FBECDBF09942A884D
:1047F000398848885F846E847D848C849B84AA84F5
:10480000B984C884DF80EE80FD800C811B81AA8181
:10481000B981CE0FD11D0FB6F894DEBF0FBECDBF4C
:08482000ED010895F894FFCFAB
:10482800322E2051756164202000332E2053696E8A
:1048380065202000342E2043756269632000312EE4
:10484800204C696E65617200322E204561736520C7
:104858004F75742000332E2045617365496E4F757E
:104868007400312E204561736520496E2020004E6A
:104878006F200059657300426567696E6E696E67DF
:104888002053657269616C2100202020536C696493
:10489800656C61707365002056657273696F6E2070
:1048A800302E352E300020202020002020202020EF
:1048B80020202020202020202020200050726F67F8
:1048C800726573733A20253032642525202000252F
:1048D8003034642020202020202020202020200088
:1048E80025303464206D696E75746573202020004E
:1048F80025303464207365636F6E64732020202034
:104908000025303275207365636F6E647320202034
:10491800002564207365636F6E6473202020002572
:1049280064206D696E7574657320202000257320DE
:104938002020202020202020202020200025732037
:1049480020202020202000257320202020004D6FCB
:1049580076656D656E74204469723A202020004D9A
:104968006F766520526967687420746F2020200074
:1049780073746172742074696D656C617073653EDF
:10498800005374617274696E6720544C2E2E2E2069
:10499800200053656C20746F2063616E63656C2022
:1049A800202000583A2534642053656C3A2573203A
:1049B80020202000593A253464204D3A257320459B
:1049C8003A25732020004D6178204C656E3A2530D9
:1049D800356C642020200053656C656374204D6F2E
:1049E80064653A2020202000312E54696D656C6181
:1049F800707365202020203E00322E436F6D6D615C
:104A08006E646572202020203E00332E4465627556
:104A18006720202020202020203E003E3E3E2054BB
:104A2800696D656C6170736520202000486F6C6447
:104A38002053656C20746F2065786974004E756D1D
:104A4800626572206F662053686F74733A000000C5
:104A580000000000000000000000000000000054FA
:104A68004C204475726174696F6E3A2020202000D2
:104A7800000000000000000000000000000000002E
:104A88000041766720496E74657276616C3A202021
:104A980020000000000000000000000000000000EE
:104AA80000000053746172742044656C61793A2087
:104AB800202020000000000000000000000000008E
:104AC80000000000004C6F6E6765737420536875B2
:104AD800747465723A0000000000000000000000D5
:104AE80000000000000000536C6565702062747758
:104AF8002073686F7473200000000000000000003D
:104B0800000000000000000000536C696465204547
:104B18006173652046756E633A000000000000006E
:104B28000000000000000000000000536C6964658C
:104B3800204561736520437572763A0000000000D5
:104B48000000000000000000000000000054696D33
:104B58006520456173652046756E633A2000000044
:104B680000000000000000000000000000000054E9
:104B7800696D652043757276652046756E633A00E7
:104B8800000000000000000000000000000000001D
:104B9800004D6F76656D656E74204469723A202009
:104BA80020004D6F746F72202D2D2D2D2D3E204528
:104BB8006E6400456E64202D2D2D2D2D3E204D6FE9
:104BC800746F720054696D656C6170736520616300
:104BD8007469766500000000000000000000000015
:104BE80000000000000054696D656C6170736520F9
:104BF800446F6E65202000486F6C642053656C20FC
:104C0800746F2065786974003E3E3E20436F6D6D79
:104C1800616E64657220202000486F6C64205365C3
:104C28006C20746F2065786974002020436F6D6D67
:104C3800616E64204D6F64652020004D6F746F7243
:104C4800203C2D2D2D2D3E20456E6400456E6420A0
:104C58003C2D2D2D2D3E204D6F746F7200526576C0
:104C6800657273696E6720446972203C3E003E3E5F
:104C78003E204465627567204D6F646520200048BA
:104C88006F6C642053656C20746F206578697400BC
:104C9800000000000000000000000000000000000C
:104CA80000000000000000000000000000000000FC
:104CB80000004F00500058003E3E3E204552524FE3
:104CC80052202020202020200052657475726E69C1
:104CD8006E6720486F6D65202000010D01F087F098
:104CE800000F270500E8036400307501000000107C
:104CF8000E00000A00000001080700003C00000048
:104D080080510100010104010103010104010103B3
:104D180002000201000100030001000000003F033F
:104D280067039B03000000003E033E033E030000B0
:104D380000002F0453048A040000000044056D0598
:104D4800040500000000B8166120000040001400AF
:104D580054000000000038190719C018C918DE18D7
:104D6800EF1800000000BC1F6120521F831F631F43
:024D7800AC1F6E
:00000001FF
