:100000000C9473000C949B000C949B000C949B002C
:100010000C949B000C949B000C949B000C949B00F4
:100020000C949B000C949B000C949B000C949B00E4
:100030000C949B000C949B000C949B000C949B00D4
:100040000C946F1B0C949B000C94AE1D0C94FC1D27
:100050000C949B000C949B000C949B000C949B00B4
:100060000C94C0190C949B0005A84CCDB2D44EB989
:100070003836A9020C50B9918688083CA6AAAA2A4B
:10008000BE000000803F00000000240027002A007E
:1000900000000000250028002B00000000002300C5
:1000A00026002900040404040404040402020202D9
:1000B000020203030303030301020408102040802B
:1000C00001020408102001020408102000000007AB
:1000D0000002010000030406000000000000000010
:1000E0008B055C18681F11241FBECFEFD8E0DEBF60
:1000F000CDBF16E0A0E0B1E0E0E0F7E402C005907B
:100100000D92A637B107D9F718E0A6E7B6E001C00F
:100110001D92AC30B107E1F710E0C6EED0E004C0AC
:100120002297FE010E944323C03ED107C9F70E94D7
:10013000BE1F0C947E230C940000AEE0B0E0E3EA16
:10014000F0E00C9455230D891E8986E08C831A8378
:1001500009838FEF9FE79E838D839E01275E3F4F2C
:10016000CE0101966F89788DA9010E94C1002F816F
:100170003885020F131FF80110822E96E4E00C94CC
:100180007123ABE0B0E0E7ECF0E00C9447233C01D6
:100190002B015A01FC0117821682838181FD03C065
:1001A0006FEF7FEFC6C19AE0892E1E010894211CD3
:1001B000311CF3012381F20123FD859123FF8191FD
:1001C0002F01882309F4B2C1853239F423FD8591CA
:1001D00023FF81912F01853229F490E0B3010E9421
:1001E000B402E7CF982FFF24EE249924FFE1FF15F6
:1001F000D0F09B3269F09C3228F4903259F093325F
:1002000091F40EC09D3249F0903369F441E024C06E
:1002100052E0F52A84E0F82A28C098E0F92A25C09F
:10022000E0E1FE2A22C0F7FC29C0892F80538A30E2
:1002300070F4F6FE05C0989C902C1124980E15C001
:10024000E89CE02C1124E80EF0E2FF2A0EC09E325A
:1002500029F4F6FC6BC140E4F42A07C09C3619F47B
:1002600050E8F52A02C0983649F4F20123FD959131
:1002700023FF91912F01992309F0B8CF892F85543D
:10028000833018F08052833038F444E050E0A40EFC
:10029000B51E5FE359830FC0933631F0933779F081
:1002A000933509F056C020C0F5018081898342E072
:1002B00050E0A40EB51E610101E010E012C0F5018E
:1002C000C080D180F6FC03C06FEF7FEF02C0692DC4
:1002D00070E042E050E0A40EB51EC6010E94A902E3
:1002E0008C015FE7F52214C0F501C080D180F6FCD7
:1002F00003C06FEF7FEF02C0692D70E042E050E075
:10030000A40EB51EC6010E949E028C0150E8F52A7B
:10031000F3FE07C01AC080E290E0B3010E94B4026D
:10032000EA948E2D90E008171907A8F30EC0F60185
:10033000F7FC8591F7FE81916F0190E0B3010E9477
:10034000B402E110EA94015010400115110579F74B
:10035000EAC0943611F0993669F5F7FE08C0F50148
:10036000208131814281538184E090E00AC0F5010F
:10037000808191819C01442737FD4095542F82E074
:1003800090E0A80EB91E9FE6F92257FF09C05095CC
:100390004095309521953F4F4F4F5F4FE0E8FE2A43
:1003A000CA01B901A1012AE030E00E94E002D82E82
:1003B000D21840C0953729F41F2D1F7E2AE030E067
:1003C0001DC01F2D197F9F3661F0903720F498359E
:1003D00009F0ACC00FC0903739F0983709F0A6C0CB
:1003E00004C028E030E00AC0106114FD146020E170
:1003F00030E004C014FD166020E132E017FF08C0B1
:10040000F501608171818281938144E050E008C0F0
:10041000F50180819181BC0180E090E042E050E0F4
:10042000A40EB51EA1010E94E002D82ED2188FE7BB
:10043000F82EF122F6FE0BC05EEFF522D91438F447
:10044000F4FE07C0F2FC05C08FEEF82202C01D2D9D
:1004500001C0192DF4FE0DC0FE01ED0DF11D8081CE
:10046000803319F499EEF92208C01F5FF2FE05C02F
:1004700003C08F2D867809F01F5F0F2DF3FC14C089
:10048000F0FE0FC01E1510F09D2C0BC09D2C9E0C75
:10049000911A1E2D06C080E290E0B3010E94B402C2
:1004A0001F5F1E15C0F304C01E1510F4E11A01C031
:1004B000EE2404FF0FC080E390E0B3010E94B40279
:1004C00002FF1DC001FD03C088E790E00EC088E573
:1004D00090E00BC0802F867891F001FF02C08BE284
:1004E00001C080E2F7FC8DE290E0B3010E94B4020B
:1004F00006C080E390E0B3010E94B4029A94D9143C
:10050000C0F3DA94F101ED0DF11D808190E0B301AB
:100510000E94B402DD20A9F706C080E290E0B3019A
:100520000E94B402EA94EE20C1F743CEF301668143
:100530007781CB012B96E2E10C946323FC010590BB
:10054000615070400110D8F7809590958E0F9F1FD5
:100550000895FC016150704001900110D8F780951A
:1005600090958E0F9F1F08950F931F93CF93DF9346
:100570008C01EB018B8181FF1BC082FF0DC02E819E
:100580003F818C819D812817390764F4E881F981C6
:100590000193F983E88306C0E885F985802F0995E2
:1005A000892B31F48E819F8101969F838E8302C0B7
:1005B0000FEF1FEFC801DF91CF911F910F910895A9
:1005C000FA01AA27283051F1203181F1E8946F9384
:1005D0006E7F6E5F7F4F8F4F9F4FAF4FB1E03ED02A
:1005E000B4E03CD0670F781F891F9A1FA11D680FC8
:1005F000791F8A1F911DA11D6A0F711D811D911DFB
:10060000A11D20D009F468943F912AE0269F11246F
:100610003019305D3193DEF6CF010895462F4770D3
:10062000405D4193B3E00FD0C9F7F6CF462F4F702E
:10063000405D4A3318F0495D31FD4052419302D08C
:10064000A9F7EACFB4E0A695979587957795679532
:10065000BA95C9F700976105710508959B01AC0132
:100660000A2E06945795479537952795BA95C9F759
:10067000620F731F841F951FA01D08950895CF92C8
:10068000DF92EF92FF920F931F936C01CB01BA019F
:10069000F60126813781408551850E9482207B01A9
:1006A0008C01F60122813381448155810E944522CB
:1006B000A80197010E944522A80197010E944522A6
:1006C0001F910F91FF90EF90DF90CF900895CF9200
:1006D000DF92EF92FF920F931F936C01CB01BA014F
:1006E000F60126813781408551850E94822020E0D5
:1006F00030E040E85FE30E9416207B018C01A801F6
:1007000097010E944522A80197010E94452220E0FE
:1007100030E040E85FE30E941720F6012281338138
:10072000448155810E9445221F910F91FF90EF90C7
:10073000DF90CF900895AF92BF92CF92DF92EF9269
:10074000FF920F931F93CF93DF93EC017A018B01FC
:100750006E817F818885998520E030E040E05FE30D
:100760000E9445229B01AC01C801B7010E94822072
:100770007B018C0120E030E040E85FE30E947B20B9
:100780008823ACF46A817B818C819D8120E030E0FC
:1007900040E05FE30E944522A80197010E944522A4
:1007A000A80197010E944522A80197012AC0C8010B
:1007B000B70120E030E040E050E40E9416207B01C9
:1007C0008C016A817B818C819D8120E030E040E05A
:1007D0005FE30E9445225B016C01C801B701A801DB
:1007E00097010E944522A80197010E94452220E01E
:1007F00030E040E050E40E9417209B01AC01C601AC
:10080000B5010E944522E62F2E2F372F482F592F52
:10081000B901CA01DF91CF911F910F91FF90EF9025
:10082000DF90CF90BF90AF900895FC018BE296E0EF
:100830009183808380E090E0A0E0B0E082839383A6
:10084000A483B5830895FC0146835783608771872D
:100850000895FC0142835383648375830895CF9286
:10086000DF92EF92FF920F931F936C01CB01BA01BD
:10087000F60126813781408551850E9482207B01C7
:100880008C01F60122813381448155810E944522E9
:10089000A80197010E9445221F910F91FF90EF90B0
:1008A000DF90CF900895AF92BF92CF92DF92EF92F8
:1008B000FF920F931F936C01CB01BA01F6012681C1
:1008C0003781408551850E9482207B018C01F60191
:1008D00062817381848195819058A80197010E945B
:1008E00045225B016C01C801B70120E030E040E027
:1008F00050E40E9416209B01AC01C601B5010E9484
:1009000045221F910F91FF90EF90DF90CF90BF9005
:10091000AF900895AF92BF92CF92DF92EF92FF9285
:100920000F931F93CF93DF93EC017A018B016E81BC
:100930007F818885998520E030E040E05FE30E9478
:1009400045229B01AC01C801B7010E9482207B01B6
:100950008C0120E030E040E85FE30E947B208823A8
:100960008CF46A817B818C819D8120E030E040E0C5
:100970005FE30E944522A80197010E944522A80139
:1009800097012EC0C801B70120E030E040E85FE3E6
:100990000E9416207B018C016A817B818C819D8164
:1009A00020E030E040E05FEB0E9445225B016C01FB
:1009B000C801B70120E030E040E050E40E9416207A
:1009C0009B01AC01C801B7010E94452220E030E044
:1009D00040E85FE30E9416209B01AC01C601B5010F
:1009E0000E944522E62F2E2F372F482F592FB9016D
:1009F000CA01DF91CF911F910F91FF90EF90DF908F
:100A0000CF90BF90AF900895AF92BF92CF92DF92F8
:100A1000EF92FF920F931F936C01CB01BA012BED64
:100A20003FE049E450E40E944522F60126813781E7
:100A3000408551850E9482200E947F207B018C018D
:100A4000F601628173818481958120E030E040E08D
:100A50005FEB0E9445225B016C01C801B70120E0F9
:100A600030E040E85FE30E9416209B01AC01C60124
:100A7000B5010E9445221F910F91FF90EF90DF90EA
:100A8000CF90BF90AF900895EF92FF920F931F9376
:100A9000FC01E280F38004811581CB01BA0126813B
:100AA0003781408551850E9482202BED3FE049EC43
:100AB0005FE30E9445220E947F209B01AC01C80198
:100AC000B70190580E944522A80197010E94172063
:100AD0001F910F91FF90EF9008950F931F938C013A
:100AE000CB01BA01F80126813781408551850E94EA
:100AF00082202BED3FE049EC5FE30E9445220E94FB
:100B0000A822F80122813381448155810E94452227
:100B10001F910F91089586E796E060E00E948B1484
:100B2000089589E060E00E94C41C0895CF92DF928E
:100B3000EF92FF920F931F938C016B0186E7E82ED3
:100B400086E0F82EC70160E040E00E942B16C70146
:100B5000B8010E941320C70160E041E00E942B16FB
:100B6000C701B6010E9413201F910F91FF90EF90D3
:100B7000DF90CF90089587E061E00E94C41C66E991
:100B800070E080E090E00E94C51B87E060E00E947A
:100B9000C41C089589E061E00E94C41C62E070E01A
:100BA00080E090E00E94C51B08950F931F9382E0A0
:100BB00061E00E94851C83E061E00E94851C89E061
:100BC00061E00E94851C89E061E00E94C41C0AEE7D
:100BD00017E0C80140E855E260E070E00E94371E6F
:100BE000C80167E571E00E94132087E061E00E9480
:100BF000851C06E716E0C80160E142E020E00E94A3
:100C00006F16C80169E671E00E941320C80160E018
:100C100041E00E942B16C80167E771E00E94132093
:100C200068EB7BE080E090E00E94C51BC8010E9459
:100C30005A168AE062E00E94851C84E060E00E940F
:100C4000851C86E060E00E94851C1F910F9108952D
:100C500081E00E94631C08950E94280620E0C2974C
:100C60000CF421E0822F08950E94280620E0895E7E
:100C700093400CF021E0822F089580E00E94631CD5
:100C800008950E943D0620E0C2970CF421E0822FD7
:100C900008950E943D0620E0895E93400CF021E01B
:100CA000822F0895CF93DF93EC0180E00E94631CB4
:100CB0008955924084F0BE01882777FD8095982F52
:100CC0000E94C51B80E00E94631C895592400CF471
:100CD00042C022E041C080E00E94631C80599140E4
:100CE00084F4BE01882777FD8095982F0E94C51B4C
:100CF00080E00E94631C20E0805991406CF521E067
:100D00002BC081E00E94631C895592407CF0BE019B
:100D1000882777FD8095982F0E94C51B81E00E944F
:100D2000631C89559240BCF023E016C081E00E940C
:100D3000631C805991407CF4BE01882777FD809523
:100D4000982F0E94C51B81E00E94631C805991402E
:100D500014F424E001C020E0822FDF91CF910895A8
:100D60008AE00E94181D20E0892B09F421E0822FDF
:100D70000895AF92BF92CF92DF92EF92FF920F93BE
:100D80001F937A0100D000D000D0CDB6DEB6089413
:100D9000C11CD11C27EDA22E24E0B22EEDB7FEB768
:100DA000B282A1822CE931E0F6013383228324E66A
:100DB00030E040E050E00E94BE220027F7FC0095A2
:100DC000102FA80197010E940423F6013583248384
:100DD0000E949D008DB79EB706960FB6F8949EBFF1
:100DE0000FBE8DBF86EC94E0B5010E9496051F9161
:100DF0000F91FF90EF90DF90CF90BF90AF9008954C
:100E0000EF92FF920F931F937B018C019A01CA010D
:100E10000197029710F480E006C023503040223042
:100E2000310538F481E00E94631C9093150680938D
:100E300014068091140690911506825C91408536C7
:100E4000910560F18091950690919606A091970684
:100E5000B09198060097A105B105A9F00E94B71BB3
:100E6000E0E02091950630919606409197065091CA
:100E70009806621B730B840B950BE616F7060807A2
:100E80001907A8F013C00E94B71B609395067093D2
:100E90009606809397069093980608C01092950640
:100EA000109296061092970610929806E1E08E2F07
:100EB0001F910F91FF90EF900895CF93DF93EC0176
:100EC0008AE00E94181D882389F5809191069091EF
:100ED0009206A0919306B09194060097A105B105E2
:100EE000D1F00E94B71BE0E020919106309192066C
:100EF0004091930650919406621B730B840B950BE3
:100F00009E01442737FD4095542F26173707480781
:100F10005907A8F013C00E94B71B60939106709305
:100F20009206809393069093940608C010929106BF
:100F3000109292061092930610929406E1E08E2F82
:100F4000DF91CF9108956F927F928F929F92AF928F
:100F5000BF92CF92DF92EF92FF920F931F93CF93A6
:100F6000DF93E62E3C0197FF04C066247724681ABD
:100F7000790A60E0181619060CF461E082E00E941C
:100F8000C41C6E2D70E080E090E00E941B2120E0E8
:100F900030E048EC52E40E9482209B01AC0160E00A
:100FA00070E080E89FE30E94822020E030E04CE87F
:100FB00052E40E9445227B018C0143019594879461
:100FC00095948794B401660F771F660F771F680D9D
:100FD000791D882777FD8095982F0E941D219B0100
:100FE000AC01C801B7010E9417205B016C01C0E091
:100FF000D0E01FC0C601B50120E030E040EA50E477
:101000000E9416205B016C0183E061E00E94C41C19
:10101000C601B5010E94EF207B018C01CB010E942B
:101020001E1C83E060E00E94C41CC7010E941E1CBD
:101030002196C815D905F4F2C401880F991F681AC2
:10104000790AC0E0D0E015C083E061E00E94C41CD2
:10105000C601B5010E94EF207B018C01CB010E94EB
:101060001E1C83E060E00E94C41CC7010E941E1C7D
:101070002196C615D70544F3C0E0D0E01FC0C601D5
:10108000B50120E030E040EA50E40E9417205B0107
:101090006C0183E061E00E94C41CC601B5010E949E
:1010A000EF207B018C01CB010E941E1C83E060E0DD
:1010B0000E94C41CC7010E941E1C2196C815D90598
:1010C000F4F2DF91CF911F910F91FF90EF90DF909D
:1010D000CF90BF90AF909F908F907F906F9008952A
:1010E0002F923F924F925F926F927F928F929F9238
:1010F000AF92BF92CF92DF92EF92FF920F931F9326
:10110000DF93CF93CDB7DEB7CE54D0400FB6F8946F
:10111000DEBF0FBECDBF2F968FAF2F971B01CA0129
:10112000B90128EE33E040E050E00E94BE222E9646
:101130006CAF7DAF8EAF9FAF2E978E010F5F1F4FAD
:10114000C8010E941504E5E3EE2EE6E0FE2EFA82C9
:10115000E982B101882777FD8095982F0E941D2193
:101160004B015C01C801B501A4010E9423046091F8
:10117000DF057091E00580E090E00E941B21AB014B
:10118000BC01C8010E9429048E01055F1F4FC801E0
:101190000E9415047FE3472E76E0572E5C864B862F
:1011A000C801B501A4010E9423046091DF0570917C
:1011B000E00580E090E00E941B21AB01BC01C8016A
:1011C0000E9429048E010B5E1F4FC8010E94150466
:1011D00061E2662E66E0762E7E8A6D8AC801B501D0
:1011E000A4010E9423046091DF057091E00580E076
:1011F00090E00E941B21AB01BC01C8010E942904A0
:101200008E01015E1F4FC8010E941504F8A2EF8EE7
:10121000C801B501A4010E9423042E966CAD7DADDA
:101220008EAD9FAD2E970E941B216B017C01C801E2
:10123000B701A6010E9429048E01075D1F4FC80156
:101240000E9415045AA649A6C801B501A4010E942E
:101250002304C801B701A6010E9429048E010D5C78
:101260001F4FC8010E9415047CAA6BAAC801B501D2
:10127000A4010E942304C801B701A6010E94290409
:10128000C090DF05D090E0056091F5057091F605FE
:101290008091F7059091F80528EE33E040E050E0AA
:1012A0000E94BE220E94C51B8091FA05823029F45B
:1012B00086E796E060E00E9462169101442737FDC0
:1012C0004095542F2E966CAD7DAD8EAD9FAD2E9773
:1012D0000E9404232901C601B1010E94DD224B01B5
:1012E000AA24BB2422961FAE22976624772421E0ED
:1012F00030E040E050E021962CAF3DAF4EAF5FAF05
:101300002197EDC20E94B71B2A966CAF7DAF8EAFBE
:101310009FAF2A9721966CAD7DAD8EAD9FAD219785
:10132000A1010E94B9060E94BB056091E70570917A
:10133000E80580E090E00E94C51B8091070683309D
:1013400009F466C0843009F4C3C0823009F029C1B1
:1013500080910A06823011F18330E9F1813009F081
:1013600020C1B601882777FD8095982F0E941D2106
:10137000AB01BC01CE0101960E942F047B018C01C0
:10138000B301882777FD8095982F0E941D21AB011E
:10139000BC01CE0101960E942F04F9C0B601882736
:1013A00077FD8095982F0E941D21AB01BC01CE01D5
:1013B00001960E9453047B018C01B301882777FDBD
:1013C0008095982F0E941D21AB01BC01CE01019692
:1013D0000E945304DCC0B601882777FD8095982FC2
:1013E0000E941D21AB01BC01CE0101960E948A041E
:1013F0007B018C01B301882777FD8095982F0E948F
:101400001D21AB01BC01CE0101960E948A04BFC020
:1014100080910A06823011F18330E9F1813009F0C0
:10142000C0C0B601882777FD8095982F0E941D21A6
:10143000AB01BC01CE010B960E9444057B018C01DF
:10144000B301882777FD8095982F0E941D21AB015D
:10145000BC01CE010B960E94440599C0B6018827B5
:1014600077FD8095982F0E941D21AB01BC01CE0114
:101470000B960E946D057B018C01B301882777FDD7
:101480008095982F0E941D21AB01BC01CE010B96C7
:101490000E946D057CC0B601882777FD8095982F46
:1014A0000E941D21AB01BC01CE010B960E940405D8
:1014B0007B018C01B301882777FD8095982F0E94CE
:1014C0001D21AB01BC01CE010B960E9404055FC03B
:1014D00080910A06823011F18330E9F1813009F000
:1014E00060C0B601882777FD8095982F0E941D2146
:1014F000AB01BC01CE0145960E943F037B018C01EC
:10150000B301882777FD8095982F0E941D21AB019C
:10151000BC01CE0145960E943F0339C0B601882721
:1015200077FD8095982F0E941D21AB01BC01CE0153
:1015300045960E9467037B018C01B301882777FDE4
:101540008095982F0E941D21AB01BC01CE014596CC
:101550000E9467031CC0B601882777FD8095982FED
:101560000E941D21AB01BC01CE0145960E949B0348
:101570007B018C01B301882777FD8095982F0E940D
:101580001D21AB01BC01CE0145960E949B039B012E
:10159000AC01C801B7010E9416200E94EA204B014D
:1015A0005C018091F905813011F40E94CA052F96E3
:1015B0003FAD2F97323040F0B094A0949094809437
:1015C000811C911CA11CB11CC4016FE00E94A307E7
:1015D0008091F905813011F40E9491050E94B006B6
:1015E000882321F422961FAE22970AC022964FAD7F
:1015F00022974F5F22964FAF2297433008F075C174
:101600000E94B71BDC01CB012A962CAD3DAD4EAD3F
:101610005FAD2A97821B930BA40BB50B26968CAF5C
:101620009DAFAEAFBFAF269780910D06833009F412
:1016300066C0843009F4C3C0823009F028C18091AB
:101640001006823011F18330E9F1813009F01FC1B9
:10165000B601882777FD8095982F0E941D21AB0148
:10166000BC01CE014F960E942F047B018C01B30177
:10167000882777FD8095982F0E941D21AB01BC0122
:10168000CE014F960E942F04F9C0B601882777FD3E
:101690008095982F0E941D21AB01BC01CE014F9671
:1016A0000E9453047B018C01B301882777FD80954C
:1016B000982F0E941D21AB01BC01CE014F960E94C4
:1016C0005304DCC0B601882777FD8095982F0E94CF
:1016D0001D21AB01BC01CE014F960E948A047B0103
:1016E0008C01B301882777FD8095982F0E941D21DA
:1016F000AB01BC01CE014F960E948A04BFC080910D
:101700001006823011F18330E9F1813009F0BFC059
:10171000B601882777FD8095982F0E941D21AB0187
:10172000BC01CE0189960E9444057B018C01B30166
:10173000882777FD8095982F0E941D21AB01BC0161
:10174000CE0189960E94440599C0B601882777FD8D
:101750008095982F0E941D21AB01BC01CE01899676
:101760000E946D057B018C01B301882777FD809570
:10177000982F0E941D21AB01BC01CE0189960E94C9
:101780006D057CC0B601882777FD8095982F0E9453
:101790001D21AB01BC01CE0189960E9404057B018D
:1017A0008C01B301882777FD8095982F0E941D2119
:1017B000AB01BC01CE0189960E9404055FC08091F7
:1017C0001006823011F18330E9F1813009F05FC0F9
:1017D000B601882777FD8095982F0E941D21AB01C7
:1017E000BC01CE01C3960E943F037B018C01B30173
:1017F000882777FD8095982F0E941D21AB01BC01A1
:10180000CE01C3960E943F0339C0B601882777FDF9
:101810008095982F0E941D21AB01BC01CE01C3967B
:101820000E9467037B018C01B301882777FD8095B7
:10183000982F0E941D21AB01BC01CE01C3960E94CE
:1018400067031CC0B601882777FD8095982F0E94FA
:101850001D21AB01BC01CE01C3960E949B037B01FD
:101860008C01B301882777FD8095982F0E941D2158
:10187000AB01BC01CE01C3960E949B039B01AC014E
:10188000C801B7010E9416200E94EA202B01B20174
:10189000882777FD8095982F26962CAD3DAD4EADCF
:1018A0005FAD2697261737074807590730F4621BA4
:1018B000730B840B950B0E94C51B0894611C711C53
:1018C00021968CAD9DADAEADBFAD21970196A11D0A
:1018D000B11D21968CAF9DAFAEAFBFAF2197CDAC00
:1018E000DEAC2C143D040CF00DCD86E796E061E0F3
:1018F0000E9462160E94CA05C25BDF4F0FB6F894C1
:10190000DEBF0FBECDBFCF91DF911F910F91FF9032
:10191000EF90DF90CF90BF90AF909F908F907F908F
:101920006F905F904F903F902F9008956091E105E8
:101930007091E2052091FB053091FC054091FD0579
:101940005091FE05809113060E94700881E08093FB
:10195000DC0588EE94E069EF74E00E949605089536
:10196000EF92FF920F931F936730710509F4DCC269
:1019700068307105C4F46330710509F40BC164303B
:10198000710544F46130710559F16230710509F057
:10199000B2C47BC06530710509F4A2C1663071051F
:1019A0000CF078C23AC16B30710509F412C46C3086
:1019B00071054CF46930710509F45CC36A30710536
:1019C0000CF0ABC3FBC26D30710509F485C46D30FA
:1019D00071050CF452C46E30710509F08CC483C4D7
:1019E0002091E1053091E205181619064CF44B30B0
:1019F00051051CF481E090E010C08AE090E00DC039
:101A0000892B19F480E090E008C04B3051051CF49C
:101A10008FEF9FEF02C086EF9FEF820F931F4091E1
:101A2000E5055091E6052091E3053091E40528177E
:101A3000390714F49A0104C0841795070CF09C012F
:101A40003093E2052093E10500D000D000D0EDB73F
:101A5000FEB731960EE213E0ADB7BEB712961C93F7
:101A60000E9311978FEA91E09383828335832483C9
:101A70000E949D00EDB7FEB736960FB6F894FEBFF4
:101A80000FBEEDBF8DE193E0F6C3E090FB05F09053
:101A9000FC050091FD051091FE05181619064CF481
:101AA0004B3051051CF421E030E010C02AE030E05A
:101AB0000DC0892B19F420E030E008C04B305105EF
:101AC0001CF42FEF3FEF02C026EF3FEF8CE390E0D6
:101AD000AC01249FC001259F900D349F900D1124CF
:101AE0009C01442737FD4095542F2E0D3F1D401F6C
:101AF000511F8091FF0590910006E0910306F0913F
:101B00000406E217F30714F4FC0104C02817390790
:101B10000CF0F901BF01882777FD8095982F60931D
:101B2000FB057093FC058093FD059093FE05ADB712
:101B3000BEB718970FB6F894BEBF0FBEADBF0DB7B6
:101B40001EB70F5F1F4F20E5E22E23E0F22E129604
:101B5000FC92EE92119720EC31E0F801338322835E
:101B60002CE330E040E050E00E942623D801149698
:101B70002D933D934D935C9317970E949D00EDB775
:101B8000FEB738960FB6F894FEBF0FBEEDBF8FE3D9
:101B900093E041C02DB73EB7285030400FB6F894BF
:101BA0003EBF0FBE2DBF0DB71EB70F5F1F4FF2E731
:101BB000EF2EF3E0FF2EADB7BEB71296FC92EE9279
:101BC000119780ED91E0F801938382832091E105E4
:101BD0003091E205442737FD4095542F6091FB0575
:101BE0007091FC058091FD059091FE050E942623D1
:101BF000D80114962D933D934D935C9317970E94B3
:101C00009D00EDB7FEB738960FB6F894FEBF0FBE35
:101C1000EDBF81E693E0B70163C36091E705709182
:101C2000E805181619064CF44B3051051CF421E058
:101C300030E010C02AE030E00DC0892B19F420E01C
:101C400030E008C04B3051051CF42FEF3FEF02C0CD
:101C500026EF3FEF88EE93E0289FA001299F500DCB
:101C6000389F500D1124460F571F8091E905909120
:101C7000EA052091EB053091EC052417350714F4A3
:101C80009C0104C0481759070CF09A012093E705FE
:101C90003093E80500D000D000D0EDB7FEB7319604
:101CA00006EB13E0ADB7BEB712961C930E931197D7
:101CB00081EE91E093838283C90168EE73E00E9414
:101CC000DD22758364830E949D00EDB7FEB73696D2
:101CD0000FB6F894FEBF0FBEEDBF85EA93E0CBC20E
:101CE000E090F505F090F6050091F7051091F805E4
:101CF000FCE3EF16F10401051105F8F418161906B6
:101D00004CF44B3051051CF421E030E010C02AE0C7
:101D100030E00DC0892B19F420E030E008C04B30D2
:101D200051051CF42FEF3FEF02C026EF3FEFC90132
:101D3000AA2797FDA095BA2F27C0181619064CF4AC
:101D40004B3051051CF421E030E010C02AE030E0B7
:101D50000DC0892B19F420E030E008C04B3051054C
:101D60001CF42FEF3FEF02C026EF3FEF8CE390E033
:101D7000AC01249FC001259F900D349F900D11242C
:101D8000AA2797FDA095BA2F8E0D9F1DA01FB11FEA
:101D90008093F5059093F605A093F705B093F805A9
:101DA0002091F5053091F6054091ED055091EE0535
:101DB0008091F1059091F2058217930714F4CA01FE
:101DC00004C0241735070CF0C9019C01442737FDD6
:101DD0004095542F2093F5053093F6054093F70571
:101DE0005093F80584E993E02C3331054105510502
:101DF000D8F46DB77EB7685070400FB6F8947EBFC8
:101E00000FBE6DBFEDB7FEB73196ADB7BEB7129638
:101E10009C938E93119781EF91E093838283248327
:101E200035834683578327C06DB77EB768507040AF
:101E30000FB6F8947EBF0FBE6DBF0DB71EB70F5F14
:101E40001F4FADB7BEB712969C938E9311978FEF2D
:101E500091E0F80193838283CA01B9012CE330E059
:101E600040E050E00E940423D80114962D933D9346
:101E70004D935C9317970E949D00EDB7FEB738967F
:101E80000FB6F894FEBF0FBEEDBF83E893E064E9A0
:101E900073E026C22091F905181619061CF481E09A
:101EA00090E007C0892B19F08FEF9FEF02C080E010
:101EB00090E0280F822F90E0833091051CF081E0A4
:101EC00090E004C0009711F482E090E0282F809306
:101ED000F905813019F0823031F403C023E531E097
:101EE00002C02FE431E000D000D000D0EDB7FEB743
:101EF000319608ED13E0ADB7BEB712961C930E9362
:101F000011978DE092E093838283358324830E942E
:101F10009D00EDB7FEB736960FB6F894FEBF0FBE24
:101F2000EDBF87EC93E0A7C12091FA0518161906BA
:101F30001CF481E090E007C0892B19F08FEF9FEF30
:101F400002C080E090E0280F822F90E0833091055E
:101F50001CF081E090E004C0009711F482E090E072
:101F6000282F8093FA05813019F0823031F403C0B4
:101F700023E531E002C02FE431E000D000D000D0F2
:101F8000EDB7FEB731960AEF13E0ADB7BEB71296C4
:101F90001C930E9311978DE092E093838283358397
:101FA00024830E949D00EDB7FEB736960FB6F894D5
:101FB000FEBF0FBEEDBF89EE93E05DC12091070625
:101FC000181619061CF481E090E007C0892B19F05F
:101FD0008FEF9FEF02C080E090E0281B30E08091FF
:101FE0000806482F50E08091090690E08217930779
:101FF00014F4CA0104C0241735070CF0C901282FB6
:1020000080930706823069F0833018F4813089F4B8
:1020100005C0833049F0843061F409C02EE131E01D
:1020200008C020E031E005C02AE031E002C024E130
:1020300031E000D000D000D0EDB7FEB731960CE112
:1020400014E0ADB7BEB712961C930E9311978DE1B5
:1020500092E093838283358324830E949D00EDB7B1
:10206000FEB736960FB6F894FEBF0FBEEDBF8BE0FD
:1020700094E001C120910A06181619061CF481E0AB
:1020800090E007C0892B19F08FEF9FEF02C080E02E
:1020900090E0281B30E080910B06482F50E08091A3
:1020A0000C0690E08217930714F4CA0104C02417A9
:1020B00035070CF0C901282F80930A06823039F0C9
:1020C000833041F0813041F422E431E005C028E260
:1020D00031E002C025E331E000D000D000D0EDB700
:1020E000FEB731960EE314E0ADB7BEB712961C935F
:1020F0000E93119787E292E0938382833583248342
:102100000E949D00EDB7FEB736960FB6F894FEBF5D
:102110000FBEEDBF8DE294E0AEC020910D06181603
:1021200019061CF481E090E007C0892B19F08FEFAD
:102130009FEF02C080E090E0281B30E080910E0607
:10214000482F50E080910F0690E08217930714F417
:10215000CA0104C0241735070CF0C901282F809349
:102160000D06823069F0833018F4813089F405C09F
:10217000833049F0843061F409C02EE131E008C0B9
:1021800020E031E005C02AE031E002C024E131E086
:1021900000D000D000D0EDB7FEB7319600E614E0D5
:1021A000ADB7BEB712961C930E9311978DE192E0D6
:1021B00093838283358324830E949D00EDB7FEB70D
:1021C00036960FB6F894FEBF0FBEEDBF8FE494E0D5
:1021D00052C020911006181619061CF481E090E0F8
:1021E00007C0892B19F08FEF9FEF02C080E090E0CD
:1021F000281B30E080911106482F50E08091120694
:1022000090E08217930714F4CA0104C0241735071D
:102210000CF0C901282F80931006823039F08330EA
:1022200041F0813041F422E431E005C028E231E0A0
:1022300002C025E331E000D000D000D0EDB7FEB7FA
:10224000319602E814E0ADB7BEB712961C930E9318
:10225000119787E292E093838283358324830E94DF
:102260009D00EDB7FEB736960FB6F894FEBF0FBED1
:10227000EDBF81E794E0B80133C040911306181612
:1022800019061CF421E030E007C0892B19F02FEF6C
:102290003FEF02C020E030E0420F242F30E0233037
:1022A00031051CF021E030E005C02115310511F4A5
:1022B00022E030E020931306213049F486E796E0CF
:1022C0000E945A168EE292E064EA74E009C083E943
:1022D00094E065EB74E004C08FE392E060E572E0A7
:1022E0000E94960508C081E692E062E772E00E94D3
:1022F00096050E94960C1F910F91FF90EF90089504
:10230000CF93DF936091DC0580E090E070E040E0E7
:1023100050E00E94B00C40C00E944906882329F476
:102320000E944106882309F45EC066E970E080E0FF
:1023300090E00E94C51B21960E944106882339F037
:102340008091DC05282F30E0215030400BC00E94E6
:102350004906882309F43FC08091DC05282F30E02E
:102360002F5F3F4F8091DE05482F50E08091DD05C3
:10237000682F70E06217730714F4BA0104C02417C1
:1023800035070CF0B9016093DC0580E090E01FC0D8
:102390000E942C06882319F4C0E0D0E01CC066E936
:1023A00070E080E090E00E94C51B21960E942C0600
:1023B000882329F06091DC058FEF9FEF08C00E9411
:1023C0003406882341F06091DC0581E090E070E004
:1023D000AE010E94B00C88EE93E00E945D07882356
:1023E00009F09ACF05C00E9434068823C1F6D0CFE9
:1023F000DF91CF9108958F929F92AF92BF92CF922B
:10240000DF92EF92FF920F931F93CF93DF93E62E0D
:102410004C0197FF04C088249924881A990A60E027
:10242000181619060CF461E082E00E94C41C6E2D9F
:1024300070E080E090E00E941B2120E030E048EC5A
:1024400052E40E9482209B01AC0160E070E080E8D1
:102450009FE30E94822020E030E04CE852E40E949A
:1024600045225B016C01C0E0D0E015C083E061E073
:102470000E94C41CC601B5010E94EF207B018C01A3
:10248000CB010E941E1C83E060E00E94C41CC701B7
:102490000E941E1C2196C815D90544F3DF91CF91E7
:1024A0001F910F91FF90EF90DF90CF90BF90AF9072
:1024B0009F908F900895CF92DF92EF92FF920F93AB
:1024C0001F93CF93DF938CE295E06DE375E00E945C
:1024D000960501E010E064EFC62E61E0D62E59E1CA
:1024E000E52EF12CA8C080E00E94631CEC0181E085
:1024F0000E94631C8F5F9340C1F564EF71E080E040
:1025000090E00E94C51B81E00E94631C8F5F934096
:1025100061F50F5F1F4FC8018170907000FF11C0FF
:102520008CE295E06FE575E00E94960568EE73E039
:1025300080E090E00E94C51B8CE295E06DE375E0C1
:1025400012C0892B91F48CE295E06FE575E00E9452
:10255000960568EE73E080E090E00E94C51B8CE277
:1025600095E06EE475E00E94960582E0CC30D807D5
:1025700044F1C8018170907000FF10C086E00E9495
:10258000181D019709F457C0CB50D240CE9DC00111
:10259000CF9D900DDE9D900D112445C0892B09F033
:1025A0004AC084E00E94181D019709F444C0CB5032
:1025B000D240CE9DC001CF9D900DDE9D900D112487
:1025C00019C021E0C43FD207B4F5C80181709070F2
:1025D00000FF17C084E00E94181D019761F1C60139
:1025E0008C1B9D0B9C012E9DC0012F9D900D3E9D2F
:1025F000900D112464EF71E00E94F1228FEF9FEFA4
:1026000018C0892BC1F486E00E94181D019799F02B
:10261000C6018C1B9D0B9C012E9DC0012F9D900D12
:102620003E9D900D112464EF71E00E94F12281E043
:1026300090E00E94FB1188EE93E00E945D078823E2
:1026400009F051CFDF91CF911F910F91FF90EF9043
:10265000DF90CF90089582309105A1F083309105ED
:1026600001F1019769F58BEF92E06CE073E00E9455
:10267000960564EC79E080E090E00E94C51B0E9422
:10268000801108958AE095E06BE175E00E9496055F
:1026900064EC79E080E090E00E94C51B0E945B1230
:1026A000089580E795E061E875E00E94960564EC86
:1026B00079E080E090E00E94C51B0E94CF1308954E
:1026C0008AEB95E06BEC75E00E94960564EC79E08E
:1026D00080E090E00E94C51B0E946F1308954AC0DD
:1026E00082E390E00E94520690E08330910531F43D
:1026F0008091160690911706019707C0049749F438
:102700008091160690911706019690931706809374
:102710001606209116063091170640911806509122
:10272000190680911A0690911B068217930714F4DC
:10273000CA0104C0241735070CF0C901909317068D
:10274000809316068230910531F08330910549F06F
:10275000019751F403C069ED72E008C068EC72E0C3
:1027600005C06AEE72E002C06AEB75E087EB92E0AA
:102770000E94960562E370E080E090E042E050E065
:102780000E940007882309F0ABCF80911606909134
:1027900017060E942B1308950E946F1308954F92FD
:1027A0005F926F927F928F929F92AF92BF92CF92E1
:1027B000DF92FF920F931F93CF93DF93A2E94A2EEC
:1027C000A5E05A2EF3E86F2EF2E07F2EE3EAAE2E5C
:1027D000E5E0BE2E74E9872E72E0972E83C08EE06E
:1027E0000E94631CEC018FE00E94631C6C018AE074
:1027F0000E94181D182F84E00E94181D082F86E0E3
:102800000E94181DF82E112319F486EB95E007C0DD
:10281000113019F088EB95E002C084EB95E02DB7FC
:102820003EB7285030400FB6F8943EBF0FBE2DBFC4
:10283000EDB7FEB73196ADB7BEB712965C924E9229
:10284000119773826282D583C483978386830E94A3
:102850009D002DB73EB7285F3F4F0FB6F8943EBF9F
:102860000FBE2DBF013019F426EB35E007C0002361
:1028700019F028EB35E002C024EB35E041E0F41616
:1028800019F486EB95E007C0FF2019F088EB95E07E
:1028900002C084EB95E0ADB7BEB71A970FB6F894B7
:1028A000BEBF0FBEADBFEDB7FEB731961296BC925C
:1028B000AE92119793828282D582C4823783268317
:1028C000918780870E949D002DB73EB7265F3F4FBE
:1028D0000FB6F8943EBF0FBE2DBF82E995E0B5015B
:1028E0000E94960588EE93E00E945D07882309F018
:1028F00076CF0E946F13DF91CF911F910F91FF90C0
:10290000DF90CF90BF90AF909F908F907F906F900F
:102910005F904F900895FC011382128289E496E043
:1029200091838083618F178681E084838FEF858315
:1029300082E0868383E0878384E0808785E08187E7
:1029400086E082870895FC01818D8F3F29F0CF01B9
:102950004A960E94A617089585898F3F21F4862FF5
:10296000642F0E94851C0895CF93DF93EC01898D1D
:102970008F3F29F0CE014A960E947C172AC08D898C
:102980008F3F19F1288D413049F481E090E002C079
:10299000880F991F6A95E2F7282B09C081E090E023
:1029A00002C0880F991F6A95E2F780952823288F27
:1029B0008F8960E00E94C41C8E896D8941E0288D5A
:1029C0000E946B1D8F8961E002C0862F642F0E94D8
:1029D000C41CDF91CF9108950F931F938C01F801D0
:1029E000668140E00E94B41481E090E00E941E1CC9
:1029F000C801F801668141E00E94B41481E090E0D2
:102A00000E941E1CC801F801668140E00E94B414B7
:102A100084E690E00E941E1C1F910F910895CF92B2
:102A2000DF92EF92FF920F931F93CF93DF93F82ED5
:102A3000E92E282F392FC9018C01C0E0D0E0C62E25
:102A4000DD248F2D9E2DF801678141E00E94A314A3
:102A5000A6010C2E02C0559547950A94E2F74170E5
:102A60008F2D9E2DF80167810E94B41421960F5F6F
:102A70001F4FC830D10529F78F2D9E2D0E94EC14D1
:102A8000DF91CF911F910F91FF90EF90DF90CF904A
:102A90000895AF92BF92CF92DF92EF92FF920F9381
:102AA0001F93CF93DF937C01B62EFC01818D8F3F66
:102AB00009F468C08AE1C82ED12CCE0CDF1CC601F7
:102AC0000E947817782FF70140E050E0AB2DB0E07E
:102AD00001E010E087819D01042E02C03595279505
:102AE0000A94E2F721703070082E02C0220F331FC3
:102AF0000A94E2F7C1E0D0E0580102C0AA0CBB1C66
:102B00008A95E2F7C50180957823722B4F5F5F4F5E
:102B1000319644305105F1F68E01F701068002C06E
:102B2000000F111F0A94E2F700950723C601602FDA
:102B30000E944A1781E090E00E941E1CCE01F7011E
:102B4000068002C0880F991F0A94E2F7082BC6017D
:102B5000602F0E944A1781E090E00E941E1CF7013E
:102B6000068002C0CC0FDD1F0A94E2F75E01A0943C
:102B70000A21C601602F0E944A1784E690E00E9455
:102B80001E1C21C08701C0E0D0E0C62EDD24C70195
:102B9000F801678141E00E94A314A6010C2E02C037
:102BA000559547950A94E2F74170C701F80167818E
:102BB0000E94B41421960F5F1F4FC430D10539F71E
:102BC000C7010E94EC14DF91CF911F910F91FF90EC
:102BD000EF90DF90CF90BF90AF9008951F93CF9369
:102BE000DF93EC01162F6C810E94B4146D816F3F4E
:102BF00021F0CE0140E00E94B4148F8584FF05C00F
:102C0000CE01612F0E940F150EC0612F70E094E07D
:102C1000759567959A95E1F7CE010E944915CE0109
:102C2000612F0E944915DF91CF911F91089541E0D6
:102C30000E94EE1581E090E0089540E00E94EE15BC
:102C40000895FC016089862F8460808B6C60CF01C1
:102C50000E941D160895DF93CF93CDB7DEB7289756
:102C60000FB6F894DEBF0FBECDBF9C01FE013196BA
:102C7000ADE4B6E088E00D9001928150E1F7F901F2
:102C80008389841710F4482F4150E42FF0E0EE0FB1
:102C9000FF1FEC0FFD1F8181680F6068C9010E9452
:102CA0001D1628960FB6F894DEBF0FBECDBFCF918C
:102CB000DF91089561E00E941D1680ED97E00E946B
:102CC0001E1C0895FC01462F818D8F3F19F48589C4
:102CD0008F3F21F0CF0167E00E94B4140895AF92B6
:102CE000BF92CF92DF92EF92FF920F931F93CF93F9
:102CF000DF93EC01B42EA22E698D6F3F71F17AE162
:102D0000E72EF12CE80EF91EC7010E94D217C70169
:102D100067E041E00E94A617C70167E041E00E941A
:102D20007C178E0154E0C52ED12CCC0EDD1ECE01B9
:102D3000F801678141E00E94A3140F5F1F4F0C153B
:102D40001D05A9F7C7016C8141E00E94A617C701C4
:102D50006E8141E00E94A61705C08D898F3F11F05A
:102D600080E8888FF1E0FB1518F48F8588608F87E5
:102D7000BB8A1C8AAA2031F081E0B81619F48F852D
:102D800084608F8780E593EC0E941E1CCE016C81CD
:102D900040E00E94B414CE016E8140E00E94B41461
:102DA0006D816F3F21F0CE0140E00E94B4146F8529
:102DB00064FD1DC0CE0163E00E94491584E991E1E4
:102DC0000E941E1CCE0163E00E94491584E991E136
:102DD0000E941E1CCE0163E00E94491586E990E026
:102DE0000E941E1CCE0162E00E94491516C060625E
:102DF000CE010E941D1684E991E10E941E1C6F8580
:102E00006062CE010E941D1686E990E00E941E1CA1
:102E10006F856062CE010E941D166F856062CE01D3
:102E20000E941D1684E0888BCE010E942116CE01DF
:102E30000E945A1682E0898BCE0166E00E941D1620
:102E4000DF91CF911F910F91FF90EF90DF90CF9086
:102E5000BF90AF900895EF92FF920F931F93FC01E4
:102E6000F62EE42E0FED16E060816062C80170E07E
:102E70000E942218C8016F2D0E94A418C8016E2D4F
:102E80000E94A418C8010E94E7181F910F91FF909B
:102E9000EF900895462F69E00E942B170895DF9266
:102EA000EF92FF920F931F937C01D62E0FED16E049
:102EB000FC0160816062C80170E00E942218C801B4
:102EC0006D2D0E94A418C8010E94E718F7016081C7
:102ED0006062C80170E041E050E00E94F818C8014B
:102EE0000E9435181F910F91FF90EF90DF90089589
:102EF00069E00E944F1708950F931F93CF93DF93BC
:102F0000EC01162F042F6830E0F40E947817282F68
:102F1000013051F481E090E002C0880F991F1A95AA
:102F2000E2F7622F682B0AC081E090E002C0880FB0
:102F3000991F1A95E2F7682F60956223CE010E94CF
:102F40004A17DF91CF911F910F9108950F931F930F
:102F5000CF93DF93EC01162F042F6830F0F460E07C
:102F60000E944F17282F002351F481E090E002C007
:102F7000880F991F1A95E2F7422F482B0AC081E06B
:102F800090E002C0880F991F1A95E2F7482F4095EC
:102F90004223CE0160E00E942B17DF91CF911F9159
:102FA0000F910895CF93DF93EC01683008F067E04C
:102FB00068838FED96E00E94FC18688160628FED57
:102FC00096E070E00E9422188FED96E060E00E948B
:102FD000A4188FED96E06FEF0E94A4188FED96E095
:102FE00060E00E94A4188FED96E060E00E94A418B3
:102FF0008FED96E060E00E94A4188FED96E060E00F
:103000000E94A4188FED96E060E00E94A4188FED56
:1030100096E060E00E94A4188FED96E060E00E94C8
:10302000A4188FED96E060E00E94A4188FED96E062
:1030300060E00E94A4188FED96E00E94E718DF91EF
:10304000CF91089581E08093DE066093BB061092D5
:10305000DC061092DD0608952091BA0630E08091DA
:10306000B906281B3109C90108954091B90680911C
:10307000BA06481718F02FEF3FEF0AC0E42FF0E030
:10308000E756F94F8081282F30E04F5F4093B90613
:10309000C9010895E091B9068091BA06E81718F0C1
:1030A000EFEFFFEF06C0F0E0E756F94F8081E82F21
:1030B000F0E0CF01089508951092E2061092E10623
:1030C00088EE93E0A0E0B0E08093E3069093E406FE
:1030D000A093E506B093E60689E596E09093E006B6
:1030E0008093DF060895CF92DF92EF92FF920F93C5
:1030F0001F93CF93DF937C016B018A018091DE06E1
:103100008823A1F0C0E0D0E00DC0D701ED91FC9183
:10311000D601AC0FBD1F0190F081E02DC7016C916D
:1031200009952196C017D10780F304C0CB01642F05
:103130000E94A519C801DF91CF911F910F91FF90B7
:10314000EF90DF90CF900895DF93CF930F92CDB79C
:10315000DEB7FC0169838091DE068823C9F0809187
:10316000DD06803238F081E090E09383828320E0B6
:1031700030E015C08091DC06E82FF0E0E454F94F10
:10318000998190838F5F8093DC068093DD0605C074
:10319000CE01019661E00E94A51921E030E0C9014D
:1031A0000F90CF91DF9108950F93062F8091BB066A
:1031B0006CEB76E04091DD0621E00E945019109200
:1031C000DC061092DD061092DE060F91089561E094
:1031D0000E94D4180895413208F040E2862F69E930
:1031E00076E00E9407191092B9068093BA060895F6
:1031F00021E00E94EB1808951092B9061092BA06C9
:103200001092DC061092DD060E94511B0895382FA3
:10321000413210F040E042C08091EB068823E1F794
:1032200091E09093EB062093ED068FEF8093580783
:10323000109213074150409314074F5F9093EC0690
:103240008091EC06330F832B8093EC068091EE0681
:10325000813041F41092EE068091EC068093BB0021
:1032600085EC01C085EE8093BC008091EB06813037
:10327000E1F380911307841710F44091130720E0C5
:1032800030E00AC0FB01E20FF31FD901AD50B94F86
:103290008C9180832F5F3F4F2417A0F3842F0895D4
:1032A0000F931F93582F122F413210F081E04AC024
:1032B0008091EB068823E1F782E08093EB06009390
:1032C000ED068FEF80935807109213074093140771
:1032D000A3EFB6E0FB0102C081918D938E2F861B78
:1032E0008417D0F31092EC068091EC06550F852BD5
:1032F0008093EC068091EE06813041F41092EE0648
:103300008091EC068093BB0085EC01C085EE809334
:10331000BC00112321F08091EB068230E1F3809113
:1033200058078F3F11F480E00DC08091580780321C
:1033300011F482E007C080915807803311F084E0D7
:1033400001C083E01F910F910895482F613210F062
:1033500081E008958091EB06843011F082E00895B9
:1033600060933607A5E1B7E0842F9C01F90102C004
:1033700081918D938E2F841B8617D0F380E0089562
:103380001F920F920FB60F9211242F933F934F93DA
:103390005F936F937F938F939F93AF93BF93EF93BD
:1033A000FF938091B90090E0887F907080369105FE
:1033B00009F4F2C081369105CCF58832910509F403
:1033C0007BC089329105B4F48031910509F46FC056
:1033D000813191053CF4009709F447C1089709F041
:1033E0004FC165C08831910509F466C0809709F026
:1033F00047C182C08034910509F4A4C0813491058D
:1034000044F48033910509F482C0C89709F038C1AB
:1034100089C08035910509F489C08835910509F482
:1034200096C08834910509F02BC1AEC0883991054A
:1034300009F413C189399105ECF48837910509F431
:10344000ABC0893791054CF48836910509F4A4C0C6
:103450008037910509F014C19FC08838910509F49F
:10346000FCC08039910509F49DC08038910509F0B0
:1034700007C198C0803B910509F4C6C0813B910506
:103480004CF4803A910509F49FC0883A910509F0FF
:10349000F7C0BAC0803C910509F4E3C0883C9105AF
:1034A00009F4DFC0883B910509F0EAC0C2C08091F1
:1034B000EC068093BB00CFC0909113078091140756
:1034C000981768F490911307E92FF0E0ED50F94F49
:1034D00080818093BB009F5F90931307BCC0809155
:1034E000ED06882309F44BC085ED8093BC008091E4
:1034F000BC0084FDFCCFC2C080E28093580785EDFC
:103500008093BC008091BC0084FDFCCFB7C080E3F9
:103510008093580785ED8093BC008091BC0084FDAA
:10352000FCCFACC088E3809358079BC08091130701
:103530009091BB00E82FF0E0ED50F94F90838F5F42
:1035400080931307909113078091140782C0809194
:1035500013079091BB00E82FF0E0ED50F94F9083F6
:103560008F5F809313078091ED06882341F085EDEE
:103570008093BC008091BC0084FDFCCF7FC081E0C3
:103580008093EE0684EA6EC085ED8093BC00809146
:10359000BC0084FDFCCF72C083E08093EB061092E8
:1035A000570759C080915707803208F056C0809164
:1035B00057079091BB00E82FF0E0E95CF84F90834B
:1035C0008F5F8093570747C080915707803230F450
:1035D000E0915707F0E0E95CF84F108285ED8093A9
:1035E000BC008091BC0084FDFCCF1092EB06609182
:1035F0005707E091F106F091F20687E397E070E05B
:103600000995109257072DC084E08093EB06109225
:10361000350710923607E091EF06F091F006099514
:1036200080913607882329F481E080933607109231
:10363000150790913507E92FF0E0EB5EF84F808198
:103640008093BB009F5F90933507909135078091E1
:103650003607981710F485EC01C085E88093BC000C
:103660000FC085EC8093BC0009C01092580785ED0F
:103670008093BC008091BC0084FDFCCF1092EB06CF
:10368000FF91EF91BF91AF919F918F917F916F913A
:103690005F914F913F912F910F900FBE0F901F9010
:1036A00018951092EB0681E08093ED061092EE06DD
:1036B00082E161E00E94C41C83E161E00E94C41CBD
:1036C000E9EBF0E080818E7F808380818D7F808335
:1036D00088E48093B80085E48093BC0008951F922D
:1036E0000F920FB60F9211242F933F938F939F93B6
:1036F000AF93BF9380915D0790915E07A0915F07A4
:10370000B0916007309161070196A11DB11D232F73
:103710002D5F2D3720F02D570196A11DB11D20934F
:10372000610780935D0790935E07A0935F07B09356
:1037300060078091590790915A07A0915B07B0915B
:103740005C070196A11DB11D8093590790935A07FC
:10375000A0935B07B0935C07BF91AF919F918F914E
:103760003F912F910F900FBE0F901F9018958FB71C
:10377000F89420915D0730915E0740915F0750916A
:1037800060078FBFB901CA0108959B01AC017FB7E3
:10379000F8948091590790915A07A0915B07B091D6
:1037A0005C0766B5A89B05C06F3F19F00196A11D87
:1037B000B11D7FBFBA2FA92F982F8827860F911D83
:1037C000A11DB11D62E0880F991FAA1FBB1F6A953A
:1037D000D1F7BC012DC0FFB7F894809159079091A3
:1037E0005A07A0915B07B0915C07E6B5A89B05C09E
:1037F000EF3F19F00196A11DB11DFFBFBA2FA92FF0
:10380000982F88278E0F911DA11DB11DE2E0880F12
:10381000991FAA1FBB1FEA95D1F7861B970B885EDD
:103820009340C8F2215030404040504068517C4F96
:10383000211531054105510571F60895019739F0BB
:10384000880F991F880F991F02970197F1F7089524
:10385000789484B5826084BD84B5816084BD85B56B
:10386000826085BD85B5816085BDEEE6F0E0808132
:1038700081608083E1E8F0E0108280818260808353
:10388000808181608083E0E8F0E0808181608083D6
:10389000E1EBF0E0808184608083E0EBF0E0808108
:1038A00081608083EAE7F0E08081846080838081AA
:1038B0008260808380818160808380818068808352
:1038C0001092C1000895982F8E3008F09E50977086
:1038D00080911C068295880F880F807C892B8093AD
:1038E0007C0080917A00806480937A0080917A00D5
:1038F00086FDFCCF2091780040917900942F80E0E4
:1039000030E0282B392BC9010895CF93DF93482F3E
:1039100050E0CA0188549F4FFC0134914C555F4FD1
:10392000FA018491882369F190E0880F991FFC01C6
:10393000EA57FF4FA591B491FC01E057FF4FC591A5
:10394000D491662351F42FB7F8948C91932F9095CE
:1039500089238C93888189230BC0623061F42FB74F
:10396000F8948C91932F909589238C938881832B45
:1039700088832FBF06C09FB7F8948C91832B8C93BC
:103980009FBFDF91CF910895482F50E0CA01845323
:103990009F4FFC012491CA0188549F4FFC019491D0
:1039A0004C555F4FFA013491332309F440C0222370
:1039B00051F1233071F0243028F42130A1F022306D
:1039C00011F514C02630B1F02730C1F02430D9F4FD
:1039D00004C0809180008F7703C0809180008F7D2C
:1039E0008093800010C084B58F7702C084B58F7D2E
:1039F00084BD09C08091B0008F7703C08091B00072
:103A00008F7D8093B000E32FF0E0EE0FFF1FE057B3
:103A1000FF4FA591B4912FB7F894662321F48C91B0
:103A20009095892302C08C91892B8C932FBF089588
:103A3000682F70E0CB0184539F4FFC012491CB0190
:103A400088549F4FFC0144916C557F4FFB0194912A
:103A5000992319F420E030E03CC0222351F12330B7
:103A600071F0243028F42130A1F0223011F514C077
:103A70002630B1F02730C1F02430D9F404C0809151
:103A800080008F7703C0809180008F7D80938000BD
:103A900010C084B58F7702C084B58F7D84BD09C006
:103AA0008091B0008F7703C08091B0008F7D8093AC
:103AB000B000892F90E0880F991F86569F4FFC0118
:103AC000A591B4918C9120E030E0842311F021E0A5
:103AD00030E0C9010895BF92CF92DF92EF92FF923A
:103AE0000F931F93CF93DF93E82EF62EB42EC7E0EB
:103AF000D0E0022F10E087E0C82ED12CBB2059F473
:103B0000B6016C1B7D0BC80102C0959587956A951F
:103B1000E2F7BC0107C0B8010C2E02C0759567958D
:103B20000A94E2F761708E2D0E94C41C8F2D61E013
:103B30000E94C41C8F2D60E00E94C41C21979FEF3F
:103B4000CF3FD907D9F6DF91CF911F910F91FF9009
:103B5000EF90DF90CF90BF90089508951F920F923D
:103B60000FB60F9211242F933F934F938F939F93F0
:103B7000EF93FF938091C00082FD1DC04091C6006D
:103B80002091A2073091A3072F5F3F4F2F73307012
:103B90008091A4079091A5072817390771F0E0914B
:103BA000A207F091A307EE59F84F40833093A30783
:103BB0002093A20702C08091C600FF91EF919F91D0
:103BC0008F914F913F912F910F900FBE0F901F90AB
:103BD0001895E091F607F091F707E05CFF4F8191AF
:103BE000919120813181821B930B8F739070892B6F
:103BF00011F00E94AD1D08951F920F920FB60F9203
:103C000011242F933F938F939F93EF93FF932091D2
:103C1000E6073091E7078091E8079091E9072817B8
:103C2000390731F48091C1008F7D8093C10014C0A9
:103C3000E091E807F091E907EA55F84F208180917B
:103C4000E8079091E90701968F7390709093E907C8
:103C50008093E8072093C600FF91EF919F918F9189
:103C60003F912F910F900FBE0F901F901895AF921C
:103C7000BF92DF92EF92FF920F931F93CF93DF9348
:103C8000EC017A018B01DD24403081EE580780E0A1
:103C9000680780E0780711F0DD24D39491E0A92E25
:103CA000B12CEC89FD89DD2069F0C50108A002C0B6
:103CB000880F991F0A94E2F7808360E079E08DE332
:103CC00090E005C0108260E874E88EE190E0A80101
:103CD00097010E94042321503040404050405695A7
:103CE00047953795279580E12030380720F0DD2073
:103CF00011F0DD24D6CFE889F9893083EA89FB8980
:103D0000208319A2EE89FF89408121E030E0C901BA
:103D10000C8C02C0880F991F0A94E2F7482B40834D
:103D2000EE89FF894081C9010D8C02C0880F991F5F
:103D30000A94E2F7482B4083EE89FF894081C9014C
:103D40000E8C02C0880F991F0A94E2F7482B40831B
:103D5000EE89FF8980810F8C02C0220F331F0A94E5
:103D6000E2F7209528232083DF91CF911F910F91B7
:103D7000FF90EF90DF90BF90AF900895DC011C960C
:103D8000ED91FC911D97E05CFF4F21913191808175
:103D90009181281B390B2F733070C9010895DC0104
:103DA0001C96ED91FC911D97E05CFF4F20813181C5
:103DB000E054F040DF01AE5BBF4F8D919C911197B5
:103DC0002817390719F42FEF3FEF07C08D919C9109
:103DD000E80FF91F8081282F30E0C9010895DC0128
:103DE0001C96ED91FC911D97E05CFF4F2081318185
:103DF000E054F040DF01AE5BBF4F8D919C91119775
:103E00002817390719F42FEF3FEF10C08D919C91BF
:103E10001197E80FF91F20818D919C9111970196C0
:103E20008F73907011969C938E9330E0C901089522
:103E3000DC0191968C919197882339F05496ED91FD
:103E4000FC915597808186FFF9CF91961C92089539
:103E5000CF93DF93EC01EE85FF85E05CFF4F20817F
:103E60003181E054F0402F5F3F4F2F733070DF01FE
:103E7000AE5BBF4F8D919C91119728173907D1F3F5
:103E8000E05CFF4F80819181E054F040E80FF91F22
:103E90006083EE85FF85E05CFF4F31832083EE89F0
:103EA000FF89208181E090E00F8C02C0880F991F6C
:103EB0000A94E2F7282B208381E089A3EC89FD890D
:103EC00080818064808381E090E0DF91CF910895CC
:103ED0001092ED071092EC0788EE93E0A0E0B0E0BE
:103EE0008093EE079093EF07A093F007B093F1074C
:103EF00089E696E09093EB078093EA0782E697E0E5
:103F00009093F7078093F60786EA97E09093F90776
:103F10008093F80785EC90E09093FB078093FA0775
:103F200084EC90E09093FD078093FC0780EC90E098
:103F30009093FF078093FE0781EC90E09093010837
:103F40008093000882EC90E090930308809302082D
:103F500086EC90E0909305088093040884E08093B9
:103F6000060883E08093070887E08093080885E0CF
:103F70008093090881E080930A080895CF93DF9326
:103F80000E94281C0E94D505C9EEDDE10E94CC13D9
:103F90002097E1F30E94E91DF9CFCF92DF92EF92D3
:103FA000FF920F931F93CF93DF937C016B018A01E4
:103FB000C0E0D0E00FC0D6016D916D01D701ED9149
:103FC000FC910190F081E02DC7010995C80FD91F20
:103FD000015010400115110571F7CE01DF91CF910D
:103FE0001F910F91FF90EF90DF90CF900895CF93A6
:103FF000DF93EC016115710519F420E030E00FC08A
:10400000DB010D900020E9F71197A61BB70BE881A3
:10401000F9810280F381E02DAD0109959C01C90170
:10402000DF91CF9108950E94F71F08955058BB2744
:10403000AA270ED0DFC19FD130F0A4D120F031F4F7
:104040009F3F11F41EF45EC10EF4E095E7FB54C1EE
:10405000E92FF2D180F3BA17620773078407950737
:1040600018F071F49EF50AC20EF4E0950B2EBA2FEB
:10407000A02D0B01B90190010C01CA01A00111246E
:10408000FF27591B99F0593F50F4503E68F11A161A
:10409000F040A22F232F342F4427585FF3CF4695AB
:1040A00037952795A795F0405395C9F77EF41F16CD
:1040B000BA0B620B730B840BBAF09150A1F0FF0F97
:1040C000BB1F661F771F881FC2F70EC0BA0F621F83
:1040D000731F841F48F4879577956795B795F79573
:1040E0009E3F08F0B3CF9395880F08F09927EE0F05
:1040F000979587950895DCD008F481E008954AD11A
:10410000E39589C10CD076C13DD140F034D130F077
:1041100021F45F3F19F0F0C05111B1C1F3C08CD14F
:1041200098F39923C9F35523B1F3951B550BBB277E
:10413000AA2762177307840738F09F5F5F4F220F2B
:10414000331F441FAA1FA9F333D00E2E3AF0E0E824
:1041500030D091505040E695001CCAF729D0FE2F70
:1041600027D0660F771F881FBB1F26173707480702
:10417000AB07B0E809F0BB0B802DBF01FF279358B8
:104180005F4F2AF09E3F510568F0B6C078C15F3F8F
:10419000ECF3983EDCF3869577956795B795F795A0
:1041A0009F5FC9F7880F911D9695879597F9089598
:1041B000E1E0660F771F881FBB1F62177307840734
:1041C000BA0720F0621B730B840BBA0BEE1F88F743
:1041D000E095089504D06894B11151C1089534D187
:1041E00088F09F5790F0B92F9927B751A0F0D1F0E0
:1041F000660F771F881F991F1AF0BA95C9F712C06A
:10420000B13081F03BD1B1E0089538C1672F782FEC
:104210008827B85F39F0B93FCCF3869577956795D5
:10422000B395D9F73EF490958095709561957F4F41
:104230008F4F9F4F0895E89409C097FB3EF49095E7
:104240008095709561957F4F8F4F9F4F9923A9F06F
:10425000F92F96E9BB279395F695879577956795FE
:10426000B795F111F8CFFAF4BB0F11F460FF1BC042
:104270006F5F7F4F8F4F9F4F16C0882311F096E9D5
:1042800011C0772321F09EE8872F762F05C0662383
:1042900071F096E8862F70E060E02AF09A95660F3C
:1042A000771F881FDAF7880F9695879597F90895F5
:1042B000990F0008550FAA0BE0E8FEEF1616170637
:1042C000E807F907C0F012161306E407F50798F09F
:1042D000621B730B840B950B39F40A2661F0232BB8
:1042E000242B252B21F408950A2609F4A140A69534
:1042F0008FEF811D811D089597F99F6780E870E019
:1043000060E008959FEF80EC0895DF93CF931F93B3
:104310000F93FF92EF92DF927B018C01689405C0AE
:10432000DA2EEF01BED0FE01E894A59125913591DA
:1043300045915591AEF3EF018BDEFE019701A80187
:10434000DA9479F7DF90EF90FF900F911F91CF9162
:10435000DF9108959F938F937F936F93FF93EF93D4
:104360009B01AC0192D0EF91FF91CFDF2F913F9154
:104370004F915F918AC000240A94161617061806FA
:104380000906089500240A94121613061406050659
:104390000895B8CF59D0E8F3E894EFEFBB273FE09A
:1043A00048EC5FE76B3D73078407950708F1FF272B
:1043B0009F57B25A6A4D7F40894CF04032F4BE5547
:1043C0006542704F8643FF4F0894EE1F915030F0C6
:1043D000BB0F661F771F881FFF1FEBCF9EE7882349
:1043E00032F0BB0F661F771F881F9A95C1F7939510
:1043F000E095B4C0092E0394000C11F4882352F008
:10440000BB0F40F4BF2B11F460FF04C06F5F7F4F00
:104410008F4F9F4F0895EF93E0FF06C0A2EA2AED69
:104420003FE049EC5FEB14DEE5DF0F90039401FC05
:104430009058E8E6F0E08ECF57FD9058440F551F96
:1044400059F05F3F71F04795880F97FB991F61F016
:104450009F3F79F087950895121613061406551F8D
:10446000F2CF4695F1DF08C0161617061806991FF9
:10447000F1CF86957105610508940895E894BB27EE
:1044800066277727CB0197F908950BD0B3CF73DF59
:1044900028F078DF18F0952309F02ECF33CF1124C0
:1044A000EECFCADFA0F3959FD1F3950F50E0551FD3
:1044B000629FF001729FBB27F00DB11D639FAA2779
:1044C000F00DB11DAA1F649F6627B00DA11D661FC8
:1044D000829F2227B00DA11D621F739FB00DA11DE9
:1044E000621F839FA00D611D221F749F3327A00DA3
:1044F000611D231F849F600D211D822F762F6A2F3F
:1045000011249F5750408AF0E1F088234AF0EE0FC3
:10451000FF1FBB1F661F771F881F91505040A9F7D0
:104520009E3F510570F0E8CEAACF5F3FECF3983E76
:10453000DCF3869577956795B795F795E7959F5F37
:10454000C1F7FE2B880F911D9695879597F90895D1
:104550009F9320DF0F9007FCEE5F5DCF9F3F49F0F8
:10456000915028F4869577956795B7959F5F803829
:104570009F4F880F9695879597F90895629FD00170
:10458000739FF001829FE00DF11D649FE00DF11D0E
:10459000929FF00D839FF00D749FF00D659FF00DBD
:1045A0009927729FB00DE11DF91F639FB00DE11DAA
:1045B000F91FBD01CF0111240895AA1BBB1B51E1B6
:1045C00007C0AA1FBB1FA617B70710F0A61BB70B83
:1045D000881F991F5A95A9F780959095BC01CD0128
:1045E000089597FB092E07260AD077FD04D0E5DF52
:1045F00006D000201AF4709561957F4F0895F6F764
:10460000909581959F4F0895A1E21A2EAA1BBB1B7E
:10461000FD010DC0AA1FBB1FEE1FFF1FA217B3078E
:10462000E407F50720F0A21BB30BE40BF50B661FA4
:10463000771F881F991F1A9469F760957095809568
:1046400090959B01AC01BD01CF01089597FB092E08
:1046500005260ED057FD04D0D7DF0AD0001C38F451
:1046600050954095309521953F4F4F4F5F4F08959E
:10467000F6F790958095709561957F4F8F4F9F4F7E
:104680000895EE0FFF1F0590F491E02D09942F92ED
:104690003F924F925F926F927F928F929F92AF92D2
:1046A000BF92CF92DF92EF92FF920F931F93CF931F
:1046B000DF93CDB7DEB7CA1BDB0B0FB6F894DEBFB6
:1046C0000FBECDBF09942A88398848885F846E84DC
:1046D0007D848C849B84AA84B984C884DF80EE8026
:1046E000FD800C811B81AA81B981CE0FD11D0FB62F
:1046F000F894DEBF0FBECDBFED010895F894FFCF53
:10470000322E2051756164202000332E2053696EB3
:1047100065202000342E2043756269632000312E0D
:10472000204C696E65617200322E204561736520F0
:104730004F75742000332E2045617365496E4F75A7
:104740007400312E204561736520496E2020004E93
:104750006F200059657300426567696E6E696E6708
:104760002053657269616C2100202020536C6964BC
:10477000656C61707365002056657273696F6E2099
:10478000302E352E30002020202000202020202018
:1047900020202020202020202020200050726F6721
:1047A000726573733A202530326425252020002558
:1047B00030346420202020202020202020202000B1
:1047C00025303464206D696E757465732020200077
:1047D00025303464207365636F6E6473202020205D
:1047E0000025303275207365636F6E64732020205E
:1047F000002564207365636F6E647320202000259C
:1048000064206D696E757465732020200025732007
:104810002020202020202020202020200025732060
:1048200020202020202000257320202020004D6FF4
:1048300076656D656E74204469723A202020004DC3
:104840006F766520526967687420746F202020009D
:1048500073746172742074696D656C617073653E08
:10486000005374617274696E6720544C2E2E2E2092
:10487000200053656C20746F2063616E63656C204B
:10488000202000583A2534642053656C3A25732063
:1048900020202000593A253464204D3A25732045C4
:1048A0003A25732020004D6178204C656E3A253002
:1048B000356C642020200053656C656374204D6F57
:1048C00064653A2020202000312E54696D656C61AA
:1048D000707365202020203E00322E436F6D6D6185
:1048E0006E646572202020203E00332E4465627580
:1048F0006720202020202020203E003E3E3E2054E5
:10490000696D656C6170736520202000486F6C6470
:104910002053656C20746F2065786974004E756D46
:10492000626572206F662053686F74733A000000EE
:104930000000000000000000000000000000005423
:104940004C204475726174696F6E3A2020202000FB
:104950000000000000000000000000000000000057
:104960000041766720496E74657276616C3A20204A
:104970002000000000000000000000000000000017
:1049800000000053746172742044656C61793A20B0
:1049900020202000000000000000000000000000B7
:1049A00000000000004C6F6E6765737420536875DB
:1049B000747465723A0000000000000000000000FE
:1049C00000000000000000536C6565702062747781
:1049D0002073686F74732000000000000000000066
:1049E0000000000000000000004261636B6C69671A
:1049F0006874206F6E3F3A20200000000000000025
:104A00000000000000000000000000536C696465B5
:104A100020456173652046756E633A000000000012
:104A200000000000000000000000000000536C695E
:104A30006465204561736520437572763A00000015
:104A40000000000000000000000000000000005412
:104A5000696D6520456173652046756E633A200077
:104A60000000000000000000000000000000000046
:104A70000054696D652043757276652046756E63D6
:104A80003A000000000000000000000000000000EC
:104A90000000004D6F76656D656E74204469723A52
:104AA000202020004D6F746F72202D2D2D2D2D3E56
:104AB00020456E6400456E64202D2D2D2D2D3E2049
:104AC0004D6F746F720054696D656C617073652011
:104AD000616374697665000000000000000000005A
:104AE000000000000000000054696D656C61707387
:104AF0006520446F6E65202000486F6C642053650C
:104B00006C20746F2065786974003E3E3E20436FD0
:104B10006D6D616E64657220202000486F6C6420AA
:104B200053656C20746F2065786974002020436F92
:104B30006D6D616E64204D6F64652020004D6F7453
:104B40006F72203C2D2D2D2D3E20456E6400456E4C
:104B500064203C2D2D2D2D3E204D6F746F72005220
:104B60006576657273696E6720446972203C3E0009
:104B70003E3E3E204465627567204D6F646520208F
:104B800000486F6C642053656C20746F20657869F1
:104B900074000000000000000000000000000000A1
:104BA0000000000000000000000000000000000005
:104BB000000000004F00500058003E3E3E2045528D
:104BC000524F522020202020202000526574757200
:104BD0006E696E6720486F6D65202000010E01F040
:104BE00087F0000F270500E803640030750100001E
:104BF00000100E00000A0000000101080700003C40
:104C000000000080510100010104010103010104C1
:104C10000101030200020100010003000100000085
:104C2000003F0367039B03000000003E033E033E7A
:104C300003000000002F0453048A04000000004415
:104C4000056D050405000000001716CD1F0000408B
:104C5000001400540000000000A41873182C18352C
:104C6000184A185B1800000000281FCD1FBE1EEF59
:064C70001ECF1E181F00FC
:00000001FF
