:100000000C9472000C949A000C949A000C949A0030
:100010000C949A000C949A000C949A000C949A00F8
:100020000C949A000C949A000C949A000C949A00E8
:100030000C949A000C949A000C949A000C949A00D8
:100040000C94F5200C949A000C949A000C949A004D
:100050000C949A000C949A000C949A000C949A00B8
:100060000C94461F0C949A0005A84CCDB2D44EB9FE
:100070003836A9020C50B9918688083CA6AAAA2A4B
:10008000BE000000803F00000000240027002A007E
:1000900000000000250028002B00000000002300C5
:1000A00026002900040404040404040402020202D9
:1000B000020203030303030301020408102040802B
:1000C00001020408102001020408102000000007AB
:1000D0000002010000030406000000000000000010
:1000E0008A05E21D11241FBECFEFD8E0DEBFCDBFD1
:1000F00016E0A0E0B1E0EAEEFDE402C005900D924A
:10010000AC3BB107D9F717E0ACEBB6E001C01D92EC
:10011000A93AB107E1F710E0C4EED0E004C022979D
:10012000FE010E94B826C03ED107C9F70E943323C2
:100130000C94F3260C940000AEE0B0E0E2EAF0E0AC
:100140000C94CA260D891E8986E08C831A83098344
:100150008FEF9FE79E838D839E01275E3F4FCE01E9
:1001600001966F89788DA9010E94C0002F81388582
:10017000020F131FF80110822E96E4E00C94E6267D
:10018000ABE0B0E0E6ECF0E00C94BC263C012B01C7
:100190005A01FC0117821682838181FD03C06FEF33
:1001A0007FEFC6C19AE0892E1E010894211C311CE4
:1001B000F3012381F20123FD859123FF81912F011A
:1001C000882309F4B2C1853239F423FD859123FFD8
:1001D00081912F01853229F490E0B3010E94B3028E
:1001E000E7CF982FFF24EE249924FFE1FF15D0F0EC
:1001F0009B3269F09C3228F4903259F0933291F49A
:100200000EC09D3249F0903369F441E024C052E0C1
:10021000F52A84E0F82A28C098E0F92A25C0E0E110
:10022000FE2A22C0F7FC29C0892F80538A3070F43F
:10023000F6FE05C0989C902C1124980E15C0E89CE1
:10024000E02C1124E80EF0E2FF2A0EC09E3229F4C1
:10025000F6FC6BC140E4F42A07C09C3619F450E860
:10026000F52A02C0983649F4F20123FD959123FF47
:1002700091912F01992309F0B8CF892F85548330AC
:1002800018F08052833038F444E050E0A40EB51EDC
:100290005FE359830FC0933631F0933779F093358C
:1002A00009F056C020C0F5018081898342E050E00A
:1002B000A40EB51E610101E010E012C0F501C0807E
:1002C000D180F6FC03C06FEF7FEF02C0692D70E0B4
:1002D00042E050E0A40EB51EC6010E94A8028C01A7
:1002E0005FE7F52214C0F501C080D180F6FC03C0A1
:1002F0006FEF7FEF02C0692D70E042E050E0A40E86
:10030000B51EC6010E949D028C0150E8F52AF3FE3D
:1003100007C01AC080E290E0B3010E94B302EA94E1
:100320008E2D90E008171907A8F30EC0F601F7FC10
:100330008591F7FE81916F0190E0B3010E94B302B5
:10034000E110EA94015010400115110579F7EAC057
:10035000943611F0993669F5F7FE08C0F501208151
:1003600031814281538184E090E00AC0F5018081AF
:1003700091819C01442737FD4095542F82E090E005
:10038000A80EB91E9FE6F92257FF09C05095409567
:10039000309521953F4F4F4F5F4FE0E8FE2ACA014D
:1003A000B901A1012AE030E00E94DF02D82ED21864
:1003B00040C0953729F41F2D1F7E2AE030E01DC074
:1003C0001F2D197F9F3661F0903720F4983509F082
:1003D000ACC00FC0903739F0983709F0A6C004C000
:1003E00028E030E00AC0106114FD146020E130E024
:1003F00004C014FD166020E132E017FF08C0F501CB
:10040000608171818281938144E050E008C0F501F0
:1004100080819181BC0180E090E042E050E0A40E38
:10042000B51EA1010E94DF02D82ED2188FE7F82E48
:10043000F122F6FE0BC05EEFF522D91438F4F4FE7B
:1004400007C0F2FC05C08FEEF82202C01D2D01C0CE
:10045000192DF4FE0DC0FE01ED0DF11D80818033DC
:1004600019F499EEF92208C01F5FF2FE05C003C01F
:100470008F2D867809F01F5F0F2DF3FC14C0F0FE5E
:100480000FC01E1510F09D2C0BC09D2C9E0C911AB8
:100490001E2D06C080E290E0B3010E94B3021F5FF0
:1004A0001E15C0F304C01E1510F4E11A01C0EE249D
:1004B00004FF0FC080E390E0B3010E94B30202FF8B
:1004C0001DC001FD03C088E790E00EC088E590E004
:1004D0000BC0802F867891F001FF02C08BE201C033
:1004E00080E2F7FC8DE290E0B3010E94B30206C007
:1004F00080E390E0B3010E94B3029A94D914C0F350
:10050000DA94F101ED0DF11D808190E0B3010E94BC
:10051000B302DD20A9F706C080E290E0B3010E949B
:10052000B302EA94EE20C1F743CEF30166817781EE
:10053000CB012B96E2E10C94D826FC01059061508A
:1005400070400110D8F7809590958E0F9F1F0895E9
:10055000FC016150704001900110D8F78095909592
:100560008E0F9F1F08950F931F93CF93DF938C01DE
:10057000EB018B8181FF1BC082FF0DC02E813F816B
:100580008C819D812817390764F4E881F9810193F2
:10059000F983E88306C0E885F985802F0995892BC2
:1005A00031F48E819F8101969F838E8302C00FEF6D
:1005B0001FEFC801DF91CF911F910F910895FA01AC
:1005C000AA27283051F1203181F1E8946F936E7F92
:1005D0006E5F7F4F8F4F9F4FAF4FB1E03ED0B4E083
:1005E0003CD0670F781F891F9A1FA11D680F791FC4
:1005F0008A1F911DA11D6A0F711D811D911DA11DD5
:1006000020D009F468943F912AE0269F11243019E4
:10061000305D3193DEF6CF010895462F4770405D7F
:100620004193B3E00FD0C9F7F6CF462F4F70405D2E
:100630004A3318F0495D31FD4052419302D0A9F789
:10064000EACFB4E0A6959795879577956795BA9583
:10065000C9F700976105710508959B01AC010A2E49
:1006600006945795479537952795BA95C9F7620F20
:10067000731F841F951FA01D08950895CF92DF92C8
:10068000EF92FF920F931F936C01CB01BA01F60119
:1006900026813781408551850E94F7237B018C019B
:1006A000F60122813381448155810E94BA25A80137
:1006B00097010E94BA25A80197010E94BA251F91AF
:1006C0000F91FF90EF90DF90CF900895CF92DF923F
:1006D000EF92FF920F931F936C01CB01BA01F601C9
:1006E00026813781408551850E94F72320E030E044
:1006F00040E85FE30E948B237B018C01A8019701F6
:100700000E94BA25A80197010E94BA2520E030E096
:1007100040E85FE30E948C23F6012281338144810B
:1007200055810E94BA251F910F91FF90EF90DF90A5
:10073000CF900895AF92BF92CF92DF92EF92FF9247
:100740000F931F93CF93DF93EC017A018B016E819E
:100750007F818885998520E030E040E05FE30E945A
:10076000BA259B01AC01C801B7010E94F7237B01A8
:100770008C0120E030E040E85FE30E94F023882312
:10078000ACF46A817B818C819D8120E030E040E087
:100790005FE30E94BA25A80197010E94BA25A8012B
:1007A00097010E94BA25A80197012AC0C801B70184
:1007B00020E030E040E050E40E948B237B018C017C
:1007C0006A817B818C819D8120E030E040E05FE3A5
:1007D0000E94BA255B016C01C801B701A80197010D
:1007E0000E94BA25A80197010E94BA2520E030E0B6
:1007F00040E050E40E948C239B01AC01C601B5018E
:100800000E94BA25E62F2E2F372F482F592FB901D6
:10081000CA01DF91CF911F910F91FF90EF90DF9070
:10082000CF90BF90AF900895FC0181E896E091834E
:10083000808380E090E0A0E0B0E082839383A48393
:10084000B5830895FC0146835783608771870895B7
:10085000FC0142835383648375830895CF92DF92B2
:10086000EF92FF920F931F936C01CB01BA01F60137
:1008700026813781408551850E94F7237B018C01B9
:10088000F60122813381448155810E94BA25A80155
:1008900097010E94BA251F910F91FF90EF90DF9072
:1008A000CF900895AF92BF92CF92DF92EF92FF92D6
:1008B0000F931F936C01CB01BA01F601268137819A
:1008C000408551850E94F7237B018C01F6016281EE
:1008D0007381848195819058A80197010E94BA255F
:1008E0005B016C01C801B70120E030E040E050E45A
:1008F0000E948B239B01AC01C601B5010E94BA2561
:100900001F910F91FF90EF90DF90CF90BF90AF902D
:100910000895AF92BF92CF92DF92EF92FF920F9322
:100920001F93CF93DF93EC017A018B016E817F815E
:100930008885998520E030E040E05FE30E94BA2599
:100940009B01AC01C801B7010E94F7237B018C0118
:1009500020E030E040E85FE30E94F02388238CF43D
:100960006A817B818C819D8120E030E040E05FE303
:100970000E94BA25A80197010E94BA25A8019701F3
:100980002EC0C801B70120E030E040E85FE30E94DC
:100990008B237B018C016A817B818C819D8120E08E
:1009A00030E040E05FEB0E94BA255B016C01C801BA
:1009B000B70120E030E040E050E40E948B239B012F
:1009C000AC01C801B7010E94BA2520E030E040E840
:1009D0005FE30E948B239B01AC01C601B5010E941D
:1009E000BA25E62F2E2F372F482F592FB901CA01CC
:1009F000DF91CF911F910F91FF90EF90DF90CF90FB
:100A0000BF90AF900895AF92BF92CF92DF92EF92D6
:100A1000FF920F931F936C01CB01BA012BED3FE0C6
:100A200049E450E40E94BA25F601268137814085C9
:100A300051850E94F7230E94F4237B018C01F6016B
:100A4000628173818481958120E030E040E05FEB3A
:100A50000E94BA255B016C01C801B70120E030E0BB
:100A600040E85FE30E948B239B01AC01C601B50106
:100A70000E94BA251F910F91FF90EF90DF90CF90C9
:100A8000BF90AF900895EF92FF920F931F93FC01D8
:100A9000E280F38004811581CB01BA012681378180
:100AA000408551850E94F7232BED3FE049EC5FE341
:100AB0000E94BA250E94F4239B01AC01C801B70132
:100AC00090580E94BA25A80197010E948C231F917B
:100AD0000F91FF90EF9008950F931F938C01CB011E
:100AE000BA01F80126813781408551850E94F7239C
:100AF0002BED3FE049EC5FE30E94BA250E941D26E2
:100B0000F80122813381448155810E94BA251F91C9
:100B10000F9108958CEB96E060E00E94111A089501
:100B200089E060E00E944A220895CF92DF92EF921E
:100B3000FF920F931F938C016B018CEBE82E86E0E4
:100B4000F82EC70160E040E00E94B11BC701B80168
:100B50000E948823C70160E041E00E94B11BC701E9
:100B6000B6010E9488231F910F91FF90EF90DF90B4
:100B7000CF90089587E061E00E944A2266E970E024
:100B800080E090E00E944B2187E060E00E944A22D2
:100B9000089589E061E00E944A2262E070E080E00E
:100BA00090E00E944B2108950F931F9382E061E033
:100BB0000E940B2283E061E00E940B2289E061E049
:100BC0000E940B2289E061E00E944A2287E061E0F6
:100BD0000E940B220CEB16E0C80160E142E020E02D
:100BE0000E94F51BC80165E771E00E948823C801D7
:100BF00060E041E00E94B11BC80163E871E00E941F
:100C0000882368EB7BE080E090E00E944B21C801E4
:100C10000E94E01B609114068FED96E070E00E9448
:100C2000FE19809315068AE062E00E940B2284E0A0
:100C300060E00E940B2286E060E00E940B221F9180
:100C40000F91089581E00E94E92108950E942206F3
:100C500020E0C2970CF421E0822F08950E94220622
:100C600020E0895E93400CF021E0822F089580E01F
:100C70000E94E92108950E94370620E0C2970CF4F3
:100C800021E0822F08950E94370620E0895E93407C
:100C90000CF021E0822F0895CF93DF93EC0180E0E8
:100CA0000E94E9218955924084F0BE01882777FD92
:100CB0008095982F0E944B2180E00E94E921895560
:100CC00092400CF442C022E041C080E00E94E92141
:100CD0008059914084F4BE01882777FD8095982F34
:100CE0000E944B2180E00E94E92120E08059914040
:100CF0006CF521E02BC081E00E94E92189559240EA
:100D00007CF0BE01882777FD8095982F0E944B21AB
:100D100081E00E94E92189559240BCF023E016C091
:100D200081E00E94E921805991407CF4BE0188272E
:100D300077FD8095982F0E944B2181E00E94E92148
:100D40008059914014F424E001C020E0822FDF910B
:100D5000CF9108958AE00E949E2220E0892B09F419
:100D600021E0822F0895AF92BF92CF92DF92EF924F
:100D7000FF920F931F937A0100D000D000D0CDB620
:100D8000DEB60894C11CD11C20E0A22E23E0B22EB6
:100D9000EDB7FEB7B282A18228EA31E0F6013383D3
:100DA000228324E630E040E050E00E943326002712
:100DB000F7FC0095102FA80197010E947926F601F3
:100DC000358324830E949C008DB79EB706960FB68C
:100DD000F8949EBF0FBE8DBF86E794E0B5010E94D8
:100DE00095051F910F91FF90EF90DF90CF90BF90EE
:100DF000AF900895EF92FF920F931F937B018C01A8
:100E00009A01CA010197029710F480E006C02350AE
:100E100030402230310538F481E00E94E92190937E
:100E20006B0680936A0680916A0690916B06825CDD
:100E300091408536910560F18091DB069091DC064A
:100E4000A091DD06B091DE060097A105B105A9F0DD
:100E50000E943D21E0E02091DB063091DC064091CC
:100E6000DD065091DE06621B730B840B950BE616B4
:100E7000F70608071907A8F013C00E943D216093E8
:100E8000DB067093DC068093DD069093DE0608C0D7
:100E90001092DB061092DC061092DD061092DE0640
:100EA000E1E08E2F1F910F91FF90EF900895CF9367
:100EB000DF93EC018AE00E949E22882389F58091CD
:100EC000D7069091D806A091D906B091DA0600977E
:100ED000A105B105D1F00E943D21E0E02091D706A7
:100EE0003091D8064091D9065091DA06621B730BF7
:100EF000840B950B9E01442737FD4095542F2617F0
:100F0000370748075907A8F013C00E943D21609396
:100F1000D7067093D8068093D9069093DA0608C056
:100F20001092D7061092D8061092D9061092DA06BF
:100F3000E1E08E2FDF91CF9108954F925F926F92F3
:100F40007F928F929F92AF92BF92CF92DF92FF9249
:100F50000F931F93CF93DF9361E3462E65E0562EE8
:100F60005BEB652E51E0752E42E4A42E45E0B42ED5
:100F70003CEC832E31E0932E83C08EE00E94E92169
:100F8000EC018FE00E94E9216C018AE00E949E2220
:100F9000182F84E00E949E22082F86E00E949E2245
:100FA000F82E112319F485E595E007C0113019F0EA
:100FB00087E595E002C083E595E02DB73EB7285060
:100FC00030400FB6F8943EBF0FBE2DBFEDB7FEB751
:100FD0003196ADB7BEB712965C924E92119773825E
:100FE0006282D583C483978386830E949C002DB739
:100FF0003EB7285F3F4F0FB6F8943EBF0FBE2DBFE0
:10100000013019F425E535E007C0002319F027E584
:1010100035E002C023E535E041E0F41619F485E53A
:1010200095E007C0FF2019F087E595E002C083E551
:1010300095E0ADB7BEB71A970FB6F894BEBF0FBE16
:10104000ADBFEDB7FEB731961296BC92AE92119736
:1010500093828282D582C482378326839187808758
:101060000E949C002DB73EB7265F3F4F0FB6F89405
:101070003EBF0FBE2DBF81E395E0B5010E949505EF
:1010800088EE93E00E945707882309F076CFDF911E
:10109000CF911F910F91FF90DF90CF90BF90AF90B5
:1010A0009F908F907F906F905F904F900895CF9218
:1010B000DF92EF92FF920F931F93CF93DF93D09025
:1010C00015068D2D90E08130910519F484E691E0AC
:1010D00005C08230910511F487E591E02DB73EB748
:1010E000285030400FB6F8943EBF0FBE2DBFEDB76D
:1010F000FEB731960FE015E0ADB7BEB712961C9360
:101100000E9311977EEDE72E71E0F72EF382E282C7
:101110009583848383E791E0978386830E949C0074
:101120002DB73EB7285F3F4F0FB6F8943EBF0FBEB6
:101130002DBF8EEF94E0B8010E949505C02E012FBF
:101140001E2DEF2C74C00E942E06882329F40E94C5
:101150002606882309F46BC066E970E080E090E021
:101160000E944B210E942E06882379F0D3944D2DA6
:1011700050E0433051051CF041E050E005C04115FE
:10118000510511F442E050E0D42E0E942606882337
:1011900079F0DA944D2D50E0433051051CF041E0D8
:1011A00050E005C04115510511F442E050E0D42E45
:1011B0002D2D30E02130310519F4C4E6D1E005C011
:1011C0002230310511F4C7E5D1E08091150690E099
:1011D0002817390719F081E791E002C083E791E011
:1011E000ADB7BEB718970FB6F894BEBF0FBEADBF70
:1011F000EDB7FEB731961196CC92119712960C93DB
:101200001283E382D583C483978386830E949C00E4
:101210002DB73EB7285F3F4F0FB6F8943EBF0FBEC5
:101220002DBF8EEF94E06C2D702F0E94950588EEF7
:1012300093E00E945707882309F085CF8091150617
:10124000D81651F0D0921506609114068FED96E0F5
:1012500070E04D2D0E94051ADF91CF911F910F91E3
:10126000FF90EF90DF90CF9008956F927F928F92D2
:101270009F92AF92BF92CF92DF92EF92FF920F9325
:101280001F93CF93DF93E62E3C0197FF04C06624A3
:101290007724681A790A60E0181619060CF461E0E0
:1012A00082E00E944A226E2D70E080E090E00E9471
:1012B000902420E030E048EC52E40E94F7239B01A8
:1012C000AC0160E070E080E89FE30E94F72320E03B
:1012D00030E04CE852E40E94BA257B018C014301C6
:1012E0009594879495948794B401660F771F660F41
:1012F000771F680D791D882777FD8095982F0E94AC
:1013000092249B01AC01C801B7010E948C235B01B0
:101310006C01C0E0D0E01FC0C601B50120E030E0A4
:1013200040EA50E40E948B235B016C0183E061E0A2
:101330000E944A22C601B5010E9464247B018C01EF
:10134000CB010E94A42183E060E00E944A22C701F1
:101350000E94A4212196C815D905F4F2C401880F72
:10136000991F681A790AC0E0D0E015C083E061E0F7
:101370000E944A22C601B5010E9464247B018C01AF
:10138000CB010E94A42183E060E00E944A22C701B1
:101390000E94A4212196C615D70544F3C0E0D0E0F1
:1013A0001FC0C601B50120E030E040EA50E40E94D1
:1013B0008C235B016C0183E061E00E944A22C6013C
:1013C000B5010E9464247B018C01CB010E94A42101
:1013D00083E060E00E944A22C7010E94A421219676
:1013E000C815D905F4F2DF91CF911F910F91FF90AD
:1013F000EF90DF90CF90BF90AF909F908F907F90B5
:101400006F9008952F923F924F925F926F927F92CA
:101410008F929F92AF92BF92CF92DF92EF92FF9204
:101420000F931F93DF93CF93CDB7DEB7CE54D04049
:101430000FB6F894DEBF0FBECDBF2F968FAF2F979C
:101440001B01CA01B90128EE33E040E050E00E94E0
:1014500033262E966CAF7DAF8EAF9FAF2E978E0149
:101460000F5F1F4FC8010E9414049BE8E92E96E00D
:10147000F92EFA82E982B101882777FD8095982FAD
:101480000E9492244B015C01C801B501A4010E9495
:1014900022046091190670911A0680E090E00E9483
:1014A0009024AB01BC01C8010E9428048E01055F95
:1014B0001F4FC8010E94140485E9482E86E0582E6B
:1014C0005C864B86C801B501A4010E94220460918C
:1014D000190670911A0680E090E00E949024AB01FA
:1014E000BC01C8010E9428048E010B5E1F4FC80179
:1014F0000E941404B7E76B2EB6E07B2E7E8A6D8ABD
:10150000C801B501A4010E942204609119067091DE
:101510001A0680E090E00E949024AB01BC01C80153
:101520000E9428048E01015E1F4FC8010E9414040E
:10153000F8A2EF8EC801B501A4010E9422042E96E4
:101540006CAD7DAD8EAD9FAD2E970E9490246B014A
:101550007C01C801B701A6010E9428048E01075D25
:101560001F4FC8010E9414045AA649A6C801B5011C
:10157000A4010E942204C801B701A6010E94280408
:101580008E010D5C1F4FC8010E9414047CAA6BAA37
:10159000C801B501A4010E942204C801B701A60137
:1015A0000E9428048091190690911A06B1010E94A8
:1015B0005226CB01A0E0B0E02A968CAF9DAFAEAF33
:1015C000BFAF2A9760912F06709130068091310647
:1015D0009091320628EE33E040E050E00E9433263E
:1015E0000E944B2180913406823029F48CEB96E0E6
:1015F00060E00E94E81B9101442737FD4095542F7D
:101600002E966CAD7DAD8EAD9FAD2E970E94792646
:10161000490122961FAE2297AA24BB2481E090E0C4
:10162000A0E0B0E0EFC20E943D2126966CAF7DAFF6
:101630008EAF9FAF269721966CAD7DAD8EAD9FADE1
:101640002197A1010E94B3060E94BA05609121066C
:101650007091220680E090E00E944B21809141062B
:10166000833009F466C0843009F4C3C0823009F0C5
:101670002BC180914406823011F18330E9F1813031
:1016800009F022C1B601882777FD8095982F0E9426
:101690009224AB01BC01CE0101960E942E047B0175
:1016A0008C01B501882777FD8095982F0E949224A0
:1016B000AB01BC01CE0101960E942E04DDC0B60133
:1016C000882777FD8095982F0E949224AB01BC015A
:1016D000CE0101960E9452047B018C01B50188273E
:1016E00077FD8095982F0E949224AB01BC01CE011A
:1016F00001960E945204C0C0B601882777FD8095EC
:10170000982F0E949224AB01BC01CE0101960E9449
:1017100089047B018C01B501882777FD8095982F7E
:101720000E949224AB01BC01CE0101960E94890463
:10173000A3C080914406823011F18330E9F18130F9
:1017400009F0C2C0B601882777FD8095982F0E94C6
:101750009224AB01BC01CE010B960E9443057B0194
:101760008C01B501882777FD8095982F0E949224DF
:10177000AB01BC01CE010B960E9443057DC0B601B2
:10178000882777FD8095982F0E949224AB01BC0199
:10179000CE010B960E946C057B018C01B501882758
:1017A00077FD8095982F0E949224AB01BC01CE0159
:1017B0000B960E946C0560C0B601882777FD809566
:1017C000982F0E949224AB01BC01CE010B960E947F
:1017D00003057B018C01B501882777FD8095982F43
:1017E0000E949224AB01BC01CE010B960E9403051E
:1017F00043C080914406823019F1833009F447C018
:10180000813009F061C0B601882777FD8095982F57
:101810000E949224AB01BC01CE0145960E943E037A
:101820007B018C01B501882777FD8095982F0E9458
:101830009224AB01BC01CE0145960E943E031CC020
:10184000B601882777FD8095982F0E949224AB01DE
:10185000BC01CE0145960E9466037B018C01B50157
:10186000882777FD8095982F0E949224AB01BC01B8
:10187000CE0145960E9466039B01AC01C801B701E9
:101880000E948B230E945F247B018C0123C0B60140
:10189000882777FD8095982F0E949224AB01BC0188
:1018A000CE0145960E949A037B018C01B5018827E1
:1018B00077FD8095982F0E949224AB01BC01CE0148
:1018C00045960E949A03D8CF2A96ECACFDAC0EAD9B
:1018D0001FAD2A9780913306813011F40E94C9050B
:1018E0002F969FAD2F97923040F010950095F09471
:1018F000E094E11CF11C011D111D80911506823040
:1019000041F410950095F094E094E11CF11C011D48
:10191000111DC7016FE00E943509809133068130A7
:1019200011F40E9490050E94AA06882321F42296B1
:101930001FAE22970AC02296AFAD2297AF5F2296C4
:10194000AFAF2297A33008F069C10E943D212B015F
:101950003C0126968CAD9DADAEADBFAD2697481A25
:10196000590A6A0A7B0A80914706833009F466C0E7
:10197000843009F4C3C0823009F028C180914A063E
:10198000823011F18330E9F1813009F01FC1B601D5
:10199000882777FD8095982F0E949224AB01BC0187
:1019A000CE014F960E942E047B018C01B501882741
:1019B00077FD8095982F0E949224AB01BC01CE0147
:1019C0004F960E942E04F9C0B601882777FD8095B6
:1019D000982F0E949224AB01BC01CE014F960E9429
:1019E00052047B018C01B501882777FD8095982FE3
:1019F0000E949224AB01BC01CE014F960E9452047A
:101A0000DCC0B601882777FD8095982F0E9492242C
:101A1000AB01BC01CE014F960E9489047B018C0171
:101A2000B501882777FD8095982F0E949224AB01FD
:101A3000BC01CE014F960E948904BFC080914A0626
:101A4000823011F18330E9F1813009F0BFC0B60175
:101A5000882777FD8095982F0E949224AB01BC01C6
:101A6000CE0189960E9443057B018C01B501882730
:101A700077FD8095982F0E949224AB01BC01CE0186
:101A800089960E94430599C0B601882777FD809505
:101A9000982F0E949224AB01BC01CE0189960E942E
:101AA0006C057B018C01B501882777FD8095982F07
:101AB0000E949224AB01BC01CE0189960E946C0564
:101AC0007CC0B601882777FD8095982F0E949224CC
:101AD000AB01BC01CE0189960E9403057B018C01FC
:101AE000B501882777FD8095982F0E949224AB013D
:101AF000BC01CE0189960E9403055FC080914A0611
:101B0000823011F18330E9F1813009F05FC0B60114
:101B1000882777FD8095982F0E949224AB01BC0105
:101B2000CE01C3960E943E037B018C01B50188273C
:101B300077FD8095982F0E949224AB01BC01CE01C5
:101B4000C3960E943E0339C0B601882777FD809571
:101B5000982F0E949224AB01BC01CE01C3960E9433
:101B600066037B018C01B501882777FD8095982F4E
:101B70000E949224AB01BC01CE01C3960E94660371
:101B80001CC0B601882777FD8095982F0E9492246B
:101B9000AB01BC01CE01C3960E949A037B018C016C
:101BA000B501882777FD8095982F0E949224AB017C
:101BB000BC01CE01C3960E949A039B01AC01C801EF
:101BC000B7010E948B230E945F244B01B401882738
:101BD00077FD8095982F461657066806790630F4EB
:101BE00064197509860997090E944B210894A11C64
:101BF000B11C21968CAD9DADAEADBFAD21970196C8
:101C0000A11DB11D21968CAF9DAFAEAFBFAF219787
:101C1000CDACDEAC2C143D040CF005CD8CEB96E085
:101C200061E00E94E81B0E94C905C25BDF4F0FB64E
:101C3000F894DEBF0FBECDBFCF91DF911F910F9102
:101C4000FF90EF90DF90CF90BF90AF909F908F90DC
:101C50007F906F905F904F903F902F90089560918C
:101C60001B0670911C062091350630913606409176
:101C700037065091380680914D060E94020A81E095
:101C80008093160687E894E06FEE72E00E94950557
:101C90000895EF92FF920F931F936730710509F437
:101CA000DCC268307105C4F46330710509F40BC1FE
:101CB0006430710544F46130710559F16230710589
:101CC00009F0B2C47BC06530710509F4A2C1663069
:101CD00071050CF078C23AC16B30710509F412C479
:101CE0006C3071054CF46930710509F45CC36A30DD
:101CF00071050CF0ABC3FBC26D30710509F485C4EE
:101D00006D3071050CF452C46E30710509F08CC44D
:101D100083C420911B0630911C06181619064CF43A
:101D20004B3051051CF481E090E010C08AE090E057
:101D30000DC0892B19F480E090E008C04B305105AC
:101D40001CF48FEF9FEF02C086EF9FEF820F931F6F
:101D500040911F065091200620911D0630911E06CD
:101D60002817390714F49A0104C0841795070CF05A
:101D70009C0130931C0620931B0600D000D000D09D
:101D8000EDB7FEB7319600E013E0ADB7BEB71296DF
:101D90001C930E93119786EE91E093838283358393
:101DA00024830E949C00EDB7FEB736960FB6F894D8
:101DB000FEBF0FBEEDBF88E893E0F6C3E0903506A6
:101DC000F09036060091370610913806181619065D
:101DD0004CF44B3051051CF421E030E010C02AE0F7
:101DE00030E00DC0892B19F420E030E008C04B3002
:101DF00051051CF42FEF3FEF02C026EF3FEF8CE3BD
:101E000090E0AC01249FC001259F900D349F900D60
:101E100011249C01442737FD4095542F2E0D3F1D62
:101E2000401F511F8091390690913A06E0913D067E
:101E3000F0913E06E217F30714F4FC0104C02817E2
:101E400039070CF0F901BF01882777FD8095982F9D
:101E50006093350670933606809337069093380664
:101E6000ADB7BEB718970FB6F894BEBF0FBEADBFE3
:101E70000DB71EB70F5F1F4F30E0E32E33E0F32E98
:101E80001296FC92EE92119727EF31E0F80133831E
:101E900022832CE330E040E050E00E949B26D801F2
:101EA00014962D933D934D935C9317970E949C003D
:101EB000EDB7FEB738960FB6F894FEBF0FBEEDBF74
:101EC00089E993E041C02DB73EB7285030400FB6A6
:101ED000F8943EBF0FBE2DBF0DB71EB70F5F1F4F4B
:101EE00020E0E22E23E0F22EADB7BEB71296FC92B0
:101EF000EE92119787E092E0F8019383828320911C
:101F00001B0630911C06442737FD4095542F6091E5
:101F100035067091360680913706909138060E94FA
:101F20009B26D80114962D933D934D935C93179760
:101F30000E949C00EDB7FEB738960FB6F894FEBF2E
:101F40000FBEEDBF8AEA93E0B70163C3609121063B
:101F500070912206181619064CF44B3051051CF4EA
:101F600021E030E010C02AE030E00DC0892B19F4E8
:101F700020E030E008C04B3051051CF42FEF3FEF5C
:101F800002C026EF3FEF88EE93E0289FA001299F33
:101F9000500D389F500D1124460F571F8091230676
:101FA00090912406209125063091260624173507A6
:101FB00014F49C0104C0481759070CF09A012093AF
:101FC00021063093220600D000D000D0EDB7FEB736
:101FD000319600E013E0ADB7BEB712961C930E9396
:101FE000119788E192E093838283C90168EE73E0E0
:101FF0000E945226758364830E949C00EDB7FEB751
:1020000036960FB6F894FEBF0FBEEDBF8CEC93E092
:10201000CBC2E0902F06F09030060091310610916F
:102020003206FCE3EF16F10401051105F8F4181669
:1020300019064CF44B3051051CF421E030E010C07F
:102040002AE030E00DC0892B19F420E030E008C010
:102050004B3051051CF42FEF3FEF02C026EF3FEF4E
:10206000C901AA2797FDA095BA2F27C018161906EF
:102070004CF44B3051051CF421E030E010C02AE054
:1020800030E00DC0892B19F420E030E008C04B305F
:1020900051051CF42FEF3FEF02C026EF3FEF8CE31A
:1020A00090E0AC01249FC001259F900D349F900DBE
:1020B0001124AA2797FDA095BA2F8E0D9F1DA01F52
:1020C000B11F80932F0690933006A0933106B093F2
:1020D000320620912F06309130064091270650910C
:1020E000280680912B0690912C068217930714F4F2
:1020F000CA0104C0241735070CF0C9019C0144270C
:1021000037FD4095542F20932F063093300640938F
:1021100031065093320680E093E02C3331054105BF
:102120005105D8F46DB77EB7685070400FB6F8947B
:102130007EBF0FBE6DBFEDB7FEB73196ADB7BEB770
:1021400012969C938E93119788E292E093838283F8
:10215000248335834683578327C06DB77EB7685085
:1021600070400FB6F8947EBF0FBE6DBF0DB71EB79F
:102170000F5F1F4FADB7BEB712969C938E9311970A
:1021800086E392E0F80193838283CA01B9012CE3CC
:1021900030E040E050E00E947926D80114962D935B
:1021A0003D934D935C9317970E949C00EDB7FEB74B
:1021B00038960FB6F894FEBF0FBEEDBF8BEB93E0E1
:1021C00060E073E026C220913306181619061CF44D
:1021D00081E090E007C0892B19F08FEF9FEF02C0DC
:1021E00080E090E0280F822F90E0833091051CF072
:1021F00081E090E004C0009711F482E090E0282F85
:1022000080933306813019F0823031F403C023E526
:1022100031E002C02FE431E000D000D000D0EDB7B3
:10222000FEB7319600E013E0ADB7BEB712961C932F
:102230000E93119784E492E0938382833583248301
:102240000E949C00EDB7FEB736960FB6F894FEBF1D
:102250000FBEEDBF8DED93E0A7C120913406181697
:1022600019061CF481E090E007C0892B19F08FEF6C
:102270009FEF02C080E090E0280F822F90E0833033
:1022800091051CF081E090E004C0009711F482E019
:1022900090E0282F80933406813019F0823031F499
:1022A00003C023E531E002C02FE431E000D000D0CC
:1022B00000D0EDB7FEB7319600E013E0ADB7BEB782
:1022C00012961C930E93119784E492E09383828379
:1022D000358324830E949C00EDB7FEB736960FB677
:1022E000F894FEBF0FBEEDBF8EEE93E05DC120916E
:1022F0004106181619061CF481E090E007C0892BEE
:1023000019F08FEF9FEF02C080E090E0281B30E0D3
:1023100080914206482F50E08091430690E082175A
:10232000930714F4CA0104C0241735070CF0C9013F
:10233000282F80934106823069F0833018F4813071
:1023400089F405C0833049F0843061F409C02EE17E
:1023500031E008C020E031E005C02AE031E002C0F1
:1023600024E131E000D000D000D0EDB7FEB73196C7
:1023700000E013E0ADB7BEB712961C930E93119711
:1023800084E592E093838283358324830E949C00BA
:10239000EDB7FEB736960FB6F894FEBF0FBEEDBF91
:1023A0008FEF93E001C120914406181619061CF422
:1023B00081E090E007C0892B19F08FEF9FEF02C0FA
:1023C00080E090E0281B30E080914506482F50E0E7
:1023D0008091460690E08217930714F4CA0104C066
:1023E000241735070CF0C901282F8093440682304A
:1023F00039F0833041F0813041F422E431E005C00E
:1024000028E231E002C025E331E000D000D000D066
:10241000EDB7FEB7319600E013E0ADB7BEB7129648
:102420001C930E9311978EE592E0938382833583FC
:1024300024830E949C00EDB7FEB736960FB6F89441
:10244000FEBF0FBEEDBF80E194E0AEC02091470615
:10245000181619061CF481E090E007C0892B19F0CA
:102460008FEF9FEF02C080E090E0281B30E080916A
:102470004806482F50E08091490690E08217930764
:1024800014F4CA0104C0241735070CF0C901282F21
:1024900080934706823069F0833018F4813089F4E4
:1024A00005C0833049F0843061F409C02EE131E089
:1024B00008C020E031E005C02AE031E002C024E19C
:1024C00031E000D000D000D0EDB7FEB7319600E08B
:1024D00013E0ADB7BEB712961C930E93119784E527
:1024E00092E093838283358324830E949C00EDB71E
:1024F000FEB736960FB6F894FEBF0FBEEDBF81E271
:1025000094E052C020914A06181619061CF481E086
:1025100090E007C0892B19F08FEF9FEF02C080E099
:1025200090E0281B30E080914B06482F50E08091CE
:102530004C0690E08217930714F4CA0104C02417D4
:1025400035070CF0C901282F80934A06823039F0F4
:10255000833041F0813041F422E431E005C028E2CB
:1025600031E002C025E331E000D000D000D0EDB76B
:10257000FEB7319600E013E0ADB7BEB712961C93DC
:102580000E9311978EE592E09383828335832483A3
:102590000E949C00EDB7FEB736960FB6F894FEBFCA
:1025A0000FBEEDBF82E394E0B80133C040914D0609
:1025B000181619061CF421E030E007C0892B19F029
:1025C0002FEF3FEF02C020E030E0420F242F30E039
:1025D000233031051CF021E030E005C02115310524
:1025E00011F422E030E020934D06213049F48CEBC9
:1025F00096E00E94E01B85E692E064E574E009C085
:1026000083E494E065E674E004C086E792E067E85E
:1026100072E00E94950508C088E992E069EA72E0DC
:102620000E9495050E942F0E1F910F91FF90EF9031
:102630000895CF93DF936091160680E090E070E0FC
:1026400040E050E00E94490E40C00E9443068823AB
:1026500029F40E943B06882309F45EC066E970E015
:1026600080E090E00E944B2121960E943B06882347
:1026700039F080911606282F30E0215030400BC0F1
:102680000E944306882309F43FC080911606282F34
:1026900030E02F5F3F4F80911806482F50E0809127
:1026A0001706682F70E06217730714F4BA0104C0AC
:1026B000241735070CF0B9016093160680E090E00E
:1026C0001FC00E942606882319F4C0E0D0E01CC079
:1026D00066E970E080E090E00E944B2121960E9424
:1026E0002606882329F0609116068FEF9FEF08C019
:1026F0000E942E06882341F06091160681E090E04A
:1027000070E0AE010E94490E88EE93E00E945707E8
:10271000882309F09ACF05C00E942E068823C1F6AF
:10272000D0CFDF91CF9108958F929F92AF92BF92B9
:10273000CF92DF92EF92FF920F931F93CF93DF938D
:10274000E62E4C0197FF04C088249924881A990A20
:1027500060E0181619060CF461E082E00E944A223B
:102760006E2D70E080E090E00E94902420E030E048
:1027700048EC52E40E94F7239B01AC0160E070E05A
:1027800080E89FE30E94F72320E030E04CE852E429
:102790000E94BA255B016C01C0E0D0E015C083E067
:1027A00061E00E944A22C601B5010E9464247B01B7
:1027B0008C01CB010E94A42183E060E00E944A22A8
:1027C000C7010E94A4212196C815D90544F3DF91C1
:1027D000CF911F910F91FF90EF90DF90CF90BF901E
:1027E000AF909F908F9008952F923F924F925F925B
:1027F0006F927F928F929F92AF92BF92CF92DF9211
:10280000EF92FF920F931F93DF93CF93CDB7DEB775
:10281000A3970FB6F894DEBF0FBECDBF8F8F1B01FD
:10282000E0905F06FF2480916006E81AF1082E010F
:102830000894411C511CC2010E9414048BE896E0CC
:102840009A838983B101882777FD8095982F0E940C
:1028500092243B014C01C201B401A3010E94220455
:102860000027F7FC0095102FC801B7010E949224A1
:102870005B016C01C201B601A5010E9428045BE066
:10288000E52EF12CEC0EFD1EC7010E94140485E913
:1028900096E09C878B87C701B401A3010E942204A4
:1028A000C701B601A5010E9428048E010B5E1F4FCF
:1028B000C8010E94140487E796E09E8B8D8BC801A7
:1028C000B401A3010E942204C801B601A5010E941F
:1028D00028048091190690911A06B1010E9452268F
:1028E0003B0188249924A0905F06BB2441E0C42EBC
:1028F000D12C48A259A2EAA2FBA22801EE24FF246F
:102900008701E618F70808091909D3C08091630602
:10291000823091F0833020F4813009F0A4C006C0E9
:102920008330E9F1843009F09EC06CC0A0905F064E
:1029300080916006A81A97C080916606823099F04F
:102940008330F9F0813009F08EC0B601882777FD19
:102950008095982F0E949224AB01BC0188A199A177
:102960000E942E047DC0B601882777FD8095982FA0
:102970000E949224AB01BC0188A199A10E9452043B
:102980006FC0B601882777FD8095982F0E9492240A
:10299000AB01BC0188A199A10E94890461C080910A
:1029A0006606823099F08330F9F0813009F05BC01F
:1029B000B601882777FD8095982F0E949224AB015D
:1029C000BC018AA19BA10E9443054AC0B601882789
:1029D00077FD8095982F0E949224AB01BC018AA1BB
:1029E0009BA10E946C053CC0B601882777FD8095AD
:1029F000982F0E949224AB01BC018AA19BA10E9446
:102A000003052EC080916606823089F08330E1F0A4
:102A1000813049F5B601882777FD8095982F0E946F
:102A20009224AB01BC01C2010E943E0319C0B60151
:102A3000882777FD8095982F0E949224AB01BC01D6
:102A4000C2010E9466030CC0B601882777FD8095FD
:102A5000982F0E949224AB01BC01C2010E949A03EC
:102A60000E946424A62E8F8D823018F4A401930155
:102A700002C0A801970180911506823039F4509563
:102A80004095309521953F4F4F4F5F4F60916006C5
:102A90006A0DC9010E9494130E94AA06882311F4AA
:102AA000BB2404C0B39484E08B1538F00894C11C97
:102AB000D11C2C143D040CF029CF0E94C905A3960B
:102AC0000FB6F894DEBF0FBECDBFCF91DF911F913F
:102AD0000F91FF90EF90DF90CF90BF90AF909F90BD
:102AE0008F907F906F905F904F903F902F900895C0
:102AF0006091510670915206809169060E94F4130C
:102B000081E080934E0683E096E06FEE72E00E94D3
:102B100095050895EF92FF920F931F93643071050E
:102B200009F4A4C1653071056CF46230710509F4D3
:102B300067C0633071050CF03DC16130710509F06B
:102B400027C20DC06630710509F413C266307105E5
:102B50000CF4E0C16730710509F01AC211C220916E
:102B60005F06181619064CF44B3051051CF481E031
:102B700090E010C08AE090E00DC0892B19F480E04D
:102B800090E008C04B3051051CF48FEF9FEF02C05E
:102B900086EF9FEF280F30E080916206682F70E08B
:102BA00080916106482F50E04217530714F4AB019F
:102BB00004C0261737070CF0A90140935F0600D028
:102BC00000D000D0EDB7FEB731960DE915E0ADB7F6
:102BD000BEB712961C930E9311978AEB92E09383E3
:102BE0008283448315820E949C00EDB7FEB736961F
:102BF0000FB6F894FEBF0FBEEDBF8CE895E088C11C
:102C0000E0905B06F0905C0600915D0610915E0618
:102C1000FCE3EF16F10401051105F8F41816190686
:102C20004CF44B3051051CF421E030E010C02AE098
:102C300030E00DC0892B19F420E030E008C04B30A3
:102C400051051CF42FEF3FEF02C026EF3FEFC90103
:102C5000AA2797FDA095BA2F27C0181619064CF47D
:102C60004B3051051CF421E030E010C02AE030E088
:102C70000DC0892B19F420E030E008C04B3051051D
:102C80001CF42FEF3FEF02C026EF3FEF8CE390E004
:102C9000AC01249FC001259F900D349F900D1124FD
:102CA000AA2797FDA095BA2F8E0D9F1DA01FB11FBB
:102CB00080935B0690935C06A0935D06B0935E06DE
:102CC00020915B0630915C0640915306509154066A
:102CD00080915706909158068217930714F4CA0101
:102CE00004C0241735070CF0C9019C01442737FDA7
:102CF0004095542F20935B0630935C0640935D060D
:102D000050935E068EEA95E02C333105410551055E
:102D1000D8F46DB77EB7685070400FB6F8947EBF98
:102D20000FBE6DBFEDB7FEB73196ADB7BEB7129609
:102D30009C938E93119788E292E0938382832483FD
:102D400035834683578327C06DB77EB76850704080
:102D50000FB6F8947EBF0FBE6DBF0DB71EB70F5FE5
:102D60001F4FADB7BEB712969C938E93119786E313
:102D700092E0F80193838283CA01B9012CE330E029
:102D800040E050E00E947926D80114962D933D939F
:102D90004D935C9317970E949C00EDB7FEB7389651
:102DA0000FB6F894FEBF0FBEEDBF8BEB93E06EEA5B
:102DB00075E0E3C020916306181619061CF481E043
:102DC00090E007C0892B19F08FEF9FEF02C080E0E1
:102DD00090E0281B30E080916406482F50E08091FD
:102DE000650690E08217930714F4CA0104C0241703
:102DF00035070CF0C901282F80936306823069F0F3
:102E0000833018F4813089F405C0833049F0843070
:102E100061F409C02EE131E008C020E031E005C0D6
:102E20002AE031E002C024E131E000D000D000D03F
:102E3000EDB7FEB7319600ED15E0ADB7BEB712960F
:102E40001C930E93119784E592E0938382833583DC
:102E500024830E949C00EDB7FEB736960FB6F89417
:102E6000FEBF0FBEEDBF8FEB95E052C0209166060E
:102E7000181619061CF481E090E007C0892B19F0A0
:102E80008FEF9FEF02C080E090E0281B30E0809140
:102E90006706482F50E08091680690E082179307FC
:102EA00014F4CA0104C0241735070CF0C901282FF7
:102EB00080936606823039F0833041F0813041F4EE
:102EC00022E431E005C028E231E002C025E331E030
:102ED00000D000D000D0EDB7FEB7319602EF15E07C
:102EE000ADB7BEB712961C930E9311978EE592E084
:102EF00093838283358324830E949C00EDB7FEB7C1
:102F000036960FB6F894FEBF0FBEEDBF81EE95E08A
:102F1000B80133C040916906181619061CF421E067
:102F200030E007C0892B19F02FEF3FEF02C020E0FF
:102F300030E0420F242F30E0233031051CF021E037
:102F400030E005C02115310511F422E030E0209376
:102F50006906213049F48CEB96E00E94E01B85E67F
:102F600092E064E574E009C083E494E065E674E00F
:102F700004C086E792E06DEC72E00E94950508C0FF
:102F80008EED92E069EA72E00E9495050E94781544
:102F90001F910F91FF90EF900895CF93DF93609171
:102FA0004E0680E090E070E040E050E00E948A151C
:102FB00040C00E944306882329F40E943B068823D0
:102FC00009F45EC066E970E080E090E00E944B2169
:102FD00021960E943B06882339F080914E06282FC7
:102FE00030E0215030400BC00E944306882309F492
:102FF0003FC080914E06282F30E02F5F3F4F8091D9
:103000005006482F50E080914F06682F70E06217FD
:10301000730714F4BA0104C0241735070CF0B90182
:1030200060934E0680E090E01FC00E942606882331
:1030300019F4C0E0D0E01CC066E970E080E090E0E8
:103040000E944B2121960E942606882329F0609138
:103050004E068FEF9FEF08C00E942E06882341F096
:1030600060914E0681E090E070E0AE010E948A150A
:1030700088EE93E00E945707882309F09ACF05C095
:103080000E942E068823C1F6D0CFDF91CF910895FC
:10309000CF92DF92EF92FF920F931F93CF93DF9324
:1030A00089EA94E06AEB74E00E9495058091150628
:1030B000823019F402E010E0ADC001E010E0AAC0D7
:1030C00080E00E94E921EC0181E00E94E9218F5F0C
:1030D0009340C1F564EF71E080E090E00E944B21E5
:1030E00081E00E94E9218F5F934061F50F5F1F4FE0
:1030F000C8018170907000FF11C089EA94E06CED06
:1031000074E00E94950568EE73E080E090E00E9414
:103110004B2189EA94E06AEB74E012C0892B91F4A8
:1031200089EA94E06CED74E00E94950568EE73E026
:1031300080E090E00E944B2189EA94E06BEC74E01F
:103140000E94950582E0CC30D80744F1C801817017
:10315000907000FF10C086E00E949E22019709F443
:1031600060C0CB50D240CE9DC001CF9D900DDE9D62
:10317000900D112446C0892B09F053C084E00E94B1
:103180009E22019709F44DC0CB50D240CE9DC00184
:10319000CF9D900DDE9D900D11241AC021E0C43FFB
:1031A000D2070CF03EC0C8018170907000FF17C0BC
:1031B00084E00E949E220197A1F1C6018C1B9D0B09
:1031C0009C012E9DC0012F9D900D3E9D900D1124C0
:1031D00064EF71E00E9466268FEF9FEF18C0892B85
:1031E00001F586E00E949E220197D9F0C6018C1B52
:1031F0009D0B9C012E9DC0012F9D900D3E9D900D1D
:10320000112464EF71E00E94662681E090E00E9444
:10321000941307C0F4EFCF2EF1E0DF2EE9E1EE2E9C
:10322000F12C88EE93E00E945707882309F048CFDD
:10323000DF91CF911F910F91FF90EF90DF90CF9092
:1032400008958330910579F1843091053CF4813003
:10325000910559F0029709F053C016C084309105CA
:1032600089F1059709F04CC03CC087E793E06FEE09
:1032700072E00E94950564EC79E080E090E00E94A5
:103280004B210E94191308958BE795E06FEE72E0D1
:103290000E94950564EC79E080E090E00E944B216B
:1032A0000E94CD17089588E994E06FEE72E00E94C5
:1032B000950564EC79E080E090E00E944B210E944B
:1032C000481808958DEE94E06FEE72E00E94950527
:1032D00064EC79E080E090E00E944B210E94570866
:1032E000089580E295E06FEE72E00E94950564EC2F
:1032F00079E080E090E00E944B210E949D070895B4
:1033000089E595E06AE675E00E94950564EC79E050
:1033100080E090E00E944B210E948F19089559C0CF
:1033200082E390E00E944C0690E08330910531F4F6
:1033300080916C0690916D06019707C0049749F43F
:1033400080916C0690916D06019690936D06809326
:103350006C0620916C0630916D0640916E0650917E
:103360006F0680917006909171068217930714F48E
:10337000CA0104C0241735070CF0C90190936D06EB
:1033800080936C0683309105A9F08430910534F464
:103390008130910561F00297B1F406C08430910547
:1033A00061F0059781F40CC063E373E00EC062E244
:1033B00073E00BC064E473E008C065E573E005C02A
:1033C00066E673E002C069E575E081E193E00E9482
:1033D000950562E370E080E090E042E050E00E94FA
:1033E000FA06882309F09CCF80916C0690916D06B7
:1033F0000E94211908950E948F190895F999FECF0E
:1034000072BD61BDF89A80B50895F999FECF1FBAD3
:1034100072BD61BD40BD0FB6F894FA9AF99A0FBE1D
:103420000895FC01138212828FE996E091838083D4
:10343000618F178681E084838FEF858382E08683A6
:1034400083E0878384E0808785E0818786E08287C8
:103450000895FC01818D8F3F29F0CF014A960E948B
:103460002C1D089585898F3F21F4862F642F0E949B
:103470000B220895CF93DF93EC01898D8F3F29F0C4
:10348000CE014A960E94021D2AC08D898F3F19F1F4
:10349000288D413049F481E090E002C0880F991FE7
:1034A0006A95E2F7282B09C081E090E002C0880FFE
:1034B000991F6A95E2F780952823288F8F8960E00D
:1034C0000E944A228E896D8941E0288D0E94F12256
:1034D0008F8961E002C0862F642F0E944A22DF910B
:1034E000CF9108950F931F938C01F801668140E0FE
:1034F0000E943A1A81E090E00E94A421C801F801DC
:10350000668141E00E943A1A81E090E00E94A42185
:10351000C801F801668140E00E943A1A84E690E012
:103520000E94A4211F910F910895CF92DF92EF92F4
:10353000FF920F931F93CF93DF93F82EE92E282F3E
:10354000392FC9018C01C0E0D0E0C62EDD248F2DBB
:103550009E2DF801678141E00E94291AA6010C2ED8
:1035600002C0559547950A94E2F741708F2D9E2D24
:10357000F80167810E943A1A21960F5F1F4FC830E9
:10358000D10529F78F2D9E2D0E94721ADF91CF91C0
:103590001F910F91FF90EF90DF90CF900895AF9221
:1035A000BF92CF92DF92EF92FF920F931F93CF9330
:1035B000DF937C01B62EFC01818D8F3F09F468C03A
:1035C0008AE1C82ED12CCE0CDF1CC6010E94FE1C45
:1035D000782FF70140E050E0AB2DB0E001E010E0C3
:1035E00087819D01042E02C0359527950A94E2F744
:1035F00021703070082E02C0220F331F0A94E2F7A8
:10360000C1E0D0E0580102C0AA0CBB1C8A95E2F7C9
:10361000C50180957823722B4F5F5F4F3196443000
:103620005105F1F68E01F701068002C0000F111F4F
:103630000A94E2F700950723C601602F0E94D01C70
:1036400081E090E00E94A421CE01F701068002C033
:10365000880F991F0A94E2F7082BC601602F0E9479
:10366000D01C81E090E00E94A421F701068002C0F6
:10367000CC0FDD1F0A94E2F75E01A0940A21C60177
:10368000602F0E94D01C84E690E00E94A42121C0FB
:103690008701C0E0D0E0C62EDD24C701F8016781B4
:1036A00041E00E94291AA6010C2E02C055954795AB
:1036B0000A94E2F74170C701F80167810E943A1A43
:1036C00021960F5F1F4FC430D10539F7C7010E9403
:1036D000721ADF91CF911F910F91FF90EF90DF90C1
:1036E000CF90BF90AF9008951F93CF93DF93EC01DD
:1036F000162F6C810E943A1A6D816F3F21F0CE0126
:1037000040E00E943A1A8F8584FF05C0CE01612FE8
:103710000E94951A0EC0612F70E094E07595679530
:103720009A95E1F7CE010E94CF1ACE01612F0E9437
:10373000CF1ADF91CF911F91089541E00E94741B31
:1037400081E090E0089540E00E94741B0895FC0120
:103750006089862F8460808B6C60CF010E94A31BE0
:103760000895DF93CF93CDB7DEB728970FB6F894BF
:10377000DEBF0FBECDBF9C01FE013196A3EAB6E0CD
:1037800088E00D9001928150E1F7F9018389841757
:1037900010F4482F4150E42FF0E0EE0FFF1FEC0F24
:1037A000FD1F8181680F6068C9010E94A31B2896D4
:1037B0000FB6F894DEBF0FBECDBFCF91DF91089555
:1037C00061E00E94A31B80ED97E00E94A421089570
:1037D000FC01462F818D8F3F19F485898F3F21F0A1
:1037E000CF0167E00E943A1A0895AF92BF92CF923C
:1037F000DF92EF92FF920F931F93CF93DF93EC0131
:10380000B42EA22E698D6F3F71F17AE1E72EF12C73
:10381000E80EF91EC7010E94581DC70167E041E08C
:103820000E942C1DC70167E041E00E94021D8E012D
:1038300054E0C52ED12CCC0EDD1ECE01F8016781DF
:1038400041E00E94291A0F5F1F4F0C151D05A9F7B3
:10385000C7016C8141E00E942C1DC7016E8141E0CF
:103860000E942C1D05C08D898F3F11F080E8888F44
:10387000F1E0FB1518F48F8588608F87BB8A1C8A5E
:10388000AA2031F081E0B81619F48F8584608F8703
:1038900080E593EC0E94A421CE016C8140E00E945F
:1038A0003A1ACE016E8140E00E943A1A6D816F3F54
:1038B00021F0CE0140E00E943A1A6F8564FD1DC0E0
:1038C000CE0163E00E94CF1A84E991E10E94A42115
:1038D000CE0163E00E94CF1A84E991E10E94A42105
:1038E000CE0163E00E94CF1A86E990E00E94A421F5
:1038F000CE0162E00E94CF1A16C06062CE010E9423
:10390000A31B84E991E10E94A4216F856062CE012E
:103910000E94A31B86E990E00E94A4216F8560624B
:10392000CE010E94A31B6F856062CE010E94A31B83
:1039300084E0888BCE010E94A71BCE010E94E01B71
:1039400082E0898BCE0166E00E94A31BDF91CF91BC
:103950001F910F91FF90EF90DF90CF90BF90AF90AD
:103960000895EF92FF920F931F93FC01F62EE42E21
:1039700006E217E060816062C80170E00E94A81D45
:10398000C8016F2D0E942A1EC8016E2D0E942A1E9A
:10399000C8010E946D1E1F910F91FF90EF90089536
:1039A000462F69E00E94B11C0895DF92EF92FF92CA
:1039B0000F931F937C01D62E06E217E0FC01608175
:1039C0006062C80170E00E94A81DC8016D2D0E94B0
:1039D0002A1EC8010E946D1EF70160816062C80145
:1039E00070E041E050E00E947E1EC8010E94BB1DB5
:1039F0001F910F91FF90EF90DF90089569E00E9472
:103A0000D51C08950F931F93CF93DF93EC01162FCE
:103A1000042F6830E0F40E94FE1C282F013051F47E
:103A200081E090E002C0880F991F1A95E2F7622F9B
:103A3000682B0AC081E090E002C0880F991F1A9598
:103A4000E2F7682F60956223CE010E94D01CDF91BF
:103A5000CF911F910F9108950F931F93CF93DF93F1
:103A6000EC01162F042F6830F0F460E00E94D51CA2
:103A7000282F002351F481E090E002C0880F991FA5
:103A80001A95E2F7422F482B0AC081E090E002C06D
:103A9000880F991F1A95E2F7482F40954223CE01CF
:103AA00060E00E94B11CDF91CF911F910F910895AA
:103AB000CF93DF93EC01683008F067E0688386E21B
:103AC00097E00E94821E6881606286E297E070E063
:103AD0000E94A81D86E297E060E00E942A1E86E20E
:103AE00097E06FEF0E942A1E86E297E060E00E9456
:103AF0002A1E86E297E060E00E942A1E86E297E096
:103B000060E00E942A1E86E297E060E00E942A1E82
:103B100086E297E060E00E942A1E86E297E060E07D
:103B20000E942A1E86E297E060E00E942A1E86E23A
:103B300097E060E00E942A1E86E297E060E00E9423
:103B40002A1E86E297E00E946D1EDF91CF910895B4
:103B500081E080932507609302071092230710925B
:103B6000240708952091010730E080910007281B69
:103B70003109C90108954091000780910107481754
:103B800018F02FEF3FEF0AC0E42FF0E0E052F94FBA
:103B90008081282F30E04F5F40930007C9010895CE
:103BA000E091000780910107E81718F0EFEFFFEFB1
:103BB00006C0F0E0E052F94F8081E82FF0E0CF013D
:103BC00008950895109229071092280788EE93E02F
:103BD000A0E0B0E080932A0790932B07A0932C07D6
:103BE000B0932D078FEA96E09093270780932607DE
:103BF0000895CF92DF92EF92FF920F931F93CF938E
:103C0000DF937C016B018A01809125078823A1F055
:103C1000C0E0D0E00DC0D701ED91FC91D601AC0F12
:103C2000BD1F0190F081E02DC7016C91099521968F
:103C3000C017D10780F304C0CB01642F0E942B1F53
:103C4000C801DF91CF911F910F91FF90EF90DF900E
:103C5000CF900895DF93CF930F92CDB7DEB7FC01DD
:103C60006983809125078823C9F0809124078032D9
:103C700038F081E090E09383828320E030E015C04B
:103C800080912307E82FF0E0ED5FF84F9981908352
:103C90008F5F809323078093240705C0CE01019690
:103CA00061E00E942B1F21E030E0C9010F90CF910D
:103CB000DF9108950F93062F8091020763E077E06C
:103CC0004091240721E00E94D61E109223071092F3
:103CD0002407109225070F91089561E00E945A1E53
:103CE0000895413208F040E2862F60EE76E00E94AF
:103CF0008D1E1092000780930107089521E00E9415
:103D0000711E089510920007109201071092230768
:103D1000109224070E94D7200895382F413210F0C6
:103D200040E042C0809132078823E1F791E0909310
:103D30003207209334078FEF80939F0710925A0722
:103D4000415040935B074F5F909333078091330757
:103D5000330F832B8093330780913507813041F4F3
:103D600010923507809133078093BB0085EC01C02A
:103D700085EE8093BC00809132078130E1F3809121
:103D80005A07841710F440915A0720E030E00AC027
:103D9000FB01E20FF31FD901A65CB84F8C91808321
:103DA0002F5F3F4F2417A0F3842F08950F931F9385
:103DB000582F122F413210F081E04AC08091320713
:103DC0008823E1F782E080933207009334078FEF76
:103DD00080939F0710925A0740935B07AAE3B7E0CE
:103DE000FB0102C081918D938E2F861B8417D0F327
:103DF0001092330780913307550F852B809333073B
:103E000080913507813041F4109235078091330756
:103E10008093BB0085EC01C085EE8093BC0011232C
:103E200021F0809132078230E1F380919F078F3F2C
:103E300011F480E00DC080919F07803211F482E080
:103E400007C080919F07803311F084E001C083E0B8
:103E50001F910F910895482F613210F081E008956D
:103E600080913207843011F082E0089560937D07DD
:103E7000ACE5B7E0842F9C01F90102C081918D93DC
:103E80008E2F841B8617D0F380E008951F920F9227
:103E90000FB60F9211242F933F934F935F936F931D
:103EA0007F938F939F93AF93BF93EF93FF938091F3
:103EB000B90090E0887F90708036910509F4F2C0D7
:103EC00081369105CCF58832910509F47BC08932A1
:103ED0009105B4F48031910509F46FC081319105E9
:103EE0003CF4009709F447C1089709F04FC165C039
:103EF0008831910509F466C0809709F047C182C0F6
:103F00008034910509F4A4C08134910544F48033D0
:103F1000910509F482C0C89709F038C189C080357D
:103F2000910509F489C08835910509F496C0883453
:103F3000910509F02BC1AEC08839910509F413C170
:103F400089399105ECF48837910509F4ABC08937BC
:103F500091054CF48836910509F4A4C08037910589
:103F600009F014C19FC08838910509F4FCC080395C
:103F7000910509F49DC08038910509F007C198C0EA
:103F8000803B910509F4C6C0813B91054CF4803A11
:103F9000910509F49FC0883A910509F0F7C0BAC0AD
:103FA000803C910509F4E3C0883C910509F4DFC029
:103FB000883B910509F0EAC0C2C080913307809325
:103FC000BB00CFC090915A0780915B07981768F4A7
:103FD00090915A07E92FF0E0E65CF84F80818093DA
:103FE000BB009F5F90935A07BCC080913407882321
:103FF00009F44BC085ED8093BC008091BC0084FD2A
:10400000FCCFC2C080E280939F0785ED8093BC0007
:104010008091BC0084FDFCCFB7C080E380939F07F4
:1040200085ED8093BC008091BC0084FDFCCFACC0CA
:1040300088E380939F079BC080915A079091BB00B3
:10404000E82FF0E0E65CF84F90838F5F80935A078B
:1040500090915A0780915B0782C080915A07909196
:10406000BB00E82FF0E0E65CF84F90838F5F809311
:104070005A0780913407882341F085ED8093BC0076
:104080008091BC0084FDFCCF7FC081E08093350728
:1040900084EA6EC085ED8093BC008091BC0084FDF5
:1040A000FCCF72C083E08093320710929E0759C004
:1040B00080919E07803208F056C080919E079091B3
:1040C000BB00E82FF0E0E258F84F90838F5F8093B9
:1040D0009E0747C080919E07803230F4E0919E0792
:1040E000F0E0E258F84F108285ED8093BC0080919B
:1040F000BC0084FDFCCF1092320760919E07E091D6
:104100003807F09139078EE797E070E00995109233
:104110009E072DC084E08093320710927C07109296
:104120007D07E0913607F0913707099580917D076B
:10413000882329F481E080937D0710925C07909199
:104140007C07E92FF0E0E45AF84F80818093BB00B0
:104150009F5F90937C0790917C0780917D079817D3
:1041600010F485EC01C085E88093BC000FC085EC9D
:104170008093BC0009C010929F0785ED8093BC001E
:104180008091BC0084FDFCCF10923207FF91EF912B
:10419000BF91AF919F918F917F916F915F914F915F
:1041A0003F912F910F900FBE0F901F901895109276
:1041B000320781E0809334071092350782E161E095
:1041C0000E944A2283E161E00E944A22E9EBF0E08A
:1041D00080818E7F808380818D7F808388E480933F
:1041E000B80085E48093BC0008951F920F920FB62B
:1041F0000F9211242F933F938F939F93AF93BF936D
:104200008091A4079091A507A091A607B091A70758
:104210003091A8070196A11DB11D232F2D5F2D37C9
:1042200020F02D570196A11DB11D2093A807809362
:10423000A4079093A507A093A607B093A707809122
:10424000A0079091A107A091A207B091A3070196A2
:10425000A11DB11D8093A0079093A107A093A20771
:10426000B093A307BF91AF919F918F913F912F91F1
:104270000F900FBE0F901F9018958FB7F894209154
:10428000A4073091A5074091A6075091A7078FBFBB
:10429000B901CA0108959B01AC017FB7F8948091E0
:1042A000A0079091A107A091A207B091A30766B5BE
:1042B000A89B05C06F3F19F00196A11DB11D7FBFDE
:1042C000BA2FA92F982F8827860F911DA11DB11DE8
:1042D00062E0880F991FAA1FBB1F6A95D1F7BC0126
:1042E0002DC0FFB7F8948091A0079091A107A091ED
:1042F000A207B091A307E6B5A89B05C0EF3F19F050
:104300000196A11DB11DFFBFBA2FA92F982F882795
:104310008E0F911DA11DB11DE2E0880F991FAA1FEC
:10432000BB1FEA95D1F7861B970B885E9340C8F2B6
:10433000215030404040504068517C4F211531059C
:104340004105510571F60895019739F0880F991FBD
:10435000880F991F02970197F1F70895789484B513
:10436000826084BD84B5816084BD85B5826085BD71
:1043700085B5816085BDEEE6F0E080818160808357
:10438000E1E8F0E01082808182608083808181603A
:104390008083E0E8F0E0808181608083E1EBF0E001
:1043A000808184608083E0EBF0E0808181608083A5
:1043B000EAE7F0E08081846080838081826080838E
:1043C0008081816080838081806880831092C100B9
:1043D0000895982F8E3008F09E5097708091720645
:1043E0008295880F880F807C892B80937C00809138
:1043F0007A00806480937A0080917A0086FDFCCFF9
:104400002091780040917900942F80E030E0282BB3
:10441000392BC9010895CF93DF93482F50E0CA018B
:1044200088549F4FFC0134914C555F4FFA018491A1
:10443000882369F190E0880F991FFC01EA57FF4F2C
:10444000A591B491FC01E057FF4FC591D49166232B
:1044500051F42FB7F8948C91932F909589238C93D6
:10446000888189230BC0623061F42FB7F8948C9156
:10447000932F909589238C938881832B88832FBFDA
:1044800006C09FB7F8948C91832B8C939FBFDF91CC
:10449000CF910895482F50E0CA0184539F4FFC01EB
:1044A0002491CA0188549F4FFC0194914C555F4F51
:1044B000FA013491332309F440C0222351F123300F
:1044C00071F0243028F42130A1F0223011F514C00D
:1044D0002630B1F02730C1F02430D9F404C08091E7
:1044E00080008F7703C0809180008F7D8093800053
:1044F00010C084B58F7702C084B58F7D84BD09C09C
:104500008091B0008F7703C08091B0008F7D809341
:10451000B000E32FF0E0EE0FFF1FE057FF4FA59133
:10452000B4912FB7F894662321F48C919095892348
:1045300002C08C91892B8C932FBF0895682F70E057
:10454000CB0184539F4FFC012491CB0188549F4F92
:10455000FC0144916C557F4FFB019491992319F410
:1045600020E030E03CC0222351F1233071F02430B0
:1045700028F42130A1F0223011F514C02630B1F01A
:104580002730C1F02430D9F404C0809180008F77A7
:1045900003C0809180008F7D8093800010C084B51F
:1045A0008F7702C084B58F7D84BD09C08091B00033
:1045B0008F7703C08091B0008F7D8093B000892FEA
:1045C00090E0880F991F86569F4FFC01A591B491EA
:1045D0008C9120E030E0842311F021E030E0C9012B
:1045E0000895BF92CF92DF92EF92FF920F931F93A5
:1045F000CF93DF93E82EF62EB42EC7E0D0E0022F43
:1046000010E087E0C82ED12CBB2059F4B6016C1BFA
:104610007D0BC80102C0959587956A95E2F7BC01AC
:1046200007C0B8010C2E02C0759567950A94E2F791
:1046300061708E2D0E944A228F2D61E00E944A22D5
:104640008F2D60E00E944A2221979FEFCF3FD9072C
:10465000D9F6DF91CF911F910F91FF90EF90DF90EE
:10466000CF90BF900895CF93DF930E94AE210E9418
:10467000D405C0E0D0E00E94FB192097E1F30E942E
:104680000000F9CFCF92DF92EF92FF920F931F932A
:10469000CF93DF937C016B018A01C0E0D0E00FC0B3
:1046A000D6016D916D01D701ED91FC910190F081E2
:1046B000E02DC7010995C80FD91F01501040011501
:1046C000110571F7CE01DF91CF911F910F91FF90EE
:1046D000EF90DF90CF900895CF93DF93EC016115B9
:1046E000710519F420E030E00FC0DB010D900020CF
:1046F000E9F71197A61BB70BE881F9810280F381D6
:10470000E02DAD0109959C01C901DF91CF9108957C
:104710000E946C2308955058BB27AA270ED0DFC1F2
:104720009FD130F0A4D120F031F49F3F11F41EF45A
:104730005EC10EF4E095E7FB54C1E92FF2D180F39E
:10474000BA17620773078407950718F071F49EF58E
:104750000AC20EF4E0950B2EBA2FA02D0B01B90161
:1047600090010C01CA01A0011124FF27591B99F0E7
:10477000593F50F4503E68F11A16F040A22F232FF3
:10478000342F4427585FF3CF469537952795A79543
:10479000F0405395C9F77EF41F16BA0B620B730BEA
:1047A000840BBAF09150A1F0FF0FBB1F661F771F5B
:1047B000881FC2F70EC0BA0F621F731F841F48F410
:1047C000879577956795B795F7959E3F08F0B3CF96
:1047D0009395880F08F09927EE0F97958795089580
:1047E000DCD008F481E008954AD1E39589C10CD06A
:1047F00076C13DD140F034D130F021F45F3F19F063
:10480000F0C05111B1C1F3C08CD198F39923C9F311
:104810005523B1F3951B550BBB27AA2762177307C6
:10482000840738F09F5F5F4F220F331F441FAA1F7A
:10483000A9F333D00E2E3AF0E0E830D0915050403A
:10484000E695001CCAF729D0FE2F27D0660F771FE8
:10485000881FBB1F261737074807AB07B0E809F0CA
:10486000BB0B802DBF01FF2793585F4F2AF09E3F5F
:10487000510568F0B6C078C15F3FECF3983EDCF3B9
:10488000869577956795B795F7959F5FC9F7880FD8
:10489000911D9695879597F90895E1E0660F771F2A
:1048A000881FBB1F621773078407BA0720F0621BBB
:1048B000730B840BBA0BEE1F88F7E095089504D0B4
:1048C0006894B11151C1089534D188F09F5790F088
:1048D000B92F9927B751A0F0D1F0660F771F881F25
:1048E000991F1AF0BA95C9F712C0B13081F03BD1C7
:1048F000B1E0089538C1672F782F8827B85F39F065
:10490000B93FCCF3869577956795B395D9F73EF483
:1049100090958095709561957F4F8F4F9F4F08952B
:10492000E89409C097FB3EF4909580957095619549
:104930007F4F8F4F9F4F9923A9F0F92F96E9BB27FF
:104940009395F695879577956795B795F111F8CF7B
:10495000FAF4BB0F11F460FF1BC06F5F7F4F8F4FE6
:104960009F4F16C0882311F096E911C0772321F0DC
:104970009EE8872F762F05C0662371F096E8862F74
:1049800070E060E02AF09A95660F771F881FDAF7CB
:10499000880F9695879597F90895990F0008550FF8
:1049A000AA0BE0E8FEEF16161706E807F907C0F0B5
:1049B00012161306E407F50798F0621B730B840BBD
:1049C000950B39F40A2661F0232B242B252B21F497
:1049D00008950A2609F4A140A6958FEF811D811D37
:1049E000089597F99F6780E870E060E008959FEF71
:1049F00080EC0895DF93CF931F930F93FF92EF9274
:104A0000DF927B018C01689405C0DA2EEF01BED0E5
:104A1000FE01E894A5912591359145915591AEF30C
:104A2000EF018BDEFE019701A801DA9479F7DF90A0
:104A3000EF90FF900F911F91CF91DF9108959F9379
:104A40008F937F936F93FF93EF939B01AC0192D071
:104A5000EF91FF91CFDF2F913F914F915F918AC0EE
:104A600000240A941616170618060906089500244D
:104A70000A9412161306140605060895B8CF59D0E5
:104A8000E8F3E894EFEFBB273FE048EC5FE76B3DCE
:104A900073078407950708F1FF279F57B25A6A4D9D
:104AA0007F40894CF04032F4BE556542704F8643DA
:104AB000FF4F0894EE1F915030F0BB0F661F771F19
:104AC000881FFF1FEBCF9EE7882332F0BB0F661FC6
:104AD000771F881F9A95C1F79395E095B4C0092E6A
:104AE0000394000C11F4882352F0BB0F40F4BF2B49
:104AF00011F460FF04C06F5F7F4F8F4F9F4F089589
:104B0000EF93E0FF06C0A2EA2AED3FE049EC5FEB3D
:104B100014DEE5DF0F90039401FC9058E8E6F0E026
:104B20008ECF57FD9058440F551F59F05F3F71F0DD
:104B30004795880F97FB991F61F09F3F79F0879504
:104B40000895121613061406551FF2CF4695F1DF8D
:104B500008C0161617061806991FF1CF869571051D
:104B6000610508940895E894BB2766277727CB0151
:104B700097F908950BD0B3CF73DF28F078DF18F0E2
:104B8000952309F02ECF33CF1124EECFCADFA0F347
:104B9000959FD1F3950F50E0551F629FF001729FD2
:104BA000BB27F00DB11D639FAA27F00DB11DAA1FF1
:104BB000649F6627B00DA11D661F829F2227B00D3E
:104BC000A11D621F739FB00DA11D621F839FA00DC9
:104BD000611D221F749F3327A00D611D231F849F19
:104BE000600D211D822F762F6A2F11249F57504070
:104BF0008AF0E1F088234AF0EE0FFF1FBB1F661F0B
:104C0000771F881F91505040A9F79E3F510570F0C3
:104C1000E8CEAACF5F3FECF3983EDCF3869577951C
:104C20006795B795F795E7959F5FC1F7FE2B880FBE
:104C3000911D9695879597F908959F9320DF0F9082
:104C400007FCEE5F5DCF9F3F49F0915028F48695B9
:104C500077956795B7959F5F80389F4F880F96959A
:104C6000879597F90895629FD001739FF001829F05
:104C7000E00DF11D649FE00DF11D929FF00D839FEB
:104C8000F00D749FF00D659FF00D9927729FB00D88
:104C9000E11DF91F639FB00DE11DF91FBD01CF019B
:104CA00011240895AA1BBB1B51E107C0AA1FBB1FFB
:104CB000A617B70710F0A61BB70B881F991F5A95A8
:104CC000A9F780959095BC01CD01089597FB092E19
:104CD00007260AD077FD04D0E5DF06D000201AF4BD
:104CE000709561957F4F0895F6F7909581959F4F48
:104CF0000895A1E21A2EAA1BBB1BFD010DC0AA1F1D
:104D0000BB1FEE1FFF1FA217B307E407F50720F034
:104D1000A21BB30BE40BF50B661F771F881F991FAF
:104D20001A9469F760957095809590959B01AC01F8
:104D3000BD01CF01089597FB092E05260ED057FD22
:104D400004D0D7DF0AD0001C38F450954095309538
:104D500021953F4F4F4F5F4F0895F6F790958095FF
:104D6000709561957F4F8F4F9F4F0895EE0FFF1FF6
:104D70000590F491E02D09942F923F924F925F920B
:104D80006F927F928F929F92AF92BF92CF92DF925B
:104D9000EF92FF920F931F93CF93DF93CDB7DEB7C0
:104DA000CA1BDB0B0FB6F894DEBF0FBECDBF099454
:104DB0002A88398848885F846E847D848C849B84AB
:104DC000AA84B984C884DF80EE80FD800C811B81B9
:104DD000AA81B981CE0FD11D0FB6F894DEBF0FBEE8
:0A4DE000CDBFED010895F894FFCF58
:104DEA00322E2051756164202000332E2053696EC3
:104DFA0065202000342E2043756269632000312E1D
:104E0A00204C696E65617200322E204561736520FF
:104E1A004F75742000332E2045617365496E4F75B6
:104E2A007400312E204561736520496E2020004EA2
:104E3A006F200059657300322E2053657474696EB1
:104E4A0067204200312E2053657474696E672041D1
:104E5A000020002A00202020536C6964656C617070
:104E6A007365002056657273696F6E20302E352E79
:104E7A003000202020200020202020202020202058
:104E8A00202020202020200050726F6772657373E3
:104E9A003A20253032642525202000583A253464EA
:104EAA002053656C3A25732020202000593A253476
:104EBA0064204D3A257320453A2573202000257336
:104ECA002025732020002530346420202020202033
:104EDA002020202020200025303464206D696E7542
:104EEA007465732020200025303464207365636F55
:104EFA006E6473202020200025303275207365638C
:104F0A006F6E6473202020002564207365636F6EC2
:104F1A006473202020002564206D696E75746573A2
:104F2A00202020002573202020202020202020203F
:104F3A0020202000257320202020202020002573F7
:104F4A0020202020004D6F76656D656E74204469BF
:104F5A00723A202020004D6F766520526967687486
:104F6A0020746F2020200073746172742074696D3C
:104F7A00656C617073653E005374617274696E6723
:104F8A0020544C2E2E2E20200053656C20746F2046
:104F9A0063616E63656C2020200025303264202016
:104FAA00202020202020202020202020007374612F
:104FBA007274205254206D6F766520203E0053741F
:104FCA00617274696E67204D6F76652E2E2E0048C9
:104FDA006F6C642053656C20746F20457869740087
:104FEA0000000000000000000000000000000000B7
:104FFA000053656C656374204D6F64653A20202008
:10500A002000312E54696D656C6170736520202013
:10501A00203E00322E5265616C74696D6520202035
:10502A0020203E00332E436F6D6D616E64657220E1
:10503A002020203E00342E446972656374696F6EC5
:10504A00202020203E00352E4465627567202020EE
:10505A0020202020203E003E3E3E2054696D656C93
:10506A0061707365202020004E756D626572206F35
:10507A00662053686F74733A00544C204475726109
:10508A0074696F6E3A202020200041766720496EAD
:10509A0074657276616C3A202020005374617274D0
:1050AA002044656C61793A20202020004C6F6E679D
:1050BA0065737420536875747465723A00536C652D
:1050CA006570206274772073686F74732000426180
:1050DA00636B6C69676874206F6E3F3A20200053D7
:1050EA006C69646520456173652046756E633A0094
:1050FA00536C696465204561736520437572763A1D
:10510A000054696D6520456173652046756E633A82
:10511A00200054696D652043757276652046756E68
:10512A00633A004D6F76656D656E74204469723A14
:10513A00202020004D6F746F72202D2D2D2D2D3EB5
:10514A0020456E6400456E64202D2D2D2D2D3E20A8
:10515A004D6F746F720054696D656C617073652070
:10516A006163746976650054696D656C6170736515
:10517A0020446F6E652020003E3E3E20436F6D6DD9
:10518A00616E646572202020002020436F6D6D617E
:10519A006E64204D6F64652020004D6F746F72201D
:1051AA003C2D2D2D2D3E20456E6400456E64203C1D
:1051BA002D2D2D2D3E204D6F746F72005265766530
:1051CA007273696E6720446972203C3E003E3E3E1F
:1051DA0020446972656374696F6E202020005365EC
:1051EA007420454550524F4D204469723A200000C0
:1051FA0000000000000000000000000000000000A5
:10520A003E3E3E204465627567204D6F64652020EE
:10521A000000000000000000000000000000000084
:10522A000000000000000000000000000000000074
:10523A000000004F00500058003E3E3E20455252AA
:10524A004F52202020202020200052657475726E53
:10525A00696E6720486F6D652020003E3E3E5265AC
:10526A00616C74696D65204D6F6465004D6F76657C
:10527A006D656E742053706565643A200000000005
:10528A000000000000000000000000000000000014
:10529A0000000000000000000000000000000052B2
:1052AA005420456173652046756E633A20202000BC
:1052BA0000000000000000000000000000000000E4
:1052CA0000525420456173652043757276653A2011
:1052DA0020000000000000000000000000000000A4
:1052EA000000004D6F766520436F6D706C657465C4
:1052FA00212020000101010E01F087F0000F27058F
:10530A0000E8036400307501000000100E00000A76
:10531A000000000101580200003C00000080510119
:10532A000001010401010301010401010302010753
:10533A0001F40101000000100E00000A000000192B
:10534A000A630101010401010301000201000100D5
:10535A00050001000000003E0366039A03000000F6
:10536A00003D033D033D03000000002E0452048962
:10537A00040000000043056C050305000000009DC1
:10538A001B42230000400014005400000000002AC1
:0C539A001EF91DB21DBB1DD01DE11D0041
:00000001FF
