:100000000C9463000C948B000C948B000C948B006C
:100010000C948B000C948B000C948B000C948B0034
:100020000C948B000C948B000C948B000C948B0024
:100030000C948B000C948B000C948B000C948B0014
:100040000C94AB110C948B000C948B000C948B00D3
:100050000C948B000C948B000C948B000C948B00F4
:100060000C94FC0F0C948B0000000000240027006F
:100070002A0000000000250028002B0000000000DE
:1000800023002600290004040404040404040202DA
:100090000202020203030303030301020408102007
:1000A0004080010204081020010204081020000012
:1000B0000007000201000003040600000000000029
:1000C00000002E03980E11241FBECFEFD8E0DEBF34
:1000D000CDBF15E0A0E0B1E0E2EDFCE202C005908A
:1000E0000D92A035B107D9F716E0A0E5B5E001C043
:1000F0001D92AC33B107E1F710E0C6ECD0E004C0CC
:100100002297FE010E942C16C23CD107C9F70E941B
:10011000E9130C9467160C940000AEE0B0E0E3E93C
:10012000F0E00C943E160D891E8986E08C831A83BC
:1001300009838FEF9FE79E838D839E01275E3F4F4C
:10014000CE0101966F89788DA9010E94B1002F819F
:100150003885020F131FF80110822E96E4E00C94EC
:100160005A16ABE0B0E0E7EBF0E00C9430163C013F
:100170002B015A01FC0117821682838181FD03C085
:100180006FEF7FEFC6C19AE0892E1E010894211CF3
:10019000311CF3012381F20123FD859123FF81911D
:1001A0002F01882309F4B2C1853239F423FD8591EA
:1001B00023FF81912F01853229F490E0B3010E9441
:1001C000A402E7CF982FFF24EE249924FFE1FF1526
:1001D000D0F09B3269F09C3228F4903259F093327F
:1001E00091F40EC09D3249F0903369F441E024C08F
:1001F00052E0F52A84E0F82A28C098E0F92A25C0C0
:10020000E0E1FE2A22C0F7FC29C0892F80538A3002
:1002100070F4F6FE05C0989C902C1124980E15C021
:10022000E89CE02C1124E80EF0E2FF2A0EC09E327A
:1002300029F4F6FC6BC140E4F42A07C09C3619F49B
:1002400050E8F52A02C0983649F4F20123FD959151
:1002500023FF91912F01992309F0B8CF892F85545D
:10026000833018F08052833038F444E050E0A40E1C
:10027000B51E5FE359830FC0933631F0933779F0A1
:10028000933509F056C020C0F5018081898342E092
:1002900050E0A40EB51E610101E010E012C0F501AE
:1002A000C080D180F6FC03C06FEF7FEF02C0692DE4
:1002B00070E042E050E0A40EB51EC6010E94990213
:1002C0008C015FE7F52214C0F501C080D180F6FCF7
:1002D00003C06FEF7FEF02C0692D70E042E050E095
:1002E000A40EB51EC6010E948E028C0150E8F52AAC
:1002F000F3FE07C01AC080E290E0B3010E94A4029E
:10030000EA948E2D90E008171907A8F30EC0F601A5
:10031000F7FC8591F7FE81916F0190E0B3010E9497
:10032000A402E110EA94015010400115110579F77B
:10033000EAC0943611F0993669F5F7FE08C0F50168
:10034000208131814281538184E090E00AC0F5012F
:10035000808191819C01442737FD4095542F82E094
:1003600090E0A80EB91E9FE6F92257FF09C05095EC
:100370004095309521953F4F4F4F5F4FE0E8FE2A63
:10038000CA01B901A1012AE030E00E94D002D82EB2
:10039000D21840C0953729F41F2D1F7E2AE030E087
:1003A0001DC01F2D197F9F3661F0903720F49835BE
:1003B00009F0ACC00FC0903739F0983709F0A6C0EB
:1003C00004C028E030E00AC0106114FD146020E190
:1003D00030E004C014FD166020E132E017FF08C0D1
:1003E000F501608171818281938144E050E008C011
:1003F000F50180819181BC0180E090E042E050E015
:10040000A40EB51EA1010E94D002D82ED2188FE7EB
:10041000F82EF122F6FE0BC05EEFF522D91438F467
:10042000F4FE07C0F2FC05C08FEEF82202C01D2DBD
:1004300001C0192DF4FE0DC0FE01ED0DF11D8081EE
:10044000803319F499EEF92208C01F5FF2FE05C04F
:1004500003C08F2D867809F01F5F0F2DF3FC14C0A9
:10046000F0FE0FC01E1510F09D2C0BC09D2C9E0C95
:10047000911A1E2D06C080E290E0B3010E94A402F2
:100480001F5F1E15C0F304C01E1510F4E11A01C051
:10049000EE2404FF0FC080E390E0B3010E94A402A9
:1004A00002FF1DC001FD03C088E790E00EC088E593
:1004B00090E00BC0802F867891F001FF02C08BE2A4
:1004C00001C080E2F7FC8DE290E0B3010E94A4023B
:1004D00006C080E390E0B3010E94A4029A94D9146C
:1004E000C0F3DA94F101ED0DF11D808190E0B301CC
:1004F0000E94A402DD20A9F706C080E290E0B301CB
:100500000E94A402EA94EE20C1F743CEF301668173
:100510007781CB012B96E2E10C944C16FC010590FF
:10052000615070400110D8F7809590958E0F9F1FF5
:100530000895FC016150704001900110D8F780953A
:1005400090958E0F9F1F08950F931F93CF93DF9366
:100550008C01EB018B8181FF1BC082FF0DC02E81BE
:100560003F818C819D812817390764F4E881F981E6
:100570000193F983E88306C0E885F985802F099502
:10058000892B31F48E819F8101969F838E8302C0D7
:100590000FEF1FEFC801DF91CF911F910F910895C9
:1005A000FA01AA27283051F1203181F1E8946F93A4
:1005B0006E7F6E5F7F4F8F4F9F4FAF4FB1E03ED04A
:1005C000B4E03CD0670F781F891F9A1FA11D680FE8
:1005D000791F8A1F911DA11D6A0F711D811D911D1B
:1005E000A11D20D009F468943F912AE0269F112490
:1005F0003019305D3193DEF6CF010895462F4770F4
:10060000405D4193B3E00FD0C9F7F6CF462F4F704E
:10061000405D4A3318F0495D31FD4052419302D0AC
:10062000A9F7EACFB4E0A695979587957795679552
:10063000BA95C9F700976105710508959B01AC0152
:100640000A2E06945795479537952795BA95C9F779
:10065000620F731F841F951FA01D089580E595E00C
:1006600060E00E94D40A0895CF92DF92EF92FF9249
:100670000F931F938C016B0180E5E82E85E0F82E27
:10068000C70160E040E00E94740CC701B8010E94FD
:100690003E14C70160E041E00E94740CC701B6013E
:1006A0000E943E141F910F91FF90EF90DF90CF902A
:1006B000089581E08093040580E194E061E274E0B4
:1006C0000E94340308950F931F9382E061E00E941B
:1006D000C11283E061E00E94C11289E061E00E94E2
:1006E000C11289E061E00E94001387E061E00E948E
:1006F000C11200E515E0C80160E142E020E00E947F
:10070000AB0CC80167E571E00E943E14C80160E0CF
:1007100041E00E94740CC80165E671E00E943E143D
:1007200068EB7BE080E090E00E940112C8010E942B
:10073000A30C8AE062E00E94C11284E060E00E94A3
:10074000C11286E060E00E94C1121F910F910895CE
:1007500081E00E949F1208950E94A80320E0C297A2
:100760000CF421E0822F08950E94A80320E0895E06
:1007700093400CF021E0822F089580E00E949F12A8
:1007800008950E94BD0320E0C2970CF421E0822F5F
:1007900008950E94BD0320E0895E93400CF021E0A3
:1007A000822F0895CF93DF93EC0180E00E949F1287
:1007B0008955924084F0BE01882777FD8095982F57
:1007C0000E94011280E00E949F12895592400CF411
:1007D00042C022E041C080E00E949F1280599140B7
:1007E00084F4BE01882777FD8095982F0E9401121E
:1007F00080E00E949F1220E0805991406CF521E03A
:100800002BC081E00E949F12895592407CF0BE016E
:10081000882777FD8095982F0E94011281E00E9421
:100820009F1289559240BCF023E016C081E00E94DF
:100830009F12805991407CF4BE01882777FD8095F6
:10084000982F0E94011281E00E949F1280599140CE
:1008500014F424E001C020E0822FDF91CF910895AD
:10086000EF92FF920F931F936530710509F4B1C1A8
:1008700066307105ACF46230710509F47FC06330F5
:1008800071052CF46130710509F0DBC222C06330C0
:10089000710509F4F8C06430710509F0D2C256C17F
:1008A0006830710509F48FC2693071054CF4663007
:1008B000710509F4D8C16730710509F0C2C22FC2B1
:1008C0006930710509F4AEC26A30710509F0B9C228
:1008D000B0C22091070530910805181619064CF48E
:1008E0004B3051051CF481E090E010C08AE090E0AC
:1008F0000DC0892B19F480E090E008C04B30510501
:100900001CF48FEF9FEF02C086EF9FEF820F931FC3
:1009100040910B0550910C052091090530910A0575
:100920002817390714F49A0104C0841795070CF0AE
:100930009C01309308052093070500D000D000D01B
:10094000EDB7FEB7319600E013E0ADB7BEB7129633
:100950001C930E9311978DE991E0938382833583E5
:1009600024830E948D00EDB7FEB736960FB6F8943B
:10097000FEBF0FBEEDBF8FEE92E023C2E0901405E4
:10098000F090150500911605109117051816190617
:100990004CF44B3051051CF421E030E010C02AE04B
:1009A00030E00DC0892B19F420E030E008C04B3056
:1009B00051051CF42FEF3FEF02C026EF3FEF8CE311
:1009C00090E0AC01249FC001259F900D349F900DB5
:1009D00011249C01442737FD4095542F2E0D3F1DB7
:1009E000401F511F8091180590911905E0911C0539
:1009F000F0911D05E217F30714F4FC0104C0281759
:100A000039070CF0F901BF01882777FD8095982FF1
:100A10006093140570931505809316059093170540
:100A2000ADB7BEB718970FB6F894BEBF0FBEADBF37
:100A30000DB71EB70F5F1F4F32E2E32E33E0F32EE8
:100A40001296FC92EE9211972EEA31E0F801338370
:100A500022832CE330E040E050E00E940F16D801E2
:100A600014962D933D934D935C9317970E948D00A0
:100A7000EDB7FEB738960FB6F894FEBF0FBEEDBFC8
:100A800081E193E0A4C060910D0570910E051816E8
:100A900019064CF44B3051051CF421E030E010C035
:100AA0002AE030E00DC0892B19F420E030E008C0C6
:100AB0004B3051051CF42FEF3FEF02C026EF3FEF04
:100AC00088EE93E0289FA001299F500D389F500D7C
:100AD0001124460F571F80910F059091100520910A
:100AE0001105309112052417350714F49C0104C038
:100AF000481759070CF09A0120930D0530930E0505
:100B000000D000D000D0EDB7FEB7319606E613E076
:100B1000ADB7BEB712961C930E9311978EEB91E072
:100B200093838283C90168EE73E00E94C6157583C2
:100B300064830E948D00EDB7FEB736960FB6F89429
:100B4000FEBF0FBEEDBF85E593E03BC12DB73EB7BD
:100B5000285030400FB6F8943EBF0FBE2DBF0DB7E2
:100B60001EB70F5F1F4F24E4E22E23E0F22EADB735
:100B7000BEB71296FC92EE9211978EEC91E0F801BE
:100B8000938382832091070530910805442737FD20
:100B90004095542F609114057091150580911605AC
:100BA000909117050E940F16D80114962D933D932E
:100BB0004D935C9317970E948D00EDB7FEB7389662
:100BC0000FB6F894FEBF0FBEEDBF83E393E0B7010D
:100BD0002DC120911305181619061CF481E090E030
:100BE00007C0892B19F08FEF9FEF02C080E090E0E3
:100BF000280F822F90E0833091051CF081E090E077
:100C000004C0009711F482E090E0282F8093130530
:100C1000813019F0823031F403C023E531E002C0A5
:100C20002FE431E000D000D000D0EDB7FEB7319610
:100C300008E813E0ADB7BEB712961C930E93119758
:100C40008FED91E093838283358324830E948D000E
:100C5000EDB7FEB736960FB6F894FEBF0FBEEDBFE8
:100C600087E793E0AEC020912005181619061CF402
:100C700081E090E007C0892B19F08FEF9FEF02C051
:100C800080E090E0281B30E080912105482F50E063
:100C90008091220590E08217930714F4CA0104C0E2
:100CA000241735070CF0C901282F809320058230C6
:100CB00069F0833018F4813089F405C0833049F03D
:100CC000843061F409C02EE131E008C020E031E059
:100CD00005C02AE031E002C024E131E000D000D0BC
:100CE00000D0EDB7FEB731960AEA13E0ADB7BEB754
:100CF00012961C930E9311978FEE91E0938382834B
:100D0000358324830E948D00EDB7FEB736960FB66B
:100D1000F894FEBF0FBEEDBF89E993E052C0209169
:100D20002305181619061CF481E090E007C0892BF2
:100D300019F08FEF9FEF02C080E090E0281B30E0B9
:100D400080912405482F50E08091250590E082177E
:100D5000930714F4CA0104C0241735070CF0C90125
:100D6000282F80932305823039F0833041F0813081
:100D700041F422E431E005C028E231E002C025E37D
:100D800031E000D000D000D0EDB7FEB731960CECCA
:100D900013E0ADB7BEB712961C930E93119789EF6F
:100DA00091E093838283358324830E948D00EDB785
:100DB000FEB736960FB6F894FEBF0FBEEDBF8BEBB5
:100DC00093E0B80133C040912605181619061CF4AB
:100DD00021E030E007C0892B19F02FEF3FEF02C070
:100DE00020E030E0420F242F30E0233031051CF0AA
:100DF00021E030E005C02115310511F422E030E09A
:100E000020932605213049F480E595E00E94A30C4B
:100E100080E092E06EEE73E009C08DED93E06FEF3D
:100E200073E004C081E192E062E272E00E94340368
:100E300008C083E392E064E472E00E9434030E94FD
:100E400059031F910F91FF90EF900895EF92FF9239
:100E50000F931F937B018C019A01CA01019702979E
:100E600010F480E006C0235030402230310538F4C1
:100E700081E00E949F12909328058093270580911E
:100E8000270590912805825C91408536910560F197
:100E900080916F0590917005A0917105B0917205D8
:100EA0000097A105B105A9F00E94F311E0E020919F
:100EB0006F05309170054091710550917205621B6C
:100EC000730B840B950BE616F70608071907A8F0B5
:100ED00013C00E94F31160936F05709370058093A7
:100EE00071059093720508C010926F0510927005FD
:100EF0001092710510927205E1E08E2F1F910F91F3
:100F0000FF90EF900895CF93DF93EC018AE00E9469
:100F10005413882389F580916B0590916C05A091FD
:100F20006D05B0916E050097A105B105D1F00E9445
:100F3000F311E0E020916B0530916C0540916D0557
:100F400050916E05621B730B840B950B9E01442719
:100F500037FD4095542F2617370748075907A8F043
:100F600013C00E94F31160936B0570936C0580931E
:100F70006D0590936E0508C010926B0510926C057C
:100F800010926D0510926E05E1E08E2FDF91CF91EA
:100F90000895CF93DF936091040580E090E070E0C6
:100FA00040E050E00E94300440C00E94C903882302
:100FB00029F40E94C103882309F45EC066E970E049
:100FC00080E090E00E94011221960E94C1038823D4
:100FD00039F080910405282F30E0215030400BC0BB
:100FE0000E94C903882309F43FC080910405282F7B
:100FF00030E02F5F3F4F80910605482F50E08091F1
:101000000505682F70E06217730714F4BA0104C075
:10101000241735070CF0B9016093040580E090E0D7
:101020001FC00E94AC03882319F4C0E0D0E01CC0AC
:1010300066E970E080E090E00E94011221960E9433
:10104000AC03882329F0609104058FEF9FEF08C05F
:101050000E94B403882341F06091040581E090E090
:1010600070E0AE010E94300488EE93E00E94830796
:10107000882309F09ACF05C00E94B4038823C1F6E3
:10108000D0CFDF91CF9108958F929F92AF92BF9270
:10109000CF92DF92EF92FF920F931F93CF93DF9344
:1010A000E62E4C0197FF04C088249924881A990AD7
:1010B00060E0181619060CF461E082E00E9400134B
:1010C0006E2D70E080E090E00E94D51420E030E0CA
:1010D00048EC52E40E9441149B01AC0160E070E0D6
:1010E00080E89FE30E94411420E030E04CE852E4A5
:1010F0000E9463155B016C01C0E0D0E015C083E085
:1011000061E00E940013C601B5010E94A9147B0191
:101110008C01CB010E945A1283E060E00E94001310
:10112000C7010E945A122196C815D90544F3DF91D0
:10113000CF911F910F91FF90EF90DF90CF90BF90D4
:10114000AF909F908F900895CF92DF92EF92FF9291
:101150000F931F93CF93DF9384E594E065E674E0EB
:101160000E94340301E010E084EFC82E81E0D82E05
:10117000B9E1EB2EF12CA8C080E00E949F12EC0197
:1011800081E00E949F128F5F9340C1F564EF71E090
:1011900080E090E00E94011281E00E949F128F5F28
:1011A000934061F50F5F1F4FC8018170907000FF81
:1011B00011C084E594E067E874E00E94340368EEAF
:1011C00073E080E090E00E94011284E594E065E61F
:1011D00074E012C0892B91F484E594E067E874E030
:1011E0000E94340368EE73E080E090E00E940112F8
:1011F00084E594E066E774E00E94340382E0CC303A
:10120000D80744F1C8018170907000FF10C086E0DB
:101210000E945413019709F457C0CB50D240CE9D81
:10122000C001CF9D900DDE9D900D112445C0892BEE
:1012300009F04AC084E00E945413019709F444C0A5
:10124000CB50D240CE9DC001CF9D900DDE9D900D24
:10125000112419C021E0C43FD207B4F5C801817040
:10126000907000FF17C084E00E945413019761F151
:10127000C6018C1B9D0B9C012E9DC0012F9D900DC6
:101280003E9D900D112464EF71E00E94DA158FEFFE
:101290009FEF18C0892BC1F486E00E945413019778
:1012A00099F0C6018C1B9D0B9C012E9DC0012F9DAA
:1012B000900D3E9D900D112464EF71E00E94DA15AF
:1012C00081E090E00E94440888EE93E00E9483074A
:1012D000882309F051CFDF91CF911F910F91FF909B
:1012E000EF90DF90CF90089582309105A1F0833088
:1012F000910501F1019769F58DEC92E06EED72E0D8
:101300000E94340364EC79E080E090E00E940112D6
:101310000E94C907089582E394E063E474E00E94A8
:10132000340364EC79E080E090E00E9401120E94B6
:10133000A408089588E994E069EA74E00E943403FF
:1013400064EC79E080E090E00E9401120E94180AAB
:10135000089582EE94E063EF74E00E94340364EC3D
:1013600079E080E090E00E9401120E94B80908959F
:101370004AC082E390E00E94D20390E0833091055E
:1013800031F48091290590912A05019707C00497AF
:1013900049F48091290590912A05019690932A0598
:1013A000809329052091290530912A0540912B052C
:1013B00050912C0580912D0590912E058217930751
:1013C00014F4CA0104C0241735070CF0C901909326
:1013D0002A05809329058230910531F083309105EB
:1013E00049F0019751F403C06BEA72E008C06AE962
:1013F00072E005C06CEB72E002C062EE74E089E856
:1014000092E00E94340362E370E080E090E042E00A
:1014100050E00E942607882309F0ABCF8091290570
:1014200090912A050E94740908950E94B8090895B0
:101430004F925F926F927F928F929F92AF92BF92E4
:10144000CF92DF92FF920F931F93CF93DF934AEBDC
:10145000442E44E0542E35E5632E32E0732E2BECFF
:10146000A22E24E0B22E96E6892E92E0992E83C019
:101470008EE00E949F12EC018FE00E949F126C018F
:101480008AE00E945413182F84E00E945413082FFE
:1014900086E00E945413F82E112319F48EED94E087
:1014A00007C0113019F080EE94E002C08CED94E09A
:1014B0002DB73EB7285030400FB6F8943EBF0FBE50
:1014C0002DBFEDB7FEB73196ADB7BEB712965C92A1
:1014D0004E92119773826282D583C48397838683E9
:1014E0000E948D002DB73EB7285F3F4F0FB6F8948E
:1014F0003EBF0FBE2DBF013019F42EED34E007C002
:10150000002319F020EE34E002C02CED34E041E07D
:10151000F41619F48EED94E007C0FF2019F080EE68
:1015200094E002C08CED94E0ADB7BEB71A970FB649
:10153000F894BEBF0FBEADBFEDB7FEB731961296A1
:10154000BC92AE92119793828282D582C4823783F5
:101550002683918780870E948D002DB73EB7265F36
:101560003F4F0FB6F8943EBF0FBE2DBF8AEB94E0FD
:10157000B5010E94340388EE93E00E94830788231C
:1015800009F076CF0E94B809DF91CF911F910F919A
:10159000FF90DF90CF90BF90AF909F908F907F9003
:1015A0006F905F904F900895FC011382128284E344
:1015B00095E091838083618F178681E084838FEF2C
:1015C000858382E0868383E0878384E0808785E06B
:1015D000818786E082870895FC01818D8F3F29F005
:1015E000CF014A960E94E20D089585898F3F21F42C
:1015F000862F642F0E94C1120895CF93DF93EC01D0
:10160000898D8F3F29F0CE014A960E94B80D2AC0DD
:101610008D898F3F19F1288D413049F481E090E0A8
:1016200002C0880F991F6A95E2F7282B09C081E054
:1016300090E002C0880F991F6A95E2F780952823F1
:10164000288F8F8960E00E9400138E896D8941E0A8
:10165000288D0E94A7138F8961E002C0862F642F16
:101660000E940013DF91CF9108950F931F938C0177
:10167000F801668140E00E94FD0A81E090E00E944E
:101680005A12C801F801668141E00E94FD0A81E01A
:1016900090E00E945A12C801F801668140E00E9461
:1016A000FD0A84E690E00E945A121F910F9108955E
:1016B000CF92DF92EF92FF920F931F93CF93DF931E
:1016C000F82EE92E282F392FC9018C01C0E0D0E077
:1016D000C62EDD248F2D9E2DF801678141E00E94EA
:1016E000EC0AA6010C2E02C0559547950A94E2F724
:1016F00041708F2D9E2DF80167810E94FD0A219671
:101700000F5F1F4FC830D10529F78F2D9E2D0E94E6
:10171000350BDF91CF911F910F91FF90EF90DF90EC
:10172000CF900895AF92BF92CF92DF92EF92FF9247
:101730000F931F93CF93DF937C01B62EFC01818D15
:101740008F3F09F468C08AE1C82ED12CCE0CDF1C73
:10175000C6010E94B40D782FF70140E050E0AB2D98
:10176000B0E001E010E087819D01042E02C03595B4
:1017700027950A94E2F721703070082E02C0220FDC
:10178000331F0A94E2F7C1E0D0E0580102C0AA0C6E
:10179000BB1C8A95E2F7C50180957823722B4F5FB9
:1017A0005F4F319644305105F1F68E01F701068006
:1017B00002C0000F111F0A94E2F700950723C6012B
:1017C000602F0E94860D81E090E00E945A12CE01A7
:1017D000F701068002C0880F991F0A94E2F7082BD0
:1017E000C601602F0E94860D81E090E00E945A128F
:1017F000F701068002C0CC0FDD1F0A94E2F75E01FC
:10180000A0940A21C601602F0E94860D84E690E014
:101810000E945A1221C08701C0E0D0E0C62EDD240C
:10182000C701F801678141E00E94EC0AA6010C2E75
:1018300002C0559547950A94E2F74170C701F80137
:1018400067810E94FD0A21960F5F1F4FC430D105AA
:1018500039F7C7010E94350BDF91CF911F910F918E
:10186000FF90EF90DF90CF90BF90AF9008951F93BF
:10187000CF93DF93EC01162F6C810E94FD0A6D81DE
:101880006F3F21F0CE0140E00E94FD0A8F8584FF6A
:1018900005C0CE01612F0E94580B0EC0612F70E071
:1018A00094E0759567959A95E1F7CE010E94920BA9
:1018B000CE01612F0E94920BDF91CF911F9108956D
:1018C00041E00E94370C81E090E0089540E00E94E2
:1018D000370C0895FC016089862F8460808B6C60D2
:1018E000CF010E94660C0895DF93CF93CDB7DEB78A
:1018F00028970FB6F894DEBF0FBECDBF9C01FE0146
:101900003196A8E3B5E088E00D9001928150E1F7AF
:10191000F9018389841710F4482F4150E42FF0E037
:10192000EE0FFF1FEC0FFD1F8181680F6068C9017A
:101930000E94660C28960FB6F894DEBF0FBECDBF8E
:10194000CF91DF91089561E00E94660C80ED97E0F1
:101950000E945A120895AF92BF92CF92DF92EF92F7
:10196000FF920F931F93CF93DF93EC01B42EA22E1F
:10197000698D6F3F71F17AE1E72EF12CE80EF91EC7
:10198000C7010E940E0EC70167E041E00E94E20D10
:10199000C70167E041E00E94B80D8E0154E0C52EFA
:1019A000D12CCC0EDD1ECE01F801678141E00E94F2
:1019B000EC0A0F5F1F4F0C151D05A9F7C7016C81BD
:1019C00041E00E94E20DC7016E8141E00E94E20DFC
:1019D00005C08D898F3F11F080E8888FF1E0FB15FD
:1019E00018F48F8588608F87BB8A1C8AAA2031F003
:1019F00081E0B81619F48F8584608F8780E593ECB9
:101A00000E945A12CE016C8140E00E94FD0ACE0174
:101A10006E8140E00E94FD0A6D816F3F21F0CE0192
:101A200040E00E94FD0A6F8564FD1DC0CE0163E0A9
:101A30000E94920B84E991E10E945A12CE0163E068
:101A40000E94920B84E991E10E945A12CE0163E058
:101A50000E94920B86E990E00E945A12CE0162E049
:101A60000E94920B16C06062CE010E94660C84E94F
:101A700091E10E945A126F856062CE010E94660C4D
:101A800086E990E00E945A126F856062CE010E9442
:101A9000660C6F856062CE010E94660C84E0888BC4
:101AA000CE010E946A0CCE010E94A30C82E0898BB9
:101AB000CE0166E00E94660CDF91CF911F910F91DD
:101AC000FF90EF90DF90CF90BF90AF900895EF928E
:101AD000FF920F931F93FC01F62EE42E09EB15E005
:101AE00060816062C80170E00E945E0EC8016F2DC7
:101AF0000E94E00EC8016E2D0E94E00EC8010E94F7
:101B0000230F1F910F91FF90EF900895462F69E0EA
:101B10000E94670D0895DF92EF92FF920F931F933B
:101B20007C01D62E09EB15E0FC0160816062C801E2
:101B300070E00E945E0EC8016D2D0E94E00EC8018B
:101B40000E94230FF70160816062C80170E041E0EC
:101B500050E00E94340FC8010E94710E1F910F9136
:101B6000FF90EF90DF90089569E00E948B0D08953B
:101B70000F931F93CF93DF93EC01162F042F683040
:101B8000E0F40E94B40D282F013051F481E090E080
:101B900002C0880F991F1A95E2F7622F682B0AC0BE
:101BA00081E090E002C0880F991F1A95E2F7682F34
:101BB00060956223CE010E94860DDF91CF911F9127
:101BC0000F9108950F931F93CF93DF93EC01162F7E
:101BD000042F6830F0F460E00E948B0D282F002362
:101BE00051F481E090E002C0880F991F1A95E2F746
:101BF000422F482B0AC081E090E002C0880F991F55
:101C00001A95E2F7482F40954223CE0160E00E94EA
:101C1000670DDF91CF911F910F910895CF93DF93BF
:101C2000EC01683008F067E0688389EB95E00E947A
:101C3000380F6881606289EB95E070E00E945E0E6B
:101C400089EB95E060E00E94E00E89EB95E06FEF94
:101C50000E94E00E89EB95E060E00E94E00E89EBC7
:101C600095E060E00E94E00E89EB95E060E00E9464
:101C7000E00E89EB95E060E00E94E00E89EB95E0D4
:101C800060E00E94E00E89EB95E060E00E94E00ECB
:101C900089EB95E060E00E94E00E89EB95E060E062
:101CA0000E94E00E89EB95E060E00E94E00E89EB77
:101CB00095E00E94230FDF91CF91089581E08093FA
:101CC000B805609395051092B6051092B705089572
:101CD0002091940530E080919305281B3109C901BA
:101CE00008954091930580919405481718F02FEFBF
:101CF0003FEF0AC0E42FF0E0ED58FA4F8081282F23
:101D000030E04F5F40939305C9010895E09193053A
:101D100080919405E81718F0EFEFFFEF06C0F0E0B0
:101D2000ED58FA4F8081E82FF0E0CF010895089533
:101D30001092BC051092BB0588EE93E0A0E0B0E0E5
:101D40008093BD059093BE05A093BF05B093C005D9
:101D500084E495E09093BA058093B9050895CF92F5
:101D6000DF92EF92FF920F931F93CF93DF937C014B
:101D70006B018A018091B8058823A1F0C0E0D0E012
:101D80000DC0D701ED91FC91D601AC0FBD1F0190A4
:101D9000F081E02DC7016C9109952196C017D107FC
:101DA00080F304C0CB01642F0E94E10FC801DF91D2
:101DB000CF911F910F91FF90EF90DF90CF900895FA
:101DC000DF93CF930F92CDB7DEB7FC01698380918B
:101DD000B8058823C9F08091B705803238F081E0DA
:101DE00090E09383828320E030E015C08091B605B7
:101DF000E82FF0E0EA56FA4F998190838F5F809345
:101E0000B6058093B70505C0CE01019661E00E943A
:101E1000E10F21E030E0C9010F90CF91DF910895EB
:101E20000F93062F8091950566E975E04091B705FF
:101E300021E00E948C0F1092B6051092B705109207
:101E4000B8050F91089561E00E94100F0895413286
:101E500008F040E2862F63E775E00E94430F10927E
:101E6000930580939405089521E00E94270F08951B
:101E700010929305109294051092B6051092B70532
:101E80000E948D110895382F413210F040E042C079
:101E90008091C5058823E1F791E09093C5052093D3
:101EA000C7058FEF809332061092ED0541504093A5
:101EB000EE054F5F9093C6058091C605330F832BC7
:101EC0008093C6058091C805813041F41092C80501
:101ED0008091C6058093BB0085EC01C085EE8093A0
:101EE000BC008091C5058130E1F38091ED05841738
:101EF00010F44091ED0520E030E00AC0FB01E20F54
:101F0000F31FD901A353BA4F8C9180832F5F3F4FAA
:101F10002417A0F3842F08950F931F93582F122F87
:101F2000413210F081E04AC08091C5058823E1F775
:101F300082E08093C5050093C7058FEF809332063A
:101F40001092ED054093EE05ADECB5E0FB0102C04B
:101F500081918D938E2F861B8417D0F31092C60526
:101F60008091C605550F852B8093C6058091C805C5
:101F7000813041F41092C8058091C6058093BB0062
:101F800085EC01C085EE8093BC00112321F0809187
:101F9000C5058230E1F3809132068F3F11F480E075
:101FA0000DC080913206803211F482E007C080912A
:101FB0003206803311F084E001C083E01F910F915D
:101FC0000895482F613210F081E008958091C50591
:101FD000843011F082E0089560931006AFEEB5E012
:101FE000842F9C01F90102C081918D938E2F841B57
:101FF0008617D0F380E008951F920F920FB60F92CC
:1020000011242F933F934F935F936F937F938F93FD
:102010009F93AF93BF93EF93FF938091B90090E0AC
:10202000887F90708036910509F4F2C08136910561
:10203000CCF58832910509F47BC089329105B4F45E
:102040008031910509F46FC0813191053CF400970E
:1020500009F447C1089709F04FC165C0883191055F
:1020600009F466C0809709F047C182C080349105A9
:1020700009F4A4C08134910544F48033910509F436
:1020800082C0C89709F038C189C08035910509F42C
:1020900089C08835910509F496C08834910509F006
:1020A0002BC1AEC08839910509F413C18939910556
:1020B000ECF48837910509F4ABC0893791054CF4ED
:1020C0008836910509F4A4C08037910509F014C140
:1020D0009FC08838910509F4FCC08039910509F446
:1020E0009DC08038910509F007C198C0803B9105DB
:1020F00009F4C6C0813B91054CF4803A910509F47E
:102100009FC0883A910509F0F7C0BAC0803C91059C
:1021100009F4E3C0883C910509F4DFC0883B9105D0
:1021200009F0EAC0C2C08091C6058093BB00CFC051
:102130009091ED058091EE05981768F49091ED056A
:10214000E92FF0E0E353FA4F80818093BB009F5F5B
:102150009093ED05BCC08091C705882309F44BC05E
:1021600085ED8093BC008091BC0084FDFCCFC2C093
:1021700080E28093320685ED8093BC008091BC00A4
:1021800084FDFCCFB7C080E38093320685ED809359
:10219000BC008091BC0084FDFCCFACC088E3809380
:1021A00032069BC08091ED059091BB00E82FF0E0D6
:1021B000E353FA4F90838F5F8093ED059091ED0587
:1021C0008091EE0582C08091ED059091BB00E82FD3
:1021D000F0E0E353FA4F90838F5F8093ED05809199
:1021E000C705882341F085ED8093BC008091BC0039
:1021F00084FDFCCF7FC081E08093C80584EA6EC077
:1022000085ED8093BC008091BC0084FDFCCF72C042
:1022100083E08093C5051092310659C08091310644
:10222000803208F056C0809131069091BB00E82FB3
:10223000F0E0EF5EF94F90838F5F8093310647C0E7
:1022400080913106803230F4E0913106F0E0EF5EAB
:10225000F94F108285ED8093BC008091BC0084FD15
:10226000FCCF1092C50560913106E091CB05F0914D
:10227000CC0581E196E070E00995109231062DC001
:1022800084E08093C50510920F0610921006E0912D
:10229000C905F091CA05099580911006882329F493
:1022A00081E0809310061092EF0590910F06E92FC0
:1022B000F0E0E151FA4F80818093BB009F5F9093E3
:1022C0000F0690910F0680911006981710F485EC78
:1022D00001C085E88093BC000FC085EC8093BC00F2
:1022E00009C01092320685ED8093BC008091BC003D
:1022F00084FDFCCF1092C505FF91EF91BF91AF9186
:102300009F918F917F916F915F914F913F912F910D
:102310000F900FBE0F901F9018951092C50581E089
:102320008093C7051092C80582E161E00E94001306
:1023300083E161E00E940013E9EBF0E080818E7F91
:10234000808380818D7F808388E48093B80085E4DA
:102350008093BC0008951F920F920FB60F92112424
:102360002F933F938F939F93AF93BF9380913706A3
:1023700090913806A0913906B0913A0630913B060B
:102380000196A11DB11D232F2D5F2D3720F02D5754
:102390000196A11DB11D20933B06809337069093B3
:1023A0003806A0933906B0933A068091330690918F
:1023B0003406A0913506B09136060196A11DB11DD7
:1023C0008093330690933406A0933506B093360677
:1023D000BF91AF919F918F913F912F910F900FBE21
:1023E0000F901F9018958FB7F89420913706309171
:1023F00038064091390650913A068FBFB901CA019B
:1024000008959B01AC017FB7F894809133069091B9
:102410003406A0913506B091360666B5A89B05C076
:102420006F3F19F00196A11DB11D7FBFBA2FA92FD3
:10243000982F8827860F911DA11DB11D62E0880F7E
:10244000991FAA1FBB1F6A95D1F7BC012DC0FFB70A
:10245000F8948091330690913406A0913506B0919E
:102460003606E6B5A89B05C0EF3F19F00196A11D01
:10247000B11DFFBFBA2FA92F982F88278E0F911D4E
:10248000A11DB11DE2E0880F991FAA1FBB1FEA958D
:10249000D1F7861B970B885E9340C8F221503040DD
:1024A0004040504068517C4F211531054105510590
:1024B00071F60895019739F0880F991F880F991FB9
:1024C00002970197F1F70895789484B5826084BDEE
:1024D00084B5816084BD85B5826085BD85B5816028
:1024E00085BDEEE6F0E0808181608083E1E8F0E088
:1024F0001082808182608083808181608083E0E8B7
:10250000F0E0808181608083E1EBF0E08081846095
:102510008083E0EBF0E0808181608083EAE7F0E097
:1025200080818460808380818260808380818160FB
:1025300080838081806880831092C1000895982FE5
:102540008E3008F09E50977080912F058295880FED
:10255000880F807C892B80937C0080917A00806436
:1025600080937A0080917A0086FDFCCF20917800DC
:1025700040917900942F80E030E0282B392BC9015D
:102580000895CF93DF93482F50E0CA0186569F4F9E
:10259000FC0134914A575F4FFA018491882369F115
:1025A00090E0880F991FFC01E859FF4FA591B49165
:1025B000FC01EE58FF4FC591D491662351F42FB71B
:1025C000F8948C91932F909589238C9388818923FB
:1025D0000BC0623061F42FB7F8948C91932F9095D3
:1025E00089238C938881832B88832FBF06C09FB754
:1025F000F8948C91832B8C939FBFDF91CF9108959A
:10260000482F50E0CA0182559F4FFC012491CA0116
:1026100086569F4FFC0194914A575F4FFA013491BF
:10262000332309F440C0222351F1233071F02430C8
:1026300028F42130A1F0223011F514C02630B1F079
:102640002730C1F02430D9F404C0809180008F7706
:1026500003C0809180008F7D8093800010C084B57E
:102660008F7702C084B58F7D84BD09C08091B00092
:102670008F7703C08091B0008F7D8093B000E32FEF
:10268000F0E0EE0FFF1FEE58FF4FA591B4912FB76A
:10269000F894662321F48C919095892302C08C9143
:1026A000892B8C932FBF0895682F70E0CB01825542
:1026B0009F4FFC012491CB0186569F4FFC01449112
:1026C0006A577F4FFB019491992319F420E030E081
:1026D0003CC0222351F1233071F0243028F4213002
:1026E000A1F0223011F514C02630B1F02730C1F02E
:1026F0002430D9F404C0809180008F7703C080918A
:1027000080008F7D8093800010C084B58F7702C0D9
:1027100084B58F7D84BD09C08091B0008F7703C0E0
:102720008091B0008F7D8093B000892F90E0880F5A
:10273000991F84589F4FFC01A591B4918C9120E082
:1027400030E0842311F021E030E0C9010895BF9208
:10275000CF92DF92EF92FF920F931F93CF93DF936D
:10276000E82EF62EB42EC7E0D0E0022F10E087E06E
:10277000C82ED12CBB2059F4B6016C1B7D0BC801AF
:1027800002C0959587956A95E2F7BC0107C0B8012C
:102790000C2E02C0759567950A94E2F761708E2D34
:1027A0000E9400138F2D61E00E9400138F2D60E0C6
:1027B0000E94001321979FEFCF3FD907D9F6DF91F1
:1027C000CF911F910F91FF90EF90DF90CF90BF902E
:1027D0000895CF93DF930E9464120E946303C0E0C8
:1027E000D0E00E94150A2097E1F30E940000F9CF83
:1027F000CF92DF92EF92FF920F931F93CF93DF93CD
:102800007C016B018A01C0E0D0E00FC0D6016D9160
:102810006D01D701ED91FC910190F081E02DC70190
:102820000995C80FD91F015010400115110571F706
:10283000CE01DF91CF911F910F91FF90EF90DF902C
:10284000CF900895CF93DF93EC016115710519F4D2
:1028500020E030E00FC0DB010D900020E9F7119778
:10286000A61BB70BE881F9810280F381E02DAD0151
:1028700009959C01C901DF91CF9108950E9422140E
:1028800008950CD0E6C0DED040F0D5D030F021F471
:102890005F3F19F0C7C0511110C1CAC0EBD098F307
:1028A0009923C9F35523B1F3951B550BBB27AA27D1
:1028B00062177307840738F09F5F5F4F220F331F43
:1028C000441FAA1FA9F333D00E2E3AF0E0E830D00F
:1028D00091505040E695001CCAF729D0FE2F27D012
:1028E000660F771F881FBB1F261737074807AB07E0
:1028F000B0E809F0BB0B802DBF01FF2793585F4F55
:102900002AF09E3F510568F08DC0D7C05F3FECF3C1
:10291000983EDCF3869577956795B795F7959F5F19
:10292000C9F7880F911D9695879597F90895E1E06D
:10293000660F771F881FBB1F621773078407BA07CC
:1029400020F0621B730B840BBA0BEE1F88F7E09527
:10295000089598D088F09F5790F0B92F9927B751D4
:10296000A0F0D1F0660F771F881F991F1AF0BA9553
:10297000C9F712C0B13081F09FD0B1E008959CC07A
:10298000672F782F8827B85F39F0B93FCCF3869549
:1029900077956795B395D9F73EF4909580957095A6
:1029A00061957F4F8F4F9F4F0895E89409C097FB23
:1029B0003EF490958095709561957F4F8F4F9F4F16
:1029C0009923A9F0F92F96E9BB279395F69587955A
:1029D00077956795B795F111F8CFFAF4BB0F11F41D
:1029E00060FF1BC06F5F7F4F8F4F9F4F16C08823C4
:1029F00011F096E911C0772321F09EE8872F762FFA
:102A000005C0662371F096E8862F70E060E02AF03A
:102A10009A95660F771F881FDAF7880F9695879526
:102A200097F9089597F99F6780E870E060E008954E
:102A30009FEF80EC089500240A94161617061806D6
:102A40000906089500240A941216130614060506B2
:102A50000895092E0394000C11F4882352F0BB0F43
:102A600040F4BF2B11F460FF04C06F5F7F4F8F4FA6
:102A70009F4F089557FD9058440F551F59F05F3FE1
:102A800071F04795880F97FB991F61F09F3F79F090
:102A900087950895121613061406551FF2CF469512
:102AA000F1DF08C0161617061806991FF1CF869594
:102AB0007105610508940895E894BB276627772778
:102AC000CB0197F908950BD0C4CFB5DF28F0BADF5A
:102AD00018F0952309F0A6CFABCF1124EECFCADFB3
:102AE000A0F3959FD1F3950F50E0551F629FF00121
:102AF000729FBB27F00DB11D639FAA27F00DB11D7A
:102B0000AA1F649F6627B00DA11D661F829F222702
:102B1000B00DA11D621F739FB00DA11D621F839F89
:102B2000A00D611D221F749F3327A00D611D231F5F
:102B3000849F600D211D822F762F6A2F11249F57AD
:102B400050408AF0E1F088234AF0EE0FFF1FBB1FD0
:102B5000661F771F881F91505040A9F79E3F51056F
:102B600070F060CFAACF5F3FECF3983EDCF3869520
:102B700077956795B795F795E7959F5FC1F7FE2B1A
:102B8000880F911D9695879597F90895AA1BBB1BF1
:102B900051E107C0AA1FBB1FA617B70710F0A61B5D
:102BA000B70B881F991F5A95A9F780959095BC017E
:102BB000CD01089597FB092E07260AD077FD04D092
:102BC000E5DF06D000201AF4709561957F4F0895D7
:102BD000F6F7909581959F4F0895A1E21A2EAA1BB2
:102BE000BB1BFD010DC0AA1FBB1FEE1FFF1FA217BD
:102BF000B307E407F50720F0A21BB30BE40BF50BBA
:102C0000661F771F881F991F1A9469F76095709542
:102C1000809590959B01AC01BD01CF01089597FB74
:102C2000092E05260ED057FD04D0D7DF0AD0001C90
:102C300038F450954095309521953F4F4F4F5F4F59
:102C40000895F6F790958095709561957F4F8F4F19
:102C50009F4F0895EE0FFF1F0590F491E02D09940A
:102C60002F923F924F925F926F927F928F929F929C
:102C7000AF92BF92CF92DF92EF92FF920F931F938A
:102C8000CF93DF93CDB7DEB7CA1BDB0B0FB6F8943B
:102C9000DEBF0FBECDBF09942A88398848885F847B
:102CA0006E847D848C849B84AA84B984C884DF80EC
:102CB000EE80FD800C811B81AA81B981CE0FD11DD0
:102CC0000FB6F894DEBF0FBECDBFED010895F894A6
:022CD000FFCF34
:102CD200322E2051756164202000332E2053696EFC
:102CE20065202000342E2043756269632000312E56
:102CF200204C696E65617200322E20456173652039
:102D02004F75742000332E2045617365496E4F75EF
:102D12007400312E204561736520496E2020004EDB
:102D22006F200059657300202020536C6964656C24
:102D320061707365002056657273696F6E20302E64
:102D4200342E30002020202000202020202020208F
:102D52002020202020202020200050726F677265E2
:102D620073733A2025303264252520200025303423
:102D72006420202020202020202020202000253018
:102D82003464206D696E75746573202020002530CF
:102D92003275207365636F6E6473202020002530C6
:102DA2003464207365636F6E6473202020200025D5
:102DB20073202020202020202020202020200025D9
:102DC2007320202020202020002573202020200096
:102DD2004D6F76656D656E74204469723A202020CD
:102DE200004D6F766520526967687420746F2020E9
:102DF200200073746172742074696D656C61707304
:102E0200653E005374617274696E6720544C2E2EB5
:102E12002E20200053656C20746F2063616E636501
:102E22006C20202000583A2534642053656C3A25E2
:102E3200732020202000593A253464204D3A25730E
:102E420020453A25732020004D6178204C656E3A6A
:102E52002530356C642020200053656C6563742036
:102E62004D6F64653A2020202000312E54696D6533
:102E72006C61707365202020203E00322E436F6DFE
:102E82006D616E646572202020203E00332E446501
:102E920062756720202020202020203E003E3E3EFA
:102EA2002054696D656C6170736520202000486F45
:102EB2006C642053656C20746F2065786974004ED1
:102EC200756D626572206F662053686F74733A0085
:102ED20000000000000000000000000000000000F0
:102EE20000544C204475726174696F6E3A20202040
:102EF20020000000000000000000000000000000B0
:102F020000000041766720496E74657276616C3A02
:102F1200202020000000000000000000000000004F
:102F220000000000004C6F6E676573742053687573
:102F3200747465723A000000000000000000000096
:102F420000000000000000536C6565702062747719
:102F52002073686F747320000000000000000000FE
:102F6200000000000000000000456173696E6720E8
:102F720066756E6374696F6E3A00000000000000AF
:102F82000000000000000000000000456173696E4F
:102F9200672043757276653A202020000000000009
:102FA200000000000000000000000000004D6F76ED
:102FB200656D656E74204469723A202020004D6F61
:102FC200746F72202D2D2D2D2D3E20456E640045EF
:102FD2006E64202D2D2D2D2D3E204D6F746F7200AD
:102FE20054696D656C6170736520446F6E65202055
:102FF20000486F6C642053656C20746F206578699B
:1030020074003E3E3E20436F6D6D616E64657220BA
:10301200202000486F6C642053656C20746F20651B
:10302200786974002020436F6D6D616E64204D6F6E
:1030320064652020004D6F746F72203C2D2D2D2D64
:103042003E20456E6400456E64203C2D2D2D2D3EA4
:10305200204D6F746F7200526576657273696E6788
:1030620020446972203C3E003E3E3E20446562752B
:1030720067204D6F6465202000486F6C64205365A3
:103082006C20746F206578697400000000000000F5
:10309200000000000000000000000000000000002E
:1030A2000000000000000000000000004F0050007F
:1030B20058003E3E3E204552524F522020202020B2
:1030C20020200052657475726E696E6720486F6DBC
:1030D20065202000010A0114000F270500E803649F
:1030E20000307501780000003C00000080510100B2
:1030F20001010401010301000201000100030001BA
:1031020000000000600CF81300004000140054009E
:1031120000000000E00EAF0E680E710E860E970ED4
:00000001FF
