:100000000C9472000C949A000C949A000C949A0030
:100010000C949A000C949A000C949A000C949A00F8
:100020000C949A000C949A000C949A000C949A00E8
:100030000C949A000C949A000C949A000C949A00D8
:100040000C949F230C949A000C949A000C949A00A0
:100050000C949A000C949A000C949A000C949A00B8
:100060000C94F0210C949A0005A84CCDB2D44EB952
:100070003836A9020C50B9918688083CA6AAAA2A4B
:10008000BE000000803F00000000240027002A007E
:1000900000000000250028002B00000000002300C5
:1000A00026002900040404040404040402020202D9
:1000B000020203030303030301020408102040802B
:1000C00001020408102001020408102000000007AB
:1000D0000002010000030406000000000000000010
:1000E0008A058C2011241FBECFEFD8E0DEBFCDBF24
:1000F00016E0A0E0B1E0E6E4F3E502C005900D9261
:10010000A437B107D9F717E0A4E7B6E001C01D9204
:10011000A136B107E1F710E0C4EED0E004C02297A9
:10012000FE010E946629C03ED107C9F70E94DD2565
:100130000C94A1290C940000AEE0B0E0E2EAF0E0FB
:100140000C9478290D891E8986E08C831A83098393
:100150008FEF9FE79E838D839E01275E3F4FCE01E9
:1001600001966F89788DA9010E94C0002F81388582
:10017000020F131FF80110822E96E4E00C949429CC
:10018000ABE0B0E0E6ECF0E00C946A293C012B0116
:100190005A01FC0117821682838181FD03C06FEF33
:1001A0007FEFC6C19AE0892E1E010894211C311CE4
:1001B000F3012381F20123FD859123FF81912F011A
:1001C000882309F4B2C1853239F423FD859123FFD8
:1001D00081912F01853229F490E0B3010E94B3028E
:1001E000E7CF982FFF24EE249924FFE1FF15D0F0EC
:1001F0009B3269F09C3228F4903259F0933291F49A
:100200000EC09D3249F0903369F441E024C052E0C1
:10021000F52A84E0F82A28C098E0F92A25C0E0E110
:10022000FE2A22C0F7FC29C0892F80538A3070F43F
:10023000F6FE05C0989C902C1124980E15C0E89CE1
:10024000E02C1124E80EF0E2FF2A0EC09E3229F4C1
:10025000F6FC6BC140E4F42A07C09C3619F450E860
:10026000F52A02C0983649F4F20123FD959123FF47
:1002700091912F01992309F0B8CF892F85548330AC
:1002800018F08052833038F444E050E0A40EB51EDC
:100290005FE359830FC0933631F0933779F093358C
:1002A00009F056C020C0F5018081898342E050E00A
:1002B000A40EB51E610101E010E012C0F501C0807E
:1002C000D180F6FC03C06FEF7FEF02C0692D70E0B4
:1002D00042E050E0A40EB51EC6010E94A8028C01A7
:1002E0005FE7F52214C0F501C080D180F6FC03C0A1
:1002F0006FEF7FEF02C0692D70E042E050E0A40E86
:10030000B51EC6010E949D028C0150E8F52AF3FE3D
:1003100007C01AC080E290E0B3010E94B302EA94E1
:100320008E2D90E008171907A8F30EC0F601F7FC10
:100330008591F7FE81916F0190E0B3010E94B302B5
:10034000E110EA94015010400115110579F7EAC057
:10035000943611F0993669F5F7FE08C0F501208151
:1003600031814281538184E090E00AC0F5018081AF
:1003700091819C01442737FD4095542F82E090E005
:10038000A80EB91E9FE6F92257FF09C05095409567
:10039000309521953F4F4F4F5F4FE0E8FE2ACA014D
:1003A000B901A1012AE030E00E94DF02D82ED21864
:1003B00040C0953729F41F2D1F7E2AE030E01DC074
:1003C0001F2D197F9F3661F0903720F4983509F082
:1003D000ACC00FC0903739F0983709F0A6C004C000
:1003E00028E030E00AC0106114FD146020E130E024
:1003F00004C014FD166020E132E017FF08C0F501CB
:10040000608171818281938144E050E008C0F501F0
:1004100080819181BC0180E090E042E050E0A40E38
:10042000B51EA1010E94DF02D82ED2188FE7F82E48
:10043000F122F6FE0BC05EEFF522D91438F4F4FE7B
:1004400007C0F2FC05C08FEEF82202C01D2D01C0CE
:10045000192DF4FE0DC0FE01ED0DF11D80818033DC
:1004600019F499EEF92208C01F5FF2FE05C003C01F
:100470008F2D867809F01F5F0F2DF3FC14C0F0FE5E
:100480000FC01E1510F09D2C0BC09D2C9E0C911AB8
:100490001E2D06C080E290E0B3010E94B3021F5FF0
:1004A0001E15C0F304C01E1510F4E11A01C0EE249D
:1004B00004FF0FC080E390E0B3010E94B30202FF8B
:1004C0001DC001FD03C088E790E00EC088E590E004
:1004D0000BC0802F867891F001FF02C08BE201C033
:1004E00080E2F7FC8DE290E0B3010E94B30206C007
:1004F00080E390E0B3010E94B3029A94D914C0F350
:10050000DA94F101ED0DF11D808190E0B3010E94BC
:10051000B302DD20A9F706C080E290E0B3010E949B
:10052000B302EA94EE20C1F743CEF30166817781EE
:10053000CB012B96E2E10C948629FC0105906150D9
:1005400070400110D8F7809590958E0F9F1F0895E9
:10055000FC016150704001900110D8F78095909592
:100560008E0F9F1F08950F931F93CF93DF938C01DE
:10057000EB018B8181FF1BC082FF0DC02E813F816B
:100580008C819D812817390764F4E881F9810193F2
:10059000F983E88306C0E885F985802F0995892BC2
:1005A00031F48E819F8101969F838E8302C00FEF6D
:1005B0001FEFC801DF91CF911F910F910895FA01AC
:1005C000AA27283051F1203181F1E8946F936E7F92
:1005D0006E5F7F4F8F4F9F4FAF4FB1E03ED0B4E083
:1005E0003CD0670F781F891F9A1FA11D680F791FC4
:1005F0008A1F911DA11D6A0F711D811D911DA11DD5
:1006000020D009F468943F912AE0269F11243019E4
:10061000305D3193DEF6CF010895462F4770405D7F
:100620004193B3E00FD0C9F7F6CF462F4F70405D2E
:100630004A3318F0495D31FD4052419302D0A9F789
:10064000EACFB4E0A6959795879577956795BA9583
:10065000C9F700976105710508959B01AC010A2E49
:1006600006945795479537952795BA95C9F7620F20
:10067000731F841F951FA01D08950895CF92DF92C8
:10068000EF92FF920F931F936C01CB01BA01F60119
:1006900026813781408551850E94A1267B018C01EE
:1006A000F60122813381448155810E946828A80186
:1006B00097010E946828A80197010E9468281F914D
:1006C0000F91FF90EF90DF90CF900895CF92DF923F
:1006D000EF92FF920F931F936C01CB01BA01F601C9
:1006E00026813781408551850E94A12620E030E097
:1006F00040E85FE30E9435267B018C01A801970149
:100700000E946828A80197010E94682820E030E034
:1007100040E85FE30E943626F6012281338144815E
:1007200055810E9468281F910F91FF90EF90DF90F4
:10073000CF900895AF92BF92CF92DF92EF92FF9247
:100740000F931F93CF93DF93EC017A018B016E819E
:100750007F818885998520E030E040E05FE30E945A
:1007600068289B01AC01C801B7010E94A1267B014A
:100770008C0120E030E040E85FE30E949A26882365
:10078000ACF46A817B818C819D8120E030E040E087
:100790005FE30E946828A80197010E946828A801C9
:1007A00097010E946828A80197012AC0C801B701D3
:1007B00020E030E040E050E40E9435267B018C01CF
:1007C0006A817B818C819D8120E030E040E05FE3A5
:1007D0000E9468285B016C01C801B701A80197015C
:1007E0000E946828A80197010E94682820E030E054
:1007F00040E050E40E9436269B01AC01C601B501E1
:100800000E946828E62F2E2F372F482F592FB90125
:10081000CA01DF91CF911F910F91FF90EF90DF9070
:10082000CF90BF90AF900895FC018AE396E091834A
:10083000808380E090E0A0E0B0E082839383A48393
:10084000B5830895FC0146835783608771870895B7
:10085000FC0142835383648375830895CF92DF92B2
:10086000EF92FF920F931F936C01CB01BA01F60137
:1008700026813781408551850E94A1267B018C010C
:10088000F60122813381448155810E946828A801A4
:1008900097010E9468281F910F91FF90EF90DF90C1
:1008A000CF900895AF92BF92CF92DF92EF92FF92D6
:1008B0000F931F936C01CB01BA01F601268137819A
:1008C000408551850E94A1267B018C01F601628141
:1008D0007381848195819058A80197010E946828AE
:1008E0005B016C01C801B70120E030E040E050E45A
:1008F0000E9435269B01AC01C601B5010E94682803
:100900001F910F91FF90EF90DF90CF90BF90AF902D
:100910000895AF92BF92CF92DF92EF92FF920F9322
:100920001F93CF93DF93EC017A018B016E817F815E
:100930008885998520E030E040E05FE30E946828E8
:100940009B01AC01C801B7010E94A1267B018C016B
:1009500020E030E040E85FE30E949A2688238CF490
:100960006A817B818C819D8120E030E040E05FE303
:100970000E946828A80197010E946828A801970191
:100980002EC0C801B70120E030E040E85FE30E94DC
:1009900035267B018C016A817B818C819D8120E0E1
:1009A00030E040E05FEB0E9468285B016C01C80109
:1009B000B70120E030E040E050E40E9435269B0182
:1009C000AC01C801B7010E94682820E030E040E88F
:1009D0005FE30E9435269B01AC01C601B5010E9470
:1009E0006828E62F2E2F372F482F592FB901CA011B
:1009F000DF91CF911F910F91FF90EF90DF90CF90FB
:100A0000BF90AF900895AF92BF92CF92DF92EF92D6
:100A1000FF920F931F936C01CB01BA012BED3FE0C6
:100A200049E450E40E946828F60126813781408518
:100A300051850E94A1260E949E267B018C01F60111
:100A4000628173818481958120E030E040E05FEB3A
:100A50000E9468285B016C01C801B70120E030E00A
:100A600040E85FE30E9435269B01AC01C601B50159
:100A70000E9468281F910F91FF90EF90DF90CF9018
:100A8000BF90AF900895EF92FF920F931F93FC01D8
:100A9000E280F38004811581CB01BA012681378180
:100AA000408551850E94A1262BED3FE049EC5FE394
:100AB0000E9468280E949E269B01AC01C801B701D4
:100AC00090580E946828A80197010E9436261F911D
:100AD0000F91FF90EF9008950F931F938C01CB011E
:100AE000BA01F80126813781408551850E94A126EF
:100AF0002BED3FE049EC5FE30E9468280E94CB2881
:100B0000F80122813381448155810E9468281F9118
:100B10000F91089584E796E060E00E94BB1C089561
:100B200089E061E00E94F4240895CF92DF92EF9271
:100B3000FF920F931F938C016B0184E7E82E86E0F0
:100B4000F82EC70160E040E00E945B1EC701B801BB
:100B50000E943226C70160E041E00E945B1EC7018F
:100B6000B6010E9432261F910F91FF90EF90DF9007
:100B7000CF90089587E061E00E94F4246CE474E073
:100B800080E090E00E94F52387E060E00E94F4247A
:100B9000089587E061E00E94F42466E970E080E057
:100BA00090E00E94F52387E060E00E94F42408951D
:100BB00089E060E00E94F42465E070E080E090E06D
:100BC0000E94F52308950F931F9382E061E00E9435
:100BD000B52483E061E00E94B52489E061E00E94D1
:100BE000B52489E061E00E94F42487E061E00E947E
:100BF000B52404E716E0C80160E142E020E00E946D
:100C00009F1EC8016FE871E00E943226C80160E0B3
:100C100041E00E945B1EC8016DE971E00E9432262E
:100C200068EB7BE080E090E00E94F523C8010E9421
:100C30008A1E6091D90587E996E070E00E94A81CA1
:100C40008093DA058AE062E00E94B52484E060E0E7
:100C50000E94B52486E060E00E94B5240E94D80579
:100C60001F910F91089581E00E94932408950E949E
:100C7000330620E0C2970CF421E0822F08950E94F1
:100C8000330620E0895E93400CF021E0822F089526
:100C900080E00E94932408950E94480620E0C297B5
:100CA0000CF421E0822F08950E94480620E0895E1E
:100CB00093400CF021E0822F0895CF93DF93EC0155
:100CC00080E00E9493248955924084F0BE018827D9
:100CD00077FD8095982F0E94F52380E00E94932451
:100CE000895592400CF442C022E041C080E00E944D
:100CF00093248059914084F4BE01882777FD809524
:100D0000982F0E94F52380E00E94932420E08059D0
:100D100091406CF521E02BC081E00E94932489551D
:100D200092407CF0BE01882777FD8095982F0E9425
:100D3000F52381E00E94932489559240BCF023E082
:100D400016C081E00E949324805991407CF4BE013A
:100D5000882777FD8095982F0E94F52381E00E94D7
:100D600093248059914014F424E001C020E0822FA4
:100D7000DF91CF9108958AE00E94482520E0892BD9
:100D800009F421E0822F0895AF92BF92CF92DF92B3
:100D9000EF92FF920F931F937A0100D000D000D002
:100DA000CDB6DEB60894C11CD11C2AE1A22E23E0E8
:100DB000B22EEDB7FEB7B282A18222EC31E0F6018D
:100DC0003383228324E630E040E050E00E94E128B3
:100DD0000027F7FC0095102FA80197010E942729F2
:100DE000F601358324830E949C008DB79EB706963A
:100DF0000FB6F8949EBF0FBE8DBF80E994E0B50199
:100E00000E9495051F910F91FF90EF90DF90CF907A
:100E1000BF90AF900895EF92FF920F931F937B01C5
:100E20008C019A01CA010197029710F480E006C074
:100E3000235030402230310538F481E00E94932461
:100E40009093240680932306809123069091240694
:100E5000825C91408536910560F180919306909176
:100E60009406A0919506B09196060097A105B1054C
:100E7000A9F00E94E723E0E02091930630919406C8
:100E80004091950650919606621B730B840B950B4F
:100E9000E616F70608071907A8F013C00E94E72313
:100EA00060939306709394068093950690939606AC
:100EB00008C0109293061092940610929506109214
:100EC0009606E1E08E2F1F910F91FF90EF9008950D
:100ED000CF93DF93EC018AE00E944825882389F5AF
:100EE00080918F0690919006A0919106B091920604
:100EF0000097A105B105D1F00E94E723E0E0209121
:100F00008F06309190064091910650919206621B97
:100F1000730B840B950B9E01442737FD4095542F8E
:100F20002617370748075907A8F013C00E94E72380
:100F300060938F067093900680939106909392062B
:100F400008C010928F06109290061092910610928F
:100F50009206E1E08E2FDF91CF9108954F925F923C
:100F60006F927F928F929F92AF92BF92CF92DF92B9
:100F7000FF920F931F93CF93DF936AE3462E65E0B2
:100F8000562E55ED652E51E0752E4BE4A42E45E00E
:100F9000B42E36EE832E31E0932E83C08EE00E9475
:100FA0009324EC018FE00E9493246C018AE00E945C
:100FB0004825182F84E00E944825082F86E00E94CB
:100FC0004825F82E112319F48EE595E007C011305D
:100FD00019F080E695E002C08CE595E02DB73EB7AC
:100FE000285030400FB6F8943EBF0FBE2DBFEDB76E
:100FF000FEB73196ADB7BEB712965C924E9211977E
:1010000073826282D583C483978386830E949C0007
:101010002DB73EB7285F3F4F0FB6F8943EBF0FBEC7
:101020002DBF013019F42EE535E007C0002319F07B
:1010300020E635E002C02CE535E041E0F41619F475
:101040008EE595E007C0FF2019F080E695E002C02C
:101050008CE595E0ADB7BEB71A970FB6F894BEBF52
:101060000FBEADBFEDB7FEB731961296BC92AE92F1
:10107000119793828282D582C48237832683918797
:1010800080870E949C002DB73EB7265F3F4F0FB66A
:10109000F8943EBF0FBE2DBF8AE395E0B5010E94D4
:1010A000950588EE93E00E946807882309F076CFC3
:1010B000DF91CF911F910F91FF90DF90CF90BF9064
:1010C000AF909F908F907F906F905F904F9008951A
:1010D000CF92DF92EF92FF920F931F93CF93DF9304
:1010E000D090DA058D2D90E08130910519F48EE7CE
:1010F00091E005C08230910511F481E791E02DB7B0
:101100003EB7285030400FB6F8943EBF0FBE2DBFFB
:10111000EDB7FEB731960AE113E0ADB7BEB7129650
:101120001C930E93119778EFE72E71E0F72EF38260
:10113000E282958384838DE891E0978386830E9481
:101140009C002DB73EB7285F3F4F0FB6F8943EBFC7
:101150000FBE2DBF88E195E0B8010E949505C02E15
:10116000012F1E2DEF2C74C00E943F06882329F406
:101170000E943706882309F46BC066E970E080E0BE
:1011800090E00E94F5230E943F06882379F0D394D3
:101190004D2D50E0433051051CF041E050E005C0BA
:1011A0004115510511F442E050E0D42E0E9437065B
:1011B000882379F0DA944D2D50E0433051051CF02E
:1011C00041E050E005C04115510511F442E050E006
:1011D000D42E2D2D30E02130310519F4CEE7D1E0A9
:1011E00005C02230310511F4C1E7D1E08091DA0564
:1011F00090E02817390719F08BE891E002C08DE8DC
:1012000091E0ADB7BEB718970FB6F894BEBF0FBE4A
:10121000ADBFEDB7FEB731961196CC9211971296ED
:101220000C931283E382D583C483978386830E94C1
:101230009C002DB73EB7285F3F4F0FB6F8943EBFD6
:101240000FBE2DBF88E195E06C2D702F0E94950593
:1012500088EE93E00E946807882309F085CF80918B
:10126000DA05D81651F0D092DA056091D90587E9F0
:1012700096E070E04D2D0E94AF1CDF91CF911F9141
:101280000F91FF90EF90DF90CF900895AF92BF92B3
:10129000CF92DF92EF92FF920F931F935A016B014F
:1012A00060E0181619060CF461E082E00E94F42454
:1012B000C601B50120E030E543EC57E40E94A126C9
:1012C0009B01AC0160E070E080E89FE30E94A126F2
:1012D00020E030E04CE852E40E9468281CC083E023
:1012E00061E00E94F424C601B5010E940E277B0133
:1012F0008C01CB010E944E2483E060E00E94F42424
:10130000C7010E944E24C601B50120E030E040E84C
:101310005FE30E9436265B016C0120E030E84BEB76
:1013200054E40E949A2687FDDACF1F910F91FF9017
:10133000EF90DF90CF90BF90AF9008956F927F9223
:101340008F929F92AF92BF92CF92DF92EF92FF92D5
:101350000F931F935A016B0160E0181619060CF4E5
:1013600061E082E00E94F424C601B50120E030E58E
:1013700043EC57E40E94A1269B01AC0160E070E0C1
:1013800080E89FE30E94A12620E030E04CE852E490
:101390000E9468283B014C010F2EF0E0AF2EF0E8D0
:1013A000BF2EFBEBCF2EF4E4DF2EF02D1EC083E02A
:1013B00061E00E94F424C601B5010E940E277B0162
:1013C0008C01CB010E944E2483E060E00E94F42453
:1013D000C7010E944E24C601B50120E030E040E87C
:1013E0005FE30E9435265B016C01C601B501A401D3
:1013F00093010E9464281816D4F21F910F91FF9058
:10140000EF90DF90CF90BF90AF909F908F907F90A4
:101410006F9008958F929F92AF92BF92CF92DF927A
:10142000EF92FF920F931F93CF93DF937A018B017B
:101430004C0197FF04C088249924881A990A60E017
:10144000181619060CF461E082E00E94F424C80129
:10145000B70120E030E543EC57E40E94A1269B0150
:10146000AC0160E070E080E89FE30E94A12620E0EC
:1014700030E04CE852E40E9468285B016C01C0E057
:10148000D0E015C083E061E00E94F424C601B501FC
:101490000E940E277B018C01CB010E944E2483E029
:1014A00060E00E94F424C7010E944E242196C815D2
:1014B000D90544F3DF91CF911F910F91FF90EF90E9
:1014C000DF90CF90BF90AF909F908F900895AF9294
:1014D000BF92CF92DF92EF92FF920F931F93CF9321
:1014E000DF936C0197FF04C0CC24DD24C81AD90A0D
:1014F00060E0181619060CF461E082E00E94F42402
:1015000088E2C816D10420F0A4E1EA2EF12C03C031
:101510007601F594E79400E010E0C8E8D3E112C04A
:1015200083E061E00E94F424CE010E944E2483E017
:1015300060E00E94F424CE010E944E24C456D040A4
:101540000F5F1F4F0E151F0558F38701000F111F66
:101550005601A01AB10AC0E0D0E011C083E061E0FA
:101560000E94F42488EB9BE00E944E2483E060E01C
:101570000E94F42488EB9BE00E944E242196CA1519
:10158000DB0564F3C016D10628F4E0FE03C008941E
:10159000E11CF11C00E010E0C8EBDBE012C083E0CE
:1015A00061E00E94F424CE010E944E2483E060E0BA
:1015B0000E94F424CE010E944E24CC59DF4F0F5FCD
:1015C0001F4F0E151F0558F3DF91CF911F910F91FB
:1015D000FF90EF90DF90CF90BF90AF9008958F92E3
:1015E0009F92AF92BF92CF92DF92EF92FF920F93B2
:1015F0001F93CF93DF93E62E4C0197FF04C08824FE
:101600009924881A990A60E0181619060CF461E00A
:1016100082E00E94F4246E2D70E080E090E00E9451
:101620003A2720E030E048EC52E40E94A1269B01DA
:10163000AC0160E070E080E89FE30E94A12620E01A
:1016400030E04CE852E40E9468285B016C01C0E085
:10165000D0E015C083E061E00E94F424C601B5012A
:101660000E940E277B018C01CB010E944E2483E057
:1016700060E00E94F424C7010E944E242196C81500
:10168000D90544F3DF91CF911F910F91FF90EF9017
:10169000DF90CF90BF90AF909F908F900895CF92A2
:1016A000DF92EF92FF920F931F93CF93DF9383EC20
:1016B00094E064ED74E00E9495058091DA05823033
:1016C00019F402E010E0ADC001E010E0AAC080E033
:1016D0000E949324EC0181E00E9493248F5F934049
:1016E000C1F564EF71E080E090E00E94F52381E0B5
:1016F0000E9493248F5F934061F50F5F1F4FC801D5
:101700008170907000FF11C083EC94E066EF74E08C
:101710000E94950568EE73E080E090E00E94F5235A
:1017200083EC94E064ED74E012C0892B91F483ECB7
:1017300094E066EF74E00E94950568EE73E080E047
:1017400090E00E94F52383EC94E065EE74E00E9443
:10175000950582E0CC30D80744F1C80181709070C3
:1017600000FF10C086E00E944825019709F460C080
:10177000CB50D240CE9DC001CF9D900DDE9D900DEF
:10178000112446C0892B09F053C084E00E944825EB
:10179000019709F44DC0CB50D240CE9DC001CF9DE2
:1017A000900DDE9D900D11241AC021E0C43FD20798
:1017B0000CF03EC0C8018170907000FF17C084E03B
:1017C0000E9448250197A1F1C6018C1B9D0B9C012D
:1017D0002E9DC0012F9D900D3E9D900D112464EF14
:1017E00071E00E9414298FEF9FEF18C0892B01F53B
:1017F00086E00E9448250197D9F0C6018C1B9D0BFD
:101800009C012E9DC0012F9D900D3E9D900D112499
:1018100064EF71E00E94142981E090E00E94EF0AD9
:1018200007C084EFC82E81E0D82EB9E1EB2EF12C51
:1018300088EE93E00E946807882309F048CFDF9183
:10184000CF911F910F91FF90EF90DF90CF9008956F
:101850002F923F924F925F926F927F928F929F92C0
:10186000AF92BF92CF92DF92EF92FF920F931F93AE
:10187000DF93CF93CDB7DEB7E9970FB6F894DEBF0D
:101880000FBECDBF8AA77CA76BA76091180670E03A
:10189000882777FD8095982F0E943C277B018C013B
:1018A0006091190670E0882777FD8095982F0E9437
:1018B0003C279B01AC01C801B7010E94352620E0FE
:1018C00030E04AE754E40E9468287B018C016DA750
:1018D000FEA60FA718AB2E010894411C511CC20193
:1018E0000E94140484E496E09A8389832BA53CA586
:1018F000B901882777FD8095982F0E943C274B01DE
:101900005C01C201B501A4010E942204C201A70129
:10191000B8010E9428043BE0632E712C6C0E7D1EE2
:10192000C3010E9414048EE496E09C878B87C30158
:10193000B501A4010E942204C301A701B8010E94BD
:10194000280425E1C22ED12CCC0EDD1EC6010E943A
:10195000140480E396E09E8B8D8BC601B501A40133
:101960000E942204C601A701B8010E9428048BA589
:101970009CA598A38F8F8091DE059091DF05845CF4
:1019800099406BA57CA50E940029CB01A0E0B0E0A6
:101990008EA39FA3A8A7B9A76091180670E080E066
:1019A00090E00E943A2720E030E04AE754E40E94A9
:1019B00068284B015C016091190670E080E090E0BE
:1019C0000E943A2720E030E04AE754E40E94682869
:1019D00069A37AA38BA39CA30E94BA0568EB7BE062
:1019E00080E090E00E94F5231DA291E0292E312C89
:1019F0004DAA5EAA6FAA78AEC9AECD2C8EA19FA1CA
:101A0000A8A5B9A5B095A095909581959F4FAF4F8A
:101A1000BF4F89AB9AABABABBCAB54C180911C063A
:101A20008230B1F0833020F4813009F0F5C007C076
:101A3000833009F459C0843009F0EEC0A1C02DA54F
:101A40003EA54FA558A9C901DA014C015D01E4C0CA
:101A500080911F068330D1F0843030F4813051F012
:101A6000823009F0D9C00CC08430F1F0853009F023
:101A7000D3C02AC0B101882777FD8095982F1BC05D
:101A8000B101882777FD8095982F25C0B10188275F
:101A900077FD8095982F0E943C27AB01BC018DA952
:101AA0009EA90E948904B6C0AF8DB8A1BD01882748
:101AB00077FD8095982F0E943C27AB01BC018DA932
:101AC0009EA90E942E04A6C02F8D38A1B901882797
:101AD00077FD8095982F0E943C27AB01BC018DA912
:101AE0009EA90E94520496C080911F068330D1F0B7
:101AF000843030F4813051F0823009F08DC00CC058
:101B00008430F1F0853009F087C02AC0B101882700
:101B100077FD8095982F1BC0B101882777FD8095B0
:101B2000982F25C0B101882777FD8095982F0E94B6
:101B30003C27AB01BC018FA998AD0E9403056AC088
:101B4000AF8DB8A1BD01882777FD8095982F0E94A1
:101B50003C27AB01BC018FA998AD0E9443055AC038
:101B60002F8D38A1B901882777FD8095982F0E9485
:101B70003C27AB01BC018FA998AD0E946C054AC0FF
:101B800080911F068330C9F0843030F4813049F0F1
:101B9000823009F041C00BC08430E9F08530E1F5B6
:101BA0002AC0B101882777FD8095982F1BC0B1010D
:101BB000882777FD8095982F25C0B101882777FD6C
:101BC0008095982F0E943C27AB01BC0189AD9C2DCC
:101BD0000E949A031FC0AF8DB8A1BD01882777FD71
:101BE0008095982F0E943C27AB01BC0189AD9C2DAC
:101BF0000E943E030FC02F8D38A1B901882777FDC1
:101C00008095982F0E943C27AB01BC0189AD9C2D8B
:101C10000E9466034B015C013AA5323028F44EA0C5
:101C20005FA068A479A404C049A85AA86BA87CA89E
:101C30008091DA05823041F470946094509440941D
:101C4000411C511C611C711C81E02816310469F48F
:101C5000C501B40129A13AA14BA15CA10E9436267D
:101C6000AB01BC01C2010E949E09C501B40129A1BA
:101C70003AA14BA15CA10E9436267B018C01C201D6
:101C8000A701B8010E940A0AABA5BCA52A163B060B
:101C900029F4C201A701B8010E9446090E94BB06AF
:101CA000882311F41DA205C0BDA1BF5FBDA3B5303F
:101CB00078F40894211C311C2F8D38A1215030401C
:101CC00038A32F8F8BA59CA5821593050CF0A6CE6B
:101CD00068EB7BE080E090E00E94F5230E94BA056B
:101CE0000E94D805E9960FB6F894DEBF0FBECDBFAF
:101CF000CF91DF911F910F91FF90EF90DF90CF90E8
:101D0000BF90AF909F908F907F906F905F904F901B
:101D10003F902F900895609116067091170680915C
:101D200022060E94280C81E08093130688EC95E03F
:101D300069E073E00E94950508950F931F93633047
:101D4000710509F4C5C06430710544F46130710552
:101D500091F06230710509F05BC15EC065307105BC
:101D600009F447C1653071050CF414C16630710582
:101D700009F04EC145C120911806181619064CF4F9
:101D80004B3051051CF481E090E010C08AE090E0F7
:101D90000DC0892B19F480E090E008C04B3051054C
:101DA0001CF48FEF9FEF02C086EF9FEF280F30E00B
:101DB00080911B06682F70E080911A06482F50E032
:101DC0004217530714F4AB0104C0261737070CF071
:101DD000A9014093180600D000D000D0EDB7FEB79F
:101DE00031960AE113E0ADB7BEB712961C930E937D
:101DF000119780E092E093838283448315820E944E
:101E00009C008DB79EB706960FB6F8949EBF0FBE86
:101E10008DBF85E995E0BCC020911C0618161906F7
:101E20001CF481E090E007C0892B19F08FEF9FEF41
:101E300002C080E090E0281B30E080911D06482F12
:101E400050E080911E0690E08217930714F4CA01B7
:101E500004C0241735070CF0C901282F80931C06F5
:101E6000823069F0833018F4813089F405C0833002
:101E700049F0843061F409C02EE131E008C020E06F
:101E800031E005C02AE031E002C024E131E000D0B9
:101E900000D000D0EDB7FEB731960AE113E0ADB740
:101EA000BEB712961C930E93119783E192E0938331
:101EB0008283358324830E949C008DB79EB706964B
:101EC0000FB6F8949EBF0FBE8DBF86EA95E060C046
:101ED00020911F06181619061CF481E090E007C037
:101EE000892B19F08FEF9FEF02C080E090E0281B54
:101EF00030E080912006482F50E08091210690E04C
:101F00008217930714F4CA0104C0241735070CF094
:101F1000C901282F80931F06833091F0843028F464
:101F2000813041F08230A1F408C0843061F0853006
:101F300079F40CC02CE531E00BC028E231E008C098
:101F400025E331E005C022E431E002C02FE431E0B6
:101F500000D000D000D0EDB7FEB731960AE113E013
:101F6000ADB7BEB712961C930E9311978DE192E018
:101F700093838283358324830E949C008DB79EB710
:101F800006960FB6F8949EBF0FBE8DBF87EB95E007
:101F9000B80133C040912206181619061CF421E03E
:101FA00030E007C0892B19F02FEF3FEF02C020E08F
:101FB00030E0420F242F30E0233031051CF021E0C7
:101FC00030E005C02115310511F422E030E0209306
:101FD0002206213049F484E796E00E948A1E84E2BA
:101FE00092E06EE674E009C08DE594E06FE774E07E
:101FF00004C085E392E066E472E00E94950508C0A3
:1020000087E592E068E672E00E9495050E948B0EDB
:102010001F910F910895CF93DF936091130680E095
:1020200090E070E040E050E00E949D0E40C00E94B1
:102030005406882329F40E944C06882309F45EC0C4
:1020400066E970E080E090E00E94F52321960E940E
:102050004C06882339F080911306282F30E0215058
:1020600030400BC00E945406882309F43FC0809181
:102070001306282F30E02F5F3F4F80911506482F21
:1020800050E080911406682F70E06217730714F413
:10209000BA0104C0241735070CF0B9016093130688
:1020A00080E090E01FC00E943706882319F4C0E04A
:1020B000D0E01CC066E970E080E090E00E94F5236B
:1020C00021960E943706882329F0609113068FEF2E
:1020D0009FEF08C00E943F06882341F060911306DD
:1020E00081E090E070E0AE010E949D0E88EE93E0EA
:1020F0000E946807882309F09ACF05C00E943F0616
:102100008823C1F6D0CFDF91CF9108952F923F92CF
:102110004F925F926F927F928F929F92AF92BF92F7
:10212000CF92DF92EF92FF920F931F93DF93CF93A3
:10213000CDB7DEB7C455D0400FB6F894DEBF0FBEA2
:10214000CDBF63968FAF639765967FAF6EAF659790
:10215000CA01B90128EE33E040E050E00E94E128D6
:1021600062966CAF7DAF8EAF9FAF62978E010F5FAF
:102170001F4FC8010E94140464E4E62E66E0F62EA8
:10218000FA82E98265962EAD3FAD6597B901882741
:1021900077FD8095982F0E943C274B015C01C80178
:1021A000B501A4010E9422046091DE057091DF0553
:1021B00080E090E00E943A27AB01BC01C8010E9478
:1021C00028048E01055F1F4FC8010E9414045EE4BD
:1021D000452E56E0552E5C864B86C801B501A401FC
:1021E0000E9422046091DE057091DF0580E090E09E
:1021F0000E943A27AB01BC01C8010E9428048E014D
:102200000B5E1F4FC8010E94140440E3642E46E099
:10221000742E7E8A6D8AC801B501A4010E94220431
:102220006091DE057091DF0580E090E00E943A2722
:10223000AB01BC01C8010E9428048E01015E1F4F42
:10224000C8010E941404F8A2EF8EC801B501A401D0
:102250000E94220462966CAD7DAD8EAD9FAD6297FB
:102260000E943A276B017C01C801B701A6010E94B8
:1022700028048E01075D1F4FC8010E9414045AA64E
:1022800049A6C801B501A4010E942204C801B701F2
:10229000A6010E9428048E010D5C1F4FC8010E94F8
:1022A00014047CAA6BAAC801B501A4010E942204EF
:1022B000C801B701A6010E9428048091DE05909113
:1022C000DF0565966EAD7FAD65970E940029CB0155
:1022D000A0E0B0E02E968CAF9DAFAEAFBFAF2E9713
:1022E0006091F4057091F5058091F6059091F705E0
:1022F00028EE33E040E050E00E94E1280E94F52300
:102300008091F905823029F484E796E060E00E942C
:10231000921E6596AEADBFAD65979D01442737FD12
:102320004095542F62966CAD7DAD8EAD9FAD62979A
:102330000E942729C901DA014C015D0165962EAC86
:102340003FAC65972EEF3FEF220E331E22961FAE55
:1023500022976624772481E090E0A0E0B0E06AC490
:1023600065964EAC5FAC6597ADADBEAD4A1A5B0AE3
:102370000E94E7232A966CAF7DAF8EAF9FAF2A975E
:1023800021966CAD7DAD8EAD9FAD219765964EAD1E
:102390005FAD65970E94C4060E94C9056091E6057D
:1023A0007091E70580E090E00E94F5238091060699
:1023B000833009F49AC0843009F42BC1823009F0CB
:1023C000C6C1809109068330C9F1843030F4813070
:1023D00059F0823009F0BBC11CC0843009F44BC0F5
:1023E000853009F0B4C164C0B601882777FD8095B7
:1023F000982F0E943C27AB01BC01CE0101960E94A0
:102400002E047B018C01B301882777FD8095982FDE
:1024100046C0B601882777FD8095982F0E943C27FB
:10242000AB01BC01CE0101960E9452047B018C01DC
:10243000B301882777FD8095982F4EC0B601882775
:1024400077FD8095982F0E943C27AB01BC01CE01FF
:1024500001960E9489047B018C01B301882777FDD6
:102460008095982F0E943C27AB01BC01CE010196BC
:102470000E94890444C1B201882777FD8095982F76
:102480000E943C27AB01BC01CE0101960E942E04A4
:102490007B018C01B101882777FD8095982F0E94E0
:1024A0003C27AB01BC01CE0101960E942E0427C13E
:1024B000B201882777FD8095982F0E943C27AB01B9
:1024C000BC01CE0101960E9452047B018C01B10136
:1024D000882777FD8095982F0E943C27AB01BC018F
:1024E000CE0101960E9452040AC1809109068330F0
:1024F000C9F1843030F4813059F0823009F027C1BD
:102500001CC0843009F44BC0853009F020C164C080
:10251000B601882777FD8095982F0E943C27AB0154
:10252000BC01CE010B960E9443057B018C01B301D7
:10253000882777FD8095982F46C0B601882777FDBC
:102540008095982F0E943C27AB01BC01CE010B96D1
:102550000E946C057B018C01B301882777FD809573
:10256000982F4EC0B601882777FD8095982F0E943E
:102570003C27AB01BC01CE010B960E9403057B01F9
:102580008C01B301882777FD8095982F0E943C2706
:10259000AB01BC01CE010B960E940305B0C0B20195
:1025A000882777FD8095982F0E943C27AB01BC01BE
:1025B000CE010B960E9443057B018C01B101882757
:1025C00077FD8095982F0E943C27AB01BC01CE017E
:1025D0000B960E94430593C0B201882777FD809532
:1025E000982F0E943C27AB01BC01CE010B960E94A4
:1025F0006C057B018C01B101882777FD8095982FB0
:102600000E943C27AB01BC01CE010B960E946C05D9
:1026100076C0809109068330C9F1843030F481306E
:1026200059F0823009F093C01CC0843009F44BC0CB
:10263000853009F08CC06EC0B601882777FD809583
:10264000982F0E943C27AB01BC01CE0145960E9409
:102650003E037B018C01B301882777FD8095982F7D
:1026600046C0B601882777FD8095982F0E943C27A9
:10267000AB01BC01CE0145960E9466037B018C0133
:10268000B301882777FD8095982F58C0B601882719
:1026900077FD8095982F0E943C27AB01BC01CE01AD
:1026A00045960E949A037B018C01B301882777FD30
:1026B0008095982F0E943C27AB01BC01CE01459626
:1026C0000E949A031CC0B201882777FD8095982F3D
:1026D0000E943C27AB01BC01CE0145960E943E03FF
:1026E0007B018C01B101882777FD8095982F0E948E
:1026F0003C27AB01BC01CE0145960E943E039B01E5
:10270000AC01C801B7010E9435260E9409277B0150
:102710008C0123C0B201882777FD8095982F0E94F5
:102720003C27AB01BC01CE0145960E9466037B01AC
:102730008C01B101882777FD8095982F0E943C2756
:10274000AB01BC01CE0145960E946603D8CF2E9600
:10275000ECACFDAC0EAD1FAD2E976396BFAD63978D
:10276000B23040F010950095F094E094E11CF11C1B
:10277000011D111D8091DA05823041F410950095FC
:10278000F094E094E11CF11C011D111D8091F805ED
:10279000813011F40E94D805C7010E94670A809118
:1027A000F805813011F40E9490050E94BB06882331
:1027B00021F422961FAE22970AC022962FAD2297AF
:1027C0002F5F22962FAF2297233008F043C20E943A
:1027D000E723DC01CB012A962CAD3DAD4EAD5FADBC
:1027E0002A97821B930BA40BB50B26968CAF9DAF3B
:1027F000AEAFBFAF269780910C06833009F4A7C017
:10280000843009F445C1823009F0ECC180910F0693
:10281000833009F449C0843030F4813059F082307B
:1028200009F0E0C124C0843009F45BC0853009F0B0
:10283000D9C172C0B601882777FD8095982F0E9474
:102840003C27AB01BC01CE014F960E942E047B01B8
:102850008C01B301882777FD8095982F0E943C2733
:10286000AB01BC01CE014F960E942E045EC1B601A1
:10287000882777FD8095982F0E943C27AB01BC01EB
:10288000CE014F960E9452047B018C01B301882730
:1028900077FD8095982F0E943C27AB01BC01CE01AB
:1028A0004F960E94520441C1B601882777FD80955A
:1028B000982F0E943C27AB01BC01CE014F960E948D
:1028C00089047B018C01B301882777FD8095982FBF
:1028D0000E943C27AB01BC01CE014F960E948904A7
:1028E00024C1B201882777FD8095982F0E943C274C
:1028F000AB01BC01CE014F960E942E04B101882786
:1029000077FD8095982F0E943C27AB01BC01CE013A
:1029100001960E942E0466C1B201882777FD80953A
:10292000982F0E943C27AB01BC01CE014F960E941C
:102930005204B101882777FD8095982F0E943C278B
:10294000AB01BC01CE0101960E9452044BC18091A3
:102950000F06833009F449C0843030F4813059F0D7
:10296000823009F03FC124C0843009F45BC0853057
:1029700009F038C172C0B601882777FD8095982F7D
:102980000E943C27AB01BC01CE0189960E94430501
:102990007B018C01B301882777FD8095982F0E94D9
:1029A0003C27AB01BC01CE0189960E944305BDC006
:1029B000B601882777FD8095982F0E943C27AB01B0
:1029C000BC01CE0189960E946C057B018C01B3018C
:1029D000882777FD8095982F0E943C27AB01BC018A
:1029E000CE0189960E946C05A0C0B601882777FDAC
:1029F0008095982F0E943C27AB01BC01CE0189969F
:102A00000E9403057B018C01B301882777FD809527
:102A1000982F0E943C27AB01BC01CE0189960E94F1
:102A2000030583C0B201882777FD8095982F0E9407
:102A30003C27AB01BC01CE0189960E944305B10140
:102A4000882777FD8095982F0E943C27AB01BC0119
:102A5000CE0189960E944305C5C0B201882777FD43
:102A60008095982F0E943C27AB01BC01CE0189962E
:102A70000E946C05B101882777FD8095982F0E94F0
:102A80003C27AB01BC01CE0189960E946C05AAC00F
:102A900080910F06833009F453C0843030F48130C4
:102AA00059F0823009F09EC024C0843009F465C01A
:102AB000853009F097C07CC0B601882777FD8095E6
:102AC000982F0E943C27AB01BC01CE01C3960E9407
:102AD0003E037B018C01B301882777FD8095982FF9
:102AE0000E943C27AB01BC01CE01C3960E943E036D
:102AF0001CC0B601882777FD8095982F0E943C273F
:102B0000AB01BC01CE01C3960E9466037B018C0120
:102B1000B301882777FD8095982F0E943C27AB0151
:102B2000BC01CE01C3960E9466039B01AC01C801A3
:102B3000B7010E9435260E940E274B015C0152C04E
:102B4000B601882777FD8095982F0E943C27AB011E
:102B5000BC01CE01C3960E949A037B018C01B30194
:102B6000882777FD8095982F0E943C27AB01BC01F8
:102B7000CE01C3960E949A03D8CFB201882777FD71
:102B80008095982F0E943C27AB01BC01CE01C396D3
:102B90000E943E03B101882777FD8095982F0E94FF
:102BA0003C27AB01BC01CE01C3960E943E031AC074
:102BB000B201882777FD8095982F0E943C27AB01B2
:102BC000BC01CE01C3960E946603B101882777FD40
:102BD0008095982F0E943C27AB01BC01CE01C39683
:102BE0000E94660326968CAD9DADAEADBFAD269717
:102BF00088159905AA05BB0570F4C501B401269690
:102C00002CAD3DAD4EAD5FAD2697621B730B840BB3
:102C1000950B0E94F5230894611C711C08942108EF
:102C2000310821968CAD9DADAEADBFAD219701961B
:102C3000A11DB11D21968CAF9DAFAEAFBFAF219747
:102C4000CDACDEAC6596AEADBFAD6597AC15BD0540
:102C50000CF086CBCC5ADF4F0FB6F894DEBF0FBE18
:102C6000CDBFCF91DF911F910F91FF90EF90DF903B
:102C7000CF90BF90AF909F908F907F906F905F901C
:102C80004F903F902F9008956091E0057091E1057D
:102C90002091FA053091FB054091FC055091FD050E
:102CA000809112060E94861081E08093DB0581EA04
:102CB00094E069E073E00E9495050895EF92FF9219
:102CC0000F931F936730710509F4DCC268307105FA
:102CD000C4F46330710509F40BC16430710544F428
:102CE0006130710559F16230710509F0CEC47BC0C5
:102CF0006530710509F4A2C1663071050CF078C227
:102D00003AC16B30710509F420C46C3071054CF484
:102D10006930710509F45CC36A3071050CF0B9C300
:102D2000FBC26D30710509F4A1C46D3071050CF45E
:102D30006EC46E30710509F0A8C49FC42091E005EF
:102D40003091E105181619064CF44B3051051CF46E
:102D500081E090E010C08AE090E00DC0892B19F46A
:102D600080E090E008C04B3051051CF48FEF9FEFDE
:102D700002C086EF9FEF820F931F4091E4055091B0
:102D8000E5052091E2053091E3052817390714F491
:102D90009A0104C0841795070CF09C013093E1055B
:102DA0002093E00500D000D000D0EDB7FEB73196FB
:102DB0000AE113E0ADB7BEB712961C930E931197BC
:102DC00089E792E093838283358324830E949C0069
:102DD000EDB7FEB736960FB6F894FEBF0FBEEDBF47
:102DE00082EA93E012C4E090FA05F090FB050091AE
:102DF000FC051091FD05181619064CF44B305105D1
:102E00001CF421E030E010C02AE030E00DC0892B36
:102E100019F420E030E008C04B3051051CF42FEFCE
:102E20003FEF02C026EF3FEF8CE390E0AC01249F20
:102E3000C001259F900D349F900D11249C014427C3
:102E400037FD4095542F2E0D3F1D401F511F80917F
:102E5000FE059091FF05E0910206F0910306E2174E
:102E6000F30714F4FC0104C0281739070CF0F9012A
:102E7000BF01882777FD8095982F6093FA0570939E
:102E8000FB058093FC059093FD05ADB7BEB7189781
:102E90000FB6F894BEBF0FBEADBF0DB71EB70F5F24
:102EA0001F4FEAE1EE2EE3E0FE2E1296FC92EE9228
:102EB00011972AE832E0F801338322832CE330E0D3
:102EC00040E050E00E944929D80114962D933D938B
:102ED0004D935C9317970E949C00EDB7FEB7389610
:102EE0000FB6F894FEBF0FBEEDBF83EB93E041C079
:102EF0002DB73EB7285030400FB6F8943EBF0FBEF6
:102F00002DBF0DB71EB70F5F1F4F7AE1E72E73E09D
:102F1000F72EADB7BEB71296FC92EE9211978AE9E2
:102F200092E0F801938382832091E0053091E105DE
:102F3000442737FD4095542F6091FA057091FB05A9
:102F40008091FC059091FD050E944929D8011496B5
:102F50002D933D934D935C9317970E949C00EDB782
:102F6000FEB738960FB6F894FEBF0FBEEDBF84ECE7
:102F700093E0B7017FC36091E6057091E7051816ED
:102F800019064CF44B3051051CF421E030E010C020
:102F90002AE030E00DC0892B19F420E030E008C0B1
:102FA0004B3051051CF42FEF3FEF02C026EF3FEFEF
:102FB00088EE93E0289FA001299F500D389F500D67
:102FC0001124460F571F8091E8059091E905209143
:102FD000EA053091EB052417350714F49C0104C071
:102FE000481759070CF09A012093E6053093E7053E
:102FF00000D000D000D0EDB7FEB731960AE113E063
:10300000ADB7BEB712961C930E9311978BEA92E060
:1030100093838283C90168EE73E00E94002975835F
:1030200064830E949C00EDB7FEB736960FB6F89405
:10303000FEBF0FBEEDBF86EE93E0E7C2E090F40561
:10304000F090F5050091F6051091F705FCE3EF16F9
:10305000F10401051105F8F4181619064CF44B306B
:1030600051051CF421E030E010C02AE030E00DC032
:10307000892B19F420E030E008C04B3051051CF4D6
:103080002FEF3FEF02C026EF3FEFC901AA2797FDC0
:10309000A095BA2F27C0181619064CF44B305105CD
:1030A0001CF421E030E010C02AE030E00DC0892B94
:1030B00019F420E030E008C04B3051051CF42FEF2C
:1030C0003FEF02C026EF3FEF8CE390E0AC01249F7E
:1030D000C001259F900D349F900D1124AA2797FDC4
:1030E000A095BA2F8E0D9F1DA01FB11F8093F405D0
:1030F0009093F505A093F605B093F7052091F4059C
:103100003091F5054091EC055091ED058091F00569
:103110009091F1058217930714F4CA0104C0241793
:1031200035070CF0C9019C01442737FD4095542F09
:103130002093F4053093F5054093F6055093F70579
:103140008AE193E02C33310541055105D8F46DB780
:103150007EB7685070400FB6F8947EBF0FBE6DBF4B
:10316000EDB7FEB73196ADB7BEB712969C938E936E
:1031700011978BEB92E0938382832483358346837C
:10318000578327C06DB77EB7685070400FB6F8946C
:103190007EBF0FBE6DBF0DB71EB70F5F1F4FADB720
:1031A000BEB712969C938E93119789EC92E0F8012A
:1031B00093838283CA01B9012CE330E040E050E000
:1031C0000E942729D80114962D933D934D935C932B
:1031D00017970E949C00EDB7FEB738960FB6F8948B
:1031E000FEBF0FBEEDBF85ED93E06AE173E042C222
:1031F0002091F805181619061CF481E090E007C02C
:10320000892B19F08FEF9FEF02C080E090E0280F2C
:10321000822F90E0833091051CF081E090E004C0A3
:10322000009711F482E090E0282F8093F805813018
:1032300019F0823031F403C02DE631E002C029E6F6
:1032400031E000D000D000D0EDB7FEB731960AE1F2
:1032500013E0ADB7BEB712961C930E93119787ED8E
:1032600092E093838283358324830E949C00EDB790
:10327000FEB736960FB6F894FEBF0FBEEDBF87EFD0
:1032800093E0C3C12091F905181619061CF481E0DA
:1032900090E007C0892B19F08FEF9FEF02C080E00C
:1032A00090E0280F822F90E0833091051CF081E0A0
:1032B00090E004C0009711F482E090E0282F809302
:1032C000F905813019F0823031F403C02DE631E088
:1032D00002C029E631E000D000D000D0EDB7FEB743
:1032E00031960AE113E0ADB7BEB712961C930E9368
:1032F000119787ED92E093838283358324830E9424
:103300009C00EDB7FEB736960FB6F894FEBF0FBE21
:10331000EDBF88E094E079C12091060618161906E1
:103320001CF481E090E007C0892B19F08FEF9FEF2C
:1033300002C080E090E0281B30E080910706482F13
:1033400050E08091080690E08217930714F4CA01B8
:1033500004C0241735070CF0C901282F80930606F6
:10336000823069F0833018F4813089F405C08330ED
:1033700049F0843061F409C02EE131E008C020E05A
:1033800031E005C02AE031E002C024E131E000D0A4
:1033900000D000D0EDB7FEB731960AE113E0ADB72B
:1033A000BEB712961C930E93119783E192E093831C
:1033B0008283358324830E949C00EDB7FEB7369646
:1033C0000FB6F894FEBF0FBEEDBF89E194E01DC1BA
:1033D00020910906181619061CF481E090E007C038
:1033E000892B19F08FEF9FEF02C080E090E0281B3F
:1033F00030E080910A06482F50E080910B0690E063
:103400008217930714F4CA0104C0241735070CF07F
:10341000C901282F80930906833091F0843028F465
:10342000813041F08230A1F408C0843061F08530F1
:1034300079F40CC02CE531E00BC028E231E008C083
:1034400025E331E005C022E431E002C02FE431E0A1
:1034500000D000D000D0EDB7FEB731960AE113E0FE
:10346000ADB7BEB712961C930E9311978DE192E003
:1034700093838283358324830E949C00EDB7FEB73B
:1034800036960FB6F894FEBF0FBEEDBF8AE294E009
:10349000BCC020910C06181619061CF481E090E0BF
:1034A00007C0892B19F08FEF9FEF02C080E090E0FA
:1034B000281B30E080910D06482F50E080910E06C9
:1034C00090E08217930714F4CA0104C0241735074B
:1034D0000CF0C901282F80930C06823069F08330EC
:1034E00018F4813089F405C0833049F0843061F4E8
:1034F00009C02EE131E008C020E031E005C02AE03B
:1035000031E002C024E131E000D000D000D0EDB7BE
:10351000FEB731960AE113E0ADB7BEB712961C9321
:103520000E93119783E192E0938382833583248302
:103530000E949C00EDB7FEB736960FB6F894FEBF1A
:103540000FBEEDBF8BE394E060C020910F0618160C
:1035500019061CF481E090E007C0892B19F08FEF69
:103560009FEF02C080E090E0281B30E080911006C1
:10357000482F50E08091110690E08217930714F4D1
:10358000CA0104C0241735070CF0C901282F809305
:103590000F06833091F0843028F4813041F082307E
:1035A000A1F408C0843061F0853079F40CC02CE5BA
:1035B00031E00BC028E231E008C025E331E005C06E
:1035C00022E431E002C02FE431E000D000D000D08E
:1035D000EDB7FEB731960AE113E0ADB7BEB712966C
:1035E0001C930E9311978DE192E093838283358330
:1035F00024830E949C00EDB7FEB736960FB6F89470
:10360000FEBF0FBEEDBF8CE494E0B80133C0409123
:103610001206181619061CF421E030E007C0892BA9
:1036200019F02FEF3FEF02C020E030E0420F242FCF
:1036300030E0233031051CF021E030E005C02115D9
:10364000310511F422E030E020931206213049F4D4
:1036500084E796E00E948A1E84E292E06EE674E0BF
:1036600009C08DE594E06FE774E004C085E392E063
:1036700067EE72E00E94950508C088EF92E068E668
:1036800072E00E9495050E9444161F910F91FF90D1
:10369000EF900895CF93DF936091DB0580E090E099
:1036A00070E040E050E00E945E1640C00E94540668
:1036B000882329F40E944C06882309F467C066E930
:1036C00070E080E090E00E94F52321960E944C0675
:1036D000882339F08091DB05282F30E021503040DD
:1036E0000BC00E945406882309F43FC08091DB057B
:1036F000282F30E02F5F3F4F8091DD05482F50E0AD
:103700008091DC05682F70E06217730714F4BA012A
:1037100004C0241735070CF0B9016093DB0580E085
:1037200090E01FC00E943706882319F4C0E0D0E063
:103730001CC066E970E080E090E00E94F5232196CD
:103740000E943706882329F06091DB058FEF9FEFF9
:1037500008C00E943F06882341F06091DB0581E0AC
:1037600090E070E0AE010E945E1688EE93E00E9449
:103770006807882309F09ACF84E796E061E00E9409
:10378000921E0E94D805DF91CF9108950E943F06B6
:10379000882379F6C7CF8330910579F1843091057C
:1037A0003CF48130910559F0029709F053C016C0DE
:1037B0008430910589F1059709F04CC03CC081E93E
:1037C00093E069E073E00E9495056AEF70E080E0A5
:1037D00090E00E94F5230E944A1B089584E895E03A
:1037E00069E073E00E9495056AEF70E080E090E088
:1037F0000E94F5230E940B10089582EB94E069E08B
:1038000073E00E9495056AEF70E080E090E00E940E
:10381000F5230E944F0B089587E095E069E073E07F
:103820000E9495056AEF70E080E090E00E94F52329
:103830000E946808089589E295E069E073E00E94BB
:1038400095056AEF70E080E090E00E94F5230E9409
:10385000AE07089582E695E063E775E00E9495055E
:103860006AEF70E080E090E00E94F5230E94391C2E
:10387000089559C082E390E00E945D0690E0833095
:10388000910531F48091250690912606019707C095
:10389000049749F48091250690912606019690930D
:1038A0002606809325062091250630912606409114
:1038B0002706509128068091290690912A068217A2
:1038C000930714F4CA0104C0241735070CF0C9018A
:1038D000909326068093250683309105A9F08430C5
:1038E000910534F48130910561F00297B1F406C07E
:1038F0008430910561F0059781F40CC06DE473E0AC
:103900000EC06CE373E00BC06EE573E008C06FE6B9
:1039100073E005C060E873E002C062E675E08BE228
:1039200093E00E94950562E370E080E090E042E061
:1039300050E00E940B07882309F09CCF8091250658
:10394000909126060E94CB1B08950E94391C089571
:10395000F999FECF72BD61BDF89A80B50895F999C5
:10396000FECF1FBA72BD61BD40BD0FB6F894FA9A82
:10397000F99A0FBE0895FC011382128288E596E041
:1039800091838083618F178681E084838FEF8583A5
:1039900082E0868383E0878384E0808785E0818777
:1039A00086E082870895FC01818D8F3F29F0CF0149
:1039B0004A960E94D61F089585898F3F21F4862F4D
:1039C000642F0E94B5240895CF93DF93EC01898D75
:1039D0008F3F29F0CE014A960E94AC1F2AC08D89E4
:1039E0008F3F19F1288D413049F481E090E002C009
:1039F000880F991F6A95E2F7282B09C081E090E0B3
:103A000002C0880F991F6A95E2F780952823288FB6
:103A10008F8960E00E94F4248E896D8941E0288DB1
:103A20000E949B258F8961E002C0862F642F0E942F
:103A3000F424DF91CF9108950F931F938C01F80127
:103A4000668140E00E94E41C81E090E00E944E24E8
:103A5000C801F801668141E00E94E41C81E090E029
:103A60000E944E24C801F801668140E00E94E41CD7
:103A700084E690E00E944E241F910F910895CF920A
:103A8000DF92EF92FF920F931F93CF93DF93F82E65
:103A9000E92E282F392FC9018C01C0E0D0E0C62EB5
:103AA000DD248F2D9E2DF801678141E00E94D31CFB
:103AB000A6010C2E02C0559547950A94E2F7417075
:103AC0008F2D9E2DF80167810E94E41C21960F5FC7
:103AD0001F4FC830D10529F78F2D9E2D0E941C1D28
:103AE000DF91CF911F910F91FF90EF90DF90CF90DA
:103AF0000895AF92BF92CF92DF92EF92FF920F9311
:103B00001F93CF93DF937C01B62EFC01818D8F3FF5
:103B100009F468C08AE1C82ED12CCE0CDF1CC60186
:103B20000E94A81F782FF70140E050E0AB2DB0E0D5
:103B300001E010E087819D01042E02C03595279594
:103B40000A94E2F721703070082E02C0220F331F52
:103B50000A94E2F7C1E0D0E0580102C0AA0CBB1CF5
:103B60008A95E2F7C50180957823722B4F5F5F4FEE
:103B7000319644305105F1F68E01F701068002C0FE
:103B8000000F111F0A94E2F700950723C601602F6A
:103B90000E947A1F81E090E00E944E24CE01F7013E
:103BA000068002C0880F991F0A94E2F7082BC6010D
:103BB000602F0E947A1F81E090E00E944E24F7015E
:103BC000068002C0CC0FDD1F0A94E2F75E01A094CC
:103BD0000A21C601602F0E947A1F84E690E00E94AD
:103BE0004E2421C08701C0E0D0E0C62EDD24C701ED
:103BF000F801678141E00E94D31CA6010C2E02C08F
:103C0000559547950A94E2F74170C701F80167811D
:103C10000E94E41C21960F5F1F4FC430D10539F775
:103C2000C7010E941C1DDF91CF911F910F91FF9042
:103C3000EF90DF90CF90BF90AF9008951F93CF93F8
:103C4000DF93EC01162F6C810E94E41C6D816F3FA5
:103C500021F0CE0140E00E94E41C8F8584FF05C066
:103C6000CE01612F0E943F1D0EC0612F70E094E0D5
:103C7000759567959A95E1F7CE010E94791DCE0161
:103C8000612F0E94791DDF91CF911F91089541E02E
:103C90000E941E1E81E090E0089540E00E941E1EDA
:103CA0000895FC016089862F8460808B6C60CF0151
:103CB0000E944D1E0895DF93CF93CDB7DEB72897AE
:103CC0000FB6F894DEBF0FBECDBF9C01FE0131964A
:103CD000ACE5B6E088E00D9001928150E1F7F90182
:103CE0008389841710F4482F4150E42FF0E0EE0F41
:103CF000FF1FEC0FFD1F8181680F6068C9010E94E2
:103D00004D1E28960FB6F894DEBF0FBECDBFCF91E3
:103D1000DF91089561E00E944D1E80ED97E00E94C2
:103D20004E240895FC01462F818D8F3F19F485891B
:103D30008F3F21F0CF0167E00E94E41C0895AF920D
:103D4000BF92CF92DF92EF92FF920F931F93CF9388
:103D5000DF93EC01B42EA22E698D6F3F71F17AE1F1
:103D6000E72EF12CE80EF91EC7010E940220C701C0
:103D700067E041E00E94D61FC70167E041E00E9472
:103D8000AC1F8E0154E0C52ED12CCC0EDD1ECE0111
:103D9000F801678141E00E94D31C0F5F1F4F0C1593
:103DA0001D05A9F7C7016C8141E00E94D61FC7011C
:103DB0006E8141E00E94D61F05C08D898F3F11F0B2
:103DC00080E8888FF1E0FB1518F48F8588608F8775
:103DD000BB8A1C8AAA2031F081E0B81619F48F85BD
:103DE00084608F8780E593EC0E944E24CE016C8125
:103DF00040E00E94E41CCE016E8140E00E94E41C81
:103E00006D816F3F21F0CE0140E00E94E41C6F8580
:103E100064FD1DC0CE0163E00E94791D84E991E13B
:103E20000E944E24CE0163E00E94791D84E991E155
:103E30000E944E24CE0163E00E94791D86E990E045
:103E40000E944E24CE0162E00E94791D16C060627D
:103E5000CE010E944D1E84E991E10E944E246F859F
:103E60006062CE010E944D1E86E990E00E944E24C1
:103E70006F856062CE010E944D1E6F856062CE012B
:103E80000E944D1E84E0888BCE010E94511ECE01FF
:103E90000E948A1E82E0898BCE0166E00E944D1E40
:103EA000DF91CF911F910F91FF90EF90DF90CF9016
:103EB000BF90AF900895EF92FF920F931F93FC0174
:103EC000F62EE42E0EED16E060816062C80170E00F
:103ED0000E945220C8016F2D0E94D420C8016E2D6F
:103EE0000E94D420C8010E9417211F910F91FF90BA
:103EF000EF900895462F69E00E945B1F0895DF92BE
:103F0000EF92FF920F931F937C01D62E0EED16E0D9
:103F1000FC0160816062C80170E00E945220C8010B
:103F20006D2D0E94D420C8010E941721F7016081E5
:103F30006062C80170E041E050E00E942821C801A1
:103F40000E9465201F910F91FF90EF90DF900895E0
:103F500069E00E947F1F08950F931F93CF93DF9313
:103F6000EC01162F042F6830E0F40E94A81F282FC0
:103F7000013051F481E090E002C0880F991F1A953A
:103F8000E2F7622F682B0AC081E090E002C0880F40
:103F9000991F1A95E2F7682F60956223CE010E945F
:103FA0007A1FDF91CF911F910F9108950F931F9367
:103FB000CF93DF93EC01162F042F6830F0F460E00C
:103FC0000E947F1F282F002351F481E090E002C05F
:103FD000880F991F1A95E2F7422F482B0AC081E0FB
:103FE00090E002C0880F991F1A95E2F7482F40957C
:103FF0004223CE0160E00E945B1FDF91CF911F91B1
:104000000F910895CF93DF93EC01683008F067E0DB
:1040100068838EED96E00E942C21688160628EEDAF
:1040200096E070E00E9452208EED96E060E00E94E3
:10403000D4208EED96E06FEF0E94D4208EED96E0B6
:1040400060E00E94D4208EED96E060E00E94D420D3
:104050008EED96E060E00E94D4208EED96E060E068
:104060000E94D4208EED96E060E00E94D4208EED78
:1040700096E060E00E94D4208EED96E060E00E9421
:10408000D4208EED96E060E00E94D4208EED96E084
:1040900060E00E94D4208EED96E00E941721DF910F
:1040A000CF91089581E08093DD066093BA06109267
:1040B000DB061092DC0608952091B90630E080916D
:1040C000B806281B3109C90108954091B8068091AE
:1040D000B906481718F02FEF3FEF0AC0E42FF0E0C1
:1040E000E856F94F8081282F30E04F5F4093B806A3
:1040F000C9010895E091B8068091B906E81718F053
:10410000EFEFFFEF06C0F0E0E856F94F8081E82FAF
:10411000F0E0CF01089508951092E1061092E006B4
:1041200088EE93E0A0E0B0E08093E2069093E3068F
:10413000A093E406B093E50688E696E09093DF0648
:104140008093DE060895CF92DF92EF92FF920F9355
:104150001F93CF93DF937C016B018A018091DD0671
:104160008823A1F0C0E0D0E00DC0D701ED91FC9113
:10417000D601AC0FBD1F0190F081E02DC7016C91FD
:1041800009952196C017D10780F304C0CB01642F95
:104190000E94D521C801DF91CF911F910F91FF900F
:1041A000EF90DF90CF900895DF93CF930F92CDB72C
:1041B000DEB7FC0169838091DD068823C9F0809118
:1041C000DC06803238F081E090E09383828320E047
:1041D00030E015C08091DB06E82FF0E0E554F94FA0
:1041E000998190838F5F8093DB068093DC0605C006
:1041F000CE01019661E00E94D52121E030E0C901A5
:104200000F90CF91DF9108950F93062F8091BA06FA
:104210006BEB76E04091DC0621E00E948021109259
:10422000DB061092DC061092DD060F91089561E026
:104230000E9404210895413208F040E2862F68E987
:1042400076E00E9437211092B8068093B90608954F
:1042500021E00E941B2108951092B8061092B90621
:104260001092DB061092DC060E9481230895382FFD
:10427000413210F040E042C08091EA068823E1F725
:1042800091E09093EA062093EC068FEF8093570716
:10429000109212074150409313074F5F9093EB0623
:1042A0008091EB06330F832B8093EB068091ED0614
:1042B000813041F41092ED068091EB068093BB00B3
:1042C00085EC01C085EE8093BC008091EA068130C8
:1042D000E1F380911207841710F44091120720E057
:1042E00030E00AC0FB01E20FF31FD901AE50B94F15
:1042F0008C9180832F5F3F4F2417A0F3842F089564
:104300000F931F93582F122F413210F081E04AC0B3
:104310008091EA068823E1F782E08093EA06009321
:10432000EC068FEF80935707109212074093130704
:10433000A2EFB6E0FB0102C081918D938E2F861B08
:104340008417D0F31092EB068091EB06550F852B66
:104350008093EB068091ED06813041F41092ED06DA
:104360008091EB068093BB0085EC01C085EE8093C5
:10437000BC00112321F08091EA068230E1F38091A4
:1043800057078F3F11F480E00DC0809157078032AE
:1043900011F482E007C080915707803311F084E068
:1043A00001C083E01F910F910895482F613210F0F2
:1043B00081E008958091EA06843011F082E008954A
:1043C00060933507A4E1B7E0842F9C01F90102C096
:1043D00081918D938E2F841B8617D0F380E00895F2
:1043E0001F920F920FB60F9211242F933F934F936A
:1043F0005F936F937F938F939F93AF93BF93EF934D
:10440000FF938091B90090E0887F9070803691058D
:1044100009F4F2C081369105CCF58832910509F492
:104420007BC089329105B4F48031910509F46FC0E5
:10443000813191053CF4009709F447C1089709F0D0
:104440004FC165C08831910509F466C0809709F0B5
:1044500047C182C08034910509F4A4C0813491051C
:1044600044F48033910509F482C0C89709F038C13B
:1044700089C08035910509F489C08835910509F412
:1044800096C08834910509F02BC1AEC088399105DA
:1044900009F413C189399105ECF48837910509F4C1
:1044A000ABC0893791054CF48836910509F4A4C056
:1044B0008037910509F014C19FC08838910509F42F
:1044C000FCC08039910509F49DC08038910509F040
:1044D00007C198C0803B910509F4C6C0813B910596
:1044E0004CF4803A910509F49FC0883A910509F08F
:1044F000F7C0BAC0803C910509F4E3C0883C91053F
:1045000009F4DFC0883B910509F0EAC0C2C0809180
:10451000EB068093BB00CFC09091120780911307E8
:10452000981768F490911207E92FF0E0EE50F94FD8
:1045300080818093BB009F5F90931207BCC08091E5
:10454000EC06882309F44BC085ED8093BC00809174
:10455000BC0084FDFCCFC2C080E28093570785ED8C
:104560008093BC008091BC0084FDFCCFB7C080E389
:104570008093570785ED8093BC008091BC0084FD3B
:10458000FCCFACC088E3809357079BC08091120793
:104590009091BB00E82FF0E0EE50F94F90838F5FD1
:1045A00080931207909112078091130782C0809127
:1045B00012079091BB00E82FF0E0EE50F94F908386
:1045C0008F5F809312078091EC06882341F085ED80
:1045D0008093BC008091BC0084FDFCCF7FC081E053
:1045E0008093ED0684EA6EC085ED8093BC008091D7
:1045F000BC0084FDFCCF72C083E08093EA06109279
:10460000560759C080915607803208F056C08091F5
:1046100056079091BB00E82FF0E0EA5CF84F9083DA
:104620008F5F8093560747C080915607803230F4E1
:10463000E0915607F0E0EA5CF84F108285ED809338
:10464000BC008091BC0084FDFCCF1092EA06609112
:104650005607E091F006F091F10686E397E070E0EE
:104660000995109256072DC084E08093EA061092B7
:10467000340710923507E091EE06F091EF060995A8
:1046800080913507882329F481E0809335071092C3
:10469000140790913407E92FF0E0EC5EF84F808129
:1046A0008093BB009F5F9093340790913407809173
:1046B0003507981710F485EC01C085E88093BC009D
:1046C0000FC085EC8093BC0009C01092570785EDA0
:1046D0008093BC008091BC0084FDFCCF1092EA0660
:1046E000FF91EF91BF91AF919F918F917F916F91CA
:1046F0005F914F913F912F910F900FBE0F901F90A0
:1047000018951092EA0681E08093EC061092ED066F
:1047100082E161E00E94F42483E161E00E94F424DC
:10472000E9EBF0E080818E7F808380818D7F8083C4
:1047300088E48093B80085E48093BC0008951F92BC
:104740000F920FB60F9211242F933F938F939F9345
:10475000AF93BF9380915C0790915D07A0915E0736
:10476000B0915F07309160070196A11DB11D232F05
:104770002D5F2D3720F02D570196A11DB11D2093DF
:10478000600780935C0790935D07A0935E07B093EA
:104790005F078091580790915907A0915A07B091EF
:1047A0005B070196A11DB11D80935807909359078F
:1047B000A0935A07B0935B07BF91AF919F918F91E0
:1047C0003F912F910F900FBE0F901F9018958FB7AC
:1047D000F89420915C0730915D0740915E075091FD
:1047E0005F078FBFB901CA0108959B01AC017FB774
:1047F000F8948091580790915907A0915A07B09169
:104800005B0766B5A89B05C06F3F19F00196A11D17
:10481000B11D7FBFBA2FA92F982F8827860F911D12
:10482000A11DB11D62E0880F991FAA1FBB1F6A95C9
:10483000D1F7BC012DC0FFB7F89480915807909133
:104840005907A0915A07B0915B07E6B5A89B05C030
:10485000EF3F19F00196A11DB11DFFBFBA2FA92F7F
:10486000982F88278E0F911DA11DB11DE2E0880FA2
:10487000991FAA1FBB1FEA95D1F7861B970B885E6D
:104880009340C8F2215030404040504068517C4F26
:10489000211531054105510571F60895019739F04B
:1048A000880F991F880F991F02970197F1F70895B4
:1048B000789484B5826084BD84B5816084BD85B5FB
:1048C000826085BD85B5816085BDEEE6F0E08081C2
:1048D00081608083E1E8F0E01082808182608083E3
:1048E000808181608083E0E8F0E080818160808366
:1048F000E1EBF0E0808184608083E0EBF0E0808198
:1049000081608083EAE7F0E0808184608083808139
:1049100082608083808181608083808180688083E1
:104920001092C1000895982F8E3008F09E50977015
:1049300080912B068295880F880F807C892B80932D
:104940007C0080917A00806480937A0080917A0064
:1049500086FDFCCF2091780040917900942F80E073
:1049600030E0282B392BC9010895CF93DF93482FCE
:1049700050E0CA0188549F4FFC0134914C555F4F61
:10498000FA018491882369F190E0880F991FFC0156
:10499000EA57FF4FA591B491FC01E057FF4FC59135
:1049A000D491662351F42FB7F8948C91932F90955E
:1049B00089238C93888189230BC0623061F42FB7DF
:1049C000F8948C91932F909589238C938881832BD5
:1049D00088832FBF06C09FB7F8948C91832B8C934C
:1049E0009FBFDF91CF910895482F50E0CA018453B3
:1049F0009F4FFC012491CA0188549F4FFC01949160
:104A00004C555F4FFA013491332309F440C02223FF
:104A100051F1233071F0243028F42130A1F02230FC
:104A200011F514C02630B1F02730C1F02430D9F48C
:104A300004C0809180008F7703C0809180008F7DBB
:104A40008093800010C084B58F7702C084B58F7DBD
:104A500084BD09C08091B0008F7703C08091B00001
:104A60008F7D8093B000E32FF0E0EE0FFF1FE05743
:104A7000FF4FA591B4912FB7F894662321F48C9140
:104A80009095892302C08C91892B8C932FBF089518
:104A9000682F70E0CB0184539F4FFC012491CB0120
:104AA00088549F4FFC0144916C557F4FFB019491BA
:104AB000992319F420E030E03CC0222351F1233047
:104AC00071F0243028F42130A1F0223011F514C007
:104AD0002630B1F02730C1F02430D9F404C08091E1
:104AE00080008F7703C0809180008F7D809380004D
:104AF00010C084B58F7702C084B58F7D84BD09C096
:104B00008091B0008F7703C08091B0008F7D80933B
:104B1000B000892F90E0880F991F86569F4FFC01A7
:104B2000A591B4918C9120E030E0842311F021E034
:104B300030E0C9010895BF92CF92DF92EF92FF92C9
:104B40000F931F93CF93DF93E82EF62EB42EC7E07A
:104B5000D0E0022F10E087E0C82ED12CBB2059F402
:104B6000B6016C1B7D0BC80102C0959587956A95AF
:104B7000E2F7BC0107C0B8010C2E02C0759567951D
:104B80000A94E2F761708E2D0E94F4248F2D61E06B
:104B90000E94F4248F2D60E00E94F42421979FEF5F
:104BA000CF3FD907D9F6DF91CF911F910F91FF9099
:104BB000EF90DF90CF90BF900895CF93DF930E9446
:104BC00058240E94E305C0E0D0E00E94A51C209775
:104BD000E1F30E940000F9CFCF92DF92EF92FF92B3
:104BE0000F931F93CF93DF937C016B018A01C0E089
:104BF000D0E00FC0D6016D916D01D701ED91FC9110
:104C00000190F081E02DC7010995C80FD91F01500F
:104C100010400115110571F7CE01DF91CF911F9161
:104C20000F91FF90EF90DF90CF900895CF93DF9397
:104C3000EC016115710519F420E030E00FC0DB01D3
:104C40000D900020E9F71197A61BB70BE881F981B9
:104C50000280F381E02DAD0109959C01C901DF912E
:104C6000CF9108950E94162608955058BB27AA2771
:104C70000ED0DFC19FD130F0A4D120F031F49F3F9E
:104C800011F41EF45EC10EF4E095E7FB54C1E92F68
:104C9000F2D180F3BA17620773078407950718F0FB
:104CA00071F49EF50AC20EF4E0950B2EBA2FA02DDA
:104CB0000B01B90190010C01CA01A0011124FF27C9
:104CC000591B99F0593F50F4503E68F11A16F040C4
:104CD000A22F232F342F4427585FF3CF46953795C3
:104CE0002795A795F0405395C9F77EF41F16BA0B88
:104CF000620B730B840BBAF09150A1F0FF0FBB1F36
:104D0000661F771F881FC2F70EC0BA0F621F731F7E
:104D1000841F48F4879577956795B795F7959E3FDB
:104D200008F0B3CF9395880F08F09927EE0F979569
:104D300087950895DCD008F481E008954AD1E39581
:104D400089C10CD076C13DD140F034D130F021F48E
:104D50005F3F19F0F0C05111B1C1F3C08CD198F38D
:104D60009923C9F35523B1F3951B550BBB27AA27EC
:104D700062177307840738F09F5F5F4F220F331F5E
:104D8000441FAA1FA9F333D00E2E3AF0E0E830D02A
:104D900091505040E695001CCAF729D0FE2F27D02D
:104DA000660F771F881FBB1F261737074807AB07FB
:104DB000B0E809F0BB0B802DBF01FF2793585F4F70
:104DC0002AF09E3F510568F0B6C078C15F3FECF312
:104DD000983EDCF3869577956795B795F7959F5F35
:104DE000C9F7880F911D9695879597F90895E1E089
:104DF000660F771F881FBB1F621773078407BA07E8
:104E000020F0621B730B840BBA0BEE1F88F7E09542
:104E1000089504D06894B11151C1089534D188F037
:104E20009F5790F0B92F9927B751A0F0D1F0660F96
:104E3000771F881F991F1AF0BA95C9F712C0B130B1
:104E400081F03BD1B1E0089538C1672F782F8827D2
:104E5000B85F39F0B93FCCF3869577956795B395F0
:104E6000D9F73EF490958095709561957F4F8F4F5F
:104E70009F4F0895E89409C097FB3EF49095809564
:104E8000709561957F4F8F4F9F4F9923A9F0F92F10
:104E900096E9BB279395F695879577956795B7958E
:104EA000F111F8CFFAF4BB0F11F460FF1BC06F5F74
:104EB0007F4F8F4F9F4F16C0882311F096E911C086
:104EC000772321F09EE8872F762F05C0662371F0A7
:104ED00096E8862F70E060E02AF09A95660F771FBB
:104EE000881FDAF7880F9695879597F90895990F97
:104EF0000008550FAA0BE0E8FEEF16161706E807A4
:104F0000F907C0F012161306E407F50798F0621BC4
:104F1000730B840B950B39F40A2661F0232B242B99
:104F2000252B21F408950A2609F4A140A6958FEFB8
:104F3000811D811D089597F99F6780E870E060E00A
:104F400008959FEF80EC0895DF93CF931F930F9305
:104F5000FF92EF92DF927B018C01689405C0DA2EFC
:104F6000EF01C2D0FE01E894A591259135914591BC
:104F70005591AEF3EF018BDEFE019701A801DA94A3
:104F800079F7DF90EF90FF900F911F91CF91DF9114
:104F900008959F938F937F936F93FF93EF939B015C
:104FA000AC0196D0EF91FF91CFDF2F913F914F91C0
:104FB0005F918EC000240A9416161706180609067B
:104FC000089500240A94121613061406050608957F
:104FD000B8CF59D0E8F3E894EFEFBB273FE048ECB7
:104FE0005FE76B3D73078407950708F1FF279F571D
:104FF000B25A6A4D7F40894CF04032F4BE5565424A
:10500000704F8643FF4F0894EE1F915030F0BB0F56
:10501000661F771F881FFF1FEBCF9EE7882332F0A4
:10502000BB0F661F771F881F9A95C1F79395E09570
:10503000B8C0092E0394000C11F4882352F0BB0F62
:1050400040F4BF2B11F460FF04C06F5F7F4F8F4FA0
:105050009F4F0895EF93E0FF06C0A2EA2AED3FE0DC
:1050600049EC5FEB14DEE5DF0F90039401FC9058F0
:10507000E8E6F0E08ECF57FD9058440F551F59F0E9
:105080005F3F71F04795880F97FB991F61F09F3F35
:1050900079F087950895121613061406551FF2CF5E
:1050A0004695F1DF08C0161617061806991FF1CFAE
:1050B00086957105610508940895E894BB276627D5
:1050C0007727CB0197F9089512DF08F48FEF089541
:1050D0000BD0AFCF6FDF28F074DF18F0952309F005
:1050E0002ACF2FCF1124EACFC6DFA0F3959FD1F3AB
:1050F000950F50E0551F629FF001729FBB27F00D86
:10510000B11D639FAA27F00DB11DAA1F649F6627DA
:10511000B00DA11D661F829F2227B00DA11D621F29
:10512000739FB00DA11D621F839FA00D611D221FE3
:10513000749F3327A00D611D231F849F600D211DC7
:10514000822F762F6A2F11249F5750408AF0E1F06A
:1051500088234AF0EE0FFF1FBB1F661F771F881FB3
:1051600091505040A9F79E3F510570F0E4CEA6CF74
:105170005F3FECF3983EDCF3869577956795B7959E
:10518000F795E7959F5FC1F7FE2B880F911D9695C8
:10519000879597F908959F931CDF0F9007FCEE5FAA
:1051A00059CF9F3F49F0915028F4869577956795A0
:1051B000B7959F5F80389F4F880F9695879597F991
:1051C0000895629FD001739FF001829FE00DF11D51
:1051D000649FE00DF11D929FF00D839FF00D749F71
:1051E000F00D659FF00D9927729FB00DE11DF91F1D
:1051F000639FB00DE11DF91FBD01CF01112408957A
:10520000AA1BBB1B51E107C0AA1FBB1FA617B707EC
:1052100010F0A61BB70B881F991F5A95A9F7809508
:105220009095BC01CD01089597FB092E07260AD061
:1052300077FD04D0E5DF06D000201AF47095619563
:105240007F4F0895F6F7909581959F4F0895A1E2BD
:105250001A2EAA1BBB1BFD010DC0AA1FBB1FEE1FF0
:10526000FF1FA217B307E407F50720F0A21BB30B3B
:10527000E40BF50B661F771F881F991F1A9469F7B7
:1052800060957095809590959B01AC01BD01CF0113
:10529000089597FB092E05260ED057FD04D0D7DFC1
:1052A0000AD0001C38F450954095309521953F4F19
:1052B0004F4F5F4F0895F6F79095809570956195E3
:1052C0007F4F8F4F9F4F0895EE0FFF1F0590F49172
:1052D000E02D09942F923F924F925F926F927F92AE
:1052E0008F929F92AF92BF92CF92DF92EF92FF92F6
:1052F0000F931F93CF93DF93CDB7DEB7CA1BDB0BA2
:105300000FB6F894DEBF0FBECDBF09942A88398846
:1053100048885F846E847D848C849B84AA84B9844D
:10532000C884DF80EE80FD800C811B81AA81B98159
:10533000CE0FD11D0FB6F894DEBF0FBECDBFED016D
:065340000895F894FFCF70
:10534600322E2051756164202000332E2053696E61
:1053560065202000342E2043756269632000312EBB
:10536600204C696E65617200322E2045617365209E
:105376004F75742000332E2045617365496E4F7555
:105386007400342E2052657645617365496E00358A
:105396002E526576456173654F757400312E204532
:1053A60061736520496E2020004E6F200059657399
:1053B60000322E2053657474696E67204200312EC8
:1053C6002053657474696E6720410020002A00200E
:1053D6002020536C6964656C6170736500205665A6
:1053E6007273696F6E20302E372E300020202020F9
:1053F60000202020202020202020202020202020C7
:10540600200050726F67726573733A2025303264DC
:105416002525202000583A2534642053656C3A250A
:10542600732020202000593A253464204D3A2573F4
:1054360020453A257320200025732025732020005F
:1054460025303264202020202020202020202020EB
:1054560020200025732020202020202000257320D6
:10546600202020004D6F76656D656E74204469724C
:105476003A202020004D6F766520526967687420B7
:10548600746F202020007374617274205254206D52
:105496006F766520203E005374617274696E6720D2
:1054A6004D6F76652E2E2E0053656C20746F20632B
:1054B600616E63656C202020002530346420202036
:1054C6002020202020202020200025303475206D2B
:1054D600696E75746573202020002530346420734E
:1054E60065636F6E6473202020200025303275209E
:1054F6007365636F6E6473202020002564207365D6
:10550600636F6E6473202020002564206D696E75BC
:105516007465732020200025732020202020202061
:105526002020202020200073746172742074696D1D
:10553600656C617073653E005374617274696E6761
:1055460020544C2E2E2E202000486F6C642053656C
:105556006C20746F2045786974000000000000001C
:10556600000000000000000000000053656C656349
:1055760074204D6F64653A2020202000312E546936
:105586006D656C61707365202020203E00322E52BE
:1055960065616C74696D6520202020203E00332EE5
:1055A600436F6D6D616E646572202020203E00346D
:1055B6002E446972656374696F6E202020203E0058
:1055C600352E446562756720202020202020203E4D
:1055D600003E3E3E2054696D656C61707365202007
:1055E60020004E756D626572206F662053686F7479
:1055F600733A00544C204475726174696F6E3A2098
:105606002020200041766720496E74657276616CB1
:105616003A2020200053746172742044656C6179CD
:105626003A20202020004C6F6E6765737420536803
:1056360075747465723A00536C6565702062747790
:105646002073686F747320004261636B6C696768CE
:1056560074206F6E3F3A202000536C6964652045C4
:105666006173652046756E633A00536C6964652004
:105676004561736520437572763A0054696D6520FD
:10568600456173652046756E633A200054696D6501
:105696002043757276652046756E633A004D6F76C7
:1056A600656D656E74204469723A202020004D6F46
:1056B600746F72202D2D2D2D2D3E20456E640045D4
:1056C6006E64202D2D2D2D2D3E204D6F746F720092
:1056D60054696D656C617073652061637469766584
:1056E6000054696D656C6170736520446F6E65204A
:1056F60020003E3E3E20436F6D6D616E64657220F4
:105706002020002020436F6D6D616E64204D6F6414
:10571600652020004D6F746F72203C2D2D2D2D3E7F
:1057260020456E6400456E64203C2D2D2D2D3E20B7
:105736004D6F746F7200526576657273696E67207D
:10574600446972203C3E003E3E3E204469726563D9
:1057560074696F6E202020005365742045455052B1
:105766004F4D204469723A20003E3E3E2044656219
:105776007567204D6F646520200000000000000062
:105786000000000000000000000000000000000013
:105796000000000000000000000000004F00500064
:1057A60058003E3E3E204552524F52202020202097
:1057B60020200052657475726E696E6720486F6DA1
:1057C600652020003E3E3E5265616C74696D652021
:1057D6004D6F6465004D6F76656D656E7420537010
:1057E6006565643A2000525420456173652046750C
:1057F6006E633A2020200052542045617365204391
:10580600757276653A2020004D6F766520436F6D80
:10581600706C657465212020000101010E01F0877E
:10582600F0000F270500E803640018790100000066
:10583600100E00000A0000000101DC0500003C001B
:10584600000080510100010104010105010104016C
:10585600010502010601F401190A630101010401AF
:105866000105010002010001000500010000000021
:105876003E0366039A03000000003D033D033D031B
:10588600000000002E0452048904000000004305B5
:105896006C05030500000000471EEC2500004000D3
:1058A6001400540000000000D420A3205C206520D2
:0458B6007A208B20A9
:00000001FF
