:100000000C9473000C949B000C949B000C949B002C
:100010000C949B000C949B000C949B000C949B00F4
:100020000C949B000C949B000C949B000C949B00E4
:100030000C949B000C949B000C949B000C949B00D4
:100040000C94AD170C949B000C94EC190C943A1A78
:100050000C949B000C949B000C949B000C949B00B4
:100060000C94FE150C949B0005A84CCDB2D44EB94F
:100070003836A9020C50B9918688083CA6AAAA2A4B
:10008000BE000000803F00000000240027002A007E
:1000900000000000250028002B00000000002300C5
:1000A00026002900040404040404040402020202D9
:1000B000020203030303030301020408102040802B
:1000C00001020408102001020408102000000007AB
:1000D0000002010000030406000000000000000010
:1000E0008B059A14A61B11241FBECFEFD8E0DEBFEC
:1000F000CDBF15E0A0E0B1E0ECE7FFE302C0059062
:100100000D92AE3BB107D9F717E0AEEBB5E001C0F9
:100110001D92A435B107E1F710E0C6EED0E004C0AF
:100120002297FE010E94811FC03ED107C9F70E949D
:10013000FC1B0C94BC1F0C940000AEE0B0E0E3EAA2
:10014000F0E00C94931F0D891E8986E08C831A833E
:1001500009838FEF9FE79E838D839E01275E3F4F2C
:10016000CE0101966F89788DA9010E94C1002F816F
:100170003885020F131FF80110822E96E4E00C94CC
:10018000AF1FABE0B0E0E7ECF0E00C94851F3C0162
:100190002B015A01FC0117821682838181FD03C065
:1001A0006FEF7FEFC6C19AE0892E1E010894211CD3
:1001B000311CF3012381F20123FD859123FF8191FD
:1001C0002F01882309F4B2C1853239F423FD8591CA
:1001D00023FF81912F01853229F490E0B3010E9421
:1001E000B402E7CF982FFF24EE249924FFE1FF15F6
:1001F000D0F09B3269F09C3228F4903259F093325F
:1002000091F40EC09D3249F0903369F441E024C06E
:1002100052E0F52A84E0F82A28C098E0F92A25C09F
:10022000E0E1FE2A22C0F7FC29C0892F80538A30E2
:1002300070F4F6FE05C0989C902C1124980E15C001
:10024000E89CE02C1124E80EF0E2FF2A0EC09E325A
:1002500029F4F6FC6BC140E4F42A07C09C3619F47B
:1002600050E8F52A02C0983649F4F20123FD959131
:1002700023FF91912F01992309F0B8CF892F85543D
:10028000833018F08052833038F444E050E0A40EFC
:10029000B51E5FE359830FC0933631F0933779F081
:1002A000933509F056C020C0F5018081898342E072
:1002B00050E0A40EB51E610101E010E012C0F5018E
:1002C000C080D180F6FC03C06FEF7FEF02C0692DC4
:1002D00070E042E050E0A40EB51EC6010E94A902E3
:1002E0008C015FE7F52214C0F501C080D180F6FCD7
:1002F00003C06FEF7FEF02C0692D70E042E050E075
:10030000A40EB51EC6010E949E028C0150E8F52A7B
:10031000F3FE07C01AC080E290E0B3010E94B4026D
:10032000EA948E2D90E008171907A8F30EC0F60185
:10033000F7FC8591F7FE81916F0190E0B3010E9477
:10034000B402E110EA94015010400115110579F74B
:10035000EAC0943611F0993669F5F7FE08C0F50148
:10036000208131814281538184E090E00AC0F5010F
:10037000808191819C01442737FD4095542F82E074
:1003800090E0A80EB91E9FE6F92257FF09C05095CC
:100390004095309521953F4F4F4F5F4FE0E8FE2A43
:1003A000CA01B901A1012AE030E00E94E002D82E82
:1003B000D21840C0953729F41F2D1F7E2AE030E067
:1003C0001DC01F2D197F9F3661F0903720F498359E
:1003D00009F0ACC00FC0903739F0983709F0A6C0CB
:1003E00004C028E030E00AC0106114FD146020E170
:1003F00030E004C014FD166020E132E017FF08C0B1
:10040000F501608171818281938144E050E008C0F0
:10041000F50180819181BC0180E090E042E050E0F4
:10042000A40EB51EA1010E94E002D82ED2188FE7BB
:10043000F82EF122F6FE0BC05EEFF522D91438F447
:10044000F4FE07C0F2FC05C08FEEF82202C01D2D9D
:1004500001C0192DF4FE0DC0FE01ED0DF11D8081CE
:10046000803319F499EEF92208C01F5FF2FE05C02F
:1004700003C08F2D867809F01F5F0F2DF3FC14C089
:10048000F0FE0FC01E1510F09D2C0BC09D2C9E0C75
:10049000911A1E2D06C080E290E0B3010E94B402C2
:1004A0001F5F1E15C0F304C01E1510F4E11A01C031
:1004B000EE2404FF0FC080E390E0B3010E94B40279
:1004C00002FF1DC001FD03C088E790E00EC088E573
:1004D00090E00BC0802F867891F001FF02C08BE284
:1004E00001C080E2F7FC8DE290E0B3010E94B4020B
:1004F00006C080E390E0B3010E94B4029A94D9143C
:10050000C0F3DA94F101ED0DF11D808190E0B301AB
:100510000E94B402DD20A9F706C080E290E0B3019A
:100520000E94B402EA94EE20C1F743CEF301668143
:100530007781CB012B96E2E10C94A11FFC01059081
:10054000615070400110D8F7809590958E0F9F1FD5
:100550000895FC016150704001900110D8F780951A
:1005600090958E0F9F1F08950F931F93CF93DF9346
:100570008C01EB018B8181FF1BC082FF0DC02E819E
:100580003F818C819D812817390764F4E881F981C6
:100590000193F983E88306C0E885F985802F0995E2
:1005A000892B31F48E819F8101969F838E8302C0B7
:1005B0000FEF1FEFC801DF91CF911F910F910895A9
:1005C000FA01AA27283051F1203181F1E8946F9384
:1005D0006E7F6E5F7F4F8F4F9F4FAF4FB1E03ED02A
:1005E000B4E03CD0670F781F891F9A1FA11D680FC8
:1005F000791F8A1F911DA11D6A0F711D811D911DFB
:10060000A11D20D009F468943F912AE0269F11246F
:100610003019305D3193DEF6CF010895462F4770D3
:10062000405D4193B3E00FD0C9F7F6CF462F4F702E
:10063000405D4A3318F0495D31FD4052419302D08C
:10064000A9F7EACFB4E0A695979587957795679532
:10065000BA95C9F700976105710508959B01AC0132
:100660000A2E06945795479537952795BA95C9F759
:10067000620F731F841F951FA01D08950895CF92C8
:10068000DF92EF92FF920F931F936C01CB01BA019F
:10069000F60126813781408551850E94C01C7B016F
:1006A0008C01F60122813381448155810E94831E91
:1006B000A80197010E94831EA80197010E94831E32
:1006C0001F910F91FF90EF90DF90CF900895CF9200
:1006D000DF92EF92FF920F931F936C01CB01BA014F
:1006E000F60126813781408551850E94C01C20E09B
:1006F00030E040E85FE30E94541C7B018C01A801BC
:1007000097010E94831EA80197010E94831E20E08A
:1007100030E040E85FE30E94551CF60122813381FE
:10072000448155810E94831E1F910F91FF90EF908D
:10073000DF90CF900895AF92BF92CF92DF92EF9269
:10074000FF920F931F93CF93DF93EC017A018B01FC
:100750006E817F818885998520E030E040E05FE30D
:100760000E94831E9B01AC01C801B7010E94C01CFE
:100770007B018C0120E030E040E85FE30E94B91C7F
:100780008823ACF46A817B818C819D8120E030E0FC
:1007900040E05FE30E94831EA80197010E94831E30
:1007A000A80197010E94831EA80197012AC0C801D1
:1007B000B70120E030E040E050E40E94541C7B018F
:1007C0008C016A817B818C819D8120E030E040E05A
:1007D0005FE30E94831E5B016C01C801B701A801A1
:1007E00097010E94831EA80197010E94831E20E0AA
:1007F00030E040E050E40E94551C9B01AC01C60172
:10080000B5010E94831EE62F2E2F372F482F592F18
:10081000B901CA01DF91CF911F910F91FF90EF9025
:10082000DF90CF90BF90AF900895FC0184E795E0F2
:100830009183808380E090E0A0E0B0E082839383A6
:10084000A483B5830895FC0146835783608771872D
:100850000895FC0142835383648375830895CF9286
:10086000DF92EF92FF920F931F936C01CB01BA01BD
:10087000F60126813781408551850E94C01C7B018D
:100880008C01F60122813381448155810E94831EAF
:10089000A80197010E94831E1F910F91FF90EF9076
:1008A000DF90CF900895AF92BF92CF92DF92EF92F8
:1008B000FF920F931F936C01CB01BA01F6012681C1
:1008C0003781408551850E94C01C7B018C01F60157
:1008D00062817381848195819058A80197010E945B
:1008E000831E5B016C01C801B70120E030E040E0ED
:1008F00050E40E94541C9B01AC01C601B5010E944A
:10090000831E1F910F91FF90EF90DF90CF90BF90CB
:10091000AF900895AF92BF92CF92DF92EF92FF9285
:100920000F931F93CF93DF93EC017A018B016E81BC
:100930007F818885998520E030E040E05FE30E9478
:10094000831E9B01AC01C801B7010E94C01C7B0142
:100950008C0120E030E040E85FE30E94B91C88236E
:100960008CF46A817B818C819D8120E030E040E0C5
:100970005FE30E94831EA80197010E94831EA801C5
:1009800097012EC0C801B70120E030E040E85FE3E6
:100990000E94541C7B018C016A817B818C819D812A
:1009A00020E030E040E05FEB0E94831E5B016C01C1
:1009B000C801B70120E030E040E050E40E94541C40
:1009C0009B01AC01C801B7010E94831E20E030E00A
:1009D00040E85FE30E94541C9B01AC01C601B501D5
:1009E0000E94831EE62F2E2F372F482F592FB90133
:1009F000CA01DF91CF911F910F91FF90EF90DF908F
:100A0000CF90BF90AF900895AF92BF92CF92DF92F8
:100A1000EF92FF920F931F936C01CB01BA012BED64
:100A20003FE049E450E40E94831EF60126813781AD
:100A3000408551850E94C01C0E94BD1C7B018C0119
:100A4000F601628173818481958120E030E040E08D
:100A50005FEB0E94831E5B016C01C801B70120E0BF
:100A600030E040E85FE30E94541C9B01AC01C601EA
:100A7000B5010E94831E1F910F91FF90EF90DF90B0
:100A8000CF90BF90AF900895EF92FF920F931F9376
:100A9000FC01E280F38004811581CB01BA0126813B
:100AA0003781408551850E94C01C2BED3FE049EC09
:100AB0005FE30E94831E0E94BD1C9B01AC01C80124
:100AC000B70190580E94831EA80197010E94551CEF
:100AD0001F910F91FF90EF9008950F931F938C013A
:100AE000CB01BA01F80126813781408551850E94EA
:100AF000C01C2BED3FE049EC5FE30E94831E0E9487
:100B0000E61EF80122813381448155810E94831EB3
:100B10001F910F9108958EEB95E060E00E94D61032
:100B2000089589E060E00E9402190895CF92DF9253
:100B3000EF92FF920F931F938C016B018EEBE82EC7
:100B400085E0F82EC70160E040E00E947612C70100
:100B5000B8010E94511CC70160E041E00E9476127A
:100B6000C701B6010E94511C1F910F91FF90EF9099
:100B7000DF90CF90089587E061E00E94021966E956
:100B800070E080E090E00E94031887E060E00E943F
:100B90000219089589E061E00E94021962E070E0A4
:100BA00080E090E00E94031808950F931F9382E065
:100BB00061E00E94C31883E061E00E94C31889E0ED
:100BC00061E00E94C31889E061E00E94021902E31B
:100BD00017E0C80140E855E260E070E00E94751A35
:100BE000C80167E571E00E94511C87E061E00E9446
:100BF000C3180EEB15E0C80160E142E020E00E945E
:100C0000AD12C80169E671E00E94511CC80160E0A4
:100C100041E00E947612C80167E771E00E94511C12
:100C200068EB7BE080E090E00E940318C8010E941E
:100C3000A5128AE062E00E94C31884E060E00E948E
:100C4000C31886E060E00E94C3181F910F910895B9
:100C500081E00E94A11808950E94280620E0C29712
:100C60000CF421E0822F08950E94280620E0895E7E
:100C700093400CF021E0822F089580E00E94A1189B
:100C800008950E943D0620E0C2970CF421E0822FD7
:100C900008950E943D0620E0895E93400CF021E01B
:100CA000822F0895CF93DF93EC0180E00E94A1187A
:100CB0008955924084F0BE01882777FD8095982F52
:100CC0000E94031880E00E94A118895592400CF4FC
:100CD00042C022E041C080E00E94A11880599140AA
:100CE00084F4BE01882777FD8095982F0E94031811
:100CF00080E00E94A11820E0805991406CF521E02D
:100D00002BC081E00E94A118895592407CF0BE0161
:100D1000882777FD8095982F0E94031881E00E9414
:100D2000A11889559240BCF023E016C081E00E94D2
:100D3000A118805991407CF4BE01882777FD8095E9
:100D4000982F0E94031881E00E94A11880599140B9
:100D500014F424E001C020E0822FDF91CF910895A8
:100D60008AE00E94561920E0892B09F421E0822FA5
:100D700008950F931F9300D000D000D0EDB7FEB7B9
:100D8000319603E314E0ADB7BEB712961C930E93F1
:100D900011972CE931E03383228324E630E0AC0163
:100DA000429FC001439F900D529F900D11240E94BD
:100DB0002F1F758364830E949D008DB79EB7069692
:100DC0000FB6F8949EBF0FBE8DBF82E294E0B801CB
:100DD0000E9496051F910F910895EF92FF920F9335
:100DE0001F937B018C019A01CA010197029710F4AD
:100DF00080E006C0235030402230310538F481E0D5
:100E00000E94A11890935E0580935D0580915D0519
:100E100090915E05825C91408536910560F18091EC
:100E2000DD059091DE05A091DF05B091E00500970A
:100E3000A105B105A9F00E94F517E0E02091DD05BC
:100E40003091DE054091DF055091E005621B730B88
:100E5000840B950BE616F70608071907A8F013C0D0
:100E60000E94F5176093DD057093DE058093DF0522
:100E70009093E00508C01092DD051092DE051092F7
:100E8000DF051092E005E1E08E2F1F910F91FF909A
:100E9000EF900895CF93DF93EC018AE00E945619FA
:100EA000882389F58091D9059091DA05A091DB0519
:100EB000B091DC050097A105B105D1F00E94F517AE
:100EC000E0E02091D9053091DA054091DB055091A1
:100ED000DC05621B730B840B950B9E01442737FDC9
:100EE0004095542F2617370748075907A8F013C015
:100EF0000E94F5176093D9057093DA058093DB059E
:100F00009093DC0508C01092D9051092DA05109272
:100F1000DB051092DC05E1E08E2FDF91CF91089583
:100F20006F927F928F929F92AF92BF92CF92DF92F9
:100F3000EF92FF920F931F93CF93DF93E62E3C0126
:100F400097FF04C066247724681A790A60E01816AF
:100F500019060CF461E082E00E9402196E2D70E027
:100F600080E090E00E94591D20E030E048EC52E41F
:100F70000E94C01C9B01AC0160E070E080E89FE330
:100F80000E94C01C20E030E04CE852E40E94831E26
:100F90007B018C0143019594879495948794B401C7
:100FA000660F771F660F771F680D791D882777FDFD
:100FB0008095982F0E945B1D9B01AC01C801B70171
:100FC0000E94551C5B016C01C0E0D0E01FC0C6014F
:100FD000B50120E030E040EA50E40E94541C5B017F
:100FE0006C0183E061E00E940219C601B5010E9414
:100FF0002D1D7B018C01CB010E945C1883E060E019
:101000000E940219C7010E945C182196C815D905D3
:10101000F4F2C401880F991F681A790AC0E0D0E081
:1010200015C083E061E00E940219C601B5010E946B
:101030002D1D7B018C01CB010E945C1883E060E0D8
:101040000E940219C7010E945C182196C615D70597
:1010500044F3C0E0D0E01FC0C601B50120E030E09D
:1010600040EA50E40E94551C5B016C0183E061E0A2
:101070000E940219C601B5010E942D1D7B018C0141
:10108000CB010E945C1883E060E00E940219C70156
:101090000E945C182196C815D905F4F2DF91CF9112
:1010A0001F910F91FF90EF90DF90CF90BF90AF9086
:1010B0009F908F907F906F9008952F923F924F92C4
:1010C0005F926F927F928F929F92AF92BF92CF92D8
:1010D000DF92EF92FF920F931F93DF93CF93CDB7E1
:1010E000DEB7AD970FB6F894DEBF0FBECDBF8CA3B1
:1010F0001B017B010027F7FC0095102FCA01B901E5
:10110000A80197010E94421F29013A014E0108944B
:10111000811C911CC4010E9415048EE795E09A83FE
:101120008983C801B7010E945B1D5B016C01C4018A
:10113000B601A5010E94230460913B0570913C0516
:1011400080E090E00E94591DAB01BC01C4010E94E7
:1011500029046BE0E62EF12CEC0EFD1EC7010E9467
:10116000150488E895E09C878B87C701B601A50127
:101170000E94230460913B0570913C0580E090E063
:101180000E94591DAB01BC01C7010E9429048E01B8
:101190000B5E1F4FC8010E9415048AE695E09E8BE6
:1011A0008D8BC801B601A5010E94230460913B0507
:1011B00070913C0580E090E00E94591DAB01BC019C
:1011C000C8010E94290480913B0590913C05B10122
:1011D0000E941B1F6B011F8E51E0A52EB12C6624AF
:1011E0007724E9A6FAA60BA71CA78DA6892C920145
:1011F000442737FD4095542F2DA33EA34FA358A756
:101200008AC10E94F51768A379A38AA39BA3C5018D
:10121000B1010E94B9060E94BB056091430570911F
:10122000440580E090E00E940318809156058330C9
:1012300009F466C0843009F4C3C0823009F028C1C3
:1012400080915905823011F18330E9F1813009F044
:101250001FC1B501882777FD8095982F0E945B1DDF
:10126000AB01BC018DA5982D0E942F047B018C0140
:10127000B301882777FD8095982F0E945B1DAB01F5
:10128000BC018DA5982D0E942F04F9C0B5018827B7
:1012900077FD8095982F0E945B1DAB01BC018DA549
:1012A000982D0E9453047B018C01B301882777FDA0
:1012B0008095982F0E945B1DAB01BC018DA5982DD8
:1012C0000E945304DCC0B501882777FD8095982FD4
:1012D0000E945B1DAB01BC018DA5982D0E948A0464
:1012E0007B018C01B301882777FD8095982F0E94A0
:1012F0005B1DAB01BC018DA5982D0E948A04BFC067
:1013000080915905823011F18330E9F1813009F083
:10131000BFC0B501882777FD8095982F0E945B1D7F
:10132000AB01BC0189A59AA50E9444057B018C01F3
:10133000B301882777FD8095982F0E945B1DAB0134
:10134000BC0189A59AA50E94440599C0B5018827CA
:1013500077FD8095982F0E945B1DAB01BC0189A58C
:101360009AA50E946D057B018C01B301882777FD4A
:101370008095982F0E945B1DAB01BC0189A59AA5A1
:101380000E946D057CC0B501882777FD8095982F58
:101390000E945B1DAB01BC0189A59AA50E940405B2
:1013A0007B018C01B301882777FD8095982F0E94DF
:1013B0005B1DAB01BC0189A59AA50E9404055FC015
:1013C00080915905823011F18330E9F1813009F0C3
:1013D0005FC0B501882777FD8095982F0E945B1D1F
:1013E000AB01BC018BA59CA50E943F037B018C0136
:1013F000B301882777FD8095982F0E945B1DAB0174
:10140000BC018BA59CA50E943F0339C0B50188276C
:1014100077FD8095982F0E945B1DAB01BC018BA5C9
:101420009CA50E9467037B018C01B301882777FD8F
:101430008095982F0E945B1DAB01BC018BA59CA5DC
:101440000E9467031CC0B501882777FD8095982FFF
:101450000E945B1DAB01BC018BA59CA50E949B0358
:101460007B018C01B301882777FD8095982F0E941E
:101470005B1DAB01BC018BA59CA50E949B039B013E
:10148000AC01C801B7010E94541C0E94281D6B01C9
:1014900080914905813011F40E94CA053CA1323087
:1014A00020F0D094C194D108D394C6016FE00E947B
:1014B000900780914905813011F40E9491050E94A6
:1014C000B006882311F41F8E05C04F8D4F5F4F8FDC
:1014D000433028F50E94F51728A139A14AA15BA144
:1014E000621B730B840B950B2DA13EA14FA158A538
:1014F000621773078407950740F4261B370B480BC8
:10150000590BCA01B9010E9403180894A11CB11C0F
:101510000894611C711C2A143B040CF072CE80915B
:101520004905813011F40E949105AD960FB6F894EB
:10153000DEBF0FBECDBFCF91DF911F910F91FF9006
:10154000EF90DF90CF90BF90AF909F908F907F9063
:101550006F905F904F903F902F9008950F931F933F
:1015600000913D0510913E0560914A0570914B0533
:1015700080914C0590914D0528EE33E040E050E01D
:101580000E94FC1E9B01AC0180915C05B8010E9489
:101590005D0881E08093380584E494E065E574E0BB
:1015A0000E9496051F910F910895EF92FF920F935D
:1015B0001F936530710509F4B1C166307105ACF453
:1015C0006230710509F47FC0633071052CF461301D
:1015D000710509F0DBC222C06330710509F4F8C05F
:1015E0006430710509F0D2C256C16830710509F442
:1015F0008FC2693071054CF46630710509F4D8C1A9
:101600006730710509F0C2C22FC26930710509F453
:10161000AEC26A30710509F0B9C2B0C220913D0571
:1016200030913E05181619064CF44B3051051CF448
:1016300081E090E010C08AE090E00DC0892B19F4A1
:1016400080E090E008C04B3051051CF48FEF9FEF15
:1016500002C086EF9FEF820F931F4091410550918A
:10166000420520913F05309140052817390714F4B1
:101670009A0104C0841795070CF09C0130933E0535
:1016800020933D0500D000D000D0EDB7FEB73196D5
:1016900002E113E0ADB7BEB712961C930E931197FB
:1016A0008FEA91E093838283358324830E949D0097
:1016B000EDB7FEB736960FB6F894FEBF0FBEEDBF7E
:1016C00081E093E023C2E0904A05F0904B05009141
:1016D0004C0510914D05181619064CF44B30510568
:1016E0001CF421E030E010C02AE030E00DC0892B6E
:1016F00019F420E030E008C04B3051051CF42FEF06
:101700003FEF02C026EF3FEF8CE390E0AC01249F57
:10171000C001259F900D349F900D11249C014427FA
:1017200037FD4095542F2E0D3F1D401F511F8091B6
:101730004E0590914F05E0915205F0915305E21747
:10174000F30714F4FC0104C0281739070CF0F90161
:10175000BF01882777FD8095982F60934A05709385
:101760004B0580934C0590934D05ADB7BEB71897C8
:101770000FB6F894BEBF0FBEADBF0DB71EB70F5F5B
:101780001F4FE4E3EE2EE3E0FE2E1296FC92EE9263
:10179000119720EC31E0F801338322832CE330E011
:1017A00040E050E00E94641FD80114962D933D93B1
:1017B0004D935C9317970E949D00EDB7FEB7389646
:1017C0000FB6F894FEBF0FBEEDBF83E293E0A4C056
:1017D0006091430570914405181619064CF44B307E
:1017E00051051CF421E030E010C02AE030E00DC0CB
:1017F000892B19F420E030E008C04B3051051CF46F
:101800002FEF3FEF02C026EF3FEF88EE93E0289FD7
:10181000A001299F500D389F500D1124460F571FCE
:1018200080914505909146052091470530914805E6
:101830002417350714F49C0104C0481759070CF00D
:101840009A01209343053093440500D000D000D086
:10185000EDB7FEB7319608E713E0ADB7BEB7129605
:101860001C930E93119780ED91E093838283C901BD
:1018700068EE73E00E941B1F758364830E949D00C5
:10188000EDB7FEB736960FB6F894FEBF0FBEEDBFAC
:1018900087E693E03BC12DB73EB7285030400FB6E6
:1018A000F8943EBF0FBE2DBF0DB71EB70F5F1F4F81
:1018B00076E5E72E73E0F72EADB7BEB71296FC9231
:1018C000EE92119780EE91E0F8019383828320914C
:1018D0003D0530913E05442737FD4095542F6091DA
:1018E0004A0570914B0580914C0590914D050E94E1
:1018F000641FD80114962D933D934D935C931797D5
:101900000E949D00EDB7FEB738960FB6F894FEBF63
:101910000FBEEDBF85E493E0B7012DC120914905CD
:10192000181619061CF481E090E007C0892B19F005
:101930008FEF9FEF02C080E090E0280F822F90E0B1
:10194000833091051CF081E090E004C0009711F411
:1019500082E090E0282F80934905813019F0823091
:1019600031F403C023E531E002C02FE431E000D0C0
:1019700000D000D0EDB7FEB731960AE913E0ADB75D
:10198000BEB712961C930E93119781EF91E093834B
:101990008283358324830E949D00EDB7FEB736967F
:1019A0000FB6F894FEBF0FBEEDBF89E893E0AEC05E
:1019B00020915605181619061CF481E090E007C026
:1019C000892B19F08FEF9FEF02C080E090E0281B79
:1019D00030E080915705482F50E08091580590E005
:1019E0008217930714F4CA0104C0241735070CF0BA
:1019F000C901282F80935605823069F0833018F48E
:101A0000813089F405C0833049F0843061F409C025
:101A10002EE131E008C020E031E005C02AE031E0ED
:101A200002C024E131E000D000D000D0EDB7FEB715
:101A300031960CEB13E0ADB7BEB712961C930E9324
:101A4000119781E092E093838283358324830E94FF
:101A50009D00EDB7FEB736960FB6F894FEBF0FBEE9
:101A6000EDBF8BEA93E052C0209159051816190674
:101A70001CF481E090E007C0892B19F08FEF9FEFF5
:101A800002C080E090E0281B30E080915A05482F8A
:101A900050E080915B0590E08217930714F4CA012F
:101AA00004C0241735070CF0C901282F809359056D
:101AB000823039F0833041F0813041F422E431E06A
:101AC00005C028E231E002C025E331E000D000D0BB
:101AD00000D0EDB7FEB731960EED13E0ADB7BEB74F
:101AE00012961C930E9311978BE092E0938382835E
:101AF000358324830E949D00EDB7FEB736960FB65E
:101B0000F894FEBF0FBEEDBF8DEC93E0B80133C07B
:101B100040915C05181619061CF421E030E007C05E
:101B2000892B19F02FEF3FEF02C020E030E0420F89
:101B3000242F30E0233031051CF021E030E005C0D7
:101B40002115310511F422E030E020935C052130AD
:101B500049F48EEB95E00E94A51282E192E060E0EC
:101B600074E009C08FEE93E061E174E004C083E2A9
:101B700092E064E372E00E94960508C085E492E07A
:101B800066E572E00E9496050E94AE0A1F910F91D1
:101B9000FF90EF900895CF93DF936091380580E038
:101BA00090E070E040E050E00E94D50A40C00E9402
:101BB0004906882329F40E944106882309F45EC05F
:101BC00066E970E080E090E00E94031821960E9490
:101BD0004106882339F080913805282F30E02150C4
:101BE00030400BC00E944906882309F43FC0809111
:101BF0003805282F30E02F5F3F4F80913A05482F5E
:101C000050E080913905682F70E06217730714F473
:101C1000BA0104C0241735070CF0B90160933805E8
:101C200080E090E01FC00E942C06882319F4C0E0D9
:101C3000D0E01CC066E970E080E090E00E940318EC
:101C400021960E942C06882329F0609138058FEF99
:101C50009FEF08C00E943406882341F06091380548
:101C600081E090E070E0AE010E94D50A88EE93E03A
:101C70000E944A07882309F09ACF05C00E943406C3
:101C80008823C1F6D0CFDF91CF9108958F929F9294
:101C9000AF92BF92CF92DF92EF92FF920F931F937A
:101CA000CF93DF93E62E4C0197FF04C0882499243C
:101CB000881A990A60E0181619060CF461E082E0AF
:101CC0000E9402196E2D70E080E090E00E94591D84
:101CD00020E030E048EC52E40E94C01C9B01AC01C3
:101CE00060E070E080E89FE30E94C01C20E030E0EC
:101CF0004CE852E40E94831E5B016C01C0E0D0E01E
:101D000015C083E061E00E940219C601B5010E947E
:101D10002D1D7B018C01CB010E945C1883E060E0EB
:101D20000E940219C7010E945C182196C815D905A6
:101D300044F3DF91CF911F910F91FF90EF90DF90CF
:101D4000CF90BF90AF909F908F900895CF92DF92E9
:101D5000EF92FF920F931F93CF93DF9388E894E065
:101D600069E974E00E94960501E010E084EFC82E56
:101D700081E0D82EB9E1EB2EF12CA8C080E00E94C2
:101D8000A118EC0181E00E94A1188F5F9340C1F57A
:101D900064EF71E080E090E00E94031881E00E940F
:101DA000A1188F5F934061F50F5F1F4FC8018170CD
:101DB000907000FF11C088E894E06BEB74E00E9423
:101DC000960568EE73E080E090E00E94031888E8D2
:101DD00094E069E974E012C0892B91F488E894E0FA
:101DE0006BEB74E00E94960568EE73E080E090E093
:101DF0000E94031888E894E06AEA74E00E9496055D
:101E000082E0CC30D80744F1C8018170907000FFA7
:101E100010C086E00E945619019709F457C0CB50B4
:101E2000D240CE9DC001CF9D900DDE9D900D11241E
:101E300045C0892B09F04AC084E00E9456190197D9
:101E400009F444C0CB50D240CE9DC001CF9D900D2F
:101E5000DE9D900D112419C021E0C43FD207B4F5D6
:101E6000C8018170907000FF17C084E00E9456196D
:101E7000019761F1C6018C1B9D0B9C012E9DC00139
:101E80002F9D900D3E9D900D112464EF71E00E94F6
:101E90002F1F8FEF9FEF18C0892BC1F486E00E949F
:101EA0005619019799F0C6018C1B9D0B9C012E9D24
:101EB000C0012F9D900D3E9D900D112464EF71E0A7
:101EC0000E942F1F81E090E00E94460E88EE93E072
:101ED0000E944A07882309F051CFDF91CF911F91CB
:101EE0000F91FF90EF90DF90CF9008958230910591
:101EF000A1F08330910501F1019769F58FED92E032
:101F000060EF72E00E94960564EC79E080E090E07A
:101F10000E9403180E94CB0D089586E694E067E7BF
:101F200074E00E94960564EC79E080E090E00E9405
:101F300003180E94A60E08958CEC94E06DED74E0F9
:101F40000E94960564EC79E080E090E00E9403181E
:101F50000E941A10089586E195E067E275E00E94FC
:101F6000960564EC79E080E090E00E9403180E94FE
:101F7000BA0F08954AC082E390E00E94520690E0B2
:101F80008330910531F480915F0590916005019750
:101F900007C0049749F480915F0590916005019610
:101FA0009093600580935F0520915F0530916005F7
:101FB000409161055091620580916305909164059F
:101FC0008217930714F4CA0104C0241735070CF0D4
:101FD000C9019093600580935F058230910531F0CF
:101FE0008330910549F0019751F403C06DEB72E025
:101FF00008C06CEA72E005C06EEC72E002C066E1F7
:1020000075E08BE992E00E94960562E370E080E063
:1020100090E042E050E00E94ED06882309F0ABCF4B
:1020200080915F05909160050E94760F08950E944F
:10203000BA0F08954F925F926F927F928F929F9204
:10204000AF92BF92CF92DF92FF920F931F93CF93E5
:10205000DF934EEE442E44E0542E37E6632E32E0FA
:10206000732E2FEFA22E24E0B22E98E7892E92E055
:10207000992E83C08EE00E94A118EC018FE00E948F
:10208000A1186C018AE00E945619182F84E00E9462
:102090005619082F86E00E945619F82E112319F4BC
:1020A00082E195E007C0113019F084E195E002C0AB
:1020B00080E195E02DB73EB7285030400FB6F89438
:1020C0003EBF0FBE2DBFEDB7FEB73196ADB7BEB761
:1020D00012965C924E92119773826282D583C4836A
:1020E000978386830E949D002DB73EB7285F3F4FA0
:1020F0000FB6F8943EBF0FBE2DBF013019F422E198
:1021000035E007C0002319F024E135E002C020E1EA
:1021100035E041E0F41619F482E195E007C0FF20B4
:1021200019F084E195E002C080E195E0ADB7BEB75B
:102130001A970FB6F894BEBF0FBEADBFEDB7FEB78E
:1021400031961296BC92AE92119793828282D5827A
:10215000C48237832683918780870E949D002DB794
:102160003EB7265F3F4F0FB6F8943EBF0FBE2DBF60
:102170008EEE94E0B5010E94960588EE93E00E94F1
:102180004A07882309F076CF0E94BA0FDF91CF91DA
:102190001F910F91FF90DF90CF90BF90AF909F90D5
:1021A0008F907F906F905F904F900895FC01138205
:1021B000128282E995E091838083618F178681E0A6
:1021C00084838FEF858382E0868383E0878384E046
:1021D000808785E0818786E082870895FC01818D74
:1021E0008F3F29F0CF014A960E94E4130895858914
:1021F0008F3F21F4862F642F0E94C3180895CF9338
:10220000DF93EC01898D8F3F29F0CE014A960E9421
:10221000BA132AC08D898F3F19F1288D413049F4B6
:1022200081E090E002C0880F991F6A95E2F7282BA1
:1022300009C081E090E002C0880F991F6A95E2F71B
:1022400080952823288F8F8960E00E9402198E894B
:102250006D8941E0288D0E94A9198F8961E002C033
:10226000862F642F0E940219DF91CF9108950F935A
:102270001F938C01F801668140E00E94FF1081E00D
:1022800090E00E945C18C801F801668141E00E945C
:10229000FF1081E090E00E945C18C801F80166819F
:1022A00040E00E94FF1084E690E00E945C181F91BD
:1022B0000F910895CF92DF92EF92FF920F931F93A9
:1022C000CF93DF93F82EE92E282F392FC9018C01E7
:1022D000C0E0D0E0C62EDD248F2D9E2DF801678151
:1022E00041E00E94EE10A6010C2E02C055954795C4
:1022F0000A94E2F741708F2D9E2DF80167810E94AC
:10230000FF1021960F5F1F4FC830D10529F78F2D81
:102310009E2D0E943711DF91CF911F910F91FF9059
:10232000EF90DF90CF900895AF92BF92CF92DF925F
:10233000EF92FF920F931F93CF93DF937C01B62E02
:10234000FC01818D8F3F09F468C08AE1C82ED12C31
:10235000CE0CDF1CC6010E94B613782FF70140E0B7
:1023600050E0AB2DB0E001E010E087819D01042E2C
:1023700002C0359527950A94E2F721703070082E37
:1023800002C0220F331F0A94E2F7C1E0D0E05801E7
:1023900002C0AA0CBB1C8A95E2F7C5018095782380
:1023A000722B4F5F5F4F319644305105F1F68E012D
:1023B000F701068002C0000F111F0A94E2F7009592
:1023C0000723C601602F0E94881381E090E00E94DD
:1023D0005C18CE01F701068002C0880F991F0A948D
:1023E000E2F7082BC601602F0E94881381E090E07D
:1023F0000E945C18F701068002C0CC0FDD1F0A9412
:10240000E2F75E01A0940A21C601602F0E948813A2
:1024100084E690E00E945C1821C08701C0E0D0E013
:10242000C62EDD24C701F801678141E00E94EE104D
:10243000A6010C2E02C0559547950A94E2F741700B
:10244000C701F80167810E94FF1021960F5F1F4F9F
:10245000C430D10539F7C7010E943711DF91CF9100
:102460001F910F91FF90EF90DF90CF90BF90AF90B2
:1024700008951F93CF93DF93EC01162F6C810E9478
:10248000FF106D816F3F21F0CE0140E00E94FF10F0
:102490008F8584FF05C0CE01612F0E945A110EC0A6
:1024A000612F70E094E0759567959A95E1F7CE01FC
:1024B0000E949411CE01612F0E949411DF91CF915F
:1024C0001F91089541E00E94391281E090E0089543
:1024D00040E00E9439120895FC016089862F8460D3
:1024E000808B6C60CF010E9468120895DF93CF93B8
:1024F000CDB7DEB728970FB6F894DEBF0FBECDBFBD
:102500009C01FE013196A6E9B5E088E00D900192AC
:102510008150E1F7F9018389841710F4482F415065
:10252000E42FF0E0EE0FFF1FEC0FFD1F8181680F1D
:102530006068C9010E94681228960FB6F894DEBF41
:102540000FBECDBFCF91DF91089561E00E94681268
:1025500080ED97E00E945C180895AF92BF92CF92F1
:10256000DF92EF92FF920F931F93CF93DF93EC01D3
:10257000B42EA22E698D6F3F71F17AE1E72EF12C16
:10258000E80EF91EC7010E941014C70167E041E080
:102590000E94E413C70167E041E00E94BA138E0174
:1025A00054E0C52ED12CCC0EDD1ECE01F801678182
:1025B00041E00E94EE100F5F1F4F0C151D05A9F79B
:1025C000C7016C8141E00E94E413C7016E8141E0C4
:1025D0000E94E41305C08D898F3F11F080E8888F39
:1025E000F1E0FB1518F48F8588608F87BB8A1C8A01
:1025F000AA2031F081E0B81619F48F8584608F87A6
:1026000080E593EC0E945C18CE016C8140E00E9452
:10261000FF10CE016E8140E00E94FF106D816F3F80
:1026200021F0CE0140E00E94FF106F8564FD1DC0C7
:10263000CE0163E00E94941184E991E10E945C184C
:10264000CE0163E00E94941184E991E10E945C183C
:10265000CE0163E00E94941186E990E00E945C182C
:10266000CE0162E00E94941116C06062CE010E9409
:10267000681284E991E10E945C186F856062CE0166
:102680000E94681286E990E00E945C186F85606283
:10269000CE010E9468126F856062CE010E946812AE
:1026A00084E0888BCE010E946C12CE010E94A5129C
:1026B00082E0898BCE0166E00E946812DF91CF91A3
:1026C0001F910F91FF90EF90DF90CF90BF90AF9050
:1026D0000895EF92FF920F931F93FC01F62EE42EC4
:1026E00007E216E060816062C80170E00E94601439
:1026F000C8016F2D0E94E214C8016E2D0E94E214E1
:10270000C8010E9425151F910F91FF90EF90089529
:10271000462F69E00E9469130895DF92EF92FF92BD
:102720000F931F937C01D62E07E216E0FC01608117
:102730006062C80170E00E946014C8016D2D0E94A3
:10274000E214C8010E942515F70160816062C8018A
:1027500070E041E050E00E943615C8010E947314F9
:102760001F910F91FF90EF90DF90089569E00E9414
:102770008D1308950F931F93CF93DF93EC01162FC2
:10278000042F6830E0F40E94B613282F013051F472
:1027900081E090E002C0880F991F1A95E2F7622F3E
:1027A000682B0AC081E090E002C0880F991F1A953B
:1027B000E2F7682F60956223CE010E948813DF91B3
:1027C000CF911F910F9108950F931F93CF93DF9394
:1027D000EC01162F042F6830F0F460E00E948D1396
:1027E000282F002351F481E090E002C0880F991F48
:1027F0001A95E2F7422F482B0AC081E090E002C010
:10280000880F991F1A95E2F7482F40954223CE0171
:1028100060E00E946913DF91CF911F910F9108959D
:10282000CF93DF93EC01683008F067E0688387E2BC
:1028300096E00E943A156881606287E296E070E057
:102840000E94601487E296E060E00E94E21487E252
:1028500096E06FEF0E94E21487E296E060E00E944B
:10286000E21487E296E060E00E94E21487E296E0DC
:1028700060E00E94E21487E296E060E00E94E214C9
:1028800087E296E060E00E94E21487E296E060E072
:102890000E94E21487E296E060E00E94E21487E280
:1028A00096E060E00E94E21487E296E060E00E9419
:1028B000E21487E296E00E942515DF91CF910895FA
:1028C00081E08093260660930306109224061092FE
:1028D000250608952091020630E080910106281B0C
:1028E0003109C901089540910106809102064817F7
:1028F00018F02FEF3FEF0AC0E42FF0E0EF51FA4F4E
:102900008081282F30E04F5F40930106C901089570
:10291000E091010680910206E81718F0EFEFFFEF53
:1029200006C0F0E0EF51FA4F8081E82FF0E0CF01D0
:102930000895089510922A061092290688EE93E0D1
:10294000A0E0B0E080932B0690932C06A0932D0678
:10295000B0932E0682EA95E090932806809327068E
:102960000895CF92DF92EF92FF920F931F93CF9330
:10297000DF937C016B018A01809126068823A1F0F8
:10298000C0E0D0E00DC0D701ED91FC91D601AC0FB5
:10299000BD1F0190F081E02DC7016C910995219632
:1029A000C017D10780F304C0CB01642F0E94E31548
:1029B000C801DF91CF911F910F91FF90EF90DF90B1
:1029C000CF900895DF93CF930F92CDB7DEB7FC0180
:1029D0006983809126068823C9F08091250680327C
:1029E00038F081E090E09383828320E030E015C0EE
:1029F00080912406E82FF0E0EC5FF94F99819083F5
:102A00008F5F809324068093250605C0CE01019632
:102A100061E00E94E31521E030E0C9010F90CF9101
:102A2000DF9108950F93062F8091030664E076E00E
:102A30004091250621E00E948E15109224061092E6
:102A40002506109226060F91089561E00E94121546
:102A50000895413208F040E2862F61EE75E00E9451
:102A600045151092010680930206089521E00E9408
:102A7000291508951092010610920206109224065C
:102A8000109225060E948F170895382F413210F0BA
:102A900040E042C0809133068823E1F791E09093B3
:102AA0003306209335068FEF8093A00610925B06C5
:102AB000415040935C064F5F9093340680913406FA
:102AC000330F832B8093340680913606813041F496
:102AD00010923606809134068093BB0085EC01C0CD
:102AE00085EE8093BC00809133068130E1F38091C4
:102AF0005B06841710F440915B0620E030E00AC0CA
:102B0000FB01E20FF31FD901A55CB94F8C918083C3
:102B10002F5F3F4F2417A0F3842F08950F931F9327
:102B2000582F122F413210F081E04AC080913306B5
:102B30008823E1F782E080933306009335068FEF18
:102B40008093A00610925B0640935C06ABE3B6E070
:102B5000FB0102C081918D938E2F861B8417D0F3C9
:102B60001092340680913406550F852B80933406DD
:102B700080913606813041F41092360680913406F9
:102B80008093BB0085EC01C085EE8093BC001123CF
:102B900021F0809133068230E1F38091A0068F3FCF
:102BA00011F480E00DC08091A006803211F482E023
:102BB00007C08091A006803311F084E001C083E05B
:102BC0001F910F910895482F613210F081E0089510
:102BD00080913306843011F082E0089560937E0680
:102BE000ADE5B6E0842F9C01F90102C081918D937F
:102BF0008E2F841B8617D0F380E008951F920F92CA
:102C00000FB60F9211242F933F934F935F936F93BF
:102C10007F938F939F93AF93BF93EF93FF93809195
:102C2000B90090E0887F90708036910509F4F2C079
:102C300081369105CCF58832910509F47BC0893243
:102C40009105B4F48031910509F46FC0813191058B
:102C50003CF4009709F447C1089709F04FC165C0DB
:102C60008831910509F466C0809709F047C182C098
:102C70008034910509F4A4C08134910544F4803373
:102C8000910509F482C0C89709F038C189C0803520
:102C9000910509F489C08835910509F496C08834F6
:102CA000910509F02BC1AEC08839910509F413C113
:102CB00089399105ECF48837910509F4ABC089375F
:102CC00091054CF48836910509F4A4C0803791052C
:102CD00009F014C19FC08838910509F4FCC08039FF
:102CE000910509F49DC08038910509F007C198C08D
:102CF000803B910509F4C6C0813B91054CF4803AB4
:102D0000910509F49FC0883A910509F0F7C0BAC04F
:102D1000803C910509F4E3C0883C910509F4DFC0CB
:102D2000883B910509F0EAC0C2C0809134068093C7
:102D3000BB00CFC090915B0680915C06981768F449
:102D400090915B06E92FF0E0E55CF94F808180937C
:102D5000BB009F5F90935B06BCC0809135068823C3
:102D600009F44BC085ED8093BC008091BC0084FDCC
:102D7000FCCFC2C080E28093A00685ED8093BC00AA
:102D80008091BC0084FDFCCFB7C080E38093A00697
:102D900085ED8093BC008091BC0084FDFCCFACC06D
:102DA00088E38093A0069BC080915B069091BB0056
:102DB000E82FF0E0E55CF94F90838F5F80935B062E
:102DC00090915B0680915C0682C080915B06909139
:102DD000BB00E82FF0E0E55CF94F90838F5F8093B4
:102DE0005B0680913506882341F085ED8093BC0019
:102DF0008091BC0084FDFCCF7FC081E080933606CB
:102E000084EA6EC085ED8093BC008091BC0084FD97
:102E1000FCCF72C083E08093330610929F0659C0A6
:102E200080919F06803208F056C080919F06909155
:102E3000BB00E82FF0E0E158F94F90838F5F80935B
:102E40009F0647C080919F06803230F4E0919F0634
:102E5000F0E0E158F94F108285ED8093BC0080913D
:102E6000BC0084FDFCCF1092330660919F06E09178
:102E70003906F0913A068FE796E070E009951092D6
:102E80009F062DC084E08093330610927D06109239
:102E90007E06E0913706F0913806099580917E060E
:102EA000882329F481E080937E0610925D0690913C
:102EB0007D06E92FF0E0E35AF94F80818093BB0053
:102EC0009F5F90937D0690917D0680917E06981776
:102ED00010F485EC01C085E88093BC000FC085EC40
:102EE0008093BC0009C01092A00685ED8093BC00C1
:102EF0008091BC0084FDFCCF10923306FF91EF91CE
:102F0000BF91AF919F918F917F916F915F914F9101
:102F10003F912F910F900FBE0F901F901895109218
:102F2000330681E0809335061092360682E161E037
:102F30000E94021983E161E00E940219E9EBF0E0CE
:102F400080818E7F808380818D7F808388E48093E1
:102F5000B80085E48093BC0008951F920F920FB6CD
:102F60000F9211242F933F938F939F93AF93BF930F
:102F70008091A5069091A606A091A706B091A806FB
:102F80003091A9060196A11DB11D232F2D5F2D376C
:102F900020F02D570196A11DB11D2093A906809305
:102FA000A5069093A606A093A706B093A8068091C5
:102FB000A1069091A206A091A306B091A406019645
:102FC000A11DB11D8093A1069093A206A093A30614
:102FD000B093A406BF91AF919F918F913F912F9194
:102FE0000F900FBE0F901F9018958FB7F8942091F7
:102FF000A5063091A6064091A7065091A8068FBF5E
:10300000B901CA0108959B01AC017FB7F894809182
:10301000A1069091A206A091A306B091A40666B560
:10302000A89B05C06F3F19F00196A11DB11D7FBF80
:10303000BA2FA92F982F8827860F911DA11DB11D8A
:1030400062E0880F991FAA1FBB1F6A95D1F7BC01C8
:103050002DC0FFB7F8948091A1069091A206A0918F
:10306000A306B091A406E6B5A89B05C0EF3F19F0F2
:103070000196A11DB11DFFBFBA2FA92F982F882738
:103080008E0F911DA11DB11DE2E0880F991FAA1F8F
:10309000BB1FEA95D1F7861B970B885E9340C8F259
:1030A000215030404040504068517C4F211531053F
:1030B0004105510571F60895019739F0880F991F60
:1030C000880F991F02970197F1F70895789484B5B6
:1030D000826084BD84B5816084BD85B5826085BD14
:1030E00085B5816085BDEEE6F0E0808181608083FA
:1030F000E1E8F0E0108280818260808380818160DD
:103100008083E0E8F0E0808181608083E1EBF0E0A3
:10311000808184608083E0EBF0E080818160808347
:10312000EAE7F0E080818460808380818260808330
:103130008081816080838081806880831092C1005B
:103140000895982F8E3008F09E50977080916505F5
:103150008295880F880F807C892B80937C008091DA
:103160007A00806480937A0080917A0086FDFCCF9B
:103170002091780040917900942F80E030E0282B56
:10318000392BC9010895CF93DF93482F50E0CA012E
:1031900088549F4FFC0134914C555F4FFA01849144
:1031A000882369F190E0880F991FFC01EA57FF4FCF
:1031B000A591B491FC01E057FF4FC591D4916623CE
:1031C00051F42FB7F8948C91932F909589238C9379
:1031D000888189230BC0623061F42FB7F8948C91F9
:1031E000932F909589238C938881832B88832FBF7D
:1031F00006C09FB7F8948C91832B8C939FBFDF916F
:10320000CF910895482F50E0CA0184539F4FFC018D
:103210002491CA0188549F4FFC0194914C555F4FF3
:10322000FA013491332309F440C0222351F12330B1
:1032300071F0243028F42130A1F0223011F514C0AF
:103240002630B1F02730C1F02430D9F404C0809189
:1032500080008F7703C0809180008F7D80938000F5
:1032600010C084B58F7702C084B58F7D84BD09C03E
:103270008091B0008F7703C08091B0008F7D8093E4
:10328000B000E32FF0E0EE0FFF1FE057FF4FA591D6
:10329000B4912FB7F894662321F48C9190958923EB
:1032A00002C08C91892B8C932FBF0895682F70E0FA
:1032B000CB0184539F4FFC012491CB0188549F4F35
:1032C000FC0144916C557F4FFB019491992319F4B3
:1032D00020E030E03CC0222351F1233071F0243053
:1032E00028F42130A1F0223011F514C02630B1F0BD
:1032F0002730C1F02430D9F404C0809180008F774A
:1033000003C0809180008F7D8093800010C084B5C1
:103310008F7702C084B58F7D84BD09C08091B000D5
:103320008F7703C08091B0008F7D8093B000892F8C
:1033300090E0880F991F86569F4FFC01A591B4918C
:103340008C9120E030E0842311F021E030E0C901CD
:103350000895BF92CF92DF92EF92FF920F931F9347
:10336000CF93DF93E82EF62EB42EC7E0D0E0022FE5
:1033700010E087E0C82ED12CBB2059F4B6016C1B9D
:103380007D0BC80102C0959587956A95E2F7BC014F
:1033900007C0B8010C2E02C0759567950A94E2F734
:1033A00061708E2D0E9402198F2D61E00E9402191A
:1033B0008F2D60E00E94021921979FEFCF3FD90720
:1033C000D9F6DF91CF911F910F91FF90EF90DF9091
:1033D000CF90BF90089508951F920F920FB60F924D
:1033E00011242F933F934F938F939F93EF93FF93CA
:1033F0008091C00082FD1DC04091C6002091EA0668
:103400003091EB062F5F3F4F2F7330708091EC06A9
:103410009091ED062817390771F0E091EA06F091D6
:10342000EB06E655F94F40833093EB062093EA060E
:1034300002C08091C600FF91EF919F918F914F91B3
:103440003F912F910F900FBE0F901F901895E09114
:103450003E07F0913F07E05CFF4F81919191208101
:103460003181821B930B8F739070892B11F00E9416
:10347000EB1908951F920F920FB60F9211242F93FC
:103480003F938F939F93EF93FF9320912E0730915B
:103490002F0780913007909131072817390731F4B1
:1034A0008091C1008F7D8093C10014C0E0913007EE
:1034B000F0913107E251F94F2081809130079091CE
:1034C000310701968F739070909331078093300786
:1034D0002093C600FF91EF919F918F913F912F9183
:1034E0000F900FBE0F901F901895AF92BF92DF9272
:1034F000EF92FF920F931F93CF93DF93EC017A012A
:103500008B01DD24403081EE580780E0680780E0C1
:10351000780711F0DD24D39491E0A92EB12CEC8929
:10352000FD89DD2069F0C50108A002C0880F991F40
:103530000A94E2F7808360E079E08DE390E005C0D3
:10354000108260E874E88EE190E0A80197010E9483
:10355000421F215030404040504056954795379586
:10356000279580E12030380720F0DD2011F0DD24A0
:10357000D6CFE889F9893083EA89FB89208319A2AB
:10358000EE89FF89408121E030E0C9010C8C02C046
:10359000880F991F0A94E2F7482B4083EE89FF8930
:1035A0004081C9010D8C02C0880F991F0A94E2F76F
:1035B000482B4083EE89FF894081C9010E8C02C0EF
:1035C000880F991F0A94E2F7482B4083EE89FF8900
:1035D00080810F8C02C0220F331F0A94E2F72095DE
:1035E00028232083DF91CF911F910F91FF90EF90BF
:1035F000DF90BF90AF900895DC011C96ED91FC9197
:103600001D97E05CFF4F2191319180819181281BB2
:10361000390B2F733070C9010895DC011C96ED91B0
:10362000FC911D97E05CFF4F20813181E054F04018
:10363000DF01AE5BBF4F8D919C9111972817390721
:1036400019F42FEF3FEF07C08D919C91E80FF91F00
:103650008081282F30E0C9010895DC011C96ED918E
:10366000FC911D97E05CFF4F20813181E054F040D8
:10367000DF01AE5BBF4F8D919C91119728173907E1
:1036800019F42FEF3FEF10C08D919C911197E80F27
:10369000F91F20818D919C91119701968F739070E5
:1036A00011969C938E9330E0C9010895DC019196A8
:1036B0008C919197882339F05496ED91FC91559710
:1036C000808186FFF9CF91961C920895CF93DF9366
:1036D000EC01EE85FF85E05CFF4F20813181E054F5
:1036E000F0402F5F3F4F2F733070DF01AE5BBF4F55
:1036F0008D919C91119728173907D1F3E05CFF4F0A
:1037000080819181E054F040E80FF91F6083EE85DD
:10371000FF85E05CFF4F31832083EE89FF892081A4
:1037200081E090E00F8C02C0880F991F0A94E2F7A5
:10373000282B208381E089A3EC89FD898081806426
:10374000808381E090E0DF91CF910895109235075A
:103750001092340788EE93E0A0E0B0E08093360743
:1037600090933707A0933807B093390782EB95E021
:1037700090933307809332078AEA96E090933F074D
:1037800080933E078EEE96E090934107809340072A
:1037900085EC90E0909343078093420784EC90E09F
:1037A000909345078093440780EC90E090934707FF
:1037B0008093460781EC90E09093490780934807F7
:1037C00082EC90E090934B0780934A0786EC90E060
:1037D00090934D0780934C0784E080934E0783E0DD
:1037E00080934F0787E08093500785E080935107CF
:1037F00081E0809352070895CF93DF930E9466186B
:103800000E94D505C7E2DAE10E9417102097E1F384
:103810000E94271AF9CFCF92DF92EF92FF920F9377
:103820001F93CF93DF937C016B018A01C0E0D0E04E
:103830000FC0D6016D916D01D701ED91FC91019002
:10384000F081E02DC7010995C80FD91F0150104024
:103850000115110571F7CE01DF91CF911F910F91E5
:10386000FF90EF90DF90CF900895CF93DF93EC011E
:103870006115710519F420E030E00FC0DB010D90F7
:103880000020E9F71197A61BB70BE881F9810280A8
:10389000F381E02DAD0109959C01C901DF91CF9124
:1038A00008950E94351C08955058BB27AA270ED0B2
:1038B000DFC19FD130F0A4D120F031F49F3F11F44B
:1038C0001EF45EC10EF4E095E7FB54C1E92FF2D17E
:1038D00080F3BA17620773078407950718F071F42D
:1038E0009EF50AC20EF4E0950B2EBA2FA02D0B0107
:1038F000B90190010C01CA01A0011124FF27591B35
:1039000099F0593F50F4503E68F11A16F040A22F3A
:10391000232F342F4427585FF3CF469537952795AB
:10392000A795F0405395C9F77EF41F16BA0B620BAA
:10393000730B840BBAF09150A1F0FF0FBB1F661FF1
:10394000771F881FC2F70EC0BA0F621F731F841F34
:1039500048F4879577956795B795F7959E3F08F05A
:10396000B3CF9395880F08F09927EE0F9795879519
:103970000895DCD008F481E008954AD1E39589C127
:103980000CD076C13DD140F034D130F021F45F3F0E
:1039900019F0F0C05111B1C1F3C08CD198F3992343
:1039A000C9F35523B1F3951B550BBB27AA27621703
:1039B0007307840738F09F5F5F4F220F331F441F48
:1039C000AA1FA9F333D00E2E3AF0E0E830D0915080
:1039D0005040E695001CCAF729D0FE2F27D0660F6D
:1039E000771F881FBB1F261737074807AB07B0E8AC
:1039F00009F0BB0B802DBF01FF2793585F4F2AF0C2
:103A00009E3F510568F0B6C078C15F3FECF3983E29
:103A1000DCF3869577956795B795F7959F5FC9F71E
:103A2000880F911D9695879597F90895E1E0660FA7
:103A3000771F881FBB1F621773078407BA0720F020
:103A4000621B730B840BBA0BEE1F88F7E095089589
:103A500004D06894B11151C1089534D188F09F57B2
:103A600090F0B92F9927B751A0F0D1F0660F771FCA
:103A7000881F991F1AF0BA95C9F712C0B13081F0AA
:103A80003BD1B1E0089538C1672F782F8827B85F00
:103A900039F0B93FCCF3869577956795B395D9F70B
:103AA0003EF490958095709561957F4F8F4F9F4F15
:103AB0000895E89409C097FB3EF490958095709521
:103AC00061957F4F8F4F9F4F9923A9F0F92F96E96A
:103AD000BB279395F695879577956795B795F111DF
:103AE000F8CFFAF4BB0F11F460FF1BC06F5F7F4F7C
:103AF0008F4F9F4F16C0882311F096E911C077238E
:103B000021F09EE8872F762F05C0662371F096E896
:103B1000862F70E060E02AF09A95660F771F881F65
:103B2000DAF7880F9695879597F90895990F000809
:103B3000550FAA0BE0E8FEEF16161706E807F9077F
:103B4000C0F012161306E407F50798F0621B730B1A
:103B5000840B950B39F40A2661F0232B242B252B9B
:103B600021F408950A2609F4A140A6958FEF811D3E
:103B7000811D089597F99F6780E870E060E00895DF
:103B80009FEF80EC0895DF93CF931F930F93FF92E5
:103B9000EF92DF927B018C01689405C0DA2EEF0171
:103BA000BED0FE01E894A59125913591459155919E
:103BB000AEF3EF018BDEFE019701A801DA9479F7ED
:103BC000DF90EF90FF900F911F91CF91DF910895BB
:103BD0009F938F937F936F93FF93EF939B01AC0120
:103BE00092D0EF91FF91CFDF2F913F914F915F9155
:103BF0008AC000240A9416161706180609060895A6
:103C000000240A9412161306140605060895B8CF68
:103C100059D0E8F3E894EFEFBB273FE048EC5FE7CB
:103C20006B3D73078407950708F1FF279F57B25A2A
:103C30006A4D7F40894CF04032F4BE556542704F6A
:103C40008643FF4F0894EE1F915030F0BB0F661F64
:103C5000771F881FFF1FEBCF9EE7882332F0BB0F33
:103C6000661F771F881F9A95C1F79395E095B4C09A
:103C7000092E0394000C11F4882352F0BB0F40F47A
:103C8000BF2B11F460FF04C06F5F7F4F8F4F9F4FBA
:103C90000895EF93E0FF06C0A2EA2AED3FE049EC69
:103CA0005FEB14DEE5DF0F90039401FC9058E8E62B
:103CB000F0E08ECF57FD9058440F551F59F05F3FED
:103CC00071F04795880F97FB991F61F09F3F79F03E
:103CD00087950895121613061406551FF2CF4695C0
:103CE000F1DF08C0161617061806991FF1CF869542
:103CF0007105610508940895E894BB276627772726
:103D0000CB0197F908950BD0B3CF73DF28F078DF9C
:103D100018F0952309F02ECF33CF1124EECFCADF50
:103D2000A0F3959FD1F3950F50E0551F629FF001CE
:103D3000729FBB27F00DB11D639FAA27F00DB11D27
:103D4000AA1F649F6627B00DA11D661F829F2227B0
:103D5000B00DA11D621F739FB00DA11D621F839F37
:103D6000A00D611D221F749F3327A00D611D231F0D
:103D7000849F600D211D822F762F6A2F11249F575B
:103D800050408AF0E1F088234AF0EE0FFF1FBB1F7E
:103D9000661F771F881F91505040A9F79E3F51051D
:103DA00070F0E8CEAACF5F3FECF3983EDCF3869547
:103DB00077956795B795F795E7959F5FC1F7FE2BC8
:103DC000880F911D9695879597F908959F9320DF09
:103DD0000F9007FCEE5F5DCF9F3F49F0915028F4B4
:103DE000869577956795B7959F5F80389F4F880F29
:103DF0009695879597F90895629FD001739FF0017A
:103E0000829FE00DF11D649FE00DF11D929FF00D6A
:103E1000839FF00D749FF00D659FF00D9927729FA1
:103E2000B00DE11DF91F639FB00DE11DF91FBD012C
:103E3000CF0111240895AA1BBB1B51E107C0AA1F83
:103E4000BB1FA617B70710F0A61BB70B881F991F3B
:103E50005A95A9F780959095BC01CD01089597FBDF
:103E6000092E07260AD077FD04D0E5DF06D0002012
:103E70001AF4709561957F4F0895F6F790958195A6
:103E80009F4F0895A1E21A2EAA1BBB1BFD010DC076
:103E9000AA1FBB1FEE1FFF1FA217B307E407F507FA
:103EA00020F0A21BB30BE40BF50B661F771F881FD6
:103EB000991F1A9469F760957095809590959B016C
:103EC000AC01BD01CF01089597FB092E05260ED048
:103ED00057FD04D0D7DF0AD0001C38F45095409528
:103EE000309521953F4F4F4F5F4F0895F6F79095CE
:103EF0008095709561957F4F8F4F9F4F0895EE0F7E
:103F0000FF1F0590F491E02D09942F923F924F925C
:103F10005F926F927F928F929F92AF92BF92CF9259
:103F2000DF92EF92FF920F931F93CF93DF93CDB762
:103F3000DEB7CA1BDB0B0FB6F894DEBF0FBECDBFDA
:103F400009942A88398848885F846E847D848C84AB
:103F50009B84AA84B984C884DF80EE80FD800C81B4
:103F60001B81AA81B981CE0FD11D0FB6F894DEBF97
:0C3F70000FBECDBFED010895F894FFCF07
:103F7C00322E2051756164202000332E2053696E3F
:103F8C0065202000342E2043756269632000312E99
:103F9C00204C696E65617200322E2045617365207C
:103FAC004F75742000332E2045617365496E4F7533
:103FBC007400312E204561736520496E2020004E1F
:103FCC006F200059657300426567696E6E696E6794
:103FDC002053657269616C2100202020536C696448
:103FEC00656C61707365002056657273696F6E2025
:103FFC00302E332E300020202020002020202020A6
:10400C0020202020202020202020200050726F67AC
:10401C00726573733A2025303264252520200025E3
:10402C00303464202020202020202020202020003C
:10403C0025303464206D696E757465732020200002
:10404C0025303275207365636F6E647320202000F9
:10405C0025303464207365636F6E647320202020D8
:10406C00002573202020202020202020202020200C
:10407C0000257320202020202020002573202020C4
:10408C0020004D6F76656D656E74204469723A2020
:10409C002020004D6F766520526967687420746F1C
:1040AC002020200073746172742074696D656C61DA
:1040BC007073653E005374617274696E6720544C62
:1040CC002E2E2E20200053656C20746F2063616EA1
:1040DC0063656C20202000583A2534642053656CAD
:1040EC003A25732020202000593A253464204D3A7B
:1040FC00257320453A25732020004D6178204C65AE
:10410C006E3A2530356C642020200053656C656355
:10411C0074204D6F64653A2020202000312E5469A4
:10412C006D656C61707365202020203E00322E433B
:10413C006F6D6D616E646572202020203E00332E01
:10414C00446562756720202020202020203E003E00
:10415C003E3E2054696D656C6170736520202000B3
:10416C00486F6C642053656C20746F20657869749B
:10417C00004E756D626572206F662053686F7473A4
:10418C003A000000000000000000000000000000E9
:10419C00000000544C204475726174696F6E3A20B3
:1041AC0020202000000000000000000000000000A3
:1041BC00000000000041766720496E7465727661DC
:1041CC006C3A2020200000000000000000000000DD
:1041DC00000000000000004C6F6E67657374205384
:1041EC006875747465723A000000000000000000ED
:1041FC00000000000000000000536C656570206238
:10420C0074772073686F7473200000000000000046
:10421C000000000000000000000000456173696EA2
:10422C00672066756E6374696F6E3A00000000005B
:10423C000000000000000000000000000045617359
:10424C00696E672043757276653A20202000000065
:10425C000000000000000000000000000000004D05
:10426C006F76656D656E74204469723A202020006B
:10427C004D6F746F72202D2D2D2D2D3E20456E64AB
:10428C0000456E64202D2D2D2D2D3E204D6F746F0D
:10429C00720054696D656C6170736520616374693B
:1042AC007665000000000000000000000000000027
:1042BC000000000054696D656C6170736520446F7B
:1042CC006E65202000486F6C642053656C20746F01
:1042DC002065786974003E3E3E20436F6D6D616EC3
:1042EC0064657220202000486F6C642053656C203C
:1042FC00746F2065786974002020436F6D6D616E5A
:10430C0064204D6F64652020004D6F746F72203CEB
:10431C002D2D2D2D3E20456E6400456E64203C2DC8
:10432C002D2D2D3E204D6F746F7200526576657287
:10433C0073696E6720446972203C3E003E3E3E200D
:10434C004465627567204D6F6465202000486F6C72
:10435C00642053656C20746F2065786974000000CC
:10436C000000000000000000000000000000000041
:10437C000000000000000000000000000000000031
:10438C004F00500058003E3E3E204552524F5220A6
:10439C002020202020200052657475726E696E6793
:1043AC0020486F6D65202000010A01F08714000F72
:1043BC00270500E8036400307501780000003C001C
:1043CC000000805101000101040101030100020100
:1043DC00000100030001000000003F0367039B0382
:1043EC00000000003E033E033E03000000002F04CB
:1043FC0053048A040000000044056D050405000008
:10440C00000062120B1C000040001400540000005D
:10441C000000E214B1146A14731488149914000087
:0E442C000000661B0B1CFC1A2D1B0D1B561BE3
:00000001FF
