:100000000C9472000C949A000C949A000C949A0030
:100010000C949A000C949A000C949A000C949A00F8
:100020000C949A000C949A000C949A000C949A00E8
:100030000C949A000C949A000C949A000C949A00D8
:100040000C94A8210C949A000C949A000C949A0099
:100050000C949A000C949A000C949A000C949A00B8
:100060000C94F91F0C949A0005A84CCDB2D44EB94B
:100070003836A9020C50B9918688083CA6AAAA2A4B
:10008000BE000000803F00000000240027002A007E
:1000900000000000250028002B00000000002300C5
:1000A00026002900040404040404040402020202D9
:1000B000020203030303030301020408102040802B
:1000C00001020408102001020408102000000007AB
:1000D0000002010000030406000000000000000010
:1000E0008A05951E11241FBECFEFD8E0DEBFCDBF1D
:1000F00017E0A0E0B1E0E0E5FFE402C005900D925A
:10010000A438B107D9F718E0A4E8B7E001C01D9200
:10011000A137B107E1F710E0C4EED0E004C02297A8
:10012000FE010E946B27C03ED107C9F70E94E6235B
:100130000C94A6270C940000AEE0B0E0E2EAF0E0F8
:100140000C947D270D891E8986E08C831A83098390
:100150008FEF9FE79E838D839E01275E3F4FCE01E9
:1001600001966F89788DA9010E94C0002F81388582
:10017000020F131FF80110822E96E4E00C949927C9
:10018000ABE0B0E0E6ECF0E00C946F273C012B0113
:100190005A01FC0117821682838181FD03C06FEF33
:1001A0007FEFC6C19AE0892E1E010894211C311CE4
:1001B000F3012381F20123FD859123FF81912F011A
:1001C000882309F4B2C1853239F423FD859123FFD8
:1001D00081912F01853229F490E0B3010E94B3028E
:1001E000E7CF982FFF24EE249924FFE1FF15D0F0EC
:1001F0009B3269F09C3228F4903259F0933291F49A
:100200000EC09D3249F0903369F441E024C052E0C1
:10021000F52A84E0F82A28C098E0F92A25C0E0E110
:10022000FE2A22C0F7FC29C0892F80538A3070F43F
:10023000F6FE05C0989C902C1124980E15C0E89CE1
:10024000E02C1124E80EF0E2FF2A0EC09E3229F4C1
:10025000F6FC6BC140E4F42A07C09C3619F450E860
:10026000F52A02C0983649F4F20123FD959123FF47
:1002700091912F01992309F0B8CF892F85548330AC
:1002800018F08052833038F444E050E0A40EB51EDC
:100290005FE359830FC0933631F0933779F093358C
:1002A00009F056C020C0F5018081898342E050E00A
:1002B000A40EB51E610101E010E012C0F501C0807E
:1002C000D180F6FC03C06FEF7FEF02C0692D70E0B4
:1002D00042E050E0A40EB51EC6010E94A8028C01A7
:1002E0005FE7F52214C0F501C080D180F6FC03C0A1
:1002F0006FEF7FEF02C0692D70E042E050E0A40E86
:10030000B51EC6010E949D028C0150E8F52AF3FE3D
:1003100007C01AC080E290E0B3010E94B302EA94E1
:100320008E2D90E008171907A8F30EC0F601F7FC10
:100330008591F7FE81916F0190E0B3010E94B302B5
:10034000E110EA94015010400115110579F7EAC057
:10035000943611F0993669F5F7FE08C0F501208151
:1003600031814281538184E090E00AC0F5018081AF
:1003700091819C01442737FD4095542F82E090E005
:10038000A80EB91E9FE6F92257FF09C05095409567
:10039000309521953F4F4F4F5F4FE0E8FE2ACA014D
:1003A000B901A1012AE030E00E94DF02D82ED21864
:1003B00040C0953729F41F2D1F7E2AE030E01DC074
:1003C0001F2D197F9F3661F0903720F4983509F082
:1003D000ACC00FC0903739F0983709F0A6C004C000
:1003E00028E030E00AC0106114FD146020E130E024
:1003F00004C014FD166020E132E017FF08C0F501CB
:10040000608171818281938144E050E008C0F501F0
:1004100080819181BC0180E090E042E050E0A40E38
:10042000B51EA1010E94DF02D82ED2188FE7F82E48
:10043000F122F6FE0BC05EEFF522D91438F4F4FE7B
:1004400007C0F2FC05C08FEEF82202C01D2D01C0CE
:10045000192DF4FE0DC0FE01ED0DF11D80818033DC
:1004600019F499EEF92208C01F5FF2FE05C003C01F
:100470008F2D867809F01F5F0F2DF3FC14C0F0FE5E
:100480000FC01E1510F09D2C0BC09D2C9E0C911AB8
:100490001E2D06C080E290E0B3010E94B3021F5FF0
:1004A0001E15C0F304C01E1510F4E11A01C0EE249D
:1004B00004FF0FC080E390E0B3010E94B30202FF8B
:1004C0001DC001FD03C088E790E00EC088E590E004
:1004D0000BC0802F867891F001FF02C08BE201C033
:1004E00080E2F7FC8DE290E0B3010E94B30206C007
:1004F00080E390E0B3010E94B3029A94D914C0F350
:10050000DA94F101ED0DF11D808190E0B3010E94BC
:10051000B302DD20A9F706C080E290E0B3010E949B
:10052000B302EA94EE20C1F743CEF30166817781EE
:10053000CB012B96E2E10C948B27FC0105906150D6
:1005400070400110D8F7809590958E0F9F1F0895E9
:10055000FC016150704001900110D8F78095909592
:100560008E0F9F1F08950F931F93CF93DF938C01DE
:10057000EB018B8181FF1BC082FF0DC02E813F816B
:100580008C819D812817390764F4E881F9810193F2
:10059000F983E88306C0E885F985802F0995892BC2
:1005A00031F48E819F8101969F838E8302C00FEF6D
:1005B0001FEFC801DF91CF911F910F910895FA01AC
:1005C000AA27283051F1203181F1E8946F936E7F92
:1005D0006E5F7F4F8F4F9F4FAF4FB1E03ED0B4E083
:1005E0003CD0670F781F891F9A1FA11D680F791FC4
:1005F0008A1F911DA11D6A0F711D811D911DA11DD5
:1006000020D009F468943F912AE0269F11243019E4
:10061000305D3193DEF6CF010895462F4770405D7F
:100620004193B3E00FD0C9F7F6CF462F4F70405D2E
:100630004A3318F0495D31FD4052419302D0A9F789
:10064000EACFB4E0A6959795879577956795BA9583
:10065000C9F700976105710508959B01AC010A2E49
:1006600006945795479537952795BA95C9F7620F20
:10067000731F841F951FA01D08950895CF92DF92C8
:10068000EF92FF920F931F936C01CB01BA01F60119
:1006900026813781408551850E94AA247B018C01E7
:1006A000F60122813381448155810E946D26A80183
:1006B00097010E946D26A80197010E946D261F9147
:1006C0000F91FF90EF90DF90CF900895CF92DF923F
:1006D000EF92FF920F931F936C01CB01BA01F601C9
:1006E00026813781408551850E94AA2420E030E090
:1006F00040E85FE30E943E247B018C01A801970142
:100700000E946D26A80197010E946D2620E030E02E
:1007100040E85FE30E943F24F60122813381448157
:1007200055810E946D261F910F91FF90EF90DF90F1
:10073000CF900895AF92BF92CF92DF92EF92FF9247
:100740000F931F93CF93DF93EC017A018B016E819E
:100750007F818885998520E030E040E05FE30E945A
:100760006D269B01AC01C801B7010E94AA247B0140
:100770008C0120E030E040E85FE30E94A32488235E
:10078000ACF46A817B818C819D8120E030E040E087
:100790005FE30E946D26A80197010E946D26A801C3
:1007A00097010E946D26A80197012AC0C801B701D0
:1007B00020E030E040E050E40E943E247B018C01C8
:1007C0006A817B818C819D8120E030E040E05FE3A5
:1007D0000E946D265B016C01C801B701A801970159
:1007E0000E946D26A80197010E946D2620E030E04E
:1007F00040E050E40E943F249B01AC01C601B501DA
:100800000E946D26E62F2E2F372F482F592FB90122
:10081000CA01DF91CF911F910F91FF90EF90DF9070
:10082000CF90BF90AF900895FC0189E497E0918349
:10083000808380E090E0A0E0B0E082839383A48393
:10084000B5830895FC0146835783608771870895B7
:10085000FC0142835383648375830895CF92DF92B2
:10086000EF92FF920F931F936C01CB01BA01F60137
:1008700026813781408551850E94AA247B018C0105
:10088000F60122813381448155810E946D26A801A1
:1008900097010E946D261F910F91FF90EF90DF90BE
:1008A000CF900895AF92BF92CF92DF92EF92FF92D6
:1008B0000F931F936C01CB01BA01F601268137819A
:1008C000408551850E94AA247B018C01F60162813A
:1008D0007381848195819058A80197010E946D26AB
:1008E0005B016C01C801B70120E030E040E050E45A
:1008F0000E943E249B01AC01C601B5010E946D26F9
:100900001F910F91FF90EF90DF90CF90BF90AF902D
:100910000895AF92BF92CF92DF92EF92FF920F9322
:100920001F93CF93DF93EC017A018B016E817F815E
:100930008885998520E030E040E05FE30E946D26E5
:100940009B01AC01C801B7010E94AA247B018C0164
:1009500020E030E040E85FE30E94A32488238CF489
:100960006A817B818C819D8120E030E040E05FE303
:100970000E946D26A80197010E946D26A80197018B
:100980002EC0C801B70120E030E040E85FE30E94DC
:100990003E247B018C016A817B818C819D8120E0DA
:1009A00030E040E05FEB0E946D265B016C01C80106
:1009B000B70120E030E040E050E40E943E249B017B
:1009C000AC01C801B7010E946D2620E030E040E88C
:1009D0005FE30E943E249B01AC01C601B5010E9469
:1009E0006D26E62F2E2F372F482F592FB901CA0118
:1009F000DF91CF911F910F91FF90EF90DF90CF90FB
:100A0000BF90AF900895AF92BF92CF92DF92EF92D6
:100A1000FF920F931F936C01CB01BA012BED3FE0C6
:100A200049E450E40E946D26F60126813781408515
:100A300051850E94AA240E94A7247B018C01F60103
:100A4000628173818481958120E030E040E05FEB3A
:100A50000E946D265B016C01C801B70120E030E007
:100A600040E85FE30E943E249B01AC01C601B50152
:100A70000E946D261F910F91FF90EF90DF90CF9015
:100A8000BF90AF900895EF92FF920F931F93FC01D8
:100A9000E280F38004811581CB01BA012681378180
:100AA000408551850E94AA242BED3FE049EC5FE38D
:100AB0000E946D260E94A7249B01AC01C801B701CA
:100AC00090580E946D26A80197010E943F241F9113
:100AD0000F91FF90EF9008950F931F938C01CB011E
:100AE000BA01F80126813781408551850E94AA24E8
:100AF0002BED3FE049EC5FE30E946D260E94D0267B
:100B0000F80122813381448155810E946D261F9115
:100B10000F91089584E897E060E00E94C41A089558
:100B200089E060E00E94FD220895CF92DF92EF926B
:100B3000FF920F931F938C016B0184E8E82E87E0EE
:100B4000F82EC70160E040E00E94641CC701B801B4
:100B50000E943B24C70160E041E00E94641CC70181
:100B6000B6010E943B241F910F91FF90EF90DF9000
:100B7000CF90089587E061E00E94FD2266E970E071
:100B800080E090E00E94FE2187E060E00E94FD226C
:100B9000089589E061E00E94FD2262E070E080E05B
:100BA00090E00E94FE2108950F931F9382E061E080
:100BB0000E94BE2283E061E00E94BE2289E061E0E3
:100BC0000E94BE2289E061E00E94FD2287E061E090
:100BD0000E94BE2204E817E0C80160E142E020E084
:100BE0000E94A81CC80165E771E00E943B24C8016F
:100BF00060E041E00E94641CC80163E871E00E946B
:100C00003B2468EB7BE080E090E00E94FE21C8017D
:100C10000E94931C6091DD0687EA97E070E00E94D5
:100C2000B11A8093DE068AE062E00E94BE2284E070
:100C300060E00E94BE2286E060E00E94BE221F911A
:100C40000F91089581E00E949C2208950E9422063F
:100C500020E0C2970CF421E0822F08950E94220622
:100C600020E0895E93400CF021E0822F089580E01F
:100C70000E949C2208950E94370620E0C2970CF43F
:100C800021E0822F08950E94370620E0895E93407C
:100C90000CF021E0822F0895CF93DF93EC0180E0E8
:100CA0000E949C228955924084F0BE01882777FDDE
:100CB0008095982F0E94FE2180E00E949C228955F9
:100CC00092400CF442C022E041C080E00E949C228D
:100CD0008059914084F4BE01882777FD8095982F34
:100CE0000E94FE2180E00E949C2220E080599140D9
:100CF0006CF521E02BC081E00E949C228955924036
:100D00007CF0BE01882777FD8095982F0E94FE21F8
:100D100081E00E949C2289559240BCF023E016C0DD
:100D200081E00E949C22805991407CF4BE0188277A
:100D300077FD8095982F0E94FE2181E00E949C22E1
:100D40008059914014F424E001C020E0822FDF910B
:100D5000CF9108958AE00E94512320E0892B09F465
:100D600021E0822F0895AF92BF92CF92DF92EF924F
:100D7000FF920F931F937A0100D000D000D0CDB620
:100D8000DEB60894C11CD11C2FE3A22E25E0B22EA2
:100D9000EDB7FEB7B282A18228EA31E0F6013383D3
:100DA000228324E630E040E050E00E94E62600275F
:100DB000F7FC0095102FA80197010E942C27F6013F
:100DC000358324830E949C008DB79EB706960FB68C
:100DD000F8949EBF0FBE8DBF8EE295E0B5010E94D4
:100DE00095051F910F91FF90EF90DF90CF90BF90EE
:100DF000AF900895EF92FF920F931F937B018C01A8
:100E00009A01CA010197029710F480E006C02350AE
:100E100030402230310538F481E00E949C229093CA
:100E20003307809332078091320790913307825CB9
:100E300091408536910560F18091A3079091A407B8
:100E4000A091A507B091A6070097A105B105A9F04B
:100E50000E94F021E0E02091A3073091A407409187
:100E6000A5075091A607621B730B840B950BE61622
:100E7000F70608071907A8F013C00E94F021609335
:100E8000A3077093A4078093A5079093A60708C0B3
:100E90001092A3071092A4071092A5071092A6071C
:100EA000E1E08E2F1F910F91FF90EF900895CF9367
:100EB000DF93EC018AE00E945123882389F5809119
:100EC0009F079091A007A091A107B091A20700975A
:100ED000A105B105D1F00E94F021E0E020919F072B
:100EE0003091A0074091A1075091A207621B730B9C
:100EF000840B950B9E01442737FD4095542F2617F0
:100F0000370748075907A8F013C00E94F0216093E3
:100F10009F077093A0078093A1079093A20708C032
:100F200010929F071092A0071092A1071092A2079B
:100F3000E1E08E2FDF91CF910895CF92DF92EF9273
:100F4000FF920F931F93CF93DF93D090DE068D2DEA
:100F500090E08130910519F484E691E005C082307B
:100F6000910511F487E591E02DB73EB72850304048
:100F70000FB6F8943EBF0FBE2DBFEDB7FEB731964A
:100F800008ED15E0ADB7BEB712961C930E931197FE
:100F90003BEBE32E31E0F32EF382E28295838483F0
:100FA00083E791E0978386830E949C002DB73EB72C
:100FB000285F3F4F0FB6F8943EBF0FBE2DBF87ECA2
:100FC00095E0B8010E949505C02E012F1E2DEF2C33
:100FD00074C00E942E06882329F40E9426068823C6
:100FE00009F46BC066E970E080E090E00E94FE21A9
:100FF0000E942E06882379F0D3944D2D50E0433083
:1010000051051CF041E050E005C04115510511F4B7
:1010100042E050E0D42E0E942606882379F0DA942C
:101020004D2D50E0433051051CF041E050E005C02B
:101030004115510511F442E050E0D42E2D2D30E041
:101040002130310519F4C4E6D1E005C02230310564
:1010500011F4C7E5D1E08091DE0690E0281739074A
:1010600019F081E791E002C083E791E0ADB7BEB728
:1010700018970FB6F894BEBF0FBEADBFEDB7FEB761
:1010800031961196CC92119712960C931283E382AB
:10109000D583C483978386830E949C002DB73EB777
:1010A000285F3F4F0FB6F8943EBF0FBE2DBF87ECB1
:1010B00095E06C2D702F0E94950588EE93E00E94BC
:1010C0005707882309F085CF8091DE06D81651F0A6
:1010D000D092DE066091DD0687EA97E070E04D2D44
:1010E0000E94B81ADF91CF911F910F91FF90EF905E
:1010F000DF90CF9008956F927F928F929F92AF92E0
:10110000BF92CF92DF92EF92FF920F931F93CF93F4
:10111000DF93E62E3C0197FF04C066247724681A0B
:10112000790A60E0181619060CF461E082E00E946A
:10113000FD226E2D70E080E090E00E94432520E0CB
:1011400030E048EC52E40E94AA249B01AC0160E02C
:1011500070E080E89FE30E94AA2420E030E04CE8A1
:1011600052E40E946D267B018C0143019594879483
:1011700095948794B401660F771F660F771F680DEB
:10118000791D882777FD8095982F0E9445259B0122
:10119000AC01C801B7010E943F245B016C01C0E0B3
:1011A000D0E01FC0C601B50120E030E040EA50E4C5
:1011B0000E943E245B016C0183E061E00E94FD22FD
:1011C000C601B5010E9417257B018C01CB010E944D
:1011D000572283E060E00E94FD22C7010E9457224F
:1011E0002196C815D905F4F2C401880F991F681A11
:1011F000790AC0E0D0E015C083E061E00E94FD22E2
:10120000C601B5010E9417257B018C01CB010E940C
:10121000572283E060E00E94FD22C7010E9457220E
:101220002196C615D70544F3C0E0D0E01FC0C60123
:10123000B50120E030E040EA50E40E943F245B0129
:101240006C0183E061E00E94FD22C601B5010E94AD
:1012500017257B018C01CB010E94572283E060E0BF
:101260000E94FD22C7010E9457222196C815D90568
:10127000F4F2DF91CF911F910F91FF90EF90DF90EB
:10128000CF90BF90AF909F908F907F906F90089578
:101290002F923F924F925F926F927F928F929F9286
:1012A000AF92BF92CF92DF92EF92FF920F931F9374
:1012B000DF93CF93CDB7DEB7CE54D0400FB6F894BE
:1012C000DEBF0FBECDBF2F968FAF2F971B01CA0178
:1012D000B90128EE33E040E050E00E94E6262E9669
:1012E0006CAF7DAF8EAF9FAF2E978E010F5F1F4FFC
:1012F000C8010E941404F3E5EF2EF7E0FF2EFA82F6
:10130000E982B101882777FD8095982F0E944525B5
:101310004B015C01C801B501A4010E942204609147
:10132000E2067091E30680E090E00E944325AB0165
:10133000BC01C8010E9428048E01055F1F4FC8012F
:101340000E941404EDE54E2EE7E05E2E5C864B868F
:10135000C801B501A4010E9422046091E2067091C7
:10136000E30680E090E00E944325AB01BC01C80188
:101370000E9428048E010B5E1F4FC8010E941404B6
:101380007FE3672E77E0772E7E8A6D8AC801B501EC
:10139000A4010E9422046091E2067091E30680E0BD
:1013A00090E00E944325AB01BC01C8010E942804C3
:1013B0008E01015E1F4FC8010E941404F8A2EF8E37
:1013C000C801B501A4010E9422042E966CAD7DAD2A
:1013D0008EAD9FAD2E970E9443256B017C01C80105
:1013E000B701A6010E9428048E01075D1F4FC801A6
:1013F0000E9414045AA649A6C801B501A4010E947E
:101400002204C801B701A6010E9428048E010D5CC8
:101410001F4FC8010E9414047CAA6BAAC801B50121
:10142000A4010E942204C801B701A6010E94280459
:101430008091E2069091E306B1010E940527CB015D
:10144000A0E0B0E02A968CAF9DAFAEAFBFAF2A97B9
:101450006091F8067091F9068091FA069091FB066A
:1014600028EE33E040E050E00E94E6260E94FE2194
:101470008091FD06823029F484E897E060E00E94C4
:101480009B1C9101442737FD4095542F2E966CAD3F
:101490007DAD8EAD9FAD2E970E942C2749012296DF
:1014A0001FAE2297AA24BB2481E090E0A0E0B0E028
:1014B000EFC20E94F02126966CAF7DAF8EAF9FAF3A
:1014C000269721966CAD7DAD8EAD9FAD2197A10184
:1014D0000E94B3060E94BA056091EA067091EB067D
:1014E00080E090E00E94FE2180910A07833009F499
:1014F00066C0843009F4C3C0823009F02BC18091EA
:101500000D07823011F18330E9F1813009F022C1F9
:10151000B601882777FD8095982F0E944525AB015D
:10152000BC01CE0101960E942E047B018C01B50105
:10153000882777FD8095982F0E944525AB01BC0137
:10154000CE0101960E942E04DDC0B601882777FDEA
:101550008095982F0E944525AB01BC01CE010196D4
:101560000E9452047B018C01B501882777FD80958C
:10157000982F0E944525AB01BC01CE0101960E9427
:101580005204C0C0B601882777FD8095982F0E942D
:101590004525AB01BC01CE0101960E9489047B0167
:1015A0008C01B501882777FD8095982F0E944525ED
:1015B000AB01BC01CE0101960E948904A3C08091B9
:1015C0000D07823011F18330E9F1813009F0C2C09A
:1015D000B601882777FD8095982F0E944525AB019D
:1015E000BC01CE010B960E9443057B018C01B50125
:1015F000882777FD8095982F0E944525AB01BC0177
:10160000CE010B960E9443057DC0B601882777FD69
:101610008095982F0E944525AB01BC01CE010B9609
:101620000E946C057B018C01B501882777FD8095B0
:10163000982F0E944525AB01BC01CE010B960E945C
:101640006C0560C0B601882777FD8095982F0E94B1
:101650004525AB01BC01CE010B960E9403057B0121
:101660008C01B501882777FD8095982F0E9445252C
:10167000AB01BC01CE010B960E94030543C08091D3
:101680000D07823019F1833009F447C0813009F029
:1016900061C0B601882777FD8095982F0E94452567
:1016A000AB01BC01CE0145960E943E037B018C013B
:1016B000B501882777FD8095982F0E944525AB01BD
:1016C000BC01CE0145960E943E031CC0B60188278E
:1016D00077FD8095982F0E944525AB01BC01CE0176
:1016E00045960E9466037B018C01B501882777FD32
:1016F0008095982F0E944525AB01BC01CE014596EF
:101700000E9466039B01AC01C801B7010E943E2400
:101710000E9412257B018C0123C0B601882777FD2A
:101720008095982F0E944525AB01BC01CE014596BE
:101730000E949A037B018C01B501882777FD809573
:10174000982F0E944525AB01BC01CE0145960E9411
:101750009A03D8CF2A96ECACFDAC0EAD1FAD2A97FC
:101760008091FC06813011F40E94C9052F969FAD2F
:101770002F97923040F010950095F094E094E11C82
:10178000F11C011D111D8091DE06823041F410957F
:101790000095F094E094E11CF11C011D111DC7019E
:1017A0006FE00E947B088091FC06813011F40E945A
:1017B00090050E94AA06882321F422961FAE229744
:1017C0000AC02296AFAD2297AF5F2296AFAF2297A5
:1017D000A33008F069C10E94F0212B013C0126963C
:1017E0008CAD9DADAEADBFAD2697481A590A6A0AB9
:1017F0007B0A80911007833009F466C0843009F4B5
:10180000C3C0823009F028C180911307823011F1E2
:101810008330E9F1813009F01FC1B601882777FDD7
:101820008095982F0E944525AB01BC01CE014F96B3
:101830000E942E047B018C01B501882777FD8095DD
:10184000982F0E944525AB01BC01CE014F960E9406
:101850002E04F9C0B601882777FD8095982F0E9445
:101860004525AB01BC01CE014F960E9452047B017D
:101870008C01B501882777FD8095982F0E9445251A
:10188000AB01BC01CE014F960E945204DCC0B601F0
:10189000882777FD8095982F0E944525AB01BC01D4
:1018A000CE014F960E9489047B018C01B5018827E7
:1018B00077FD8095982F0E944525AB01BC01CE0194
:1018C0004F960E948904BFC080911307823011F1A6
:1018D0008330E9F1813009F0BFC0B601882777FD78
:1018E0008095982F0E944525AB01BC01CE018996B9
:1018F0000E9443057B018C01B501882777FD809507
:10190000982F0E944525AB01BC01CE0189960E940B
:10191000430599C0B601882777FD8095982F0E94CE
:101920004525AB01BC01CE0189960E946C057B0167
:101930008C01B501882777FD8095982F0E94452559
:10194000AB01BC01CE0189960E946C057CC0B6013A
:10195000882777FD8095982F0E944525AB01BC0113
:10196000CE0189960E9403057B018C01B501882771
:1019700077FD8095982F0E944525AB01BC01CE01D3
:1019800089960E9403055FC080911307823011F190
:101990008330E9F1813009F05FC0B601882777FD17
:1019A0008095982F0E944525AB01BC01CE01C396BE
:1019B0000E943E037B018C01B501882777FD80954D
:1019C000982F0E944525AB01BC01CE01C3960E9411
:1019D0003E0339C0B601882777FD8095982F0E9475
:1019E0004525AB01BC01CE01C3960E9466037B0175
:1019F0008C01B501882777FD8095982F0E94452599
:101A0000AB01BC01CE01C3960E9466031CC0B601A7
:101A1000882777FD8095982F0E944525AB01BC0152
:101A2000CE01C3960E949A037B018C01B5018827E1
:101A300077FD8095982F0E944525AB01BC01CE0112
:101A4000C3960E949A039B01AC01C801B7010E9492
:101A50003E240E9412254B01B401882777FD809512
:101A6000982F461657066806790630F464197509EA
:101A7000860997090E94FE210894A11CB11C219699
:101A80008CAD9DADAEADBFAD21970196A11DB11D31
:101A900021968CAF9DAFAEAFBFAF2197CDACDEAC82
:101AA0002C143D040CF005CD84E897E061E00E9421
:101AB0009B1C0E94C905C25BDF4F0FB6F894DEBFC6
:101AC0000FBECDBFCF91DF911F910F91FF90EF908F
:101AD000DF90CF90BF90AF909F908F907F906F904E
:101AE0005F904F903F902F9008956091E406709121
:101AF000E5062091FE063091FF06409100075091C7
:101B00000107809116070E94480981E08093DF0653
:101B100080E595E06DEF72E00E9495050895EF92E3
:101B2000FF920F931F936730710509F4DCC2683090
:101B30007105C4F46330710509F40BC1643071059B
:101B400044F46130710559F16230710509F0B2C495
:101B50007BC06530710509F4A2C1663071050CF0D7
:101B600078C23AC16B30710509F412C46C3071054A
:101B70004CF46930710509F45CC36A3071050CF0EE
:101B8000ABC3FBC26D30710509F485C46D307105BE
:101B90000CF452C46E30710509F08CC483C42091DA
:101BA000E4063091E506181619064CF44B30510541
:101BB0001CF481E090E010C08AE090E00DC0892B19
:101BC00019F480E090E008C04B3051051CF48FEF11
:101BD0009FEF02C086EF9FEF820F931F4091E806B0
:101BE0005091E9062091E6063091E706281739075B
:101BF00014F49A0104C0841795070CF09C013093EB
:101C0000E5062093E40600D000D000D0EDB7FEB783
:101C1000319606E913E0ADB7BEB712961C930E934A
:101C2000119783EC91E093838283358324830E9410
:101C30009C00EDB7FEB736960FB6F894FEBF0FBE08
:101C4000EDBF85E893E0F6C3E090FE06F090FF0656
:101C50000091000710910107181619064CF44B303B
:101C600051051CF421E030E010C02AE030E00DC046
:101C7000892B19F420E030E008C04B3051051CF4EA
:101C80002FEF3FEF02C026EF3FEF8CE390E0AC0177
:101C9000249FC001259F900D349F900D11249C011D
:101CA000442737FD4095542F2E0D3F1D401F511FD7
:101CB0008091020790910307E0910607F0910707D2
:101CC000E217F30714F4FC0104C0281739070CF0DD
:101CD000F901BF01882777FD8095982F6093FE0654
:101CE0007093FF068093000790930107ADB7BEB7CE
:101CF00018970FB6F894BEBF0FBEADBF0DB71EB795
:101D00000F5F1F4F28EBE22E23E0F22E1296FC927B
:101D1000EE92119724ED31E0F801338322832CE316
:101D200030E040E050E00E944E27D80114962D93F9
:101D30003D934D935C9317970E949C00EDB7FEB7BF
:101D400038960FB6F894FEBF0FBEEDBF87EA93E05A
:101D500041C02DB73EB7285030400FB6F8943EBF73
:101D60000FBE2DBF0DB71EB70F5F1F4FAAEDEA2E96
:101D7000A3E0FA2EADB7BEB71296FC92EE92119781
:101D800084EE91E0F801938382832091E406309100
:101D9000E506442737FD4095542F6091FE0670916B
:101DA000FF0680910007909101070E944E27D801FD
:101DB00014962D933D934D935C9317970E949C002E
:101DC000EDB7FEB738960FB6F894FEBF0FBEEDBF65
:101DD00089EC93E0B70163C36091EA067091EB066A
:101DE000181619064CF44B3051051CF421E030E074
:101DF00010C02AE030E00DC0892B19F420E030E05B
:101E000008C04B3051051CF42FEF3FEF02C026EF06
:101E10003FEF88EE93E0289FA001299F500D389F47
:101E2000500D1124460F571F8091EC069091ED063E
:101E30002091EE063091EF062417350714F49C012B
:101E400004C0481759070CF09A012093EA06309312
:101E5000EB0600D000D000D0EDB7FEB731960EE112
:101E600014E0ADB7BEB712961C930E93119785EF91
:101E700091E093838283C90168EE73E00E94052795
:101E8000758364830E949C00EDB7FEB736960FB64B
:101E9000F894FEBF0FBEEDBF8DE094E0CBC2E090A2
:101EA000F806F090F9060091FA061091FB06FCE3A3
:101EB000EF16F10401051105F8F4181619064CF493
:101EC0004B3051051CF421E030E010C02AE030E036
:101ED0000DC0892B19F420E030E008C04B305105CB
:101EE0001CF42FEF3FEF02C026EF3FEFC901AA27F6
:101EF00097FDA095BA2F27C0181619064CF44B3041
:101F000051051CF421E030E010C02AE030E00DC0A3
:101F1000892B19F420E030E008C04B3051051CF447
:101F20002FEF3FEF02C026EF3FEF8CE390E0AC01D4
:101F3000249FC001259F900D349F900D1124AA2746
:101F400097FDA095BA2F8E0D9F1DA01FB11F8093E6
:101F5000F8069093F906A093FA06B093FB06209139
:101F6000F8063091F9064091F0065091F106809103
:101F7000F4069091F5068217930714F4CA0104C081
:101F8000241735070CF0C9019C01442737FD409503
:101F9000542F2093F8063093F9064093FA06509395
:101FA000FB068CEF93E02C33310541055105D8F445
:101FB0006DB77EB7685070400FB6F8947EBF0FBE05
:101FC0006DBFEDB7FEB73196ADB7BEB712969C9315
:101FD0008E93119785E092E09383828324833583E7
:101FE0004683578327C06DB77EB7685070400FB6E1
:101FF000F8947EBF0FBE6DBF0DB71EB70F5F1F4FAA
:10200000ADB7BEB712969C938E93119783E192E081
:10201000F80193838283CA01B9012CE330E040E0E8
:1020200050E00E942C27D80114962D933D934D9398
:102030005C9317970E949C00EDB7FEB738960FB6D9
:10204000F894FEBF0FBEEDBF8BEE93E06CEF73E034
:1020500026C22091FC06181619061CF481E090E0B7
:1020600007C0892B19F08FEF9FEF02C080E090E04E
:10207000280F822F90E0833091051CF081E090E0E2
:1020800004C0009711F482E090E0282F8093FC06B2
:10209000813019F0823031F403C023E531E002C011
:1020A0002FE431E000D000D000D0EDB7FEB731967C
:1020B00000E414E0ADB7BEB712961C930E931197CF
:1020C00081E292E093838283358324830E949C0083
:1020D000EDB7FEB736960FB6F894FEBF0FBEEDBF54
:1020E0008FE294E0A7C12091FD06181619061CF492
:1020F00081E090E007C0892B19F08FEF9FEF02C0BD
:1021000080E090E0280F822F90E0833091051CF052
:1021100081E090E004C0009711F482E090E0282F65
:102120008093FD06813019F0823031F403C023E53D
:1021300031E002C02FE431E000D000D000D0EDB794
:10214000FEB7319602E614E0ADB7BEB712961C9307
:102150000E93119781E292E09383828335832483E7
:102160000E949C00EDB7FEB736960FB6F894FEBFFE
:102170000FBEEDBF81E594E05DC120910A071816FE
:1021800019061CF481E090E007C0892B19F08FEF4D
:102190009FEF02C080E090E0281B30E080910B07A9
:1021A000482F50E080910C0790E08217930714F4B9
:1021B000CA0104C0241735070CF0C901282F8093E9
:1021C0000A07823069F0833018F4813089F405C041
:1021D000833049F0843061F409C02EE131E008C059
:1021E00020E031E005C02AE031E002C024E131E026
:1021F00000D000D000D0EDB7FEB7319604E814E06F
:10220000ADB7BEB712961C930E93119781E392E07F
:1022100093838283358324830E949C00EDB7FEB7AD
:1022200036960FB6F894FEBF0FBEEDBF83E794E07D
:1022300001C120910D07181619061CF481E090E0E9
:1022400007C0892B19F08FEF9FEF02C080E090E06C
:10225000281B30E080910E07482F50E080910F0737
:1022600090E08217930714F4CA0104C024173507BD
:102270000CF0C901282F80930D07823039F083308C
:1022800041F0813041F422E431E005C028E231E040
:1022900002C025E331E000D000D000D0EDB7FEB79A
:1022A000319606EA14E0ADB7BEB712961C930E93B2
:1022B00011978BE392E093838283358324830E947A
:1022C0009C00EDB7FEB736960FB6F894FEBF0FBE72
:1022D000EDBF85E994E0AEC02091100718161906ED
:1022E0001CF481E090E007C0892B19F08FEF9FEF7D
:1022F00002C080E090E0281B30E080911107482F59
:1023000050E08091120790E08217930714F4CA01FD
:1023100004C0241735070CF0C901282F809310073B
:10232000823069F0833018F4813089F405C083303D
:1023300049F0843061F409C02EE131E008C020E0AA
:1023400031E005C02AE031E002C024E131E000D0F4
:1023500000D000D0EDB7FEB7319608EC14E0ADB771
:10236000BEB712961C930E93119781E392E093836C
:102370008283358324830E949C00EDB7FEB7369696
:102380000FB6F894FEBF0FBEEDBF87EB94E052C0CE
:1023900020911307181619061CF481E090E007C07D
:1023A000892B19F08FEF9FEF02C080E090E0281B8F
:1023B00030E080911407482F50E08091150790E09D
:1023C0008217930714F4CA0104C0241735070CF0D0
:1023D000C901282F80931307823039F0833041F0F0
:1023E000813041F422E431E005C028E231E002C04E
:1023F00025E331E000D000D000D0EDB7FEB7319634
:102400000AEE14E0ADB7BEB712961C930E93119767
:102410008BE392E093838283358324830E949C0024
:10242000EDB7FEB736960FB6F894FEBF0FBEEDBF00
:1024300089ED94E0B80133C04091160718161906CB
:102440001CF421E030E007C0892B19F02FEF3FEF9B
:1024500002C020E030E0420F242F30E0233031056D
:102460001CF021E030E005C02115310511F422E017
:1024700030E020931607213049F484E897E00E9469
:10248000931C82E492E06CE075E009C08BEF94E06D
:102490006DE175E004C083E592E064E672E00E94BD
:1024A000950508C085E792E066E872E00E94950510
:1024B0000E94750D1F910F91FF90EF900895CF939B
:1024C000DF936091DF0680E090E070E040E050E054
:1024D0000E948F0D40C00E944306882329F40E9469
:1024E0003B06882309F45EC066E970E080E090E076
:1024F0000E94FE2121960E943B06882339F080919C
:10250000DF06282F30E0215030400BC00E944306E8
:10251000882309F43FC08091DF06282F30E02F5F29
:102520003F4F8091E106482F50E08091E006682FF0
:1025300070E06217730714F4BA0104C0241735075A
:102540000CF0B9016093DF0680E090E01FC00E94AC
:102550002606882319F4C0E0D0E01CC066E970E0CC
:1025600080E090E00E94FE2121960E9426068823AA
:1025700029F06091DF068FEF9FEF08C00E942E06C2
:10258000882341F06091DF0681E090E070E0AE01C9
:102590000E948F0D88EE93E00E945707882309F070
:1025A0009ACF05C00E942E068823C1F6D0CFDF91B6
:1025B000CF9108958F929F92AF92BF92CF92DF9268
:1025C000EF92FF920F931F93CF93DF93E62E4C0170
:1025D00097FF04C088249924881A990A60E0181685
:1025E00019060CF461E082E00E94FD226E2D70E07D
:1025F00080E090E00E94432520E030E048EC52E487
:102600000E94AA249B01AC0160E070E080E89FE397
:102610000E94AA2420E030E04CE852E40E946D269B
:102620005B016C01C0E0D0E015C083E061E00E9476
:10263000FD22C601B5010E9417257B018C01CB014B
:102640000E94572283E060E00E94FD22C7010E94A1
:1026500057222196C815D90544F3DF91CF911F91D8
:102660000F91FF90EF90DF90CF90BF90AF909F9031
:102670008F9008952F923F924F925F926F927F9228
:102680008F929F92AF92BF92CF92DF92EF92FF9282
:102690000F931F93DF93CF93CDB7DEB7A5970FB6F8
:1026A000F894DEBF0FBECDBF8BA37DA36CA34E01FC
:1026B0000894811C911CC4010E94140483E597E0D6
:1026C0009A8389832CA13DA1B901882777FD809544
:1026D000982F0E9445255B016C01C401B601A5013C
:1026E0000E9422046091E2067091E30680E090E08F
:1026F0000E944325AB01BC01C4010E9428044BE0A9
:10270000E42EF12CEC0EFD1EC7010E9414048DE591
:1027100097E09C878B87C701B601A5010E94220420
:102720006091E2067091E30680E090E00E9443250C
:10273000AB01BC01C7010E9428048E010B5E1F4F34
:10274000C8010E9414048FE397E09E8B8D8BC80113
:10275000B601A5010E9422046091E2067091E30691
:1027600080E090E00E944325AB01BC01C8010E94BB
:1027700028048091E2069091E3066CA17DA10E945D
:102780000527CB01A0E0B0E08F8F98A3A9A3BAA33F
:102790006091240770912507809126079091270763
:1027A00028EE33E040E050E00E94E6260E94FE2141
:1027B000222431E0C32ED12CAA24BB243E2C4F2C42
:1027C000502E612E782C892C64C180912B07833088
:1027D00009F466C0843009F4C3C0823009F02BC10B
:1027E00080912E07823011F18330E9F1813009F0B8
:1027F00022C1B601882777FD8095982F0E94452534
:10280000AB01BC01872D982D0E942E047B018C0109
:10281000B501882777FD8095982F0E944525AB014B
:10282000BC01872D982D0E942E04DDC0B60188279B
:1028300077FD8095982F0E944525AB01BC01872D1F
:10284000982D0E9452047B018C01B501882777FDE9
:102850008095982F0E944525AB01BC01872D982DAE
:102860000E945204C0C0B601882777FD8095982F3A
:102870000E944525AB01BC01872D982D0E9489043B
:102880007B018C01B501882777FD8095982F0E94E8
:102890004525AB01BC01872D982D0E948904A3C05A
:1028A00080912E07823011F18330E9F1813009F0F7
:1028B000C2C0B601882777FD8095982F0E944525D4
:1028C000AB01BC01832D942D0E9443057B018C013B
:1028D000B501882777FD8095982F0E944525AB018B
:1028E000BC01832D942D0E9443057DC0B60188272D
:1028F00077FD8095982F0E944525AB01BC01832D63
:10290000942D0E946C057B018C01B501882777FD11
:102910008095982F0E944525AB01BC01832D942DF5
:102920000E946C0560C0B601882777FD8095982FBE
:102930000E944525AB01BC01832D942D0E94030507
:102940007B018C01B501882777FD8095982F0E9427
:102950004525AB01BC01832D942D0E94030543C086
:1029600080912E07823019F1833009F447C08130FD
:1029700009F061C0B601882777FD8095982F0E94E5
:102980004525AB01BC01852D962D0E943E037B01A0
:102990008C01B501882777FD8095982F0E944525E9
:1029A000AB01BC01852D962D0E943E031CC0B601D3
:1029B000882777FD8095982F0E944525AB01BC01A3
:1029C000852D962D0E9466037B018C01B501882719
:1029D00077FD8095982F0E944525AB01BC01852D80
:1029E000962D0E9466039B01AC01C801B7010E94AD
:1029F0003E240E9412259B01AC0121C0B60188270C
:102A000077FD8095982F0E944525AB01BC01852D4F
:102A1000962D0E949A037B018C01B501882777FDD2
:102A20008095982F0E944525AB01BC01852D962DE0
:102A30000E949A03D8CF2F8D38A149A15AA19BA1FA
:102A4000923038F050954095309521953F4F4F4F3B
:102A50005F4F8091DE06823039F450954095309575
:102A600021953F4F4F4F5F4FC901609128070E944A
:102A7000DA120E94AA06882311F4222404C02394A7
:102A8000A9E1A21560F00894C11CD11C0894A11CF6
:102A9000B11C2CA13DA12C153D050CF096CE84E86F
:102AA00097E061E00E949B1C0E94C905A5960FB6A5
:102AB000F894DEBF0FBECDBFCF91DF911F910F9174
:102AC000FF90EF90DF90CF90BF90AF909F908F904E
:102AD0007F906F905F904F903F902F9008956091FE
:102AE0001A0770911B07809131070E943A1381E009
:102AF000809317078CEC96E06DEF72E00E949505CD
:102B00000895EF92FF920F931F936430710509F4BB
:102B1000A4C1653071056CF46230710509F467C0B9
:102B2000633071050CF03DC16130710509F027C2B9
:102B30000DC06630710509F413C2663071050CF4DE
:102B4000E0C16730710509F01AC211C2209128074F
:102B5000181619064CF44B3051051CF481E090E036
:102B600010C08AE090E00DC0892B19F480E090E05D
:102B700008C04B3051051CF48FEF9FEF02C086EF69
:102B80009FEF280F30E080912A07682F70E0809136
:102B90002907482F50E04217530714F4AB0104C033
:102BA000261737070CF0A9014093280700D000D062
:102BB00000D0EDB7FEB7319606E616E0ADB7BEB76A
:102BC00012961C930E93119787E992E09383828368
:102BD000448315820E949C00EDB7FEB736960FB66F
:102BE000F894FEBF0FBEEDBF85E596E088C1E0908A
:102BF0002407F09025070091260710912707FCE392
:102C0000EF16F10401051105F8F4181619064CF435
:102C10004B3051051CF421E030E010C02AE030E0D8
:102C20000DC0892B19F420E030E008C04B3051056D
:102C30001CF42FEF3FEF02C026EF3FEFC901AA2798
:102C400097FDA095BA2F27C0181619064CF44B30E3
:102C500051051CF421E030E010C02AE030E00DC046
:102C6000892B19F420E030E008C04B3051051CF4EA
:102C70002FEF3FEF02C026EF3FEF8CE390E0AC0177
:102C8000249FC001259F900D349F900D1124AA27E9
:102C900097FDA095BA2F8E0D9F1DA01FB11F809389
:102CA000240790932507A0932607B0932707209128
:102CB00024073091250740911C0750911D078091F2
:102CC0002007909121078217930714F4CA0104C0CA
:102CD000241735070CF0C9019C01442737FD4095A6
:102CE000542F2093240730932507409326075093B1
:102CF000270787E796E02C33310541055105D8F4C5
:102D00006DB77EB7685070400FB6F8947EBF0FBEA7
:102D10006DBFEDB7FEB73196ADB7BEB712969C93B7
:102D20008E93119785E092E0938382832483358389
:102D30004683578327C06DB77EB7685070400FB683
:102D4000F8947EBF0FBE6DBF0DB71EB70F5F1F4F4C
:102D5000ADB7BEB712969C938E93119783E192E024
:102D6000F80193838283CA01B9012CE330E040E08B
:102D700050E00E942C27D80114962D933D934D933B
:102D80005C9317970E949C00EDB7FEB738960FB67C
:102D9000F894FEBF0FBEEDBF8BEE93E067E776E0E1
:102DA000E3C020912B07181619061CF481E090E06F
:102DB00007C0892B19F08FEF9FEF02C080E090E0F1
:102DC000281B30E080912C07482F50E080912D0780
:102DD00090E08217930714F4CA0104C02417350742
:102DE0000CF0C901282F80932B07823069F08330C3
:102DF00018F4813089F405C0833049F0843061F4DF
:102E000009C02EE131E008C020E031E005C02AE031
:102E100031E002C024E131E000D000D000D0EDB7B5
:102E2000FEB7319609E916E0ADB7BEB712961C930E
:102E30000E93119781E392E09383828335832483F9
:102E40000E949C00EDB7FEB736960FB6F894FEBF11
:102E50000FBEEDBF88E896E052C020912E071816ED
:102E600019061CF481E090E007C0892B19F08FEF60
:102E70009FEF02C080E090E0281B30E080912F0798
:102E8000482F50E08091300790E08217930714F4A8
:102E9000CA0104C0241735070CF0C901282F8093FC
:102EA0002E07823039F0833041F0813041F422E442
:102EB00031E005C028E231E002C025E331E000D076
:102EC00000D000D0EDB7FEB731960BEB16E0ADB7F2
:102ED000BEB712961C930E9311978BE392E09383E7
:102EE0008283358324830E949C00EDB7FEB736961B
:102EF0000FB6F894FEBF0FBEEDBF8AEA96E0B801A8
:102F000033C040913107181619061CF421E030E057
:102F100007C0892B19F02FEF3FEF02C020E030E00F
:102F2000420F242F30E0233031051CF021E030E047
:102F300005C02115310511F422E030E0209331075E
:102F4000213049F484E897E00E94931C82E492E0E7
:102F50006CE075E009C08BEF94E06DE175E004C0B2
:102F600083E592E067EA72E00E94950508C088EB6D
:102F700092E066E872E00E9495050E946F151F912D
:102F80000F91FF90EF900895CF93DF936091170713
:102F900080E090E070E040E050E00E94811540C089
:102FA0000E944306882329F40E943B06882309F4E3
:102FB0005EC066E970E080E090E00E94FE2121960C
:102FC0000E943B06882339F080911707282F30E0B4
:102FD000215030400BC00E944306882309F43FC0B3
:102FE00080911707282F30E02F5F3F4F80911907FE
:102FF000482F50E080911807682F70E06217730720
:1030000014F4BA0104C0241735070CF0B901609319
:10301000170780E090E01FC00E942606882319F45D
:10302000C0E0D0E01CC066E970E080E090E00E9463
:10303000FE2121960E942606882329F06091170719
:103040008FEF9FEF08C00E942E06882341F0609109
:10305000170781E090E070E0AE010E94811588EED4
:1030600093E00E945707882309F09ACF05C00E9479
:103070002E068823C1F6D0CFDF91CF910895CF924D
:10308000DF92EF92FF920F931F93CF93DF9382E72C
:1030900095E063E875E00E9495058091DE06823038
:1030A00019F402E010E0ADC001E010E0AAC080E039
:1030B0000E949C22EC0181E00E949C228F5F934041
:1030C000C1F564EF71E080E090E00E94FE2181E0B4
:1030D0000E949C228F5F934061F50F5F1F4FC801D4
:1030E0008170907000FF11C082E795E065EA75E09D
:1030F0000E94950568EE73E080E090E00E94FE215A
:1031000082E795E063E875E012C0892B91F482E7CD
:1031100095E065EA75E00E94950568EE73E080E051
:1031200090E00E94FE2182E795E064E975E00E944C
:10313000950582E0CC30D80744F1C80181709070C9
:1031400000FF10C086E00E945123019709F460C07F
:10315000CB50D240CE9DC001CF9D900DDE9D900DF5
:10316000112446C0892B09F053C084E00E945123EA
:10317000019709F44DC0CB50D240CE9DC001CF9DE8
:10318000900DDE9D900D11241AC021E0C43FD2079E
:103190000CF03EC0C8018170907000FF17C084E041
:1031A0000E9451230197A1F1C6018C1B9D0B9C012C
:1031B0002E9DC0012F9D900D3E9D900D112464EF1A
:1031C00071E00E9419278FEF9FEF18C0892B01F53E
:1031D00086E00E9451230197D9F0C6018C1B9D0BFC
:1031E0009C012E9DC0012F9D900D3E9D900D1124A0
:1031F00064EF71E00E94192781E090E00E94DA12EA
:1032000007C0E4EFCE2EE1E0DE2E79E1E72EF12CCF
:1032100088EE93E00E945707882309F048CFDF919A
:10322000CF911F910F91FF90EF90DF90CF90089575
:103230008330910579F1843091053CF4813091051A
:1032400059F0029709F053C016C08430910589F1F6
:10325000059709F04CC03CC084E793E06DEF72E045
:103260000E94950564EC79E080E090E00E94FE21E8
:103270000E945F12089584E496E06DEF72E00E9470
:10328000950564EC79E080E090E00E94FE210E94C8
:10329000C417089581E695E06DEF72E00E949505F0
:1032A00064EC79E080E090E00E94FE210E943F18EB
:1032B000089586EB95E06DEF72E00E94950564EC51
:1032C00079E080E090E00E94FE210E949D07089531
:1032D00089EE95E06DEF72E00E94950564EC79E06F
:1032E00080E090E00E94FE210E94F519089582E29C
:1032F00096E063E376E00E94950564EC79E080E077
:1033000090E00E94FE210E948619089559C082E330
:1033100090E00E944C0690E08330910531F480915A
:10332000340790913507019707C0049749F48091BD
:1033300034079091350701969093350780933407B1
:103340002091340730913507409136075091370767
:1033500080913807909139078217930714F4CA01B6
:1033600004C0241735070CF0C901909335078093EA
:10337000340783309105A9F08430910534F481300D
:10338000910561F00297B1F406C08430910561F0B7
:10339000059781F40CC060E373E00EC06FE173E049
:1033A0000BC061E473E008C062E573E005C063E64A
:1033B00073E002C062E276E08EE093E00E94950541
:1033C00062E370E080E090E042E050E00E94FA06A4
:1033D000882309F09CCF80913407909135070E9493
:1033E000181908950E94861908954F925F926F925E
:1033F0007F928F929F92AF92BF92CF92DF92FF9275
:103400000F931F93CF93DF931AEF412E15E0512EA8
:10341000B9EC6B2EB2E07B2EABE0AA2EA6E0BA2E62
:10342000FAED8F2EF2E09F2E83C08EE00E949C2248
:10343000EC018FE00E949C226C018AE00E945123E3
:10344000182F84E00E945123082F86E00E94512308
:10345000F82E112319F48EE196E007C0113019F00F
:1034600080E296E002C08CE196E02DB73EB728508E
:1034700030400FB6F8943EBF0FBE2DBFEDB7FEB77C
:103480003196ADB7BEB712965C924E921197738289
:103490006282D583C483978386830E949C002DB764
:1034A0003EB7285F3F4F0FB6F8943EBF0FBE2DBF0B
:1034B000013019F42EE136E007C0002319F020E2B4
:1034C00036E002C02CE136E041E0F41619F48EE15A
:1034D00096E007C0FF2019F080E296E002C08CE180
:1034E00096E0ADB7BEB71A970FB6F894BEBF0FBE41
:1034F000ADBFEDB7FEB731961296BC92AE92119762
:1035000093828282D582C482378326839187808783
:103510000E949C002DB73EB7265F3F4F0FB6F89430
:103520003EBF0FBE2DBF8AEF95E0B5010E94950505
:1035300088EE93E00E945707882309F076CF0E9417
:103540008619DF91CF911F910F91FF90DF90CF905F
:10355000BF90AF909F908F907F906F905F904F90B3
:103560000895F999FECF72BD61BDF89A80B50895AE
:10357000F999FECF1FBA72BD61BD40BD0FB6F89478
:10358000FA9AF99A0FBE0895FC011382128287E617
:1035900097E091838083618F178681E084838FEF2A
:1035A000858382E0868383E0878384E0808785E06B
:1035B000818786E082870895FC01818D8F3F29F005
:1035C000CF014A960E94DF1D089585898F3F21F41F
:1035D000862F642F0E94BE220895CF93DF93EC01C3
:1035E000898D8F3F29F0CE014A960E94B51D2AC0D1
:1035F0008D898F3F19F1288D413049F481E090E0A9
:1036000002C0880F991F6A95E2F7282B09C081E054
:1036100090E002C0880F991F6A95E2F780952823F1
:10362000288F8F8960E00E94FD228E896D8941E09C
:10363000288D0E94A4238F8961E002C0862F642F09
:103640000E94FD22DF91CF9108950F931F938C016B
:10365000F801668140E00E94ED1A81E090E00E944E
:103660005722C801F801668141E00E94ED1A81E00D
:1036700090E00E945722C801F801668140E00E9454
:10368000ED1A84E690E00E9457221F910F91089551
:10369000CF92DF92EF92FF920F931F93CF93DF931E
:1036A000F82EE92E282F392FC9018C01C0E0D0E077
:1036B000C62EDD248F2D9E2DF801678141E00E94EA
:1036C000DC1AA6010C2E02C0559547950A94E2F724
:1036D00041708F2D9E2DF80167810E94ED1A219671
:1036E0000F5F1F4FC830D10529F78F2D9E2D0E94E7
:1036F000251BDF91CF911F910F91FF90EF90DF90ED
:10370000CF900895AF92BF92CF92DF92EF92FF9247
:103710000F931F93CF93DF937C01B62EFC01818D15
:103720008F3F09F468C08AE1C82ED12CCE0CDF1C73
:10373000C6010E94B11D782FF70140E050E0AB2D8B
:10374000B0E001E010E087819D01042E02C03595B4
:1037500027950A94E2F721703070082E02C0220FDC
:10376000331F0A94E2F7C1E0D0E0580102C0AA0C6E
:10377000BB1C8A95E2F7C50180957823722B4F5FB9
:103780005F4F319644305105F1F68E01F701068006
:1037900002C0000F111F0A94E2F700950723C6012B
:1037A000602F0E94831D81E090E00E945722CE018D
:1037B000F701068002C0880F991F0A94E2F7082BD0
:1037C000C601602F0E94831D81E090E00E94572275
:1037D000F701068002C0CC0FDD1F0A94E2F75E01FC
:1037E000A0940A21C601602F0E94831D84E690E008
:1037F0000E94572221C08701C0E0D0E0C62EDD2400
:10380000C701F801678141E00E94DC1AA6010C2E75
:1038100002C0559547950A94E2F74170C701F80137
:1038200067810E94ED1A21960F5F1F4FC430D105AA
:1038300039F7C7010E94251BDF91CF911F910F918E
:10384000FF90EF90DF90CF90BF90AF9008951F93BF
:10385000CF93DF93EC01162F6C810E94ED1A6D81DE
:103860006F3F21F0CE0140E00E94ED1A8F8584FF6A
:1038700005C0CE01612F0E94481B0EC0612F70E071
:1038800094E0759567959A95E1F7CE010E94821BA9
:10389000CE01612F0E94821BDF91CF911F9108956D
:1038A00041E00E94271C81E090E0089540E00E94E2
:1038B000271C0895FC016089862F8460808B6C60D2
:1038C000CF010E94561C0895DF93CF93CDB7DEB78A
:1038D00028970FB6F894DEBF0FBECDBF9C01FE0146
:1038E0003196ABE6B7E088E00D9001928150E1F7A8
:1038F000F9018389841710F4482F4150E42FF0E038
:10390000EE0FFF1FEC0FFD1F8181680F6068C9017A
:103910000E94561C28960FB6F894DEBF0FBECDBF8E
:10392000CF91DF91089561E00E94561C80ED97E0F1
:103930000E9457220895FC01462F818D8F3F19F474
:1039400085898F3F21F0CF0167E00E94ED1A08952D
:10395000AF92BF92CF92DF92EF92FF920F931F939D
:10396000CF93DF93EC01B42EA22E698D6F3F71F1DE
:103970007AE1E72EF12CE80EF91EC7010E940B1E1A
:10398000C70167E041E00E94DF1DC70167E041E039
:103990000E94B51D8E0154E0C52ED12CCC0EDD1E2B
:1039A000CE01F801678141E00E94DC1A0F5F1F4FD2
:1039B0000C151D05A9F7C7016C8141E00E94DF1DB0
:1039C000C7016E8141E00E94DF1D05C08D898F3FD8
:1039D00011F080E8888FF1E0FB1518F48F8588607E
:1039E0008F87BB8A1C8AAA2031F081E0B81619F4AF
:1039F0008F8584608F8780E593EC0E945722CE01EB
:103A00006C8140E00E94ED1ACE016E8140E00E9480
:103A1000ED1A6D816F3F21F0CE0140E00E94ED1A5A
:103A20006F8564FD1DC0CE0163E00E94821B84E9A6
:103A300091E10E945722CE0163E00E94821B84E93B
:103A400091E10E945722CE0163E00E94821B86E929
:103A500090E00E945722CE0162E00E94821B16C0B5
:103A60006062CE010E94561C84E991E10E945722B7
:103A70006F856062CE010E94561C86E990E00E942C
:103A800057226F856062CE010E94561C6F8560626E
:103A9000CE010E94561C84E0888BCE010E945A1CE5
:103AA000CE010E94931C82E0898BCE0166E00E94C9
:103AB000561CDF91CF911F910F91FF90EF90DF90F7
:103AC000CF90BF90AF900895EF92FF920F931F9306
:103AD000FC01F62EE42E0EEE17E060816062C80154
:103AE00070E00E945B1EC8016F2D0E94DD1EC801A0
:103AF0006E2D0E94DD1EC8010E94201F1F910F9194
:103B0000FF90EF900895462F69E00E94641D08958C
:103B1000DF92EF92FF920F931F937C01D62E0EEE51
:103B200017E0FC0160816062C80170E00E945B1ECA
:103B3000C8016D2D0E94DD1EC8010E94201FF701E3
:103B400060816062C80170E041E050E00E94311F76
:103B5000C8010E946E1E1F910F91FF90EF90DF90A1
:103B6000089569E00E94881D08950F931F93CF93D5
:103B7000DF93EC01162F042F6830E0F40E94B11D92
:103B8000282F013051F481E090E002C0880F991F86
:103B90001A95E2F7622F682B0AC081E090E002C01C
:103BA000880F991F1A95E2F7682F60956223CE015E
:103BB0000E94831DDF91CF911F910F9108950F9364
:103BC0001F93CF93DF93EC01162F042F6830F0F48E
:103BD00060E00E94881D282F002351F481E090E0CE
:103BE00002C0880F991F1A95E2F7422F482B0AC08E
:103BF00081E090E002C0880F991F1A95E2F7482FE4
:103C000040954223CE0160E00E94641DDF91CF9178
:103C10001F910F910895CF93DF93EC01683008F066
:103C200067E068838EEE97E00E94351F68816062CE
:103C30008EEE97E070E00E945B1E8EEE97E060E0F3
:103C40000E94DD1E8EEE97E06FEF0E94DD1E8EEE6D
:103C500097E060E00E94DD1E8EEE97E060E00E943B
:103C6000DD1E8EEE97E060E00E94DD1E8EEE97E096
:103C700060E00E94DD1E8EEE97E060E00E94DD1E97
:103C80008EEE97E060E00E94DD1E8EEE97E060E031
:103C90000E94DD1E8EEE97E060E00E94DD1E8EEE3B
:103CA00097E060E00E94DD1E8EEE97E00E94201FEC
:103CB000DF91CF91089581E08093ED076093CA076B
:103CC0001092EB071092EC0708952091C90730E09D
:103CD0008091C807281B3109C90108954091C80780
:103CE0008091C907481718F02FEF3FEF0AC0E42F63
:103CF000F0E0E855F84F8081282F30E04F5F409387
:103D0000C807C9010895E091C8078091C907E8175D
:103D100018F0EFEFFFEF06C0F0E0E855F84F8081B4
:103D2000E82FF0E0CF01089508951092F107109266
:103D3000F00788EE93E0A0E0B0E08093F207909364
:103D4000F307A093F407B093F50787E797E0909304
:103D5000EF078093EE070895CF92DF92EF92FF92E4
:103D60000F931F93CF93DF937C016B018A018091A6
:103D7000ED078823A1F0C0E0D0E00DC0D701ED91A0
:103D8000FC91D601AC0FBD1F0190F081E02DC70161
:103D90006C9109952196C017D10780F304C0CB011F
:103DA000642F0E94DE1FC801DF91CF911F910F91F8
:103DB000FF90EF90DF90CF900895DF93CF930F9215
:103DC000CDB7DEB7FC0169838091ED078823C9F088
:103DD0008091EC07803238F081E090E09383828319
:103DE00020E030E015C08091EB07E82FF0E0E553CC
:103DF000F84F998190838F5F8093EB078093EC0756
:103E000005C0CE01019661E00E94DE1F21E030E096
:103E1000C9010F90CF91DF9108950F93062F8091E4
:103E2000CA076BEC77E04091EC0721E00E94891F04
:103E30001092EB071092EC071092ED070F91089586
:103E400061E00E940D1F0895413208F040E2862F84
:103E500068EA77E00E94401F1092C8078093C90764
:103E6000089521E00E94241F08951092C80710921F
:103E7000C9071092EB071092EC070E948A2108955F
:103E8000382F413210F040E042C08091FA07882379
:103E9000E1F791E09093FA072093FC078FEF80936E
:103EA0006708109222084150409323084F5F909377
:103EB000FB078091FB07330F832B8093FB078091D7
:103EC000FD07813041F41092FD078091FB0780933C
:103ED000BB0085EC01C085EE8093BC008091FA07A1
:103EE0008130E1F380912208841710F44091220878
:103EF00020E030E00AC0FB01E20FF31FD901AE5F02
:103F0000B74F8C9180832F5F3F4F2417A0F3842FEE
:103F100008950F931F93582F122F413210F081E014
:103F20004AC08091FA078823E1F782E08093FA077C
:103F30000093FC078FEF809367081092220840934C
:103F40002308A2E0B8E0FB0102C081918D938E2F7F
:103F5000861B8417D0F31092FB078091FB07550F47
:103F6000852B8093FB078091FD07813041F41092EF
:103F7000FD078091FB078093BB0085EC01C085EEB7
:103F80008093BC00112321F08091FA078230E1F385
:103F9000809167088F3F11F480E00DC08091670821
:103FA000803211F482E007C080916708803311F0FD
:103FB00084E001C083E01F910F910895482F613282
:103FC00010F081E008958091FA07843011F082E0CA
:103FD000089560934508A4E2B8E0842F9C01F9019C
:103FE00002C081918D938E2F841B8617D0F380E0C1
:103FF00008951F920F920FB60F9211242F933F93A3
:104000004F935F936F937F938F939F93AF93BF93E0
:10401000EF93FF938091B90090E0887F9070803695
:10402000910509F4F2C081369105CCF588329105ED
:1040300009F47BC089329105B4F48031910509F40B
:104040006FC0813191053CF4009709F447C108978E
:1040500009F04FC165C08831910509F466C08097A9
:1040600009F047C182C08034910509F4A4C08134AD
:10407000910544F48033910509F482C0C89709F092
:1040800038C189C08035910509F489C0883591050A
:1040900009F496C08834910509F02BC1AEC0883967
:1040A000910509F413C189399105ECF4883791051C
:1040B00009F4ABC0893791054CF48836910509F4B1
:1040C000A4C08037910509F014C19FC088389105BC
:1040D00009F4FCC08039910509F49DC08038910530
:1040E00009F007C198C0803B910509F4C6C0813B27
:1040F00091054CF4803A910509F49FC0883A9105E6
:1041000009F0F7C0BAC0803C910509F4E3C0883CCF
:10411000910509F4DFC0883B910509F0EAC0C2C0EF
:104120008091FB078093BB00CFC0909122088091C3
:104130002308981768F490912208E92FF0E0EE5FC9
:10414000F74F80818093BB009F5F90932208BCC093
:104150008091FC07882309F44BC085ED8093BC0057
:104160008091BC0084FDFCCFC2C080E280936708D0
:1041700085ED8093BC008091BC0084FDFCCFB7C06E
:1041800080E38093670885ED8093BC008091BC003C
:1041900084FDFCCFACC088E3809367089BC080910E
:1041A00022089091BB00E82FF0E0EE5FF74F90837C
:1041B0008F5F80932208909122088091230882C00B
:1041C000809122089091BB00E82FF0E0EE5FF74F5E
:1041D00090838F5F809322088091FC07882341F0B1
:1041E00085ED8093BC008091BC0084FDFCCF7FC036
:1041F00081E08093FD0784EA6EC085ED8093BC006A
:104200008091BC0084FDFCCF72C083E08093FA07EC
:104210001092660859C080916608803208F056C036
:10422000809166089091BB00E82FF0E0EA5BF74FC1
:1042300090838F5F8093660847C0809166088032C4
:1042400030F4E0916608F0E0EA5BF74F108285ED0C
:104250008093BC008091BC0084FDFCCF1092FA07D3
:1042600060916608E0910008F091010886E498E00A
:1042700070E00995109266082DC084E08093FA07DB
:104280001092440810924508E091FE07F091FF0754
:10429000099580914508882329F481E08093450899
:1042A0001092240890914408E92FF0E0EC5DF74F5C
:1042B00080818093BB009F5F909344089091440855
:1042C00080914508981710F485EC01C085E880932B
:1042D000BC000FC085EC8093BC0009C01092670839
:1042E00085ED8093BC008091BC0084FDFCCF1092D2
:1042F000FA07FF91EF91BF91AF919F918F917F91BD
:104300006F915F914F913F912F910F900FBE0F9042
:104310001F9018951092FA0781E08093FC07109285
:10432000FD0782E161E00E94FD2283E161E00E94DD
:10433000FD22E9EBF0E080818E7F808380818D7F9C
:10434000808388E48093B80085E48093BC0008955E
:104350001F920F920FB60F9211242F933F938F93BA
:104360009F93AF93BF9380916C0890916D08A0913B
:104370006E08B0916F08309170080196A11DB11DB3
:10438000232F2D5F2D3720F02D570196A11DB11D34
:104390002093700880936C0890936D08A0936E082A
:1043A000B0936F088091680890916908A0916A089D
:1043B000B0916B080196A11DB11D80936808909380
:1043C0006908A0936A08B0936B08BF91AF919F9161
:1043D0008F913F912F910F900FBE0F901F901895C6
:1043E0008FB7F89420916C0830916D0840916E0859
:1043F00050916F088FBFB901CA0108959B01AC01AC
:104400007FB7F8948091680890916908A0916A0834
:10441000B0916B0866B5A89B05C06F3F19F0019677
:10442000A11DB11D7FBFBA2FA92F982F8827860FF6
:10443000911DA11DB11D62E0880F991FAA1FBB1F0E
:104440006A95D1F7BC012DC0FFB7F8948091680838
:1044500090916908A0916A08B0916B08E6B5A89B95
:1044600005C0EF3F19F00196A11DB11DFFBFBA2F86
:10447000A92F982F88278E0F911DA11DB11DE2E055
:10448000880F991FAA1FBB1FEA95D1F7861B970BB0
:10449000885E9340C8F221503040404050406851FF
:1044A0007C4F211531054105510571F6089501979D
:1044B00039F0880F991F880F991F02970197F1F71C
:1044C0000895789484B5826084BD84B5816084BD8C
:1044D00085B5826085BD85B5816085BDEEE6F0E07D
:1044E000808181608083E1E8F0E0108280818260D9
:1044F0008083808181608083E0E8F0E0808181605A
:104500008083E1EBF0E0808184608083E0EBF0E089
:10451000808181608083EAE7F0E08081846080832D
:1045200080818260808380818160808380818068D7
:1045300080831092C1000895982F8E3008F09E500D
:10454000977080913A078295880F880F807C892B1D
:1045500080937C0080917A00806480937A008091BF
:104560007A0086FDFCCF2091780040917900942F4D
:1045700080E030E0282B392BC9010895CF93DF93D9
:10458000482F50E0CA0188549F4FFC0134914C558C
:104590005F4FFA018491882369F190E0880F991F99
:1045A000FC01EA57FF4FA591B491FC01E057FF4F82
:1045B000C591D491662351F42FB7F8948C91932F21
:1045C000909589238C93888189230BC0623061F494
:1045D0002FB7F8948C91932F909589238C93888191
:1045E000832B88832FBF06C09FB7F8948C91832BB1
:1045F0008C939FBFDF91CF910895482F50E0CA015F
:1046000084539F4FFC012491CA0188549F4FFC01A1
:1046100094914C555F4FFA013491332309F440C013
:10462000222351F1233071F0243028F42130A1F0FD
:10463000223011F514C02630B1F02730C1F02430FB
:10464000D9F404C0809180008F7703C080918000EE
:104650008F7D8093800010C084B58F7702C084B5B1
:104660008F7D84BD09C08091B0008F7703C0809199
:10467000B0008F7D8093B000E32FF0E0EE0FFF1FBE
:10468000E057FF4FA591B4912FB7F894662321F41A
:104690008C919095892302C08C91892B8C932FBF8C
:1046A0000895682F70E0CB0184539F4FFC01249143
:1046B000CB0188549F4FFC0144916C557F4FFB0107
:1046C0009491992319F420E030E03CC0222351F169
:1046D000233071F0243028F42130A1F0223011F57C
:1046E00014C02630B1F02730C1F02430D9F404C012
:1046F000809180008F7703C0809180008F7D8093B0
:10470000800010C084B58F7702C084B58F7D84BDD2
:1047100009C08091B0008F7703C08091B0008F7D79
:104720008093B000892F90E0880F991F86569F4F85
:10473000FC01A591B4918C9120E030E0842311F02C
:1047400021E030E0C9010895BF92CF92DF92EF924D
:10475000FF920F931F93CF93DF93E82EF62EB42E84
:10476000C7E0D0E0022F10E087E0C82ED12CBB209C
:1047700059F4B6016C1B7D0BC80102C09595879555
:104780006A95E2F7BC0107C0B8010C2E02C075950E
:1047900067950A94E2F761708E2D0E94FD228F2D9D
:1047A00061E00E94FD228F2D60E00E94FD22219792
:1047B0009FEFCF3FD907D9F6DF91CF911F910F918E
:1047C000FF90EF90DF90CF90BF900895CF93DF934D
:1047D0000E9461220E94D405C0E0D0E00E94F2193C
:1047E0002097E1F30E940000F9CFCF92DF92EF9281
:1047F000FF920F931F93CF93DF937C016B018A018C
:10480000C0E0D0E00FC0D6016D916D01D701ED91F0
:10481000FC910190F081E02DC7010995C80FD91FC7
:10482000015010400115110571F7CE01DF91CF91B4
:104830001F910F91FF90EF90DF90CF900895CF934D
:10484000DF93EC016115710519F420E030E00FC031
:10485000DB010D900020E9F71197A61BB70BE8814B
:10486000F9810280F381E02DAD0109959C01C90118
:10487000DF91CF9108950E941F2408955058BB27BF
:10488000AA270ED0DFC19FD130F0A4D120F031F49F
:104890009F3F11F41EF45EC10EF4E095E7FB54C196
:1048A000E92FF2D180F3BA176207730784079507DF
:1048B00018F071F49EF50AC20EF4E0950B2EBA2F93
:1048C000A02D0B01B90190010C01CA01A001112416
:1048D000FF27591B99F0593F50F4503E68F11A16C2
:1048E000F040A22F232F342F4427585FF3CF469553
:1048F00037952795A795F0405395C9F77EF41F1675
:10490000BA0B620B730B840BBAF09150A1F0FF0F3E
:10491000BB1F661F771F881FC2F70EC0BA0F621F2A
:10492000731F841F48F4879577956795B795F7951A
:104930009E3F08F0B3CF9395880F08F09927EE0FAC
:10494000979587950895DCD008F481E008954AD1C1
:10495000E39589C10CD076C13DD140F034D130F01F
:1049600021F45F3F19F0F0C05111B1C1F3C08CD1F7
:1049700098F39923C9F35523B1F3951B550BBB2726
:10498000AA2762177307840738F09F5F5F4F220FD3
:10499000331F441FAA1FA9F333D00E2E3AF0E0E8CC
:1049A00030D091505040E695001CCAF729D0FE2F18
:1049B00027D0660F771F881FBB1F261737074807AA
:1049C000AB07B0E809F0BB0B802DBF01FF27935860
:1049D0005F4F2AF09E3F510568F0B6C078C15F3F37
:1049E000ECF3983EDCF3869577956795B795F79548
:1049F0009F5FC9F7880F911D9695879597F9089540
:104A0000E1E0660F771F881FBB1F621773078407DB
:104A1000BA0720F0621B730B840BBA0BEE1F88F7EA
:104A2000E095089504D06894B11151C1089534D12E
:104A300088F09F5790F0B92F9927B751A0F0D1F087
:104A4000660F771F881F991F1AF0BA95C9F712C011
:104A5000B13081F03BD1B1E0089538C1672F782F94
:104A60008827B85F39F0B93FCCF38695779567957D
:104A7000B395D9F73EF490958095709561957F4FE9
:104A80008F4F9F4F0895E89409C097FB3EF490958F
:104A90008095709561957F4F8F4F9F4F9923A9F017
:104AA000F92F96E9BB279395F695879577956795A6
:104AB000B795F111F8CFFAF4BB0F11F460FF1BC0EA
:104AC0006F5F7F4F8F4F9F4F16C0882311F096E97D
:104AD00011C0772321F09EE8872F762F05C066232B
:104AE00071F096E8862F70E060E02AF09A95660FE4
:104AF000771F881FDAF7880F9695879597F908959D
:104B0000990F0008550FAA0BE0E8FEEF16161706DE
:104B1000E807F907C0F012161306E407F50798F046
:104B2000621B730B840B950B39F40A2661F0232B5F
:104B3000242B252B21F408950A2609F4A140A695DB
:104B40008FEF811D811D089597F99F6780E870E0C0
:104B500060E008959FEF80EC0895DF93CF931F935B
:104B60000F93FF92EF92DF927B018C01689405C056
:104B7000DA2EEF01BED0FE01E894A5912591359182
:104B800045915591AEF3EF018BDEFE019701A8012F
:104B9000DA9479F7DF90EF90FF900F911F91CF910A
:104BA000DF9108959F938F937F936F93FF93EF937C
:104BB0009B01AC0192D0EF91FF91CFDF2F913F91FC
:104BC0004F915F918AC000240A94161617061806A2
:104BD0000906089500240A94121613061406050601
:104BE0000895B8CF59D0E8F3E894EFEFBB273FE042
:104BF00048EC5FE76B3D73078407950708F1FF27D3
:104C00009F57B25A6A4D7F40894CF04032F4BE55EE
:104C10006542704F8643FF4F0894EE1F915030F06D
:104C2000BB0F661F771F881FFF1FEBCF9EE78823F0
:104C300032F0BB0F661F771F881F9A95C1F79395B7
:104C4000E095B4C0092E0394000C11F4882352F0AF
:104C5000BB0F40F4BF2B11F460FF04C06F5F7F4FA8
:104C60008F4F9F4F0895EF93E0FF06C0A2EA2AED11
:104C70003FE049EC5FEB14DEE5DF0F90039401FCAD
:104C80009058E8E6F0E08ECF57FD9058440F551F3E
:104C900059F05F3F71F04795880F97FB991F61F0BE
:104CA0009F3F79F087950895121613061406551F35
:104CB000F2CF4695F1DF08C0161617061806991FA1
:104CC000F1CF86957105610508940895E894BB2796
:104CD00066277727CB0197F908950BD0B3CF73DF01
:104CE00028F078DF18F0952309F02ECF33CF112468
:104CF000EECFCADFA0F3959FD1F3950F50E0551F7B
:104D0000629FF001729FBB27F00DB11D639FAA2720
:104D1000F00DB11DAA1F649F6627B00DA11D661F6F
:104D2000829F2227B00DA11D621F739FB00DA11D90
:104D3000621F839FA00D611D221F749F3327A00D4A
:104D4000611D231F849F600D211D822F762F6A2FE6
:104D500011249F5750408AF0E1F088234AF0EE0F6B
:104D6000FF1FBB1F661F771F881F91505040A9F778
:104D70009E3F510570F0E8CEAACF5F3FECF3983E1E
:104D8000DCF3869577956795B795F795E7959F5FDF
:104D9000C1F7FE2B880F911D9695879597F9089579
:104DA0009F9320DF0F9007FCEE5F5DCF9F3F49F0A0
:104DB000915028F4869577956795B7959F5F8038D1
:104DC0009F4F880F9695879597F90895629FD00118
:104DD000739FF001829FE00DF11D649FE00DF11DB6
:104DE000929FF00D839FF00D749FF00D659FF00D65
:104DF0009927729FB00DE11DF91F639FB00DE11D52
:104E0000F91FBD01CF0111240895AA1BBB1B51E15D
:104E100007C0AA1FBB1FA617B70710F0A61BB70B2A
:104E2000881F991F5A95A9F780959095BC01CD01CF
:104E3000089597FB092E07260AD077FD04D0E5DFF9
:104E400006D000201AF4709561957F4F0895F6F70B
:104E5000909581959F4F0895A1E21A2EAA1BBB1B26
:104E6000FD010DC0AA1FBB1FEE1FFF1FA217B30736
:104E7000E407F50720F0A21BB30BE40BF50B661F4C
:104E8000771F881F991F1A9469F760957095809510
:104E900090959B01AC01BD01CF01089597FB092EB0
:104EA00005260ED057FD04D0D7DF0AD0001C38F4F9
:104EB00050954095309521953F4F4F4F5F4F089546
:104EC000F6F790958095709561957F4F8F4F9F4F26
:104ED0000895EE0FFF1F0590F491E02D09942F9295
:104EE0003F924F925F926F927F928F929F92AF927A
:104EF000BF92CF92DF92EF92FF920F931F93CF93C7
:104F0000DF93CDB7DEB7CA1BDB0B0FB6F894DEBF5D
:104F10000FBECDBF09942A88398848885F846E8483
:104F20007D848C849B84AA84B984C884DF80EE80CD
:104F3000FD800C811B81AA81B981CE0FD11D0FB6D6
:104F4000F894DEBF0FBECDBFED010895F894FFCFFA
:104F5000322E2051756164202000332E2053696E5B
:104F600065202000342E2043756269632000312EB5
:104F7000204C696E65617200322E20456173652098
:104F80004F75742000332E2045617365496E4F754F
:104F90007400312E204561736520496E2020004E3B
:104FA0006F200059657300322E2053657474696E4A
:104FB00067204200312E2053657474696E6720416A
:104FC0000020002A00202020536C6964656C617009
:104FD0007365002056657273696F6E20302E352E12
:104FE00030002020202000202020202020202020F1
:104FF000202020202020200050726F67726573737C
:105000003A20253032642525202000257320257381
:105010002020002530346420202020202020202043
:105020002020200025303464206D696E757465730E
:105030002020200025303464207365636F6E647314
:10504000202020200025303275207365636F6E6448
:1050500073202020002564207365636F6E647320C5
:105060002020002564206D696E75746573202020F2
:1050700000257320202020202020202020202020F8
:1050800000257320202020202020002573202020B0
:1050900020004D6F76656D656E74204469723A200C
:1050A0002020004D6F766520526967687420746F08
:1050B0002020200073746172742074696D656C61C6
:1050C0007073653E005374617274696E6720544C4E
:1050D0002E2E2E20200053656C20746F2063616E8D
:1050E00063656C20202000256420202020202020C3
:1050F00020202020202000737461727420525420DC
:105100006D6F766520203E005374617274696E671E
:10511000204D6F76652E2E2E00583A25346420538C
:10512000656C3A25732020202000593A25346420EC
:105130004D3A257320453A25732020004D61782093
:105140004C656E3A2530356C6420202000486F6C29
:10515000642053656C20746F204578697400536532
:105160006C656374204D6F64653A20202020003107
:105170002E54696D656C61707365202020203E009F
:10518000322E5265616C74696D6520202020203EAE
:1051900000332E436F6D6D616E6465722020202098
:1051A0003E00342E446972656374696F6E2020205E
:1051B000203E00352E446562756720202020202087
:1051C00020203E003E3E3E2054696D656C61707348
:1051D00065202020004E756D626572206F66205339
:1051E000686F74733A0000000000000000000000C7
:1051F00000000000000000544C2044757261746986
:105200006F6E3A2020202000000000000000000007
:1052100000000000000000000041766720496E7425
:10522000657276616C3A20202000000000000000CA
:105230000000000000000000000000537461727460
:105240002044656C61793A20202020000000000095
:10525000000000000000000000000000004C6F6E25
:105260006765737420536875747465723A00000042
:1052700000000000000000000000000000000053DB
:105280006C656570206274772073686F747320009A
:10529000000000000000000000000000000000000E
:1052A000004261636B6C69676874206F6E3F3A20DF
:1052B00020000000000000000000000000000000CE
:1052C000000000536C696465204561736520467574
:1052D0006E633A00000000000000000000000000C3
:1052E0000000000000536C6964652045617365200F
:1052F000437572763A0000000000000000000000D4
:105300000000000000000054696D65204561736570
:105310002046756E633A2000000000000000000087
:1053200000000000000000000054696D6520437516
:105330007276652046756E633A000000000000003A
:1053400000000000000000000000004D6F76656D59
:10535000656E74204469723A202020004D6F746F8E
:1053600072202D2D2D2D2D3E20456E6400456E643E
:10537000202D2D2D2D2D3E204D6F746F7200546900
:105380006D656C617073652061637469766500009A
:10539000000000000000000000000000000000000D
:1053A00054696D656C6170736520446F6E65202073
:1053B000003E3E3E20436F6D6D616E64657220203D
:1053C00020002020436F6D6D616E64204D6F646519
:1053D0002020004D6F746F72203C2D2D2D2D3E200E
:1053E000456E6400456E64203C2D2D2D2D3E204DD4
:1053F0006F746F7200526576657273696E672044D0
:105400006972203C3E003E3E3E20446972656374F2
:10541000696F6E2020200053657420454550524F1F
:105420004D204469723A2000000000000000000096
:105430000000000000000000003E3E3E2044656287
:105440007567204D6F64652020000000000000009B
:10545000000000000000000000000000000000004C
:105460000000000000000000000000004F0050009D
:1054700058003E3E3E204552524F522020202020D0
:1054800020200052657475726E696E6720486F6DDA
:10549000652020003E3E3E5265616C74696D65205A
:1054A0004D6F6465004D6F76656D656E7420537049
:1054B0006565643A20000000000000000000000064
:1054C00000000000000000000000000000000000DC
:1054D0000000000000000000525420456173652068
:1054E00046756E633A202020000000000000000096
:1054F00000000000000000000000525420456173CD
:10550000652043757276653A202000000000000097
:105510000000000000000000000000004D6F7665F4
:1055200020436F6D706C65746521202000010101BE
:105530000E01F087F0000F270500E80364003075C6
:1055400001000000100E00000A00000001015802D6
:1055500000003C0000008051010001010401010332
:1055600001010401010302010701F401010000002F
:10557000100E00000A00000019640101010401017D
:105580000301000201000100050001000000003ECF
:105590000366039A03000000003D033D033D030042
:1055A0000000002E04520489040000000043056C32
:1055B00005030500000000501CF523000040001406
:1055C00000540000000000DD1EAC1E651E6E1E8330
:0455D0001E941E0007
:00000001FF
